:020000040800F2
:10000000A00400209D010008510C00084F050008C5
:100010004D0C0008E50100082D0F0008000000004D
:10002000000000000000000000000000B50D000806
:100030001503000800000000530C0008A50E00087E
:10004000B7010008B7010008B7010008B7010008B0
:10005000B7010008B7010008B7010008B7010008A0
:10006000B7010008B7010008B7010008B701000890
:10007000B7010008B7010008E9010008B70100084E
:1000800015020008B7010008B7010008B701000811
:10009000B7010008B7010008B7010008B701000860
:1000A000B7010008B7010008B7010008B701000850
:1000B000B7010008B7010008B7010008B701000840
:1000C000B7010008B7010008B7010008B701000830
:1000D000B7010008B7010008B7010008B701000820
:1000E000B7010008B7010008B7010008B701000810
:1000F000B7010008B7010008B7010008B701000800
:10010000B7010008B90C0008B7010008B7010008E2
:10011000B7010008B7010008B7010008B7010008DF
:10012000B7010008B7010008B70100084102000844
:10013000B7010008B7010008B7010008B7010008BF
:10014000B7010008B7010008B7010008B7010008AF
:10015000B7010008B7010008B7010008B70100089F
:10016000B7010008B7010008B7010008B70100088F
:10017000B7010008B7010008B7010008B70100087F
:10018000B7010008B7010008DFF80CD000F018F83C
:10019000004800474F0F0008A00400200648804791
:1001A00006480047FEE7FEE7FEE7FEE7FEE7FEE75C
:1001B000FEE7FEE7FEE7FEE7AD0E00088901000856
:1001C000064C074D06E0E06840F0010394E80700A4
:1001D00098471034AC42F6D3FFF7DAFF6C0F0008F3
:1001E0008C0F000800BFFEE710B50749074800F074
:1001F0005FF8012806D10449044800F03FF804489C
:100200000068804710BD0000008000185860024060
:100210009400002010B50749074800F049F801286C
:1002200006D10449044800F029F8044800688047D2
:1002300010BD00000088002088600240900000206F
:1002400010B500F04DFD10BD0246094B9A4201D297
:10025000084801E00648103801F000531BB1064B76
:100260000B40C36002E0044B0B408360704700000A
:1002700010640240006002407D0F7D0F0246094B72
:100280009A4201D2084801E00648103801F00053B4
:100290001BB1064B0B40C36002E0044B0B40836074
:1002A0007047000010640240006002407D0F7D0F27
:1002B00070B50246002000240025124EB24201D241
:1002C000114B01E00F4B103B104E0E4036B11E2675
:1002D00006EAD124166806EA040502E0566906F02B
:1002E000800501F000560EB15C6800E01C68084E05
:1002F000344004EA010616B10DB1012000E00020EF
:1003000070BD000010640240006002403C0F3C0FD2
:100310007D0F7D0F7047000051B18200A2F1C042F5
:10032000126842F001038200A2F1C042136009E0AA
:100330008200A2F1C0421268034B1A408300A3F16D
:10034000C0431A6070470000FEFF0F0030B5002167
:10035000002200230468A400A4F1C0442168424C98
:100360002140D0E901452C43C5682C4305692C4345
:1003700045692C4385692C43C5692C43056A2C4388
:10038000456A2C43856A2C43C56A2C43056B2C4374
:1003900021430468A400A4F1C04421608468082CAF
:1003A0000BD10468A400A4F1C044246844F04005C3
:1003B0000468A400A4F1C04425600468641CA4007F
:1003C000A4F1C044226802F04042446B2468456BAB
:1003D0006D6844EA0514456BAD6844EA0524456B35
:1003E000AD8944EA0544456B2D8A44EA0554456BC2
:1003F0002D7D44EA0564456BAD692C4322430468B6
:10040000641CA400A4F1C0442260C46AB4F5804F07
:1004100020D10468A400A4F1C044D4F80431134CE2
:100420002340846B2468856B6D6844EA0514856BF2
:10043000AD6844EA0524856BAD8944EA0544856BC3
:10044000AD692C4323430468A400A4F1C044C4F85C
:10045000043107E06FF070450468A400A4F1C044C3
:10046000C4F8045130BD00008000F7FF0000F0CF59
:10047000F0B50A4600210023002400BF3DE001251D
:1004800005FA01F3156805EA03049C4234D10568B6
:100490004F000326BE40B543056015794E00B540B8
:1004A0000668354305601579012D02D01579022DB6
:1004B00016D185684F000326BE40B5438560557947
:1004C0004E00B540866835438560456801268E40FC
:1004D000B5434560456896798E40B6B23543456070
:1004E000C5684F000326BE40B543C560D5794E00B0
:1004F000B540C6683543C560491C1029BFD3F0BD5F
:10050000F0B5002300244D07ED0E02FA05F3CE10DE
:1005100000F1200555F826504E07F70E0F26BE4075
:10052000B543CF1000F1200646F82750CE1000F159
:10053000200555F8265045EA0304CE1000F12005A9
:1005400045F82640F0BD418370470183704700BFE6
:10055000FEE7000010B5044624B101210448FFF76E
:10056000F4FF03E001210248FFF7EDFF10BD00009A
:10057000000402402DE9F04106460F4614461D4690
:10058000DDF818802B4622463946304600F0CDF97A
:1005900004FB05F0414600F090F8BDE8F08101B59C
:1005A00002E00098401E009000980028F9D108BD94
:1005B0002DE9FF4F85B081468A464FF0000B0020A1
:1005C00001900798A0EB09050898A0EB0A06CDF862
:1005D0000C90CDF808A0002D01DD012705E00DB934
:1005E000002702E04FF0FF376D42002E02DD4FF092
:1005F000010806E016B94FF0000802E04FF0FF389E
:100600007642B54201DD2C4600E0344600200490DD
:100610001EE0129ADDE9021000F0EEFAAB440198F8
:1006200030440190A34505DDABEB040B039838443F
:1006300080B203900198A04206DD0198001B019052
:100640000298404480B202900498401C80B204900A
:10065000611C04988842DCDD09B0BDE8F08F00B56C
:1006600097B00121084600F005FB0420019003909B
:100670008006079000200290049005900690089054
:10068000099008200A9010200B9000200C900E90EA
:100690000F9010904FF48050119000201290139002
:1006A000149001A81590169008A8FFF74FFE01219D
:1006B0000020FFF731FE17B000BD70B504460D46AF
:1006C00000262C2000F0AAFA00BF03E0284600F024
:1006D000A9FA761CA642F9D370BD00001CB5012111
:1006E0001A2000F0B7FA00208DF8060001208DF8DE
:1006F000070002208DF8040003208DF805004FF458
:100700008040009069467F48FFF7B2FE0C220E2120
:100710007C48FFF7F5FE4FF40040009069467948A9
:10072000FFF7A6FE0C220F217648FFF7E9FE012015
:10073000009069467348FFF79BFE0C220021714828
:10074000FFF7DEFE0220009069466E48FFF790FE3C
:100750000C2201216B48FFF7D3FE802000906946F0
:100760006948FFF785FE0C2207216748FFF7C8FE9E
:100770004FF48070009069466348FFF779FE0C22C1
:1007800008216148FFF7BCFE4FF4007000906946F5
:100790005D48FFF76DFE0C2209215B48FFF7B0FEB4
:1007A0004FF48060009069465748FFF761FE0C22C5
:1007B0000A215548FFF7A4FE4FF4006000906946F7
:1007C0005148FFF755FE0C220B214F48FFF798FECA
:1007D0004FF48050009069464B48FFF749FE0C22C9
:1007E00011464948FFF78CFE4FF4005000906946CF
:1007F0004548FFF73DFE0C220D214348FFF780FEE0
:100800004FF48040009069463F48FFF731FE0C22CC
:100810000E213D48FFF774FE4FF4004000906946FA
:100820003948FFF725FE0C220F213748FFF768FEF5
:100830004FF48070009069463248FFF719FE0C2291
:1008400008213048FFF75CFE4FF4007000906946C5
:100850002C48FFF70DFE0C2209212A48FFF750FE15
:100860004FF48060009069462648FFF701FE0C2295
:100870000A212448FFF744FE1020009069462148D1
:10088000FFF7F6FD0C2204211E48FFF739FE202059
:10089000009069461B48FFF7EBFD0C220521194823
:1008A000FFF72EFE8020009069461648FFF7E0FD16
:1008B0000C2207211348FFF723FE4FF4006000903D
:1008C00069461048FFF7D4FD0C220B210D48FFF7B5
:1008D00017FE01208DF8040000208DF8060001208D
:1008E0008DF8070002208DF8050008200090694669
:1008F0000448FFF7BDFD0120009069460348FFF75B
:10090000B7FD1CBD000C0240001002400004024074
:1009100010B5FFF7E3FEFFF7A2FE0120FFF71AFE76
:1009200000F04CF900F032F810BD2DE9F04104461A
:100930000D4616461F462A2000F070F9201200F0DE
:1009400071F9E0B200F06EF9A119491EC1F30F2050
:1009500000F068F9A119491EC8B200F063F92B2014
:1009600000F05CF9281200F05DF9E8B200F05AF9E5
:10097000E919491EC1F30F2000F054F9E919491E85
:10098000C8B200F04FF9BDE8F081000010B5CF20EB
:1009900000F044F9002000F045F9812000F042F910
:1009A000302000F03FF9ED2000F038F9642000F02D
:1009B00039F9032000F036F9122000F033F98120D4
:1009C00000F030F9E82000F029F9852000F02AF93C
:1009D000102000F027F9782000F024F9CB2000F057
:1009E0001DF9392000F01EF92C2000F01BF9002021
:1009F00000F018F9342000F015F9022000F012F987
:100A0000F72000F00BF9202000F00CF9EA2000F0AC
:100A100005F9002000F006F9002000F003F9B120EC
:100A200000F0FCF8002000F0FDF81B2000F0FAF8C0
:100A3000B62000F0F3F80A2000F0F4F8A22000F04D
:100A4000F1F8C02000F0EAF8352000F0EBF8C12002
:100A500000F0E4F8112000F0E5F8C52000F0DEF821
:100A6000452000F0DFF8452000F0DCF8C72000F05A
:100A7000D5F8A22000F0D6F8F22000F0CFF8002040
:100A800000F0D0F8262000F0C9F8012000F0CAF8E4
:100A9000E02000F0C3F80F2000F0C4F8262000F09A
:100AA000C1F8242000F0BEF80B2000F0BBF80E20A7
:100AB00000F0B8F8092000F0B5F8542000F0B2F8C2
:100AC000A82000F0AFF8462000F0ACF80C2000F0B1
:100AD000A9F8172000F0A6F8092000F0A3F80F20CD
:100AE00000F0A0F8072000F09DF8002000F09AF830
:100AF000E12000F093F8002000F094F8192000F0B5
:100B000091F81B2000F08EF8042000F08BF81020E4
:100B100000F088F8072000F085F82A2000F082F81D
:100B2000472000F07FF8392000F07CF8032000F027
:100B300079F8062000F076F8062000F073F83020EF
:100B400000F070F8382000F06DF80F2000F06AF81F
:100B5000362000F063F8C82000F064F82A2000F086
:100B60005DF8002000F05EF8002000F05BF8002047
:100B700000F058F8EF2000F055F82B2000F04EF868
:100B8000002000F04FF8002000F04CF8012000F0A9
:100B900049F83F2000F046F83A2000F03FF8552091
:100BA00000F040F8112000F039F80348FFF7F7FC97
:100BB000292000F033F810BDFCBF020010B5082159
:100BC0000648FFF7C0FC0648FFF7E9FC0821034888
:100BD000FFF7BBFC0248FFF7E2FC10BD000C02402F
:100BE000FCBF020070B504460D4601231A46294693
:100BF0002046FFF79AFE70BD70B506460C461546B6
:100C0000B6F5A07F09DAF02C07DA21463046FFF767
:100C1000E9FF29460120FFF750FD70BD4FF0C041AC
:100C2000088070470149088070470000000002609A
:100C300008B5FFF76DFE4FF6FF70F0234FF4A0727A
:100C4000002100900846FFF795FC08BD00BFFEE7B5
:100C50007047704729B1064A12680243044B1A6074
:100C600004E0034A12688243014B1A607047000097
:100C70003038024029B1064A12680243044B1A6018
:100C800004E0034A12688243014B1A607047000077
:100C9000383802400149086070470000382C014094
:100CA00001460020034A12680A400AB1012000E010
:100CB00000207047342C014010B500F025F810BD1D
:100CC00029B1064A12680243044B1A6004E0034A41
:100CD00012688243014B1A60704700003C2C0140AF
:100CE00010B50748006800F0C05040B10120054928
:100CF00008604FF0C25102485830FFF7A5FA10BD06
:100D0000006402401400002010B54FF48070FFF71B
:100D1000C7FF50B10020254908704FF48070FFF7DD
:100D2000B9FF01202249086037E00220FFF7B8FF31
:100D300030B10220FFF7AEFF02201C4908702CE002
:100D40000820FFF7ADFF30B10820FFF7A3FF042014
:100D50001649087021E02020FFF7A2FF30B12020C3
:100D6000FFF798FF06201149087016E01020FFF7E2
:100D700097FF30B11020FFF78DFF05200B49087059
:100D80000BE04FF40070FFF78BFF30B14FF40070B1
:100D9000FFF780FF07200549087000214CF23A3028
:100DA000FFF78EFF0148007810BD00000C00002006
:100DB00010000020704700000CB50020019000904A
:100DC0003448006840F480303249086000BF314840
:100DD000006800F4003000900198401C01900098D9
:100DE00018B90198B0F5A04FF1D12A48006800F475
:100DF000003010B10120009001E000200090009828
:100E0000012846D123484030006840F080502149F5
:100E1000403108602048006840F440401E490860A6
:100E20001C48083000681B49083108600846006803
:100E300040F4004008600846006840F4A050086094
:100E40001648091F0860081F006840F08070091FDD
:100E5000086000BF0F48006800F000700028F9D05B
:100E600040F205700E4908600A480830006820F01A
:100E700003000849083108600846006840F0020095
:100E8000086000BF03480830006800F00C00082824
:100E9000F8D10CBD00380240007000400C544007EF
:100EA000003C024010B500F035F810BD10B51548F3
:100EB000006840F47000134908601348006840F06F
:100EC00001001149086000200F49083108600E48F0
:100ED00000680E4908400C4908600D48091D08606B
:100EE000081F006820F48020091F086000200649C0
:100EF0000C310860FFF760FF4FF000600149803956
:100F0000086010BD88ED00E000380240FFFFF6FEEB
:100F1000103000240448006820B103480068401ED7
:100F200001490860704700009800002000BFFEE7FC
:100F300002E008C8121F08C1002AFAD170477047A2
:100F4000002001E001C1121F002AFBD1704708B543
:100F5000FFF76EFE4FF47840F0231A460021009010
:100F60000846FFF725FB00BFFEE700008C0F0008D6
:100F7000000000209C000000300F0008281000082E
:100F80009C00002004040000400F00080000000046
:100F90000000000000000000000000000000000051
:100FA00000000000008002000000000000000000BF
:100FB0005000000040010000000000000000FF00A1
:100FC000FF0000000001FF00FF0000002C012C00CA
:100FD0002C002C002C00000032000000000000005B
:100FE000000000000000000038000B00320000008C
:100FF00008000C009300E900000000000000000061
:1010000003001000100000010001020001000100B7
:1010100039003900390039000100010000000000EA
:081020000000000000000000C8
:040000050800018965
:00000001FF
