:020000040800F2
:1000000018B201209D0100088D6E00086F4C000899
:10001000896E0008250E0008C59000080000000049
:10002000000000000000000000000000D98500086A
:10003000F514000800000000B1710008C98600082E
:10004000B7010008B7010008B7010008B7010008B0
:10005000B7010008B7010008B7010008B7010008A0
:10006000B7010008B7010008B7010008B701000890
:10007000B7010008B70100086D110008B7010008BA
:1000800099110008B7010008B7010008B70100087E
:10009000B7010008B7010008B7010008B701000860
:1000A000B7010008B7010008B7010008B701000850
:1000B000E9880008B7010008B7010008B701000887
:1000C000B7010008B7010008B7010008B701000830
:1000D000B7010008B7010008B7010008B701000820
:1000E000B7010008B7010008B7010008B701000810
:1000F000B7010008B7010008B7010008B701000800
:10010000B701000839760008B7010008B7010008F8
:10011000B7010008B701000815890008B7010008F9
:10012000B7010008B7010008B7010008C5110008B1
:10013000B7010008B7010008B7010008B7010008BF
:10014000B7010008B7010008B7010008B7010008AF
:10015000B7010008B7010008B7010008B70100089F
:10016000B7010008B7010008B7010008B70100088F
:10017000B7010008B7010008B7010008B70100087F
:10018000B7010008B7010008DFF80CD000F0E2FC6E
:1001900000480047D50B010818B2012006488047E7
:1001A00006480047FEE7FEE7FEE7FEE7FEE7FEE75C
:1001B000FEE7FEE7FEE7FEE7498700088901000841
:1001C00081FB0020704701464FF0000081EAE1709A
:1001D000A0EBE170704700002DE9F04F82B0019074
:1001E0004FF000744FF000784FF000054FF0000919
:1001F00052F804CB52F804EB0868CB6DC0FB0C45F9
:10020000D1F88000CEF1000EC3FB0E45D1F8DC30F2
:10021000C0FB0C89C3FB0E8952F804CB52F804EBE7
:1002200048688B6DC0FB0C45D1F88400CEF1000E00
:10023000C3FB0E45D1F8D830C0FB0C89C3FB0E8937
:1002400052F804CB52F804EB88684B6DC0FB0C45A8
:10025000D1F88800CEF1000EC3FB0E45D1F8D430A2
:10026000C0FB0C89C3FB0E8952F804CB52F804EB97
:10027000C8680B6DC0FB0C45D1F88C00CEF1000EA8
:10028000C3FB0E45D1F8D030C0FB0C89C3FB0E89EF
:1002900052F804CB52F804EB0869CB6CC0FB0C4558
:1002A000D1F89000CEF1000EC3FB0E45D1F8CC3052
:1002B000C0FB0C89C3FB0E8952F804CB52F804EB47
:1002C00048698B6CC0FB0C45D1F89400CEF1000E50
:1002D000C3FB0E45D1F8C830C0FB0C89C3FB0E89A7
:1002E00052F804CB52F804EB88694B6CC0FB0C4508
:1002F000D1F89800CEF1000EC3FB0E45D1F8C43002
:10030000C0FB0C89C3FB0E8952F804CB52F804EBF6
:10031000C8690B6CC0FB0C45D1F89C00CEF1000EF7
:10032000C3FB0E45D1F8C030C0FB0C89C3FB0E895E
:1003300001984FF4FE4E4EF0FF0E4FEA946444EAEB
:1003400085144FEAE47CBCEBE43F18BF8CEA0E0452
:100350004FEA986848EA89184FEAE87CBCEBE83F26
:1003600018BF8CEA0E080480A0F8028002F57072B3
:1003700001F580514FF000744FF000784FF0000508
:100380004FF0000952F804CB0868D1F88030C0FB68
:100390000C45C3FB0C8952F804CB4868D1F8843073
:1003A000C0FB0C45C3FB0C8952F804CB8868D1F81C
:1003B0008830C0FB0C45C3FB0C8952F804CBC868DD
:1003C000D1F88C30C0FB0C45C3FB0C8952F804CB30
:1003D0000869D1F89030C0FB0C45C3FB0C8952F87A
:1003E00004CB4869D1F89430C0FB0C45C3FB0C89A1
:1003F00052F804CB8869D1F89830C0FB0C45C3FB98
:100400000C8952F804CBC869D1F89C30C0FB0C456C
:10041000C3FB0C8901984FF4FE4E4EF0FF0E4FEADD
:10042000946444EA85144FEAE47CBCEBE43F18BFD3
:100430008CEA0E044FEA986848EA89184FEAE87C8B
:10044000BCEBE83F18BF8CEA0E08A0F84040A0F8CB
:100450004280A2F57872A1F570614FF00F0C00F1A7
:100460000400CDF800C001904FF000744FF0007808
:100470004FF000764FF0007A4FF000054FF0000982
:100480004FF000074FF0000B52F804CB52F804EB8A
:100490000868CB6DC0FB0C45C0FB0E67CEF1000EAB
:1004A000C3FB0C67C3FB0E45D1F8DC30D1F88000EC
:1004B000C3FB0E89C3FB0CABCEF1000EC0FB0C8955
:1004C000C0FB0EAB52F804CB52F804EB48688B6DBE
:1004D000C0FB0C45C0FB0E67CEF1000EC3FB0C67E2
:1004E000C3FB0E45D1F8D830D1F88400C3FB0E8988
:1004F000C3FB0CABCEF1000EC0FB0C89C0FB0EABF6
:1005000052F804CB52F804EB88684B6DC0FB0C45E5
:10051000C0FB0E67CEF1000EC3FB0C67C3FB0E459C
:10052000D1F8D430D1F88800C3FB0E89C3FB0CABE3
:10053000CEF1000EC0FB0C89C0FB0EAB52F804CB11
:1005400052F804EBC8680B6DC0FB0C45C0FB0E678E
:10055000CEF1000EC3FB0C67C3FB0E45D1F8D030C3
:10056000D1F88C00C3FB0E89C3FB0CABCEF1000E9F
:10057000C0FB0C89C0FB0EAB52F804CB52F804EB65
:100580000869CB6CC0FB0C45C0FB0E67CEF1000EBA
:10059000C3FB0C67C3FB0E45D1F8CC30D1F89000FB
:1005A000C3FB0E89C3FB0CABCEF1000EC0FB0C8964
:1005B000C0FB0EAB52F804CB52F804EB48698B6CCD
:1005C000C0FB0C45C0FB0E67CEF1000EC3FB0C67F1
:1005D000C3FB0E45D1F8C830D1F89400C3FB0E8997
:1005E000C3FB0CABCEF1000EC0FB0C89C0FB0EAB05
:1005F00052F804CB52F804EB88694B6CC0FB0C45F5
:10060000C0FB0E67CEF1000EC3FB0C67C3FB0E45AB
:10061000D1F8C430D1F89800C3FB0E89C3FB0CABF2
:10062000CEF1000EC0FB0C89C0FB0EAB52F804CB20
:1006300052F804EBC8690B6CC0FB0C45C0FB0E679D
:10064000CEF1000EC3FB0C67C3FB0E45D1F8C030E2
:10065000D1F89C00C3FB0E89C3FB0CABCEF1000E9E
:10066000C0FB0C89C0FB0EAB01F5807101984FF403
:10067000FE4E4EF0FF0E4FEA946444EA85144FEAB2
:10068000E47CBCEBE43F18BF8CEA0E044FEA9868A8
:1006900048EA89184FEAE87CBCEBE83F18BF8CEACF
:1006A0000E084FEA966646EA87164FEAE67CBCEBF0
:1006B000E63F18BF8CEA0E064FEA9A6A4AEA8B1A9E
:1006C0004FEAEA7CBCEBEA3F18BF8CEA0E0ADDF881
:1006D00000C000EBCC0E2EF8026B2EF802AB20F817
:1006E000024B20F8028BBCF1010C7FF4BAAE02B0D1
:1006F000BDE8F08F2DE9F04F82B001904FF000740B
:100700004FF0000552F804CB52F804EB0868CB6DAB
:10071000CEF1000EC0FB0C45C3FB0E4552F804CBD6
:1007200052F804EB48688B6DCEF1000EC0FB0C450F
:10073000C3FB0E4552F804CB52F804EB88684B6DAE
:10074000CEF1000EC0FB0C45C3FB0E4552F804CBA6
:1007500052F804EBC8680B6DCEF1000EC0FB0C45DF
:10076000C3FB0E4552F804CB52F804EB0869CB6C7E
:10077000CEF1000EC0FB0C45C3FB0E4552F804CB76
:1007800052F804EB48698B6CCEF1000EC0FB0C45AF
:10079000C3FB0E4552F804CB52F804EB88694B6C4E
:1007A000CEF1000EC0FB0C45C3FB0E4552F804CB46
:1007B00052F804EBC8690B6CCEF1000EC0FB0C457F
:1007C000C3FB0E4501984FF4FE4E4EF0FF0E4FEA6C
:1007D000946444EA85144FEAE47CBCEBE43F18BF20
:1007E0008CEA0E04048002F5707201F580514FF01E
:1007F00000744FF0000552F804CB0868C0FB0C45AC
:1008000052F804CB4868C0FB0C4552F804CB88680A
:10081000C0FB0C4552F804CBC868C0FB0C4552F82D
:1008200004CB0869C0FB0C4552F804CB4869C0FBF7
:100830000C4552F804CB8869C0FB0C4552F804CB38
:10084000C869C0FB0C4501984FF4FE4E4EF0FF0EF8
:100850004FEA946444EA85144FEAE47CBCEBE43F3D
:1008600018BF8CEA0E040484A2F57872A1F57061B9
:100870004FF00F0C00F10200CDF800C001904FF0D6
:1008800000744FF000764FF000054FF0000752F86B
:1008900004CB52F804EB0868CB6DC0FB0C45C0FBE1
:1008A0000E67CEF1000EC3FB0E45C3FB0C6752F87A
:1008B00004CB52F804EB48688B6DC0FB0C45C0FBC1
:1008C0000E67CEF1000EC3FB0E45C3FB0C6752F85A
:1008D00004CB52F804EB88684B6DC0FB0C45C0FBA1
:1008E0000E67CEF1000EC3FB0E45C3FB0C6752F83A
:1008F00004CB52F804EBC8680B6DC0FB0C45C0FB81
:100900000E67CEF1000EC3FB0E45C3FB0C6752F819
:1009100004CB52F804EB0869CB6CC0FB0C45C0FB60
:100920000E67CEF1000EC3FB0E45C3FB0C6752F8F9
:1009300004CB52F804EB48698B6CC0FB0C45C0FB40
:100940000E67CEF1000EC3FB0E45C3FB0C6752F8D9
:1009500004CB52F804EB88694B6CC0FB0C45C0FB20
:100960000E67CEF1000EC3FB0E45C3FB0C6752F8B9
:1009700004CB52F804EBC8690B6CC0FB0C45C0FB00
:100980000E67CEF1000EC3FB0E45C3FB0C6701F5ED
:10099000807101984FF4FE4E4EF0FF0E4FEA9464C2
:1009A00044EA85144FEAE47CBCEBE43F18BF8CEAD0
:1009B0000E044FEA966646EA87164FEAE67CBCEBE1
:1009C000E63F18BF8CEA0E06DDF800C000EB8C0E87
:1009D0002EF8026B20F8024BBCF1010C7FF44CAFF7
:1009E00002B0BDE8F08F2DE9F05F05460020924689
:1009F0009B4688460646814640241BE028464146E1
:100A00004746224600F095F853465A46C01A91418F
:100A100010D311461846224600F07CF82D1A67EBD9
:100A200001084F4622460120002100F073F817EB21
:100A300000094E41201EA4F10104DFDC4846314686
:100A40002A464346BDE8F09F10B5441A0346944237
:100A500009D28418114403E011F8013D04F8013D66
:100A6000521EF9D210BD40EA0104A40703D009E0E8
:100A700010C9121F10C3042AFAD203E011F8014B67
:100A800003F8014B521EF9D210BDD2B201E000F8BA
:100A9000012B491EFBD270470022F6E710B5134622
:100AA0000A4604461946FFF7F0FF204610BD421CD7
:100AB00010F8011B0029FBD1801A704730B504469D
:100AC0000020034600E05B1C934203D2E05CCD5C57
:100AD000401BF8D030BD034611F8012B00F8012B64
:100AE000002AF9D11846704730B50B460146002060
:100AF0002022012409E021FA02F59D4205D303FAE0
:100B000002F5491B04FA02F52844151EA2F1010260
:100B1000F1DC30BD202A04DB203A00FA02F100208B
:100B200070479140C2F1200320FA03F3194390402B
:100B30007047202A04DB203A21FA02F00021704796
:100B400021FA02F3D040C2F1200291400843194635
:100B500070470000064C074D06E0E06840F00103D6
:100B600094E8070098471034AC42F6D3FFF710FB27
:100B7000B8450408D845040870B58C1810F8015B16
:100B800015F0070301D110F8013B2A1106D110F826
:100B9000012B03E010F8016B01F8016B5B1EF9D12A
:100BA0002B0705D40023521E0DD401F8013BFAE7B0
:100BB00010F8013BCB1A921C03E013F8015B01F81B
:100BC000015B521EF9D5A142D8D3002070BD0000B0
:100BD0002DE9F84F04460E4637461CE1904D483447
:100BE000203CD4F81C80D5F800A02D1DD4F820900E
:100BF000286800902D1D41465046FFF7E1FA8346D4
:100C000049460098FFF7DCFAABEB00004000E061DA
:100C100049465046FFF7D4FA834641460098FFF70D
:100C2000CFFA584440002062D4F81880D5F800A0CC
:100C30002D1DD4F82490286800902D1D4146504663
:100C4000FFF7BEFA834649460098FFF7B9FAABEBC7
:100C500000004000A06149465046FFF7B1FA8346C4
:100C600041460098FFF7ACFA584440006062D4F85F
:100C70001480D5F800A02D1DD4F828902868009085
:100C80002D1D41465046FFF79BFA83464946009882
:100C9000FFF796FAABEB0000400060614946504612
:100CA000FFF78EFA834641460098FFF789FA5844C9
:100CB0004000A062D4F81080D5F800A02D1DD4F813
:100CC0002C90286800902D1D41465046FFF778FA79
:100CD000834649460098FFF773FAABEB00004000EB
:100CE000206149465046FFF76BFA8346414600981B
:100CF000FFF766FA58444000E062D4F80C80D5F85B
:100D000000A02D1DD4F83090286800902D1D41467C
:100D10005046FFF755FA834649460098FFF750FAC8
:100D2000ABEB00004000E06049465046FFF748FA50
:100D3000834641460098FFF743FA58444000206339
:100D4000D4F80880D5F800A02D1DD4F83490286878
:100D500000902D1D41465046FFF732FA8346494622
:100D60000098FFF72DFAABEB00004000A060494669
:100D70005046FFF725FA834641460098FFF720FAD0
:100D8000584440006063D4F80480D5F800A02D1DBD
:100D9000D4F83890286800902D1D41465046FFF742
:100DA0000FFA834649460098FFF70AFAABEB0000BA
:100DB0004000606049465046FFF702FA83464146CC
:100DC0000098FFF7FDF958444000A063D4F8008074
:100DD000D5F800A02D1DD4F83C90286800902D1D5A
:100DE00041465046FFF7ECF9834649460098FFF725
:100DF000E7F9ABEB00004000206049465046FFF7A2
:100E0000DFF9834641460098FFF7DAF9584440007D
:100E1000E06320347F1E002F3FF7E0AEBDE8F88F7F
:100E2000A823040800BFFEE7014609B92020704747
:100E3000002201E0521C490001F000400028F9D0D6
:100E40001046F4E7014609B920207047002201E06E
:100E5000521C490001F000400028F9D01046F4E788
:100E600010B502461346002002E000241C54401C2A
:100E70008842FADB10BD70B500254FF4803400E0E5
:100E8000641E24B1802006F0ABFB0028F8D014B912
:100E90000325284670BD40F2FF5006F05DFB284652
:100EA000F8E700002DE9F0410646002748480568AC
:100EB00001E04748056805F045000028F9D005F035
:100EC000040030B10327042006F046FB3846BDE895
:100ED000F08105F0010028B10127012006F03CFB5C
:100EE0003846F4E706F076FBB04202D010273846C9
:100EF000EDE740F2FF5006F02FFB002006F090FBDC
:100F000004463448204008B93846E0E704F0004081
:100F100008B11C20DBE704F0804008B10920D6E7C7
:100F200004F0005008B10A20D1E704F0805008B165
:100F30000B20CCE704F0006008B10C20C7E704F0F8
:100F4000806008B10D20C2E704F0807008B10E2067
:100F5000BDE704F4000008B10F20B8E704F48000F6
:100F600008B11020B3E704F4001008B11120AEE777
:100F700004F4801008B11220A9E704F4002008B19D
:100F80001320A4E704F4802008B114209FE704F4A0
:100F9000003008B115209AE704F4803008B116201B
:100FA00095E704F4004008B1172090E704F480406E
:100FB00008B118208BE704F4005008B1192086E727
:100FC00004F0080008B11A2081E738467FE70000E6
:100FD000342C014008E0FFFD70B50025104804687E
:100FE00001E00F48046804F045000028F9D004F03F
:100FF000040028B10325042006F0AEFA284670BD8F
:1010000004F0010028B10125012006F0A5FA2846C8
:10101000F5E740F2FF5006F09FFA2846EFE70000A0
:10102000342C014070B500250B48046801E00A48E3
:10103000046804F045000028F9D004F0040028B149
:101040000325042006F088FA284670BD40F2FF50C0
:1010500006F082FA2846F8E7342C01402DE9F041E9
:1010600006460F464FF000082248056801E0214877
:10107000056805F045000028F9D005F0040038B1F6
:101080004FF00308042006F067FA4046BDE8F081FF
:1010900005F0010030B14FF00108012006F05CFAC4
:1010A0004046F3E706F096FAB04203D04FF010083E
:1010B0004046EBE740F2FF5006F04EFA002006F003
:1010C000AFFA044604F4604018B9200C388040465A
:1010D000DCE704F4005008B11320D7E704F48040A3
:1010E00008B11020D2E704F4004008B10F20CDE78A
:1010F0004046CBE7342C014070B500264FF48035D4
:101100000F48046802E06D1E0D48046804F04500B5
:1011100008B9002DF7D115B104F0040028B1032659
:10112000042006F019FA304670BD04F0400028B1E2
:101130000026402006F010FA3046F5E73046F3E787
:10114000342C01407CB508F0EFFA054600200090F1
:101150002B46044A04210190034802F00BF904468F
:1011600020467CBDBDE90008B828040810B5074931
:10117000074800F043F9012806D10449044800F06B
:101180003FF804480068804710BD00000080001848
:1011900058600240F400002010B50749074800F0ED
:1011A0002DF9012806D10449044800F029F8044823
:1011B0000068804710BD0000008800208860024061
:1011C000F000002010B506F033FF10BD0246094BB9
:1011D0009A4201D2084801E00648103801F0005355
:1011E0001BB1064B0B40C36002E0044B0B40836015
:1011F0007047000010640240006002407D0F7D0FC8
:101200000246094B9A4201D2084801E006481038CC
:1012100001F000531BB1064B0B40C36002E0044BCE
:101220000B40836070470000106402400060024081
:101230007D0F7D0F21B1026842F00102026003E0E0
:10124000026822F00102026070470000016821F08C
:10125000010101600021016041608160C1600161A4
:10126000212141614A49884204D13D21484A103A2E
:1012700091608CE046491831884205D14FF4746181
:10128000434A103A916082E041493031884205D1A9
:101290004FF474113E4A103A916078E03C4948316D
:1012A000884205D14FF07461394A103A91606EE07E
:1012B00037496031884204D13649354A103AD16005
:1012C00065E033497831884204D13349304A103AD5
:1012D000D1605CE02E499031884204D12F492C4ADC
:1012E000103AD16053E02A49A831884205D14FF025
:1012F0003D51274A103AD16049E02949884204D13A
:101300003D21274A083A116041E0254918318842B9
:1013100005D14FF47461224A083A116037E0204940
:101320003031884205D14FF474111D4A083A1160DA
:101330002DE01B494831884205D14FF07461184AAD
:10134000083A116023E016496031884204D11149FE
:10135000134A121F11601AE011497831884204D1F2
:101360000D490F4A121F116011E00D49903188425A
:1013700004D10A490A4A121F116008E00849A8313D
:10138000884204D14FF03D51054A121F1160704749
:10139000106002403D000020400F002000003D2072
:1013A0001064024021B1026842F48022026003E02E
:1013B000026822F480220260704722B1036843F47D
:1013C0000023036003E0036823F40023036001614A
:1013D000704721B1026842F02002026003E0026817
:1013E00022F0200202607047014600200A6802F0E5
:1013F00001020AB1012000E00020704770B50246EA
:10140000002000240025124EB24201D2114B01E00F
:101410000F4B103B104E0E4036B11E2606EAD1246B
:10142000166806EA040502E0566906F0800501F038
:1014300000560EB15C6800E01C68084E344004EAB7
:10144000010616B10DB1012000E0002070BD0000C2
:1014500010640240006002403C0F3C0F7D0F7D0F86
:1014600010B501F080034BB122B1436943F0800312
:10147000436103E0436923F08003436180290BD07B
:101480002AB1036801F01E042343036004E00368EB
:1014900001F01E04A343036010BD000010B500223C
:1014A0000268134B1A40CC680B6823434C692343F2
:1014B0008C692343CC6923430C6A23434C6A23433E
:1014C0008C6A23434C6B23438C6B23431A43026087
:1014D000426922F00702D1E90B3423431A434261E7
:1014E0000B6943604B6883608B68C36010BD00006C
:1014F0003F801CF07047000000B587B0012108460E
:1015000005F058FE0121102005F094FE00208DF812
:101510001A0001208DF81B0002208DF819008DF8AB
:1015200018000002059005A9174801F047FB0220AA
:101530008DF818004002059005A9134801F03EFB04
:1015400007220A21104801F081FB072209210E48D9
:1015500001F07CFB4FF4E13001900020ADF8080071
:10156000ADF80A00ADF80C00ADF810000C20ADF895
:101570000E0001A9054807F0F1FA0121034807F020
:10158000D3FA07B000BD0000000002400010014087
:101590002DE9FF4F87B005460E46149C002E03DC54
:1015A00000200BB0BDE8F08F002B02DA4FF0FF30C7
:1015B000F7E70593DFF858B309985BF82000DFF8E8
:1015C00054B30BEB40000190DFF84CB309985BF883
:1015D00030C009980BEBC0000079029000221598EA
:1015E000404200F0070129B114F8010BC1F1200BB2
:1015F00000FA0BF25B1A029898B9002006900BE0F3
:101600004FF0000B069845F820B00698401C45F8AE
:1016100020B00698801C06900698B042F0DB0020AF
:10162000BFE70298012879D10198007800F00F00F7
:1016300004900198801C01904FF0000A65E0102B87
:1016400010DB14F8010BC1F1180B00FA0BF0024388
:1016500014F8010BC1F1100B00FA0BF0024310312A
:10166000103B22E0C818002802DC4FF0FF3098E75A
:10167000002B06DD14F8010BC1F1180B00FA0BF07A
:101680000243082B06DD14F8010BC1F1100B00FA20
:101690000BF0024319440023481E4FF0004B4BFA55
:1016A00000F002404FF00B0A51442AE00498C0F1C8
:1016B000200022FA00F0DDF804B03BF810804FEA79
:1016C000183EA1EB0E0102FA0EF2C8F30319B9F1AC
:1016D000000F05D002F0004040EA09095200491EFF
:1016E000C8F3032727B102F0004007435200491E08
:1016F000514502DA4FF0FF3053E745F8049B80C5AF
:10170000B61E002E01DD0B29D0DA002E97DCA1EBEE
:101710000A0003440598C01A43E7FFE7029803282C
:1017200002D00298022876D1019800904FF0000A6A
:10173000E2E0102B10DB14F8010BC1F1180B00FADA
:101740000BF0024314F8010BC1F1100B00FA0BF07F
:1017500002431031103B22E0C818002802DC4FF091
:10176000FF301EE7002B06DD14F8010BC1F1180B4A
:1017700000FA0BF00243082B06DD14F8010BC1F14F
:10178000100B00FA0BF0024319440023481E4FF0DF
:10179000004B4BFA00F002404FF00B0A5144A6E018
:1017A0000098007800F00F0004900498C0F1200B1E
:1017B00022FA0BF0401CDDF800B03BF810804FEA35
:1017C000183EBEF1000F08D10498091A049882400F
:1017D000009800EB4800009089E0A1EB0E0102FAAE
:1017E0000EF2C8F30319C8F30327B9F10F0F33D171
:1017F0000298032830D10FB1012000E000200CF145
:10180000010B5844039001EB030B0398834503DA63
:101810004FF0FF30C5E678E008E014F8010BC1F1A5
:10182000180B00FA0BF002430831083B0398814281
:10183000F3DB002B07DA19440023481E4FF0004B5E
:101840004BFA00F00240CCF1200022FA00F0814473
:10185000A1EB0C0102FA0CF2B9F1000F05D002F075
:10186000004040EA09095200491E0F2F2DD102986D
:1018700003282AD10CF10100039001EB030B03981C
:10188000834502DA4FF0FF308BE608E014F8010BD5
:10189000C1F1180B00FA0BF002430831083B039822
:1018A0008142F3DB002B07DA19440023481E4FF076
:1018B000004B4BFA00F00240CCF1200022FA00F07D
:1018C0000744A1EB0C0102FA0CF227B102F0004030
:1018D00007435200491E514502DA4FF0FF3060E6DF
:1018E00045F8049B80C5B61E0198009000BF002EED
:1018F00002DD0B29BFF654AF002E3FF71AAFA1EB64
:101900000A0003440598C01A4BE64FF0FF3048E642
:10191000581D040834FC0308D81D04082DE9FF4FA6
:1019200083B00546109C002B03DC002007B0BDE807
:10193000F08FDFF858E105985EF82000DFF850E1FD
:1019400070440090DFF84CE105985EF820000290AA
:1019500000221198404200F0070129B114F8010B50
:10196000C1F1200E00FA0EF25B1A0027019785E004
:10197000102B10DB14F8010BC1F1180E00FA0EF059
:10198000024314F8010BC1F1100E00FA0EF00243ED
:101990001031103B22E0C818002801DC3846C5E7AA
:1019A000002B06DD14F8010BC1F1180E00FA0EF041
:1019B0000243082B06DD14F8010BC1F1100E00FAEA
:1019C0000EF0024319440023481E4FF0004E4EFA19
:1019D00000F002400A2001900198014448E002987A
:1019E000C0F1200022FA00F0DDF800E01EF80060EF
:1019F0004FEA161BA1EB0B0102FA0BF2C6F3C00C67
:101A0000BCF1000F05D002F0004040EA0C0C52007F
:101A1000491EC6F38008B8F1000F05D002F000405F
:101A200040EA08085200491EC6F34009B9F1000F08
:101A300005D002F0004040EA09095200491E06F0B4
:101A4000010ABAF1000F05D002F0004040EA0A0A8C
:101A50005200491E0198814201DA384666E745F88E
:101A600004CB45F8048B45F8049B45F804AB3F1DB7
:101A70000498C01EB84201DD0A29B0DA0498C01EDD
:101A8000B8423FF775AF384650E70000281F0408FA
:101A9000D81E0408301F040801B5044900980860E6
:101AA00000BF024800680028FBD108BD7400002078
:101AB0002DE9FF4F87B0834698460020009008F03C
:101AC0000300604901EB801A08F003005E4951F8F9
:101AD000200002901F20B0EBA80F02DD4FEAA80003
:101AE00000E01F200746F81C1F2800DA00E01F2036
:101AF0000546002D01DD284600E0002005460020B7
:101B00000390DAF8040028410490DAF8080028412C
:101B10000590DAF80C002841069000BF5BF8040B32
:101B20000190019820F00044042C03DA03A850F837
:101B300024606FE0102C0BDA5AF82460002F03DACF
:101B4000794206FA01F001E046FA07F0064661E044
:101B5000402C0BDAA4F110003C4951F820603046CB
:101B60000299FEF72DFB0646FD1E45E064040025A4
:101B7000B4F1006F01DA24012D1DB4F1005F01DA28
:101B8000A400AD1CB4F1804F01DA64006D1C304834
:101B9000844201DA2F4800E02F488146D9F80060DE
:101BA00021463046FEF70CFBD9F8041046182146B2
:101BB0003046FEF705FBD9F8081046182146304696
:101BC000FEF7FEFAD9F80C10461821463046FEF70B
:101BD000F7FAD9F810104618204850F8251030466A
:101BE000FEF7EEFAC60030460299FEF7E9FA06461D
:101BF0001B4850F825003D1A002D0ADA6D426FF09F
:101C000000402841B04202DA6FF0004602E0AE40E8
:101C100000E02E410098304300900198002801DA3E
:101C2000704200E03046089908600898001D08904E
:101C30000998401E099000287FF470AF00980BB0FF
:101C4000BDE8F08F0CFA0308FCF903080CFB03084D
:101C50009A79825ACCFB0308E0FB030814FC0308C2
:101C6000F4FB03082DE9F047044640688EB00027D6
:101C7000804601F053FA0090B0F87CA0D0F868904C
:101C8000D0F88060D0F88850C06D00B10768684611
:101C900001F060FA05E0696820468847002843D1D2
:101CA0002D68002DF7D12068172853D00CDC0F28A1
:101CB0003DD004DC0B2877D00D2825D18BE01128EE
:101CC00010D0142820D13BE0262846D004DC1E2862
:101CD00051D0202818D18AE02A2816D0B0F5107FDC
:101CE00012D128E04046E56801F018FA0290697ABE
:101CF00039B9297A012904D130F87C1F41F4807167
:101D0000018002A801F026FA75E0404601F006FACB
:101D10000090E16811B1C0F8841002E0D0F88400AE
:101D2000E060684601F016FA0EB0BDE8F087D7B360
:101D30004046B8475FE0214640460BF0A9FBF3E779
:101D400005A9404600F03FFBE0680699016007994D
:101D50004160E9E7C4F80C90E6E7E0680228E3D1C7
:101D6000CDF83080E0680D9027200A900AA9A0687D
:101D700008F08EFED8E7E068012804D00021404634
:101D800000F0ACFAD0E7304608F035F868B13046DC
:101D900008F09AF9304607F007FF98B10121304664
:101DA00007F023FA0EE026E02FE0484608F0DAF9C3
:101DB0000646404601F0B2F90090C0F880606846DF
:101DC00001F0C8F90121404600F088FA002EABD19D
:101DD0000020E060A8E75FEA0A700CD4E068C06801
:101DE00048B1007A38B1404608F06EF903E0214668
:101DF00040460BF0A5FA2146404607F065F9002859
:101E000092D0204607F0B8FB8EE7404601F086F9F5
:101E10000090703001F0F4F8684673E7F0B587B0D1
:101E2000B0F908400DF10C0C0C9E876945688CE8F0
:101E3000F000448A0025CDE900150294B0F90C1099
:101E4000B0F91050B0F90E40B0F90A00194410442E
:101E50002B46224600F002F807B0F0BD2DE9F0470E
:101E60008AB00DF14C0CDDE917849CE86006129FE6
:101E700045F48055DFF8BCC06034CDE902C4CDE93B
:101E8000007507F0CBFA04004FD001F047F930227B
:101E90004946049007F0E6F9049828222649343090
:101EA000FEF7D2FD0498244FC0F86480A0F87C604F
:101EB0000026C0F88060C666083FC0F88860796870
:101EC000C16504A801F046F905A9204600F07BFA97
:101ED0001A4841F2827103960094CDE90110BDF9D0
:101EE0001E00BDF91A10BDF91C20431ABDF91800D7
:101EF0005B1C121A521C07F091FA0646786841687A
:101F000020468847204601F009F90490866604A817
:101F100001F020F942F20400054202D1204607F008
:101F2000D3FB5146204600F0DEF90AB02046BDE85A
:101F3000F0870000651C00085C020020ED25000809
:101F40002DE9F041044694B0006800F0B7F908B1FB
:101F5000D94D01E0D84D2C35606815281ED00CDC19
:101F60000B281FD004DC00287ED005287DD12FE16E
:101F70000E287BD01228F9D141E1162806D0172867
:101F800008D0182808D01C28F0D109E0E86914B05E
:101F9000BDE8F081286AFAE7686AF8E7A86AF6E718
:101FA0006869F4E720680B901C200C90206801F011
:101FB000B5F80390016D0BA88847064603A801F009
:101FC000C9F8022E0FDB95E807008DE80700D4E979
:101FD00004023346A16902F0A3FB20698719A069B6
:101FE000A0EB06082CE0286801F0E6FF2169E8690B
:101FF0000A18521E606901F075FCA269E869111A9D
:10200000491C606901F06EFCD4E904077F1C394665
:1020100001F08EFC3946A06901F08AFC686801F085
:10202000CBFF20693946401C01F082FCA06939468B
:10203000401E01F07DFCA0692769A0F10208BF1CC9
:10204000286801F0B9FF42463946606901F04AFC50
:10205000686801F0B1FF606942463946401C01F0F2
:1020600041FC686A022802E015E1B0E000E10BDD06
:10207000A86801F0A1FF61696A6A881C8B18014693
:10208000424638465B1E27E0296AB14226DD606978
:10209000022E074600F1020801DB374401E007F198
:1020A0000207206901DB304401E000F102002269EF
:1020B0003B460A444146A2F1010201F0B7FC022E60
:1020C00002DBA069821B01E0A269921EA069E96996
:1020D0003B46401A4146401C01F0A8FC022E02DBA0
:1020E0006069064401E06669B61CE76928687F1EDE
:1020F00001F062FF3A463146206901F077FC3A462A
:102100003146A06901F072FCE7696868BF1E01F002
:1021100053FF20693A463146401C01F067FCA06934
:102120003A463146401E01F061FCE869022802DCB3
:10213000286A022823DDA86A022802DDE1690F1A55
:1021400001E0E769BF1EA86801F036FFE9690229CE
:1021500009DD20693B46421800F1020C3146604619
:10216000521E01F063FC286A022808DDA269E869B2
:102170003B46101A3146401C921E01F057FC28685D
:1021800001F01AFFD4E90620216901F0ABFB686871
:1021900001F012FFD4E906202169401E491C521E9D
:1021A00001F0A0FBA86A022811DDA1692669E46993
:1021B000A1F10208271AA41EB61C7F1CA86801F012
:1021C000FBFE234642463946304601F02FFC71E0C3
:1021D000208A00B2ADF81400A18A09B2ADF8161039
:1021E000228B12B2ADF81820A38B1BB2ADF81A30B7
:1021F0002C69ED68CDE9005401F040FB5AE0208ADB
:10220000298B0844ADF81400A08AADF81600208B85
:10221000298B401AADF81800A08BADF81A00206881
:1022200000F07CFF0390006FF0B1022001F0F4FE9B
:10223000039890F87C10C1F3C00100EB8100006CA2
:1022400001F0BAFE0398406B01F0BEFE0398006FE8
:1022500000F064FF03990990B1F95A2005A901F033
:1022600029FA09A800F076FF03A800F073FF21E027
:10227000208AADF81400A08AADF81600208BADF8C6
:102280001800A08BADF81A00A86801F095FE05A80B
:1022900001F0F0FB0EE0206800F040FF039030F802
:1022A0005A1F41F00C01018003A800F053FF206881
:1022B00007F0AAFF00206AE6D403002038B5002406
:1022C00050B100F02BFF009090F87C00000700D583
:1022D0000124684600F03EFF204638BD002801D0AA
:1022E0000BF082BB70477CB50D46040019D000F09E
:1022F00015FF0090006F0190684600F02BFF294603
:1023000001A802F0E7FB00280BD0204600F006FFF2
:10231000009001990167684600F01CFF204607F015
:102320000CFD7CBD2DE9FC470C465FEA000948D056
:1023300000F0F4FE0090428E114614B141F02005E9
:1023400001E021F02005AA4238D04586484600F039
:1023500016F9009EF4691FE0204600F0DFFE0190B0
:10236000076AB0F90200B6F90210A0EB010801A853
:1023700000F0F0FEB6F9561041450CD1B06EA04207
:1023800009D096F832008006204602D507F088FF73
:1023900001E007F019FC3C46002CDDD1009890F8D4
:1023A0007C00400607D5A806484602D507F078FF0E
:1023B00001E007F009FC484607F0BFFC684600F062
:1023C000C9FEBDE8FC872DE9F34F85B000270C4618
:1023D000B846059800F0A2FE0090C06D0121856806
:1023E00005982A68904782462A68032105989047F5
:1023F00004902A6802210598904703902A680021DA
:10240000059890470646009808F0A2F88346009881
:1024100008F0A5F88146009890F83210890601D599
:10242000B0F9588000F036F805460098C06E10B13B
:1024300007F0DBF9074625806780A4F804A0049A1A
:10244000ABEB020006EB0802401E2A4420813A440E
:10245000E280039BA9EB0302521E6281A4F80CA048
:1024600020827019E681401E6082684600F072FE8C
:10247000B4F90C000190B4F91000029002AA01A96D
:10248000059800F039F80198A0810298208207B0E1
:10249000BDE8F08F10B50146002091F83220920679
:1024A00007D5B1F95400002803D1486B01F0ACFB0B
:1024B000801C10BD70B58AB00C46054600F02EFE9B
:1024C0000990C06D866809A800F044FE009534B1FB
:1024D000012C06D0022C0BD0032C04D10AE01820CA
:1024E00000E0162001907168684688470AB070BD08
:1024F0001520F7E71720F5E72DE9FC411746884638
:10250000044600F00BFE0090C16D056868468E68B9
:1025100000F020FE32680021204690470646204603
:1025200007F018F927E000BF00F0F8FD0190B0F9BE
:1025300000102AB2B0F90430891A9A1AB0F90230A0
:10254000A3EB2543B34210D190F82800000605D52F
:102550003868884209DB491E396006E0D8F8000077
:10256000904202DC521CC8F8002001A800F0F2FDE5
:10257000204607F00EF90400D6D1BDE8FC8170B505
:1025800086B0064600F0CAFD0590D0E91A4505A8B8
:1025900000F0E0FD54EA050026D069463046FFF71A
:1025A00012FFACB1BDF90620BDF90410204607F0BA
:1025B00024FCBDF90A00BDF90610421ABDF9080055
:1025C000BDF90410521C411A2046491C07F03CFE7C
:1025D000002D09D0BDF90600BDF90210421ABDF95F
:1025E0000410284607F009FC06B070BD2DE9F04341
:1025F0000446406889B0054607F0D2F8814600F0ED
:102600008DFD0290D0F84880D0F88070466E02A808
:1026100000F0A0FD2068172853D008DC0E283AD01F
:102620000F2811D014284CD015283DD149E01E2880
:102630001ED01F282AD0222840D0312834D1002093
:10264000E06009B0BDE8F0836FF070414046884516
:1026500003D003F099FF00F04FFE002EF1D0D4E933
:1026600002122068CDE90405CDE9061204A81FE096
:10267000E0680028E5D02FB1AF4203D0384607F01C
:1026800023FDDEE7284607F06DFDDAE721464846E0
:1026900006F01AFDD5E7E0684168002904DD00680E
:1026A0000928EFD00A2805D05EB12046C4F804906E
:1026B000B047C6E7284607F087FDC2E7C4F80C809C
:1026C000BFE7204606F058FFBBE7000051B182008B
:1026D000A2F1C042126842F001038200A2F1C0429E
:1026E000136009E08200A2F1C0421268034B1A4055
:1026F0008300A3F1C0431A6070470000FEFF0F0083
:1027000030B50021002200230468A400A4F1C044D5
:102710002168424C2140D0E901452C43C5682C4337
:1027200005692C4345692C4385692C43C5692C43B5
:10273000056A2C43456A2C43856A2C43C56A2C43A1
:10274000056B2C4321430468A400A4F1C04421601C
:102750008468082C0BD10468A400A4F1C044246848
:1027600044F040050468A400A4F1C0442560046856
:10277000641CA400A4F1C044226802F04042446BEF
:102780002468456B6D6844EA0514456BAD6844EAFE
:102790000524456BAD8944EA0544456B2D8A44EA1E
:1027A0000554456B2D7D44EA0564456BAD692C43AA
:1027B00022430468641CA400A4F1C0442260C46ADB
:1027C000B4F5804F20D10468A400A4F1C044D4F82B
:1027D0000431134C2340846B2468856B6D6844EA94
:1027E0000514856BAD6844EA0524856BAD8944EA20
:1027F0000544856BAD692C4323430468A400A4F110
:10280000C044C4F8043107E06FF070450468A400C8
:10281000A4F1C044C4F8045130BD00008000F7FFAB
:102820000000F0CF2DE9FC4107460D4600260024AC
:1028300000200090019008205B490860102048604B
:10284000402088600020C8604FF48060086108461E
:1028500004F024FF1020FEF725FB044614B12046A7
:10286000BDE8FC815148008800044F4908603720CA
:102870004860402088600020C8604FF48060086194
:10288000084604F00BFF3720FEF70CFB04460CB1A2
:102890002046E5E74FF0FF304549086008204860D2
:1028A000302088600220C860002008610120486153
:1028B000084604F069FE00203B4908603320486068
:1028C000402088600020C8604FF48060086108469E
:1028D00004F0E4FE3320FEF7E5FA04460CB120468E
:1028E000BEE709E04FF4001004F07AFE20B104F0D6
:1028F000CFFE4DF82600761C2E48006840F22A6173
:1029000008400028EED0082004F06AFE28B1082014
:1029100004F022FE04242046A2E7022004F060FE18
:1029200028B1022004F018FE0224204698E7202057
:1029300004F056FE28B1202004F00EFE06242046A6
:102940008EE74FF4007004F04BFE30B14FF400708E
:1029500004F002FE0724204682E740F2FF5004F014
:10296000FBFD00980006009901F47F4140EA012038
:10297000009901F47F0140EA1120009940EA1160BA
:10298000686001980006019901F47F4140EA012046
:10299000019901F47F0140EA1120019940EA116098
:1029A000286020465CE700007805002060000020D9
:1029B0008C050020342C01402DE9F04F89B00446ED
:1029C0000F4692461D46002D5BD10AF001000028FB
:1029D00053D08034D4F800B004F580742068089097
:1029E00004F580742068079004F5807420680690D0
:1029F00004F580742068059004F5807420680490C4
:102A000004F580742068039004F5807420680290B7
:102A100004F580742068019004F58074A4F51064B6
:102A2000CBF10000206004F58074089840422060DB
:102A300004F5807407984042206004F5807406987D
:102A40004042206004F5807405984042206004F5FF
:102A5000807404984042206004F5807403984042DA
:102A6000206004F5807402984042206004F5807470
:102A700001984042206004F58074002009B0BDE850
:102A8000F08F4FF000090AF0010000284AD0C84634
:102A900044E02668F017C5F11F0146FA01F18142B2
:102AA00006D0C5F11F0201219140491E81EA0006AE
:102AB00006FA05F020602068FDF785FB40EA090969
:102AC000803420684642F017C5F11F0146FA01F133
:102AD000814206D0C5F11F0201219140491E81EAC1
:102AE000000606FA05F020602068FDF76CFB40EA5E
:102AF000090980343E68F017C5F11F0146FA01F15B
:102B0000814206D0C5F11F0201219140491E81EA90
:102B1000000606FA05F001C708F10208B8F1120F25
:102B2000B7DB49E04FF0000843E02668F017C5F135
:102B30001F0146FA01F1814206D0C5F11F020121B1
:102B40009140491E81EA000606FA05F020602068DF
:102B5000FDF739FB40EA090980342668F017C5F112
:102B60001F0146FA01F1814206D0C5F11F02012181
:102B70009140491E81EA000606FA05F020602068AF
:102B8000FDF721FB40EA090980343E68F017C5F1E2
:102B90001F0146FA01F1814206D0C5F11F02012151
:102BA0009140491E81EA000606FA05F001C708F1C6
:102BB0000208B8F1120FB8DB48465FE7F0B50A46E5
:102BC00000210023002400BF3DE0012505FA01F3A8
:102BD000156805EA03049C4234D105684F000326BA
:102BE000BE40B543056015794E00B54006683543D3
:102BF00005601579012D02D01579022D16D1856851
:102C00004F000326BE40B543856055794E00B54060
:102C1000866835438560456801268E40B54345602A
:102C2000456896798E40B6B235434560C5684F0019
:102C30000326BE40B543C560D5794E00B540C66891
:102C40003543C560491C1029BFD3F0BDF0B5002342
:102C500000244D07ED0E02FA05F3CE1000F1200519
:102C600055F826504E07F70E0F26BE40B543CF103D
:102C700000F1200646F82750CE1000F1200555F847
:102C8000265045EA0304CE1000F1200545F8264001
:102C9000F0BD0246002013690B400BB1012000E09B
:102CA0000020704741837047018370472DE9F04F42
:102CB000DFF828B191B04FF0FF35DBF80030B3F901
:102CC00022100691DE69B3F92490F469A18981424A
:102CD00006D8E289824203D3471AD4F8008012E072
:102CE000D4E9018100296FD00A8882426CD84D88CE
:102CF000854269D3801A82B2486800EB8200B0F93D
:102D00000070B0F90250781C5ED0307EA17C10FBC0
:102D100001FA217CCDE90701B3F92A60304603F0BE
:102D200083FCC0B20E90DBF8000007FB0A81A37C95
:102D3000826B0127CDE90412CDE90273C069089ABC
:102D4000C17E807ECDE90001DDE90603494603F03E
:102D50001FF9681C18D046F0020003F065FCDBF890
:102D60000000A37C05FB0A81826BCDE90273CDE9EB
:102D70000412C069089AC17E807ECDE90001DDE9B8
:102D80000603494603F004F9DBF800005D46C0691C
:102D9000417E007E814214D9022E12D086F00400BA
:102DA00003F042FC2868C069027EC37E12FB0391D7
:102DB000437E857E089A06984B4412FB050203F079
:102DC00073FA0E9803F030FCDBF80000627C418C53
:102DD0001144418411B0BDE8F08F0000C001002013
:102DE00004480068C069C06909B1027C0A60407C7F
:102DF00070470000C0010020022008807047C069B1
:102E000082898A4202D8C2898A4210D2806880B1FF
:102E100002888A420DD843888B420AD3406800EB6F
:102E20008100A0EB8200B0F90000002801DB012046
:102E300070470020704700002DE9F043304C0346F6
:102E400087B020681946B0F92A60C069C06900F0EF
:102E500086F8002850D041680088181A01EBC00598
:102E60003046AF7803F0E0FB814620686A680123B2
:102E7000816BCDE90237CDE90421C169CB7E8A7E21
:102E8000CDE900230B7EB0F924102A78B0F9220096
:102E900003F07EF82068C069417E027E91421FD90E
:102EA000C07E11FB00F812FB00F7022E18D000F0D4
:102EB00062FE064600F042FE01F07EF821682A78A4
:102EC000CB69B1F92200DB7E12FB0302B1F92410B9
:102ED00001EB0803394403F0E7F9304601F06CF8E0
:102EE000484603F0A1FB20686A78C369B0F9221054
:102EF0009B7E12FB0311418407B0BDE8F083000004
:102F0000C001002030B50F4C05460B46206829460D
:102F1000C069C06900F023F8002812D04168008819
:102F200024682A1A0120E46900EBC200085CA47E30
:102F300010FB04F0002B04D011F8321011FB04F147
:102F4000196030BDC001002001200880704700B525
:102F5000C06900F004F8002800D0012000BD06E0A0
:102F600002888A4202D842888A4202D280680028B7
:102F7000F6D17047002801D008F0F0B87047000083
:102F800038B50546FFF7F6FF04000AD000F0C6F892
:102F9000054B00902A461B6800219847684600F0C0
:102FA000D9F8204638BD000034030020024A1060E2
:102FB00021F00300506070471098012010B50028E0
:102FC0000ED004460748042101EBC401406B415870
:102FD000486808F07BF82046BDE810400AF00ABCBB
:102FE00010BD000050970120002805D0034AD16B86
:102FF000016001B14860D063704700005097012024
:1030000010B504460068FFF7D9FF0020206010BD0E
:103010002DE9F04104460AF0C1F82848E41C24F0E8
:103020000305016C2D1DA94200D90D46C46B13E0A8
:1030300054F8042CAA420ED184B1216809B1626807
:103040004A60616809B122680A60C26BA24231D14C
:103050002168C1632EE02468002CE9D18046816B91
:10306000C0680F1857F8040C3E1A306838B10020B9
:103070000AF02AFC57F8040C3E1A3068D0B9706880
:10308000A84217DB3044441B3046241D0AF0D4FB11
:10309000D8F80C10491BC8F80C10D8F814102944A3
:1030A000C8F814107068401B02D0314608F00EF8C2
:1030B00044F8045C2046BDE8F081000050970120F0
:1030C00010B500240AF06AF80C490F2001EBC00289
:1030D000526C1AB101EBC000406C08E0401EF5D5FF
:1030E00008E04168A14200D90C46806810B18068B0
:1030F0000028F6D1A4F10C0010BD0000509701206B
:10310000002138B10449042202EBC000496B085881
:1031100041680C3908467047509701200549CA6933
:10312000521CCA61496B01EBC0010A78521C0A703B
:1031300000F028B8509701200549102805D94A68A1
:10314000B0EB520F02D3500800E0102088607047A7
:10315000109801200A4902684B6B52F8082C03EBC7
:10316000C2021378022B03D3CB690BB15B1ECB6178
:103170001178491E11700021016008467047000057
:10318000509701200349042202EBC000496B085804
:10319000083070475097012070B50C46054600F086
:1031A00099FDC1B223462846BDE87040002200F0D8
:1031B00001B80000F0B52D271C68B0F1004F08D011
:1031C000002600280DDA651C1D602770404201248E
:1031D00008E0651C01261D606FF000402770491E45
:1031E00001E00024091BC9B22AB3491EC9B222E07A
:1031F0000C46491EC9B2944205D1124C27781C686E
:10320000651C1D602770104C54F8215090FBF5F49C
:10321000E4B20A2C11D804FB150011B90EB1641CDC
:10322000E4B20A2C02D10124491CC9B21D686F1CEA
:1032300030341F602C700029DAD119680020087022
:10324000F0BD0000AC0100203829040870B5064626
:103250000D461446104600F095FC0300164804EB9A
:1032600084010AD050F8210041688068711A2A1A36
:10327000BDE87040184600F0B1BE00EB8104A268C2
:10328000B24201D0012200E00022E368AB4201D04B
:10329000012300E000231A430CD0236943B150F806
:1032A0002100816840686A1A311A184600F052FEFF
:1032B000C4E9026570BD00008C98012010B5C2B24F
:1032C000CBB2D21A00D5524293B25B43C0F307226D
:1032D000C1F30724121B00D55242000C92B2A0EB9E
:1032E000114002FB023200B2002801DA404200B273
:1032F00080B200FB002010BD10B50021084600F090
:1033000099FC43F6FF725042BDE810401346014657
:10331000AFF300802DE9FC4107461C4615460E46DA
:10332000042003F081F9804611484069C16C006DAA
:103330000F4406440D440444ADF80070ADF8045049
:10334000ADF80260ADF80640684607F00FF907E0F7
:1033500023462A463146384602F0A6FF07F0BAF85F
:103360000028F5D1404603F05FF9BDE8FC8100007C
:10337000AC0100202DE9F8431C00DDE90898164651
:103380000F46054602D106F0CFF9044600962E6896
:1033900043464A4621462846B047061E35D006F029
:1033A000B7F98146698A304605F01FFF304606F0BE
:1033B00077FF484606F074FF4FF000080CE000BFAE
:1033C000CDF8008055F81CCF00231A464946284600
:1033D000E047E0B106F064FF7F1E002FF0DC1D2106
:1033E000484606F0EAFD601C0ED006F0BBF930B18D
:1033F000FFF7C8FE8469B44201D02000F8D1B4427E
:1034000002D0304606F0AEFE3046BDE8F8833046C6
:1034100006F0E6F80020F8E72DE9F0411C461646D4
:103420000D460746022B02DB0020BDE8F0811C2080
:10343000FFF7EEFD0028F8D00DB105610AE0094A5A
:1034400052F8241009B905E011460A68002AFBD198
:103450000969016184618682002101604160C0E9DF
:103460000217E2E7EC01002070B51D46FFF7D4FF1C
:10347000040009D000F00EF8E068006820B90348A5
:10348000006800EB85008465204670BDC001002007
:10349000FFF7AABD70B5C0B38269022A36DA2149A6
:1034A000531C0C789C4200DA0B701F4C54F822100D
:1034B00019B944F8220032E019464B68002BFBD1C1
:1034C00006E0CB68C5681B682D68AB4203DD096860
:1034D0000029F6D11AE0C1B1CB68C6681B6836680E
:1034E000B3420CD1838A012B05D008E01946DB6872
:1034F0001B68AB4203DB0B68002BF7D129B14B688B
:1035000033B118604A68426004E0FFE7012070BDF3
:1035100044F822004860884200D100210160002068
:1035200070BD000002020020EC01002010B50C4B21
:103530008269002153F82240844205D1046843F88F
:103540002240026802B1516042680AB10368136008
:1035500002680AB1436853600160416010BD000019
:10356000EC010020022801DB00207047054951F8DA
:10357000200004E0C16809680029F6D0006800282E
:10358000F8D17047EC0100200022AFF300801FB596
:1035900003ABCDF80CD0FFF70DFE684600F002F843
:1035A0001FBD00002DE9FC4706005BD000F0F4FAD7
:1035B0003B4C81462068B0F9228000F00DFB216869
:1035C00007468A8CD01B888441E000BF47F6FF7114
:1035D000304601F00BF982460146304601F0DCF836
:1035E0002168054691F82C0000F0030001283FD027
:1035F000022839D000204A8C101A4884ADF8000007
:103600006A1E1044ADF80400888CADF80200A9F1E0
:1036100001010844ADF806006A465146304600F004
:1036200085FF2168BDF8020088845146304600F0CD
:1036300071FE064430780A281CD00D281AD0BDF837
:103640000000216828444884307818B1761C30780E
:103650000028BBD12068818C39448184818D21F080
:1036600003018185BDE8FC8705EBD5704010C2E7FA
:103670002846C0E7206890F82C1001F003010129CA
:103680000BD0022909D0018C418431780A29DBD181
:10369000828C02EB09018184D6E7A0F82280F4E74E
:1036A000C0010020024B1B6859849A84FFF77ABF3F
:1036B000C001002047F6FF73AFF300802DE9FC4105
:1036C0001F46904606000D464FF0000416D065B127
:1036D000084606F0D9FD040007D002462946684690
:1036E00001F0E9F8684606F0CFFD3B464246294620
:1036F000304600F073FF204606F0C6FDBDE8FC81B1
:103700002DE9FF4F87B09046894607007AD00C68B4
:10371000D9F8045021B228B2401A401C029000F09F
:103720003BFA064618F00C0F1ED038460A9A02994A
:1037300000F02AFE08F00C01042904D0082902D068
:103740000C2911D104E0291400FB1610401C09E0DB
:103750002114C1EB254200FB1620401C00EBD07069
:1037600001EB600060F31F44484606F08DFD5FEA00
:10377000000B09D00246494604A8CDE9044501F0F2
:103780009AF804A806F080FDA6F1010A38460A9AC4
:10379000029901F0E3F903900AEB244060F31F451E
:1037A000CDE900453846039900F0F6FF18F0030113
:1037B0000FD0012929D002290FD1B9F90420B9F974
:1037C0000010521A101A401C00EBD07001EB600080
:1037D00001E0B9F80000ADF800006A4638460399E8
:1037E00000F0A4FE38460A9A029901F0ADF90744A8
:1037F00006EB244060F31F4438780028C6D15846B1
:1038000006F042FD0BB0BDE8F08FB9F80410081ABD
:10381000401CE0E72DE9F04F0C46164987B00D68D3
:10382000DDE91098E96C0F18286D8D180619C41879
:10383000ADF81070ADF81450ADF81260ADF8164048
:1038400004A806F093FE002811D0DFF82CB04FF04A
:10385000000ACDE90098CDE902BA2B462246394646
:10386000304608F058FD06F035FE0028F1D107B0CB
:10387000BDE8F08FC0010020556200082DE9F04F2F
:10388000164C87B02568DDE91098EC6C2718286D78
:10389000A5184618C418ADF81070ADF81450ADF85E
:1038A0001260ADF8164004A806F060FE002811D0A2
:1038B000DFF82CB04FF0010ACDE90098CDE902BA4B
:1038C00023462A463146384608F025FD06F002FE1A
:1038D0000028F1D107B0BDE8F08F0000C001002042
:1038E000956100082DE9FC41104F04463B68D86CF7
:1038F0004518196DADF800500E198418ADF8044044
:10390000ADF80260ADF80660684606F02FFE08E0EC
:10391000386822463146406E03682846984706F0CC
:10392000D9FD0028F4D1BDE8FC810000C0010020D1
:103930007CB50E4D2A68D36C1E18106DADF804606E
:103940004418ADF80060ADF80640ADF80240684696
:1039500006F00CFE07E028682146406E42683046BB
:10396000904706F0B7FD0028F5D17CBDC0010020CE
:103970002DE9FC411C4C2468E66C94F818C03718FB
:10398000206DACF1010C4518C418A7EB0C001644CF
:10399000ADF8000006EB0C00ADF80400A5EB0C0040
:1039A000ADF8020004EB0C00ADF80600684606F026
:1039B000DDFD15E032462946384602F0EBFB324683
:1039C0002146384602F0E6FB621E691C384602F0CA
:1039D00041FC621E691C304602F03CFC06F07AFD98
:1039E0000028E7D1BDE8FC81C00100207CB50E4B6A
:1039F0001B68DC6C2618186DADF80060451884183B
:103A0000ADF80460ADF80250ADF80640684606F027
:103A1000ADFD06E022462946304602F01BFC06F0CA
:103A200059FD0028F6D17CBDC00100202DE9FC41E4
:103A30000F4C2568EC6C2718286DA5184618C4187B
:103A4000ADF80070ADF80450ADF80260ADF8064076
:103A5000684606F08BFD07E023462A463146384685
:103A600002F022FC06F036FD0028F5D1BDE8FC810D
:103A7000C0010020B0F90630B0F90420B0F90210FE
:103A8000B0F90000FFF7D2BF08B50B46002805D0FB
:103A9000009281888268C08800F001F808BD10B5E6
:103AA0000828029C30D008DC04FB01F401280AD06D
:103AB000022813D0042804D11CE0102828D0202884
:103AC0002CD0002010BD04EBD30003F00701105CE4
:103AD000C1F10701C84000F0010010BD04EB9300E4
:103AE0000621105C01EA4301C1F10601C84000F063
:103AF000030010BD04EB5300D907105C02D000F0A6
:103B00000F0010BD000910BD04FB0130105C10BD9A
:103B1000481004FB003032F8100010BD881004FB80
:103B2000003052F8200010BD034951F82000C16850
:103B30008A6A082110470000EC01002010B502F04D
:103B4000E3FBBDE8104002F079BC000002490968BF
:103B5000C9694A6800211047C0010020024A126862
:103B6000D269526810470000C0010020002801D02F
:103B700005F0BEBD704710B502F0CEFBBDE81040A9
:103B800002F05CBC0021022802D2024951F8201048
:103B9000084670477803002002480068C069407EEC
:103BA00070470000C001002000F0ECBD70B5144665
:103BB0000D4602F0E5FB002802D0002129602160BB
:103BC00070BD10B5044600F02DFE01462046BDE84C
:103BD000104000F0E1BD00000A490020096891F89A
:103BE0002C2002F00C02042A07D0082A01D00C2A4B
:103BF00002D1C869007E40087047C869007E401E37
:103C000070470000C0010020017EC07E11FB00F063
:103C100070470000024951F82000006900687047B1
:103C2000EC010020024951F820000069406870470B
:103C3000EC010020024A12685084918400207047F1
:103C4000C00100202DE9F0411C48016821F001016C
:103C500001601B480126866081680029FCD1194952
:103C6000016000681849884200D0FEE700F044FC7B
:103C7000164C2E20207000F0ACFB154809F042FADB
:103C80000BF016FF074602F091FB10B102F09AFB11
:103C900038B902F0A0FB054602F091FB294602F07C
:103CA000BDFC0021084600F09BF905F0A1FFA069CA
:103CB00000B18047A6703846BDE8F081002000E0E2
:103CC00000300240C2A507F4CDB5E8B5AC01002034
:103CD0001C98012010B5011E01DD024600E04A4299
:103CE000064B012053F82040944202D8401C0A2879
:103CF000F8DB002900DA401C10BD00003829040858
:103D000038B5040018D00D480068006EA04201D1FB
:103D100000F02EF92046FFF701FA0090406908B143
:103D200000F020FB00980068FFF7B2FB6846FFF741
:103D300011FA2046FFF742F938BD0000C00100200B
:103D400038B5002460B1FFF7E9F900900068006918
:103D50008068804702F00CFE04466846FFF7FAF9D7
:103D6000204638BD38B5002808D0FFF7D7F900F154
:103D7000180400906846FFF7EDF9204638BD0000B2
:103D8000F8B50F4E05003068046E16D00CB100F087
:103D9000EFF805F0E7FB2846FFF7C0F9009031681F
:103DA0000D660068FFF776FB6846FFF7D3F902F06F
:103DB00099FC02F013FC2046F8BD00F0D9F8FAE7B0
:103DC000C0010020F8B516460F46050012D0FFF7D7
:103DD000A5F9009044696846FFF7BCF92846FFF74B
:103DE000AFFF0346082800DD2CB13246394628468D
:103DF0000AF0FAF9F8BD3246394628460AF094FB33
:103E0000F8BD10B5002821D009B30AB3B1F90040BC
:103E1000B2F900309C4200DA23460380B1F9024037
:103E2000B2F902309C4200DA23464380B1F90440E3
:103E3000B2F904309C4200DD23468380B1F90610BC
:103E4000B2F90620914200DC1146C18010BD114636
:103E50000A6802604968416010BD00280BD00388E1
:103E60000B44038083881944818041881144418038
:103E7000C1881144C180704770B50E4D0446D5E924
:103E80000001884209D10C49884201D13C3000E050
:103E90000C3807C884E8070006E090E80E0084E8C4
:103EA0000E0009F0E3F82860207A002800D00120F5
:103EB00070BD000060030020489901200448D0E94B
:103EC0000010814201D1012070470020704700009E
:103ED0006003002010B509490446086820B9084865
:103EE0000860084600F0EEFD0749064808602046D5
:103EF0000AF0FCF8BDE8104000F098B8700300200C
:103F000061D400080D980008F4010020B0F90220E7
:103F1000B1F906309A4213DCB1F90220B0F906304B
:103F20009A420DDCB0F90020B1F904309A4207DC66
:103F3000B1F90010B0F90400814201DC01207047A2
:103F4000002070470146024870220068FCF77CBDE3
:103F5000C0010020002801D009F03EBE70470000DB
:103F6000024970220968FCF76FBD0000C001002003
:103F700010B502F0E9FA02F0B5FBBDE8104005F01B
:103F800003BA000070B5094D0446022C2868467C2F
:103F900009D22046FFF7E6FA28B128684474FFF7F3
:103FA000E7FF03480460304670BD0000C0010020F8
:103FB000C002002002F0E8BA02F01EBB014988608E
:103FC00070470000AC01002003490968CA6900B1CC
:103FD000C861104670470000C001002002F040BBDD
:103FE000094A30B41080094A1180094A1268537C8A
:103FF000084A52F82330DA68146A0A46A446014691
:1040000030BC184660470000080200200A02002069
:10401000C0010020EC01002003490968B1F92A2001
:104020004885104670470000C00100200248006823
:10403000002800D0004770479C03002002498A688E
:1040400002B98860FFF7F2BF5003002010B50400EA
:1040500009D009F00BFC20460AF082F82046BDE8A2
:104060001040FEF7ABBF10BD38B50C4660B1FFF78E
:1040700055F800908089204201D0012400E00024FE
:104080006846FFF767F800E00124204638BD0000CD
:1040900038B50546002028600648046844B120462B
:1040A000FFF73CF80090006928606846FFF752F877
:1040B000204638BDB004002038B504004FF00000A1
:1040C0000D46086011D02046FFF728F8009084685C
:1040D00044B16846FFF73EF82046FFF71FF800900E
:1040E000006928606846FFF735F8204638BD0000B3
:1040F00070B5174B05460C462A68D96801208A42DC
:104100001EDB21681E69B1421ADB5E69B24217DC10
:104110009A69914214DC2146284600F099F800285B
:104120000ED12E680022002E01DA2A6004E05968C0
:104130008E4201DB491E29602568002D01DA2260CC
:1041400070BD99688D42FBDB491E216070BD000087
:104150008003002070B5254C86B06078F8B100F07F
:10416000B9F8E06000F0B4F8E068039020690490CA
:1041700000F03EF88DF8090004A903A8FFF7B8FF86
:104180000025B0B1A07870B360680090A06801907D
:104190008DF80850684600F031F8A57023E000F073
:1041A0009EF8206100F095F86078401C607006B0C1
:1041B00070BD039A6068111A00D54942049BA0683B
:1041C000181A00D54042A67816B1084402280ADD24
:1041D00062600092A360012601938DF80860684632
:1041E00000F00CF8A6706570E1E7000010020020F6
:1041F0000148407A70470000A89901203EB5044666
:104200000C221149FCF75AFC002813D00F480E4D20
:10421000026882B194E80B008DE80B00684601A9A2
:1042200090479DE80E0085E80E00002802D1684600
:10423000FFF750FE3EBD2046FFF74CFE94E8070016
:1042400085E807003EBD0000CC9801200C0200204C
:104250001D4A1268A2B390ED000A1C4AD1ED000A73
:10426000F8EEC01A92ED001AB8EEE02AB8EEC00AD5
:1042700021EE211AD2ED011AF8EEE00A01EE821ABF
:10428000D2ED021A71EE211AB6EE001A71EE811A01
:10429000FDEEE11AC0ED001AD2ED031A002021EE66
:1042A000800AD2ED041A01EEA00AD2ED050A30EE22
:1042B000200A30EE010ABDEEC00A81ED000A704707
:1042C000FFE70120FBE70000800300209099012018
:1042D0007047704710B5D02006F0E4FD10BD10B552
:1042E000902006F0DFFD10BD2DE9F041084E044698
:1042F0000568306801682846884707463068416885
:1043000028468847284420603846BDE8F0810000F0
:10431000C80100202DE9F0410C4606460025064F55
:1043200005E0386841683046884706440544641E05
:10433000F7D22846BDE8F081C80100202DE9F04100
:104340001E46069C1746884605463A46A8687F1CC6
:104350003346D0F804C041462846E047641EF4D1F5
:10436000BDE8F08138B50546FEF7D8FE009081899A
:10437000491E0CB284816846FEF7ECFE002C02D187
:104380002846FEF71BFE38BD2DE9F04116460F46C4
:104390000546002432463946284600F0D5FB054440
:1043A00008B1641CF6E72046BDE8F08110B54FF473
:1043B00070410548FEF7FAFD8020FEF7BDFE034878
:1043C000FFF7FCFD10BD000050A70020743004086A
:1043D0007047704710B5082A0EDC0346012A18D032
:1043E000022A56D0042A76D010F8042B03F8012BA9
:1043F000491EF9D1012010BD102A08DC4FEA000245
:1044000030F8043B22F8023B491EF9D1F2E70020C4
:1044100010BD10F8042BD207120E491E34D010F82C
:10442000044B491E04F0010442EA84122CD010F817
:10443000044B491E04F0010442EA441224D010F84F
:10444000044B491E04F0010442EA04121CD010F887
:10445000044B491E04F0010442EAC40214D010F8CF
:10446000044B491E04F0010442EA84020CD010F807
:10447000044B491E04F0010442EA440204D010F83F
:10448000044B04F00104224303F8012B0029C0D19E
:10449000B0E710F8042B9207120E491E15D010F841
:1044A000044B491E04F0030442EA04120DD010F834
:1044B000044B491E04F0030442EA840205D010F8BC
:1044C000044B04F003042243491E03F8012B002986
:1044D000DFD18FE7FFE710F8042B1207120E491EF9
:1044E00005D010F8044B04F00F042243491E03F8D2
:1044F000012B0029EFD17DE70A4810B5416B002957
:104500000ED101214163FFF751FF02F0FDF805498B
:10451000054838310860BDE81040084600F0D2BABE
:1045200010BD0000AC010020A1D300087CB50646F8
:1045300028480D46006868B1002006F017F806E02C
:104540006A462946304606F0D5FF05F0C3FF00282D
:10455000F6D17CBD106800901F4C50680190226815
:10456000BDF8000032F84C1F0844ADF80000BDF85B
:10457000020091880844ADF80200BDF804001188DB
:104580000844ADF80400BDF8060091880844ADF871
:104590000600684605F0EAFF0EE000BF2068BDF89F
:1045A00000106A464184BDF80210818429463046D5
:1045B00006F0A0FF05F08EFF0028EFD1206830F84C
:1045C000221F428D891A01804188C28D891A41803B
:1045D0007CBD000004020020C00100202DE9FF4F37
:1045E00085B09A4690460D46FFF7D6FA4FF000097F
:1045F000DDF814B006464C4625B12868009068687E
:10460000019002E06846FFF7B1FA18F00C0F02D0F3
:104610005546002713E0BDF902402DE029467F1CD6
:10462000059800F0E3F801466D1A0598FFF772FE51
:1046300005990844059005A800F00DF908B9002D6A
:10464000ECD108F00C00042804D0082802D00C2873
:1046500012D105E0BDF9060007FB1604641C0BE04F
:10466000BDF90600BDF90210401A07FB1600401CF8
:1046700000EBD07001EB60045546CDF814B043E078
:104680002946059800F0B2F807460146ED1B05984B
:1046900000F082F818F003010ED0012939D0022968
:1046A0000DD1BDF90410BDF90020891A091A01EBDA
:1046B000D17102EB610101E0BDF900108946174A92
:1046C000401E484412683946A2F822909484ADF8FE
:1046D0000C00A019401EADF80890ADF80E00ADF822
:1046E0000A4002AA0598FFF721FF39460598FFF70F
:1046F00011FE059908440590FFF74EFA044405A8F9
:1047000000F0A9F8002801D1002DB9D109B0BDE809
:10471000F08FBDF90410091A491CCFE7C001002031
:104720002DE9F0479A46164B86B01B68DDE90F87E6
:10473000DC6CDDF838902618186D65188418AAF11D
:104740000100ADF810502044ADF80C60ADF8120037
:10475000ADF80E4003A805F009FF0BE0CDF800907E
:10476000CDE90187534622462946304607F08FFEA1
:1047700005F0B0FE0028F1D106B0BDE8F0870000DA
:10478000C001002003480068C069017EC07E11FBA3
:1047900000F07047C001002073B5124A01A90098CB
:1047A0001268904700240090C8B10F49002509689D
:1047B000C969496959B10A684AB1019990477CBDF4
:1047C0006846FFF791FD0546FFF7C0F904440198DC
:1047D000401E0190F4D5284600F031F804442046EC
:1047E0007CBD00004C030020C001002073B50D46C5
:1047F0000098002490B10A490968C969496959B10A
:104800004A684AB1294690477CBD6846FFF76CFD6F
:1048100020B10A2802D0641CAC42F6DB20467CBDE5
:10482000C001002031B50024009808B905E0641CDF
:104830006846FFF759FD0028F9D1204638BD38B544
:10484000002469460094FFF789F90099814200DD50
:104850000C1A204638BD38B50446006800906846FA
:10486000FFF742FD10F0FF0002D00A2802D003E05B
:10487000012038BD00982060002038BDB0F900301C
:10488000B1F90020934200DA0280B0F90230B1F9A8
:104890000220934200DA4280B0F90430B1F90420DA
:1048A000934200DD8280B0F90620B1F906108A42F9
:1048B00000DDC180704770B5B1F90040B2F9003039
:1048C0009C4200DD23460380B1F90250B2F9024058
:1048D000A54200DD2C464480B1F90460B2F90450D1
:1048E000AE4200DA35468580B1F90610B2F90620ED
:1048F000914200DB1146C1809D4201DBA14201DAF9
:10490000002070BD012070BD014602480068407C57
:1049100000F002B8C00100202DE9F84301268946C5
:10492000044602285DDA304F7A6802B190472E4D76
:104930005FEA090005F1100532D0012803D0B9F172
:10494000020F4ED118E055F8240088B92046FEF732
:1049500009FE009018B3C0680D21426A684690476E
:1049600002003ED049460098904755F824000026A2
:10497000401C45F8240034E02046FEF7F3FD00908B
:1049800068B1C0680D21426A68469047040028D08B
:10499000386800B1804749460098A047002620E0CB
:1049A00055F82400A846012812D12046FEF7DAFD6A
:1049B000009068B1C0680D21426A684690470500C2
:1049C00006D0386800B1804749460098A8470026BD
:1049D00058F8241009B1012200E00022891A48F891
:1049E00024103046BDE8F8831C03002030B581F068
:1049F0007F43FF2480F07F4094EA116101D120F0D1
:104A00007F43010E11FB02F1B1FBF4F100F0FF1541
:104A1000C1F1FF0203F0FF14544301FB05444FF0C2
:104A2000FF15240A05EA1323C0F30720534340F07F
:104A3000807001FB003104F0FF1001F0FF210843FA
:104A400080F07F4030BD00002DE9F05F0646DDF8C4
:104A5000389015460C4600200D99804688421ED29B
:104A6000DFF840B00C9F4FF0FF0A02CE08CCAAEB53
:104A7000116202FB09F2B2FBFAF0C2B221F07F40F0
:104A80001946DBF80030984720F07F4001C57F1EB3
:104A9000EBD10A9804EB800408F10100DCE7BDE8E3
:104AA000F09F0000800400200B88134403808B8853
:104AB0009B1A83804B8813444380C988891AC1801C
:104AC0007047000002490A6B4260086370470000AB
:104AD000AC0100202DE9F84307680646884600250A
:104AE000384600F0A9F848B3404600F0B5F8441C39
:104AF0003846FEF705FB84420DD1FCB13846FEF77F
:104B00000DFB104B009022461B68414698476846B3
:104B1000FEF720FB11E02046FEF72CFA04000DD032
:104B2000FEF7FCFA41460090FBF7D5FF6846FEF71A
:104B300011FB3046FEF764FA346001252846BDE8D3
:104B4000F88300003803002010B5044600F009F88F
:104B500001462046BDE81040FFF7DCBB002309F00A
:104B600027BB77B581B015460E466B46019809F014
:104B70001FFB044601460198FFF7CCFB019908444E
:104B8000019001A8FFF7B0FB0A2802D0012D02D046
:104B900012E0641C10E020280ED1FEF7D7FF054676
:104BA00007E02844009001A8641CFFF79DFB202823
:104BB00002D100988642F4DA04B0204670BD10B5E8
:104BC000830702D520F8021B521E530811D001EBB7
:104BD0000144042B09DB10C01B1F10C0042B40F83C
:104BE000084B40F8044CF6DA01E010C05B1E002BC5
:104BF000FBD1D20700D0018010BD024600204FF04B
:104C000080414318934201D8D21A581840088908A5
:104C1000F7D1704700B907A021B906A102E03AB167
:104C2000401C491C02780B789A42F8D0012070474A
:104C3000002070470000000038B50D46012448B13F
:104C4000FEF76CFA29460090FFF7E4FF0446684639
:104C5000FEF780FA204638BD4FF0FF3128B100BF83
:104C600010F8012B491C002AFAD10846704700BFF2
:104C7000FEE72DE9FF4F99B00F469046269D4FF075
:104C80000009002424E01C98406906901C98806963
:104C900020B16869A04201DD00200690E868059017
:104CA0002869A04201DD00200590A869059908EB5C
:104CB0008402CDE9001402903946069B199800F051
:104CC000EFFF40EA09091998483019902437641C0D
:104CD0002868A042D7DC17E0E86805902869A04260
:104CE00001DD00200590A86908EB8402CDE90040B1
:104CF0003946059B199800F0DDFE40EA090919982C
:104D0000483019902437641C6868A042E4DC04949D
:104D100049E0E86805902869A04201DD002005907F
:104D200007A93846059A05F0A1FF4FF0000BE007F0
:104D3000039000262FE0700007A951F820004FEAE9
:104D4000800A4BEA0A0B08EB062040F824A05046E4
:104D5000FBF739FA40EA09097000401C07A951F82D
:104D600020004FEA800A03988AEAE07004F001010B
:104D700000EB010A4BEA0A0B7000401C08EBC01064
:104D800040F824A05046FBF71EFA40EA090900202B
:104D900047F82600761C092ECDDB2437BBF1000F27
:104DA00000D00494641CA868A042B2DC0AE000268B
:104DB00005E0002008EBC61141F82400761C122EF5
:104DC000F7DB641C202CF2DB484608B9202208E0FF
:104DD000002101E0491C400000F00042002AF9D007
:104DE0000A46521EEA6104981DB0BDE8F08F21B159
:104DF000028842F48062028004E002884FF6FF33AA
:104E00001A400280704770B5024600240025002336
:104E10000020958A138B1B0445EA030626F07F4485
:104E200004EA01068E4201D1012000E0002070BD9D
:104E300021B1028842F00102028004E002884FF6AC
:104E4000FE731A40028070471CB50121480502F02C
:104E5000D1F90121022002F0ADF90121880302F00D
:104E6000E9F9042206211048FDF7F0FE042207218B
:104E70000D48FDF7EBFE4020009002208DF8040065
:104E80008DF8050001208DF8060000208DF8070040
:104E900069460548FDF792FE802000906946024869
:104EA000FDF78CFE1CBD00000004024021B1028809
:104EB00042F48072028004E002884FF6FF631A40D9
:104EC0000280704721B1028842F40072028004E03F
:104ED00002884FF6FF531A40028070470CB5024615
:104EE000002000230193009300920B0F019321F007
:104EF0007F41019B1BB1009B1433009303E0090C1D
:104F0000009B18330093009B1B680B400BB10120E2
:104F100000E000200CBD00002DE9FF4704460D46CF
:104F20000026B1460427DFF8CC80A6884FF6C07073
:104F30000640684602F09EF9DDF808802E48B8FB6E
:104F4000F0F01FFA80F946EA0906A68020884FF69D
:104F5000FE710840208000262849286888420CD825
:104F600028684000B8FBF0F087B2042F00DA04276D
:104F70003E4309F10100208427E0E8884BF6FF71E9
:104F8000884206D1286800EB4000B8FBF0F087B2F9
:104F900009E0286800EBC00101EB0010B8FBF0F05D
:104FA00087B247F48047C7F30B0008B947F0010701
:104FB00047F4004006434FF4967009FB00F04FF4AD
:104FC0007A7190FBF1F0401C2084A683208840F089
:104FD0000100208026884FF6F5300640A8886989B0
:104FE000084306432680A889298908432081BDE813
:104FF000FF87000000127A0040420F00A0860100E7
:105000001FB50020ADF804004BF6FF70ADF80600A8
:105010000A20ADF808004FF48060ADF80A000001E6
:10502000ADF80C000748009069460748FFF774FF89
:1050300001210548FFF7FCFE01210348FFF7D7FED9
:105040001FBD0000801A06000054004012B141F05C
:10505000010101E001F0FE01018270470182704709
:1050600021B1828B42F48062828304E0828B4FF60E
:10507000FF331A40828370471CB50121072002F0DC
:1050800099F802208DF804008DF8050000208DF8B5
:1050900006008DF807001020009069461A48FDF7B9
:1050A0008DFD0820009069461848FDF787FD102007
:1050B000009069461548FDF781FD20200090694663
:1050C0001248FDF77BFD8020009069461048FDF7EF
:1050D00075FD062204210C48FDF7B8FD06220321C8
:1050E0000A48FDF7B3FD062204210848FDF7AEFD8E
:1050F000062205210548FDF7A9FD062207210448DF
:10510000FDF7A4FD1CBD00000000024000040240A9
:10511000000802402DE9F04F0025022300244FF043
:10512000010900220026002794469046B0F81CA0F2
:105130004FF2400B0AEA0B0AA0F81CA04FF0020A3B
:10514000A0F820A0858BD1F808A0BAF1020F01D1F8
:1051500000BF82E0B1F804A0BAF1000F02D14FF015
:10516000010901E04FF00209DFF834A1DAF800A0EC
:105170000AF4000ABAF1000F09D0DFF824A1DAF826
:1051800000A02AF4000ADFF818B1CBF800A0DFF87D
:1051900010A10AF17C0ADAF800A0CAF3881CDFF833
:1051A00000A10AF17C0ADAF800A0CAF30278DFF85D
:1051B000F0A0AAF1040ADAF800A00AF03F07DFF82D
:1051C000E0A0AAF1040ADAF800A00AF4800ABAF50D
:1051D000800F08D1DFF8CCA0BAFBF7FA0AFB0CFA73
:1051E000BAFBF8F607E0DFF8C0A0BAFBF7FA0AFB53
:1051F0000CFABAFBF8F6B1F806A0BAF5007F0ED1AA
:105200004FEA162A0AEB8A0A4FEA4A0AD1F808B08E
:10521000BAFBFBFA0AF1050A1FFA8AF20FE04FEA1D
:10522000491AB6FBFAFA0AEB8A0A4FEA4A0AD1F897
:1052300008B0BAFBFBFA0AF1050A1FFA8AF24FF02E
:105240000A0AB2FBFAF202F00104A2EB040ACAF362
:105250004F034FF6FF7A0AEA0424022B01DBFF2BEF
:1052600001DD02230024B1F806A04AEA040A4AEA52
:10527000030AA0F820A0B1F804A0B1F80CB04AEAE3
:105280000B0AB1F802B04AEA0B0AB1F800B04AEAD8
:105290000B0A4AF4006A4AEA05058583BDE8F08FE7
:1052A00008380240001BB7000024F40010B50121AB
:1052B0000148FBF7BFFF10BD8860024010B5002118
:1052C0000448FBF7B7FF002102483038FBF7B2FF74
:1052D00010BD0000886002402DE9FF4104460D46E4
:1052E00016460027B846002002F058F8012002F0C8
:1052F0005BF800BF08E03B2002F030F88046B8F1D0
:10530000010F00D103E07F1CB7F5FA7FF3D300BF94
:105310000121C80301F06EFF0D4803F005F94FF4B9
:105320000070ADF80000ADF80240ADF80450ADF8E3
:10533000060002960020ADF80C0069460448FFF70D
:10534000E9FE01210248FFF78BFEBDE8FF81000066
:10535000003C004070B590B004460E461546012151
:10536000480501F027FF2A48FBF770FF00BF2848D7
:10537000FCF73AF80028FAD126492548FBF740FF08
:10538000002000902448019002944020039004954E
:10539000002005904FF48060069040000790800048
:1053A00008904011099040020A9000200B900C9048
:1053B0000D900E9069461648FCF770F800222146C1
:1053C0001348FBF7FAFF4FF4002231461048FBF771
:1053D000F4FF01210E48FBF7E5FF012210210C48E4
:1053E000FCF73EF8012202210B480C3803F092F83A
:1053F00010208DF83C0000208DF83D0001208DF834
:105400003E008DF83F000FA801F042FD10B070BDC6
:10541000886002403DF000A00C3C004010B50446FE
:1054200024B101210448FDF73FFC03E001210248BB
:10543000FDF738FC10BD00000004024001B502E099
:105440000098401E009000980028F9D108BD00B5D2
:105450009DB00121084601F0BDFE0F2007903C20C1
:10546000099000200D9008900A900B900C90062057
:105470000090052002900020069001900390049077
:1054800005900E900F901090102011900020129017
:1054900014901390159016904FF4805017900020A0
:1054A00018904FF48040199000201A9007A81B9084
:1054B000CDF870D00EA8FDF723F901210020FDF7EB
:1054C00005F91DB000BD00002DE9F05F05460E4650
:1054D00017469846DDF828A04FF0000B781B401CBB
:1054E0001FFA80FB344614E02146284600F09EFA5D
:1054F0002C2000F0D3FA4FF0000906E00748A0F88E
:1055000000A009F101001FFA80F9D945F6DB601C03
:1055100084B24445E8DDBDE8F09F00000000026071
:105520001CB501211A2001F045FE00208DF806006F
:1055300001208DF8070002208DF8040003208DF86B
:1055400005004FF48040009069467F48FDF736FB28
:105550000C220E217C48FDF779FB4FF400400090AF
:1055600069467948FDF72AFB0C220F217648FDF7A2
:105570006DFB0120009069467348FDF71FFB0C226C
:1055800000217148FDF762FB0220009069466E48D9
:10559000FDF714FB0C2201216B48FDF757FB80201F
:1055A000009069466948FDF709FB0C22072167480E
:1055B000FDF74CFB4FF48070009069466348FDF79F
:1055C000FDFA0C2208216148FDF740FB4FF4007002
:1055D000009069465D48FDF7F1FA0C2209215B480D
:1055E000FDF734FB4FF48060009069465748FDF7A3
:1055F000E5FA0C220A215548FDF728FB4FF400601C
:10560000009069465148FDF7D9FA0C220B214F480A
:10561000FDF71CFB4FF48050009069464B48FDF7A6
:10562000CDFA0C2211464948FDF710FB4FF400500B
:10563000009069464548FDF7C1FA0C220D21434808
:10564000FDF704FB4FF48040009069463F48FDF7AA
:10565000B5FA0C220E213D48FDF7F8FA4FF4004050
:10566000009069463948FDF7A9FA0C220F21374806
:10567000FDF7ECFA4FF48070009069463248FDF770
:105680009DFA0C2208213048FDF7E0FA4FF4007033
:10569000009069462C48FDF791FA0C2209212A480E
:1056A000FDF7D4FA4FF48060009069462648FDF774
:1056B00085FA0C220A212448FDF7C8FA1020009030
:1056C00069462148FDF77AFA0C2204211E48FDF7AD
:1056D000BDFA2020009069461B48FDF76FFA0C22A6
:1056E00005211948FDF7B2FA802000906946164856
:1056F000FDF764FA0C2207211348FDF7A7FA4FF4CF
:105700000060009069461048FDF758FA0C220B2102
:105710000D48FDF79BFA01208DF8040000208DF85C
:10572000060001208DF8070002208DF805000820F2
:10573000009069460448FDF741FA0120009069464F
:105740000348FDF73BFA1CBD000C0240001002406C
:105750000004024070B504460D462946204600F07C
:1057600065F900F033F90646304670BD10B5FFF715
:10577000D7FEFFF76CFE0120FFF750FE00F042F964
:1057800000F002F810BD000010B5CF2000F086F93F
:10579000002000F089F9812000F086F9302000F027
:1057A00083F9ED2000F07AF9642000F07DF9032000
:1057B00000F07AF9122000F077F9812000F074F9F6
:1057C000E82000F06BF9852000F06EF9102000F061
:1057D0006BF9782000F068F9CB2000F05FF93920F0
:1057E00000F062F92C2000F05FF9002000F05CF975
:1057F000342000F059F9022000F056F9F72000F0AB
:105800004DF9202000F050F9EA2000F047F900207F
:1058100000F04AF9002000F047F9B12000F03EF90D
:10582000002000F041F91B2000F03EF9B62000F006
:1058300035F90A2000F038F9A22000F035F9C0202F
:1058400000F02CF9352000F02FF9C12000F026F9E6
:10585000112000F029F9C52000F020F9452000F0C2
:1058600023F9452000F020F9C72000F017F9A22005
:1058700000F01AF9F22000F011F9002000F014F9FC
:10588000262000F00BF9012000F00EF9E02000F0D6
:1058900005F90F2000F008F9262000F005F9242072
:1058A00000F002F90B2000F0FFF80E2000F0FCF8E9
:1058B000092000F0F9F8542000F0F6F8A82000F0D4
:1058C000F3F8462000F0F0F80C2000F0EDF8172077
:1058D00000F0EAF8092000F0E7F80F2000F0E4F803
:1058E000072000F0E1F8002000F0DEF8E12000F0F1
:1058F000D5F8002000F0D8F8192000F0D5F81B20CA
:1059000000F0D2F8042000F0CFF8102000F0CCF81E
:10591000072000F0C9F82A2000F0C6F8472000F060
:10592000C3F8392000F0C0F8032000F0BDF80620CD
:1059300000F0BAF8062000F0B7F8302000F0B4F814
:10594000382000F0B1F80F2000F0AEF8362000F05B
:10595000A5F8A82000F0A8F82B2000F09FF8002060
:1059600000F0A2F8002000F09FF8002000F09CF862
:10597000EF2000F099F82A2000F090F8002000F0C5
:1059800093F8002000F090F8012000F08DF83F20FF
:1059900000F08AF83A2000F081F8552000F084F8F1
:1059A000112000F07BF80348FFF748FD292000F0A4
:1059B00075F810BDFCBF020008B5034800880090D0
:1059C000BDF8000008BD00000000026070B50024B2
:1059D000002500262E2000F061F8FFF7EDFF0446B9
:1059E000FFF7EAFF0446FFF7E7FF0646FFF7E4FF8D
:1059F0000546E012C002A91240EA411040EAE62042
:105A000070BD000010B508210648FDF74BF90648A7
:105A1000FFF714FD08210348FDF746F90248FFF798
:105A20000DFD10BD000C0240FCBF020070B5044625
:105A30000D462A2000F032F8201200F035F8E0B2CE
:105A400000F032F82B2000F029F8281200F02CF892
:105A5000E8B200F029F870BD70B504460D46164650
:105A6000B4F5A07F19DAF02D17DA2A2000F016F825
:105A7000201200F019F8E0B200F016F82B2000F028
:105A80000DF8281200F010F8E8B200F00DF82C2004
:105A900000F004F8304600F007F870BD00BF01497F
:105AA00008807047FEFF016000BF01490880704711
:105AB000000002602DE9FF4FA5B080460D46174655
:105AC00000202490339807281BDA3398C0F1070090
:105AD0002490002412E058F824002499084148F842
