:020000040800F2
:10000000D8FE01209D010008A5BC000819A1000828
:10001000A1BC00088F0C000825E3000800000000C8
:10002000000000000000000000000000F5DB0008F8
:10003000A91200080000000059C3000825DD0008CF
:10004000B7010008B7010008B7010008B7010008B0
:10005000B7010008B7010008B7010008B7010008A0
:10006000B7010008B7010008F5130008B701000840
:10007000B7010008B7010008610F0008B7010008C8
:100080008D0F0008B7010008B7010008B70100088C
:10009000B7010008B7010008B7010008B701000860
:1000A000B7010008B7010008B7010008B701000850
:1000B0007DE00008B7010008B7010008B70100089B
:1000C000B7010008B7010008B7010008B701000830
:1000D000B7010008B7010008B7010008B701000820
:1000E000B7010008B7010008B7010008B701000810
:1000F000B7010008B7010008B7010008B701000800
:10010000B70100080DC90008B7010008B7010008D1
:10011000B7010008B7010008B7010008B7010008DF
:10012000B7010008B7010008B7010008B90F0008BF
:10013000B7010008B7010008B7010008B7010008BF
:10014000B7010008B7010008B7010008B7010008AF
:10015000B7010008B7010008B7010008B70100089F
:10016000B7010008B7010008B7010008B70100088F
:10017000B7010008B7010008B7010008B70100087F
:10018000B7010008B7010008DFF80CD000F0D8FA7A
:1001900000480047D3900108D8FE01200648804758
:1001A00006480047FEE7FEE7FEE7FEE7FEE7FEE75C
:1001B000FEE7FEE7FEE7FEE7A5DD0008890100088F
:1001C0002DE9F05F0546002092469B46884606468C
:1001D000814640241BE0284641464746224600F01F
:1001E000A8F953465A46C01A914110D311461846F1
:1001F000224600F08FF92D1A67EB01084F46224680
:100200000120002100F086F917EB00094E41201E65
:10021000A4F10104DFDC484631462A464346BDE8E6
:10022000F09F00000649074A0868504343F239022C
:10023000104408604008704701490860704700009A
:10024000240700206D4EC64110B5431A934209D2CF
:100250008318881803E010F8011D03F8011D521ED1
:10026000F9D210BD40EA01039B0703D009E008C999
:10027000121F08C0042AFAD203E011F8013B00F86B
:10028000013B521EF9D210BDD2B201E000F8012BA1
:10029000491EFBD270470022F6E710B513460A4606
:1002A00004461946FFF7F0FF204610BD421E12F823
:1002B000013F002BFBD111F8013B02F8013B002B61
:1002C000F9D17047421C10F8011B0029FBD1801A9C
:1002D000704730B504460020034600E05B1C9342A3
:1002E00003D2E05CCD5C401BF8D030BD034611F872
:1002F000012B00F8012B002AF9D1184670472DE98F
:10030000FE4F804681EA0300C00F0C46009021F0AA
:10031000004123F00045B8EB0200A94105D2404658
:10032000214690461C460B46024623F000401043EF
:1003300047D0270DC7F30A00C3F30A510290401AB1
:10034000019040286BDAC3F3130040F4801B00983F
:10035000924620B10023D2EB030A63EB0B0B01980A
:100360005946C0F14002504600F0D4F806460D460A
:1003700050465946019A00F0ECF810EB0800614134
:10038000002487EA115284EAE7731A4340D0009AA6
:1003900062B3019A012A4FEA075215DC001B61EB98
:1003A00002014FF0004202EA0752CDE90042001C70
:1003B00041F5801132462B4600F023F903B0BDE829
:1003C000F08F40462146F9E7001B61EB0201001C5B
:1003D00041F5801300185B412018A2F5001747EB88
:1003E000030140EAD570B6196D4111E06D084FEA7E
:1003F000360645EAC0754FEA0752001B61EB020161
:10040000001C41F5801149084FEA300000195141A4
:1004100032462B4603B0BDE8F04F00F0E3B8009839
:10042000012240000023D0EB020263EBE07300984E
:1004300021464FEAE074B8EB000061EB0401E9E704
:1004400083F000435BE781F0004158E770B5C1F3EA
:100450000A5201F000450024C1F3130140F2FF33BA
:1004600041F480119A4201DA002070BD40F233431A
:100470009A42A2F2334203DC524200F05AF800E002
:1004800090402C43F1D0404270BD00F0004230F06B
:1004900000400AD0C10D01F56071C0F3160042EAB8
:1004A0000151C208400711437047002001467047C0
:1004B00001F0004330B421F0004150EA010206D0BF
:1004C0000A0DA2F56072C1F31301002A02DC30BCF0
:1004D00000207047440F44EAC104C100E01830BC5A
:1004E00000EBC25000F047B830B50B460146002083
:1004F0002022012409E021FA02F59D4205D303FAE6
:1005000002F5491B04FA02F52844151EA2F1010266
:10051000F1DC30BD202A04DB203A00FA02F1002091
:1005200070479140C2F1200320FA03F31943904031
:100530007047202A04DB203A21FA02F0002170479C
:1005400021FA02F3D040C2F120029140084319463B
:100550007047202A06DBCB17203A41FA02F043EA23
:10056000E07306E041FA02F3D040C2F1200291406C
:100570000843194670470029A8BF7047401C49002E
:1005800008BF20F00100704710B4B0FA80FC00FAF8
:100590000CF050EA010404BF10BC704749B1CCF123
:1005A000200421FA04F411FA0CF118BF01212143AF
:1005B0000843A3EB0C01CB1D4FEA00614FEA10206A
:1005C00042BF002010BC704700EBC350104400290C
:1005D000A4BF10BC7047401C490008BF20F00100B8
:1005E00010BC704710B5141E73F1000408DA401CEB
:1005F00041F1000192185B411A4301D120F0010042
:1006000010BD2DE9F04D92469B4611B1B1FA81F231
:1006100002E0B0FA80F220329046FFF77BFF0446FA
:100620000F4640EA0A0041EA0B0153465A46084386
:1006300013D0114653EA010019D0C8F140025046C8
:10064000FFF777FF05460E46504659464246FFF7EC
:1006500061FF084305D0012004E020463946BDE88B
:10066000F08D0020054346EAE0762C4337430A9894
:100670006305E40AA0EB08000022FD0A44EA47549F
:100680000A3002D500200146E9E701051019694149
:10069000DDE9084500196941BDE8F04DA2E72DE903
:1006A000F04D00231A461B1A8A4103DB0020014645
:1006B000BDE8F08DC1F30A52C1F3130141F4801576
:1006C0004FF0000BD10702D100186D41521E0027D8
:1006D000044640F2FF11384601EB620A3E4680466E
:1006E000024600204FF48011FFF723FFC219714129
:1006F000BB1846EB0100B4EB030C75EB000C04D304
:10070000E41A65EB000517460E46241908F10100AE
:100710006D4180463428E3DDF91946EB0600091BDC
:10072000A84103D24FF0FF32134601E000221346E6
:100730001BEB070046EB0A51BDE8F04DFFF752BF37
:10074000064C074D06E0E06840F0010394E807001E
:1007500098471034AC42F6D3FFF71AFD6C3B0408FF
:100760008C3B040870B58C1810F8015B15F007037A
:1007700001D110F8013B2A1106D110F8012B03E03A
:1007800010F8016B01F8016B5B1EF9D12B0705D442
:100790000023521E0DD401F8013BFAE710F8013B8B
:1007A000CB1A921C03E013F8015B01F8015B521EA7
:1007B000F9D5A142D8D3002070BD000038B54468F7
:1007C0000546014620460DF0C5FD002808BF38BD8E
:1007D000464A286811280DD006DC0B282AD00E289E
:1007E00038D00F2817D07CE0282873D0B0F5107FC0
:1007F0000AD076E09268002A08BF38BD294601B0C9
:100800002046BDE830401047526801B029462046D6
:10081000BDE8304010472546204604F0CBF8009054
:10082000406E0468684604F04BF9002C1CBF284653
:10083000A04738BD204604F0BDF80090683003F0B2
:10084000C9FF009803216C3003F0EAFF684604F00A
:1008500037F946E0E968486809680D2902D020297F
:1008600018D037E0002835DD4FF4807120460DF0B8
:100870002FFE204604F09EF8009090F8285068461D
:1008800004F01EF915F0020F1ED0012120460FF0D2
:100890007AF819E0002817DD25464FF480712046CC
:1008A0000DF016FE284604F085F8009090F82840D8
:1008B000684604F005F914F0020F08BF38BD0121A5
:1008C00028460FF060F838BD2046BDE838400221C8
:1008D00015F027BFE86820B920464FF480710DF06D
:1008E00023FD2846BDE838400EF040B870020020D5
:1008F00070B5044686B08069B4F908C0658A0026E0
:100900000091CDE90165CDE903C0B4F90C00B4F95B
:100910001050C118B4F90A00B4F90EC010442B46A7
:10092000624600F007F80546616800F089F906B0F4
:10093000284670BD2DE9F04385B00D46DDE90F6115
:10094000DDE90C4C154F4C31CDE90271CDE9004C7D
:1009500029460DF059FF05001BD004F02BF810229A
:10096000314604900DF01EFE0D4C0499B4E8CD13F1
:100970003431A1E8CD1394E80D10A1E80D1054F81E
:100980002C0D086004A804F09BF8206841682846F4
:10099000884705B02846BDE8F0830000BD07000881
:1009A0007C020020F0B5044680688C4989B051F87B
:1009B00020506068002800F00A81052806D006282B
:1009C0007DD0122800F0B48000F004B9E869002856
:1009D00008BF002651D0D5E90012AB688DE80F00A2
:1009E00004F110010FC908F00FFC002655F826008D
:1009F00007F02AFBA169E8690A1A216901446069C4
:100A0000304405F067F8A169E8690A1A21690144D0
:100A1000E069801B05F05EF8E169E8690A1A61691E
:100A200001442069304405F017F9E169E8690A1AC0
:100A300061690144A069801B05F00EF9761C022E45
:100A4000D4DBA86807F000FBE069E969D4F814C0BA
:100A5000431A206942186144801C521E05F056F961
:100A6000E169E869A2690B1A61690144101A401C26
:100A7000921E05F04BF9EE6911E055F8260007F0DB
:100A8000E3FAE069831BA069821B60698119206910
:100A9000304405F09DF8761C022EEEDB0226D5E9E7
:100AA0000301CDE90001E169606901444B10A169CE
:100AB0008A1B811C2069304404F008FF00E011E02B
:100AC000D5E90501CDE90001E0696169831E0144B2
:100AD0000122A06902EB6101821B2069304404F00D
:100AE000F5FE77E0206803F065FF049020680FF0C2
:100AF00095FF50B1A068002818BF00200AD10498C3
:100B0000006F002818BF012004E00498406F0028FF
:100B100018BF0220049901EB8000C56E04A803F001
:100B2000CFFF00231A462846216804F033FB51E02A
:100B3000206803F03FFF0490866E002E08BF04A8D3
:100B400042D0A168B0F95C70002908BF012103D030
:100B500003290CBF0221002100EB8101406D0C6CC8
:100B600007F086FA204607F06FFA06A805F0BCF9F0
:100B7000BDF81810A88B0144ADF81810BDF81C1072
:100B8000081AADF81C00BDF81A00801CADF81A0058
:100B9000BDF81E00801EADF81E000498B0F960205C
:100BA000B0F95E1006A806F07DFD04A803F088FFEA
:100BB000022007F0A1FA304603F0FCFE3A4606A9EF
:100BC000059004F0DDFB05A803F07AFF02E0206841
:100BD0000FF0B4F909B00020F0BD0000282504088A
:100BE00038B5002440B103F0E5FE0090408EC0F31C
:100BF0000024684603F064FF204638BD044A0349D8
:100C0000116004494A6A486210467047AC020020ED
:100C1000700200207C02002000294FF0100101D05A
:100C20000DF056BC0DF080BB0348024941600349FA
:100C3000816070473F690108700200203D6801082B
:100C4000F0B583B00F4605004FF001041CD003F04F
:100C5000B1FE0190866E01A8009603F031FF39467F
:100C6000684608F04DFF78B100980024B04208D0E3
:100C7000284603F09FFE01900099816601A803F0C9
:100C80001FFF28460EF094FD03B02046F0BD00BFC4
:100C9000FEE770B500254FF4803400E0641E24B1F7
:100CA00080200BF007FE0028F8D014B90325284651
:100CB00070BD40F2FF500BF0B9FD2846F8E7000088
:100CC0002DE9F041064600274848056801E04748FD
:100CD000056805F045000028F9D005F0040030B1A2
:100CE000032704200BF0A2FD3846BDE8F08105F093
:100CF000010028B1012701200BF098FD3846F4E7E8
:100D00000BF0D2FDB04202D010273846EDE740F29A
:100D1000FF500BF08BFD00200BF0ECFD0446344837
:100D2000204008B93846E0E704F0004008B11C2034
:100D3000DBE704F0804008B10920D6E704F000505A
:100D400008B10A20D1E704F0805008B10B20CCE7AD
:100D500004F0006008B10C20C7E704F0806008B11F
:100D60000D20C2E704F0807008B10E20BDE704F446
:100D7000000008B10F20B8E704F4800008B110208B
:100D8000B3E704F4001008B11120AEE704F48010BA
:100D900008B11220A9E704F4002008B11320A4E749
:100DA00004F4802008B114209FE704F4003008B157
:100DB00015209AE704F4803008B1162095E704F472
:100DC000004008B1172090E704F4804008B11820D3
:100DD0008BE704F4005008B1192086E704F00800FE
:100DE00008B11A2081E738467FE70000342C014023
:100DF00008E0FFFD70B500251048046801E00F48C9
:100E0000046804F045000028F9D004F0040028B17B
:100E1000032504200BF00AFD284670BD04F00100F4
:100E200028B1012501200BF001FD2846F5E740F22D
:100E3000FF500BF0FBFC2846EFE70000342C01408C
:100E400070B500250B48046801E00A48046804F006
:100E500045000028F9D004F0040028B1032504203F
:100E60000BF0E4FC284670BD40F2FF500BF0DEFCB6
:100E70002846F8E7342C01402DE9F04106460F469C
:100E80004FF000082248056801E02148056805F098
:100E900045000028F9D005F0040038B14FF00308F0
:100EA00004200BF0C3FC4046BDE8F08105F00100D2
:100EB00030B14FF0010801200BF0B8FC4046F3E7D9
:100EC0000BF0F2FCB04203D04FF010084046EBE7C5
:100ED00040F2FF500BF0AAFC00200BF00BFD044683
:100EE00004F4604018B9200C38804046DCE704F474
:100EF000005008B11320D7E704F4804008B1102057
:100F0000D2E704F4004008B10F20CDE74046CBE71C
:100F1000342C014070B500264FF480350F4804682A
:100F200002E06D1E0D48046804F0450008B9002D6C
:100F3000F7D115B104F0040028B1032604200BF00A
:100F400075FC304670BD04F0400028B100264020FA
:100F50000BF06CFC3046F5E73046F3E7342C0140EB
:100F600010B50749074800F023F9012806D10449C4
:100F7000044800F03FF804480068804710BD0000B6
:100F80000080001858600240F400002010B50749A6
:100F9000074800F00DF9012806D10449044800F083
:100FA00029F804480068804710BD00000088002030
:100FB00088600240F000002010B50CF0A3F910BDCD
:100FC0000246094B9A4201D2084801E0064810380F
:100FD00001F000531BB1064B0B40C36002E0044B11
:100FE0000B408360704700001064024000600240C4
:100FF0007D0F7D0F0246094B9A4201D2084801E05D
:101000000648103801F000531BB1064B0B40C3607B
:1010100002E0044B0B408360704700001064024004
:10102000006002407D0F7D0F21B1026842F0010295
:10103000026003E0026822F00102026070470000D3
:10104000016821F0010101600021016041608160BF
:10105000C1600161212141614A49884204D13D2199
:10106000484A103A91608CE046491831884205D1CF
:101070004FF47461434A103A916082E04149303143
:10108000884205D14FF474113E4A103A916078E0DD
:101090003C494831884205D14FF07461394A103AD1
:1010A00091606EE037496031884204D13649354A53
:1010B000103AD16065E033497831884204D1334930
:1010C000304A103AD1605CE02E499031884204D118
:1010D0002F492C4A103AD16053E02A49A83188425E
:1010E00005D14FF03D51274A103AD16049E02949D6
:1010F000884204D13D21274A083A116041E0254940
:101100001831884205D14FF47461224A083A1160BF
:1011100037E020493031884205D14FF474111D4A1F
:10112000083A11602DE01B494831884205D14FF043
:101130007461184A083A116023E016496031884208
:1011400004D11149134A121F11601AE01149783174
:10115000884204D10D490F4A121F116011E00D4958
:101160009031884204D10A490A4A121F116008E0EE
:101170000849A831884204D14FF03D51054A121F59
:1011800011607047106002403D000020400F0020B9
:1011900000003D201064024021B1026842F02002AC
:1011A000026003E0026822F0200202607047000043
:1011B00070B50246002000240025124EB24201D232
:1011C000114B01E00F4B103B104E0E4036B11E2666
:1011D00006EAD124166806EA040502E0566906F01C
:1011E000800501F000560EB15C6800E01C68084EF6
:1011F000344004EA010616B10DB1012000E00020E0
:1012000070BD000010640240006002403C0F3C0FC3
:101210007D0F7D0F10B501F080034BB122B1436902
:1012200043F08003436103E0436923F0800343619B
:1012300080290BD02AB1036801F01E042343036008
:1012400004E0036801F01E04A343036010BD000026
:1012500010B500220268134B1A40CC680B68234378
:101260004C6923438C692343CC6923430C6A234391
:101270004C6A23438C6A23434C6B23438C6B23437C
:101280001A430260426922F00702D1E90B3423437A
:101290001A4342610B6943604B6883608B68C3608B
:1012A00010BD00003F801CF07047000000B587B003
:1012B000012108460BF052F8012110200BF07EF8B6
:1012C00000208DF81A0001208DF81B0002208DF8F7
:1012D00019008DF818000002059005A9174801F0C3
:1012E000DFFF02208DF818004002059005A9134881
:1012F00001F0D6FF07220A21104802F019F8072250
:1013000009210E4802F014F84FF4E130019000205A
:10131000ADF80800ADF80A00ADF80C00ADF810000B
:101320000C20ADF80E0001A905480CF08DFF01213D
:1013300003480CF06FFF07B000BD00000000024042
:101340000010014001B504490098086000BF024840
:1013500000680028FBD108BD740000202DE9F84F7B
:1013600016468046224C1D4630440F4601EB0509C7
:1013700000902168496E4A68494690472268A8EB68
:1013800006004946526E8346526890472068B91954
:1013900008EB0509406E8A46426848469047226835
:1013A000B91B0E46526E484652689047002D08BF42
:1013B000BDE8F88F7F1B21680098496E4A6839465E
:1013C0009047226839465846526E526890472068C6
:1013D000A8EB05055146406E4268284690472268B2
:1013E00031462846526E526801B0BDE8F04F1047B2
:1013F0007C01002010B5102000F010F828B1012069
:1014000002490870102000F003F810BD58000020B9
:101410000149086070470000143C0140014600206B
:10142000034A12680A400AB1012000E00020704718
:10143000143C0140002123498279002A3AD00A460F
:10144000126803689A430B461A600A1D1268036803
:101450009A430B1D1A60027911440A6803681A4303
:101460000A60184A0832126803689A43154B083319
:101470001A601A1D126803689A43124B0C331A60E3
:101480004279102A0ED11A1F126803681A430D4BB5
:1014900008331A601A1D126803681A43094B0C338B
:1014A0001A600DE00749427911440A6803681A433B
:1014B0000A6005E0027911440A6803689A430A60E9
:1014C00070470000003C01402DE9F04744680546A4
:1014D0008EB00027204603F06DFA0090B0F87CA093
:1014E000D0F86890D0F88080D0F88860C06D00286F
:1014F00018BF0768684603F0E3FA56B171682846DA
:10150000884700281CBF0EB0BDE8F0873668002E63
:10151000F4D12868172802BFC5F80C900EB0BDE8BA
:10152000F08713DC0F2844D00ADC0B2800F04B8135
:101530000D2808BF1AF0080F00F0EE8000F04CB93B
:10154000112814D014286FD000F046B926286CD08A
:1015500006DC1E286AD0202800F0E88000F03CB9A4
:101560002A2818D0B0F5107F29D000F035B92046D0
:10157000EE6803F01FFA0190717A002904BF317AF6
:10158000012905D1B0F87C1041F48071A0F87C10DD
:1015900001A800F0F5B8204603F00CFA0090E968C5
:1015A000002912BFC0F88410D0F88400E8606846B3
:1015B00078E0002F1CBF2046B84700F00DB9274641
:1015C0002046EE6803F0F6F90190B0F87C4001A8DF
:1015D00003F076FAE868002804BF0EB0BDE8F08793
:1015E000307A20B314F0080F04BF38460EF0CAFB5F
:1015F00038460DF0C9F814F0100F12BF14F4807FB4
:101600000EB0BDE8F087002314F0800F1CBF0EB0B1
:10161000BDE8F08775483146B0F9002038460EF035
:101620004FFB0EB0BDE8F0870FE018E024E038462D
:1016300003F0C0F90190B0F87C1021F48071A0F89B
:101640007C1001A803F03CFAEBE705A9204600F066
:1016500075FCDDE90612E86801604260E1E7E868D0
:101660000228DED10C94E8680D9027200A900AA980
:10167000A8680FF0D3FBD4E7E868012815D0002C48
:10168000CFD0204603F096F90190B0F87C1011F00D
:10169000080F06D021F00801A0F87C1020460EF0BB
:1016A00087F801A803F00CFABBE740460EF0ECF80F
:1016B00058B140460EF066FB40460DF07BFF88B106
:1016C000012140460CF004FF0CE048460EF0B2FB4E
:1016D0008046204603F06EF90090C0F8808068468E
:1016E00003F0EEF994B1204603F064F90290B0F8EB
:1016F0007C1011F0080F06D141F00801A0F87C1011
:1017000020460EF055F802A803F0DAF9B8F1000F00
:1017100004BF0020E86084E7E868C06800281FBFB5
:10172000007A002820460EF02DFB55E0EE684EB3FF
:10173000214670680FF04AF900282746204622D03B
:1017400003F038F90490B0F87C1011F0080F06D1BE
:1017500041F00801A0F87C1038460EF029F804A8E2
:1017600003F0AEF9214670680FF01CF950B1204625
:1017700003F020F902907168C0F880100DF10800A4
:1017800003F09EF928E003F015F90490B0F87C10FE
:1017900011F0080F06D021F00801A0F87C1038469F
:1017A0000EF006F804A803F08BF9214630680FF01C
:1017B000F9F888B1204603F0FDF802903168C0F8CE
:1017C000801002A8DCE7204603F0F4F800907030A7
:1017D00003F000F86846D3E7294620460CF0BAFD2E
:1017E00000281CBF28460DF0C1F81AE73803002076
:1017F00070B588B0B0F908400DF10C0E0C9ED0F811
:1018000018C045688EE87010B0F812C00024CDE909
:101810000014CDF808C0B0F90C10B0F91040B0F9C0
:101820000EC0B0F90A00194410442346624600F085
:1018300003F808B070BD00002DE9F04F8BB00C46E6
:10184000DDE91416DDE91758DDF868C046F4805666
:101850003C4F0CF1600C8DE8C21021460CF0D4FF17
:1018600004006BD003F0A6F83022294604900CF057
:1018700099FE354F049A07F1080102F1340E91E800
:101880002B1E8EE82B1ED7E90A01C2E91501199813
:1018900050661698A2F87C000025C2F88050D566E4
:1018A000C2F888507868D06504A803F009F905A942
:1018B000204600F043FB254841F2827103950094D5
:1018C000CDE90110BDF91E00BDF91A10BDF91C20AB
:1018D000401A431CBDF91800121A521C0CF094FF58
:1018E00005467868416820468847204603F062F83C
:1018F0000490856604A803F0E3F842F2040006426F
:1019000004BF20460DF024F9204603F053F8009060
:10191000006F0190684603F0D3F8414601A808F033
:10192000EFF858B1204603F045F80090019901679F
:10193000684603F0C5F820460DF03AFF0BB020468C
:10194000BDE8F08FC914000838030020F722000812
:101950002DE9F041044698B0006800F0BDF9002878
:1019600014BFDB4DDB4D6068152802BFA86A18B0B4
:10197000BDE8F08112DC0B282AD007DC002800F03B
:101980009281052800F02C8100F09DB90E2800F00E
:101990007781122800F03B8100F095B9162802BF2C
:1019A000E86918B0BDE8F081172802BF286A18B0AE
:1019B000BDE8F081182802BF686A18B0BDE8F08160
:1019C0001C2802BF686918B0BDE8F08100F07BB93F
:1019D00020680E901C200F90206802F0EBFF03900F
:1019E000016D0EA88847064603A803F069F8022E89
:1019F00011DBD5E90001AA680292CDE90001D4E922
:101A000004023346A16907F003FB20698719A06926
:101A1000A0EB06082CE0286806F016FB2169E869AF
:101A20000844421E606904F055F8A269E869101A7A
:101A3000411C606904F04EF86069471C3946206912
:101A400004F0A0F83946A06904F09CF8686806F034
:101A5000FBFA20693946401C04F094F8A069394625
:101A6000401E04F08FF82069871CA069A0F10208CD
:101A7000286806F0E9FA42463946606904F02AF817
:101A8000686806F0E1FA606942463946401C04F095
:101A900021F8686A02287DDDA86806F0D5FA606939
:101AA0006A6A811C1044431E4246384604F02EF9EF
:101AB0006069022EACBF0644861CE069471E286898
:101AC00006F0C2FA3A463146206904F0C5F83A46B3
:101AD0003146A06904F0C0F8E069871E686806F026
:101AE000B3FA20693A463146401C04F0B5F8A069C3
:101AF0003A463146401E04F0AFF8E8690228DCBFE0
:101B0000286A022820DDA86A0228C7BFE1690F1AE7
:101B1000E069871EA86806F097FAE969022907DDDF
:101B200022693B46901C11444A1E314604F0EEF8EF
:101B3000286A022808DDA169E8698A1E081A3B465E
:101B40003146401C04F0E2F8286806F07DFAD4E93A
:101B50000620216903F0BEFF686806F075FAA069E7
:101B6000421E2069411CE069401E03F0B3FFA86AD1
:101B700002284BDD21698E1CA1698F1EE169081ABC
:101B8000441CA1F10208A86806F05EFA43463A46F2
:101B9000214600E003E0304604F0B8F893E0296AFB
:101BA000B14285DD6069022E00F10208ACBF8719E1
:101BB00047462069ACBF3044801C22693B46114433
:101BC000A1F10102414604F0A1F8A069022EACBFC8
:101BD000821B821EE9693B46401A4146401C65E76C
:101BE000208A00B2ADF81800A18A09B2ADF81A1027
:101BF000228B12B2ADF81C20A38B1BB2ADF81E30A5
:101C0000D5E9034CCDE9004C03F060FE5BE0208A8F
:101C1000298B0844ADF81800A08AADF81A00208B73
:101C2000298B401AADF81C00A08BADF81E0020686F
:101C300002F0C0FE0390006FF0B1022006F05CFAE3
:101C4000039991F87C00C0F3C00001EB8000006CA8
:101C500006F0FAF90398406B06F00AFA0398006F51
:101C600002F0A8FE03990A90B1F95A2006A903F0E0
:101C700087FB0AA802F024FF03A802F021FF22E05C
:101C8000208AADF81800A08AADF81A00208BADF8B4
:101C90001C00A08BADF81E00A86806F0D5F906A8B8
:101CA00004F060F80FE0206802F084FE0390B0F8C2
:101CB0005A1041F00C01A0F85A1003A802F000FFDE
:101CC00020680EF03BF918B00020BDE8F08100005C
:101CD0007C030020A803002038B5002458B102F08E
:101CE00069FE009090F87C0010F0080F18BF0124E6
:101CF000684602F0E5FE204638BD0000022928BFF4
:101D000070472DE9F001084A52F8211091E8FC11C2
:101D100080E8FC11D1E90823896A0262C0E909312F
:101D2000BDE8F001704700003825040870B582B0A6
:101D300015460E46002804BF02B070BD02F03AFE00
:101D40000190006F90B102F035FE0090FEF7BAFAF4
:101D50000446681E84420EDC224630460099FEF797
:101D600073FA00203055684602F0AAFE01A802F07E
:101D7000A7FE02B070BD0446EEE70000064A054922
:101D8000074B1160054AD16958601B68C2E90630EB
:101D900008467047700300203C03002040030020E9
:101DA00068030020002808BF70472DE9F04182B089
:101DB0000E46054602F0FEFD0190C16D8C6800F0F4
:101DC00061F907460198466301A802F079FE22688E
:101DD0000121284690470646236803212846984754
:101DE000804622680021284690470446284600F095
:101DF00047FA4346324639462846009400F0C1F976
:101E000028460DF0D5FC02B0BDE8F081022928BFBC
:101E100070472DE9F00790E8F017164A52F8213084
:101E200083E8F017D0F820C0446A806AC3F820C065
:101E3000C3E9094052F82130D8690228D8BF0220EE
:101E4000D86152F82130186A0228D8BF02201862DF
:101E500052F82130586A0228D8BF0220586252F83E
:101E60002110886A0228D8BF02208862BDE8F007E6
:101E70007047000038250408002808BF704738B5AF
:101E80000C46054602F096FD0090B0F95A10A142AA
:101E900004D0A0F85A4028460DF08AFC684602F0AB
:101EA0000FFE38BD002808BF704738B50C46054600
:101EB00002F080FD009004644464684602F000FE75
:101EC00028460DF075FC38BD2DE9F04383B00D4672
:101ED00006004FF000042DD002F06CFD0190B0F927
:101EE0005440A54223D000F0CDF8074601980121C7
:101EF000A0F85450C06D856830462A6890478146E6
:101F00002A6803213046904780462A6800213046DF
:101F100090470546304600F0B3F943464A463946F5
:101F20003046009500F02DF930460DF041FC01A837
:101F300002F0C6FD03B02046BDE8F0832DE9F04F66
:101F400000278DB00C468146BA4602F033FD019061
:101F5000C06D0121856848462A68904780462A68F6
:101F600003214846904707902A6802214846904737
:101F700006902A68002148469047064601980EF0D0
:101F800077FB059001980EF07AFB8346019890F854
:101F9000321001F02001002918BFB0F958A04FF00D
:101FA000000506D0B0F954501DB9406B04F006F896
:101FB000851C0198C06E10B10DF0B8F80746258059
:101FC0006780A4F8048007990598401A06EB0A0177
:101FD000401E294420813944E1800699ABEB010180
:101FE000491E6181A4F80C8020827019E681401E90
:101FF000608201A802F064FDB4F90C70B4F91060BD
:102000004D46484602F0D6FC0690C16DD0F80080DF
:1020100006A8D1F8089002F053FDD9F8002000215D
:1020200028469047814628460CF0BFFF050024D083
:1020300002F0C0FC0790B0F900200FFA88F1B0F967
:102040000430521A5B1AB0F90210A1EB284149453D
:102050000BD190F8280010F0800F03D09642A8BF53
:10206000561E02E09F42D8BF5F1C07A802F028FD61
:1020700028460CF0C9FF0500DAD1A78126820DB0F1
:10208000BDE8F08F10B50146002091F8322012F023
:10209000200F08BF10BDB1F95400002818BF10BDB3
:1020A000486B03F08BFF801C10BD70B58AB00E46E4
:1020B000044602F07FFC0990C06D856809A802F013
:1020C000FFFC0094002E08BF18200BD0012E08BF83
:1020D000162007D0022E08BF152003D0032E08BFFC
:1020E000172000D101906968684688470AB070BD22
:1020F0002DE9F04383B017468846814602F05AFC2A
:102100000090C16D056868468C6802F0D9FC2268B1
:10211000002148469047064648460CF046FF04001A
:1021200004BF03B0BDE8F08302F044FC0190B0F9B5
:1021300000102AB2B0F90430891A9A1AB0F90230A4
:10214000A3EB2543B34211D190F8280010F0800F83
:1021500005D038688842A4BF481E386006E0D8F829
:1021600000009042DCBF501CC8F8000001A802F03B
:10217000A7FC20460CF048FF0400D5D103B0BDE811
:10218000F0832DE9FF4F85B09A4691460F46DDF862
:1021900048B0059802F00EFC0390C16D8C68FFF703
:1021A00071FF064603A802F08BFC22680121059806
:1021B0009047029022680321059890470190226879
:1021C0000021059890470546BE4204BF0298484545
:1021D00006D10198504502BF5D4509B0BDE8F08FBA
:1021E000F41B0027B84605980CF0DFFE060004BF7C
:1021F00009B0BDE8F08F0198A5EB0B05AAEB000A2A
:102200000298A0EB0909304602F0D4FB0090806AE6
:1022100010F0800F03D010F4007F06D025E010F4FA
:10222000007F22D010F0800F1FD124B1224611462A
:1022300030460DF0FBFB009890F8280010F0800F5E
:1022400006D004FB17A12A4630467F1C0DF099FBEF
:102250000098008D10F4007F07D004FB08912A46F7
:10226000304608F101080DF08CFB684602F028FCAE
:1022700030460CF0C9FE0600C5D109B0BDE8F08FAC
:1022800070B586B0064602F095FB0590D0E91A4578
:1022900005A802F015FC54EA050004BF06B070BDA5
:1022A00069463046FFF74AFEACB1BDF90620BDF9DC
:1022B000041020460DF01EFBBDF90A00BDF9061002
:1022C000401A421CBDF90800BDF90410401A411C17
:1022D00020460DF055FE002D04BF06B070BDBDF9BF
:1022E0000600BDF90210421ABDF9041028460DF08F
:1022F00001FB06B070BD2DE9F0430446406889B08B
:1023000005460CF089FE814602F054FB0290D0F89D
:102310008080876C466E02A802F0D2FB20681728E6
:1023200062D008DC0E2850D00F2816D0142818BF11
:10233000152859D052E01E2829D01F283ED0222827
:1023400002BFE76009B0BDE8F083312801BF00207B
:10235000E06009B0BDE8F08340E06FF07040874274
:1023600004D0384609F02CF902F09AFD002E04BF83
:1023700009B0BDE8F083D4E902122068CDE9040574
:10238000CDE9061204A8B04709B0BDE8F083E068C3
:10239000002804BF09B0BDE8F083B8F1000F18BFF2
:1023A000A84505D040460DF0EDFC09B0BDE8F0832E
:1023B00028460DF03FFD09B0BDE8F08321464846B0
:1023C0000BF0C8FF09B0BDE8F083E0684168002960
:1023D00004DD00680928EBD00A280BD0002E1CBFB2
:1023E0002046C4F80490CED120460CF0BFFA09B0C4
:1023F000BDE8F08328460DF06BFD09B0BDE8F08321
:1024000051B18200A2F1C042126842F00103820081
:10241000A2F1C042136009E08200A2F1C04212683A
:10242000034B1A408300A3F1C0431A6070470000B9
:10243000FEFF0F0030B50021002200230468A40035
:10244000A4F1C0442168424C2140D0E901452C430D
:10245000C5682C4305692C4345692C4385692C4389
:10246000C5692C43056A2C43456A2C43856A2C4375
:10247000C56A2C43056B2C4321430468A400A4F1D6
:10248000C04421608468082C0BD10468A400A4F126
:10249000C044246844F040050468A400A4F1C0448A
:1024A00025600468641CA400A4F1C044226802F002
:1024B0004042446B2468456B6D6844EA0514456BE3
:1024C000AD6844EA0524456BAD8944EA0544456B93
:1024D0002D8A44EA0554456B2D7D44EA0564456B1D
:1024E000AD692C4322430468641CA400A4F1C044D9
:1024F0002260C46AB4F5804F20D10468A400A4F11E
:10250000C044D4F80431134C2340846B2468856B99
:102510006D6844EA0514856BAD6844EA0524856B53
:10252000AD8944EA0544856BAD692C4323430468B7
:10253000A400A4F1C044C4F8043107E06FF0704572
:102540000468A400A4F1C044C4F8045130BD0000E4
:102550008000F7FF0000F0CF2DE9FC4107460D4653
:102560000026002400200090019008205B490860AC
:1025700010204860402088600020C8604FF48060D0
:10258000086108460AF0F4F91020FEF799FB0446AA
:1025900014B12046BDE8FC815148008800044F4931
:1025A000086037204860402088600020C8604FF4F1
:1025B0008060086108460AF0DBF93720FEF780FBEF
:1025C00004460CB12046E5E74FF0FF30454908606E
:1025D00008204860302088600220C8600020086120
:1025E0000120486108460AF039F900203B4908609B
:1025F00033204860402088600020C8604FF480602D
:10260000086108460AF0B4F93320FEF759FB044686
:102610000CB12046BEE709E04FF400100AF04AF979
:1026200020B10AF09FF94DF82600761C2E4800686C
:1026300040F22A6108400028EED008200AF03AF95A
:1026400028B108200AF0F2F804242046A2E702206C
:102650000AF030F928B102200AF0E8F802242046F6
:1026600098E720200AF026F928B120200AF0DEF8A9
:10267000062420468EE74FF400700AF01BF930B1B3
:102680004FF400700AF0D2F80724204682E740F2A7
:10269000FF500AF0CBF800980006009901F47F4142
:1026A00040EA0120009901F47F0140EA11200099DD
:1026B00040EA1160686001980006019901F47F41C9
:1026C00040EA0120019901F47F0140EA11200199BB
:1026D00040EA1160286020465CE70000D007002037
:1026E00060000020E4070020342C01402DE9F04375
:1026F0000446C56887B017468846002005F0B6FC3A
:102700000646002D1BBF2879002826F0020046F05F
:10271000020005F0ABFC2069012568B1D4E9021282
:102720000091CDE901250395D0F800C06388228887
:1027300039464046E04719E0DFF84C90134B2146FC
:10274000D9F800001B68427CE0689847A0B1A188D6
:10275000E388A2680095CDE90231CDE90420019516
:10276000638822883946404608F050F907B0304661
:10277000BDE8F04305F07ABCE088012812BF0020D4
:10278000D9F80000806BE2E77C0100207401002092
:102790002DE9F04F80460F4640F2C32050434FF4DE
:1027A0007A7190FBF1F085B0401C009002FB02F0C2
:1027B00002EBD27100EB610002901446002339460F
:1027C0004046FEF7CBFD009801260128AEBF494DDB
:1027D00005B0BDE8F08F00BF06FB06F004FB040166
:1027E000029881423FDD08EB06000390296807EB61
:1027F0000409496E4A6849469047A8EB06000190D3
:102800002A684946526E52689047296807EB060BC2
:1028100008EB0400496E81464A68594690472A6889
:10282000B91B8A46526E484652689047D4B12A680E
:10283000391B8946526E0398526890472A68494668
:102840000198526E526890472868A8EB04095946CF
:10285000406E4268484690472A6851464846526E44
:1028600052689047641E08EB060003902A683919E5
:102870008946526E52689047A8EB060001902A687C
:102880004946526E52689047296807EB060B08EBE1
:102890000400496E81464A68594690472A68B91B28
:1028A0008A46526E484652689047D4B12A68391B0E
:1028B0008946526E0398526890472A6849460198A3
:1028C000526E526890472868A8EB04095946406E3A
:1028D0004268484690472A6851464846526E5268B8
:1028E00090470098761C86427FF776AF05B0BDE82A
:1028F000F08F00007C0100202DE9F84F0F46DDF835
:1029000028900646941BA3EB0708D9F800504FF017
:10291000000A54EA080063D0002CD4BF604220466D
:10292000B8F1000FCCBF4146C8F1000188420ADA75
:1029300020464446804630463E46074610461A46E4
:1029400003464FF0010A002CCCBF20466042A04253
:1029500008BF012008D03046164602466442C8F13E
:1029600000081F464FF0FF300090C448C449B8F13A
:10297000000FD0F800C01CBF04EBD4724FEA620B0A
:10298000B8BFCBF1000B30D09CF81A20002A00F021
:10299000FA80009A002ABCBF2A19C9F80020002535
:1029A000002CC0F2458100BF08FB05B090FBF4F09D
:1029B000C219D9F8001000980844B049C9F80000BD
:1029C00009688B7E012B00F00081022B00F007814B
:1029D000032B00F00D81042B00F03A8100F019B9AF
:1029E0003046BDE8F84F00F08DBABAF1000F62D062
:1029F0009CF81AC0BCF1000F14D04FF00008002C56
:102A0000A4BF8A46834640DBDBF8001028466D1CD5
:102A10008A7E012A0CD0022A14D0032A1BD0042A51
:102A200035D027E031463846BDE8F84F08F096B972
:102A3000801DC21700EB127222F00F02801A0C28C0
:102A40001FDB17E0C21700EB927222F00302801A1C
:102A5000022816DB0EE08AFB0032D310A3EBE272F1
:102A6000524202EB820200EB82000C2809DB103894
:102A7000022806D3496E06EB08004A68014638462C
:102A8000904708F10108A045BEDD681EDCE07D4AE4
:102A900082FB00329310A3EBE272A2EB820200EB06
:102AA000C2000C28EDDBA0F11002022A24BF14386A
:102AB0000228E6D3DEE79CF81A80B8F1000F14D0A4
:102AC0004FF00008002CA4BF8A46834642DBDBF8A7
:102AD000001028466D1C8A7E012A0FD0022A17D0CA
:102AE000032A1ED0042A3AD02AE0DCF864003946D2
:102AF000036801B03046BDE8F04F1847801DC2178B
:102B000000EB127222F00F02801A0C281EDB17E075
:102B1000C21700EB927222F00302801A022815DB22
:102B20000EE08AFB0032D310A3EBE272524202EBBA
:102B3000820200EB82000C2808DB1038022805D343
:102B4000496E06EB08004A683946904708F10108CB
:102B5000A045BCDD681EC9F80000BDE8F88F494AF1
:102B600082FB00329310A3EBE272A2EB820200EB35
:102B7000C2000C28EADBA0F11002022A24BF14389C
:102B80000228E3D3DCE70025002CACBF8146BDE87A
:102B9000F88F00BF08FB05B090FBF4F03844BAF1A1
:102BA000000F0AD0D9F800207119526E5268904770
:102BB0006D1CA542EEDDBDE8F88FD9F80010731941
:102BC000496E4A6801461846F1E7801DC31700EBBD
:102BD000137323F00F03C01A0C2825DB19E0C31769
:102BE00000EB937323F00303C01A02281CDB10E0F0
:102BF000234B83FB00C34FEAE30CACEBE3735B4274
:102C000003EB830300EB83000C280DDB1038022854
:102C10000AD3496EBAF1000F06EB05004B680EBFF0
:102C200011460146104698476D1CA5427FF7BCAE81
:102C30000098002804DAD9F800002044C9F8000000
:102C4000D9F800100098081AC9F80000BDE8F88FFC
:102C50000C4B83FB00C34FEAA30CACEBE373A3EB79
:102C6000830300EBC3000C28DEDBA0F11003022B72
:102C700024BF14380228D7D3CBE700007C01002002
:102C800067666666ABAAAA2A2DE9F047DFF8689264
:102C9000804684B0D9F800000F460C99007E1D468E
:102CA0001646012800F0CE80A8EB060C7C1B5CEADF
:102CB000040104BF04B0BDE8F087421E0021BCF14E
:102CC000000FBCBF0121CCF1000C002CBCBF41F0B7
:102CD00002016442644504DD20466446844641F0B6
:102CE0000401A0020CEBDC7300EB630090FBFCF032
:102CF0008010824C4FEA201C00F00F0034F81C308A
:102D0000C0F1100013FB00F3102807D004EB4C0CAB
:102D1000C0F11000BCF802C01CFB003303F1080036
:102D2000C31700EB1370001111F0040F18BFC0F5AA
:102D3000806011F0010F18BFC0F5006011F0020FA4
:102D400018BFC0F5805000F5806100F50060C0F349
:102D50000B004FF0000AB0F5006FC4BF4FF0010A3E
:102D6000A0F50060B0F5806FC8BFC0F500604FEA05
:102D7000A01C634B00F03F00C0F1400033F81C4042
:102D80004443402818BFBCF1100F07DA03EB4C0C8A
:102D9000C0F14000BCF802C00CFB004404F120006C
:102DA0008009BAF1000F18BF404200FB02FC00246A
:102DB000C1F30B00B0F5006FC4BF0124A0F50060A3
:102DC000B0F5806FC8BFC0F50060811100F03F0012
:102DD000C0F1400033F811A040280AFB00FA18BFE8
:102DE000102906DA03EB4101C0F14000498801FBDC
:102DF00000AA0AF120008009002C18BF404200FB05
:102E000002F1BCF1000FB4BFCCF500700CF50070FE
:102E10004FEAA020B8BF40420029BDBFC1F50071F4
:102E20008912C1F1000C01F50071A8BF4FEAA12C75
:102E300000280FDD411C01EBD171491000EBD0706F
:102E400042100EE0009139464046FFF755FD04B0B0
:102E5000BDE8F08700EBD071401E491000EBD07048
:102E60004210BCF1000FC6BF0CF1010000EBD070A6
:102E70000CEBDC704FEA6000CEBF0CEBDC73ACF106
:102E8000010303EBD3735B1008EB010CADF800C03A
:102E900007EB000CADF802C0A8EB020CB21AADF8BB
:102EA00004C0ADF808203144A7EB030CEA1AADF8D2
:102EB0000C102844ADF80A20ADF80E000023ADF840
:102EC00006C01A460421684600F08EF8D9F80020A2
:102ED00040463946527E002A08BF00F013F83046BB
:102EE000D9F800202946527E002A08BF00F00AF8CF
:102EF00004B0BDE8F08700007C0100202A28040807
:102F000008280408064A13681A7E012A05D0521EB2
:102F100002EBD272521000F005B85A6E5268104798
:102F20007C0100202DE9F84F06460F4640F2C320F1
:102F300050434FF47A7190FBF1F000F1010A02FB6B
:102F400002F002EBD271DFF89C8000EB6100009090
:102F5000D8F8001014463244496E301B0B683946CD
:102F600098470125BAF1010FB8BFBDE8F88F00BF3F
:102F700005FB05F004FB0400009988421ADD544566
:102F800017DDD8F8003006EB050BA6EB05095B6EE4
:102F9000ABF1010239191B6809F101009847D8F813
:102FA0000030ABF10102391B5B6E09F101001B68B7
:102FB0009847641ED8F80030321979195B6E301BBF
:102FC00093461B6881469847D8F800305A46791BCB
:102FD0005B6E48461B6898476D1CAA45C8DABDE879
:102FE000F88F00007C0100202DE9FF4F83B00746D9
:102FF00043F6FF74C4F1000090460E1E0090C4BF5B
:10300000B91C32460DDD00BFB1F90000A042D8BFA7
:103010000446009B9842D8BF1846091D0090521ED6
:10302000F2D18C490868406978B1B0F90630069A47
:103030009B1A009A9342C0F2018100BFB0F902309E
:10304000069A9A1AA24200F3FF8000988442D2BFE7
:10305000A6F1010907B0BDE8F08F00207E490546C2
:10306000002E0860C4BF069804EB000A7EDD4D45C3
:10307000B4BF05F1010C4FF0000C07EB850207EB24
:103080008C01B2F90200B1F90230A04253D1A3423F
:1030900013D137F92C2037F9250002EB08036D4ACC
:1030A0004044514612689842526ED2F800C0B2BFF6
:1030B0001A4602461846E04783E000222946B9F145
:1030C000000F0CDD002914BF491E711E07EB8100A3
:1030D000B0F90200A04203D1521C4A45F2DB20465F
:1030E000A0426ED0001B37F925101A1B90EA020F80
:1030F00009D4584A01EB080051461268526E136811
:10310000024698475DE0DFF850B1DBF800C0BCF143
:103110000C0F56DA5FEA0C0018BF504A4AD000BFC5
:1031200002EB400333F9023C8B4243DB22F81030C0
:10313000401EF5D13EE0A34243D0A8BF844203DA4B
:10314000A042A8BF9C423CDB98424DDC8446A04292
:10315000DFBF18468442B2F90030B1F9001030DC0C
:10316000CA1AA4EB0C015143002900E02DE0A0EBAA
:103170000C02CEBF01EB6201A1EB6201491CA0EB86
:103180000C0091FBF0F0DFF8D0B0C118DBF800C004
:10319000BCF10C0F15DA5FEA0C0018BF2F4A09D0FA
:1031A00002EB400333F9023C8B4203DB22F8103080
:1031B000401EF5D1294A22F810100CF10100CBF87D
:1031C00000006D1CB542FFF652AF0698224920441C
:1031D000019008684FF0000B5D460028C4BF1F48EF
:1031E000B0F900A022DD19E09C46A342DEBF844274
:1031F000B1F90030B2F90010B2DDE2E71748BBF1D7
:10320000000F30F915A009D008EB0100114908EBB7
:103210000A020968496E0B68019998470E486D1CAF
:103220008BF0010B00685146A842E7DC0098641C53
:1032300084427FF712AF07B0BDE8F08FB0F90630D7
:10324000069A9A1A0092F9E6B0F902200698141A22
:10325000FBE600007C01002008070020A4EE01200E
:1032600010B5002004F0ECFE6FF07F4004F0ECFE9F
:10327000012004F02FFF002004F034FF002004F0B0
:103280003BFF002004F0F2FE0448006804F0F0FE6A
:10329000BDE81040002004F0FBBE000078010020D3
:1032A000F0B50A4600210023002400BF3DE00125BF
:1032B00005FA01F3156805EA03049C4234D1056858
:1032C0004F000326BE40B543056015794E00B5405A
:1032D0000668354305601579012D02D01579022D58
:1032E00016D185684F000326BE40B54385605579E9
:1032F0004E00B540866835438560456801268E409E
:10330000B5434560456896798E40B6B23543456011
:10331000C5684F000326BE40B543C560D5794E0051
:10332000B540C6683543C560491C1029BFD3F0BD00
:10333000F0B5002300244D07ED0E02FA05F3CE1080
:1033400000F1200555F826504E07F70E0F26BE4017
:10335000B543CF1000F1200646F82750CE1000F1FB
:10336000200555F8265045EA0304CE1000F120054B
:1033700045F82640F0BD0246002013690B400BB112
:10338000012000E0002070474183704701837047AF
:1033900070B50246002300E05B1CD55C002DFBD11C
:1033A0000124012003E004EB84056C00401CB1FB08
:1033B000F4F50A2DF7D20025D61835540DE00A256C
:1033C000B1FBF5F605FB16153035D618064406F8A0
:1033D000015C0A25B1FBF5F1401E0028EFD170BD5C
:1033E00010B502460020002300E0401C145C002CB5
:1033F000FBD103E0CC5C1454401C5B1CCC5C002C67
:10340000F8D1145410BD000010B502E00A2001F0FC
:10341000FDFE074800680128F8D00648006801282A
:1034200004D1002003490860012010BD0020FCE702
:1034300030010020340100200020034908600349C6
:10344000086003490860704730010020280100200F
:103450002C01002003490160022141600D210181FE
:10346000704700003C01002070B506460D4614462A
:1034700026B11DB12946304612F088FF04F0010044
:1034800010B100F0E9F901E000F080F804F002006A
:1034900020B10B4800680CF0B0FD03E0084800685C
:1034A0000CF096F804F0040020B1064800680CF017
:1034B000A4FD03E0034800680CF08AF870BD00002A
:1034C00014010020100100202DE9F04104464FF4C2
:1034D0000471194800680BF047FD8046642C01DD3B
:1034E00014F08EFB0021404608F006FE2246002123
:1034F000404608F0D4FD02F03BFD064600BF00F058
:1035000031F8871B642C06DD3946404608F0F4FD8F
:1035100040460CF04DF9052001F078FEFFF774FFEE
:103520000546A74201D2002DE9D0642C01DD12F03E
:1035300027FDBDE8F08100001001002010B5024811
:103540000068804710BD00002001002001460448AB
:103550000089084008B1012070470020FCE7000006
:103560003418002010B50648006810B105480068FE
:1035700010BD02F0FDFC04490968401AF8E700009C
:10358000300100202C0100202801002010B5082067
:10359000FFF7DCFF08B101F05DFB10BDF0B589B0AD
:1035A00020223C4901A8FCF74FFE07F053FD0546D9
:1035B00007F094FD044605EBD5714E10FFF7BEFFF2
:1035C000022004F099FD4FF0FF3004F03DFD324839
:1035D00004F04EFD44F31912314630A001F0B6FE5E
:1035E000304804F045FD04EB440000EBC4008211B8
:1035F00031462DA001F0AAFE394804F039FD3948C2
:1036000004F022FD162060438211314636A001F0FD
:103610009DFE414804F02CFD16206043122101EB71
:10362000A01231463DA001F091FE4FF0FF3004F0B2
:103630000BFD1C4804F01CFD02F09CFC07463946BB
:1036400001A8FCF733FEC4EB44108211314601A8F7
:1036500001F07CFE26206043821138480088281A39
:103660004110364801F04CFF4FF0FF3004F0ECFC05
:10367000094804F0FDFCC4EBC40040F3D902314614
:103680002FA001F063FE41F28830FFF71DFF09B063
:10369000F0BD0000A89401080CC501085354656DE5
:1036A00057696E00A8D70108556E69766572736117
:1036B0006C206772617068696320736F66747761EC
:1036C00072650A666F7220656D6265646465642068
:1036D0006170706C69636174696F6E7300000000E3
:1036E00004250408FF882200466F722053544D338E
:1036F00032204D43552050726F6475637473202DD2
:1037000020436F72746578204D33202D20436F72F3
:10371000746578204D34000040120408436F6D70CA
:10372000696C65642041707220313220323031384A
:103730002031373A30323A3434000000CCF10308FB
:103740007777772E73742E636F6D2F73746D3332AA
:10375000000000008CB02B492B4803F089F90BF0D6
:10376000EDFB064629490CF073FAFDF75DFA0021DE
:1037700001A8FEF7C3FA00200690002101A8FEF779
:1037800045FB012101A8FEF7B9FA002006900121AE
:1037900001A8FEF73BFB1E48FEF7F0FA1D4808F0B3
:1037A0005FFC1D48FDF72AFA1C4808F087FF1C48FB
:1037B0000AF012FA1B4806F0A1FC022004F09CFC5F
:1037C0001948FFF747FE07F031FB0546102D11DBC6
:1037D0000420FFF7BBFE68B101F0D2F80446B4F54F
:1037E000001F03D911481249086006E0114810492A
:1037F000086002E010480E49086001E012F0A8FEDF
:10380000FCE700001C0100208984010839840108BC
:1038100063550108A5BE0008A5090008E5C4000815
:10382000E9D70008459E0008341800203D3F0108F4
:1038300020010020013F01083140010810B5054872
:103840000068401C03490860FFF7F6FD14F0DEFB3A
:1038500010BD00001801002010B50820FFF776FE0B
:1038600008B101F0D1FA10BD2DE9F04F99B028212F
:1038700008A8FCF710FD00226DA179A0FFF7F4FD68
:1038800007F0E8FB044607F029FC054607F0BEFBFD
:103890008046A8450DDD0020ADF85000ADF852007F
:1038A00020B2ADF8540028B2ADF8560014A804F0C8
:1038B000C9FB002607E06D4951F8260001F024FB02
:1038C0004DF82600761C082EF5DBFFF74BFE074669
:1038D00000266BE006F007015DF8210004F0B6FB5E
:1038E000FCF7A0FC90FBF4F104FB1100A14604EBF3
:1038F000D971A0EB610000B2ADF84800FCF792FC72
:1039000090FBF5F105FB1100A94605EBD971A0EB81
:10391000610000B2ADF84A00FCF784FC90FBF4F1C2
:1039200004FB1101BDF848001430084400B2ADF8A2
:103930004C00FCF777FC90FBF5F105FB1101BDF89D
:103940004A001430084400B2ADF84E00BDF94E30C4
:10395000BDF94C20BDF94A10BDF9480002F0D6F976
:10396000BDF94C00A04203DB601E00B2ADF84C0074
:10397000BDF94E00A84203DB681E00B2ADF84E0050
:10398000BDF94800002802DA0020ADF84800BDF972
:103990004E00002802DA0020ADF84E0016A803F011
:1039A00091FE9DF8600000B10BE0761CFFF7DAFD98
:1039B000C01B41F28831884203DAFFF725FD002859
:1039C00088D000BFFFF73AFF12F014FA83460020B8
:1039D00004F038FB26A108A8FFF702FD594608A805
:1039E000FFF7D6FCFFF7AAFD4FF0FF3004F02CFBE9
:1039F000022004F081FB224804F03AFB02F092FA24
:103A0000A5EB0009A24609EBD970421004EBDA706D
:103A1000411008A801F09AFC052200210846FFF792
:103A200023FD4FF47A60FFF74FFD19B0BDE8F08F2A
:103A30004D756C7469206C6179657220636C697076
:103A400070696E670A486967686C79206F7074697D
:103A50006D697A656420647269766572730000002E
:103A6000486967682073706565640000E0F10308C9
:103A7000506978656C732F7365633A20000000000D
:103A80000CC5010810B504462046FFF71DFDFFF7E1
:103A9000D5FE10BD70B5054680680C4690B94FF450
:103AA000BA7000F0F3FE4FF4BA720021A86006F07D
:103AB000B5F8A8680221C1840121056401620F499B
:103AC000C0F80811A8682168C16261680163A16833
:103AD000416311F0040F07D0D0E90021C0E90012C2
:103AE000D0E90221C0E90212A1898184216900295B
:103AF000B8BF002118BF016270BD0000213D000861
:103B00002DE9F041044680681E461746884690B964
:103B10004FF4BA7000F0BAFE4FF4BA720021A06000
:103B200006F07CF8A0680221C184012104640162CE
:103B30000949C0F80811A5686822414605F5867054
:103B4000FCF782FB2046B8472046B04720698068D2
:103B50008047A862BDE8F081213D000810B5044609
:103B600000F0C2F8A0681049134AC0F8AC100F4921
:103B7000C0F8A8100E49C0F8B0100E49C0F8B8102F
:103B80000021C0F8BC101368C0F8B4300B4BC0E97A
:103B900032315168C0F8C410C18C21F00301C184D6
:103BA0000749C0F8941010BD5D7801082D7B01080D
:103BB00021780108E37101085C020020EB72010822
:103BC000B177010810B5044600F08EF8A4681048DB
:103BD0001021C4F8E4000F48C4F8E8000E48C4F807
:103BE000EC000E48C4F8F0000D48C4F8A0000D48E1
:103BF000C4F8A400D4F8C400C4F8FC00D4F894209D
:103C0000204690471020A0630748606410BD000064
:103C1000DD210108254E01082D3C00085D3D00080E
:103C2000857101088D80010878380408F8B584682A
:103C300015460F4694F8260010F0020F48D0D4F82D
:103C40000031204698470646D4F804312A463946C2
:103C500020469847D4F8983005461BB10022012130
:103C6000204698472069B042CCBF01200020A169BE
:103C7000B142B4BF0121002108436169A942CCBF10
:103C8000012100210843E169A942B4BF01210021BB
:103C900008430AD06068401E00902068D4F8A8C08D
:103CA000431E002211462046E047D4F8AC302A4695
:103CB000314620469847D4F8A01020468847D4F8CB
:103CC000983005466BB1012200212046984708E054
:103CD000D4F8AC3020469847D4F8A0102046884746
:103CE00005462846F8BD000010B504468068002847
:103CF00018BF10BD4FF4BA7000F0C8FD4FF4BA728F
:103D00000021A06005F08AFFA0680221C184012182
:103D1000046401620149C0F8081110BD213D00088A
:103D20002DE9F0010C4991B0B1E8FC118DE8FC11CE
:103D300091E8FE100DF1200888E8FE10416B5DF857
:103D40002120C0F8002108AA52F82110C0F804115F
:103D500011B0BDE8F0017047B4F203082DE9F84353
:103D600084681F46154694F82600884610F0020F16
:103D700035D0D4F80031204698470646D4F804C11F
:103D80002A4641462046E04705462069B042D4BF56
:103D900000200120A169B142B4BF012100210843E4
:103DA0006169A942CCBF012100210843E169A94210
:103DB000B4BF0121002108430AD06068401E009072
:103DC0002068D4F8A8C0431E002211462046E047D0
:103DD000D4F8AC302A4631462046984703E0D4F860
:103DE000AC3020469847D4F8A42001B0394620468C
:103DF000BDE8F043104700002DE9F04F4B4989B072
:103E00000968B1F922200692D1F81CC0B1F92470DA
:103E1000DCF81C40A28982429CBFE389984205D805
:103E2000A0EB02094FF0FF38266812E0D4E90162E6
:103E3000002A71D0138883429CBF5588A8426BD852
:103E4000C01A526880B202EB8000B0F90090B0F95D
:103E50000280B9F1FF3F5FD09CF81800A27C10FBF4
:103E600002FB94F810A00790B1F92A50284607F0F9
:103E7000F9FBC0B208902D4809FB0B620068A37CD7
:103E80004FF00109816BCDE90293CDE90421C069AE
:103E90005246C17E807ECDE90001DDE90603394648
:103EA00006F0B4FDB8F1FF3F18D045F0020007F06E
:103EB000D9FB1E48A37C08FB0B620068816BCDE92F
:103EC0000293CDE90421C0695246C17E807ECDE9CE
:103ED0000001DDE90603394606F098FD134E30680F
:103EE000C069417E007E814213D9022D11D085F038
:103EF000040007F0B7FB3068C069017EC27E11FB89
:103F00000271427ED319827E06981AFB020206F0E5
:103F100057FF089807F0A6FB0448627C0068418CB4
:103F20001144418409B0BDE8F08F00007C010020FD
:103F3000044800290068C069C0691CBF027C0A608F
:103F4000407C70477C010020022008807047C069D7
:103F500082898A429CBFC289914210D9806880B10F
:103F600002888A429CBF438899420AD8406800EB85
:103F70008100A0EB8200B0F90000002801DB0120E5
:103F80007047002070470000F0B52D4D044687B003
:103F900028682146B0F92A70C069C06900F036FA75
:103FA000002804BF07B0F0BD41680088201A00EB6C
:103FB000400001EB80042078C01C8608384607F0DA
:103FC00051FB07461F48D0F800C0BCF1000F1AD0C3
:103FD000A06800210222CDE904010120039600908F
:103FE000CDE90102286894F90320DCF800C0B0F99B
:103FF0002410B0F92200114494F90220637810448F
:104000002278E04711E0A068CDE90060286894F9C3
:1040100003206378B0F92410B0F92200114494F918
:1040200002201044227800F045FA384607F01AFBC7
:1040300028682279418C1144418407B0F0BD00000A
:104040007C010020B8010020F0B52D4D044687B05A
:1040500028682146B0F92A70C069C06900F0D6F915
:10406000002804BF07B0F0BD41680088201A00EBAB
:10407000400001EB80042078401C4608384607F0D9
:10408000F1FA07461F48D0F800C0BCF1000F1AD063
:10409000A06800210422CDE90401012003960090CC
:1040A000CDE90102286894F90320DCF800C0B0F9DA
:1040B0002410B0F92200114494F9022063781044CE
:1040C0002278E04711E0A068CDE90060286894F903
:1040D00003206378B0F92410B0F92200114494F958
:1040E00002201044227800F0B7FA384607F0BAFAF6
:1040F00028682279418C1144418407B0F0BD00004A
:104100007C010020B80100202DE9F043394D024622
:1041100087B02868B0F92A60C069C16910460029D3
:1041200004BF07B0BDE8F0830B8883429CBF4B8877
:10413000984205D989680029F6D107B0BDE8F08317
:10414000002904BF07B0BDE8F08348680988511A08
:1041500000EBC1043046A77807F084FA804628684F
:1041600062680123816BCDE90237CDE90421C16981
:10417000CB7E8A7ECDE900230B7EB0F92410227815
:10418000B0F9220006F042FC2868C069417E027E38
:1041900091421FD9C07E11FB00F912FB00F7022EDD
:1041A00018D001F0A6FE064601F086FE03F04CFF93
:1041B00029682278CB69B1F92200DB7E12FB030269
:1041C000B1F9241001EB0903394406F0F9FD30463A
:1041D00003F03AFF404607F045FA28686278C36961
:1041E000B0F922109B7E12FB0311418407B0BDE899
:1041F000F08300007C0100200346184810B40068DA
:10420000C4691846E2692AB3B2F800C084459CBF6D
:10421000B2F802C0604503D99268002AF4D119E0CF
:10422000C2B11088D2F804C0181A00EB4003042071
:1042300000EB8300A27E1CF8000010FB02F00029B6
:1042400004BF10BC70471CF8233013FB02F20A6055
:1042500010BC704710BC0020704700007C0100209B
:10426000034612480068C069C2691846E2B100BF3F
:10427000B2F800C084459CBFB2F802C0604503D9C3
:104280009268002AF4D10FE072B1506812889A1A2D
:1042900002EB420200EB8200D0E9002380680A6052
:1042A000C1E9013000207047012070477C010020E7
:1042B000012008807047C06968B102888A429CBFAB
:1042C0004288914203D980680028F6D103E0002893
:1042D0001CBF012070470020704700002DE9F3410A
:1042E000354C82B000252068C069427EC07E12FB3A
:1042F00000F84F1E24D402A804F0D0F80646206827
:104300003146C069C06900F081F890B14168008809
:10431000301A00EB400001EB800090F902100079A8
:1043200008442168C969897E10FB01F00028C8BFD4
:1043300005447F1EDFD51EB1304605F017FA05444F
:1043400020686A1E418CADF80010808C1144ADF8D5
:104350000410ADF80200A8F101010844ADF8060010
:104360001648006800281FBF8168002968468847F2
:1043700001F0BFFD0546206890F82A0010F0040FF8
:1043800002D001F0B6FD01E001F096FD03F05CFE05
:10439000BDF90630BDF90420BDF90210BDF90000D9
:1043A00006F00EFD284603F04FFE05490120087077
:1043B00004B0BDE8F08100007C010020B8010020BD
:1043C000D80100202DE9F3410E4C0F4F0D46206817
:1043D000B0F92A6016F0030F02D17A68009890476E
:1043E0006D1E08D4684604F059F82168C969096847
:1043F00088476D1EF6D5002038702068468502B0CB
:10440000BDE8F0817C010020D8010020002808BF11
:10441000704702888A4203D842888A4228BF704780
:1044200080680028F5D1704710B40446154800682C
:10443000D0F81CC02046DCF81C2002B3138883424D
:104440009CBF5388984203D99268002AF6D116E09F
:10445000AAB110885368221A012000EBC2009CF810
:104460001AC0185C10FB0CF0002904BF10BC704788
:1044700013F8322012FB0CF20A6010BC704710BC1B
:10448000002070477C010020012008807047C0692F
:1044900068B102888A429CBF4288914203D98068F1
:1044A0000028F6D103E000281CBF0120704700203F
:1044B000704700002DE9F04F8FB0DFF880C1DDE9D3
:1044C0001889DCF800C09CF8104014F0020F6CD082
:1044D000CDF814900A930E920746CDE90B8158A0AF
:1044E0004FF0000B00680790002BCEBF07AD0FB058
:1044F000BDE8F08F00260C980E9C5844DDF814801F
:104500000090042C31DB00BF18F801AB06EB070963
:1045100005EB9A1000990278484607F0BFF84FEA79
:104520008A604FEA106A05EB9A100099027809F147
:10453000010007F0B3F84FEA8A604FEA106A05EB12
:104540009A100099027809F1020007F0A7F84FEAE3
:104550008A6005EB90700099027809F1030007F07A
:104560009DF8241F361D042CCEDA002C1CBF98F8B1
:104570000080641E0DD005EB9811F0190A78761CA6
:10458000009907F08BF84FEA88604FEA1068641EC4
:10459000F1D20B9905980BF1010B084405900A988C
:1045A0008345A7DB0FB0BDE8F08FCDE90210DCF842
:1045B000380016461D46D0F800B0DCF83C00D0F8B4
:1045C00000A020480068504503D11E484068584567
:1045D00020D0584606F01EFE0090504606F01AFE07
:1045E000194F019000980124C7F8000004EB8400E3
:1045F000C2B2DDE9001006F0B9F947F82400641CE6
:10460000032CF3DB0198F860104806F0D9FD0D4843
:10461000C0E900AB0E480D4906804580A0F8048033
:10462000C0F808900B480078087101F10C00DDE932
:1046300002210FB0BDE8F04FFEF758B87C01002012
:1046400000050A0F7C05002090ED01208405002064
:1046500090050020D80100202DE9F04FDFF8B8C008
:104660008BB0DCF800C0DDE9145B9CF8104014F05E
:10467000020F2A4C07D0CDE9005BD4F800C0E04718
:104680000BB0BDE8F08FCDE90210DCF8380017461A
:104690001E46D0F800A0DCF83C00D0F800901F487F
:1046A0004068484503D11D488068504520D0504699
:1046B00006F0B0FD0190484606F0ACFDDFF86080E2
:1046C000009001980124C8F80000DDE90001E2B281
:1046D00006F04CF948F82400641C0F2CF5DB009818
:1046E000C8F83C000F4806F06BFD0C48C0E9019A81
:1046F0000D480C49078046808580C0F808B00B48FB
:104700000078087101F10C00DDE902210BB0BDE871
:10471000F04FFDF7EBBF00007C010020A405002056
:10472000A0ED0120B4050020C0050020D801002024
:10473000002808BF70470CF0A5BE38B50546FFF746
:10474000F7FF040009D000F035F92A460021009057
:1047500005F064FA684600F0B3F9204638BD000061
:10476000024A106021F003005060704780EC012085
:10477000002808BF704770B50E4C0546606B10F8F6
:104780003510002918BF022928BF70BD042101EB94
:10479000C506815948680CF017FE6068401C6060CF
:1047A000616B606A8851616B002001F835006562B9
:1047B00070BD0000C0EB0120002808BF7047044A0C
:1047C000D16B0160002918BF4860D06370470000BA
:1047D000C0EB01202DE9F041056806460027D5B160
:1047E0000E4C606B10F83510002918BF022912D248
:1047F000042101EBC50850F8081048680CF0E4FDEE
:104800006068401C6060616B606A41F80800606B22
:1048100000F8357065623760BDE8F081C0EB0120BB
:104820002DE9F05FB1F1000881464FF00005C6BFE9
:10483000154F4FF0000ABDE8F09F00BF09EB850659
:104840003468CCB1786B10F83410002918BF0229F5
:1048500012D2042101EBC40B50F80B1048680CF085
:10486000B3FD7868401C7860796B786A41F80B007A
:10487000786B00F834A07C626D1CC6F800A045453A
:10488000DCDBBDE8F09F0000C0EB01202DE9F0412A
:10489000044611F015FCE01C274E20F00300051D16
:1048A000306CA84288BF0546F46BBCB154F8041CB8
:1048B000A94210D19CB1206800281CBF61684160EA
:1048C000606800281CBF21680160F16BA14204BF31
:1048D0002068F0632DE02468002CE7D10024F16803
:1048E000B06B00EB010858F8040CA8EB000738681F
:1048F00040B1002012F09CFD58F8040CA8EB000712
:104900003868B0B97868A84213DB3844401B041DEE
:10491000384612F05FFDF068401BF0607069284473
:1049200070617868401B1CBF39460CF04DFD44F89F
:10493000045C2046BDE8F081C0EB012010B50024E6
:1049400011F0BEFB0D490F2001EBC002526C8AB181
:1049500001EBC000406C806848B14168A14288BF4B
:104960000C46806800281CBF80680028F5D1A4F19F
:104970000C0010BD401EE7D5F9E70000C0EB012098
:10498000034800680C380028D8BF0020704700009A
:10499000C0EB0120002140B10549042202EBC00018
:1049A000496B08584068A0F10C01084670470000A8
:1049B000C0EB01200949CA69521CCA614A6B02EB6B
:1049C000C00213785B1C1370002808BF7047496B46
:1049D000042202EBC000085808307047C0EB0120E9
:1049E00070B5064682B00C460846FFF7A1FE0500EA
:1049F00018BF002E1BD03046FFF7CCFFA042B8BF37
:104A000004462846FFF7D6FF00903046FFF7D2FF56
:104A10000146019022460098FBF716FC684600F01C
:104A20004FF801A800F04CF83046FFF7A1FE02B0A5
:104A3000284670BD10B5002411F042FB174B184AF0
:104A40000F2000BF02EBC001496CD9B102EBC000DE
:104A5000406C8068C0B14168A14288BF0C46806844
:104A600000281CBF80680028F5D1A4F10C00B0F527
:104A7000800F0CD983FB00104111A1EBE070116A8B
:104A8000484310BD401EDDD5A4F10C00F2E7116AC9
:104A90004843A3FB0010400910BD00001F85EB51E7
:104AA000C0EB01200549102898BF102004D94A689E
:104AB000B0EB520F28BF50088860704780EC01208F
:104AC0000A4902684B6B52F8082C03EBC2021378B8
:104AD000022B04D3CB69002B1CBF5B1ECB6111786A
:104AE000491E11700021016008467047C0EB01208B
:104AF000002808BF70470449042202EBC000496B3C
:104B00000858083070470000C0EB012038B5002479
:104B100030B1FFF74FFF009004886846FFF7D0FFE1
:104B2000204638BD30B583B00D460024B8B1FFF73C
:104B300041FF00900188A9420ED9406860B1FFF79B
:104B400039FF019050F8255001A8FFF7B9FF280060
:104B500002D0FFF72FFF04466846FFF7B1FF03B00E
:104B6000204630BD70B50C46054601F0C5FAC1B20D
:104B700023462846BDE87040002200F001B800003E
:104B80002DE9F0012D24D3F800C0B0F1004F34D04E
:104B900000250028A8BF4FF0000C07DA0CF1010631
:104BA0001E608CF8004040424FF0010CA1EB0C015C
:104BB000C9B2002A1CBF491EC9B200291CBF234F1D
:104BC000234E3DD08C46491EC9B2944508D1D3F836
:104BD00000C03C780CF10108C3F800808CF800405C
:104BE00056F8214090FBF4FC0CF0FF0CBCF10A0FCE
:104BF00026D80CFB140081B909E00CF1010601254F
:104C00001E606FF000408CF80040491ED0E7002D78
:104C10001CBF0CF1010C0CF0FF0CBCF10A0F03D10E
:104C2000491C4FF0010CC9B20CF13004D3F800C09C
:104C300000290CF10108C3F800808CF80040C1D1B4
:104C4000196800200870BDE8F0017047700100206D
:104C5000A827040802480068407C00F003B8000060
:104C60007C01002070B5054600EB85011148002647
:104C700000EB81046671236953B150F82100E268AA
:104C800081684068521AA168091A184602F066FE47
:104C9000284601F035F918B1002103F0F7F906E0D4
:104CA0002079002808BF70BD206902F032FE26710D
:104CB00070BD0000FCEC01202DE9F84F05460E46C2
:104CC000084601F01DF98346DFF8C080304806EB46
:104CD000860A012758F82A90016831B92E490760E1
:104CE0002C480860084604F0CBFE284906EB8600F5
:104CF00001EB8004BBF1000F21D0584603F088F986
:104D000000904FF07F4003F09BF900F0C9F80022BB
:104D10001146286800F0F4FB28684288018858464C
:104D200003F0B2F948F82A506771009803F070F95F
:104D3000304601F0E5F8E0B9607900BB23E048F8BF
:104D40002A506771206918B102F0BCFD0020206173
:104D5000CDB10097E068A9683346421AA068696837
:104D6000411A286803F0D8F82061304601F0C8F8ED
:104D700018B1012103F08AF905E0607918B12771B3
:104D8000206903F09FF84846BDE8F88FFCEC01204D
:104D9000C0010020C1670108C401002070B50646AB
:104DA0000D461446104601F0ABF80300154804EB1D
:104DB00084010AD050F8210041688068711A2A1ACB
:104DC000BDE87040184603F05DB900EB8104A268AD
:104DD000B24214BF01220022E368AB4214BF012398
:104DE00000231A4308BF70BD236943B150F8210066
:104DF000816840686A1A311A184602F0AFFDC4E9AA
:104E0000026570BDFCEC012070B5124801250068F8
:104E1000417C114801EB810200EB8204657150F87E
:104E2000220040B1084601F06BF848B1BDE870407F
:104E3000012103F02BB9BDE870400848FFF73CBFE3
:104E40006079002808BF70BD25712069BDE87040F9
:104E500003F038B87C010020FCEC0120E4270408B2
:104E6000C2B2CBB2D21A48BF524292B202FB02F394
:104E7000C0F30722C1F3072CB2EB0C0248BF524229
:104E800092B2000CA0EB114002FB023200B20028EB
:104E9000BCBF404200B280B200FB0020704700005F
:104EA0002DE9F041002182B0084601F09DF843F65B
:104EB000FF763746042006F0D5FB80461148C068CF
:104EC000C16C006D8D1B841B0E440744ADF800506F
:104ED000ADF80460ADF80240ADF8067068460BF01E
:104EE000D5FB48B13B4632462146284605F068FFCF
:104EF0000BF0F6F90028F5D1404606F0B3FB02B0FE
:104F0000BDE8F0817001002005F072BD2DE9F84385
:104F10001C00DDE9089816460F46054602D10AF046
:104F20000DF804460096D5F800C043464A4621468F
:104F30002846E047061E08BFBDE8F88309F0F2FFE7
:104F40008146698A304609F0C3FA30460BF055F8BD
:104F500048460BF052F87F1E002FC8BF4FF00008E4
:104F60000FDD00BFCDF8008055F81CCF00231A4696
:104F700049462846E047F8B10BF03FF87F1E002F66
:104F8000F0DC1D2148460AF050FEB4F1FF3F10D07E
:104F90000AF014F840B100BFFFF7AAFD8469B442DB
:104FA00018BF5FEA0400F7D1B4421CBF30460AF0D4
:104FB00041FF3046BDE8F883304609F0FBFC002095
:104FC000BDE8F883022BA4BF002070472DE9F04113
:104FD00006461C4615460F461C20FFF757FC0028C6
:104FE00008BFBDE8F081002F18BF07610BD10A4A46
:104FF00052F8241039B10A681AB111461268002A11
:10500000FBD10969016184618582002101604160F1
:10501000C0E90216BDE8F081940100202DE9F041BD
:1050200000241D46074688461646022B27DA1C2018
:10503000FFF72CFC18B3B8F1000F18BFC0F81080B0
:105040000BD1104A52F8251039B10A681AB111462D
:105050001268002AFBD109690161856186820460BA
:105060004460C0E90247040009D000F011F8E0688C
:10507000006820B90448006800EB8500846520467C
:10508000BDE8F081940100207C010020FFF794BB73
:1050900000281CBF8269022AA4BF0120704710B4F7
:1050A000244C54F82210002908BF44F822003AD0BA
:1050B0004B682BB119465B68002BFBD1002935D01A
:1050C000C3681B68D1F80CC0DCF800C09C4503DD48
:1050D00009680029F6D129E041B3D1F80CC0DCF809
:1050E00000C09C4504BFB0F814C0BCF1010F0DD145
:1050F000D1F800C0BCF1000F07D06146DCF80CC04D
:10510000DCF800C09C45F3DA00E079B14B68002B75
:105110001DBF18604A68426044F822004860884217
:1051200008BF0021016010BC0020704710BC0120A6
:1051300070470000940100200B4A816952F8213029
:10514000834204BF036842F82130416800291CBF34
:1051500002680A60016800291CBF42684A60002199
:105160000160416070470000940100200228A4BF44
:1051700000207047064951F82000002808BF7047FA
:10518000C168096800291CBF00680028F8D1704771
:1051900094010020002808BF70472DE9F8431E46FF
:1051A000174688460446FFF705FC0090006805682E
:1051B0006846FFF785FC33463A4641462046A847F5
:1051C000BDE8F88338B504004FF0000008BF38BDD3
:1051D0002046FFF7EFFB0090006845686846FFF740
:1051E0006FFC2046A84738BD38B504004FF00000DA
:1051F00008BF38BD2046FFF7DDFB009000688568DA
:105200006846FFF75DFC2046A84738BD70B50446E8
:1052100003F09EFA10EB040503F09AFA2C1A002C06
:10522000D8BF70BD00F040FD052CC8BF0524204646
:1052300003F080FAF0E70000002808BF70472DE96E
:10524000F04F83B0054600F065FE3B4C8046206879
:10525000B0F9227000F09AFE82462068818CA1EBA2
:105260000A0181842878002818BFA8F1010946D0D6
:1052700047F6FF71284604F047FA83460146284660
:1052800004F008FA2168064691F82C0000F00300AB
:10529000012808BF304605D0022812BF002006EBC7
:1052A000D67040104A8C101A4884ADF80000721E67
:1052B0001044ADF80400888CADF802004844ADF805
:1052C00006006A465946284603F004FC2168BDF8EA
:1052D000020088845946284603F0F6F805442878E9
:1052E0000A2818BF0D2815D0BDF8000021683044E9
:1052F0004884287818B115F8010F0028B8D1206823
:10530000818C51448184818D21F00301818503B01A
:10531000BDE8F08F206890F82C1001F003010129FE
:105320001DBF0229018C4184478429780A29E0D1D4
:10533000818C41448184DCE77C010020024B1B68A6
:1053400059849A84FFF778BF7C0100202DE9F04151
:1053500006460A4814460D460068B0F92C0040F095
:10536000020002F0BFFE0746224629463046FFF7FC
:10537000E5FF3846BDE8F04102F0B4BE7C010020F4
:105380002DE9F04182B006000D46174647F6FF783A
:105390004FF0000404BF02B0BDE8F08165B10846DB
:1053A0000AF010FE040007D002462946684604F0C1
:1053B00016FA68460AF006FE43463A462946304643
:1053C00003F056FC20460AF0FDFD02B0BDE8F08176
:1053D000002808BF70472DE9FF4F0C684F680E4644
:1053E000054638B221B287B0401A401C934602905D
:1053F00000F090FD82461BF00C0F2BD0029801901C
:105400000A98A8464FF000090090DDE900214046C7
:1054100004F0AEFB8044002818BF09F10109F4D163
:105420000BF00C00042818BF082802D00C2805D067
:1054300010E0381409FB1A00401C09E02014C0EBEE
:10544000274109FB1A11491C01EBD17100EB6100E6
:1054500060F31F4430460AF0B5FD5FEA000909D049
:10546000CDE904470246314604A804F0B8F904A87F
:105470000AF0A8FDAAF1010828460A9A029904F048
:10548000B9FB039008EB244060F31F47CDE90047C8
:105490002846039904F0FEF81BF0030108BF30888A
:1054A0000DD001290ED0022911D1B6F90420B6F988
:1054B0000010521A101A00EBD07001EB6000ADF82A
:1054C000000004E0B188081A401CADF800006A46EC
:1054D0002846039903F0FEFA28460A9A029904F036
:1054E00047FB05440AEB244060F31F44287800285A
:1054F000C2D148460AF066FD0BB0BDE8F08F00004F
:105500002DE9F04F374F044689B03868C36C006D01
:105510005E1885182088711E0844ADF81860ADF833
:105520001C006088691E0844ADF81E00ADF81A50D2
:1055300006A80BF0ABF8002819BFDFF8ACB04FF0AD
:10554000010A09B0BDE8F08F0020D4F80C9002F0F9
:105550008DFD8046B9F1000F1BBF99F804000028AB
:1055600028F0020048F0020002F080FD206970B1CE
:10557000D4E902120091CDE9012ACDF80CA0D0F8AF
:1055800000C06388228829463046E04718E0386822
:10559000DBF800302146427CE0689847D0B1A28811
:1055A000E388A168CDF800A0CDE90410CDE902326E
:1055B000CDF804A0638822882946304605F026FAF3
:1055C000404602F053FD0AF08BFE0028BCD109B022
:1055D000BDE8F08FE088012812BF00203868806B9A
:1055E000DDE700007C0100207401002070B5144646
:1055F000124A82B01268D36C1E18106D4518301B09
:10560000ADF800003019ADF80400281BADF8020019
:105610002819ADF8060068460BF038F8002804BFDA
:1056200002B070BD224629463046FDF7B1F80AF0B7
:1056300057FE0028F6D102B070BD00007C010020AA
:1056400010B50A4682B00146684604F00BFA2B48B2
:10565000BDF800100068B0F84C201144ADF80010FF
:10566000BDF80210B0F850201144ADF80210BDF89A
:105670000410B0F84C201144ADF80410BDF8061029
:10568000B0F850000844ADF8060068460AF0FEFF86
:10569000002804BF02B010BDBDF90040BDF90400F0
:1056A000A0420EDBBDF90210204605F01FFBBDF93C
:1056B0000610204605F01AFBBDF90400A41CA04208
:1056C000F0DABDF90240BDF90600A0420FDB00BFD1
:1056D000BDF90000214605F009FBBDF90400214693
:1056E00005F004FBBDF90600A41CA042F0DA0AF0A4
:1056F000F7FD0028D0D102B010BD00007C010020D1
:105700002DE9FF4FDFF8BCC19FB0DCF80040D4F8B2
:105710004CC060441F90246D601820900CEB020078
:105720002190E01822901F98ADF850002198ADF814
:1057300054002098ADF852002298ADF8560014A8F5
:105740000AF0A4FF002804BF23B0BDE8F08F219920
:105750001F98081A1C902C98C0F307201B902C98B7
:10576000C0F307401A902C98000E19902D98C0F3A2
:10577000072018902D98C0F3074017902D98000E21
:105780001690209806901F9F2298DDE92C540190D6
:105790004D48219E049000F0ACFB1390A54207D128
:1057A000284605F047FF32463846019B069973E0CC
:1057B0001C98401C01280CBF4FF00109A0F1010901
:1057C000E8B20C901B980DF1580E0B909EE80E0C51
:1057D00004F0FF0C4FF0010828463C46B7425EDC5F
:1057E0000C9DA2EB0B02ACEB050CCDF840C0DDF834
:1057F0002CC0A1EB0A01A3EB0C030D930F921291A5
:10580000109AE11B4A4392FBF9F30C9A129D1A4439
:1058100002F0FF0C0D9A4A4392FBF9F30B9A1A44DB
:10582000D3B20F9A4CEA03234A4392FBF9F269433D
:1058300091FBF9F15A44D2B2514443EA024242EA9E
:105840000165BC4218DD854208BF08F1010813D08C
:1058500005F0F0FEB8F1010F07DDA4EB0800621EB1
:10586000019B069905F0ACFA04E0049B601E019AC6
:10587000069998474FF00108641C2846B442BFDDE2
:1058800005F0D8FE3046B8F1010F0BDDA0EB0801A2
:10589000481C3246019B069905F092FA06E005F095
:1058A000C9FE3046049B019A06999847139805F063
:1058B000C1FE0AF015FD00287FF463AF23B0BDE8F8
:1058C000F08F00007C0100205DAD00082DE9FF4F46
:1058D000DFF8F8C1A1B0DCF80040D4F84CC0604457
:1058E0002190246D601822900CEB02002390E018A8
:1058F00024902198ADF850002398ADF854002298D8
:10590000ADF852002498ADF8560014A80AF0BEFE77
:10591000002804BF25B0BDE8F08F22992498401AD2
:105920001C902E98C0F307201B902E98C0F30740C0
:105930001A902E98000E19902F98C0F307201890F7
:105940002F98C0F3074017902F98000E16902198BB
:105950000390DDE922800190DDE92E455C48079047
:105960000120249E1D9000F0C4FA1390AC4207D190
:10597000204605F05FFE33464146019A03988CE0CD
:105980001C98401C01280CBF4FF00109A0F101092F
:10599000E0B20E901B980890DDE91613DDE9182A95
:1059A00001272046DDF868B005F0FF0C4446B045FD
:1059B0006CDC0E9DA1EB0A01ACEB050CCDF844C0EC
:1059C000DDF820C0CDF84010A2EB0C020F92A3EB43
:1059D0000B020C92119AA4EB08014A4392FBF9F3D3
:1059E0000E9A109D1A4402F0FF0C0F9A4A4392FB44
:1059F000F9F3089A1A44D3B20C9A4CEA03234A43A7
:105A000092FBF9F2694391FBF9F15A44D2B2514445
:105A100043EA024242EA0165444522DD854208BF6D
:105A20007F1C1ED005F006FE1D98012F0DDD0028FD
:105A30001FBFE11B631E019A039801BFE01B621E9A
:105A4000019B039905F0BCF90AE0019A20B1079B7C
:105A5000611E0398984703E0079B601E03999847CF
:105A60000127641C2846B442B4DD05F0E3FD1D990E
:105A70003046012F14DD0029A0EB070109D0334681
:105A8000491C019A039805F09BF914E005F0D2FD3A
:105A900007E0481C3246019B039905F091F90AE0A2
:105AA00029B1079B3146019A0398984703E0079B69
:105AB000019A03999847139805F0BCFD0AF010FC71
:105AC00000287FF444AF25B0BDE8F08F7C010020B2
:105AD00089AC0008F0B5134C844683B02368D86CB9
