:020000040800F2
:1000000040B101209D010008DB630008994400080D
:10001000D9630008CD0D00084D7D000800000000E8
:1000200000000000000000000000000069750008EA
:10003000B512000800000000556400082176000891
:10004000B7010008B7010008B7010008B7010008B0
:10005000B7010008B7010008B7010008B7010008A0
:10006000B7010008B7010008B7010008B701000890
:10007000B7010008B7010008990F0008B701000890
:10008000CD0F0008B7010008B7010008B70100084C
:10009000B7010008B7010008B7010008B701000860
:1000A000B7010008B7010008B7010008B701000850
:1000B000C9760008B7010008B7010008B7010008B9
:1000C000B7010008B7010008B7010008B701000830
:1000D000B7010008B7010008B7010008B701000820
:1000E000B7010008B7010008B7010008B701000810
:1000F000B7010008B7010008B7010008B701000800
:10010000B7010008C5670008B7010008B70100087B
:10011000B7010008B701000855770008B7010008CB
:10012000B7010008B7010008B70100080110000876
:10013000B7010008B7010008B7010008B7010008BF
:10014000B7010008B7010008B7010008B7010008AF
:10015000B7010008B7010008B7010008B70100089F
:10016000B7010008B7010008B7010008B70100088F
:10017000B7010008B7010008B7010008B70100087F
:10018000B7010008B7010008DFF80CD000F0D2FC7E
:10019000004800476902010840B101200648804735
:1001A00006480047FEE7FEE7FEE7FEE7FEE7FEE75C
:1001B000FEE7FEE7FEE7FEE76D760008890100082E
:1001C00081FB0020704701464FF0000081EAE1709A
:1001D000A0EBE170704700002DE9F04F82B0019074
:1001E0004FF000744FF000784FF000054FF0000919
:1001F00052F804CB52F804EB0868CB6DC0FB0C45F9
:10020000D1F88000CEF1000EC3FB0E45D1F8DC30F2
:10021000C0FB0C89C3FB0E8952F804CB52F804EBE7
:1002200048688B6DC0FB0C45D1F88400CEF1000E00
:10023000C3FB0E45D1F8D830C0FB0C89C3FB0E8937
:1002400052F804CB52F804EB88684B6DC0FB0C45A8
:10025000D1F88800CEF1000EC3FB0E45D1F8D430A2
:10026000C0FB0C89C3FB0E8952F804CB52F804EB97
:10027000C8680B6DC0FB0C45D1F88C00CEF1000EA8
:10028000C3FB0E45D1F8D030C0FB0C89C3FB0E89EF
:1002900052F804CB52F804EB0869CB6CC0FB0C4558
:1002A000D1F89000CEF1000EC3FB0E45D1F8CC3052
:1002B000C0FB0C89C3FB0E8952F804CB52F804EB47
:1002C00048698B6CC0FB0C45D1F89400CEF1000E50
:1002D000C3FB0E45D1F8C830C0FB0C89C3FB0E89A7
:1002E00052F804CB52F804EB88694B6CC0FB0C4508
:1002F000D1F89800CEF1000EC3FB0E45D1F8C43002
:10030000C0FB0C89C3FB0E8952F804CB52F804EBF6
:10031000C8690B6CC0FB0C45D1F89C00CEF1000EF7
:10032000C3FB0E45D1F8C030C0FB0C89C3FB0E895E
:1003300001984FF4FE4E4EF0FF0E4FEA946444EAEB
:1003400085144FEAE47CBCEBE43F18BF8CEA0E0452
:100350004FEA986848EA89184FEAE87CBCEBE83F26
:1003600018BF8CEA0E080480A0F8028002F57072B3
:1003700001F580514FF000744FF000784FF0000508
:100380004FF0000952F804CB0868D1F88030C0FB68
:100390000C45C3FB0C8952F804CB4868D1F8843073
:1003A000C0FB0C45C3FB0C8952F804CB8868D1F81C
:1003B0008830C0FB0C45C3FB0C8952F804CBC868DD
:1003C000D1F88C30C0FB0C45C3FB0C8952F804CB30
:1003D0000869D1F89030C0FB0C45C3FB0C8952F87A
:1003E00004CB4869D1F89430C0FB0C45C3FB0C89A1
:1003F00052F804CB8869D1F89830C0FB0C45C3FB98
:100400000C8952F804CBC869D1F89C30C0FB0C456C
:10041000C3FB0C8901984FF4FE4E4EF0FF0E4FEADD
:10042000946444EA85144FEAE47CBCEBE43F18BFD3
:100430008CEA0E044FEA986848EA89184FEAE87C8B
:10044000BCEBE83F18BF8CEA0E08A0F84040A0F8CB
:100450004280A2F57872A1F570614FF00F0C00F1A7
:100460000400CDF800C001904FF000744FF0007808
:100470004FF000764FF0007A4FF000054FF0000982
:100480004FF000074FF0000B52F804CB52F804EB8A
:100490000868CB6DC0FB0C45C0FB0E67CEF1000EAB
:1004A000C3FB0C67C3FB0E45D1F8DC30D1F88000EC
:1004B000C3FB0E89C3FB0CABCEF1000EC0FB0C8955
:1004C000C0FB0EAB52F804CB52F804EB48688B6DBE
:1004D000C0FB0C45C0FB0E67CEF1000EC3FB0C67E2
:1004E000C3FB0E45D1F8D830D1F88400C3FB0E8988
:1004F000C3FB0CABCEF1000EC0FB0C89C0FB0EABF6
:1005000052F804CB52F804EB88684B6DC0FB0C45E5
:10051000C0FB0E67CEF1000EC3FB0C67C3FB0E459C
:10052000D1F8D430D1F88800C3FB0E89C3FB0CABE3
:10053000CEF1000EC0FB0C89C0FB0EAB52F804CB11
:1005400052F804EBC8680B6DC0FB0C45C0FB0E678E
:10055000CEF1000EC3FB0C67C3FB0E45D1F8D030C3
:10056000D1F88C00C3FB0E89C3FB0CABCEF1000E9F
:10057000C0FB0C89C0FB0EAB52F804CB52F804EB65
:100580000869CB6CC0FB0C45C0FB0E67CEF1000EBA
:10059000C3FB0C67C3FB0E45D1F8CC30D1F89000FB
:1005A000C3FB0E89C3FB0CABCEF1000EC0FB0C8964
:1005B000C0FB0EAB52F804CB52F804EB48698B6CCD
:1005C000C0FB0C45C0FB0E67CEF1000EC3FB0C67F1
:1005D000C3FB0E45D1F8C830D1F89400C3FB0E8997
:1005E000C3FB0CABCEF1000EC0FB0C89C0FB0EAB05
:1005F00052F804CB52F804EB88694B6CC0FB0C45F5
:10060000C0FB0E67CEF1000EC3FB0C67C3FB0E45AB
:10061000D1F8C430D1F89800C3FB0E89C3FB0CABF2
:10062000CEF1000EC0FB0C89C0FB0EAB52F804CB20
:1006300052F804EBC8690B6CC0FB0C45C0FB0E679D
:10064000CEF1000EC3FB0C67C3FB0E45D1F8C030E2
:10065000D1F89C00C3FB0E89C3FB0CABCEF1000E9E
:10066000C0FB0C89C0FB0EAB01F5807101984FF403
:10067000FE4E4EF0FF0E4FEA946444EA85144FEAB2
:10068000E47CBCEBE43F18BF8CEA0E044FEA9868A8
:1006900048EA89184FEAE87CBCEBE83F18BF8CEACF
:1006A0000E084FEA966646EA87164FEAE67CBCEBF0
:1006B000E63F18BF8CEA0E064FEA9A6A4AEA8B1A9E
:1006C0004FEAEA7CBCEBEA3F18BF8CEA0E0ADDF881
:1006D00000C000EBCC0E2EF8026B2EF802AB20F817
:1006E000024B20F8028BBCF1010C7FF4BAAE02B0D1
:1006F000BDE8F08F2DE9F04F82B001904FF000740B
:100700004FF0000552F804CB52F804EB0868CB6DAB
:10071000CEF1000EC0FB0C45C3FB0E4552F804CBD6
:1007200052F804EB48688B6DCEF1000EC0FB0C450F
:10073000C3FB0E4552F804CB52F804EB88684B6DAE
:10074000CEF1000EC0FB0C45C3FB0E4552F804CBA6
:1007500052F804EBC8680B6DCEF1000EC0FB0C45DF
:10076000C3FB0E4552F804CB52F804EB0869CB6C7E
:10077000CEF1000EC0FB0C45C3FB0E4552F804CB76
:1007800052F804EB48698B6CCEF1000EC0FB0C45AF
:10079000C3FB0E4552F804CB52F804EB88694B6C4E
:1007A000CEF1000EC0FB0C45C3FB0E4552F804CB46
:1007B00052F804EBC8690B6CCEF1000EC0FB0C457F
:1007C000C3FB0E4501984FF4FE4E4EF0FF0E4FEA6C
:1007D000946444EA85144FEAE47CBCEBE43F18BF20
:1007E0008CEA0E04048002F5707201F580514FF01E
:1007F00000744FF0000552F804CB0868C0FB0C45AC
:1008000052F804CB4868C0FB0C4552F804CB88680A
:10081000C0FB0C4552F804CBC868C0FB0C4552F82D
:1008200004CB0869C0FB0C4552F804CB4869C0FBF7
:100830000C4552F804CB8869C0FB0C4552F804CB38
:10084000C869C0FB0C4501984FF4FE4E4EF0FF0EF8
:100850004FEA946444EA85144FEAE47CBCEBE43F3D
:1008600018BF8CEA0E040484A2F57872A1F57061B9
:100870004FF00F0C00F10200CDF800C001904FF0D6
:1008800000744FF000764FF000054FF0000752F86B
:1008900004CB52F804EB0868CB6DC0FB0C45C0FBE1
:1008A0000E67CEF1000EC3FB0E45C3FB0C6752F87A
:1008B00004CB52F804EB48688B6DC0FB0C45C0FBC1
:1008C0000E67CEF1000EC3FB0E45C3FB0C6752F85A
:1008D00004CB52F804EB88684B6DC0FB0C45C0FBA1
:1008E0000E67CEF1000EC3FB0E45C3FB0C6752F83A
:1008F00004CB52F804EBC8680B6DC0FB0C45C0FB81
:100900000E67CEF1000EC3FB0E45C3FB0C6752F819
:1009100004CB52F804EB0869CB6CC0FB0C45C0FB60
:100920000E67CEF1000EC3FB0E45C3FB0C6752F8F9
:1009300004CB52F804EB48698B6CC0FB0C45C0FB40
:100940000E67CEF1000EC3FB0E45C3FB0C6752F8D9
:1009500004CB52F804EB88694B6CC0FB0C45C0FB20
:100960000E67CEF1000EC3FB0E45C3FB0C6752F8B9
:1009700004CB52F804EBC8690B6CC0FB0C45C0FB00
:100980000E67CEF1000EC3FB0E45C3FB0C6701F5ED
:10099000807101984FF4FE4E4EF0FF0E4FEA9464C2
:1009A00044EA85144FEAE47CBCEBE43F18BF8CEAD0
:1009B0000E044FEA966646EA87164FEAE67CBCEBE1
:1009C000E63F18BF8CEA0E06DDF800C000EB8C0E87
:1009D0002EF8026B20F8024BBCF1010C7FF44CAFF7
:1009E00002B0BDE8F08F2DE9F05F05460020924689
:1009F0009B4688460646814640241BE028464146E1
:100A00004746224600F085F853465A46C01A91419F
:100A100010D311461846224600F06CF82D1A67EBE9
:100A200001084F4622460120002100F063F817EB31
:100A300000094E41201EA4F10104DFDC4846314686
:100A40002A464346BDE8F09F10B5441A0346944237
:100A500009D28418114403E011F8013D04F8013D66
:100A6000521EF9D210BD40EA0104A40703D009E0E8
:100A700010C9121F10C3042AFAD203E011F8014B67
:100A800003F8014B521EF9D210BDD2B201E000F8BA
:100A9000012B491EFBD270470022F6E710B5134622
:100AA0000A4604461946FFF7F0FF204610BD30B550
:100AB00004460020034600E05B1C934203D2E05C46
:100AC000CD5C401BF8D030BD30B50B460146002050
:100AD0002022012409E021FA02F59D4205D303FA00
:100AE00002F5491B04FA02F52844151EA2F1010281
:100AF000F1DC30BD202A04DB203A00FA02F10020AC
:100B000070479140C2F1200320FA03F3194390404B
:100B10007047202A04DB203A21FA02F000217047B6
:100B200021FA02F3D040C2F1200291400843194655
:100B300070470000064C074D06E0E06840F00103F6
:100B400094E8070098471034AC42F6D3FFF720FB37
:100B5000601D0408801D040870B58C1810F8015B36
:100B600015F0070301D110F8013B2A1106D110F846
:100B7000012B03E010F8016B01F8016B5B1EF9D14A
:100B80002B0705D40023521E0DD401F8013BFAE7D0
:100B900010F8013BCB1A921C03E013F8015B01F83B
:100BA000015B521EF9D5A142D8D3002070BD0000D0
:100BB0002DE9F05F0D46044601E1834ED4F844B0C0
:100BC000D4F84880D6F800A059465046D6F804908C
:100BD000FFF7F6FA074641464846FFF7F1FA381A9A
:100BE0004000606441465046FFF7EAFA074659461E
:100BF0004846FFF7E5FA38444000A064D4F840B016
:100C0000D6F80890D4F84C8059464846D6F80CA03F
:100C1000FFF7D6FA074641465046FFF7D1FA381A91
:100C20004000206441464846FFF7CAFA0746594645
:100C30005046FFF7C5FA38444000E064D4F83CB0B1
:100C4000D6F810A0D4F8508059465046D6F81490E3
:100C5000FFF7B6FA074641464846FFF7B1FA381A99
:100C60004000E06341465046FFF7AAFA074659465E
:100C70004846FFF7A5FA384440002065D4F838B05C
:100C8000D6F81890D4F8548059464846D6F81CA097
:100C9000FFF796FA074641465046FFF791FA381A91
:100CA0004000A06341464846FFF78AFA0746594686
:100CB0005046FFF785FA384440006065D4F834B0F8
:100CC000D6F820A0D4F8589059465046D6F824803B
:100CD000FFF776FA074649464046FFF771FA381A99
:100CE0004000606349465046FFF76AFA0746594696
:100CF0004046FFF765FA38444000A065D4F830B0AC
:100D0000D6F828A0D4F85C8059465046D6F82C90E6
:100D1000FFF756FA074641464846FFF751FA381A98
:100D20004000206341465046FFF74AFA07465946BD
:100D30004846FFF745FA38444000E065D4F82CB047
:100D4000D6F830A0D4F8609059465046D6F8348092
:100D5000FFF736FA074649464046FFF731FA381A98
:100D60004000E06249465046FFF72AFA07465946D6
:100D70004046FFF725FA384440002066D4F8289012
:100D8000D6F83880D4F864A0F66B49464046FFF7A1
:100D900017FA074651463046FFF712FA381A400054
:100DA000A06251464046FFF70BFA074649463046D7
:100DB000FFF706FA38444000606648346D1E002D87
:100DC0003FF7FBAEBDE8F09FA40A0408FEE708B1B8
:100DD000002103E0202070474000491C0028FBDA76
:100DE0000846704708B1002103E02020704740000A
:100DF000491C0028FBDA084670470022134601E030
:100E00008354521C8A42FBDB7047000070B537499F
:100E100005460024086810F0450FFBD0410702D5B5
:100E20000324042003E0C00704D00124204605F079
:100E300063FC59E005F09CFCA8422BD140F2FF5026
:100E400005F05AFC002005F0B5FC294908424BD0BA
:100E5000002801DA1C2070BD410001D5092070BDB9
:100E6000810001D50A2070BDC10001D50B2070BDE5
:100E7000010101D50C2070BD410101D50D2070BDCF
:100E8000C10101D50E2070BD010201D50F2070BD3A
:100E9000410201D5102070BD810201D5112070BD25
:100EA000C10201D5122070BD010301D5132070BD10
:100EB000410301D5142070BD810301D5152070BDFB
:100EC000C10301D5162070BD010401D5172070BDE6
:100ED000410401D5182070BD810401D5192070BDD1
:100EE000000701D51A2070BD204670BD342C01408A
:100EF00008E0FFFD10B50B4A0024116811F0450F02
:100F0000FBD0480702D50324042003E0C80705D01E
:100F10000124204605F0F0FB204610BD40F2FF50B2
:100F2000F8E70000342C014070B50C46194906461C
:100F30000025086810F0450FFBD0410702D50324B7
:100F4000042003E0C00705D00124204605F0D4FBAF
:100F5000204670BD05F00CFCB04212D140F2FF50AB
:100F600005F0CAFB002005F025FC10F4604F03D00B
:100F7000810404D5132070BD000C208007E04104DB
:100F800001D5102070BD000401D50F2070BD28468A
:100F900070BD0000342C014070B5094C094D21464C
:100FA000284600F01DF9012808D12146284600F006
:100FB0003FF805488068BDE87040004770BD0000FC
:100FC00000800018586002407C00002070B5094C79
:100FD000094D2146284600F003F9012808D1214691
:100FE000284600F025F805484068BDE870400047F5
:100FF00070BD000000880020886002407C00002056
:1010000006F06AB8074A904201D2074801E0054855
:101010001038064A8B0001EA020101D5C160704711
:101020008160704710640240006002407D0F7D0FB8
:10103000074A904201D2074801E005481038064AA5
:101040008B0001EA020101D5C160704781607047E1
:1010500010640240006002407D0F7D0F002901688E
:1010600002D041F0010101E021F00101016070476F
:101070002DE9F043016821F00101016000210160C8
:1010800041608160C1600161212141613C493C4A6C
:101090003D251039904202D18D60BDE8F083384A79
:1010A0004FF474661832904201D18E60F5E7344AED
:1010B0004FF474173032904201D18F60EDE7304A1F
:1010C0004FF0746C4832904202D1C1F808C0E4E796
:1010D0002B4B2C4A6033984201D1CA60DDE7284C83
:1010E000294B7834A04201D1CB60D6E7DFF890805D
:1010F000264C08F19008404501D1CC60CDE7DFF8DF
:1011000080804FF03D5908F1A808404502D1C1F850
:101110000C90C2E71E49DFF878800839404501D1BC
:101120000D60BAE71A4D1835A84201D10E60B4E738
:10113000174D3035A84201D10F60AEE7144D483548
:10114000A84202D1C1F800C0A7E7114D104960358F
:10115000091FA84201D10A609FE70D4A78329042E8
:1011600001D10B6099E70A4A9032904201D10C609C
:1011700093E7074AA83290428FD1C1F800908CE7DC
:10118000106002403D000020400F002000003D2084
:10119000106402400029016802D041F4802101E07E
:1011A00021F4802101607047002A026802D042F4D5
:1011B000002201E022F40022026001617047002950
:1011C000016802D041F0200101E021F0200101601E
:1011D0007047014600200968C90700D00120704708
:1011E00030B5104A0024904201D20F4A01E00D4A66
:1011F000103A0E4B194205D01E2303EAD12503688D
:101200002B4002E0406900F08003880001D550685F
:1012100000E01068064A1040084201D003B10124E2
:10122000204630BD10640240006002403C0F3C0F7D
:101230007D0F7D0F0B0607D5436912B143F0800384
:1012400001E023F080034361802908D0002A02686E
:1012500001F01E0101D00A4300E08A43026070479A
:1012600030B50368124ACC6813400A682243D1E9BA
:1012700005452C432243CC6922430C6A22434C6A25
:1012800022438C6A22434C6B22438C6B22431A43C9
:101290000260426922F00703D1E90B2422431A437A
:1012A00042610A6942604A6882608968C16030BDF3
:1012B0003F801CF07047000070B5012186B00846E1
:1012C00005F0CAF80121102005F0F6F800248DF889
:1012D000064001208DF80700022540021A4E8DF8C5
:1012E000055000908DF804506946304600F048FDE6
:1012F000680200908DF804506946304600F040FDC9
:1013000007220A21304600F077FD072209213046E6
:1013100000F072FD4FF4E130ADF80C400290ADF8F2
:101320000E40ADF81040ADF814400C20074CADF85D
:10133000120002A9204606F0DFFA0121204606F03D
:10134000C9FA06B070BD0000000002400010014064
:101350002DE9FC4FB1F10009DDE90B4532DD002B31
:1013600024DBB6490193B64E51F8221006EB410E2C
:10137000B44951F8326001EBC201002291F804A097
:10138000694211F0070104D014F8012BC1F12005C6
:10139000AA405B1ABAF1000F09D0BAF1010F14D0BC
:1013A000BAF1030F70D0BAF1020F6DD042E1002103
:1013B0000A4605E040F8212000EB8103891C5A60B1
:1013C0004945F7DB0020BDE8FC8F9EF800500EF188
:1013D000020C05F00F0A0027102B0EDB14F8015B3E
:1013E000C1F11806B540154314F8012BC1F11006E0
:1013F000B2402A431031103B3DE0CD18002DD5DD21
:10140000002B05DD14F8016BC1F11807BE40324313
:10141000082B05DD14F8013BC1F110018B401A4384
:1014200029466E1E4FF00045354100232A400B2708
:101430000B3120E0CAF1200522FA05F53CF81560D1
:10144000350B491BAA40C6F303152DB102F0004825
:10145000520048EA0505491EC6F303262EB102F0E4
:101460000048520048EA0606491EB94273DBE0E82C
:101470000256A9F10209B9F1000F02DD0B29ABDB1D
:10148000D8E7C81BD2E0FFE7002775460097102B6E
:1014900010DB14F8017BC1F1180C07FA0CF71743A5
:1014A00014F8012BC1F1100C02FA0CF23A4310317E
:1014B000103BB2E0CF18002F4DDD002B0FDD14F8EC
:1014C00001CBC1F118080CFA08FC4CEA0202082B07
:1014D00005DD14F8013BC1F110018B401A43394678
:1014E000A7F1010C4FF0004747FA0CF73A400B27E1
:1014F00000230B31009790E02F7807F00F08C8F118
:10150000200722FA07F705EB4707B7F802C05FEAA2
:101510001C3708D0C91BBA40CCF30317CCF3032502
:101520000F2F07D037E0A1EB080102FA08F205EB14
:101530004C0572E0BAF1030F2ED115B14FF0010C3A
:1015400001E04FF0000CB4440CF1010B01EB030877
:10155000D8456FDB0AE06DE014F801CBC1F1180843
:101560000CFA08FC08314CEA0202083B5945F3DB4F
:10157000002B09DA1944A1F101084FF0004C4CFA94
:1015800008FC00230CEA0202C6F1200C22FA0CFC33
:10159000891B6744B2402FB102F0004C52004CEA64
:1015A0000707491E0F2D28D1BAF1030F26D106F1E6
:1015B000010B01EB0308D8453CDB09E014F801CB33
:1015C000C1F118080CFA08FC08314CEA0202083B89
:1015D0005945F3DB002B09DA1944A1F101084FF05A
:1015E000004C4CFA08FC00230CEA0202C6F1200C65
:1015F00022FA0CFC891B6544B2402DB102F0004C6C
:1016000052004CEA0505491EDDF800C0614511DBBA
:10161000E0E80275A9F102097546B9F1000F03DD92
:101620000B29FFF634AF67E70098081A01991844B0
:10163000081AC8E64FF0FF30C5E600006804040849
:1016400044E30308E80404082DE9F84F8146DDE986
:101650000A54002B02DC0020BDE8F88F4548464EB6
:1016600050F8220030440090444850F822E0002214
:10167000604210F0070404D015F8012BC4F12000DB
:1016800082401B1B00208346A1F1030A6EE0102B51
:101690000EDB15F8011BC4F11806B140114315F813
:1016A000012BC4F11006B2400A43103B103459E03C
:1016B000E1180029D0DD002B05DD15F8016BC4F120
:1016C0001807BE403243082B05DD15F8013BC4F175
:1016D0001004A3401A430C464E1E4FF00041314106
:1016E00000230A404FF00A0B0A343BE0CEF1200100
:1016F000009E22FA01F1715C0E09A41BB240C1F3F5
:10170000C00CBCF1000F05D002F00046520046EAC2
:101710000C0C641EC1F3800727B102F0004637436A
:101720005200641EC1F340062EB102F00048520080
:1017300048EA0606641E11F0010105D002F00048D7
:10174000520048EA0101641E5C4585DBC9F800C00F
:1017500009F1040C001D4CF8047B4CF8046B4CF8A8
:10176000041BE146504501DA0A2CBFDA50458EDBF6
:1017700072E7000038060408E8050408400604087B
:1017800001B503480099016001680029FCD108BD3A
:10179000780000202DE9FF4F87B08246894600205F
:1017A0000490504903F0030001EB8018103951F800
:1017B000200005901F20B0EBA30F01DD9E1000E07C
:1017C0001F26F01C1F2800DA00E01F20002800DC84
:1017D000002000210091D8F8041001410191D8F8AF
:1017E000081001410291D8F80C10014103915AF8F8
:1017F00004BB2BF00040042802DA5DF820005FE013
:10180000102807DA58F82000002E01DA714254E05F
:10181000304155E0402809DA334901EB8000059951
:1018200050F8400CFEF7CCFCF11E3BE044040025D0
:10183000B4F1006F01DA24010425B4F1005F01DA8C
:10184000A400AD1CB4F1804F01DA64006D1C274880
:10185000844202DA244FC03701E0234FD4372146B7
:101860003868FEF7ADFC796808442146FEF7A8FC0D
:10187000B96808442146FEF7A3FCF96808442146EC
:10188000FEF79EFC39690844194951F82510FEF706
:1018900097FCC0000599FEF793FC1549203951F8D3
:1018A0002510711A00290ADA49426FF0004323FA21
:1018B00001F2824201DA184602E0884000E0084165
:1018C000049901430491BBF1000F00DA404249F84A
:1018D000040B0998401E099089D104980BB0BDE80B
:1018E000F08F00001CE103081CE203089A79825A79
:1018F00024E303088000A0F1C0400029016802D061
:1019000041F0010101E0024A11400160704700000E
:10191000FEFF0F0070B501688900A1F1C0410B689E
:10192000334A1340D0E901242243D0E903452C4334
:1019300022434469224384692243C4692243046ADE
:101940002243446A2243846A2243C46A2243046BCA
:1019500022431A430A608168082907D10168890077
:10196000A1F1C0410A6842F040020A6001688A00A1
:10197000A2F1C042516801F04043416BD1E90045FA
:1019800044EA05148D688E892D0245EA06452C43EC
:101990000D8A44EA05540D7D896944EA05640C43C7
:1019A0001C435460C16AB1F5804F08D000686FF0E5
:1019B00070418000A0F1C040C0F8041170BD016802
:1019C0008900A1F1C041D1F80421806B094B1A4074
:1019D000D0E9003443EA041384688589240244EA88
:1019E00005448069234303431343C1F8043170BDA8
:1019F0008000F7FF0000F0CF2DE9FC5F0024494F85
:101A000000944FF4806801944025C7F81080C7E91E
:101A100002540E464FF0080B1021C7E900B1A14651
:101A2000384604F0F9FE1020FFF7F0F900284ED1F7
:101A30003D48AA464D460089000438603720C7E972
:101A4000010AC7E90398384604F0E6FE3720FFF79D
:101A5000DDF900283BD1411E07F11400C0E9001B4D
:101A6000302181600221C0E903150121416104F0A8
:101A70005BFE3320C7F808A0C7E90050C7E9035848
:101A8000384604F0C9FE3320FFF7C0F905001ED127
:101A9000DFF898804FF4001A6F4640F22A69D8F8B0
:101AA000000010EA090F0AD1504604F067FE002832
:101AB000F5D004F0ABFE47F82400641CEFE70820E3
:101AC00004F05CFE28B1082004F016FE0420BDE8F6
:101AD000FC9F022004F052FE20B1022004F00CFE14
:101AE0000220F4E7202004F049FE20B1202004F079
:101AF00003FE0620EBE74FF40074204604F03EFEA0
:101B000020B1204604F0F8FD0720E0E740F2FF5046
:101B100004F0F2FD009800BA7060019800BA3060DD
:101B20002846D4E7A004002060000020342C0140A7
:101B30002DE9F0471E000D4604463BD0D107C6F103
:101B40001F074FF001004FF0000900FA07F0A0F165
:101B50000108CA4672D02068C11740FA07F28A42CB
:101B600001D088EA0100B0402060FEF72CFB40EA7B
:101B7000090954F8800F4042C11740FA07F28A421F
:101B800001D088EA0100B0402060FEF71CFB40EA6B
:101B900009092868C11740FA07F280348A4201D047
:101BA00088EA0100B04001C50AF1020ABAF1120F39
:101BB000D1DB70E0D0073DD04FF42070D4F880C165
:101BC00007594FF46070D4F8808006594FF4906044
:101BD000CCF1000C05594FF4B060C8F1000803596E
:101BE0004FF4D0607F4202594FF4F06076420159C1
:101BF0004FF408606D4250F804904FF42070C4F820
:101C000080C1C4F8808007514FF460705B42065178
:101C10004FF49060524205514FF4B0604942035175
:101C20004FF4D06002514FF4F0600151C9F100004F
:101C3000C4F880080020BDE8F087FFE72068C117DE
:101C400040FA07F28A4201D088EA0100B0402060E1
:101C5000FEF7B9FA40EA090954F8800FC11740FAB3
:101C600007F28A4201D088EA0100B0402060FEF706
:101C7000AAFA40EA09092868C11740FA07F2803435
:101C80008A4201D088EA0100B04001C50AF1020A87
:101C9000BAF1120FD2DB4846CDE700002DE9F04340
:101CA0000446C56887B090468946002001F098FB3D
:101CB000064625B1287910B146F0020001E026F071
:101CC000020001F08DFB2069012558B1D4E9021210
:101CD0008DE82600039563882288046841464846BB
:101CE000A0471EE0124F134B214638681B68427C08
:101CF000E068984730B9E088012801D0002001E071
:101D00003868806BA288E388A1680095CDE904104B
:101D1000CDE902320195638822884146484603F0A6
:101D200081FB07B03046BDE8F04301F059BB00002D
:101D3000C4010020B40100200E4810B5006803F073
:101D40001DFF0D48006803F051FF012001F07EFBEC
:101D5000002001F083FB002001F08AFB002003F04B
:101D60005DFF0648006801F03DFBBDE81040002023
:101D700001F048BBC0010020BC010020B8010020D8
:101D8000F0B5002201274FF0030C0B6807FA02F5AB
:101D90002B40AB422CD1066853000CFA03F4A64347
:101DA00006600E79D0F800E09E4046EA0E06066016
:101DB0000E79012E01D0022E12D18668A6438660CC
:101DC0004E79D0F808E09E4046EA0E0686604668E6
:101DD000AE43466045688E799640B6B2354345605D
:101DE000C568A543C560CC799C40C3681C43C460EA
:101DF000521C102AC9D3F0BD4B07DB0E9A40C9080C
:101E000010B500EB8100016A0F249C40A1430162E0
:101E1000016A1143016210BD0246002012690A42A4
:101E200000D0012070474183704701837047000054
:101E30002DE9F04FDFF828B191B04FF0FF35DBF816
:101E40000030B3F922100691DE69B3F92490F469E9
:101E5000A189814206D8E289824203D3471AD4F885
:101E6000008012E0D4E9018100296FD00A88824203
:101E70006CD84D88854269D3801A82B2486800EBDD
:101E80008200B0F90070B0F90250781C5ED0307E4C
:101E9000A17C10FB01FA217CCDE90701B3F92A608E
:101EA000304603F0BBFEC0B20E90DBF8000007FB2B
:101EB0000A81A37C826B0127CDE90412CDE902736C
:101EC000C069089AC17E807ECDE90001DDE9060384
:101ED000494603F0A7FA681C18D046F0020003F048
:101EE0009DFEDBF80000A37C05FB0A81826BCDE937
:101EF0000273CDE90412C069089AC17E807ECDE9E3
:101F00000001DDE90603494603F08CFADBF8000026
:101F10005D46C069417E007E814214D9022E12D0F6
:101F200086F0040003F07AFE2868C069027EC37E52
:101F300012FB0391437E857E089A06984B4412FB60
:101F4000050203F0D1FB0E9803F068FEDBF80000F9
:101F5000627C418C1144418411B0BDE8F08F0000D7
:101F6000C401002004480068C069C06909B1027C4E
:101F70000A60407C70470000C401002002200880F5
:101F80007047C06982898A4202D8C2898A4210D2C7
:101F9000806880B102888A420DD843888B420AD378
:101FA000406800EB8100A0EB8200B0F9000000283F
:101FB00001DB0120704700207047002801D007F0A6
:101FC0002DBC704738B50546FFF7F7FF04000AD06F
:101FD00000F0B0F8054B00902A461B680021984796
:101FE000684600F0D7F8204638BD000044030020C2
:101FF000024A106021F003005060704738970120BA
:1020000010B500280ED004460748042101EBC40196
:10201000406B4158486807F0B9FB2046BDE81040C6
:102020000AF09EBE10BD000078960120002805D061
:10203000034AD16B016001B14860D0637047000072
:10204000789601202DE9F04104460AF027FC284843
:10205000E41C24F00305016C2D1DA94200D90D4696
:10206000C46B13E054F8042CAA420ED184B1216849
:1020700009B162684A60616809B122680A60C26B8E
:10208000A24231D12168C1632EE02468002CE9D13D
:102090008046816BC0680F1857F8040C3E1A3068F0
:1020A00038B100200AF0C6FE57F8040C3E1A30681A
:1020B000D0B97068A84217DB3044441B3046241D59
:1020C0000AF070FED8F80C10491BC8F80C10D8F8AC
:1020D00014102944C8F814107068401B02D031460F
:1020E00007F054FB44F8045C2046BDE8F081000092
:1020F0007896012010B500240AF0D0FB0C490F207F
:1021000001EBC002526C1AB101EBC000406C08E058
:10211000401EF5D508E04168A14200D90C46806810
:1021200010B180680028F6D1A4F10C0010BD0000A9
:10213000789601200549CA69521CCA61496B01EBB6
:10214000C0010A78521C0A7000F03CB87896012051
:1021500010B5FFF7CFFF64220649B0F5800F04D910
:1021600090FBF2F0096A484310BD096A4143B1FB94
:10217000F2F010BD789601200549102805D94A686B
:10218000B0EB520F02D3500800E010208860704777
:10219000389701200A4902684B6B52F8082C03EB70
:1021A000C2021378022B03D3CB690BB15B1ECB6148
:1021B0001178491E11700021016008467047000027
:1021C000789601200349042202EBC000496B0858AD
:1021D0000830704778960120F0B52D271C68B0F1C3
:1021E000004F08D0002600280DDA651C1D602770FE
:1021F0004042012408E0651C01261D606FF000408C
:102200002770491E01E00024091BC9B22AB3491EE8
:10221000C9B222E00C46491EC9B2944205D1124C03
:1022200027781C68651C1D602770104C54F82150DD
:1022300090FBF5F4E4B20A2C11D804FB150011B997
:102240000EB1641CE4B20A2C02D10124491CC9B2AB
:102250001D686F1C30341F602C700029DAD119689A
:1022600000200870F0BD0000B0010020480F0408F5
:1022700002490968497C00F003B80000C40100204D
:102280002DE9FC5F04468946084600F02FFB2B4EE3
:1022900009EB8907824656F82700019028484FF03D
:1022A0000108016841B92649C0F80080091D254888
:1022B0000860084602F0CAF8204A09EB8901BAF121
:1022C000000002EB81051BD001F068F883464FF057
:1022D0007F4001F07BF800F0ADF800221146206845
:1022E00000F04CFA206842880188504601F086F8D8
:1022F00046F8274085F80480584601F04FF817E06B
:1023000046F8274085F804802869464618B100F051
:102310009BFF0020286174B10096E868A1684B46D5
:10232000421AA8686168411A206800F0CFFF28614E
:1023300048460BF0D9F90198BDE8FC9FB4970120FD
:10234000200200208DCA000870B506460D461446CE
:10235000104600F0CBFA0300164804EB84010AD0C3
:1023600050F8210041688068711A2A1ABDE870404F
:10237000184601F041B800EB8104A268B24201D0D6
:10238000012200E00022E368AB4201D0012300E01B
:1023900000231A430CD0236943B150F8210081680F
:1023A00040686A1A311A184600F06CFFC4E90265E9
:1023B00070BD0000B497012002480068407C00F026
:1023C00003B80000C401002030B4094900EB8002CA
:1023D00001EB82040123237151F8221011B130BCAA
:1023E0000BF082B9014630BC0248FFF749BF00003C
:1023F000B4970120E00F040810B5C2B2CBB2D21AD4
:1024000000D5524293B25B43C0F30722C1F30724C5
:10241000121B00D55242000C92B2A0EB114002FBFD
:10242000023200B2002801DA404200B280B200FB62
:10243000002010BD10B50021084600F0A7FA43F6B1
:10244000FF725042BDE8104013460146AFF30080D2
:102450002DE9FC4107461C4615460E46042003F0B4
:10246000DDFB804611484069C16C006D0F44064495
:102470000D440444ADF80070ADF80450ADF80260AE
:10248000ADF80640684606F087FB07E023462A467B
:102490003146384603F028F906F040FB0028F5D114
:1024A000404603F0BBFBBDE8FC810000B00100200A
:1024B0002DE9F0411C4616460D460746022B02DB6D
:1024C0000020BDE8F0811C20FFF7BCFD0028F8D0FB
:1024D0000DB105610AE0094A52F8241009B905E076
:1024E00011460A68002AFBD109690161846186826C
:1024F000002101604160C0E90217E2E7F00100201D
:1025000070B51D46FFF7D4FF040009D000F00EF8A7
:10251000E068006820B90348006800EB8500846526
:10252000204670BDC4010020FFF780BD70B5C0B368
:102530008269022A36DA2149531C0C789C4200DA5F
:102540000B701F4C54F8221019B944F8220032E0E5
:1025500019464B68002BFBD106E0CB68C5681B68A9
:102560002D68AB4203DD09680029F6D11AE0C1B13C
:10257000CB68C6681B683668B3420CD1838A012BCE
:1025800005D008E01946DB681B68AB4203DB0B682B
:10259000002BF7D129B14B6833B118604A6842600B
:1025A00004E0FFE7012070BD44F822004860884243
:1025B00000D100210160002070BD00001602002043
:1025C000F001002010B50C4B8269002153F8224025
:1025D000844205D1046843F82240026802B1516088
:1025E00042680AB10368136002680AB14368536025
:1025F0000160416010BD0000F0010020022801DBF5
:1026000000207047054951F8200004E0C1680968BE
:102610000029F6D000680028F8D17047F0010020AA
:1026200070B5044601F0E0F90619084D08E000BF56
:1026300000F0CAF82868844200DC204601F0C8F99E
:1026400001F0D2F9341A002CF2DC70BD44020020F3
:102650000022AFF300801FB503ABCDF80CD0FFF71D
:10266000BBFD684600F002F81FBD00002DE9FC47E5
:1026700006005BD000F04CF93B4C81462068B0F975
:10268000228000F05BF9216807468A8CD01B888481
:1026900041E000BF47F6FF71304601F08BFD8246F6
:1026A0000146304601F05CFD2168054691F82C009A
:1026B00000F0030001283FD0022839D000204A8CC6
:1026C000101A4884ADF800006A1E1044ADF80400EA
:1026D000888CADF80200A9F101010844ADF80600AC
:1026E0006A465146304601F009FB2168BDF80200F8
:1026F00088845146304601F04FF8064430780A2865
:102700001CD00D281AD0BDF8000021682844488448
:10271000307818B1761C30780028BBD12068818CC5
:1027200039448184818D21F003018185BDE8FC87D6
:1027300005EBD5704010C2E72846C0E7206890F846
:102740002C1001F0030101290BD0022909D0018CC2
:10275000418431780A29DBD1828C02EB0901818422
:10276000D6E7A0F82280F4E7C4010020024B1B68E2
:1027700059849A84FFF77ABFC40100207CB50646CD
:1027800010480068C36C006D5D1884183188681E9D
:102790000844ADF80400ADF800507188601E08448C
:1027A000ADF80600ADF80240684606F0F5F906E01F
:1027B000224629463046FFF771FA06F0AFF90028A5
:1027C000F6D17CBDC401002010B5002400E0012436
:1027D00000F004F80028FAD1204610BD0B4810B5CF
:1027E0000068002410B1804700B1012405F0CCFC42
:1027F00000B101240648006810B1804700B10124EF
:102800000448006800B18047204610BDD001002078
:10281000FC010020F801002008B50B46002805D077
:10282000009281888268C08800F001F808BD10B568
:102830000828029C30D008DC04FB01F401280AD0EF
:10284000022813D0042804D11CE0102828D0202806
:102850002CD0002010BD04EBD30003F00701105C66
:10286000C1F10701C84000F0010010BD04EB930066
:102870000621105C01EA4301C1F10601C84000F0E5
:10288000030010BD04EB5300D907105C02D000F028
:102890000F0010BD000910BD04FB0130105C10BD1D
:1028A000481004FB003032F8100010BD881004FB03
:1028B000003052F8200010BD034951F82000C168D3
:1028C0008A6A082110470000F001002002490968C7
:1028D000C9694A6800211047C4010020024A1268F1
:1028E000D269526810470000C4010020002102286C
:1028F00002D2024951F820100846704760030020B8
:1029000002480068B0F9240070470000C4010020AC
:1029100002480068C069407E70470000C401002082
:1029200070B514460D4602F03BFF002802D000218E
:102930002960216070BD01F059BC00000A490020E7
:10294000096891F82C2002F00C02042A07D0082A0A
:1029500001D00C2A02D1C869007E40087047C869BE
:10296000007E401E70470000C4010020024951F85B
:102970002000006900687047F0010020024951F80A
:102980002000006940687047F0010020024A126888
:102990005084918400207047C401002002490968D6
:1029A0008884002070470000C40100202DE9F04118
:1029B0001C48016821F0010101601B480126866066
:1029C00081680029FCD119490160006818498842D2
:1029D00000D0FEE701F0C4F8164C2E20207001F064
:1029E00009F8154809F00EFF0CF036FD074602F015
:1029F000FFFE10B102F010FF38B902F016FF0546D5
:102A000002F0FFFE294603F003F90021084600F01A
:102A100001FD05F0DDFDA06900B18047A6703846D4
:102A2000BDE8F081002000E000300240C2A507F4BC
:102A3000CDB5E8B5B0010020449701201CB520B900
:102A40000C480068006E002812D0FFF773FB00905E
:102A500044696846FFF79EFB002C09D02046FFF72B
:102A600069FB019081688968884701A8FFF792FB9C
:102A70001CBD0000C401002001490A4600F002B854
:102A800001F0FFFF2DE9F04387B015460C465FEAE1
:102A9000000842D0002000F0A3FC814620480068D6
:102AA000066E4046FFF746FB00900068806900F024
:102AB00075FC074640F6FF70C44204D10098B0F997
:102AC0000440B0F906500098611E0289ADF8044038
:102AD0001144ADF808104189681E0844ADF806504D
:102AE000ADF80A0005F0B2F96846FFF753FB01A8FC
:102AF00006F052F806E02A462146404600F096FAD3
:102B000006F00CF80028F6D1384600F047FC3046B5
:102B100000F066F9484600F063FC07B0BDE8F083BA
:102B2000C40100202DE9FE4F83461A488A461A49FF
:102B300000680C9E9846407C9146002751F8204042
:102B4000E1680968042903D02468002CF8D100E06A
:102B50001CB9FFF753FD041E19D0E0680121C26AB9
:102B600020469047050011D02469A0688047401C8A
:102B700002D10A4C46F001060096CDE901544346C5
:102B80004A465146584600F0AFF907463846BDE878
:102B9000FE8F0000C4010020F00100204C1B04083F
:102BA00038B5040018D00D480068006EA04201D16D
:102BB00000F0EAFB2046FFF7BDFA0090406908B13B
:102BC00000F0E1FE00980068FFF7AEFC6846FFF7F2
:102BD000E1FA2046FFF714FA38BD0000C4010020D6
:102BE0002DE9FF4FDFF83891074683B0D9F8000090
:102BF0009A468B46447C4B4800570128204606DD08
:102C000002F0FCFD0546204602F00CFE05E002F055
:102C1000DDFD0546204602F0DFFD04461FB302A994
:102C200001A8FFF788FEB7F90000002800DA0020AD
:102C3000B7F902608046002E00DA0026019841199B
:102C4000B7F90400491E09F0BFFE054602980119B4
:102C5000B7F90600491E09F0B7FEA5EB0802841B70
:102C6000521C641C03E04FF0000846462A46BAF1A5
:102C7000000F01D1C4F1000A002A4FDD002C4DDD08
:102C800010980090534631464046FFF74BFF5FEAED
:102C9000000A10D000F06AF80746A04206D0D9F822
:102CA0000000806C10B1322106F0EEFA504600F0C0
:102CB00097F8002521E0594605988847012007B07C
:102CC000BDE8F08F611BB94202DA504600F072F89D
:102CD0003DB172194146504600F0A4F85046FFF746
:102CE000ADFE5946059888470F48016809B1002094
:102CF00088475046FFF7C0FE3D44A542E2DB504600
:102D0000FFF74EFF002000F06BF8A74206D0D9F87D
:102D10000000806C10B1332106F0B6FA0020CEE737
:102D2000C401002014020020C003002038B5002494
:102D300060B1FFF7FFF90090006800698068804784
:102D400003F01CF904466846FFF724FA204638BD14
:102D500038B5002808D0FFF7EDF900F1180400900D
:102D60006846FFF717FA204638BD000038B5002442
:102D700018B907480068006E38B1FFF7DBF900901A
:102D8000B0F90A406846FFF705FA204638BD000052
:102D9000C401002070B505460024284606F09AFEBE
:102DA000641C18B1BDE8704000F068B8052CF4DB75
:102DB00070BD000038B50C4620B908480068006EA8
:102DC00000280AD0FFF7B6F90090B0F90A10A14226
:102DD00000DD44816846FFF7DDF938BDC4010020FD
:102DE000F8B50F4E05003068046E16D00CB100F037
:102DF000CBFA05F017F92846FFF79CF900903168E7
:102E00000D660068FFF792FB6846FFF7C3F902F012
:102E100077FF02F0DDFE2046F8BD00F0B5FAFAE7D4
:102E2000C40100207CB515460C4620B91248006844
:102E3000006E00281FD0FFF77DF92DB20090C580ED
:102E400024B2848002F0C4FE0098406980B1FFF78C
:102E500071F9009A0190B2F908108180B2F90A2044
:102E6000C28011B10AB10480458001A8FFF792F930
:102E70006846FFF78FF97CBDC401002001490A466E
:102E800000F002B801F0FFFF7FB515460C460600C2
:102E900028D0FFF74FF940F6FF710190CC4203D1E3
:102EA000B0F90440B0F906500289611E1144ADF832
:102EB0000840ADF80C104189681E0844ADF80E00BA
:102EC000ADF80A5001A8FFF765F902A805F064FE05
:102ED00006E02A462146304600F090F805F01EFE36
:102EE0000028F6D17FBD00002DE9FF4FDFF8E8B0E4
:102EF00083B01C46DBF80010DDE9106092464FF00D
:102F000000084B7C42461299FFF7D2FA050060D0C8
:102F100028698068804703F031F881460AFB09F18F
:102F2000C91DCF08FFF714F9F10705D1C11700EB50
:102F30009170801000EB4000002C09DC1FB11838A4
:102F4000B0FBF7F000E000206442A04200DC044641
:102F5000F00707D10090DDE903012346524600F057
:102F60009BFC8046002C03DC2846FFF7DDFA30E0AE
:102F700004FB07F01830F10702D0FFF71EF801E05C
:102F8000FFF720F806001CD0FFF7D4F80190056089
:102F9000039981800499C180A0F808A04481C0F8F9
:102FA0001480C0E9037901A8FFF7F4F81298AE6025
:102FB0002861DBF80000407CA861304607B0BDE81E
:102FC000F08F2846FFF7B0FAB8F1000001D0FFF704
:102FD00017F80020F2E70000C4010020054B30B4D0
:102FE0001B68054C5B7C54F823301B6930BC0AF02D
:102FF0006DBD0000C4010020F0010020F8B51546A9
:103000000E460746FFF796F8009000681621C06844
:10301000426A0020904704466846FFF7BBF8002C40
:1030200003D02A4631463846A047F8BDF8B51646C3
:103030000F46050012D0FFF77DF8009044696846FE
:10304000FFF7A8F82846FFF771FE0346082800DDC1
:103050002CB13246394628460AF0F8FDF8BD324612
:10306000394628460AF092FFF8BD10B5002821D055
:1030700009B30AB3B1F90040B2F900309C4200DA5A
:1030800023460380B1F90240B2F902309C4200DAD3
:1030900023464380B1F90440B2F904309C4200DD7C
:1030A00023468380B1F90610B2F90620914200DC74
:1030B0001146C18010BD11460A680260496841602E
:1030C00010BD00280BD003880B440380838819446B
:1030D0008180418811444180C1881144C18070477A
:1030E00070B50E4D0446D5E90001884209D10C495E
:1030F000884201D13C3000E00C3807C884E8070062
:1031000006E090E80E0084E80E0009F017FB286046
:10311000207A002800D0012070BD00002C02002081
:10312000F49701200448D0E90010814201D1012028
:1031300070470020704700002C02002010B509499C
:103140000446086820B908480860084601F07EF97E
:1031500007490648086020460AF0CCFBBDE810404D
:1031600000F090B93C020020ADCA0008558200086A
:103170000002002070B5094C0020D4E900218A42E9
:103180000AD0D2E90056104609F0F0FA2060314624
:10319000284605F001FB012070BD0000500300200F
:1031A0002DE9FC41154DDDE908742D68B5F908607D
:1031B000864200DD3046B5F90C60964200DA3246B0
:1031C000824219DBB5F90A608E4200DD3146B5F95D
:1031D0000E509D4200DA2B468B420DDB00E02C4660
:1031E000E5682D6825B1042D02D02568002DF6D1A3
:1031F000CDE9007402F0D6FBBDE8FC81C4010020DB
:10320000B0F90220B1F906309A4213DCB1F902207C
:10321000B0F906309A420DDCB0F90020B1F9043063
:103220009A4207DCB1F90010B0F90400814201DCD8
:103230000120704700207047014602487022006854
:10324000FDF702BCC401002038B5040019D00AF013
:103250008BFB20460AF0FEFB2046FEF76BFF00903A
:103260000068FEF7E3FE0098C068FEF7C9FE00980C
:10327000C069FEF7C5FE6846FEF78CFF2046FEF7E4
:10328000BFFE38BD002801D009F0C0BF704738B577
:10329000040019D0FEF74EFF0090007C800710D488
:1032A000204609F085FB6846FEF774FF20460AF0C9
:1032B00035FA2046FEF73EFF0090018A41F00201F8
:1032C00001826846FEF766FF38BD00002DE9F8432D
:1032D00004460088089F91468846D0B36088C0B3F2
:1032E000E06818B18068002834D002E0E088202827
:1032F0002FD107F0010200211E48FFF7D9F8050081
:1033000027D020886188800048432030FEF75AFE8D
:10331000060021D03046AE60FEF70CFF0090078219
:103320004461A0F80480A0F80690238808EB03010C
:10333000491E018161884944491E418105606846F2
:10334000FEF728FFE06858B12146304606F0D6FC6B
:1033500030B10020BDE8F8832846FFF7E5F8F8E72C
:10336000B80705D5304609F023FB30460AF0D6F9F8
:103370003046EFE7081B0408024970220968FDF790
:1033800063BB0000C401002010B502F0D7FB02F0BF
:10339000B7FCBDE8104004F059BD000070B5094D00
:1033A0000446022C2868467C09D22046FFF726F9FD
:1033B00028B128684474FFF7E7FF034804603046EB
:1033C00070BD0000C4010020A002002002F0D6BBA6
:1033D00002F00CBC0149886070470000B001002079
:1033E00002F01CBC03490968CA6900B1C8611046F3
:1033F00070470000C401002002F02CBC02F040BC69
:1034000002F06ABC024909688A7E887610467047D5
:10341000C4010020094A30B41080094A1180094AC9
:103420001268537C084A52F82330DA68146A0A4654
:10343000A446014630BC1846604700001C0200202C
:103440001E020020C4010020F0010020024909688A
:103450000A7E087610467047C401002003490968B7
:10346000B1F92C208885104670470000C401002067
:1034700003490968B1F92A204885104670470000C1
:10348000C401002002480068002800D000477047AF
:103490008403002002498A6802B98860FFF7F2BFFE
:1034A0005003002010B5040009D009F095FC204617
:1034B0000AF0DCFA2046BDE81040FEF7A1BD10BDC1
:1034C00038B50C4660B1FEF735FE00908089204289
:1034D00001D0012400E000246846FEF75BFE00E016
:1034E0000124204638BD000038B50546002028607C
:1034F0000648046844B12046FEF71CFE00900069AF
:1035000028606846FEF746FE204638BDE0030020EE
:1035100038B504004FF000000D46086011D0204679
:10352000FEF708FE0090846844B16846FEF732FE5C
:103530002046FEF7FFFD0090006928606846FEF710
:1035400029FE204638BD000070B5174B05460C46D5
:103550002A68D96801208A421EDB21681E69B142AF
:103560001ADB5E69B24217DC9A69914214DC21468B
:10357000284600F0B3F800280ED12E680022002E55
:1035800001DA2A6004E059688E4201DB491E296095
:103590002568002D01DA226070BD99688D42FBDB41
:1035A000491E216070BD00006803002070B5254CE5
:1035B00086B06078F8B100F0D3F8E06000F0CEF8A3
:1035C000E06803902069049000F03EF88DF809004F
:1035D00004A903A8FFF7B8FF0025B0B1A07870B325
:1035E00060680090A06801908DF80850684600F06F
:1035F0004BF8A57023E000F0B6F8206100F0AFF8BA
:103600006078401C607006B070BD039A6068111A43
:1036100000D54942049BA068181A00D54042A678FC
:1036200016B1084402280ADD62600092A3600126F8
:1036300001938DF80860684600F026F8A670657062
:10364000E1E700004C0200200148407A704700008A
:10365000D0980120054910B591E81C0080E81C00B5
:10366000087A002800D0012010BD00003C980120FD
:103670000148C068704700004C0200200148006902
:10368000704700004C0200203EB504460C22114950
:10369000FDF70DFA002813D00F480E4D026882B1D5
:1036A00094E80B008DE80B00684601A990479DE85F
:1036B0000E0085E80E00002802D16846FFF73EFDA7
:1036C0003EBD2046FFF73AFD94E8070085E8070075
:1036D0003EBD00003C980120480200201D4A1268AF
:1036E000A2B390ED000A1C4AD1ED000AF8EEC01A10
:1036F00092ED001AB8EEE02AB8EEC00A21EE211AC7
:10370000D2ED011AF8EEE00A01EE821AD2ED021AA9
:1037100071EE211AB6EE001A71EE811AFDEEE11A71
:10372000C0ED001AD2ED031A002021EE800AD2ED7E
:10373000041A01EEA00AD2ED050A30EE200A30EE9E
:10374000010ABDEEC00A81ED000A7047FFE70120C3
:10375000FBE7000068030020B8980120704770471D
:10376000D02005F04FBF902005F04CBF2DE9F0416F
:10377000084E0446056830680168284688470746B1
:103780003068416828468847284420603846BDE8AC
:10379000F0810000CC0100202DE9F0410C460646E6
:1037A0000025064F05E038684168304688470644E2
:1037B0000544641EF7D22846BDE8F081CC01002004
:1037C0002DE9F0411E46069C1746884605463A46B6
:1037D000A8687F1C3346D0F804C041462846E0471D
:1037E000641EF4D1BDE8F08170B5B0F90040091B4A
:1037F000B0F904408C422CDD00F11404B0F9025001
:103800000069521B02FB0040CA1800EBE104521E83
:10381000D010B0EBE10501F007034FF0FF0102F01B
:10382000070221FA03F0C2F1070201FA02F1CEB257
:1038300021780FD001436D1E04F8011B002D05DD1A
:10384000FF2229462046FDF720F92C4420783043FA
:10385000207070BD30400143217070BD10B5B0F9CB
:103860000030B0F90240C91A00F114030069121BBC
:1038700002FB003000EBE10001F007030278802139
:10388000D9400A43027010BDB0F9061002695143D5
:103890001430FDF701B900002DE9F843804602F12C
:1038A0000F000011470003FB07F01C461546894630
:1038B0001430FEF787FB060013D0FEF73BFC0090A8
:1038C000A0F80080A0F802908580C480064981603D
:1038D0000121818107616846FEF75CFC3046BDE846
:1038E000F8830020FBE70000E41C040870B5B0F981
:1038F0000660B0F904400B6800F1140596421BDD28
:103900000069A34202FB005000EBE30214DA641EDC
:10391000E010A0EBE30512F8010B03F00704A04050
:10392000C4B206E045B1083312F8014B23F0070397
:103930006D1E002CF6D004E0002070BD6006040E61
:103940005B1C2006FAD5FF2C07D0184602E064065F
:10395000240E401C6606FAD400E0D81DC443640758
:1039600005D006E012F8014BFF2C09D108306D1E7E
:10397000F8D5C01A401C0B6070BD6206140E401CC6
:103980002206FAD4F5E738B50546FEF7D3FB0090DA
:103990008189491E0CB284816846FEF7FBFB002C2E
:1039A00002D12846FEF72CFB38BD000010B54FF4BD
:1039B00070410548FEF71CFB8020FEF7DDFBBDE8EB
:1039C00010400248FFF706BD78A600201018040832
:1039D00003490A6810440A68821A002AFBDC70470F
:1039E000AC010020704700000148006870470000EB
:1039F000AC01002070470EB508B102AA00E0002219
:103A0000002301A9684600F05DFB0EBD074910B513
:103A10000C7818B101200870801E03E000200870A7
:103A20006FF07F4001F0E8FC204610BDB10100209E
:103A300010B5082A0EDC0346012A18D0022A56D0F7
:103A4000042A76D010F8042B03F8012B491EF9D173
:103A5000012010BD102A08DC4FEA000230F8043BB8
:103A600022F8023B491EF9D1F2E7002010BD10F800
:103A7000042BD207120E491E34D010F8044B491EF5
:103A800004F0010442EA84122CD010F8044B491EC1
:103A900004F0010442EA441224D010F8044B491EF9
:103AA00004F0010442EA04121CD010F8044B491E31
:103AB00004F0010442EAC40214D010F8044B491E79
:103AC00004F0010442EA84020CD010F8044B491EB1
:103AD00004F0010442EA440204D010F8044B04F05C
:103AE0000104224303F8012B0029C0D1B0E710F8EC
:103AF000042B9207120E491E15D010F8044B491ED4
:103B000004F0030442EA04120DD010F8044B491EDD
:103B100004F0030442EA840205D010F8044B04F0D8
:103B200003042243491E03F8012B0029DFD18FE74C
:103B3000FFE710F8042B1207120E491E05D010F8EB
:103B4000044B04F00F042243491E03F8012B002903
:103B5000EFD17DE738B50024009400F01BF838BDA4
:103B60000A4810B5416B00290ED101214163FFF7CE
:103B70001DFF02F0D7F80549054838310860BDE857
:103B80001040084600F062BC10BD0000B0010020EB
:103B900055CA00082DE9F0410D460699044601B9C1
:103BA00001461F68082A09DC0E46012A1AD0022A9B
:103BB0005BD0042A7DD0082A13D18DE0102A07DCBF
:103BC000D3F810C00E46BCF1000F04D0022389E0E8
:103BD0000020BDE8F08101CCB84726F8020B6D1E2D
:103BE000F9D189E001CCB847C0074FEA10686D1ED3
:103BF00036D001CCB84748EA801000F0FF086D1EAF
:103C00002ED001CCB84748EA401000F0FF086D1EE6
:103C100026D001CCB84748EA001000F0FF086D1E1E
:103C20001ED001CCB84748EAC00000F0FF086D1E66
:103C300016D001CCB84748EA800000F0FF086D1E9E
:103C40000ED001CCB84748EA400000F0FF086D1ED6
:103C500006D001CCB84740EA080000F0FF086D1E0E
:103C600006F8018B002DBDD146E001CCB847800796
:103C70004FEA10686D1E16D001CCB84748EA001014
:103C800000F0FF086D1E0ED001CCB84748EA800056
:103C900000F0FF086D1E06D001CCB84740EA0800CE
:103CA00000F0FF086D1E06F8018B002DDDD123E02A
:103CB000FFE701CCB84700074FEA10686D1E06D039
:103CC00001CCB84740EA080000F0FF086D1E06F876
:103CD000018B002DEDD10FE0D3F810C0BCF1000F27
:103CE00004D001232A462046E04705E001CCB8472E
:103CF00006F8010B6D1EF9D101206AE77CB5064676
:103D000028480D46006868B1002004F045FF06E031
:103D10006A462946304605F0A9FF04F0FFFE002858
:103D2000F6D17CBD106800901F4C5068019022684D
:103D3000BDF8000032F84C1F0844ADF80000BDF893
:103D4000020091880844ADF80200BDF80400118813
:103D50000844ADF80400BDF8060091880844ADF8A9
:103D60000600684604F018FF0EE000BF2068BDF8AA
:103D700000106A464184BDF802108184294630460D
:103D800005F074FF04F0CAFE0028EFD1206830F877
:103D9000221F428D891A01804188C28D891A418073
:103DA0007CBD000018020020C40100202DE9FF4F57
:103DB0008DB00020DDF86CA0164600901D4604462C
:103DC0000246CAF8000008AB03A902A800F07AF97D
:103DD00018B1002011B0BDE8F08F0898854200DDD1
:103DE0000546624F0B9562493868407C51F82010B7
:103DF000049109690691FEF75FFD05903868407CE3
:103E0000FEF7BCFD5B498146884204D05A4989458A
:103E100001D0012000E000200A9001CE1A998847C5
:103E20008346000E079077D0009870BB0D9800EB8A
:103E300004084E480068B0F90800404503DDA0EBD7
:103E40000807804600E000270299049801EB8401EE
:103E500001EB8701CDE900100B990D9842180992EA
:103E60000E9B40461946521EFFF79AF9012000901A
:103E7000059818280ADA0298DDE9052300EB84008A
:103E800000EB8700E91B00F07BF812E00A9880B194
:103E9000029800EB840000EB87070998A0EB080864
:103EA00049463868884701C7A8F101005FEA000861
:103EB000F6D1324BD86980B3DDE9020700EB84000C
:103EC00007EB8402CDE902022C4C361F3046E46930
:103ED0002B460299A047FF203168B0EB116F02D149
:103EE0000299096804E0029A1268B0EB126F01D1DE
:103EF000039A1160029906F10406091D02910399C3
:103F0000091D03916D1EE7D10397DAF8000040F018
:103F10000100CAF8000022E023E0FFE70798FF282D
:103F200013D0C0F1FF0202981B6850F824102BF048
:103F30007F409847039941F8240000BFDAF8000059
:103F400040F00101CAF8001005E00298039950F80A
:103F5000240041F82400641C6D1E7FF45EAF0398BA
:103F600038E7039941F824B0E8E70000C4010020D5
:103F7000F0010020DB580008D9580008FC0200209E
:103F80002DE9F05F0C1E16DD5E68014600EB84052E
:103F9000082A12DC611E012A26D0022A47D0042AF0
:103FA0006AD0082A07D1071917F8010DB04745F85C
:103FB000040D641EF8D1BDE8F09F102AFBDC5F6998
:103FC0003FB12246BC46BDE8F04F02235DF804EB4A
:103FD000604701EB440700BF37F8020DB04745F8D2
:103FE000040D641EF8D1E6E700EBE10001F00707DD
:103FF00010F801A98146802020FA07F8B5F10405E0
:104000000AEA0800C7F10701C840B04745F80409AB
:104010003FB14FEA48604FEA10687F1E641EEFD13F
:10402000C9E719F801A907274FF00108F6E700EBE7
:10403000A10001F0030710F801A981467900C02012
:1040400020FA01F84FF0060BB5F104050AEA080062
:10405000ABEB4701C840B04745F804093FB14FEA10
:1040600088604FEA10687F1E641EEFD1A3E7032724
:1040700019F801A9B846F7E700EB6100012710F82D
:1040800001A9A7438146B900F02020FA01F84FF0BA
:10409000040B2D1F0AEA0800ABEB8701C840B047AC
:1040A00045F804093FB14FEA08704FEA10687F1ED7
:1040B000641EEFD17FE719F801A901274FF00F081F
:1040C000F6E700002DE9F047224C06461F46A0699E
:1040D00090468946002540B90120A06104F12801DD
:1040E0001D480860084600F0B1F9606930B91B4806
:1040F0000068606110B901F06CFB606107B1386065
:104100004EB1A06830B960698000FDF79BFFA060E8
:1041100000B901253060B9F1000F0AD0E06830B96C
:1041200060698000FDF78EFFE06000B90125C9F8E5
:104130000000B8F1000F0AD0206930B96069800032
:10414000FDF780FF206100B90125C8F8000028466E
:10415000BDE8F087FC0200204DCB00080C020020D7
:1041600073B5124A01A90098126890470024009084
:10417000C8B10F4900250968C969496959B10A6878
:104180004AB1019990477CBD6846FFF7EFFA0546B2
:10419000FEF79CFB04440198401E0190F4D528468C
:1041A00000F032F8044420467CBD00004C0300209F
:1041B000C401002073B50D460098002490B10A494F
:1041C0000968C969496959B14A684AB1294690479D
:1041D0007CBD6846FFF7CAFA20B10A2802D0641CE9
:1041E000AC42F6DB20467CBDC4010020044AB2F993
:1041F000002002600348B0F900000860704700002A
:104200001C0200201E02002038B5002469460094DC
:10421000FEF764FB0099814200DD0C1A204638BD90
:10422000B0F90030B1F90020934200DA0280B0F911
:104230000230B1F90220934200DA4280B0F9043032
:10424000B1F90420934200DD8280B0F90620B1F973
:1042500006108A4200DDC180704770B5B1F9004098
:10426000B2F900309C4200DD23460380B1F90250D0
:10427000B2F90240A54200DD2C464480B1F9046049
:10428000B2F90450AE4200DA35468580B1F9061025
:10429000B2F90620914200DB1146C1809D4201DB4C
:1042A000A14201DA002070BD012070BD0146024824
:1042B0000068407C00F002B8C40100202DE9F843FA
:1042C00001268946044602285DDA304F7A6802B139
:1042D00090472E4D5FEA090005F1100532D0012804
:1042E00003D0B9F1020F4ED118E055F8240088B977
:1042F0002046FEF783F9009018B3C0680D21426A8A
:104300006846904702003ED049460098904755F8CD
:1043100024000026401C45F8240034E02046FEF727
:104320006DF9009068B1C0680D21426A68469047F7
:10433000040028D0386800B1804749460098A0475B
:10434000002620E055F82400A846012812D1204676
:10435000FEF754F9009068B1C0680D21426A6846C2
:104360009047050006D0386800B18047494600985C
:10437000A847002658F8241009B1012200E00022C5
:10438000891A48F824103046BDE8F8832C03002031
:1043900030B581F07F43FF2480F07F4094EA1161C3
:1043A00001D120F07F43010E11FB02F1B1FBF4F1CA
:1043B00000F0FF15C1F1FF0203F0FF14544301FBAD
:1043C00005444FF0FF15240A05EA1323C0F3072024
:1043D000534340F0807001FB003104F0FF1001F006
:1043E000FF21084380F07F4030BD00002DE9F05FE1
:1043F0000646DDF8389015460C4600200D9980469B
:1044000088421ED2DFF840B00C9F4FF0FF0A02CE68
:1044100008CCAAEB116202FB09F2B2FBFAF0C2B2BD
:1044200021F07F401946DBF80030984720F07F40AC
:1044300001C57F1EEBD10A9804EB800408F101004E
:10444000DCE7BDE8F09F0000FC02002002490A6B97
:104450004260086370470000B001002010B5830778
:1044600002D520F8021B521E530811D001EB014463
:10447000042B09DB10C01B1F10C0042B40F8084B95
:1044800040F8044CF6DA01E010C05B1E002BFBD1B3
:10449000D20700D0018010BDFEE72DE9F04F97B0A4
:1044A000002798469346894606463C46209D1AE0DA
:1044B000D8E9053018B16869A04200DD0023D5E9CC
:1044C0000301A14200DD0020A9690090CDE901416E
:1044D0000BEB84024946304600F030FE0743641C73
:1044E00009F1240948362868A042E1DC12E0D5E948
:1044F0000330A04200DD0023A8690BEB8402CDE964
:1045000000404946304600F03DFD0743641C09F178
:10451000240948366868A042E9DC009441E0D5E906
:104520000320A04200DD002203A9484604F06EFFEC
:10453000E00715904FF0000A04F001005646029083
:1045400003A80BEB062150F83600019180004AEADF
:10455000000A41F82400FBF736FE40EA070803A8EA
:1045600000EBC60015994068800080EAE17102986E
:10457000084401994AEA000A01EB8401C1F880006D
:10458000FBF721FE002149F82610761C40EA0807B7
:10459000092ED5DB09F12409BAF1000F00D00094EF
:1045A000641CA868A042BADC0021202C09DA002093
:1045B0000BEBC012401C42F824101228F8DB641CDC
:1045C000F3E70FB1002003E0202003E07F00401C50
:1045D000002FFBDA401EE861009817B0BDE8F08FAD
:1045E0000029018802D041F4806101E021F480615A
:1045F00001807047034600209A8A1B8B42EA0342DF
:1046000022F07F42914300D10120704700290188A8
:1046100002D041F0010101E021F001010180704769
:104620000029018802D041F4807101E021F48071F9
:10463000018070470029018802D041F4007101E037
:1046400021F40071018070470CB5024600200092F1
:104650000A0F21F07F41019202D0009A143202E049
:10466000009A090C1832009212680A4200D0012008
:104670000CBD00007FB5044680880D4620F03F0643
:10468000684601F031FF27490298B0FBF1F189B289
:104690000E43A680228822F001022280224B2A6843
:1046A0009A421BD85200B0FBF2F080B2042800D22C
:1046B0000420491C2184A083208840F00100208030
:1046C00020884FF6F5310840A9886A8911430143D3
:1046D0002180A8892989084320817FBDEB88A3F523
:1046E0003F46FF3E0BD002EBC20303EB0212B0FBCE
:1046F000F2F080B240F48040020506D007E002EB01
:104700004202B0FBF2F080B2F6E740F001004FF455
:10471000967251434FF47A72B1FBF2F140F40040CB
:10472000C7E7000040420F00A086010012B141F02F
:10473000010101E001F0FE01018270470182704732
:104740000029818B02D041F4806101E021F4806175
:10475000818370477CB50121072001F07DFE022096
:104760008DF804008DF8050000208DF806001E4D20
:104770008DF807001024694628460094FDF700FBD9
:1047800008211A4E009169463046FDF7F9FA69464C
:1047900030460094FDF7F4FA202000906946304638
:1047A000FDF7EEFA8020124C009069462046FDF796
:1047B000E7FA062204212846FDF71EFB0622032104
:1047C0003046FDF719FB062204213046FDF714FBA5
:1047D000062205213046FDF70FFB06220721204661
:1047E000FDF70AFB7CBD000000000240000402400F
:1047F00000080240F0B502220023858B01244FF20D
:104800004006354085830284868B8D68022D3DD01D
:104810008A8802B10224294A13681B0203D513684F
:1048200023F400031360254A7C3213681268C3F333
:104830008813224FC2F302723F1F3D683F6805F0A4
:104840003F057F0201D51E4F00E01E4FB7FBF5F577
:104850005D43B5FBF2F2CB88B3F5007F2BD063014B
:10486000B2FBF3F202EB82028B685200B2FBF3F26E
:10487000521D92B20A23B2FBF3F202F00103D21AE4
:104880004FF6FF74C2F34F0204EA0323941EFE2C7A
:1048900001D302220023CC881A43144304840A88DB
:1048A0004B881A438B8889890B431A43324342F45D
:1048B00000618183F0BD120AD4E70000083802408D
:1048C000001BB7000024F40001210148FCF7C6BB1F
:1048D0008860024010B500210448FCF7BFFB034884
:1048E0000021BDE810403038FCF7B8BB88600240BA
:1048F0002DE9FF410746002490460E46204601F070
:1049000057FE012001F05AFE4FF4FA753B2001F0EA
:1049100035FE012802D0641CAC42F7D30121C80344
:1049200001F0B2FD0D4C204602F0DCFD6015ADF843
:104930000000ADF80460ADF806000020ADF80C00F2
:10494000ADF80270CDF8088069462046FFF752FFA7
:1049500001212046FFF7F4FEBDE8FF81003C004046
:104960002DE9F04188460546012190B016464805DC
:1049700001F072FD284F3846FCF77AFB3846FCF709
:1049800028FC0028FAD125493846FCF751FB244879
:104990000024CDE900404020CDE9025004960001FA
:1049A000CDE9054040000790800008904011099033
:1049B0004002CDE90A040C940D94694638460E94E1
:1049C000FCF74EFC002229463846FCF7EDFB4FF47D
:1049D000002241463846FCF7E7FB01213846FCF748
:1049E000D9FB012210213846FCF724FC0C48012297
:1049F00002210C3802F06EFD10208DF83C008DF87D
:104A00003D4001208DF83E008DF83F000FA801F0D9
:104A1000E5FC10B0BDE8F081886002403DF000A0E8
:104A20000C3C0040044A00284FF00101104601D020
:104A3000FDF7FBB9FDF7F7B90004024001B5009896
:104A400001E0401E00900028FBD108BD00B5012107
:104A50009DB0084601F00CFD0F2007903C20099006
:104A600000200A9006210D900B90009108900C9068
:104A700005210690CDE901011021CDE91001039037
:104A80001290090204900590CDE916010E900F9046
:104A90001490139015908900CDE918011A9007A879
:104AA0001B90CDF870D00EA8FCF734FF0121002038
:104AB000FCF720FF1DB000BD2DE9F0478246A2EBB8
:104AC0000A00DFF83C90401C1F460C4685B209F1F5
:104AD0000208089E10E02146504600F027FA2C20DC
:104AE000A9F800000020414602E00E80401C80B280
:104AF000A842FAD3641CA4B2BC42ECD9BDE8F0874A
:104B0000FEFF01602DE9FC5F01211A2001F0A4FCE9
:104B100001244FF000088DF806808DF8074002252B
:104B20008DF8045003208DF80500A60369467848E7
:104B30000096FDF725F90C220E217548FDF75CF96A
:104B40004FF4004969467248CDF80090FDF718F916
:104B50000C220F216E48FDF74FF969466C4800940E
:104B6000FDF70EF90C2200216948FDF745F9694669
:104B700067480095FDF704F90C2201216448FDF710
:104B80003BF94FF0800B69466248CDF800B0FDF765
:104B9000F7F80C2207215F48FDF72EF92702694636
:104BA0005C480097FDF7ECF80C2208215948FDF706
:104BB00023F96002009069465648FDF7E1F80C229F
:104BC00009215448FDF718F9A002009069465148A0
:104BD000FDF7D6F80C220A214E48FDF70DF94FF4E7
:104BE000006A69464B48CDF800A0FDF7C9F80C22D1
:104BF0000B214848FDF700F920030090694645481D
:104C0000FDF7BEF80C2211464248FDF7F5F86003A7
:104C1000009069463F48FDF7B3F80C220D213D484E
:104C2000FDF7EAF869463B480096FDF7A9F80C2223
:104C30000E213848FDF7E0F869463648CDF8009077
:104C4000FDF79EF80C220F213248FDF7D5F8694692
:104C50002F480097FDF794F80C2208212C48FDF707
:104C6000CBF86002009069462948FDF789F80C22CC
:104C700009212748FDF7C0F8A002009069462448A2
:104C8000FDF77EF80C220A212148FDF7B5F8102027
:104C9000009069461E48FDF773F80C2204211C4859
:104CA000FDF7AAF82020009069461948FDF768F83A
:104CB0000C2205211648FDF79FF869461448CDF8E7
:104CC00000B0FDF75DF80C2207211148FDF794F8BC
:104CD00069460F48CDF800A0FDF752F80C220B21D1
:104CE0000B48FDF789F88DF804408DF80680082000
:104CF0008DF8074000908DF8055069460448FDF78F
:104D00003FF8694604480094FDF73AF8BDE8FC9F77
:104D1000000C0240001002400004024070B500F098
:104D200005F90B492E20088000F0DEF800F0DCF8D1
:104D3000044600F0D9F8054600F0D6F80146E00A2E
:104D4000C002890A40EA411040EAD52070BD000047
:104D5000FEFF016010B5FFF7D5FEFFF777FE0120DB
:104D6000FFF760FE00F0CAF8BDE81040AFF3008026
:104D700010B55B4CCF2020800021A01C0180812138
:104D8000018030210180ED212180642101800321F7
:104D900001801221018081210180E821218085216B
:104DA00001801021018078210180CB2121803921CF
:104DB00001802C2101800021018034210180022109
:104DC0000180F721218020210180EA21218000211A
:104DD00001800180B1212180002101801B210180FF
:104DE000B62121800A210180A2210180C0212180D9
:104DF00035210180C121218011210180C52121801F
:104E0000452101800180C7212180A2210180F2215A
:104E10002180002101802621218001210180E021C3
:104E200021800F21018026210180242101800B2176
:104E300001800E2101800921018054210180A821D7
:104E40000180462101800C21018017210180092168
:104E500001800F2101800721018000210180E121D3
:104E6000218000210180192101801B210180042162
:104E7000018010210180072101802A210180472122
:104E800001803921018003210180062101800180F8
:104E900030210180382101800F21018036212180BD
:104EA000A82101802B212180002101800180018027
:104EB000EF2101802A212180002101800180012130
:104EC00001803F2101803A2121805521018011205C
:104ED00020800448FFF7B2FD2920208010BD00008B
:104EE000FEFF0160FCBF0200034808B50088ADF872
:104EF0000000BDF8000008BD0000026070B5094C5C
:104F000008212046FCF78FFF074D2846FFF796FD46
:104F100008212046FCF789FF2846BDE87040FFF7CE
:104F20008DBD0000000C0240FCBF020010B5074C14
:104F30002A222280030AA21C1380C0B210802B20D8
:104F40002080080A1080C8B2108010BDFEFF0160EA
:104F500030B5B0F5A07F12D2F02910D2084C2A2328
:104F60002380050AA31C1D80C0B218802B2020803E
:104F7000080A1880C8B218802C2020801A8030BD02
:104F8000FEFF01602DE9FF4FA7B0044635981E468D
:104F90000D464FF0000A072816DAC0F1070A002074
:104FA00054F8201041FA0AF144F8201004EB800173
:104FB0004A6842FA0AF24A60296841FA0AF102C5CF
:104FC000801C1228ECDB243D694620460BF0D2F809
:104FD000201D06A90BF0CEF804F108000CA90BF077
:104FE000C9F8324612A9284604F010FA52480027A0
:104FF0003C4624900DF1480B5BF824004FEA8009F1
:105000004846FBF7E0F840EA0708299800EBC41689
:10501000C6F800900BEB8409D9F80C008000834699
:10502000FBF7D1F840EA0807684600EB8400C6F8B1
:1050300080B12590C168249850F82400FBF7C0F88F
:105040000146D9F8180001EB80008346FBF7BBF856
:1050500040EA0708C6F800B32498C4F1050100EB44
:10506000840B5DF82110DBF80C00FBF7A9F8014672
:10507000D9F8240001EB80000746FBF7A4F8C4F13F
:105080000201C6F8807440EA08085DF82110DBF8D8
:105090001800FBF795F807462598416A249850F8C0
:1050A0002400FBF78DF83918D9F8300001EB8007A0
:1050B0003846FBF788F840EA08002590C6F80076E5
:1050C0005DF82410DBF82400FBF77AF8C4F10B013B
:1050D00007465DF82110DBF80C00FBF771F8391872
:1050E000D9F83C0001EB80008046FBF76CF80746DE
:1050F0002598641C0743C6F88087032CFFF67AAF17
:105100000620694651F82020401C921004C5092849
:10511000F8DB0C2051F82020401C921004C5122806
:10512000F8DBA5F124015346349A2998FCF700FDD9
:105130002BB03843BDE8F08F3C0804082DE9F04F50
:10514000A7B00C4692460146002232989B46443155
:1051500013466D4607281CDAC0F1070908200E68BF
:1051600046FA09F6F31A0E1F9A1A3668A1F10801D9
:1051700046FA09F6F31A05EB8006726245F820300C
:1051800054F8206046FA09F644F82060401EE6D53F
:1051900011E04FF0000908200E68F31A0E1F9A1A4A
:1051A0003668A1F10801F31A05EB8006726245F832
:1051B0002030401EF0D5099840100990009840100A
:1051C000009028460AF02AFF09A80AF027FF309825
:1051D000504F4FF0000808AD50EA0B0058D012A90C
:1051E0002046309A04F012F94B490BEBCB0001EB4F
:1051F000001000262690696A57F8040955F804B98A
:10520000FAF7DEFF4FEAAB010A1A084401C42698F8
:10521000934650F826101046FAF7D2FF014612A81E
:1052200050F826000844800024902699C6F1110009
:10523000259051F820105846FAF7C2FF01462598EC
:1052400012AA52F8200008444FEA800B0AEBC6115C
:105250002498086025980AEBC010C0F800B0249884
:10526000FAF7B1FF40EA08085846FAF7ACFF761C97
:1052700040EA0808092EBEDBA4F124014B46504643
:10528000319AFCF755FC27B040EA0800BDE8F08FE2
:10529000DFF880B000260BF1040B696A57F80409A7
:1052A00055F804292492FAF78BFF249A2368911069
:1052B0005A422692421A0844249201C49818404245
:1052C00025905BF8041BFAF77BFF249A02EB800021
:1052D00024905BF8041B2598FAF772FF269A0AEBD4
:1052E000C61102EB8000259024980860C6F11102D7
:1052F0000AEBC211259808602498FAF764FF40EA87
:1053000008082598FAF75FFF761C40EA0808092E7E
:10531000C3DBB1E7680604081C0704087CB501215B
:10532000142001F099F800208DF804001C4E01258E
:105330008DF80700009569463046FCF721FD0224F0
:10534000694630460094FCF71BFD0095154D6946F3
:105350002846FCF715FD694628460094FCF710FD29
:105360000421009169462846FCF70AFD08200090B8
:1053700069462846FCF704FD10200090694628463F
:10538000FCF7FEFC2020009069462846FCF7F8FC5C
:105390004020009069462846FCF7F2FC7CBD0000E6
:1053A000000802400010024070B5FF23104CB3EB20
:1053B000116F05D12346050E1B680AD0FF2D14D0AE
:1053C0000C4B02EB0212D2B21B68984721680840CE
:1053D00070BD514201EB01114FF07F4220F07F4040
:1053E00002EB01610843184070BD01EA030070BD83
:1053F00094030020FC02002002490A68086010465D
:1054000070470000940300200449054A0968497C5C
:1054100052F821100969096808470000C4010020FA
:10542000F00100202DE9F04F05468DB07B48DDF8F6
:1054300060901A9C00681E4617464FF0000A78B12B
:105440001B9B199ACDF808900593CDE90324DDE95B
:105450001623CDE90023046833463A46284680E007
:10546000DDE9160201EB060805EB070C1043A8F175
:105470000108ACF1010C012806D0C9F10800059023
:10548000002002910990C6E065480268B2F90A302E
:10549000581A002806DD361A002E63DD1946199BBE
:1054A00000FB0344B2F90E00A8EB0000002802DD67
:1054B000361A002E56DDB2F90C00ACEB00000028C5
:1054C00000DD3F1AB2F908300020AB4235DD581B31
:1054D0003F1A4B46B9F1080F26D006DC012B0BD042
:1054E000022B11D0042B28D116E0102B1ED0182B24
:1054F0001FD0202B21D11CE020F0070304EBE00497
:105500001D4400F0070018E020F0030304EBA004A2
:105510001D4400F0030010E020F0010304EB6004E0
:105520001D4400F0010008E0044404E004EB4004E2
:1055300001E004EB800405440020002F12DD1B9BDA
:10554000DDF864C0CDE90403CDE90069CDE902C40A
:10555000527C34483B4650F82200C26854680A46E0
:105560002946A0470DB0BDE8F08F1799029808446E
:105570000C902B49401E00900A68B2F90A30834211
:1055800041DCB2F90E10029881423CDB4FF0000B77
:10559000D84603950A9434E0BBF1000F05D10A9870
:1055A0004FF0080B10F801AB0A900599ABEB090B13
:1055B0003AFA01F00AFA09F101F0FF0A04D1184998
:1055C0000968097C890716D415490968C96B0A68F6
:1055D0000B921B9A0AB152F82000086016990398A2
:1055E000009B4218521E029900F07EF80C490B985D
:1055F0000968C96B08600399169808F10108084406
:105600000390B845C8DB0998401C09900C9802909B
:10561000199804440998B042A7DBA3E718020020B8
:10562000C4010020F0010020F0B40C4612490968C2
:10563000B1F90A30A3421CDCB1F90E30A34218DBE9
:10564000B1F90830834200DD1846B1F90C309342BD
:1056500000DA1A4682420CDB4B7C084951F8235091
:1056600013462246E9688E6801462846B446F0BCD7
:105670006047F0BC70470000C4010020F00100202A
:105680000A46174930B40968B1F90A30934225DC5B
:10569000B1F90E30934221DBB1F9083083421DDCB1
:1056A000B1F90C30834219DB0B7C0E4CDB0709D0BF
:1056B000497C54F82130D968CC690146A44630BCF5
:1056C00018466047CB6B497C1B6854F82140E16861
:1056D0008D6901462046AC4630BC604730BC7047FF
:1056E000C4010020F001002038B5134C2468B4F93F
:1056F0000850854200DD2846B4F90C50954200DA86
:105700002A46824217DBB4F90A508D4200DD294651
:10571000B4F90E509D4200DA2B468B420BDB00930E
:10572000647C064B53F82440E3681D6913460A461F
:1057300001462046A84738BDC4010020F0010020E2
:10574000082106F0DFBE0000024809210068407C05
:1057500006F0D8BEC4010020092106F0D3BE70B502
:1057600000252C462046FCF749FF00B16D1C641C47
:10577000022CF7DB284670BD02480068407C00F030
:1057800003B80000C401002010B5FCF737FF002863
:1057900005D0C168CA6ABDE810400221104710BD9B
:1057A000F8B515460E460124FCF728FF009058B1C5
:1057B000C0680421426A68469047030004D02A4624
:1057C00031460098984700242046F8BD032106F092
:1057D00099BE032006F00DBF042106F093BE000021
:1057E000024801210068407C06F08CBEC401002004
:1057F000014800687047000084020020012106F083
:1058000081BE012006F0F5BE024802210068407CFE
:1058100006F078BEC40100200148406870470000CF
:1058200084020020022106F06DBE022006F0E1BED7
:10583000AFF300802DE9F041060008D0B76837B11A
:105840001248816819B13468B4F5807F02DD002008
:10585000BDE8F08101688C4200DD0C4600258046E1
:1058600009E000BF57F82500FFF7CEFDD8F8081073
:1058700041F825006D1CA542F4DBD8F8041044461D
:1058800009B130468847A068E2E70000AC03002079
:105890000449054A0968497C52F821100969496898
:1058A00008470000C4010020F001002010B5084A9C
:1058B000084B00F01F01C0F34514C0F3C420515C35
:1058C0001B5D105C01EB032101EB004010BD0000EB
:1058D000A8180408C81804087047704710B5FFF7E7
:1058E00039FA42F21070FBF74BFFBDE8104003F0AD
:1058F00087BE000010B50A4CA06860B9206880001F
:10590000FCF7A0FBA06040B104F10C010548086061
:105910000846FEF79BFD002010BD012010BD0000D1
:10592000AC03002075CB00082DE9F047FFF717FF07
:1059300007460024DFF860802AE02046FCF75EFE80
:1059400028B3D8F8000090F8119044742046FFF76F
:10595000F7FE082817DC1148114950F824000069A7
:10596000884210D02046FFF7F7FE0646002508E0E3
:10597000E8B2FFF78DFF0246E9B2204600F054F985
:105980006D1CB542F4DBD8F8001081F81190641C4E
:10599000BC42D2DBBDE8F087C4010020F00100204A
:1059A000041D04082DE9FF4F83B01646DDE91040C1
:1059B0008B46C0684769426A7AB1012111A89047B5
:1059C00005000AD00698CDE9000433465A460399EB
:1059D0001198A84707B0BDE8F08F57480068407C91
:1059E000FCF76AFF8246082801DC012005E0BAF1D5
:1059F000100F01DC022000E004208046002596E024
:105A00004046B8F1010F05D0022871D0B8F1040F5B
:105A100025D17CE0BAF1090F21D2DFE80AF0860532
:105A2000213F3F5959595900039815E001465A46FC
:105A30001198B847C5F1070188404FF67F72217869
:105A4000EA40114001436D1C217004EBE50425F090
:105A50000700054109F101008146B042E6DD64E03E
:105A6000039817E001465A461198B8470621A1EB62
:105A7000450188406B004FF63F722178DA401140B3
:105A800001436D1C217004EBA50425F003000541C2
:105A900009F101008146B042E4DD46E0039813E0DD
:105AA00001465A461198B8470421A1EB8501884068
:105AB0002178AB000F229A401140014321702C4401
:105AC00085F0010509F101008146B042E8DD2CE0D6
:105AD000DDF80C9007E001465A461198B84720704F
