:020000040800F2
:10000000D0B001209D0100087D920008EF6A000831
:100010007992000891100008E9B000080000000083
:1000200000000000000000000000000035A70008EC
:1000300039170008000000000D93000825A80008EB
:10004000B7010008B7010008B7010008B7010008B0
:10005000B7010008B7010008B7010008B7010008A0
:10006000B7010008B7010008B7010008B701000890
:10007000B7010008B7010008B1130008B701000874
:10008000DD130008B7010008B7010008B701000838
:10009000B7010008B7010008B7010008B701000860
:1000A000B7010008B7010008B7010008B701000850
:1000B0000DA90008B7010008B7010008B701000842
:1000C000B7010008B7010008B7010008B701000830
:1000D000B7010008B7010008B7010008B701000820
:1000E000B7010008B7010008B7010008B701000810
:1000F000B7010008B7010008B7010008B701000800
:10010000B701000895970008B7010008B70100087B
:10011000B7010008B701000839A90008B7010008B5
:10012000B7010008B7010008B7010008091400086A
:10013000B7010008B7010008B7010008B7010008BF
:10014000B7010008B7010008B7010008B7010008AF
:10015000B7010008B7010008B7010008B70100089F
:10016000B7010008B7010008B7010008B70100088F
:10017000B7010008B7010008B7010008B70100087F
:10018000B7010008B7010008DFF80CD000F018FE36
:1001900000480047C5400108D0B00120064880470C
:1001A00006480047FEE7FEE7FEE7FEE7FEE7FEE75C
:1001B000FEE7FEE7FEE7FEE7A5A8000889010008C4
:1001C00081FB0020704701464FF0000081EAE1709A
:1001D000A0EBE170704700002DE9F04F82B0019074
:1001E0004FF000744FF000784FF000054FF0000919
:1001F00052F804CB52F804EB0868CB6DC0FB0C45F9
:10020000D1F88000CEF1000EC3FB0E45D1F8DC30F2
:10021000C0FB0C89C3FB0E8952F804CB52F804EBE7
:1002200048688B6DC0FB0C45D1F88400CEF1000E00
:10023000C3FB0E45D1F8D830C0FB0C89C3FB0E8937
:1002400052F804CB52F804EB88684B6DC0FB0C45A8
:10025000D1F88800CEF1000EC3FB0E45D1F8D430A2
:10026000C0FB0C89C3FB0E8952F804CB52F804EB97
:10027000C8680B6DC0FB0C45D1F88C00CEF1000EA8
:10028000C3FB0E45D1F8D030C0FB0C89C3FB0E89EF
:1002900052F804CB52F804EB0869CB6CC0FB0C4558
:1002A000D1F89000CEF1000EC3FB0E45D1F8CC3052
:1002B000C0FB0C89C3FB0E8952F804CB52F804EB47
:1002C00048698B6CC0FB0C45D1F89400CEF1000E50
:1002D000C3FB0E45D1F8C830C0FB0C89C3FB0E89A7
:1002E00052F804CB52F804EB88694B6CC0FB0C4508
:1002F000D1F89800CEF1000EC3FB0E45D1F8C43002
:10030000C0FB0C89C3FB0E8952F804CB52F804EBF6
:10031000C8690B6CC0FB0C45D1F89C00CEF1000EF7
:10032000C3FB0E45D1F8C030C0FB0C89C3FB0E895E
:1003300001984FF4FE4E4EF0FF0E4FEA946444EAEB
:1003400085144FEAE47CBCEBE43F18BF8CEA0E0452
:100350004FEA986848EA89184FEAE87CBCEBE83F26
:1003600018BF8CEA0E080480A0F8028002F57072B3
:1003700001F580514FF000744FF000784FF0000508
:100380004FF0000952F804CB0868D1F88030C0FB68
:100390000C45C3FB0C8952F804CB4868D1F8843073
:1003A000C0FB0C45C3FB0C8952F804CB8868D1F81C
:1003B0008830C0FB0C45C3FB0C8952F804CBC868DD
:1003C000D1F88C30C0FB0C45C3FB0C8952F804CB30
:1003D0000869D1F89030C0FB0C45C3FB0C8952F87A
:1003E00004CB4869D1F89430C0FB0C45C3FB0C89A1
:1003F00052F804CB8869D1F89830C0FB0C45C3FB98
:100400000C8952F804CBC869D1F89C30C0FB0C456C
:10041000C3FB0C8901984FF4FE4E4EF0FF0E4FEADD
:10042000946444EA85144FEAE47CBCEBE43F18BFD3
:100430008CEA0E044FEA986848EA89184FEAE87C8B
:10044000BCEBE83F18BF8CEA0E08A0F84040A0F8CB
:100450004280A2F57872A1F570614FF00F0C00F1A7
:100460000400CDF800C001904FF000744FF0007808
:100470004FF000764FF0007A4FF000054FF0000982
:100480004FF000074FF0000B52F804CB52F804EB8A
:100490000868CB6DC0FB0C45C0FB0E67CEF1000EAB
:1004A000C3FB0C67C3FB0E45D1F8DC30D1F88000EC
:1004B000C3FB0E89C3FB0CABCEF1000EC0FB0C8955
:1004C000C0FB0EAB52F804CB52F804EB48688B6DBE
:1004D000C0FB0C45C0FB0E67CEF1000EC3FB0C67E2
:1004E000C3FB0E45D1F8D830D1F88400C3FB0E8988
:1004F000C3FB0CABCEF1000EC0FB0C89C0FB0EABF6
:1005000052F804CB52F804EB88684B6DC0FB0C45E5
:10051000C0FB0E67CEF1000EC3FB0C67C3FB0E459C
:10052000D1F8D430D1F88800C3FB0E89C3FB0CABE3
:10053000CEF1000EC0FB0C89C0FB0EAB52F804CB11
:1005400052F804EBC8680B6DC0FB0C45C0FB0E678E
:10055000CEF1000EC3FB0C67C3FB0E45D1F8D030C3
:10056000D1F88C00C3FB0E89C3FB0CABCEF1000E9F
:10057000C0FB0C89C0FB0EAB52F804CB52F804EB65
:100580000869CB6CC0FB0C45C0FB0E67CEF1000EBA
:10059000C3FB0C67C3FB0E45D1F8CC30D1F89000FB
:1005A000C3FB0E89C3FB0CABCEF1000EC0FB0C8964
:1005B000C0FB0EAB52F804CB52F804EB48698B6CCD
:1005C000C0FB0C45C0FB0E67CEF1000EC3FB0C67F1
:1005D000C3FB0E45D1F8C830D1F89400C3FB0E8997
:1005E000C3FB0CABCEF1000EC0FB0C89C0FB0EAB05
:1005F00052F804CB52F804EB88694B6CC0FB0C45F5
:10060000C0FB0E67CEF1000EC3FB0C67C3FB0E45AB
:10061000D1F8C430D1F89800C3FB0E89C3FB0CABF2
:10062000CEF1000EC0FB0C89C0FB0EAB52F804CB20
:1006300052F804EBC8690B6CC0FB0C45C0FB0E679D
:10064000CEF1000EC3FB0C67C3FB0E45D1F8C030E2
:10065000D1F89C00C3FB0E89C3FB0CABCEF1000E9E
:10066000C0FB0C89C0FB0EAB01F5807101984FF403
:10067000FE4E4EF0FF0E4FEA946444EA85144FEAB2
:10068000E47CBCEBE43F18BF8CEA0E044FEA9868A8
:1006900048EA89184FEAE87CBCEBE83F18BF8CEACF
:1006A0000E084FEA966646EA87164FEAE67CBCEBF0
:1006B000E63F18BF8CEA0E064FEA9A6A4AEA8B1A9E
:1006C0004FEAEA7CBCEBEA3F18BF8CEA0E0ADDF881
:1006D00000C000EBCC0E2EF8026B2EF802AB20F817
:1006E000024B20F8028BBCF1010C7FF4BAAE02B0D1
:1006F000BDE8F08F2DE9F04F82B001904FF000740B
:100700004FF0000552F804CB52F804EB0868CB6DAB
:10071000CEF1000EC0FB0C45C3FB0E4552F804CBD6
:1007200052F804EB48688B6DCEF1000EC0FB0C450F
:10073000C3FB0E4552F804CB52F804EB88684B6DAE
:10074000CEF1000EC0FB0C45C3FB0E4552F804CBA6
:1007500052F804EBC8680B6DCEF1000EC0FB0C45DF
:10076000C3FB0E4552F804CB52F804EB0869CB6C7E
:10077000CEF1000EC0FB0C45C3FB0E4552F804CB76
:1007800052F804EB48698B6CCEF1000EC0FB0C45AF
:10079000C3FB0E4552F804CB52F804EB88694B6C4E
:1007A000CEF1000EC0FB0C45C3FB0E4552F804CB46
:1007B00052F804EBC8690B6CCEF1000EC0FB0C457F
:1007C000C3FB0E4501984FF4FE4E4EF0FF0E4FEA6C
:1007D000946444EA85144FEAE47CBCEBE43F18BF20
:1007E0008CEA0E04048002F5707201F580514FF01E
:1007F00000744FF0000552F804CB0868C0FB0C45AC
:1008000052F804CB4868C0FB0C4552F804CB88680A
:10081000C0FB0C4552F804CBC868C0FB0C4552F82D
:1008200004CB0869C0FB0C4552F804CB4869C0FBF7
:100830000C4552F804CB8869C0FB0C4552F804CB38
:10084000C869C0FB0C4501984FF4FE4E4EF0FF0EF8
:100850004FEA946444EA85144FEAE47CBCEBE43F3D
:1008600018BF8CEA0E040484A2F57872A1F57061B9
:100870004FF00F0C00F10200CDF800C001904FF0D6
:1008800000744FF000764FF000054FF0000752F86B
:1008900004CB52F804EB0868CB6DC0FB0C45C0FBE1
:1008A0000E67CEF1000EC3FB0E45C3FB0C6752F87A
:1008B00004CB52F804EB48688B6DC0FB0C45C0FBC1
:1008C0000E67CEF1000EC3FB0E45C3FB0C6752F85A
:1008D00004CB52F804EB88684B6DC0FB0C45C0FBA1
:1008E0000E67CEF1000EC3FB0E45C3FB0C6752F83A
:1008F00004CB52F804EBC8680B6DC0FB0C45C0FB81
:100900000E67CEF1000EC3FB0E45C3FB0C6752F819
:1009100004CB52F804EB0869CB6CC0FB0C45C0FB60
:100920000E67CEF1000EC3FB0E45C3FB0C6752F8F9
:1009300004CB52F804EB48698B6CC0FB0C45C0FB40
:100940000E67CEF1000EC3FB0E45C3FB0C6752F8D9
:1009500004CB52F804EB88694B6CC0FB0C45C0FB20
:100960000E67CEF1000EC3FB0E45C3FB0C6752F8B9
:1009700004CB52F804EBC8690B6CC0FB0C45C0FB00
:100980000E67CEF1000EC3FB0E45C3FB0C6701F5ED
:10099000807101984FF4FE4E4EF0FF0E4FEA9464C2
:1009A00044EA85144FEAE47CBCEBE43F18BF8CEAD0
:1009B0000E044FEA966646EA87164FEAE67CBCEBE1
:1009C000E63F18BF8CEA0E06DDF800C000EB8C0E87
:1009D0002EF8026B20F8024BBCF1010C7FF44CAFF7
:1009E00002B0BDE8F08F2DE9F05F05460020924689
:1009F0009B4688460646814640241BE028464146E1
:100A00004746224600F05DF953465A46C01A9141C6
:100A100010D311461846224600F044F92D1A67EB10
:100A200001084F4622460120002100F03BF917EB58
:100A300000094E41201EA4F10104DFDC4846314686
:100A40002A464346BDE8F09F10B5431A934209D2A7
:100A50008318881803E010F8011D03F8011D521EC9
:100A6000F9D210BD40EA01039B0703D009E008C991
:100A7000121F08C0042AFAD203E011F8013B00F863
:100A8000013B521EF9D210BDD2B201E000F8012B99
:100A9000491EFBD270470022F6E710B513460A46FE
:100AA00004461946FFF7F0FF204610BD30B5044656
:100AB0000020034600E05B1C934203D2E05CCD5C67
:100AC000401BF8D030BD2DE9FE4F804681EA03007F
:100AD000C00F0C46009021F0004123F00045B8EB18
:100AE0000200A94105D24046214690461C460B46CD
:100AF000024623F00040104347D0270DC7F30A00F9
:100B0000C3F30A510290401A019040286BDAC3F3F4
:100B1000130040F4801B0098924620B10023D2EBD2
:100B2000030A63EB0B0B01985946C0F14002504693
:100B300000F0B8F806460D4650465946019A00F0B6
:100B4000D0F810EB08006141002487EA115284EAD2
:100B5000E7731A4340D0009A62B3019A012A4FEA20
:100B6000075215DC001B61EB02014FF0004202EA64
:100B70000752CDE90042001C41F5801132462B4658
:100B800000F0D0F803B0BDE8F08F40462146F9E709
:100B9000001B61EB0201001C41F5801300185B4152
:100BA0002018A2F5001747EB030140EAD570B619EB
:100BB0006D4111E06D084FEA360645EAC0754FEA0F
:100BC0000752001B61EB0201001C41F5801149082E
:100BD0004FEA30000019514132462B4603B0BDE8C0
:100BE000F04F00F090B80098012240000023D0EBB5
:100BF000020263EBE073009821464FEAE074B8EB21
:100C0000000061EB0401E9E783F000435BE781F05A
:100C1000004158E770B5C1F30A5201F000450024C5
:100C2000C1F3130140F2FF3341F480119A4201DA1B
:100C3000002070BD40F233439A42A2F2334203DCFB
:100C4000524200F03EF800E090402C43F1D0404288
:100C500070BD00F0004230F000400AD0C10D01F537
:100C60006071C0F3160042EA0151C2084007114307
:100C7000704700200146704730B50B460146002002
:100C80002022012409E021FA02F59D4205D303FA4E
:100C900002F5491B04FA02F52844151EA2F10102CF
:100CA000F1DC30BD202A04DB203A00FA02F10020FA
:100CB00070479140C2F1200320FA03F3194390409A
:100CC0007047202A04DB203A21FA02F00021704705
:100CD00021FA02F3D040C2F12002914008431946A4
:100CE0007047202A06DBCB17203A41FA02F043EA8C
:100CF000E07306E041FA02F3D040C2F120029140D5
:100D000008431946704710B5141E73F1000408DA41
:100D1000401C41F1000192185B411A4301D120F0BF
:100D2000010010BD2DE9F04D92469B4611B1B1FA7C
:100D300081F202E0B0FA80F220329046FFF7B2FF73
:100D400004460F4640EA0A0041EA0B0153465A4660
:100D5000084313D0114653EA010019D0C8F14002EC
:100D60005046FFF7AEFF05460E46504659464246EE
:100D7000FFF798FF084305D0012004E020463946DC
:100D8000BDE8F08D0020054346EAE0762C4337436A
:100D90000A986305E40AA0EB08000022FD0A44EA71
:100DA00047540A3002D500200146E9E70105101931
:100DB0006941DDE9084500196941BDE8F04DA2E748
:100DC000064C074D06E0E06840F0010394E8070098
:100DD00098471034AC42F6D3FFF7DAF9E07704080D
:100DE0000078040870B58C1810F8015B15F0070343
:100DF00001D110F8013B2A1106D110F8012B03E0B4
:100E000010F8016B01F8016B5B1EF9D12B0705D4BB
:100E10000023521E0DD401F8013BFAE710F8013B04
:100E2000CB1A921C03E013F8015B01F8015B521E20
:100E3000F9D5A142D8D3002070BD00002DE9F84FAC
:100E400004460E4637461CE1904D4834203CD4F809
:100E50001C80D5F800A02D1DD4F8209028680090A3
:100E60002D1D41465046FFF7ABF983464946009891
:100E7000FFF7A6F9ABEB00004000E06149465046A1
:100E8000FFF79EF9834641460098FFF799F95844C9
:100E900040002062D4F81880D5F800A02D1DD4F8A9
:100EA0002490286800902D1D41465046FFF788F990
:100EB000834649460098FFF783F9ABEB00004000FA
:100EC000A06149465046FFF77BF9834641460098AA
:100ED000FFF776F9584440006062D4F81480D5F8E2
:100EE00000A02D1DD4F82890286800902D1D4146A3
:100EF0005046FFF765F9834649460098FFF760F9C9
:100F0000ABEB00004000606149465046FFF758F9DE
:100F1000834641460098FFF753F958444000A062C9
:100F2000D4F81080D5F800A02D1DD4F82C90286896
:100F300000902D1D41465046FFF742F98346494631
:100F40000098FFF73DF9ABEB0000400020614946F7
:100F50005046FFF735F9834641460098FFF730F9D0
:100F600058444000E062D4F80C80D5F800A02D1D54
:100F7000D4F83090286800902D1D41465046FFF768
:100F80001FF9834649460098FFF71AF9ABEB0000BA
:100F90004000E06049465046FFF712F9834641465B
:100FA0000098FFF70DF9584440002063D4F80880FA
:100FB000D5F800A02D1DD4F83490286800902D1D80
:100FC00041465046FFF7FCF8834649460098FFF734
:100FD000F7F8ABEB00004000A06049465046FFF731
:100FE000EFF8834641460098FFF7EAF8584440007E
:100FF0006063D4F80480D5F800A02D1DD4F8389093
:10100000286800902D1D41465046FFF7D9F88346C9
:1010100049460098FFF7D4F8ABEB00004000606051
:1010200049465046FFF7CCF8834641460098FFF703
:10103000C7F858444000A063D4F80080D5F800A059
:101040002D1DD4F83C90286800902D1D4146504637
:10105000FFF7B6F8834649460098FFF7B1F8ABEBC7
:1010600000004000206049465046FFF7A9F883463B
:1010700041460098FFF7A4F858444000E06320344C
:101080007F1E002F3FF7E0AEBDE8F88F88580408B8
:1010900000BFFEE7014609B920207047002201E0A9
:1010A000521C490001F000400028F9D01046F4E736
:1010B000014609B920207047002201E0521C490076
:1010C00001F000400028F9D01046F4E710B50246C0
:1010D0001346002002E000241C54401C8842FADB26
:1010E00010BD70B500254FF4803400E0641E24B1BB
:1010F000802008F023FB0028F8D014B903252846E7
:1011000070BD40F2FF5008F0D5FA2846F8E700001D
:101110002DE9F041064600274848056801E04748A8
:10112000056805F045000028F9D005F0040030B14D
:101130000327042008F0BEFA3846BDE8F08105F028
:10114000010028B10127012008F0B4FA3846F4E77D
:1011500008F0EEFAB04202D010273846EDE740F230
:10116000FF5008F0A7FA002008F008FB04463448B6
:10117000204008B93846E0E704F0004008B11C20E0
:10118000DBE704F0804008B10920D6E704F0005006
:1011900008B10A20D1E704F0805008B10B20CCE759
:1011A00004F0006008B10C20C7E704F0806008B1CB
:1011B0000D20C2E704F0807008B10E20BDE704F4F2
:1011C000000008B10F20B8E704F4800008B1102037
:1011D000B3E704F4001008B11120AEE704F4801066
:1011E00008B11220A9E704F4002008B11320A4E7F5
:1011F00004F4802008B114209FE704F4003008B103
:1012000015209AE704F4803008B1162095E704F41D
:10121000004008B1172090E704F4804008B118207E
:101220008BE704F4005008B1192086E704F00800A9
:1012300008B11A2081E738467FE70000342C0140CE
:1012400008E0FFFD70B500251048046801E00F4874
:10125000046804F045000028F9D004F0040028B127
:101260000325042008F026FA284670BD04F001008A
:1012700028B10125012008F01DFA2846F5E740F2C3
:10128000FF5008F017FA2846EFE70000342C014021
:1012900070B500250B48046801E00A48046804F0B2
:1012A00045000028F9D004F0040028B103250420EB
:1012B00008F000FA284670BD40F2FF5008F0FAF935
:1012C0002846F8E7342C01402DE9F04106460F4648
:1012D0004FF000082248056801E02148056805F044
:1012E00045000028F9D005F0040038B14FF003089C
:1012F000042008F0DFF94046BDE8F08105F0010068
:1013000030B14FF00108012008F0D4F94046F3E76E
:1013100008F00EFAB04203D04FF010084046EBE759
:1013200040F2FF5008F0C6F9002008F027FA044602
:1013300004F4604018B9200C38804046DCE704F41F
:10134000005008B11320D7E704F4804008B1102002
:10135000D2E704F4004008B10F20CDE74046CBE7C8
:10136000342C014070B500264FF480350F480468D6
:1013700002E06D1E0D48046804F0450008B9002D18
:10138000F7D115B104F0040028B10326042008F0B9
:1013900091F9304670BD04F0400028B1002640208D
:1013A00008F088F93046F5E73046F3E7342C014081
:1013B00010B50749074800F043F9012806D1044950
:1013C000044800F03FF804480068804710BD000062
:1013D0000080001858600240F400002010B5074952
:1013E000074800F02DF9012806D10449044800F00F
:1013F00029F804480068804710BD000000880020DC
:1014000088600240F000002010B508F0BFFE10BD5B
:101410000246094B9A4201D2084801E006481038BA
:1014200001F000531BB1064B0B40C36002E0044BBC
:101430000B4083607047000010640240006002406F
:101440007D0F7D0F0246094B9A4201D2084801E008
:101450000648103801F000531BB1064B0B40C36027
:1014600002E0044B0B4083607047000010640240B0
:10147000006002407D0F7D0F21B1026842F0010241
:10148000026003E0026822F001020260704700007F
:10149000016821F00101016000210160416081606B
:1014A000C1600161212141614A49884204D13D2145
:1014B000484A103A91608CE046491831884205D17B
:1014C0004FF47461434A103A916082E041493031EF
:1014D000884205D14FF474113E4A103A916078E089
:1014E0003C494831884205D14FF07461394A103A7D
:1014F00091606EE037496031884204D13649354AFF
:10150000103AD16065E033497831884204D13349DB
:10151000304A103AD1605CE02E499031884204D1C3
:101520002F492C4A103AD16053E02A49A831884209
:1015300005D14FF03D51274A103AD16049E0294981
:10154000884204D13D21274A083A116041E02549EB
:101550001831884205D14FF47461224A083A11606B
:1015600037E020493031884205D14FF474111D4ACB
:10157000083A11602DE01B494831884205D14FF0EF
:101580007461184A083A116023E0164960318842B4
:1015900004D11149134A121F11601AE01149783120
:1015A000884204D10D490F4A121F116011E00D4904
:1015B0009031884204D10A490A4A121F116008E09A
:1015C0000849A831884204D14FF03D51054A121F05
:1015D00011607047106002403D000020400F002065
:1015E00000003D201064024021B1026842F48022D4
:1015F000026003E0026822F480220260704722B198
:10160000036843F40023036003E0036823F400232A
:1016100003600161704721B1026842F0200202605C
:1016200003E0026822F020020260704701460020B9
:101630000A6802F001020AB1012000E000207047B0
:1016400070B50246002000240025124EB24201D29D
:10165000114B01E00F4B103B104E0E4036B11E26D1
:1016600006EAD124166806EA040502E0566906F087
:10167000800501F000560EB15C6800E01C68084E61
:10168000344004EA010616B10DB1012000E000204B
:1016900070BD000010640240006002403C0F3C0F2F
:1016A0007D0F7D0F10B501F080034BB122B143696E
:1016B00043F08003436103E0436923F08003436107
:1016C00080290BD02AB1036801F01E042343036074
:1016D00004E0036801F01E04A343036010BD000092
:1016E00010B500220268134B1A40CC680B682343E4
:1016F0004C6923438C692343CC6923430C6A2343FD
:101700004C6A23438C6A23434C6B23438C6B2343E7
:101710001A430260426922F00702D1E90B342343E5
:101720001A4342610B6943604B6883608B68C360F6
:1017300010BD00003F801CF07047000000B587B06E
:101740000121084607F0E4FD0121102007F020FEEA
:1017500000208DF81A0001208DF81B0002208DF862
:1017600019008DF818000002059005A9174800F02F
:1017700033FE02208DF818004002059005A9134899
:1017800000F02AFE07220A21104800F06DFE072211
:1017900009210E4800F068FE4FF4E130019000206E
:1017A000ADF80800ADF80A00ADF80C00ADF8100077
:1017B0000C20ADF80E0001A9054809F0E1F901215E
:1017C000034809F0C3F907B000BD00000000024063
:1017D000001001402DE9FF4F87B005460E46149CCE
:1017E000002E03DC00200BB0BDE8F08F002B02DAE6
:1017F0004FF0FF30F7E70593DFF858B309985BF82F
:101800002000DFF854B30BEB40000190DFF84CB33D
:1018100009985BF830C009980BEBC0000079029082
:1018200000221598404200F0070129B114F8010B7D
:10183000C1F1200B00FA0BF25B1A029898B9002054
:1018400006900BE04FF0000B069845F820B0069884
:10185000401C45F820B00698801C06900698B042BF
:10186000F0DB0020BFE70298012879D101980078C9
:1018700000F00F0004900198801C01904FF0000AC6
:1018800065E0102B10DB14F8010BC1F1180B00FA06
:101890000BF0024314F8010BC1F1100B00FA0BF02E
:1018A00002431031103B22E0C818002802DC4FF040
:1018B000FF3098E7002B06DD14F8010BC1F1180B7F
:1018C00000FA0BF00243082B06DD14F8010BC1F1FE
:1018D000100B00FA0BF0024319440023481E4FF08E
:1018E000004B4BFA00F002404FF00B0A51442AE043
:1018F0000498C0F1200022FA00F0DDF804B03BF8B3
:1019000010804FEA183EA1EB0E0102FA0EF2C8F366
:101910000319B9F1000F05D002F0004040EA0909AF
:101920005200491EC8F3032727B102F000400743C5
:101930005200491E514502DA4FF0FF3053E745F897
:10194000049B80C5B61E002E01DD0B29D0DA002EC7
:1019500097DCA1EB0A0003440598C01A43E7FFE7B0
:101960000298032802D00298022876D101980090AC
:101970004FF0000AE2E0102B10DB14F8010BC1F16C
:10198000180B00FA0BF0024314F8010BC1F1100B15
:1019900000FA0BF002431031103B22E0C818002877
:1019A00002DC4FF0FF301EE7002B06DD14F8010BC0
:1019B000C1F1180B00FA0BF00243082B06DD14F8F6
:1019C000010BC1F1100B00FA0BF002431944002384
:1019D000481E4FF0004B4BFA00F002404FF00B0A4C
:1019E0005144A6E00098007800F00F00049004989D
:1019F000C0F1200B22FA0BF0401CDDF800B03BF8E0
:101A000010804FEA183EBEF1000F08D10498091A61
:101A100004988240009800EB4800009089E0A1EB18
:101A20000E0102FA0EF2C8F30319C8F30327B9F145
:101A30000F0F33D10298032830D10FB1012000E0FD
:101A400000200CF1010B5844039001EB030B0398A9
:101A5000834503DA4FF0FF30C5E678E008E014F87C
:101A6000010BC1F1180B00FA0BF002430831083BDF
:101A700003988142F3DB002B07DA19440023481E48
:101A80004FF0004B4BFA00F00240CCF1200022FA5C
:101A900000F08144A1EB0C0102FA0CF2B9F1000F45
:101AA00005D002F0004040EA09095200491E0F2FFC
:101AB0002DD1029803282AD10CF10100039001EBEB
:101AC000030B0398834502DA4FF0FF308BE608E002
:101AD00014F8010BC1F1180B00FA0BF002430831A6
:101AE000083B03988142F3DB002B07DA19440023FB
:101AF000481E4FF0004B4BFA00F00240CCF12000A2
:101B000022FA00F00744A1EB0C0102FA0CF227B113
:101B100002F0004007435200491E514502DA4FF0DF
:101B2000FF3060E645F8049B80C5B61E0198009022
:101B300000BF002E02DD0B29BFF654AF002E3FF789
:101B40001AAFA1EB0A0003440598C01A4BE64FF008
:101B5000FF3048E63852040814310408B85204082B
:101B60002DE9FF4F83B00546109C002B03DC0020BD
:101B700007B0BDE8F08FDFF858E105985EF8200067
:101B8000DFF850E170440090DFF84CE105985EF812
:101B90002000029000221198404200F0070129B174
:101BA00014F8010BC1F1200E00FA0EF25B1A0027A7
:101BB000019785E0102B10DB14F8010BC1F1180E12
:101BC00000FA0EF0024314F8010BC1F1100E00FAF6
:101BD0000EF002431031103B22E0C818002801DC4F
:101BE0003846C5E7002B06DD14F8010BC1F1180ECD
:101BF00000FA0EF00243082B06DD14F8010BC1F1C8
:101C0000100E00FA0EF0024319440023481E4FF054
:101C1000004E4EFA00F002400A2001900198014463
:101C200048E00298C0F1200022FA00F0DDF800E060
:101C30001EF800604FEA161BA1EB0B0102FA0BF233
:101C4000C6F3C00CBCF1000F05D002F0004040EA22
:101C50000C0C5200491EC6F38008B8F1000F05D0E5
:101C600002F0004040EA08085200491EC6F340094D
:101C7000B9F1000F05D002F0004040EA0909520016
:101C8000491E06F0010ABAF1000F05D002F000402B
:101C900040EA0A0A5200491E0198814201DA384698
:101CA00066E745F804CB45F8048B45F8049B45F8F6
:101CB00004AB3F1D0498C01EB84201DD0A29B0DA0A
:101CC0000498C01EB8423FF775AF384650E7000091
:101CD00008540408B85304081054040801B5044912
:101CE0000098086000BF024800680028FBD108BDCA
:101CF000740000202DE9FF4F87B0834698460020EE
:101D0000009008F00300604901EB801A08F003001E
:101D10005E4951F8200002901F20B0EBA80F02DDB1
:101D20004FEAA80000E01F200746F81C1F2800DA31
:101D300000E01F200546002D01DD284600E00020C0
:101D4000054600200390DAF8040028410490DAF8F0
:101D5000080028410590DAF80C002841069000BFE1
:101D60005BF8040B0190019820F00044042C03DA86
:101D700003A850F824606FE0102C0BDA5AF82460A6
:101D8000002F03DA794206FA01F001E046FA07F083
:101D9000064661E0402C0BDAA4F110003C4951F8F2
:101DA000206030460299FEF70BFA0646FD1E45E01C
:101DB00064040025B4F1006F01DA24012D1DB4F193
:101DC000005F01DAA400AD1CB4F1804F01DA6400B9
:101DD0006D1C3048844201DA2F4800E02F488146CC
:101DE000D9F8006021463046FEF7EAF9D9F8041028
:101DF000461821463046FEF7E3F9D9F80810461890
:101E000021463046FEF7DCF9D9F80C104618214679
:101E10003046FEF7D5F9D9F810104618204850F88A
:101E200025103046FEF7CCF9C60030460299FEF781
:101E3000C7F906461B4850F825003D1A002D0ADA5E
:101E40006D426FF000402841B04202DA6FF0004668
:101E500002E0AE4000E02E4100983043009001982F
:101E6000002801DA704200E03046089908600898BE
:101E7000001D08900998401E099000287FF470AF5B
:101E800000980BB0BDE8F08FEC2E0408DC2E04089F
:101E9000EC2F04089A79825AAC300408C030040848
:101EA000F4300408D430040851B18200A2F1C042D9
:101EB000126842F001038200A2F1C042136009E0FF
:101EC0008200A2F1C0421268034B1A408300A3F1C2
:101ED000C0431A6070470000FEFF0F0030B50021BC
:101EE000002200230468A400A4F1C0442168424CED
:101EF0002140D0E901452C43C5682C4305692C439A
:101F000045692C4385692C43C5692C43056A2C43DC
:101F1000456A2C43856A2C43C56A2C43056B2C43C8
:101F200021430468A400A4F1C04421608468082C03
:101F30000BD10468A400A4F1C044246844F0400517
:101F40000468A400A4F1C04425600468641CA400D3
:101F5000A4F1C044226802F04042446B2468456BFF
:101F60006D6844EA0514456BAD6844EA0524456B89
:101F7000AD8944EA0544456B2D8A44EA0554456B16
:101F80002D7D44EA0564456BAD692C43224304680A
:101F9000641CA400A4F1C0442260C46AB4F5804F5C
:101FA00020D10468A400A4F1C044D4F80431134C37
:101FB0002340846B2468856B6D6844EA0514856B47
:101FC000AD6844EA0524856BAD8944EA0544856B18
:101FD000AD692C4323430468A400A4F1C044C4F8B1
:101FE000043107E06FF070450468A400A4F1C04418
:101FF000C4F8045130BD00008000F7FF0000F0CFAE
:102000002DE9FC4107460D460026002400200090E3
:10201000019008205B4908601020486040208860DB
:102020000020C8604FF480600861084607F0E4FBB8
:102030001020FFF76DF8044614B12046BDE8FC817E
:102040005148008800044F4908603720486040200C
:1020500088600020C8604FF480600861084607F07F
:10206000CBFB3720FFF754F804460CB12046E5E7D8
:102070004FF0FF30454908600820486030208860F4
:102080000220C8600020086101204861084607F06E
:1020900029FB00203B4908603320486040208860CD
:1020A0000020C8604FF480600861084607F0A4FB78
:1020B0003320FFF72DF804460CB12046BEE709E0B7
:1020C0004FF4001007F03AFB20B107F08FFB4DF8FA
:1020D0002600761C2E48006840F22A61084000283D
:1020E000EED0082007F02AFB28B1082007F0E2FA1A
:1020F00004242046A2E7022007F020FB28B102209A
:1021000007F0D8FA0224204698E7202007F016FBB3
:1021100028B1202007F0CEFA062420468EE74FF49F
:10212000007007F00BFB30B14FF4007007F0C2FAFB
:102130000724204682E740F2FF5007F0BBFA0098E0
:102140000006009901F47F4140EA0120009901F462
:102150007F0140EA1120009940EA1160686001980F
:102160000006019901F47F4140EA0120019901F440
:102170007F0140EA1120019940EA11602860204661
:102180005CE7000048040020600000205C040020A0
:10219000342C01402DE9F04F89B004460F46924699
:1021A0001D46002D5BD10AF00100002853D0803479
:1021B000D4F800B004F580742068089004F58074A9
:1021C0002068079004F580742068069004F58074F8
:1021D0002068059004F580742068049004F58074EC
:1021E0002068039004F580742068029004F58074E0
:1021F0002068019004F58074A4F51064CBF1000010
:10220000206004F5807408984042206004F58074D2
:1022100007984042206004F5807406984042206090
:1022200004F5807405984042206004F58074049899
:102230004042206004F5807403984042206004F519
:10224000807402984042206004F5807401984042F6
:10225000206004F58074002009B0BDE8F08F4FF0D5
:1022600000090AF0010000284AD0C84644E0266868
:10227000F017C5F11F0146FA01F1814206D0C5F100
:102280001F0201219140491E81EA000606FA05F06D
:1022900020602068FDF797FF40EA09098034206834
:1022A0004642F017C5F11F0146FA01F1814206D0FE
:1022B000C5F11F0201219140491E81EA000606FA7C
:1022C00005F020602068FDF77EFF40EA09098034B0
:1022D0003E68F017C5F11F0146FA01F1814206D0B0
:1022E000C5F11F0201219140491E81EA000606FA4C
:1022F00005F001C708F10208B8F1120FB7DB49E099
:102300004FF0000843E02668F017C5F11F0146FAB8
:1023100001F1814206D0C5F11F0201219140491E01
:1023200081EA000606FA05F020602068FDF74BFF01
:1023300040EA090980342668F017C5F11F0146FA02
:1023400001F1814206D0C5F11F0201219140491ED1
:1023500081EA000606FA05F020602068FDF733FFE9
:1023600040EA090980343E68F017C5F11F0146FABA
:1023700001F1814206D0C5F11F0201219140491EA1
:1023800081EA000606FA05F001C708F10208B8F173
:10239000120FB8DB48465FE710B5002002F0ACFD35
:1023A0006FF07F4002F0AAFD012002F0E3FD002063
:1023B00002F0E8FD002002F0EFFD002002F0A6FD93
:1023C0000448006802F0A4FDBDE81040002002F0BF
:1023D000AFBD0000BC010020F0B50A46002100237B
:1023E000002400BF3DE0012505FA01F3156805EA68
:1023F00003049C4234D105684F000326BE40B54318
:10240000056015794E00B5400668354305601579BD
:10241000012D02D01579022D16D185684F000326B3
:10242000BE40B543856055794E00B540866835435A
:102430008560456801268E40B543456045689679BC
:102440008E40B6B235434560C5684F000326BE4096
:10245000B543C560D5794E00B540C6683543C56003
:10246000491C1029BFD3F0BDF0B5002300244D074F
:10247000ED0E02FA05F3CE1000F1200555F82650B6
:102480004E07F70E0F26BE40B543CF1000F12006D1
:1024900046F82750CE1000F1200555F8265045EAA1
:1024A0000304CE1000F1200545F82640F0BD024699
:1024B000002013690B400BB1012000E000207047A1
:1024C00041837047018370472DE9F04F4B4989B034
:1024D0000968B1F922200692D1F81CC0B1F9247024
:1024E000DCF81C40A28982429CBFE389984205D84F
:1024F000A0EB02094FF0FF38266812E0D4E9016230
:10250000002A71D0138883429CBF5588A8426BD89B
:10251000C01A526880B202EB8000B0F90090B0F9A6
:102520000280B9F1FF3F5FD09CF81800A27C10FB3D
:1025300002FB94F810A00790B1F92A50284606F043
:10254000D7F9C0B208902D4809FB0B620068A37C44
:102550004FF00109816BCDE90293CDE90421C069F7
:102560005246C17E807ECDE90001DDE90603394691
:1025700005F070FCB8F1FF3F18D045F0020006F0FE
:10258000B7F91E48A37C08FB0B620068816BCDE99C
:102590000293CDE90421C0695246C17E807ECDE917
:1025A0000001DDE90603394605F054FC134E30689E
:1025B000C069417E007E814213D9022D11D085F081
:1025C000040006F095F93068C069017EC27E11FBF7
:1025D0000271427ED319827E06981AFB020205F030
:1025E000E1FD089806F084F90448627C0068418C9B
:1025F0001144418409B0BDE8F08F0000C001002003
:10260000044800290068C069C0691CBF027C0A60D8
:10261000407C7047C0010020022008807047C069DC
:1026200082898A429CBFC289914210D9806880B158
:1026300002888A429CBF438899420AD8406800EBCE
:102640008100A0EB8200B0F90000002801DB01202E
:10265000704700207047002808BF70470AF0DCBFB1
:1026600038B50546FFF7F7FF040009D000F0BEF8C3
:102670002A460021009004F07FF9684600F012F924
:10268000204638BD024A106021F0030050607047B8
:10269000E0960120002808BF704770B50E4C054633
:1026A000606B10F83510002918BF022928BF70BDD3
:1026B000042101EBC506815948680AF04FFF6068A4
:1026C000401C6060616B606A8851616B002001F89A
:1026D0003500656270BD000020960120002808BF0B
:1026E0007047044AD16B0160002918BF4860D0636D
:1026F00070470000209601202DE9F04104460EF0BD
:10270000ADF9E01C274E20F00300051D306CA842F7
:1027100088BF0546F46BBCB154F8041CA94210D123
:102720009CB1206800281CBF616841606068002877
:102730001CBF21680160F16BA14204BF2068F063F7
:102740002DE02468002CE7D10024F168B06B00EB89
:10275000010858F8040CA8EB0007386840B10020C5
:102760000EF008FD58F8040CA8EB00073868B0B963
:102770007868A84213DB3844401B041D38460EF02D
:10278000CBFCF068401BF060706928447061786889
:10279000401B1CBF39460AF0E1FE44F8045C2046A9
:1027A000BDE8F0812096012010B500240EF056F906
:1027B0000D490F2001EBC002526C8AB101EBC00041
:1027C000406C806848B14168A14288BF0C4680686F
:1027D00000281CBF80680028F5D1A4F10C0010BDB2
:1027E000401EE7D5F9E70000209601200949CA6993
:1027F000521CCA614A6B02EBC00213785B1C137057
:10280000002808BF7047496B042202EBC00008583B
:10281000083070472096012010B500240EF01EF9F4
:10282000174B184A0F2000BF02EBC001496CD9B109
:1028300002EBC000406C8068C0B14168A14288BF13
:102840000C46806800281CBF80680028F5D1A4F1E0
:102850000C00B0F5800F0CD983FB00104111A1EBE7
:10286000E070116A484310BD401EDDD5A4F10C0094
:10287000F2E7116A4843A3FB0010400910BD0000B5
:102880001F85EB51209601200549102898BF102084
:1028900004D94A68B0EB520F28BF500888607047CF
:1028A000E09601200A4902684B6B52F8082C03EBB2
:1028B000C2021378022B04D3CB69002B1CBF5B1E12
:1028C000CB611178491E11700021016008467047E4
:1028D00020960120002808BF70470449042202EB1B
:1028E000C000496B0858083070470000209601204E
:1028F0002DE9F0012D24D3F800C0B0F1004F34D001
:1029000000250028A8BF4FF0000C07DA0CF10106E3
:102910001E608CF8004040424FF0010CA1EB0C010E
:10292000C9B2002A1CBF491EC9B200291CBF234FCF
:10293000234E3DD08C46491EC9B2944508D1D3F8E8
:1029400000C03C780CF10108C3F800808CF800400E
:1029500056F8214090FBF4FC0CF0FF0CBCF10A0F80
:1029600026D80CFB140081B909E00CF10106012501
:102970001E606FF000408CF80040491ED0E7002D2B
:102980001CBF0CF1010C0CF0FF0CBCF10A0F03D1C1
:10299000491C4FF0010CC9B20CF13004D3F800C04F
:1029A00000290CF10108C3F800808CF80040C1D167
:1029B000196800200870BDE8F0017047B4010020DC
:1029C000DC6C040802490968497C00F003B8000087
:1029D000C00100202DE9F84F05460E46084600F0DC
:1029E0000DFC8346DFF8C080304806EB860A0127DD
:1029F00058F82A90016831B92E4907602C480860C0
:102A0000084603F0B1FF284906EB860001EB80047D
:102A1000BBF1000F21D0584602F056FA00904FF05B
:102A20007F4002F069FA00F0C9F8002211462868D8
:102A300000F08CFA286842880188584602F074FA3F
:102A400048F82A506771009802F03EFA304600F0CC
:102A5000D5FBE0B9607900BB23E048F82A506771E4
:102A6000206918B101F0AEFE00202061CDB10097C1
:102A7000E068A9683346421AA0686968411A286864
:102A800002F0A6F92061304600F0B8FB18B1012130
:102A900002F04CFA05E0607918B12771206902F064
:102AA0006DF94846BDE8F88F5C97012004020020CC
:102AB000D90E01080802002070B506460D461446DE
:102AC000104600F09BFB0300154804EB84010AD07C
:102AD00050F8210041688068711A2A1ABDE87040D8
:102AE000184602F01FBA00EB8104A268B24214BF7C
:102AF00001220022E368AB4214BF012300231A43E2
:102B000008BF70BD236943B150F821008168406857
:102B10006A1A311A184601F07DFEC4E9026570BDDB
:102B20005C97012070B5124801250068417C11486E
:102B300001EB810200EB8204657150F8220040B184
:102B4000084600F05BFB48B1BDE87040012102F08F
:102B5000EDB9BDE870400848FFF73CBF6079002838
:102B600008BF70BD25712069BDE8704002F006B94C
:102B7000C00100205C970120186D0408C2B2CBB2DE
:102B8000D21A48BF524292B202FB02F3C0F30722AC
:102B9000C1F3072CB2EB0C0248BF524292B2000CB8
:102BA000A0EB114002FB023200B20028BCBF404241
:102BB00000B280B200FB0020704700002DE9F04118
:102BC000002182B0084600F075FB43F6FF763746D9
:102BD000042005F08DFE80461148C068C16C006D70
:102BE0008D1B841B0E440744ADF80050ADF8046003
:102BF000ADF80240ADF80670684609F039FE48B1FC
:102C00003B4632462146284605F0CCFA09F07EFCC8
:102C10000028F5D1404605F06BFE02B0BDE8F0811A
:102C2000B4010020022BA4BF002070472DE9F04121
:102C300006461C4615460F461C20FFF75DFD002882
:102C400008BFBDE8F081002F18BF07610BD10A4A09
:102C500052F8241039B10A681AB111461268002AD4
:102C6000FBD10969016184618582002101604160B5
:102C7000C0E90216BDE8F081D80100202DE9F0413D
:102C800000241D46074688461646022B27DA1C20DC
:102C9000FFF732FD18B3B8F1000F18BFC0F810806D
:102CA0000BD1104A52F8251039B10A681AB11146F1
:102CB0001268002AFBD1096901618561868204607E
:102CC0004460C0E90247040009D000F011F8E06850
:102CD000006820B90448006800EB85008465204640
:102CE000BDE8F081D8010020C0010020FFF7F6BC4C
:102CF00000281CBF8269022AA4BF0120704710B4BB
:102D0000244C54F82210002908BF44F822003AD07D
:102D10004B682BB119465B68002BFBD1002935D0DD
:102D2000C3681B68D1F80CC0DCF800C09C4503DD0B
:102D300009680029F6D129E041B3D1F80CC0DCF8CC
:102D400000C09C4504BFB0F814C0BCF1010F0DD108
:102D5000D1F800C0BCF1000F07D06146DCF80CC010
:102D6000DCF800C09C45F3DA00E079B14B68002B39
:102D70001DBF18604A68426044F8220048608842DB
:102D800008BF0021016010BC0020704710BC01206A
:102D900070470000D80100200B4A816952F82130A9
:102DA000834204BF036842F82130416800291CBFF8
:102DB00002680A60016800291CBF42684A6000215D
:102DC0000160416070470000D80100200228A4BFC4
:102DD00000207047064951F82000002808BF7047BE
:102DE000C168096800291CBF00680028F8D1704735
:102DF000D801002070B5044602F04CFF10EB04052A
:102E000002F048FF2C1A002CD8BF70BD00F014F956
:102E1000052CC8BF0524204602F02EFFF0E700B5C0
:102E200085B00022CDF80CD003ABFFF761FD6846FA
:102E300000F002F805B000BD002808BF70472DE97A
:102E4000F04F83B0054600F0EBF93B4C804620681C
:102E5000B0F9227000F006FA82462068818CA1EB5E
:102E60000A0181842878002818BFA8F1010946D0FA
:102E700047F6FF71284603F0F1FB834601462846DA
:102E800003F0B2FB2168064691F82C0000F0030025
:102E9000012808BF304605D0022812BF002006EBEB
:102EA000D67040104A8C101A4884ADF80000721E8B
:102EB0001044ADF80400888CADF802004844ADF829
:102EC00006006A465946284603F0A6F82168BDF870
:102ED000020088845946284602F0A0FD054428785F
:102EE0000A2818BF0D2815D0BDF80000216830440D
:102EF0004884287818B115F8010F0028B8D1206847
:102F0000818C51448184818D21F00301818503B03E
:102F1000BDE8F08F206890F82C1001F00301012922
:102F20001DBF0229018C4184478429780A29E0D1F8
:102F3000818C41448184DCE7C0010020024B1B6886
:102F400059849A84FFF778BFC00100202DE9F04F23
:102F5000374F044689B03868C36C006D5E18851819
:102F60002088711E0844ADF81860ADF81C00608818
:102F7000691E0844ADF81E00ADF81A5006A809F005
:102F800077FC002819BFDFF8ACB04FF0010A09B098
:102F9000BDE8F08F0020D4F80C9001F0B7FF804618
:102FA000B9F1000F1BBF99F80400002828F00200B7
:102FB00048F0020001F0AAFF206970B1D4E90212C2
:102FC0000091CDE9012ACDF80CA0D0F800C06388AB
:102FD000228829463046E04718E03868DBF80030A0
:102FE0002146427CE0689847D0B1A288E388A16876
:102FF000CDF800A0CDE90410CDE90232CDF804A04F
:10300000638822882946304604F024FF404601F0B8
:103010007DFF09F07BFA0028BCD109B0BDE8F08F34
:10302000E088012812BF00203868806BDDE70000CF
:10303000C0010020B80100202DE9F041154D002706
:103040003C46286818B18047002818BF012408F0C2
:10305000C9FA002818BF01240F4E306808B1804714
:1030600000B99CB101272868002418B180470028C6
:1030700018BF012408F0B6FA002818BF01243068F0
:1030800010B180470028EDD1002CEBD13846BDE8C7
:10309000F0810000E4010020E0010020002808BFCA
:1030A0007047B0F806C083888068BCF1080F02BF83
:1030B00002FB0311405C704709DCBCF1010F0ED02C
:1030C000BCF1020F17D0BCF1040F21D005E0BCF118
:1030D000100F28D0BCF1200F2BD0002070475A438E
:1030E00002EBD10201F00701805CC1F10701C84089
:1030F00000F0010070475A4302EB9102805C062207
:1031000002EA4101C1F10601C84000F00300704726
:103110005A4302EB510211F0010F805C14BF00F022
:103120000F00000970475B0802FB031130F8110023
:1031300070479B0802FB031150F821007047DDF82F
:1031400000C0082802BF0CFB0130105C704708DC8F
:103150000CFB01F101280AD0022813D004281DD04D
:1031600003E0102824D0202828D00020704701EB4D
:10317000D30003F00701105CC1F10701C84000F063
:103180000100704701EB93000621105C01EA430146
:10319000C1F10601C84000F00300704701EB530085
:1031A00013F0010F105C14BF00F00F00000970470E
:1031B00048100CFB003032F81000704788100CFBF0
:1031C000003052F820007047034951F82000C168D0
:1031D0008A6A082110470000D801002002490968C6
:1031E000C9694A6800211047C0010020024A1268DC
:1031F000D269526810470000C00100200021022857
:103200003CBF024951F8201008467047FC020020DC
:1032100002480068B0F9240070470000C001002097
:1032200002480068C069407E70470000C00100206D
:1032300070B514460D4605F03FF8002808BF70BD74
:1032400000202860206070BD044AB2F900200260AE
:103250000348B0F900000860704700000002002039
:10326000020200200A490020096891F82C2002F08F
:103270000C02042A07D0082A1CBF0C2A7047C86910
:10328000007E40087047C869007E401E70470000FD
:10329000C0010020024951F8200000690068704711
:1032A000D8010020024951F82000006940687047A9
:1032B000D8010020024A126850840020918470478F
:1032C000C00100200249096888840020704700007E
:1032D000C00100202DE9F0413448016821F00101CE
:1032E0000160334801268660324901600068324936
:1032F000884200D0FEE7314DA86960B9AE6102F0A6
:10330000A9FC05F079FB05F11C012D480860084671
:103310006969416068612E20287002F0C1FCE8688C
:10332000284C011DC0E90E010064091D6161417C4A
:10333000254850F82100C1680A6B04F10801904744
:1033400022486066A868E061E86808306061267617
:1033500008F0F2FAA064032084F868006FF070406F
:1033600020636063002005F071FA6FF07F4005F084
:10337000A7FA174828610FF0C5FD044604F0FEFFC8
:1033800010B105F03FF838B905F051F8074605F0DF
:103390000AF8394605F0A6FA0021084601F0D0FDEA
:1033A00008F01EFD6E702046BDE8F081002000E0B0
:1033B00000300240C2A507F4CDB5E8B5B401002045
:1033C000AD0E0108EC960120D8010020985D04089C
:1033D000686E040810B582B030B90F480068006EFE
:1033E000002804BF02B010BDFFF700FA0090446946
:1033F0006846FFF757FA002C04BF02B010BD204604
:10340000FFF7F4F9019081688968884701A8FFF700
:1034100049FA02B010BD0000C001002001490A466F
:1034200000F002B801F0FFFF002808BF70472DE947
:10343000F047814686B016460C46002001F066FD36
:103440002E4D80462868076E4846FFF7CFF900905A
:103450000068806901F038FD824640F6FF70C44282
:1034600004D10098B0F90440B0F906600098621EDB
:103470000189ADF808401144ADF80C104089711E67
:103480000844ADF80A60ADF80E0007F0B9FE6846D2
:10349000FFF708FA02A809F0EBF940B132462146DD
:1034A000484600F043FC09F031F80028F6D15046B8
:1034B00001F00AFD28683C00006E1BD0002818BFF0
:1034C00001F0F8FC07F092FF2046FFF78FF901901A
:1034D00029680C660068FFF70BFC01A8FFF7E2F90A
:1034E00005F078FA05F0DEF9404601F00FFD06B070
:1034F000BDE8F08701F0DEFCF6E70000C001002027
:103500002DE9F04F82461E48894683B000680C9E24
:103510001F46417C1B4890464FF0000B50F821405D
:10352000E0680068042803D02468002CF8D100E08B
:103530003CB90846FFF74AFC041E04BF03B0BDE8CF
:10354000F08FE0680121C26A20469047050012D042
:103550002469A0688047B0F1FF3F04BF0A4C46F0E1
:1035600001063B460096CDE9015442464946504685
:1035700000F066FA834603B05846BDE8F08F0000BD
:10358000C0010020D8010020F8760408002808BFF8
:10359000704738B504460D480068006EA04208BF69
:1035A00001F088FC2046FFF721F9009040690028CF
:1035B00018BF02F03DFB00980068FFF797FB6846D4
:1035C000FFF770F92046FFF765F838BDC00100200D
:1035D0002DE9FF4F0546504883B01F460068DDF8CF
:1035E00040A08946447C4D4800570128204606DD0E
:1035F00004F0CAFE8346204604F00AFF05E004F00A
:1036000071FE8346204604F096FE04462DB302A9BF
:1036100001A8FFF719FEB5F90080B8F1000FB8BF97
:103620004FF00008B5F90260002EB8BF0026B5F9CA
:10363000041001985844401E8142C8BF0146B5F9A4
:103640000600029A2244521E9042C8BF1046A1EBC7
:1036500008014A1C801B441C03E04FF0000846464A
:103660005A46002F08BF6742002AC8BF002C49DD18
:103670003B4631464046CDF800A0FFF741FF5FEAE8
:10368000000A43D000F06EF80746A04207D0224857
:103690000068806C00281CBF322109F05FFC504696
:1036A00000F048F9DFF878B00025611BB942BCBFD3
:1036B000504600F027F93DB172194146504600F0DE
:1036C0005DF95046FFF786FE0598C847DBF8001005
:1036D00000291CBF002088475046FFF79FFE3D444D
:1036E000A542E2DB5046FFF751FF002000F022F92F
:1036F000A74207D008480068806C00281CBF33210F
:1037000009F02CFC002007B0BDE8F08F0598C847F1
:1037100007B00120BDE8F08FC0010020F8010020B3
:103720004003002038B5002460B1FFF75FF8009037
:10373000006800698068804705F0E5FA044668463D
:10374000FFF7B0F8204638BD002808BF704738B5ED
:10375000FFF74CF800F1180400906846FFF7A2F854
:10376000204638BD38B5002418B907480068006EF7
:1037700038B1FFF73BF80090B0F90A406846FFF710
:1037800091F8204638BD0000C00100202DE9F04F1F
:1037900085B080464FF0000A4046FFF727F80390B7
:1037A000D0E90095D0F824B003A8FFF77BF828B241
:1037B0000FFA89F7C01B441C4FEA2946C6EB254087
:1037C000451C002CCCBF002D0AF1010A7EDDBBF1A7
:1037D000000F16D05846FFF709F80490B0F90440DE
:1037E000B0F9065004A8FFF75DF80FFA89F0A0427F
:1037F00008BFAE425AD032463946584600F0BEF8AD
:1038000054E008F099F8804511D104F0A3FD8146F9
:1038100004F0E4FD4C45D8BF854208DD4C4562DC30
:10382000854262DC2A462146404608F053FD314974
:1038300001202F4ACDE900010292314638462B463D
:10384000224600F0FDF806464046FEF7CFFF039003
:103850004662BEB3816A41F48031816203A8FFF7FA
:1038600021F8304600F066F80746012002F026FAFB
:103870003046FFF769FF04FB05F18A001E4909780D
:1038800003F07AF81D4D1E4C4046C5F800802668AE
:1038900008F078F82060404609F028FA00202660F9
:1038A000286002F00BFA384600F044F84046FFF773
:1038B00011F8406A0AF1010A40B105B0BDE8F04FC5
:1038C00000F08EB803A8FEF7EDFF00E004E04046EC
:1038D00009F00CFA0AF1010ABAF1050FFFF65CAF24
:1038E00005B0BDE8F08F4C469AE705469AE7000020
:1038F000F87604085077040844030020880200206A
:10390000F401002038B50C4628B909480068006E5B
:10391000002808BF38BDFEF769FF0090B0F90A1013
:10392000A142B8BF0C4644816846FEF7BBFF38BDD4
:10393000C0010020F8B5104E04003068056E17D0A5
:10394000002D18BF01F0B6FA07F050FD2046FEF733
:103950004DFF009031680C660068FFF7C9F96846B2
:10396000FEF7A0FF05F036F804F09CFF2846F8BDEE
:1039700001F0A0FAFAE70000C001002030B583B0E2
:1039800015460C4630B915480068006E002804BF83
:1039900003B030BDFEF72AFF2DB20090C58024B2DF
:1039A000848004F07FFF0098406988B1FEF71EFF15
:1039B000009A0190B2F908108180B2F90A20C28001
:1039C00000291EBF002A0480458001A8FEF76AFF77
:1039D0006846FEF767FF03B030BD0000C00100205D
:1039E00070B584B0040004BF04B070BDFEF7FEFEE5
:1039F0000290B0F904600189B0F90650721E1144BA
:103A0000ADF80410ADF800604089691E0844ADF8B7
:103A10000600ADF8025002A8FEF744FF684608F021
:103A200027FF002804BF04B070BD2A463146204657
:103A300000F062F908F06AFD0028F6D104B070BD0C
:103A40002DE9FF4FDFF8FCB083B01C46DBF8000027
:103A5000DDE9108C92460027437C3A466046129975
:103A6000FFF7E0F8050068D028698068804705F016
:103A70004AF981460AFB09F0C01DC608FEF7CCFED4
:103A800018F0010F05D1C11700EB9170801000EB09
:103A90004000002C09DC002E1ABF1838B0FBF6F0ED
:103AA00000206442A042D8BF044618F0010F08D19C
:103AB00000200090DDE903012346524602F032F86F
:103AC0000746002C06DC2846FFF710F907B0002057
:103AD000BDE8F08F04FB06F0183018F0010F02D09B
:103AE000FEF7B9FD01E0FEF7BBFD5FEA00081CD060
:103AF000FEF77CFE01900560039981800499C180E6
:103B0000A0F808A044814761C0E9036901A8FEF755
:103B1000C9FE1298C5F808802861DBF80000407CD7
:103B2000A86107B04046BDE8F08F2846FFF7DEF8F1
:103B3000002F1CBF3846FEF7ADFD002007B0BDE8E2
:103B4000F08F0000C00100202DE9F74F96B0144619
:103B50000F461698FEF74AFE0D90B0F9081007912F
:103B6000B0F90A5000680069D0F804800DA8FEF78B
:103B700099FEDFF878915E4ED9F80000407C56F847
:103B80002000C1688A6A082190470A90182824BF3B
:103B900020200A90D9F80000407C56F820000069E7
:103BA0000990D0E900615348814214BF01200020F0
:103BB0001090002002F075F800281CBF19B0BDE875
:103BC000F08F07983918D9F80000B0F90C20891A3D
:103BD000491E0029C6BF079A511A07990691B0F9E4
:103BE0000810B94206DDC91B069A0F440891511A04
:103BF000069102E00021089106990029DCBF19B066
:103C0000BDE8F08F6119B0F90E20891A491E00290C
:103C1000D2BF0C95691A0C91B0F90A00A042DCBF22
:103C200000250C9804DD051B0C982C44401B0C90BF
:103C30000028DCBF19B0BDE8F08F00BF0699DDF8A1
:103C400020A0169805910DF1480BDDF81C90FFF7A8
:103C50007BFD09FB05F100EB8100CDE9008B00EB5A
:103C60008A0221463846059B02F0A4FA5FEA000B5F
:103C700004BF19B0BDE8F08F1098E8B1DDE9093252
:103C80005846069902F0F4F8B0B90998DDF81CA07E
:103C9000D946D0F810C0BCF1000F05D05946042316
:103CA00052460846E04707E0D9F80000B04749F817
:103CB000040BBAF1010AF7D100200A99CDE90210EC
:103CC000CDE904B001200190009021460346641C18
:103CD0003846069A04F0BEF80C9805F10105401E1E
:103CE0000C90ABD119B0BDE8F08F0000C0010020EE
:103CF000D8010020DF840008F8B515460E460746B7
:103D0000FEF774FD009000681621C068436A002029
:103D1000984704466846FEF7C5FD002C08BFF8BD6D
:103D20002A4631463846A047F8BD0000002808BFA3
:103D300070472DE9F04FA1B090460E460746FEF7BA
:103D400055FD1990D0F8149019A8FEF7ABFD384630
:103D5000FFF7E8FCF84D082803DDB9F1000F00F08B
:103D60002782F649CDE91586D1E90001CDE91C018C
:103D70003C463846FEF73AFD1790D0F81490C168DB
:103D80001291B0F9081007691491B0F90A100B915B
:103D900000680069406811902868407CFFF714FAB9
:103DA0001B902868407CFFF77DFA064617A8FEF7AF
:103DB00079FD082F9CBF01200A9004D9102F94BFD1
:103DC000022004200A90012F0CBF0DF170084FF063
:103DD00000081198B04200F031812868407CFFF75C
:103DE00059FA1E9014988000FEF735FC18900028B0
:103DF00004BF21B0BDE8F08F2046FFF7A5FC089076
:103E0000B9F1000F00F008814846FEF7EFFC1A9068
:103E100000200D900B98002840F3FA8000200990B4
:103E20001A980D9A81684B6909A998470646149813
:103E300086424FD11898FEF7D9FC089D044613908E
:103E4000082F2ED90296DDF86CB0DDF844A0DDF81D
:103E50007890069435F8020BD047C84744F8040B15
:103E6000761EF7D1BBF1200F04D25A46029906986C
:103E700001F038FF139900201B9ACDF81480CDE98A
:103E8000030101200090CDE901020D99159801234D
:103E90000144149A169803F0DDFF13A8FEF702FD03
:103EA000ABE0DDF86CB0DDF844A0DDF87890039667
:103EB000CDF8104015F8010BD047C84744F8040B63
:103EC000761EF7D1BBF1200F3CBF5A46DDE9031047
:103ED000D0D2CDE7012F28D0002E4FD015990D98C4
:103EE00008441F901898FEF781FC04461390DDE902
:103EF00008010A9A082F42D901FB02091B98DDF834
:103F000044B0DDF878A001903546059439F8020BED
:103F1000D847D04744F8040B6D1EF7D101982028EC
:103F200049D202463146059843E0002E65D01599E6
:103F30000D980D18012409980094C11700EB5173D6
:103F4000089900F0070201EBE301129BCDE9033170
:103F5000CDE90582CDE90147169A2946104401238F
:103F6000324604F09BFD09980D9A304409901A9846
:103F700081684B6909A998470600DCD13DE001FB47
:103F800002051B98DDF844B0DDF878A00390B14637
:103F9000CDF8104015F8010BD847D04744F8040B72
:103FA000B9F10109F6D10398202804D2024631461E
:103FB000049801F097FE139900201B9ACDF8148005
:103FC000CDE9030101200090CDE90102099A16987C
:103FD0000123104432461F9903F03CFF13A8FEF75B
:103FE00061FC09980D9A304409901A9881684B69D0
:103FF00009A9984706007FF475AF089912980844FC
:1040000008900D980B99401C0D908842FFF606AF62
:104010001AA8FEF747FC0EE01299CDF81480CDE9FE
:10402000031001200090CDE90107DDE915100B9B7D
:10403000149A03F00FFF189800F080BA2046FFF79B
:1040400083FB0646B9F1000F75D04846FEF7CEFB5C
:104050001A900B9800250028C4BF4FF0000B4FF0BA
:10406000010962DD1A98CDF824B02A4681684B69AF
:1040700009A9984714990446884229D11A98AA4652
:104080006A1C81684B6909A99847A04208D11A980F
:10409000AA1C6D1C81684B6909A99847A042F6D0FB
:1040A000CDF800901298CDF81480CDE90306CDE943
:1040B00001971598A5EB0A0400EB0A01631C149AFA
:1040C000169803F0C7FE1298611C01FB006628E0F9
:1040D000012F35D0002C1CBF159800EB050A1ED00F
:1040E000DDE9090100FB0162CDF800901299CDF8DD
:1040F0001480CDE90312CDE90197169A5146104478
:104100000123224603F0A6FE09982A46204409907E
:104110001A9881684B6909A998470400E0D1129860
:1041200006440B986D1C85429CDB1AA8FEF7BAFB6F
:1041300021B0BDE8F08F2DE0C00100209C7604087E
:10414000002C1CBF159800EB050AE8D00998129BBB
:1041500000F00701CDF80090CDE90581C21700EB12
:10416000527206EBE202CDE90332CDE90197169ACD
:10417000514610440123224604F090FC09982A4637
:10418000204409901A9881684B6909A9984704004E
:10419000DCD1C4E71298CDF81480CDE903060120E4
:1041A0000090CDE90107DDE915100B9B149A3BE067
:1041B000049704460C9647460498FEF717FB1290A6
:1041C000B0F908100691B0F90A90C168039100F1A6
:1041D000180102910068D0F810A012A8FEF762FB47
:1041E0002868D849DAF804B0407C51F820100D69ED
:1041F0002E68FEF7E9FF082898BF4FF0010805D99F
:10420000102894BF4FF002084FF00408AA450ED1C1
:1042100000200299CDE9041001200090CDE90104AD
:104220004B463946069A0C9803F014FE80E7202C82
:104230003ED0102C7FF47CAF069818FB00F0FEF700
:104240000AFA149000283FF473AFFEF7CFFA1390E8
:104250000498FEF7CBFA1290296900F1180400299E
:1042600019BFDAF8141000294FEAC800109000F0C6
:104270001C81B0F908008000FEF7EDF90E900028CF
:1042800008BF089000F05381FEF7B0FA08900028AC
:1042900018BF4FEAC80600F04A8100BFB8F1010F0D
:1042A00076D0B8F1020F74D0B8F1040F72D0E1E00B
:1042B000069818FB00F0FEF7CEF9149000283FF4A2
:1042C00037AFFEF793FA13900498FEF78FFA00F1D8
:1042D000180412902869002808BF4FEAC80B43D081
:1042E0004FF0000A4FF0010B4FEAC806B8F1010F7A
:1042F00006D0B8F1020F0ED0B8F1040F16D01FE0AF
:10430000D5F810C0139901232046069AE047069875
:1043100004EB800414E0D5F810C013990223204662
:10432000069AE047069804EB800409E0D5F810C02F
:10433000139904232046069AE047069804EB80046C
:1043400013983946CDE903A0CDF800B0CDF814A0FC
:10435000CDE901B67F1C0123069A0C9803F07AFD83
:10436000B9F10109C2D140E0069DB8F1010F08BFC3
:10437000DDF84CA00FD0B8F1020F08BFDDF84CA05B
:1043800011D0B8F1040F08BFDDF84CA013D019E02C
:1043900035E048E05BE054F8040BB0470AF8010B45
:1043A0006D1EF8D10EE054F8040BB0472AF8020B4A
:1043B0006D1EF8D106E054F8040BB0474AF8040B20
:1043C0006D1EF8D113990020CDE90301059001205D
:1043D0000090CDE9010B394603467F1C069A0C98E4
:1043E00003F038FDB9F10109BED112A8FEF75AFA5F
:1043F00013A8FEF757FA1498FEF74CF998E6DAF886
:1044000014C0DDF84CB002232046069A0899E04714
:10441000D5F810C001235946069A0898E047069837
:1044200004EB400426E0DAF814C0DDF84CB00223B7
:104430002046069A0899E047D5F810C0022359464D
:10444000069A0898E047069804EB400412E0DAF870
:1044500014C0DDF84CB002232046069A0899E047C4
:10446000D5F810C004235946069A0898E0470698E4
:1044700004EB400413990020CDE9030105900120CD
:104480000090CDE90106394603467F1C069A0C9838
:1044900003F0E0FCB9F101097FF400AF08A8FEF7D2
:1044A00001FA0E98FEF7F6F841E0069DB8F1010F0B
:1044B00008BFDDF84CA00CD0B8F1020F08BFDDF842
:1044C0004CA00FD0B8F1040F08BFDDF84CA012D0FB
:1044D00019E034F8020BD847B0470AF8010B6D1EFB
:1044E000F7D110E034F8020BD847B0472AF8020B96
:1044F0006D1EF7D107E034F8020BD847B0474AF8F1
:10450000040B6D1EF7D100201099CDE90210139A0B
:10451000CDE90420012001900090394603467F1C1C
:10452000069A0C9803F096FCB9F10109BDD112A8C6
:10453000FEF7B8F913A8FEF7B5F91498FEF7AAF834
:10454000F6E50000D8010020002808BF70470029C8
:104550000CBF1146002A20D0B1F900C0B2F90030DA
:104560009C45B8BF63460380B1F902C0B2F902307E
:104570009C45B8BF63464380B1F904C0B2F904302A
:104580009C45C8BF63468380B1F90610B2F9062086
:104590009142D8BF1146C18070470A6849680260DD
:1045A00041607047002808BF704703880B440380B0
:1045B000838819448180418811444180C188114415
:1045C000C1807047134A10B4D2E90013994212D146
:1045D000114A914219BF51E9032351F8041CD1E952
:1045E0000F23496C0260C0E90131007A002818BF2E
:1045F000012010BC7047D1E90034D1F808C0C0F8E0
:1046000008C0C0E90034054B99420CBF02490C3187
:104610001160EAE7F0020020009801203C98012098
:104620000348D0E9001081420CBF012000207047F0
:10463000F002002070B5204A204B1E491160D3E9DA
:1046400000C18C451AD01E4CA1420CBF04F13C02A3
:10465000A1F10C02057A167AB5420FD194450DD01E
:10466000A2420CBF04F13C020C3A127A954205D1E9
:10467000A14214BF0C3904F13C015960D0E9002477
:1046800085688D60C1E900240E4A91420CBF0C4937
:104690000C3159608C4505D1944514BF0CF10C01C7
:1046A000074919609968002918BF8847BDE870401C
:1046B00000F07CBC9DB90008E8010020F002002059
:1046C000009801203C9801200A4B0020D3E90021EA
:1046D0008A4208BF7047DFF820C0D2E90001624576
:1046E0000CBF064A083210B51A6007F095FC01208D
:1046F00010BD0000E0020020F8970120A8970120DB
:1047000070B51D4C82B02468DDE9066CB4F9085020
:10471000854226DCB4F90C50954224DB8242BCBFB2
:1047200002B070BDB4F90A508D421EDCB4F90E50CF
:104730009D421DDB8B42BCBF02B070BDDCF80C405B
:104740002468002C18BF042C05D0DCF80040002C95
:1047500018BFA446F2D1CDE9006C03F041FF02B0CE
:1047600070BD2846D6E72A46D8E7B4F90A10DDE737
:10477000B4F90E30DEE70000C0010020B0F90220DD
:10478000B1F906309A4213DCB1F90220B0F90630D3
:104790009A420DDCB0F90020B1F904309A4207DCEE
:1047A000B1F90010B0F904008842A4BF012070479D
:1047B000002070470146024870220068FCF744B9A7
:1047C000C0010020002808BF704738B504460DF02E
:1047D000EFF82046FEF70AF800900068FEF7DCFAD2
:1047E0006846FEF75FF82046FEF700F80090006884
:1047F000FDF774FF0098C068FDF74CFF0098C06992
:10480000FDF748FF6846FEF74DF82046FDF742FFEA
:1048100038BD0000002808BF70472DE9F04FB1B047
:10482000CDE91F21FDF7E2FF039001681091B0F977
:10483000042020998A420AD1B0F906101F988142BB
:1048400005D103A8FEF72EF831B0BDE8F08F0020A7
:10485000FFF770F82990109880692190FE48016850
:1048600021984A7C2492904218BF48740398B0F96A
:104870000480B0F906101291B0F90810A1EB0801FC
:10488000491C0A91B0F90A201299511A491C279122
:1048900000210E91017C11F0020F00F04B82416962
:1048A00020300F9020981A91A0EB080612991F98BB
:1048B000401A1790002E08DD002023900A9F1496BE
:1048C000781E4FF0010A19900AE00A984FF0FF3A5B
:1048D000401E23900020149023985746304419908E
:1048E0001798002809DD01201890279800241390BC
:1048F000401E1C9017981D900CE04FF0FF30189050
:104900002798441E4FF0FF30139000201D901798F9
:1049100020441C90109DD14A04A9A8694FF00009B9
:104920001056012810DDADF81290ADF81090A8696E
:1049300003F02AFD401EADF81400A86903F068FDDD
:10494000401EADF8160003E0E868026B2846904769
:104950005146039809F00CF82690002800F0EA81EF
:104960005146039809F004F82290002800F0DE81F7
:104970000398C068002800F0F480FDF737FF029428
:1049800025901398844200F0E8801D99029888428F
:10499000A5BF1C998142002001202A9012990298FB
:1049A000239C01441798BC420844079000F0CC8037
:1049B00002990A9848432E9017990298401A2B9012
:1049C0000299129808442C904FF000092146029A4F
:1049D0001A98FEF763FB5FEA000B77D00F9800EBA5
:1049E00084012E9801EB8000169008EB04008519D5
:1049F0001498A042DCBF1998844204DC2A9800284D
:104A000018BF012000D100202D90BDF91000A84250
:104A100041DCBDF9121007988142DCBFBDF91400DA
:104A2000854238DCBDF916100798884233DC0B90BC
:104A300010980D9003981190B0F90400A84237DC4B
:104A40001199B1F90820954232DC11990B9AB1F90C
:104A5000061091422CDC119AB2F90A300B9A9A4254
:104A600026DCA5EB00090B98401A009011984946E6
:104A7000009A4069FEF712FBD0B11198009AB0F984
:104A80000810B0F90400081A411C119801FB0291AA
:104A9000203050F821902D98C8B1A11B5CBF2B98F5
:104AA00000282ED402461A98FEF7F8FA48BB0EE00A
:104AB0000D980068002808BF4FF00009EBD0C168CE
:104AC0000B9A4B69294698478146E4E738E0BDF9DF
:104AD000102004EB08002C998242DCBFBDF91220A3
:104AE0008A420EDCBDF914208242A4BFBDF9162013
:104AF0008A4206DB229A0092169A109B12680CF0EA
:104B0000FDFBBDF91000A84217DCBDF91210079893
:104B10008142DCBFBDF9140085420EDCBDF91610E0
:104B20000798884209DC2598109B079950F82B209C
:104B30002698009028460CF0E1FB1698C0F80090EB
:104B40005444BC427FF440AF18990298084401468F
:104B50000290139881427FF418AF25A8FDF7A2FEBA
:104B6000E0E01398029484427CD002991D9881421F
:104B700005DB08461C998842D8BF012000DD0020D3
:104B80002A9012990298239C08441799BC42084421
:104B9000079068D00A99029848432C900299179878
:104BA000081A2B9012980844CDF8B8004FF000096D
:104BB0002146029A1A98FEF771FA4FEA106B289074
:104BC000BBF1FF0F7DD00F9800EB84012C9801EB17
:104BD0008000169008EB0400851914988442A4BF45
:104BE0001998A04204DB2A98002818BF012000D1A0
:104BF00000202D90BDF91000A8421EDCBDF9121056
:104C000007988142DCBFBDF91400854215DCBDF96F
:104C100016100798884210DC01462846039B109A1C
:104C20000BF023FB0E49219A814620F07F4051F87A
:104C300022100969496888470E902D9858B1A11B28
:104C40005CBF2B98002829D402461A98FEF726FA52
:104C5000000EFF2822D107E0C0010020F80100204B
:104C6000D80100205EE055E0BDF9102004EB0800FB
:104C70002E998242DCBFBDF912208A420EDCBDF9BA
:104C800014208242A4BFBDF916208A4206DB229A74
:104C90000092169A109B12680CF030FBBDF91000C0
:104CA000A84230DCBDF9121007988142DCBFBDF983
:104CB0001400854227DCBDF916100798884222DCD3
:104CC00000E023E02B49219A2898BBF1000F51F80E
:104CD000221020F07F40096949680BD08847CBF14A
:104CE000FF020E9901F0A4FD2249219A51F82210E9
:104CF0000969096888472699009102462846109B51
:104D000007990CF0FBFA1698C0F800905444BC4286
:104D10007FF44CAF18990298084413990290884286
:104D20007FF423AF229903980CF0B4F926990398E5
:104D30000CF0B0F90398209981801F99C1800A9ADC
:104D400020991144491E0181279A1F991144491E37
:104D5000418124992198884203D008460649096870
:104D600048742998FEF7E6FD03A8FDF79BFD31B0D6
:104D7000BDE8F08FD8010020C0010020002808BF46
:104D8000704710B582B00446FDF730FD0090007CFE
:104D900010F0020F17D12046FDF728FD01900068A2
:104DA000FDF7A6FF01A8FDF77DFD6846FDF77AFD3A
:104DB00020460CF0A3FC2046FDF718FD0090018A68
:104DC00041F0020101826846FDF76CFD02B010BDA2
:104DD0002DE9F04385B004460088DDF83090174691
:104DE000884600281CBF608800283AD0E06830B1AF
:104DF0008068002804BF05B0BDE8F08302E0E088C9
:104E000020282ED109F0010200212548FDF70AFFD4
:104E1000060026D020886188800048432030FDF7B6
:104E20001FFC050021D02846B560FDF7DFFC03908C
:104E3000A0F810904461A0F80480C7802188414404
:104E4000491E018161883944491E4181066003A8D9
:104E5000FDF728FDE06878B12146284608F0E6FD18
:104E600050B105B00020BDE8F0833046FDF73EFFAD
:104E700005B00020BDE8F08319F0020F0CD02846E1
:104E8000FDF7B4FC00900068FDF732FF6846FDF7BF
:104E900009FD28460CF032FC05B02846BDE8F08339
:104EA000346E0408024970220968FBF7CDBD00008A
:104EB000C001002010B503F0A5FC03F08BFDBDE898
:104EC000104006F09DB9000070B5094D0446022C53
:104ED0002868467C09D22046FDF778FF28B128686B
:104EE0004474FFF7E7FF03480460304670BD0000DC
:104EF000C00100206802002003F0A8BC03F0E0BC61
:104F00000149886070470000B401002003F0F0BC44
:104F1000034900280968CA6918BFC861104670476C
:104F2000C001002003F000BD03F014BD03F03EBD3E
:104F3000024909688A7E887610467047C0010020C1
:104F4000084A1080084A1180084A1268537C084AAF
:104F500052F82330DA68D2F820C00A4601461846D3
:104F6000604700000002002002020020C001002073
:104F7000D8010020024909680A7E08761046704769
:104F8000C001002003490968B1F92C20888510462A
:104F900070470000C001002003490968B1F92A20C8
:104FA0004885104670470000C00100200248006894
:104FB000002808BF704700472003002003498A6883
:104FC000002A08BF8860FFF7F1BF0000E002002060
:104FD000002808BF704770B5294E044684B0306879
:104FE000A04218BF054606D1FDF700FC009080687E
:104FF0003060684610E02846FDF7F8FB01908068B5
:10500000A04219D1FDF7F2FB0199009080688860F9
:105010006846FDF747FC01A8FDF744FC4CB3204669
:10502000FDF7E4FB00907568A5420AD14068706006
:105030006846FDF737FC1CE0054601A8FDF732FC89
:10504000D9E79DB12846FDF7D1FB01904568A542FF
:1050500007D1009801994068486001A8FDF722FC3B
:1050600004E001A8FDF71EFC002DEBD16846FDF71A
:1050700019FC04B02046BDE87040FDF70BBB0000F2
:105080008003002038B50C46002808BF01240AD050
:10509000FDF7ACFB00908089204214BF012400245E
:1050A0006846FDF7FFFB204638BD000038B50446D2
:1050B000002020600648056845B12846FDF796FBAC
:1050C0000090006920606846FDF7ECFB284638BD7B
:1050D0008003002038B504004FF000000D46086042
:1050E00011D02046FDF782FB0090846844B16846E9
:1050F000FDF7D8FB2046FDF779FB0090006928609A
:105100006846FDF7CFFB204638BD00002DE9F04F83
:10511000DFF80C944FF0000C2DED048B9AB0DDE914
:10512000278BDDF8A4A0C9F800C0DFEDFE2ACDF87A
:1051300044C0022836D00328C0F2AD8271D109AC38
:1051400006AD6E460DF10C0753F82CE000EE10EAA8
:1051500004EB8C0EB8EEC00A8EED000A58F82CE075
:1051600000EE10EA05EB8C0EB8EEC00A8EED000AD8
:1051700051F82CE000EE10EA06EB8C0EB8EEC00AF7
:105180008EED000A52F82CE000EE10EA07EB8C0ED0
:105190000CF1010CB8EEC00A84458EED000AD3DB99
:1051A00000F048B948680968401A00EE100AD3E9CF
:1051B0000010B8EEC01A401A00EE100ADA48B8EE35
:1051C000C00AC1EE000A00EE101AB8EEC00AC0ED27
:1051D000000A20EEC00AC0ED012A80ED020AC0EDEF
:1051E000032A51681268891A00EE101AD8E90012D1
:1051F000B8EEC01A521A00EE102AB8EEC00AC1EE7C
:10520000000A00EE101AB8EEC00AC0ED040A20EE43
:10521000C00A80ED050A0120C9F8000000F097B926
:10522000FFE7CDED032ACDED002ACDED062ACDED29
:10523000092ACDED042ACDED012ACDED072ACDEDC9
:105240000A2ACDED052ACDED022ACDED082ACDEDB5
:105250000B2A0025DDED0B0A53F825C000EE10CA1D
:10526000B8EEC00A30EE800A8DED0B0A58F82540E2
:10527000DDED080A00EE104AB8EEC00A30EE800AF2
:105280008DED080A51F82570DDED020A00EE107A66
:10529000B8EEC00A30EE800A8DED020A52F82560A1
:1052A000DDED050A00EE106A6D1CB8EEC00A30EEA6
:1052B000800A8DED050A00EE10CA9DED091AF8EE80
:1052C000C00A00EE10CAB8EEC00A00EE801A00EE66
:1052D00090CA8DED091AB8EEE01A00EE904A9DEDE5
:1052E0000A0AF8EEE00A01EE200A8DED0A0A8DEDB9
:1052F000060A00EE104ADDED070AB8EEC01A00EE0D
:10530000104AB8EEC00A41EE000A00EE10CAB8EE2C
:10531000C01A00EE107ACDED070ADDED000AB8EEF6
:10532000C00A41EE000A00EE104AB8EEC01A00EEC4
:10533000107ACDED000ADDED010AB8EEC00A41EEAB
:10534000000A00EE10CAB8EEC01A00EE106ACDEDE9
:10535000010ADDED030AB8EEC00A41EE000A00EED4
:10536000104AB8EEC01A00EE106ACDED030ADDED6A
:10537000040AB8EEC00A41EE000ACDED040A8542E7
:10538000FFF668AF9DED090ADDED0B0A80EE201AED
:105390008DED091A9DED0A1A9DED080AC1EE001A5D
:1053A000CDED0A1A9DED061AC1EE201ACDED061AB2
:1053B0009DED071AC1EE001ACDED071A9DED001AFA
:1053C000C1EE201ACDED001A9DED011AC1EE001AB2
:1053D000CDED011A9DED031AC1EE201ACDED031A91
:1053E0009DED041AC1EE001A01EE100AB8EEC11AC2
:1053F000CDED041AC0EE811A00EE900AF8EEE00A34
:1054000080EE201A00EE100ACDED0B1AB8EEC00A9D
:105410008DED081ADDED020A80EE801A00EE100A0A
:10542000B8EEC00A8DED021ADDED050A80EE801A95
:105430008DED051A9DED093ADDED0B0ADDED075AFC
:105440009DED082A73EE603A9DED0A1A35EEC25AB8
:10545000DDED066A31EE606A23EE850A36EEC24A59
:1054600006EE440AB5EEC00AF1EE10FA6CD0DDED9E
:10547000004ADDED021A9DED017A2B4874EEE17AC7
:1054800037EE618A67EE858A48EE448A28EE238AE1
:1054900007EEC68A88EE809AC8EE007A80ED009A00
:1054A000C0ED017A60EE877A41EE617A63EE211AEF
:1054B00040EEE41A67EEA67A45EEA17A61EE241A70
:1054C00043EE471A42EE217AC7EE801AC0ED021A67
:1054D000DDED034ADDED051A34EEE17A27EE058AAB
:1054E0009DED045A75EE617A07EEC48A67EEA33A21
:1054F00047EE463A88EE004A80ED034A83EE804A42
:1055000060EE853A41EE613A63EE211A40EEE41A0C
:1055100063EEA63A45EEA13A80ED044A06E00000AB
:1055200004030020000000004898012061EE240AD6
:1055300043EE450A42EE203AC3EE800AC0ED050A6A
:105540000120C9F8000002E0119800287ED05549DA
:10555000C9E901BA91ED001AF6EE000AB5EEC01ADB
:10556000F1EE10FA08BF4FF0FF3011D0D1ED011A63
:10557000B0EE620A02EEE10AD1ED021A30EE610AE3
:1055800030EE600AC0EE011ABDEEE10A10EE100A1C
:10559000C9F80C0091ED040AB5EEC00AF1EE10FA5C
:1055A00008BF4FF0FF3211D091ED032AF0EE621ADE
:1055B00042EEC21A91ED052A71EEC21A71EEE01A9E
:1055C00081EE802AFDEEC21A11EE902AB5EEC01AC5
:1055D000ABF1010CF1EE10FAAAF10103C9F81020A9
:1055E00008BF4FF0FF3317D001EE90CAD1ED012A6A
:1055F000B8EEE12A01EE903AF8EEE11A01EEE22A65
:10560000D1ED021A72EE611A71EEE01A81EE812A72
:10561000BDEEC21A11EE103AB5EEC00A6446F1EEC4
:1056200010FAAAF1010CC9F8143008BF4FF0FF318D
:1056300019D001EE10CA91ED032AF8EEC11A01EE5D
:10564000104AB8EEC11A41EE421A00E023E091ED93
:10565000051A31EEC11A71EE600A80EE801ABDEEB5
:10566000C10A10EE101A9842C9F81810C4BFC9F840
:105670000C30C9F814008A42C4BFC9F81820C9F810
:105680001010D9F8000000281FBF00201AB0BDEC90
:10569000048BBDE8F08F01201AB0BDEC048BBDE88F
:1056A000F08F0000489801202DE9F041DFF8B8C0E4
:1056B00084B006000A9FDCF814504FF000000CF193
:1056C00030043FD0012E1EBF012004B0BDE8F081A0
:1056D000DFF89880C8E900120521A9431DBF05F035
:1056E00006010229C4E90037C4E9007301219CF8CE
:1056F0000020B14011421CBF00228CF800209CF811
:1057000000201143C9B28CF8001003291CBF04B05B
:10571000BDE8F081164D2868407C02F035FE064653
:105720002868407C02F074FE0094124BCDE90160C1
:10573000A3F10802A2F108010220FFF7E7FC04B080
:10574000BDE8F081DFF83080C8E90012062131EAB7
:10575000050208F110011DBF05F00502012AC1E98B
:105760000037C1E90073C1E71402002034020020B1
:10577000C00100203C0200202C020020000000009C
:105780002DE9F0473C4C80462DED028B0F46D8F8B2
:105790000060E16801208E42BCBFBDEC028BBDE819
:1057A000F0873D6821698D42A1BF6169B142A1695D
:1057B000A9425DDB216800295AD000EE106ADFF8AB
:1057C000BC90B8EEC00AD9ED000A99ED011A60EE5E
:1057D000800A00EE105AB8EEC00A41EE000A99EDB8
:1057E000020A30EE800A10EE100AFBF732FA9FED43
:1057F000248B53EC182BFBF766F9FBF70BFA00EE42
:10580000106AC8F80000D9ED030AB8EEC00A99ED95
:10581000041A60EE800A00EE105AB8EEC00A41EE9B
:10582000000A99ED050A30EE800A10EE100AFBF727
:1058300010FA53EC182BFBF746F9FBF7EBF938603D
:10584000D8F800200020002AB8BFC8F8000005DB07
:1058500061689142DCBF491EC8F800103968002910
:10586000B8BF386004DBA2688A42DCBF511E3960D1
:10587000BDEC028BBDE8F0870403002048980120AE
:10588000000000000000E03F70B5274C86B0607853
:1058900000B300F0A3F8E06000F09EF8E068039029
:1058A0002069049000F042F88DF8090004A903A8CB
:1058B000FFF766FF0025B8B1A078002831D06068F6
:1058C0000090A06801908DF80850684600F056F8E6
:1058D000A57026E000F087F8206100F07EF860787F
:1058E000401C607006B070BD039A6068111A48BF12
:1058F0004942049BA068181A48BF404294F802C06D
:10590000BCF1000F02D0084402280ADD6260009258
:10591000A360012601938DF80860684600F02EF818
:10592000A670657006B070BD140200200148407A70
:1059300070470000609801200649D1E90023D1F8A2
:1059400008C0C0F808C0C0E90023087A002818BFC2
:1059500001207047849701200148C068704700000B
:105960001402002001480069704700001402002062
:1059700001494861704700001402002010B584B04E
:1059800004460C221249FBF791F8002804BF04B02A
:1059900010BD0F48D4E90012A3688360C0E900126B
:1059A0000C480268002A08BF20460DD0D4E9000147
:1059B000A368CDE900010293684601A99047002839
:1059C0000EBF684604B010BDFEF734FE04B010BD33
:1059D00084970120100200207047704710B5D02036
:1059E00007F0A8FC10BD10B5902007F0A3FC10BD77
:1059F0002DE9F041084E04460568306801682846E4
:105A00008847074630684168284688472844206010
:105A10003846BDE8F0810000C40100202DE9F041C6
:105A2000002406464D1E28BF064F07D3386841683C
:105A300030468847064404446D1EF7D22046BDE830
:105A4000F0810000C40100202DE9F0411F46069DB1
:105A50001446884606462246B068641C3B46D0F889
:105A600004C041463046E0476D1EF4D1BDE8F081E8
:105A700070B5B0F900C0A1EB0C01B0F904C08C45C1
:105A8000D8BF70BD00F1140CB0F902400069121BC0
:105A900002FB00C000EBE104C818421ED010B0EBBE
:105AA000E1004FF0FF0302F00702C2F1070201F02C
:105AB000070103FA02F223FA01F1D5B210D02278DD
:105AC000461E114304F8011B002E05DDFF2231465E
:105AD0002046FAF7D9FF344420782843207070BD5F
