:020000040800F2
:1000000090B001209D0100080F680008A349000876
:100010000D68000859100008B181000800000000B8
:100020000000000000000000000000009D790008B2
:10003000411500080000000089680008857A000862
:10004000B7010008B7010008B7010008B7010008B0
:10005000B7010008B7010008B7010008B7010008A0
:10006000B7010008B7010008811B0008B7010008AC
:10007000B7010008B701000825120008B701000801
:1000800059120008B7010008B7010008B7010008BD
:10009000B7010008B7010008B7010008B701000860
:1000A000B7010008B7010008B7010008B701000850
:1000B0002D7B0008B7010008B7010008B701000850
:1000C000B7010008B7010008B7010008B701000830
:1000D000B7010008B7010008B7010008B701000820
:1000E000B7010008B7010008B7010008B701000810
:1000F000B7010008B7010008B7010008B701000800
:10010000B7010008F96B0008B7010008B701000843
:10011000B7010008B7010008B97B0008B701000863
:10012000B7010008B7010008B70100088D120008E8
:10013000B7010008B7010008B7010008B7010008BF
:10014000B7010008B7010008B7010008B7010008AF
:10015000B7010008B7010008B7010008B70100089F
:10016000B7010008B7010008B7010008B70100088F
:10017000B7010008B7010008B7010008B70100087F
:10018000B7010008B7010008DFF80CD000F018FE36
:100190000048004711E1000890B001200648804760
:1001A00006480047FEE7FEE7FEE7FEE7FEE7FEE75C
:1001B000FEE7FEE7FEE7FEE7D17A000889010008C6
:1001C00081FB0020704701464FF0000081EAE1709A
:1001D000A0EBE170704700002DE9F04F82B0019074
:1001E0004FF000744FF000784FF000054FF0000919
:1001F00052F804CB52F804EB0868CB6DC0FB0C45F9
:10020000D1F88000CEF1000EC3FB0E45D1F8DC30F2
:10021000C0FB0C89C3FB0E8952F804CB52F804EBE7
:1002200048688B6DC0FB0C45D1F88400CEF1000E00
:10023000C3FB0E45D1F8D830C0FB0C89C3FB0E8937
:1002400052F804CB52F804EB88684B6DC0FB0C45A8
:10025000D1F88800CEF1000EC3FB0E45D1F8D430A2
:10026000C0FB0C89C3FB0E8952F804CB52F804EB97
:10027000C8680B6DC0FB0C45D1F88C00CEF1000EA8
:10028000C3FB0E45D1F8D030C0FB0C89C3FB0E89EF
:1002900052F804CB52F804EB0869CB6CC0FB0C4558
:1002A000D1F89000CEF1000EC3FB0E45D1F8CC3052
:1002B000C0FB0C89C3FB0E8952F804CB52F804EB47
:1002C00048698B6CC0FB0C45D1F89400CEF1000E50
:1002D000C3FB0E45D1F8C830C0FB0C89C3FB0E89A7
:1002E00052F804CB52F804EB88694B6CC0FB0C4508
:1002F000D1F89800CEF1000EC3FB0E45D1F8C43002
:10030000C0FB0C89C3FB0E8952F804CB52F804EBF6
:10031000C8690B6CC0FB0C45D1F89C00CEF1000EF7
:10032000C3FB0E45D1F8C030C0FB0C89C3FB0E895E
:1003300001984FF4FE4E4EF0FF0E4FEA946444EAEB
:1003400085144FEAE47CBCEBE43F18BF8CEA0E0452
:100350004FEA986848EA89184FEAE87CBCEBE83F26
:1003600018BF8CEA0E080480A0F8028002F57072B3
:1003700001F580514FF000744FF000784FF0000508
:100380004FF0000952F804CB0868D1F88030C0FB68
:100390000C45C3FB0C8952F804CB4868D1F8843073
:1003A000C0FB0C45C3FB0C8952F804CB8868D1F81C
:1003B0008830C0FB0C45C3FB0C8952F804CBC868DD
:1003C000D1F88C30C0FB0C45C3FB0C8952F804CB30
:1003D0000869D1F89030C0FB0C45C3FB0C8952F87A
:1003E00004CB4869D1F89430C0FB0C45C3FB0C89A1
:1003F00052F804CB8869D1F89830C0FB0C45C3FB98
:100400000C8952F804CBC869D1F89C30C0FB0C456C
:10041000C3FB0C8901984FF4FE4E4EF0FF0E4FEADD
:10042000946444EA85144FEAE47CBCEBE43F18BFD3
:100430008CEA0E044FEA986848EA89184FEAE87C8B
:10044000BCEBE83F18BF8CEA0E08A0F84040A0F8CB
:100450004280A2F57872A1F570614FF00F0C00F1A7
:100460000400CDF800C001904FF000744FF0007808
:100470004FF000764FF0007A4FF000054FF0000982
:100480004FF000074FF0000B52F804CB52F804EB8A
:100490000868CB6DC0FB0C45C0FB0E67CEF1000EAB
:1004A000C3FB0C67C3FB0E45D1F8DC30D1F88000EC
:1004B000C3FB0E89C3FB0CABCEF1000EC0FB0C8955
:1004C000C0FB0EAB52F804CB52F804EB48688B6DBE
:1004D000C0FB0C45C0FB0E67CEF1000EC3FB0C67E2
:1004E000C3FB0E45D1F8D830D1F88400C3FB0E8988
:1004F000C3FB0CABCEF1000EC0FB0C89C0FB0EABF6
:1005000052F804CB52F804EB88684B6DC0FB0C45E5
:10051000C0FB0E67CEF1000EC3FB0C67C3FB0E459C
:10052000D1F8D430D1F88800C3FB0E89C3FB0CABE3
:10053000CEF1000EC0FB0C89C0FB0EAB52F804CB11
:1005400052F804EBC8680B6DC0FB0C45C0FB0E678E
:10055000CEF1000EC3FB0C67C3FB0E45D1F8D030C3
:10056000D1F88C00C3FB0E89C3FB0CABCEF1000E9F
:10057000C0FB0C89C0FB0EAB52F804CB52F804EB65
:100580000869CB6CC0FB0C45C0FB0E67CEF1000EBA
:10059000C3FB0C67C3FB0E45D1F8CC30D1F89000FB
:1005A000C3FB0E89C3FB0CABCEF1000EC0FB0C8964
:1005B000C0FB0EAB52F804CB52F804EB48698B6CCD
:1005C000C0FB0C45C0FB0E67CEF1000EC3FB0C67F1
:1005D000C3FB0E45D1F8C830D1F89400C3FB0E8997
:1005E000C3FB0CABCEF1000EC0FB0C89C0FB0EAB05
:1005F00052F804CB52F804EB88694B6CC0FB0C45F5
:10060000C0FB0E67CEF1000EC3FB0C67C3FB0E45AB
:10061000D1F8C430D1F89800C3FB0E89C3FB0CABF2
:10062000CEF1000EC0FB0C89C0FB0EAB52F804CB20
:1006300052F804EBC8690B6CC0FB0C45C0FB0E679D
:10064000CEF1000EC3FB0C67C3FB0E45D1F8C030E2
:10065000D1F89C00C3FB0E89C3FB0CABCEF1000E9E
:10066000C0FB0C89C0FB0EAB01F5807101984FF403
:10067000FE4E4EF0FF0E4FEA946444EA85144FEAB2
:10068000E47CBCEBE43F18BF8CEA0E044FEA9868A8
:1006900048EA89184FEAE87CBCEBE83F18BF8CEACF
:1006A0000E084FEA966646EA87164FEAE67CBCEBF0
:1006B000E63F18BF8CEA0E064FEA9A6A4AEA8B1A9E
:1006C0004FEAEA7CBCEBEA3F18BF8CEA0E0ADDF881
:1006D00000C000EBCC0E2EF8026B2EF802AB20F817
:1006E000024B20F8028BBCF1010C7FF4BAAE02B0D1
:1006F000BDE8F08F2DE9F04F82B001904FF000740B
:100700004FF0000552F804CB52F804EB0868CB6DAB
:10071000CEF1000EC0FB0C45C3FB0E4552F804CBD6
:1007200052F804EB48688B6DCEF1000EC0FB0C450F
:10073000C3FB0E4552F804CB52F804EB88684B6DAE
:10074000CEF1000EC0FB0C45C3FB0E4552F804CBA6
:1007500052F804EBC8680B6DCEF1000EC0FB0C45DF
:10076000C3FB0E4552F804CB52F804EB0869CB6C7E
:10077000CEF1000EC0FB0C45C3FB0E4552F804CB76
:1007800052F804EB48698B6CCEF1000EC0FB0C45AF
:10079000C3FB0E4552F804CB52F804EB88694B6C4E
:1007A000CEF1000EC0FB0C45C3FB0E4552F804CB46
:1007B00052F804EBC8690B6CCEF1000EC0FB0C457F
:1007C000C3FB0E4501984FF4FE4E4EF0FF0E4FEA6C
:1007D000946444EA85144FEAE47CBCEBE43F18BF20
:1007E0008CEA0E04048002F5707201F580514FF01E
:1007F00000744FF0000552F804CB0868C0FB0C45AC
:1008000052F804CB4868C0FB0C4552F804CB88680A
:10081000C0FB0C4552F804CBC868C0FB0C4552F82D
:1008200004CB0869C0FB0C4552F804CB4869C0FBF7
:100830000C4552F804CB8869C0FB0C4552F804CB38
:10084000C869C0FB0C4501984FF4FE4E4EF0FF0EF8
:100850004FEA946444EA85144FEAE47CBCEBE43F3D
:1008600018BF8CEA0E040484A2F57872A1F57061B9
:100870004FF00F0C00F10200CDF800C001904FF0D6
:1008800000744FF000764FF000054FF0000752F86B
:1008900004CB52F804EB0868CB6DC0FB0C45C0FBE1
:1008A0000E67CEF1000EC3FB0E45C3FB0C6752F87A
:1008B00004CB52F804EB48688B6DC0FB0C45C0FBC1
:1008C0000E67CEF1000EC3FB0E45C3FB0C6752F85A
:1008D00004CB52F804EB88684B6DC0FB0C45C0FBA1
:1008E0000E67CEF1000EC3FB0E45C3FB0C6752F83A
:1008F00004CB52F804EBC8680B6DC0FB0C45C0FB81
:100900000E67CEF1000EC3FB0E45C3FB0C6752F819
:1009100004CB52F804EB0869CB6CC0FB0C45C0FB60
:100920000E67CEF1000EC3FB0E45C3FB0C6752F8F9
:1009300004CB52F804EB48698B6CC0FB0C45C0FB40
:100940000E67CEF1000EC3FB0E45C3FB0C6752F8D9
:1009500004CB52F804EB88694B6CC0FB0C45C0FB20
:100960000E67CEF1000EC3FB0E45C3FB0C6752F8B9
:1009700004CB52F804EBC8690B6CC0FB0C45C0FB00
:100980000E67CEF1000EC3FB0E45C3FB0C6701F5ED
:10099000807101984FF4FE4E4EF0FF0E4FEA9464C2
:1009A00044EA85144FEAE47CBCEBE43F18BF8CEAD0
:1009B0000E044FEA966646EA87164FEAE67CBCEBE1
:1009C000E63F18BF8CEA0E06DDF800C000EB8C0E87
:1009D0002EF8026B20F8024BBCF1010C7FF44CAFF7
:1009E00002B0BDE8F08F2DE9F05F05460020924689
:1009F0009B4688460646814640241BE028464146E1
:100A00004746224600F05DF953465A46C01A9141C6
:100A100010D311461846224600F044F92D1A67EB10
:100A200001084F4622460120002100F03BF917EB58
:100A300000094E41201EA4F10104DFDC4846314686
:100A40002A464346BDE8F09F10B5431A934209D2A7
:100A50008318881803E010F8011D03F8011D521EC9
:100A6000F9D210BD40EA01039B0703D009E008C991
:100A7000121F08C0042AFAD203E011F8013B00F863
:100A8000013B521EF9D210BDD2B201E000F8012B99
:100A9000491EFBD270470022F6E710B513460A46FE
:100AA00004461946FFF7F0FF204610BD30B5044656
:100AB0000020034600E05B1C934203D2E05CCD5C67
:100AC000401BF8D030BD2DE9FE4F804681EA03007F
:100AD000C00F0C46009021F0004123F00045B8EB18
:100AE0000200A94105D24046214690461C460B46CD
:100AF000024623F00040104347D0270DC7F30A00F9
:100B0000C3F30A510290401A019040286BDAC3F3F4
:100B1000130040F4801B0098924620B10023D2EBD2
:100B2000030A63EB0B0B01985946C0F14002504693
:100B300000F0B8F806460D4650465946019A00F0B6
:100B4000D0F810EB08006141002487EA115284EAD2
:100B5000E7731A4340D0009A62B3019A012A4FEA20
:100B6000075215DC001B61EB02014FF0004202EA64
:100B70000752CDE90042001C41F5801132462B4658
:100B800000F0D0F803B0BDE8F08F40462146F9E709
:100B9000001B61EB0201001C41F5801300185B4152
:100BA0002018A2F5001747EB030140EAD570B619EB
:100BB0006D4111E06D084FEA360645EAC0754FEA0F
:100BC0000752001B61EB0201001C41F5801149082E
:100BD0004FEA30000019514132462B4603B0BDE8C0
:100BE000F04F00F090B80098012240000023D0EBB5
:100BF000020263EBE073009821464FEAE074B8EB21
:100C0000000061EB0401E9E783F000435BE781F05A
:100C1000004158E770B5C1F30A5201F000450024C5
:100C2000C1F3130140F2FF3341F480119A4201DA1B
:100C3000002070BD40F233439A42A2F2334203DCFB
:100C4000524200F03EF800E090402C43F1D0404288
:100C500070BD00F0004230F000400AD0C10D01F537
:100C60006071C0F3160042EA0151C2084007114307
:100C7000704700200146704730B50B460146002002
:100C80002022012409E021FA02F59D4205D303FA4E
:100C900002F5491B04FA02F52844151EA2F10102CF
:100CA000F1DC30BD202A04DB203A00FA02F10020FA
:100CB00070479140C2F1200320FA03F3194390409A
:100CC0007047202A04DB203A21FA02F00021704705
:100CD00021FA02F3D040C2F12002914008431946A4
:100CE0007047202A06DBCB17203A41FA02F043EA8C
:100CF000E07306E041FA02F3D040C2F120029140D5
:100D000008431946704710B5141E73F1000408DA41
:100D1000401C41F1000192185B411A4301D120F0BF
:100D2000010010BD2DE9F04D92469B4611B1B1FA7C
:100D300081F202E0B0FA80F220329046FFF7B2FF73
:100D400004460F4640EA0A0041EA0B0153465A4660
:100D5000084313D0114653EA010019D0C8F14002EC
:100D60005046FFF7AEFF05460E46504659464246EE
:100D7000FFF798FF084305D0012004E020463946DC
:100D8000BDE8F08D0020054346EAE0762C4337436A
:100D90000A986305E40AA0EB08000022FD0A44EA71
:100DA00047540A3002D500200146E9E70105101931
:100DB0006941DDE9084500196941BDE8F04DA2E748
:100DC000064C074D06E0E06840F0010394E8070098
:100DD00098471034AC42F6D3FFF7DAF9B4060408AA
:100DE000D406040870B58C1810F8015B15F00703E1
:100DF00001D110F8013B2A1106D110F8012B03E0B4
:100E000010F8016B01F8016B5B1EF9D12B0705D4BB
:100E10000023521E0DD401F8013BFAE710F8013B04
:100E2000CB1A921C03E013F8015B01F8015B521E20
:100E3000F9D5A142D8D3002070BD00002DE9F05FA4
:100E40000D46044601E1834ED4F844B0D4F84880FE
:100E5000D6F800A059465046D6F80490FFF7B0F9EE
:100E6000074641464846FFF7ABF9381A4000606430
:100E700041465046FFF7A4F9074659464846FFF752
:100E80009FF938444000A064D4F840B0D6F80890E8
:100E9000D4F84C8059464846D6F80CA0FFF790F994
:100EA000074641465046FFF78BF9381A4000206448
:100EB00041464846FFF784F9074659465046FFF732
:100EC0007FF938444000E064D4F83CB0D6F810A074
:100ED000D4F8508059465046D6F81490FFF770F970
:100EE000074641464846FFF76BF9381A4000E06371
:100EF00041465046FFF764F9074659464846FFF712
:100F00005FF9384440002065D4F838B0D6F818901E
:100F1000D4F8548059464846D6F81CA0FFF750F93B
:100F2000074641465046FFF74BF9381A4000A06388
:100F300041464846FFF744F9074659465046FFF7F1
:100F40003FF9384440006065D4F834B0D6F820A0AA
:100F5000D4F8589059465046D6F82480FFF730F917
:100F6000074649464046FFF72BF9381A40006063B0
:100F700049465046FFF724F9074659464046FFF7D1
:100F80001FF938444000A065D4F830B0D6F828A046
:100F9000D4F85C8059465046D6F82C90FFF710F9EB
:100FA000074641464846FFF70BF9381A40002063D0
:100FB00041465046FFF704F9074659464846FFF7B1
:100FC000FFF838444000E065D4F82CB0D6F830A0E3
:100FD000D4F8609059465046D6F83480FFF7F0F8C0
:100FE000074649464046FFF7EBF8381A4000E062F2
:100FF00049465046FFF7E4F8074659464046FFF792
:10100000DFF8384440002066D4F82890D6F83880BD
:10101000D4F864A0F66B49464046FFF7D1F807467E
:1010200051463046FFF7CCF8381A4000A0625146CE
:101030004046FFF7C5F8074649463046FFF7C0F877
:1010400038444000606648346D1E002D3FF7FBAE0B
:10105000BDE8F09FFCE90308FEE708B1002103E0CA
:10106000202070474000491C0028FBDA08467047E2
:1010700008B1002103E0202070474000491C0028EF
:10108000FBDA084670470022134601E08354521CE5
:101090008A42FBDB7047000070B5374905460024E3
:1010A000086810F0450FFBD0410702D50324042047
:1010B00003E0C00704D00124204605F037FD59E0C5
:1010C00005F070FDA8422BD140F2FF5005F02EFD37
:1010D000002005F089FD294908424BD0002801DA9B
:1010E0001C2070BD410001D5092070BD810001D5D3
:1010F0000A2070BDC10001D50B2070BD010101D5D2
:101100000C2070BD410101D50D2070BDC10101D57C
:101110000E2070BD010201D50F2070BD410201D526
:10112000102070BD810201D5112070BDC10201D512
:10113000122070BD010301D5132070BD410301D5FC
:10114000142070BD810301D5152070BDC10301D5E8
:10115000162070BD010401D5172070BD410401D5D2
:10116000182070BD810401D5192070BD000701D57C
:101170001A2070BD204670BD342C014008E0FFFDF0
:1011800010B50B4A0024116811F0450FFBD0480739
:1011900002D50324042003E0C80705D0012420461B
:1011A00005F0C4FC204610BD40F2FF50F8E70000F7
:1011B000342C014070B50C461949064600250868D4
:1011C00010F0450FFBD0410702D50324042003E0B3
:1011D000C00705D00124204605F0A8FC204670BDBC
:1011E00005F0E0FCB04212D140F2FF5005F09EFC49
:1011F000002005F0F9FC10F4604F03D0810404D501
:10120000132070BD000C208007E0410401D51020A0
:1012100070BD000401D50F2070BD284670BD0000D0
:10122000342C014070B5094C094D2146284600F088
:101230001DF9012808D12146284600F03FF805484D
:101240008068BDE87040004770BD00000080001855
:10125000586002407C00002070B5094C094D2146C1
:10126000284600F003F9012808D12146284600F05D
:1012700025F805484068BDE87040004770BD000093
:1012800000880020886002407C00002006F03EB903
:10129000074A904201D2074801E005481038064A43
:1012A0008B0001EA020101D5C1607047816070477F
:1012B00010640240006002407D0F7D0F074A90429B
:1012C00001D2074801E005481038064A8B0001EAC0
:1012D000020101D5C160704781607047106402400F
:1012E000006002407D0F7D0F0029016802D041F0AF
:1012F000010101E021F00101016070472DE9F04397
:10130000016821F0010101600021016041608160FC
:10131000C1600161212141613C493C4A3D251039B0
:10132000904202D18D60BDE8F083384A4FF4746674
:101330001832904201D18E60F5E7344A4FF47417A9
:101340003032904201D18F60EDE7304A4FF0746C3B
:101350004832904202D1C1F808C0E4E72B4B2C4A36
:101360006033984201D1CA60DDE7284C294B7834BC
:10137000A04201D1CB60D6E7DFF89080264C08F17F
:101380009008404501D1CC60CDE7DFF880804FF078
:101390003D5908F1A808404502D1C1F80C90C2E7B8
:1013A0001E49DFF878800839404501D10D60BAE761
:1013B0001A4D1835A84201D10E60B4E7174D3035EB
:1013C000A84201D10F60AEE7144D4835A84202D1C2
:1013D000C1F800C0A7E7114D10496035091FA842A8
:1013E00001D10A609FE70D4A7832904201D10B602B
:1013F00099E70A4A9032904201D10C6093E7074A7C
:10140000A83290428FD1C1F800908CE71060024062
:101410003D000020400F002000003D2010640240ED
:101420000029016802D041F4802101E021F48021EB
:1014300001607047002A026802D042F4002201E0F5
:1014400022F400220260016170470029016802D085
:1014500041F0200101E021F02001016070470146C8
:1014600000200968C90700D00120704730B5104A34
:101470000024904201D20F4A01E00D4A103A0E4B6F
:10148000194205D01E2303EAD12503682B4002E050
:10149000406900F08003880001D5506800E01068C2
:1014A000064A1040084201D003B10124204630BD55
:1014B00010640240006002403C0F3C0F7D0F7D0F26
:1014C0000B0607D5436912B143F0800301E023F016
:1014D00080034361802908D0002A026801F01E01C0
:1014E00001D00A4300E08A430260704730B50368C8
:1014F000124ACC6813400A682243D1E905452C43BF
:101500002243CC6922430C6A22434C6A22438C6AF0
:1015100022434C6B22438C6B22431A430260426984
:1015200022F00703D1E90B2422431A4342610A69DE
:1015300042604A6882608968C16030BD3F801CF0AB
:101540007047000070B5012186B0084605F09EF98D
:101550000121102005F0CAF900248DF80640012071
:101560008DF80700022540021A4E8DF805500090B4
:101570008DF804506946304600F02FFD6802009057
:101580008DF804506946304600F027FD07220A21F5
:10159000304600F05EFD07220921304600F059FD7B
:1015A0004FF4E130ADF80C400290ADF80E40ADF8CC
:1015B0001040ADF814400C20074CADF8120002A901
:1015C000204606F0CBFB0121204606F0B5FB06B015
:1015D00070BD000000000240001001402DE9FC4FEA
:1015E000B1F10009DDE90B4532DD002B24DBB64902
:1015F0000193B64E51F8221006EB410EB44951F852
:10160000326001EBC201002291F804A0694211F09E
:10161000070104D014F8012BC1F12005AA405B1A80
:10162000BAF1000F09D0BAF1010F14D0BAF1030FCB
:1016300070D0BAF1020F6DD042E100210A4605E0F8
:1016400040F8212000EB8103891C5A604945F7DBF3
:101650000020BDE8FC8F9EF800500EF1020C05F052
:101660000F0A0027102B0EDB14F8015BC1F11806DE
:10167000B540154314F8012BC1F11006B2402A43BE
:101680001031103B3DE0CD18002DD5DD002B05DDE0
:1016900014F8016BC1F11807BE403243082B05DD79
:1016A00014F8013BC1F110018B401A4329466E1E0C
:1016B0004FF00045354100232A400B270B3120E035
:1016C000CAF1200522FA05F53CF81560350B491BD7
:1016D000AA40C6F303152DB102F00048520048EAB3
:1016E0000505491EC6F303262EB102F0004852003C
:1016F00048EA0606491EB94273DBE0E80256A9F142
:101700000209B9F1000F02DD0B29ABDBD8E7C81BDA
:10171000D2E0FFE7002775460097102B10DB14F886
:10172000017BC1F1180C07FA0CF7174314F8012BD1
:10173000C1F1100C02FA0CF23A431031103BB2E046
:10174000CF18002F4DDD002B0FDD14F801CBC1F1B8
:1017500018080CFA08FC4CEA0202082B05DD14F804
:10176000013BC1F110018B401A433946A7F1010C2E
:101770004FF0004747FA0CF73A400B2700230B3194
:10178000009790E02F7807F00F08C8F1200722FAA1
:1017900007F705EB4707B7F802C05FEA1C3708D028
:1017A000C91BBA40CCF30317CCF303250F2F07D086
:1017B00037E0A1EB080102FA08F205EB4C0572E0F4
:1017C000BAF1030F2ED115B14FF0010C01E04FF02B
:1017D000000CB4440CF1010B01EB0308D8456FDB9E
:1017E0000AE06DE014F801CBC1F118080CFA08FC0E
:1017F00008314CEA0202083B5945F3DB002B09DAB9
:101800001944A1F101084FF0004C4CFA08FC0023E8
:101810000CEA0202C6F1200C22FA0CFC891B674478
:10182000B2402FB102F0004C52004CEA0707491EAB
:101830000F2D28D1BAF1030F26D106F1010B01EBD0
:101840000308D8453CDB09E014F801CBC1F11808C6
:101850000CFA08FC08314CEA0202083B5945F3DB5C
:10186000002B09DA1944A1F101084FF0004C4CFAA1
:1018700008FC00230CEA0202C6F1200C22FA0CFC40
:10188000891B6544B2402DB102F0004C52004CEA75
:101890000505491EDDF800C0614511DBE0E8027571
:1018A000A9F102097546B9F1000F03DD0B29FFF616
:1018B00034AF67E70098081A01991844081AC8E677
:1018C0004FF0FF30C5E60000C0E303089CC20308E8
:1018D00040E403082DE9F84F8146DDE90A54002B66
:1018E00002DC0020BDE8F88F4548464E50F8220043
:1018F00030440090444850F822E00022604210F04A
:10190000070404D015F8012BC4F1200082401B1BF2
:1019100000208346A1F1030A6EE0102B0EDB15F8C0
:10192000011BC4F11806B140114315F8012BC4F195
:101930001006B2400A43103B103459E0E118002968
:10194000D0DD002B05DD15F8016BC4F11807BE4092
:101950003243082B05DD15F8013BC4F11004A34008
:101960001A430C464E1E4FF00041314100230A40FD
:101970004FF00A0B0A343BE0CEF12001009E22FA20
:1019800001F1715C0E09A41BB240C1F3C00CBCF1A3
:10199000000F05D002F00046520046EA0C0C641E0F
:1019A000C1F3800727B102F0004637435200641E9E
:1019B000C1F340062EB102F00048520048EA060684
:1019C000641E11F0010105D002F00048520048EAFF
:1019D0000101641E5C4585DBC9F800C009F1040CF7
:1019E000001D4CF8047B4CF8046B4CF8041BE146DA
:1019F000504501DA0A2CBFDA50458EDB72E7000051
:101A000090E5030840E5030898E5030801B503489D
:101A10000099016001680029FCD108BD7800002010
:101A20002DE9FF4F87B08246894600200490504937
:101A300003F0030001EB8018103951F820000590E5
:101A40001F20B0EBA30F01DD9E1000E01F26F01C4D
:101A50001F2800DA00E01F20002800DC0020002101
:101A60000091D8F8041001410191D8F80810014103
:101A70000291D8F80C10014103915AF804BB2BF0E5
:101A80000040042802DA5DF820005FE0102807DA41
:101A900058F82000002E01DA714254E0304155E040
:101AA000402809DA334901EB8000059950F8400CD1
:101AB000FEF786FBF11E3BE044040025B4F1006F05
:101AC00001DA24010425B4F1005F01DAA400AD1CA1
:101AD000B4F1804F01DA64006D1C2748844202DAB9
:101AE000244FC03701E0234FD43721463868FEF732
:101AF00067FB796808442146FEF762FBB968084431
:101B00002146FEF75DFBF96808442146FEF758FBC5
:101B100039690844194951F82510FEF751FBC000F6
:101B20000599FEF74DFB1549203951F82510711A1A
:101B300000290ADA49426FF0004323FA01F2824297
:101B400001DA184602E0884000E0084104990143A8
:101B50000491BBF1000F00DA404249F8040B0998E8
:101B6000401E099089D104980BB0BDE8F08F0000A9
:101B700074C0030874C103089A79825A7CC20308AE
:101B800010B5102000F014F8002807D004490120F7
:101B90000870BDE81040102000F004B810BD00002F
:101BA000280000200149086070470000143C0140F3
:101BB000034A0146002012680A4200D00120704703
:101BC000143C014030B51A4A8379016853B3136855
:101BD0008B431360111D0B680468A3430B600179EC
:101BE00011440B68046823430B60114B08331968D8
:101BF0000468A14319601C1D21680568A943216080
:101C00004179102905D011440A68006802430A602E
:101C100030BD1968026811431960216800680143EA
:101C2000216030BD0079104402688A43026030BDF3
:101C3000003C01408000A0F1C0400029016802D0B2
:101C400041F0010101E0024A1140016070470000CB
:101C5000FEFF0F0070B501688900A1F1C0410B685B
:101C6000334A1340D0E901242243D0E903452C43F1
:101C700022434469224384692243C4692243046A9B
:101C80002243446A2243846A2243C46A2243046B87
:101C900022431A430A608168082907D10168890034
:101CA000A1F1C0410A6842F040020A6001688A005E
:101CB000A2F1C042516801F04043416BD1E90045B7
:101CC00044EA05148D688E892D0245EA06452C43A9
:101CD0000D8A44EA05540D7D896944EA05640C4384
:101CE0001C435460C16AB1F5804F08D000686FF0A2
:101CF00070418000A0F1C040C0F8041170BD0168BF
:101D00008900A1F1C041D1F80421806B094B1A4030
:101D1000D0E9003443EA041384688589240244EA44
:101D200005448069234303431343C1F8043170BD64
:101D30008000F7FF0000F0CF2DE9FC5F0024494F41
:101D400000944FF4806801944025C7F81080C7E9DB
:101D500002540E464FF0080B1021C7E900B1A1460E
:101D6000384604F073FF1020FFF796F900284ED193
:101D70003D48AA464D460089000438603720C7E92F
:101D8000010AC7E90398384604F060FF3720FFF7DF
:101D900083F900283BD1411E07F11400C0E9001B64
:101DA000302181600221C0E903150121416104F065
:101DB000D5FE3320C7F808A0C7E90050C7E903588B
:101DC000384604F043FF3320FFF766F905001ED1C3
:101DD000DFF898804FF4001A6F4640F22A69D8F86D
:101DE000000010EA090F0AD1504604F0E1FE002875
:101DF000F5D004F025FF47F82400641CEFE7082025
:101E000004F0D6FE28B1082004F090FE0420BDE8BE
:101E1000FC9F022004F0CCFE20B1022004F086FEDC
:101E20000220F4E7202004F0C3FE20B1202004F0BB
:101E30007DFE0620EBE74FF40074204604F0B8FE68
:101E400020B1204604F072FE0720E0E740F2FF5088
:101E500004F06CFE009800BA7060019800BA30601F
:101E60002846D4E70804002060000020342C0140FC
:101E70002DE9F0471E000D4604463BD0D107C6F1C0
:101E80001F074FF001004FF0000900FA07F0A0F122
:101E90000108CA4672D02068C11740FA07F28A4288
:101EA00001D088EA0100B0402060FEF78CF940EADA
:101EB000090954F8800F4042C11740FA07F28A42DC
:101EC00001D088EA0100B0402060FEF77CF940EACA
:101ED00009092868C11740FA07F280348A4201D004
:101EE00088EA0100B04001C50AF1020ABAF1120FF6
:101EF000D1DB70E0D0073DD04FF42070D4F880C122
:101F000007594FF46070D4F8808006594FF4906000
:101F1000CCF1000C05594FF4B060C8F1000803592A
:101F20004FF4D0607F4202594FF4F060764201597D
:101F30004FF408606D4250F804904FF42070C4F8DC
:101F400080C1C4F8808007514FF460705B42065135
:101F50004FF49060524205514FF4B0604942035132
:101F60004FF4D06002514FF4F0600151C9F100000C
:101F7000C4F880080020BDE8F087FFE72068C1179B
:101F800040FA07F28A4201D088EA0100B04020609E
:101F9000FEF719F940EA090954F8800FC11740FA11
:101FA00007F28A4201D088EA0100B0402060FEF7C3
:101FB0000AF940EA09092868C11740FA07F2803493
:101FC0008A4201D088EA0100B04001C50AF1020A44
:101FD000BAF1120FD2DB4846CDE7F0B50022012757
:101FE0004FF0030C0B6807FA02F52B40AB422CD1E3
:101FF000066853000CFA03F4A64306600E79D0F885
:1020000000E09E4046EA0E0606600E79012E01D0E1
:10201000022E12D18668A64386604E79D0F808E079
:102020009E4046EA0E0686604668AE4346604568B6
:102030008E799640B6B235434560C568A543C56004
:10204000CC799C40C3681C43C460521C102AC9D37D
:10205000F0BD4B07DB0E9A40C90810B500EB8100BC
:10206000016A0F249C40A1430162016A114301628D
:1020700010BD0246002012690A4200D001207047BC
:10208000418370470183704770B5054680680C46F0
:1020900090B94FF4BA7000F0C1FA4FF4BA7200214F
:1020A000A86002F0C3FBA8680221C1840121056475
:1020B00001620F49C0F80811A8682168C16261680F
:1020C0000163A168416311F0040F07D0D0E900213A
:1020D000C0E90012D0E90221C0E90212A18981847D
:1020E00021690029B8BF002118BF016270BD00003E
:1020F000152300082DE9F041044680681E46174666
:10210000884690B94FF4BA7000F088FA4FF4BA726A
:102110000021A06002F08AFBA0680221C184012195
:10212000046401620949C0F80811A56868224146A3
:1021300005F58670FEF788FC2046B8472046B04774
:10214000206980688047A862BDE8F08115230008F7
:1021500010B5044600F0C2F8A0681049134AC0F850
:10216000AC100F49C0F8A8100E49C0F8B0100E49C5
:10217000C0F8B8100021C0F8BC101368C0F8B43023
:102180000B4BC0E932315168C0F8C410C18C21F04A
:102190000301C1840749C0F8941010BDD9C10008DB
:1021A000FDC200089DC1000877BB0008580200204E
:1021B0007FBC000845C1000810B5044600F08EF849
:1021C000A46810481021C4F8E4000F48C4F8E800DF
:1021D0000E48C4F8EC000E48C4F8F0000D48C4F8EE
:1021E000A0000D48C4F8A400D4F8C400C4F8FC0052
:1021F000D4F89420204690471020A06307486064DC
:1022000010BD0000D99E000809AE00082122000878
:102210005123000819BB0008CFC300081C0504089F
:10222000F8B5846815460F4694F8260010F0020FA2
:1022300048D0D4F80031204698470646D4F80431F7
:102240002A46394620469847D4F8983005461BB1AF
:1022500000220121204698472069B042CCBF0120CE
:102260000020A169B142B4BF012100210843616986
:10227000A942CCBF012100210843E169A942B4BFB2
:102280000121002108430AD06068401E00902068A8
:10229000D4F8A8C0431E002211462046E047D4F8D7
:1022A000AC302A46314620469847D4F8A010204644
:1022B0008847D4F8983005466BB1012200212046AA
:1022C000984708E0D4F8AC3020469847D4F8A010DE
:1022D0002046884705462846F8BD000010B504464C
:1022E0008068002818BF10BD4FF4BA7000F096F94E
:1022F0004FF4BA720021A06002F098FAA06802219F
:10230000C1840121046401620149C0F8081110BDB3
:10231000152300082DE9F0010C4991B0B1E8FC113A
:102320008DE8FC1191E8FE100DF1200888E8FE1000
:10233000416B5DF82120C0F8002108AA52F8211055
:10234000C0F8041111B0BDE8F0017047B0EE030809
:102350002DE9F84384681F46154694F82600884600
:1023600010F0020F35D0D4F80031204698470646C9
:10237000D4F804C12A4641462046E0470546206974
:10238000B042D4BF00200120A169B142B4BF0121F5
:10239000002108436169A942CCBF01210021084303
:1023A000E169A942B4BF0121002108430AD0606855
:1023B000401E00902068D4F8A8C0431E0022114699
:1023C0002046E047D4F8AC302A46314620469847AC
:1023D00003E0D4F8AC3020469847D4F8A42001B0EC
:1023E00039462046BDE8F043104700002DE9F04F84
:1023F0004B4989B00968B1F922200692D1F81CC076
:10240000B1F92470DCF81C40A28982429CBFE389A8
:10241000984205D8A0EB02094FF0FF38266812E079
:10242000D4E90162002A71D0138883429CBF558889
:10243000A8426BD8C01A526880B202EB8000B0F993
:102440000090B0F90280B9F1FF3F5FD09CF818000E
:10245000A27C10FB02FB94F810A00790B1F92A505F
:10246000284603F097FDC0B208902D4809FB0B6287
:102470000068A37C4FF00109816BCDE90293CDE99F
:102480000421C0695246C17E807ECDE90001DDE9AC
:102490000603394603F0A2F9B8F1FF3F18D045F022
:1024A000020003F077FD1E48A37C08FB0B62006866
:1024B000816BCDE90293CDE90421C0695246C17E0A
:1024C000807ECDE90001DDE90603394603F086F997
:1024D000134E3068C069417E007E814213D9022DBF
:1024E00011D085F0040003F055FD3068C069017E0D
:1024F000C27E11FB0271427ED319827E06981AFBBE
:10250000020203F013FB089803F044FD0448627CC8
:102510000068418C1144418409B0BDE8F08F00008F
:10252000C4010020044800290068C069C0691CBFBC
:10253000027C0A60407C7047C401002002200880B1
:102540007047C06982898A429CBFC289914210D972
:10255000806880B102888A429CBF438899420AD829
:10256000406800EB8100A0EB8200B0F90000002879
:1025700001DB0120704700207047002808BF70472A
:1025800007F0B6BA38B50546FFF7F7FF040009D0E3
:1025900000F0BEF82A460021009002F047F9684694
:1025A00000F0DAF8204638BD024A106021F003003E
:1025B00050607047A0960120002808BF704770B592
:1025C0000E4C0546606B10F83510002918BF022923
:1025D00028BF70BD042101EBC5068159486807F08A
:1025E00029FA6068401C6060616B606A8851616BA9
:1025F000002001F83500656270BD0000E095012003
:10260000002808BF7047044AD16B0160002918BF39
:102610004860D06370470000E09501202DE9F0414B
:10262000044609F039F8E01C274E20F00300051D90
:10263000306CA84288BF0546F46BBCB154F8041C4A
:10264000A94210D19CB1206800281CBF616841607C
:10265000606800281CBF21680160F16BA14204BFC3
:102660002068F0632DE02468002CE7D10024F16895
:10267000B06B00EB010858F8040CA8EB00073868B1
:1026800040B1002009F09EFB58F8040CA8EB0007AD
:102690003868B0B97868A84213DB3844401B041D81
:1026A000384609F061FBF068401BF060706928440F
:1026B00070617868401B1CBF394607F0BBF944F8CD
:1026C000045C2046BDE8F081E095012010B50024AF
:1026D00008F0E2FF0D490F2001EBC002526C8AB1F5
:1026E00001EBC000406C806848B14168A14288BFDE
:1026F0000C46806800281CBF80680028F5D1A4F132
:102700000C0010BD401EE7D5F9E70000E095012060
:102710000949CA69521CCA614A6B02EBC0021378AC
:102720005B1C1370002808BF7047496B042202EB42
:10273000C000085808307047E0950120054910286E
:1027400098BF102004D94A68B0EB520F28BF500838
:1027500088607047A09601200A4902684B6B52F8C6
:10276000082C03EBC2021378022B04D3CB69002B95
:102770001CBF5B1ECB611178491E117000210160E6
:1027800008467047E0950120002808BF70470449BB
:10279000042202EBC000496B085808307047000063
:1027A000E09501202DE9F0012D24D3F800C0B0F10F
:1027B000004F34D000250028A8BF4FF0000C07DAE6
:1027C0000CF101061E608CF8004040424FF0010CF5
:1027D000A1EB0C01C9B2002A1CBF491EC9B20029D5
:1027E0001CBF234F234E3DD08C46491EC9B2944591
:1027F00008D1D3F800C03C780CF10108C3F8008080
:102800008CF8004056F8214090FBF4FC0CF0FF0CD3
:10281000BCF10A0F26D80CFB140081B909E00CF1B9
:10282000010601251E606FF000408CF80040491E33
:10283000D0E7002D1CBF0CF1010C0CF0FF0CBCF11B
:102840000A0F03D1491C4FF0010CC9B20CF130043E
:10285000D3F800C000290CF10108C3F800808CF8FF
:102860000040C1D1196800200870BDE8F001704730
:10287000B801002080FD030870B506460D461446D9
:10288000104600F03BFA0300154804EB84010AD01F
:1028900050F8210041688068711A2A1ABDE870401A
:1028A000184601F027BB00EB8104A268B24214BFB6
:1028B00001220022E368AB4214BF012300231A4324
:1028C00008BF70BD236943B150F82100816840689A
:1028D0006A1A311A184601F02FF8C4E9026570BD72
:1028E0001C970120C2B2CBB2D21A48BF524292B258
:1028F00002FB02F3C0F30722C1F3072CB2EB0C0278
:1029000048BF524292B2000CA0EB114002FB0232CF
:1029100000B20028BCBF404200B280B200FB0020E1
:10292000704700002DE9F041002182B0084600F018
:102930002BFA43F6FF763746042003F02BFB804644
:102940001148C068C16C006D8D1B841B0E44074488
:10295000ADF80050ADF80460ADF80240ADF8067077
:10296000684606F053FC48B13B46324621462846AD
:1029700003F0DCF806F098FA0028F5D1404603F0A1
:1029800009FB02B0BDE8F081B80100202DE9F0415B
:1029900000241D46074688461646022B27DA1C20CF
:1029A000FFF73CFE18B3B8F1000F18BFC0F8108055
:1029B0000BD1104A52F8251039B10A681AB11146E4
:1029C0001268002AFBD10969016185618682046071
:1029D0004460C0E90247040009D000F011F8E06843
:1029E000006820B90448006800EB85008465204633
:1029F000BDE8F081DC010020C4010020FFF700BE2B
:102A000000281CBF8269022AA4BF0120704710B4AD
:102A1000244C54F82210002908BF44F822003AD070
:102A20004B682BB119465B68002BFBD1002935D0D0
:102A3000C3681B68D1F80CC0DCF800C09C4503DDFE
:102A400009680029F6D129E041B3D1F80CC0DCF8BF
:102A500000C09C4504BFB0F814C0BCF1010F0DD1FB
:102A6000D1F800C0BCF1000F07D06146DCF80CC003
:102A7000DCF800C09C45F3DA00E079B14B68002B2C
:102A80001DBF18604A68426044F8220048608842CE
:102A900008BF0021016010BC0020704710BC01205D
:102AA00070470000DC0100200B4A816952F8213098
:102AB000834204BF036842F82130416800291CBFEB
:102AC00002680A60016800291CBF42684A60002150
:102AD0000160416070470000DC0100200228A4BFB3
:102AE00000207047064951F82000002808BF7047B1
:102AF000C168096800291CBF00680028F8D1704728
:102B0000DC01002000B585B00022CDF80CD003AB6D
:102B1000FFF748FE684600F003F805B000BD00006E
:102B2000002808BF70472DE9F04F83B0054600F03C
:102B3000EFF83B4C80462068B0F9227000F0FCF8BA
:102B400082462068818CA1EB0A01818428780028C4
:102B500018BFA8F1010946D047F6FF71284601F0D9
:102B60003DFD83460146284601F0FEFC21680646ED
:102B700091F82C0000F00300012808BF304605D072
:102B8000022812BF002006EBD67040104A8C101AA3
:102B90004884ADF80000721E1044ADF80400888C23
:102BA000ADF802004844ADF806006A46594628468A
:102BB00001F00CFC2168BDF80200888459462846C3
:102BC00001F0EEFA054428780A2818BF0D2815D020
:102BD000BDF80000216830444884287818B115F801
:102BE000010F0028B8D12068818C51448184818DE7
:102BF00021F00301818503B0BDE8F08F206890F8D3
:102C00002C1001F0030101291DBF0229018C418410
:102C1000478429780A29E0D1818C41448184DCE70A
:102C2000C4010020002808BF7047B0F806C08388A0
:102C30008068BCF1080F02BF02FB0311405C7047C3
:102C400009DCBCF1010F0ED0BCF1020F17D0BCF1B2
:102C5000040F21D005E0BCF1100F28D0BCF1200FEB
:102C60002BD0002070475A4302EBD10201F007013C
:102C7000805CC1F10701C84000F0010070475A4371
:102C800002EB9102805C062202EA4101C1F10601D9
:102C9000C84000F0030070475A4302EB510211F0A4
:102CA000010F805C14BF00F00F00000970475B0843
:102CB00002FB031130F8110070479B0802FB03115F
:102CC00050F8210070470000034951F82000C16806
:102CD0008A6A082110470000DC01002002490968C7
:102CE000C9694A6800211047C4010020024A1268DD
:102CF000D269526810470000C40100200021022858
:102D00003CBF024951F8201008467047700200206D
:102D100002480068C069407E70470000C40100207E
:102D200070B514460D4602F08BFF002808BF70BD39
:102D300000202860206070BD0A490020096891F8D1
:102D40002C2002F00C02042A07D0082A1CBF0C2AEF
:102D50007047C869007E40087047C869007E401E01
:102D600070470000C4010020024951F820000069AA
:102D700000687047DC010020024951F8200000691A
:102D800040687047DC010020024A1268508400202D
:102D900091847047C40100202DE9F0413448016856
:102DA00021F001010160334801268660324901604B
:102DB00000683249884200D0FEE7314DA86960B909
:102DC000AE6101F029FA03F055F905F11C012D4817
:102DD000086008466969416068612E20287001F02A
:102DE0002EFAE868284C011DC0E90E010064091D97
:102DF0006161417C254850F82100C1680A6B04F1EB
:102E00000801904722486066A868E061E8680830D9
:102E10006061267605F070FBA064032084F86800EA
:102E20006FF0704020636063002003F061F86FF082
:102E30007F4003F097F8174828610AF0DFFA04464C
:102E400002F014FF10B102F041FF38B902F053FF55
:102E5000074602F020FF394603F096F800210846A5
:102E600001F04AF805F090FD6E702046BDE8F08153
:102E7000002000E000300240C2A507F4CDB5E8B55F
:102E8000B8010020B1BA0008AC960120DC01002096
:102E90005CEE0308A8FD0308002808BF704738B59A
:102EA00004460D480068006EA04208BF00F0F8FF1D
:102EB0002046FFF72DFC00904069002818BF01F064
:102EC00099F900980068FFF799FD6846FFF744FC00
:102ED0002046FFF771FB38BDC401002038B500243F
:102EE00060B1FFF715FC00900068006980688047BA
:102EF00003F010FA04466846FFF72EFC204638BD62
:102F0000002808BF704738B5FFF702FC00F118042D
:102F100000906846FFF720FC204638BDF8B5104EFB
:102F200004003068056E17D0002D18BF00F0B8FF00
:102F300005F0B4FA2046FFF7EBFB009031680C6611
:102F40000068FFF75DFD6846FFF706FC03F080F8B8
:102F500002F0FAFF2846F8BD00F0A2FFFAE70000F1
:102F6000C4010020002808BF70472DE9F04FA1B030
:102F700090460E460746FFF7CBFB1990D0F8149009
:102F800019A8FFF7E9FB3846FFF7A8FFF84D082816
:102F900003DDB9F1000F00F02782F649CDE915866F
:102FA000D1E90001CDE91C013C463846FFF7B0FBF2
:102FB0001790D0F81490C1681291B0F90810076901
:102FC0001491B0F90A100B910068006940681190E3
:102FD0002868407CFFF778FE1B902868407CFFF74C
:102FE000CBFE064617A8FFF7B7FB082F9CBF0120B2
:102FF0000A9004D9102F94BF022004200A90012FB8
:103000000CBF0DF170084FF000081198B04200F0AD
:1030100031812868407CFFF7A7FE1E90149880003D
:10302000FFF7ABFA1890002804BF21B0BDE8F08F7D
:103030002046FFF765FF0890B9F1000F00F0088106
:103040004846FFF765FB1A9000200D900B9800286A
:1030500040F3FA80002009901A980D9A81684B6914
:1030600009A998470646149886424FD11898FFF749
:103070004FFB089D04461390082F2ED90296DDF8C9
:103080006CB0DDF844A0DDF87890069435F8020BBA
:10309000D047C84744F8040B761EF7D1BBF1200F88
:1030A00004D25A460299069801F0CAF813990020F2
:1030B0001B9ACDF81480CDE9030101200090CDE9E1
:1030C00001020D99159801230144149A169802F0F3
:1030D00085FB13A8FFF740FBABE0DDF86CB0DDF833
:1030E00044A0DDF878900396CDF8104015F8010B58
:1030F000D047C84744F8040B761EF7D1BBF1200F28
:103100003CBF5A46DDE90310D0D2CDE7012F28D0CD
:10311000002E4FD015990D9808441F901898FFF76E
:10312000F7FA04461390DDE908010A9A082F42D9FC
:1031300001FB02091B98DDF844B0DDF878A001908E
:103140003546059439F8020BD847D04744F8040BAC
:103150006D1EF7D10198202849D2024631460598C4
:1031600043E0002E65D015990D980D18012409989B
:103170000094C11700EB5173089900F0070201EBAE
:10318000E301129BCDE90331CDE90582CDE9014789
:10319000169A294610440123324602F0BDFF0998D1
:1031A0000D9A304409901A9881684B6909A998478B
:1031B0000600DCD13DE001FB02051B98DDF844B0C0
:1031C000DDF878A00390B146CDF8104015F8010B5A
:1031D000D847D04744F8040BB9F10109F6D1039858
:1031E000202804D202463146049801F029F81399A8
:1031F00000201B9ACDF81480CDE903010120009036
:10320000CDE90102099A16980123104432461F990C
:1032100002F0E4FA13A8FFF79FFA09980D9A3044D8
:1032200009901A9881684B6909A9984706007FF4AC
:1032300075AF08991298084408900D980B99401C96
:103240000D908842FFF606AF1AA8FFF785FA0EE048
:103250001299CDF81480CDE9031001200090CDE93A
:103260000107DDE915100B9B149A02F0B7FA1898C4
:1032700000F080BA2046FFF743FE0646B9F1000F82
:1032800075D04846FFF744FA1A900B98002500289D
:10329000C4BF4FF0000B4FF0010962DD1A98CDF862
:1032A00024B02A4681684B6909A9984714990446B5
:1032B000884229D11A98AA466A1C81684B6909A9D3
:1032C0009847A04208D11A98AA1C6D1C81684B69C6
:1032D00009A99847A042F6D0CDF800901298CDF8F1
:1032E0001480CDE90306CDE901971598A5EB0A04F2
:1032F00000EB0A01631C149A169802F06FFA1298F8
:10330000611C01FB006628E0012F35D0002C1CBF9A
:10331000159800EB050A1ED0DDE9090100FB0162EA
:10332000CDF800901299CDF81480CDE90312CDE9C3
:103330000197169A514610440123224602F04EFA94
:1033400009982A46204409901A9881684B6909A96E
:1033500098470400E0D1129806440B986D1C8542F2
:103360009CDB1AA8FFF7F8F921B0BDE8F08F2DE03B
:10337000C401002068060408002C1CBF159800EB4F
:10338000050AE8D00998129B00F00701CDF80090DB
:10339000CDE90581C21700EB527206EBE202CDE9DE
:1033A0000332CDE90197169A514610440123224673
:1033B00002F0B2FE09982A46204409901A988168C2
:1033C0004B6909A998470400DCD1C4E71298CDF8ED
:1033D0001480CDE9030601200090CDE90107DDE965
:1033E00015100B9B149A3BE0049704460C96474635
:1033F0000498FFF78DF91290B0F908100691B0F912
:103400000A90C168039100F1180102910068D0F898
:1034100010A012A8FFF7A0F92868D849DAF804B07C
:10342000407C51F820100D692E68FFF74DFC0828EC
:1034300098BF4FF0010805D9102894BF4FF002083B
:103440004FF00408AA450ED100200299CDE90410DE
:1034500001200090CDE901044B463946069A0C98AC
:1034600002F0BCF980E7202C3ED0102C7FF47CAF1A
:10347000069818FB00F0FFF780F8149000283FF43E
:1034800073AFFFF745F913900498FFF741F91290D5
:10349000296900F11804002919BFDAF8141000296D
:1034A0004FEAC800109000F01C81B0F908008000BD
:1034B000FFF763F80E90002808BF089000F05381D2
:1034C000FFF726F90890002818BF4FEAC80600F059
:1034D0004A8100BFB8F1010F76D0B8F1020F74D065
:1034E000B8F1040F72D0E1E0069818FB00F0FFF786
:1034F00044F8149000283FF437AFFFF709F9139010
:103500000498FFF705F900F11804129028690028C3
:1035100008BF4FEAC80B43D04FF0000A4FF0010B31
:103520004FEAC806B8F1010F06D0B8F1020F0ED06D
:10353000B8F1040F16D01FE0D5F810C0139901237D
:103540002046069AE047069804EB800414E0D5F87C
:1035500010C0139902232046069AE047069804EB10
:10356000800409E0D5F810C0139904232046069A78
:10357000E047069804EB800413983946CDE903A090
:10358000CDF800B0CDF814A0CDE901B67F1C012321
:10359000069A0C9802F022F9B9F10109C2D140E073
:1035A000069DB8F1010F08BFDDF84CA00FD0B8F1AF
:1035B000020F08BFDDF84CA011D0B8F1040F08BF0E
:1035C000DDF84CA013D019E035E048E05BE054F89A
:1035D000040BB0470AF8010B6D1EF8D10EE054F849
:1035E000040BB0472AF8020B6D1EF8D106E054F820
:1035F000040BB0474AF8040B6D1EF8D11399002054
:10360000CDE90301059001200090CDE9010B394679
:1036100003467F1C069A0C9802F0E0F8B9F1010904
:10362000BED112A8FFF798F813A8FFF795F81498E1
:10363000FEF7C2FF98E6DAF814C0DDF84CB00223BA
:103640002046069A0899E047D5F810C0012359464C
:10365000069A0898E047069804EB400426E0DAF85A
:1036600014C0DDF84CB002232046069A0899E047C2
:10367000D5F810C002235946069A0898E0470698E4
:1036800004EB400412E0DAF814C0DDF84CB0022379
:103690002046069A0899E047D5F810C004235946F9
:1036A000069A0898E047069804EB40041399002016
:1036B000CDE90301059001200090CDE901063946CE
:1036C00003467F1C069A0C9802F088F8B9F10109AC
:1036D0007FF400AF08A8FFF73FF80E98FEF76CFFE5
:1036E00041E0069DB8F1010F08BFDDF84CA00CD0F9
:1036F000B8F1020F08BFDDF84CA00FD0B8F1040FED
:1037000008BFDDF84CA012D019E034F8020BD847FE
:10371000B0470AF8010B6D1EF7D110E034F8020B28
:10372000D847B0472AF8020B6D1EF7D107E034F8EE
:10373000020BD847B0474AF8040B6D1EF7D10020A2
:103740001099CDE90210139ACDE9042001200190CF
:103750000090394603467F1C069A0C9802F03EF80A
:10376000B9F10109BDD112A8FEF7F6FF13A8FEF7C3
:10377000F3FF1498FEF720FFF6E50000DC010020BF
:10378000002808BF704700290CBF1146002A20D02E
:10379000B1F900C0B2F900309C45B8BF6346038060
:1037A000B1F902C0B2F902309C45B8BF634643800C
:1037B000B1F904C0B2F904309C45C8BF63468380A8
:1037C000B1F90610B2F906209142D8BF1146C18066
:1037D00070470A684968026041607047002808BF66
:1037E000704703880B440380838819448180418893
:1037F00011444180C1881144C1807047134A10B4FC
:10380000D2E90013994212D1114A914219BF51E9EC
:10381000032351F8041CD1E90F23496C0260C0E96D
:103820000131007A002818BF012010BC7047D1E98F
:103830000034D1F808C0C0F808C0C0E90034054B16
:1038400099420CBF02490C311160EAE76402002082
:10385000509701208C9701200348D0E90010814245
:103860000CBF0120002070476402002070B5204A80
:10387000204B1E491160D3E900C18C451AD01E4C63
:10388000A1420CBF04F13C02A1F10C02057A167AA8
:10389000B5420FD194450DD0A2420CBF04F13C02B9
:1038A0000C3A127A954205D1A14214BF0C3904F1A9
:1038B0003C015960D0E9002485688D60C1E900248D
:1038C0000E4A91420CBF0C490C3159608C4505D110
:1038D000944514BF0CF10C0107491960996800293F
:1038E00018BF8847BDE8704000F020BB4585000840
:1038F000E401002064020020509701208C970120F1
:10390000B0F90220B1F906309A4213DCB1F9022075
:10391000B0F906309A420DDCB0F90020B1F904305C
:103920009A4207DCB1F90010B0F904008842A4BF44
:103930000120704700207047002808BF70472DE91C
:10394000F04FB1B0CDE91F21FEF7E2FE0390016810
:103950001091B0F9042020998A420AD1B0F90610DA
:103960001F98814205D103A8FEF7F6FE31B0BDE8ED
:10397000F08F0020FFF7D2FA2990109880692190EB
:10398000FE48016821984A7C2492904218BF4874EE
:103990000398B0F90480B0F906101291B0F908103C
:1039A000A1EB0801491C0A91B0F90A201299511A99
:1039B000491C279100210E91017C11F0020F00F0AB
:1039C0004B82416920300F9020981A91A0EB080695
:1039D00012991F98401A1790002E08DD002023909E
:1039E0000A9F1496781E4FF0010A19900AE00A986F
:1039F0004FF0FF3A401E2390002014902398574622
:103A0000304419901798002809DD01201890279854
:103A100000241390401E1C9017981D900CE04FF04E
:103A2000FF3018902798441E4FF0FF30139000206D
:103A30001D90179820441C90109DD14A04A9A86994
:103A40004FF000091056012810DDADF81290ADF8C6
:103A50001090A86902F010F9401EADF81400A86992
:103A600002F03AF9401EADF8160003E0E868026B78
:103A7000284690475146039806F0C8F9269000283A
:103A800000F0EA815146039806F0C0F92290002820
:103A900000F0DE810398C068002800F0F480FEF793
:103AA00037FE029425901398844200F0E8801D9917
:103AB00002988842A5BF1C998142002001202A90CB
:103AC00012990298239C01441798BC42084407901D
:103AD00000F0CC8002990A9848432E9017990298DA
:103AE000401A2B900299129808442C904FF000092C
:103AF0002146029A1A98FFF795F85FEA000B77D0F3
:103B00000F9800EB84012E9801EB8000169008EBD3
:103B1000040085191498A042DCBF1998844204DC83
:103B20002A98002818BF012000D100202D90BDF94F
:103B30001000A84241DCBDF9121007988142DCBF99
:103B4000BDF91400854238DCBDF91610079888428B
:103B500033DC0B9010980D9003981190B0F904008D
:103B6000A84237DC1199B1F90820954232DC11994D
:103B70000B9AB1F9061091422CDC119AB2F90A3075
:103B80000B9A9A4226DCA5EB00090B98401A00908C
:103B900011984946009A4069FFF744F8D0B111984E
:103BA000009AB0F90810B0F90400081A411C1198E5
:103BB00001FB0291203050F821902D98C8B1A11B33
:103BC0005CBF2B9800282ED402461A98FFF72AF8DB
:103BD00048BB0EE00D980068002808BF4FF00009B0
:103BE000EBD0C1680B9A4B69294698478146E4E7B8
:103BF00038E0BDF9102004EB08002C998242DCBFAC
:103C0000BDF912208A420EDCBDF914208242A4BF05
:103C1000BDF916208A4206DB229A0092169A109B62
:103C2000126808F093F9BDF91000A84217DCBDF93D
:103C3000121007988142DCBFBDF9140085420EDCEA
:103C4000BDF916100798884209DC2598109B079942
:103C500050F82B2026980090284608F077F91698FF
:103C6000C0F800905444BC427FF440AF18990298C9
:103C7000084401460290139881427FF418AF25A8AA
:103C8000FEF76AFDE0E01398029484427CD002992A
:103C90001D98814205DB08461C998842D8BF012047
:103CA00000DD00202A9012990298239C084417995D
:103CB000BC420844079068D00A99029848432C9067
:103CC00002991798081A2B9012980844CDF8B8005A
:103CD0004FF000092146029A1A98FEF7A3FF4FEA17
:103CE000106B2890BBF1FF0F7DD00F9800EB840183
:103CF0002C9801EB8000169008EB040085191498AD
:103D00008442A4BF1998A04204DB2A98002818BF57
:103D1000012000D100202D90BDF91000A8421EDC2A
:103D2000BDF9121007988142DCBFBDF9140085422D
:103D300015DCBDF916100798884210DC01462846AC
:103D4000039B109A07F05FFA0E49219A814620F0F2
:103D50007F4051F822100969496888470E902D98D4
:103D600058B1A11B5CBF2B98002829D402461A9891
:103D7000FEF758FF000EFF2822D107E0C401002003
:103D8000EC010020DC0100205EE055E0BDF91020D0
:103D900004EB08002E998242DCBFBDF912208A4252
:103DA0000EDCBDF914208242A4BFBDF916208A4260
:103DB00006DB229A0092169A109B126808F0C6F849
:103DC000BDF91000A84230DCBDF9121007988142FD
:103DD000DCBFBDF91400854227DCBDF91610079839
:103DE000884222DC00E023E02B49219A2898BBF18D
:103DF000000F51F8221020F07F40096949680BD06C
:103E00008847CBF1FF020E9900F0D2FC2249219A9B
:103E100051F82210096909688847269900910246DD
:103E20002846109B079908F091F81698C0F8009062
:103E30005444BC427FF44CAF18990298084413993B
:103E4000029088427FF423AF2299039807F049FF3C
:103E50002699039807F045FF0398209981801F99C0
:103E6000C1800A9A20991144491E0181279A1F99FD
:103E70001144491E418124992198884203D0084663
:103E80000649096848742998FFF748F803A8FEF71F
:103E900063FC31B0BDE8F08FDC010020C4010020DC
:103EA00010B502F001F802F0D3F8BDE8104004F0BC
:103EB000FFB9000070B5094D0446022C2868467C05
:103EC00009D22046FEF70AFE28B128684474FFF79D
:103ED000E7FF03480460304670BD0000C4010020C5
:103EE000BC02002002F004B801498860704700005D
:103EF000B801002002F06AB8084A1080084A118010
:103F0000084A1268537C084A52F82330DA68D2F81B
:103F100020C00A460146184660470000F401002010
:103F2000F6010020C4010020DC01002002480068E6
:103F3000002808BF704700474003002003498A68F3
:103F4000002A08BF8860FFF7F1BF0000300300209F
:103F50002DE9F0473C4C80462DED028B0F46D8F8FA
:103F60000060E16801208E42BCBFBDEC028BBDE861
:103F7000F0873D6821698D42A1BF6169B142A169A5
:103F8000A9425DDB216800295AD000EE106ADFF8F3
:103F9000BC90B8EEC00AD9ED000A99ED011A60EEA6
:103FA000800A00EE105AB8EEC00A41EE000A99ED00
:103FB000020A30EE800A10EE100AFCF74AFE9FED6E
:103FC000248B53EC182BFCF77EFDFCF723FE00EE50
:103FD000106AC8F80000D9ED030AB8EEC00A99EDDE
:103FE000041A60EE800A00EE105AB8EEC00A41EEE4
:103FF000000A99ED050A30EE800A10EE100AFCF76F
:1040000028FE53EC182BFCF75EFDFCF703FE38602E
:10401000D8F800200020002AB8BFC8F8000005DB4F
:1040200061689142DCBF491EC8F800103968002958
:10403000B8BF386004DBA2688A42DCBF511E396019
:10404000BDEC028BBDE8F087780200209897012034
:10405000000000000000E03F70B5274C86B060789B
:1040600000B300F081F8E06000F07CF8E0680390B5
:104070002069049000F042F88DF8090004A903A813
:10408000FFF766FF0025B8B1A078002831D060683E
:104090000090A06801908DF80850684600F034F850
:1040A000A57026E000F063F8206100F05CF860780D
:1040B000401C607006B070BD039A6068111A48BF5A
:1040C0004942049BA068181A48BF404294F802C0B5
:1040D000BCF1000F02D0084402280ADD62600092A1
:1040E000A360012601938DF80860684600F00CF883
:1040F000A670657006B070BDFC0100200148407AD2
:1041000070470000B097012010B584B004460C221F
:104110001249FCF7CBFC002804BF04B010BD0F48C7
:10412000D4E90012A3688360C0E900120C48026859
:10413000002A08BF20460DD0D4E90001A368CDE9CC
:1041400000010293684601A9904700280EBF684607
:1041500004B010BDFFF78AFB04B010BD44970120E6
:10416000F801002070477047902005F09FBBD020D9
:1041700005F09CBB2DE9F041084E04460568306807
:1041800001682846884707463068416828468847BE
:10419000284420603846BDE8F0810000C8010020B6
:1041A0002DE9F041002406464D1E28BF064F07D3D7
:1041B0003868416830468847064404446D1EF7D28B
:1041C0002046BDE8F0810000C80100202DE9F04143
:1041D0001F46069D1446884606462246B068641C63
:1041E0003B46D0F804C041463046E0476D1EF4D14E
:1041F000BDE8F08138B50546FEF78AFA009081895E
:10420000491E0CB284816846FEF7A6FA002C04BF52
:104210002846FEF7D1F938BD10B54FF47041054876
:10422000FEF7C2F98020FEF789FABDE81040024887
:10423000FFF75ABEE0A50020FCFA0308704770475C
:1042400030B4082A1FDC0346012A47D0022A7CD05A
:10425000042A7BD00129D8BF0121181F5A1E11F052
:10426000010F03D010F8043F02F8013F491007D0B6
:104270000379537010F8083F02F8023F491EF7D146
:1042800030BC01207047102AC2BF002030BC7047EC
:104290000129D8BF00211CDDA1F1010CBCF1000FE8
:1042A00015DD021F831E11F0010F03D132F8044FF8
:1042B00023F8024F54685FEA6C0C08D032F8085FAC
:1042C0005C80546823F8045FBCF1010CF6D1491EF0
:1042D000D6D430F8212020F81120D1E710F8042B93
:1042E000D207120E491E38D010F804CB491E0CF02C
:1042F000010C42EA8C1230D010F804CB491E0CF0AD
:10430000010C42EA4C1228D010F804CB491E0CF0E4
:10431000010C42EA0C1220D010F804CB491E0CF01C
:10432000010C42EACC0218D010F804CB491E0CF064
:10433000010C42EA8C0210D010F804CB491E0CF09C
:10434000010C42EA4C0208D001E00BE02CE010F82E
:1043500004CB0CF0010C4CEA020203F8012B0029FB
:10436000BCD18DE710F8042B9207120E491E16D00F
:1043700010F804CB491E0CF0030C42EA0C120ED0CC
:1043800010F804CB491E0CF0030C42EA8C0206D054
:1043900010F804CB491E0CF0030C4CEA020203F89F
:1043A000012B0029DED16BE710F8042B1207120E47
:1043B000491E06D010F804CB491E0CF00F0C4CEA35
:1043C000020203F8012B0029EED159E72DE9F04351
:1043D00006466148DFF88481614C0068614D85B014
:1043E0000F46002843D0002004F010FF002804BF2F
:1043F00005B0BDE8F083E94604970296D8F800209E
:1044000004A93046904702902068406918B1494697
:10441000FFF776FA20B3012000F04CF92068C0695C
:10442000406920B1826804990298904715E0049889
:10443000401E049011D402A8FFF79CFE814620681C
:10444000C069016848468847296800291CBF48465A
:1044500088470498401E0490EDD5002000F02AF90A
:1044600004F022FD0028C6D105B0BDE8F0835168F4
:104470001068CDE900012068BDF80010B0F84C20AC
:104480001144ADF80010BDF80210B0F850201144EE
:10449000ADF80210BDF80410B0F84C201144ADF88E
:1044A0000410BDF80610B0F850000844ADF806003E
:1044B000684604F0ABFE002840D000BF2068BDF87D
:1044C0000010E9464184BDF80210818404970296E9
:1044D000D8F8002004A9304690470290206840692F
:1044E00018B14946FFF70CFA20B3012000F0E2F8BA
:1044F0002068C069406920B1826804990298904799
:1045000015E00498401E049011D402A8FFF732FE73
:1045100081462068C069026848469047296800299A
:104520001CBF484688470498401E0490EDD50020E3
:1045300000F0C0F804F0B8FC0028BFD12068418C1E
:10454000B0F84C20891A4184818CB0F85020891A27
:10455000818405B0BDE8F083F001002060020020F6
:10456000C4010020E801002073B51A4A82B003A9F3
:1045700012680298904700240290002827D016491C
:1045800000250968C969496900291CBF0A68002A11
:1045900003D00399904704B070BD0398401E039068
:1045A0000AD402A8FFF7E6FD0546FEF797FB044490
:1045B0000398401E0390F4D50026284669460096CD
:1045C000FEF794FB00998142C8BF0E1A344404B030
:1045D000204670BD60020020C401002073B50D4666
:1045E00000980024B8B10D490968C96949690029D2
:1045F0001CBF4A68002A03D02946904702B070BD0C
:10460000002D08DD6846FFF7B5FD00281EBF0A280B
:10461000641CAC42F6DB02B0204670BDC401002031
:10462000B0F90030B1F900209342C8BF1A460280A9
:10463000B0F90230B1F902209342C8BF1A46428055
:10464000B0F90430B1F904209342D8BF1A468280F1
:10465000B0F90620B1F906108A42C8BF0A46C280E6
:10466000704730B4B1F900C0B2F900309C45C8BF02
:1046700063460380B1F90240B2F902C06445C8BF85
:10468000A446A0F802C0B1F90450B2F90440A54212
:10469000B8BF2C468480B1F90610B2F906209142C9
:1046A000A8BF1146C1809C42AABF614500200120DD
:1046B00030BC7047014602480068407C00F002B8F8
:1046C000C40100202DE9F84301268846044602284B
:1046D00018DA354F7A68002A18BF9047334DB8F181
:1046E000000F3FD0B8F1010F03D0B8F1020F23D073
:1046F00008E055F82400002818BF401C05D000BF72
:1047000045F824003046BDE8F8832046FEF7E6F978
:1047100000900028F6D0C0680D21426A6846904794
:104720000200EFD041460098904755F8240000263B
:10473000401C45F82400E5E72046FEF7CFF900903D
:104740000028DFD0C0680D21426A68469047040007
:10475000D8D03868002818BF804741460098A04745
:104760000026CFE755F82400012814D12046FEF793
:10477000B5F9009078B1C0680D21426A684690474B
:104780005FEA000907D03868002818BF8047414613
:104790000098C847002655F82400002814BF0121BE
:1047A0000021401AACE70000180300202803002075
:1047B0004FF07F4333EA010C08BF704770B400F03C
:1047C000FF0C1CFB02FC00F47F4400F47F05544303
:1047D0005543000E10FB02F6C2F1FF00CAB212FBF5
:1047E00000C201F47F4C0CFB004C01F47F0404FB7D
:1047F0000054090E11FB00604FF47F4101EA1C21B7
:104800004FF47F0C0CEA142CC2F30722114370BC46
:1048100003EA004041EA0C010843704702494A6933
:104820004260486170470000B801002070B402E0A7
:1048300000F8011B521E002A18BF10F0030FF7D119
:10484000930835D001EB014C02F003020CEB0C2C69
:10485000032B1ADD5C42E51704EB9574A410654246
:10486000002DC4BF04462E460FDD00BF44F804CB24
:10487000761E44F804CB44F808CB44F804CCF5D1B8
:104880006C4200EB051003EB8403002B23DD041FB7
:1048900013F0010F18BF44F804CF5D1006D000BF1D
:1048A000C4F804C044F808CF6D1EF9D100EB8300B2
:1048B000002A18DD401E12F0010F18BF00F8011F7A
:1048C000521004BF70BC7047417000F8021F521EA6
:1048D000FAD170BC7047002BEAD000BF40F804CB7F
:1048E0005B1EFBD1E4E7002A04BF70BC704700BF29
:1048F00000F8011B521EFBD170BC704770B410F061
:10490000020F02D020F8021B521E53083CD001EBCC
:10491000014C042B25DB40F804CB1B1F40F804CBD3
:10492000032B40F808CB40F804CC1ADD5C42E517B5
:1049300004EB9574A4106642002EC4BF04463546AD
:104940000FDD00BF44F804CB6D1E44F804CB44F8DF
:1049500008CB44F804CCF5D1744200EB061003EB0D
:104960008403002B16DD041F13F0010F18BF44F859
:1049700004CF5D1006D000BFC4F804C044F808CFCF
:104980006D1EF9D100EB830012F0010F18BF0180FA
:1049900070BC7047002BF7D040F804CB5B1EFBD1F6
:1049A000F2E7FEE72DE9F04F97B0002798469346CF
:1049B000894606463C46209D1AE0D8E9053018B1E4
:1049C0006869A04200DD0023D5E90301A14200DDB2
:1049D0000020A9690090CDE901410BEB8402494612
:1049E000304600F0B7FD0743641C09F1240948363E
:1049F0002868A042E1DC12E0D5E90330A04200DDE6
:104A00000023A8690BEB8402CDE9004049463046FB
:104A100000F0C4FC0743641C09F1240948366868A7
:104A2000A042E9DC009441E0D5E90320A04200DD8A
:104A3000002203A9484604F00DFEE00715904FF050
:104A4000000A04F001005646029003A80BEB062171
:104A500050F83600019180004AEA000A41F824002B
:104A6000FBF7B1FB40EA070803A800EBC600159965
:104A70004068800080EAE1710298084401994AEA9E
:104A8000000A01EB8401C1F88000FBF79CFB0021C8
:104A900049F82610761C40EA0807092ED5DB09F1F3
:104AA0002409BAF1000F00D00094641CA868A04249
:104AB000BADC0021202C09DA00200BEBC012401CCC
:104AC00042F824101228F8DB641CF3E70FB1002031
:104AD00003E0202003E07F00401C002FFBDA401E93
:104AE000E861009817B0BDE8F08F0029018802D076
:104AF00041F4806101E021F4806101807047034648
:104B000000209A8A1B8B42EA034222F07F429143A3
:104B100000D1012070470029018802D041F0010135
:104B200001E021F00101018070470029018802D0D5
:104B300041F4807101E021F4807101807047002907
:104B4000018802D041F4007101E021F4007101807C
:104B500070470CB50246002000920A0F21F07F41F9
:104B6000019202D0009A143202E0009A090C183225
:104B7000009212680A4200D001200CBD7FB50446A5
:104B800080880D4620F03F06684601F0C7FE2749A1
:104B90000298B0FBF1F189B20E43A680228822F080
:104BA00001022280224B2A689A421BD85200B0FB95
:104BB000F2F080B2042800D20420491C2184A08392
:104BC000208840F00100208020884FF6F531084011
:104BD000A9886A89114301432180A889298908434A
:104BE00020817FBDEB88A3F53F46FF3E0BD002EB53
:104BF000C20303EB0212B0FBF2F080B240F480403B
:104C0000020506D007E002EB4202B0FBF2F080B2F0
:104C1000F6E740F001004FF4967251434FF47A7278
:104C2000B1FBF2F140F40040C7E7000040420F0042
:104C3000A086010012B141F0010101E001F0FE0186
:104C400001827047018270470029818B02D041F4B4
:104C5000806101E021F48061818370477CB501218E
:104C6000072001F013FE02208DF804008DF80500E6
:104C700000208DF806001E4D8DF8070010246946AF
:104C800028460094FDF7A9F908211A4E00916946BB
:104C90003046FDF7A2F9694630460094FDF79DF9CC
:104CA0002020009069463046FDF797F98020124C8D
:104CB000009069462046FDF790F906220421284617
:104CC000FDF7C7F9062203213046FDF7C2F9062297
:104CD00004213046FDF7BDF9062205213046FDF7D7
:104CE000B8F9062207212046FDF7B3F97CBD000084
:104CF000000002400004024000080240F0B5022219
:104D00000023858B01244FF24006354085830284C1
:104D1000868B8D68022D3DD08A8802B10224294AF3
:104D200013681B0203D5136823F400031360254A9C
:104D30007C3213681268C3F38813224FC2F30272E5
:104D40003F1F3D683F6805F03F057F0201D51E4FBC
:104D500000E01E4FB7FBF5F55D43B5FBF2F2CB88E3
:104D6000B3F5007F2BD06301B2FBF3F202EB8202BA
:104D70008B685200B2FBF3F2521D92B20A23B2FBCF
:104D8000F3F202F00103D21A4FF6FF74C2F34F029E
:104D900004EA0323941EFE2C01D302220023CC88B4
:104DA0001A43144304840A884B881A438B888989E0
:104DB0000B431A43324342F400618183F0BD120A6F
:104DC000D4E7000008380240001BB7000024F400BC
:104DD00001210148FCF788BA8860024010B5002123
:104DE0000448FCF781FA03480021BDE81040303840
:104DF000FCF77ABA886002402DE9FF41074600249B
:104E000090460E46204601F0EDFD012001F0F0FD38
:104E10004FF4FA753B2001F0CBFD012802D0641C51
:104E2000AC42F7D30121C80301F048FD0D4C2046E8
:104E300002F072FD6015ADF80000ADF80460ADF849
:104E400006000020ADF80C00ADF80270CDF8088027
:104E500069462046FFF752FF01212046FFF7F4FE86
:104E6000BDE8FF81003C00402DE9F0418846054641
:104E7000012190B01646480501F008FD284F38463C
:104E8000FCF73CFA3846FCF7EAFA0028FAD1254943
:104E90003846FCF713FA24480024CDE900404020AE
:104EA000CDE9025004960001CDE90540400007908D
:104EB00080000890401109904002CDE90A040C944A
:104EC0000D94694638460E94FCF710FB00222946E3
:104ED0003846FCF7AFFA4FF4002241463846FCF75B
:104EE000A9FA01213846FCF79BFA01221021384625
:104EF000FCF7E6FA0C48012202210C3802F004FD0E
:104F000010208DF83C008DF83D4001208DF83E00CA
:104F10008DF83F000FA801F07BFC10B0BDE8F081D8
:104F2000886002403DF000A00C3C0040044A00288C
:104F30004FF00101104601D0FDF7A4B8FDF7A0B86D
:104F40000004024001B5009801E0401E00900028D6
:104F5000FBD108BD00B501219DB0084601F0A2FCBF
:104F60000F2007903C20099000200A9006210D9008
:104F70000B90009108900C9005210690CDE901015D
:104F80001021CDE9100103901290090204900590C0
:104F9000CDE916010E900F90149013901590890092
:104FA000CDE918011A9007A81B90CDF870D00EA873
:104FB000FCF750FE01210020FCF73CFE1DB000BDB7
:104FC0002DE9FC5F01211A2001F060FC01244FF063
:104FD00000088DF806808DF8074002258DF80450F2
:104FE00003208DF80500A603694678480096FCF773
:104FF000F4FF0C220E217548FDF72BF84FF4004901
:1050000069467248CDF80090FCF7E7FF0C220F21AB
:105010006E48FDF71EF869466C480094FCF7DDFF0A
:105020000C2200216948FDF714F86946674800958D
:10503000FCF7D3FF0C2201216448FDF70AF84FF07A
:10504000800B69466248CDF800B0FCF7C6FF0C2221
:1050500007215F48FCF7FDFF270269465C4800977F
:10506000FCF7BBFF0C2208215948FCF7F2FF600255
:10507000009069465648FCF7B0FF0C2209215448BD
:10508000FCF7E7FFA002009069465148FCF7A5FF36
:105090000C220A214E48FCF7DCFF4FF4006A6946F7
:1050A0004B48CDF800A0FCF798FF0C220B21484894
:1050B000FCF7CFFF2003009069464548FCF78DFFC1
:1050C0000C2211464248FCF7C4FF60030090694679
:1050D0003F48FCF782FF0C220D213D48FCF7B9FF49
:1050E00069463B480096FCF778FF0C220E213848B1
:1050F000FCF7AFFF69463648CDF80090FCF76DFF2E
:105100000C220F213248FCF7A4FF69462F48009774
:10511000FCF763FF0C2208212C48FCF79AFF600281
:10512000009069462948FCF758FF0C2209212748BE
:10513000FCF78FFFA002009069462448FCF74DFF62
:105140000C220A212148FCF784FF102000906946B8
:105150001E48FCF742FF0C2204211C48FCF779FF93
:105160002020009069461948FCF737FF0C220521E2
:105170001648FCF76EFF69461448CDF800B0FCF7FE
:105180002CFF0C2207211148FCF763FF69460F48EA
:10519000CDF800A0FCF721FF0C220B210B48FCF7F7
:1051A00058FF8DF804408DF8068008208DF80740E0
:1051B00000908DF8055069460448FCF70EFF6946DB
:1051C00004480094FCF709FFBDE8FC9F000C024076
:1051D000001002400004024010B5FFF7F1FEFFF797
:1051E000B9FE0120FFF7A2FE00F0C0F8BDE81040B4
:1051F000AFF3008010B55B4CCF2020800021A01CB5
:1052000001808121018030210180ED2121806421F4
:105210000180032101801221018081210180E82188
:105220002180852101801021018078210180CB21FE
:105230002180392101802C2101800021018034212D
:10524000018002210180F721218020210180EA21B3
:105250002180002101800180B12121800021018075
:105260001B210180B62121800A210180A221018019
:10527000C021218035210180C1212180112101809F
:10528000C5212180452101800180C7212180A221E3
:105290000180F2212180002101802621218001212D
:1052A0000180E02121800F2101802621018024211D
:1052B00001800B2101800E210180092101805421F0
:1052C0000180A8210180462101800C210180172145
:1052D0000180092101800F21018007210180002127
:1052E0000180E121218000210180192101801B2101
:1052F00001800421018010210180072101802A21E1
:10530000018047210180392101800321018006218C
:105310000180018030210180382101800F2101802E
:1053200036212180A82101802A21218000210180AD
:1053300001800180EF2101802B212180002101804B
:105340000180012101803F2101803A2121805521E6
:105350000180112020800448FFF7F4FD29202080DF
:1053600010BD0000FEFF0160FCBF020070B5094CDB
:1053700008212046FCF784FE074D2846FFF7E2FD92
:1053800008212046FCF77EFE2846BDE87040FFF766
:10539000D9BD0000000C0240FCBF02002DE9FF4F08
:1053A000A7B0044635981E460D464FF0000A072860
:1053B00016DAC0F1070A002054F8201041FA0AF169
:1053C00044F8201004EB80014A6842FA0AF24A606D
:1053D000296841FA0AF102C5801C1228ECDB243D41
:1053E0006946204608F01AFE201D06A908F016FEA0
:1053F00004F108000CA908F011FE324612A9284653
:1054000004F028F9524800273C4624900DF1480B3F
:105410005BF824004FEA80094846FAF7D4FE40EAD8
:105420000708299800EBC416C6F800900BEB840916
:10543000D9F80C0080008346FAF7C5FE40EA080759
:10544000684600EB8400C6F880B12590C1682498B6
:1054500050F82400FAF7B4FE0146D9F8180001EB21
:1054600080008346FAF7AFFE40EA0708C6F800B3AB
:105470002498C4F1050100EB840B5DF82110DBF8E2
:105480000C00FAF79DFE0146D9F8240001EB8000DC
:105490000746FAF798FEC4F10201C6F8807440EAA4
:1054A00008085DF82110DBF81800FAF789FE0746B6
:1054B0002598416A249850F82400FAF781FE39189B
:1054C000D9F8300001EB80073846FAF77CFE40EA55
:1054D00008002590C6F800765DF82410DBF824005B
:1054E000FAF76EFEC4F10B0107465DF82110DBF8F8
:1054F0000C00FAF765FE3918D9F83C0001EB800082
:105500008046FAF760FE07462598641C0743C6F8F4
:105510008087032CFFF67AAF0620694651F82020D9
:10552000401C921004C50928F8DB0C2051F82020FB
:10553000401C921004C51228F8DBA5F12401534643
:10554000349A2998FCF794FC2BB03843BDE8F08FCF
:1055500094E703082DE9F04FA7B00C4692460146A8
:10556000002232989B46443113466D4607281CDAC8
:10557000C0F1070908200E6846FA09F6F31A0E1F53
:105580009A1A3668A1F1080146FA09F6F31A05EBF2
:105590008006726245F8203054F8206046FA09F619
:1055A00044F82060401EE6D511E04FF000090820C5
:1055B0000E68F31A0E1F9A1A3668A1F10801F31A41
:1055C00005EB8006726245F82030401EF0D5099840
:1055D00040100990009840100090284608F072FC96
:1055E00009A808F06FFC3098504F4FF0000808AD44
:1055F00050EA0B0058D012A92046309A04F02AF83D
:105600004B490BEBCB0001EB001000262690696A9A
:1056100057F8040955F804B9FAF7D2FD4FEAAB017F
:105620000A1A084401C42698934650F826101046DA
:10563000FAF7C6FD014612A850F82600084480007B
:1056400024902699C6F11100259051F82010584653
:10565000FAF7B6FD0146259812AA52F82000084430
:105660004FEA800B0AEBC6112498086025980AEBD4
:10567000C010C0F800B02498FAF7A5FD40EA080869
:105680005846FAF7A0FD761C40EA0808092EBEDB52
:10569000A4F124014B465046319AFCF7E9FB27B0B0
:1056A00040EA0800BDE8F08FDFF880B000260BF17B
:1056B000040B696A57F8040955F804292492FAF78B
:1056C0007FFD249A236891105A422692421A084478
:1056D000249201C49818404225905BF8041BFAF705
:1056E0006FFD249A02EB800024905BF8041B259840
:1056F000FAF766FD269A0AEBC61102EB80002590A8
:1057000024980860C6F111020AEBC21125980860BE
:105710002498FAF758FD40EA08082598FAF753FD4F
:10572000761C40EA0808092EC3DBB1E7C0E5030890
:1057300074E603087CB50121142001F0A7F80020CD
:105740008DF804001C4E01258DF807000095694670
:105750003046FCF742FC0224694630460094FCF7D0
:105760003CFC0095154D69462846FCF736FC694619
:1057700028460094FCF731FC042100916946284634
:10578000FCF72BFC0820009069462846FCF725FC16
:105790001020009069462846FCF71FFC202000904E
:1057A00069462846FCF719FC4020009069462846C7
:1057B000FCF713FC7CBD0000000802400010024012
:1057C0000449054A0968497C52F8211009690968A9
:1057D00008470000C4010020DC0100202DE9FF4F34
:1057E00087B09A48DDF850A0169E006890B1DDE9B8
:1057F0001723DDF864C0CDF814C00296CDE9032369
:10580000159ACDE900A2D0F800C0DDE90923079878
:1058100000F0D3B80A98099A0844451E07988C4CA2
:105820001044A0F1010C15984AEA0000012826D086
:10583000C6F1080002900020009104900A98002808
:10584000DCBF0BB0BDE8F08F159900980844411EED
:10585000019105902068B0F90A208A4200F3E580A2
:10586000B0F90E100098884200F3DF80189803907A
:105870000998079D4FF00008002872DCD5E02268E7
:10588000B2F90A30581A00280DDD0A99091A0A914E
:105890000029DCBF0BB0BDE8F08F1946DDE91734F5
:1058A00000FB03401890B2F90E00281A002807DD0B
:1058B0000A9B181A0A900028DCBF0BB0BDE8F08FD5
:1058C000B2F90C00ACEB0000002802DD099B181AAD
:1058D0000990B2F90830DDF81CC00020634550DDA6
:1058E000A3EB0C00099B1B1A0993082E32D006DC8F
:1058F000012E0BD0022E15D0042E1FD041E0102E09
:1059000030D0182E18BF202E34D03AE0189B20F04B
:10591000070C03EBE0031893079B00F007006344B8
:1059200007932EE0189B20F0030C03EBA0031893C1
:10593000079B00F003006344079322E0189B20F0CC
:10594000010C03EB60031893079B00F00100634414
:10595000079316E0189B03446044079018930020B7
:105960000FE032E0189B03EB40036044079018936C
:10597000002006E0189B03EB800360440790189317
:105980000020099B002BDCBF0BB0BDE8F08FDDE9E8
:105990001734DDF864C0CDF814C00293CDE903409C
:1059A0000A98CDE90006527C2A48099B50F822004B
:1059B000C268D2F804C00A460799E0470BB0BDE8B8
:1059C000F08F00BFB9F1000F05D103984FF008091F
:1059D00010F8017B03900298A9EB060937FA00F052
:1059E00007FA06F1CFB204D12168097C11F0020F49
:1059F00015D12168199AC96B002AD1F800B018BFD7
:105A000052F82000086005EB0A00DDE90013421E91
:105A1000284600F08BF82068C06BC0F800B00998E9
:105A200008F1010855448045CCDB0498401C0490E3
:105A300005980090DDE91701084418900A99049828
:105A40008842FFF601AF0BB0BDE8F08FF0010020F7
:105A5000C4010020DC0100208C46164930B40968DE
:105A6000B1F90A306345D9BFB1F90E309C4530BC5D
:105A70007047B1F90830984215DB00BFB1F90C301E
:105A8000934213DB8242BCBF30BC70474B7C0A4957
:105A900051F8234013466246E1688D68014620466E
:105AA000AC4630BC6047B1F90800E7E7B1F90C201B
:105AB000E8E70000C4010020DC0100200A46194983
:105AC00030B40968B1F90A309342D9BFB1F90E3048
:105AD0009A4230BC7047B1F908308342D9BFB1F95E
