:020000040800F2
:1000000028FA01209D0100084950000849300008E5
:1000100045500008E90D00088D6C00080000000044
:100020000000000000000000000000000165000862
:100030009114000800000000D9500008F165000884
:10004000B7010008B7010008B7010008B7010008B0
:10005000B7010008B7010008B7010008B7010008A0
:10006000B7010008B7010008011C0008B70100082B
:10007000B7010008B701000809110008B70100081E
:1000800035110008B7010008B7010008B7010008E2
:10009000B7010008B7010008B7010008B701000860
:1000A000B7010008B7010008B7010008B701000850
:1000B000B7010008B7010008B7010008B701000840
:1000C000B7010008B7010008B7010008B701000830
:1000D000B7010008B7010008B7010008B701000820
:1000E000B7010008B7010008B7010008B701000810
:1000F000B7010008B7010008B7010008B701000800
:10010000B701000861550008B7010008B7010008F1
:10011000B7010008B7010008B7010008B7010008DF
:10012000B7010008B7010008B70100086111000815
:10013000B7010008B7010008B7010008B7010008BF
:10014000B7010008B7010008B7010008B7010008AF
:10015000B7010008B7010008B7010008B70100089F
:10016000B7010008B7010008B7010008B70100088F
:10017000B7010008B7010008B7010008B70100087F
:10018000B7010008B7010008DFF80CD000F0C4FC8C
:1001900000480047B1BF000828FA01200648804700
:1001A00006480047FEE7FEE7FEE7FEE7FEE7FEE75C
:1001B000FEE7FEE7FEE7FEE771660008890100083A
:1001C00081FB0020704701464FF0000081EAE1709A
:1001D000A0EBE170704700002DE9F04F82B0019074
:1001E0004FF000744FF000784FF000054FF0000919
:1001F00052F804CB52F804EB0868CB6DC0FB0C45F9
:10020000D1F88000CEF1000EC3FB0E45D1F8DC30F2
:10021000C0FB0C89C3FB0E8952F804CB52F804EBE7
:1002200048688B6DC0FB0C45D1F88400CEF1000E00
:10023000C3FB0E45D1F8D830C0FB0C89C3FB0E8937
:1002400052F804CB52F804EB88684B6DC0FB0C45A8
:10025000D1F88800CEF1000EC3FB0E45D1F8D430A2
:10026000C0FB0C89C3FB0E8952F804CB52F804EB97
:10027000C8680B6DC0FB0C45D1F88C00CEF1000EA8
:10028000C3FB0E45D1F8D030C0FB0C89C3FB0E89EF
:1002900052F804CB52F804EB0869CB6CC0FB0C4558
:1002A000D1F89000CEF1000EC3FB0E45D1F8CC3052
:1002B000C0FB0C89C3FB0E8952F804CB52F804EB47
:1002C00048698B6CC0FB0C45D1F89400CEF1000E50
:1002D000C3FB0E45D1F8C830C0FB0C89C3FB0E89A7
:1002E00052F804CB52F804EB88694B6CC0FB0C4508
:1002F000D1F89800CEF1000EC3FB0E45D1F8C43002
:10030000C0FB0C89C3FB0E8952F804CB52F804EBF6
:10031000C8690B6CC0FB0C45D1F89C00CEF1000EF7
:10032000C3FB0E45D1F8C030C0FB0C89C3FB0E895E
:1003300001984FF4FE4E4EF0FF0E4FEA946444EAEB
:1003400085144FEAE47CBCEBE43F18BF8CEA0E0452
:100350004FEA986848EA89184FEAE87CBCEBE83F26
:1003600018BF8CEA0E080480A0F8028002F57072B3
:1003700001F580514FF000744FF000784FF0000508
:100380004FF0000952F804CB0868D1F88030C0FB68
:100390000C45C3FB0C8952F804CB4868D1F8843073
:1003A000C0FB0C45C3FB0C8952F804CB8868D1F81C
:1003B0008830C0FB0C45C3FB0C8952F804CBC868DD
:1003C000D1F88C30C0FB0C45C3FB0C8952F804CB30
:1003D0000869D1F89030C0FB0C45C3FB0C8952F87A
:1003E00004CB4869D1F89430C0FB0C45C3FB0C89A1
:1003F00052F804CB8869D1F89830C0FB0C45C3FB98
:100400000C8952F804CBC869D1F89C30C0FB0C456C
:10041000C3FB0C8901984FF4FE4E4EF0FF0E4FEADD
:10042000946444EA85144FEAE47CBCEBE43F18BFD3
:100430008CEA0E044FEA986848EA89184FEAE87C8B
:10044000BCEBE83F18BF8CEA0E08A0F84040A0F8CB
:100450004280A2F57872A1F570614FF00F0C00F1A7
:100460000400CDF800C001904FF000744FF0007808
:100470004FF000764FF0007A4FF000054FF0000982
:100480004FF000074FF0000B52F804CB52F804EB8A
:100490000868CB6DC0FB0C45C0FB0E67CEF1000EAB
:1004A000C3FB0C67C3FB0E45D1F8DC30D1F88000EC
:1004B000C3FB0E89C3FB0CABCEF1000EC0FB0C8955
:1004C000C0FB0EAB52F804CB52F804EB48688B6DBE
:1004D000C0FB0C45C0FB0E67CEF1000EC3FB0C67E2
:1004E000C3FB0E45D1F8D830D1F88400C3FB0E8988
:1004F000C3FB0CABCEF1000EC0FB0C89C0FB0EABF6
:1005000052F804CB52F804EB88684B6DC0FB0C45E5
:10051000C0FB0E67CEF1000EC3FB0C67C3FB0E459C
:10052000D1F8D430D1F88800C3FB0E89C3FB0CABE3
:10053000CEF1000EC0FB0C89C0FB0EAB52F804CB11
:1005400052F804EBC8680B6DC0FB0C45C0FB0E678E
:10055000CEF1000EC3FB0C67C3FB0E45D1F8D030C3
:10056000D1F88C00C3FB0E89C3FB0CABCEF1000E9F
:10057000C0FB0C89C0FB0EAB52F804CB52F804EB65
:100580000869CB6CC0FB0C45C0FB0E67CEF1000EBA
:10059000C3FB0C67C3FB0E45D1F8CC30D1F89000FB
:1005A000C3FB0E89C3FB0CABCEF1000EC0FB0C8964
:1005B000C0FB0EAB52F804CB52F804EB48698B6CCD
:1005C000C0FB0C45C0FB0E67CEF1000EC3FB0C67F1
:1005D000C3FB0E45D1F8C830D1F89400C3FB0E8997
:1005E000C3FB0CABCEF1000EC0FB0C89C0FB0EAB05
:1005F00052F804CB52F804EB88694B6CC0FB0C45F5
:10060000C0FB0E67CEF1000EC3FB0C67C3FB0E45AB
:10061000D1F8C430D1F89800C3FB0E89C3FB0CABF2
:10062000CEF1000EC0FB0C89C0FB0EAB52F804CB20
:1006300052F804EBC8690B6CC0FB0C45C0FB0E679D
:10064000CEF1000EC3FB0C67C3FB0E45D1F8C030E2
:10065000D1F89C00C3FB0E89C3FB0CABCEF1000E9E
:10066000C0FB0C89C0FB0EAB01F5807101984FF403
:10067000FE4E4EF0FF0E4FEA946444EA85144FEAB2
:10068000E47CBCEBE43F18BF8CEA0E044FEA9868A8
:1006900048EA89184FEAE87CBCEBE83F18BF8CEACF
:1006A0000E084FEA966646EA87164FEAE67CBCEBF0
:1006B000E63F18BF8CEA0E064FEA9A6A4AEA8B1A9E
:1006C0004FEAEA7CBCEBEA3F18BF8CEA0E0ADDF881
:1006D00000C000EBCC0E2EF8026B2EF802AB20F817
:1006E000024B20F8028BBCF1010C7FF4BAAE02B0D1
:1006F000BDE8F08F2DE9F04F82B001904FF000740B
:100700004FF0000552F804CB52F804EB0868CB6DAB
:10071000CEF1000EC0FB0C45C3FB0E4552F804CBD6
:1007200052F804EB48688B6DCEF1000EC0FB0C450F
:10073000C3FB0E4552F804CB52F804EB88684B6DAE
:10074000CEF1000EC0FB0C45C3FB0E4552F804CBA6
:1007500052F804EBC8680B6DCEF1000EC0FB0C45DF
:10076000C3FB0E4552F804CB52F804EB0869CB6C7E
:10077000CEF1000EC0FB0C45C3FB0E4552F804CB76
:1007800052F804EB48698B6CCEF1000EC0FB0C45AF
:10079000C3FB0E4552F804CB52F804EB88694B6C4E
:1007A000CEF1000EC0FB0C45C3FB0E4552F804CB46
:1007B00052F804EBC8690B6CCEF1000EC0FB0C457F
:1007C000C3FB0E4501984FF4FE4E4EF0FF0E4FEA6C
:1007D000946444EA85144FEAE47CBCEBE43F18BF20
:1007E0008CEA0E04048002F5707201F580514FF01E
:1007F00000744FF0000552F804CB0868C0FB0C45AC
:1008000052F804CB4868C0FB0C4552F804CB88680A
:10081000C0FB0C4552F804CBC868C0FB0C4552F82D
:1008200004CB0869C0FB0C4552F804CB4869C0FBF7
:100830000C4552F804CB8869C0FB0C4552F804CB38
:10084000C869C0FB0C4501984FF4FE4E4EF0FF0EF8
:100850004FEA946444EA85144FEAE47CBCEBE43F3D
:1008600018BF8CEA0E040484A2F57872A1F57061B9
:100870004FF00F0C00F10200CDF800C001904FF0D6
:1008800000744FF000764FF000054FF0000752F86B
:1008900004CB52F804EB0868CB6DC0FB0C45C0FBE1
:1008A0000E67CEF1000EC3FB0E45C3FB0C6752F87A
:1008B00004CB52F804EB48688B6DC0FB0C45C0FBC1
:1008C0000E67CEF1000EC3FB0E45C3FB0C6752F85A
:1008D00004CB52F804EB88684B6DC0FB0C45C0FBA1
:1008E0000E67CEF1000EC3FB0E45C3FB0C6752F83A
:1008F00004CB52F804EBC8680B6DC0FB0C45C0FB81
:100900000E67CEF1000EC3FB0E45C3FB0C6752F819
:1009100004CB52F804EB0869CB6CC0FB0C45C0FB60
:100920000E67CEF1000EC3FB0E45C3FB0C6752F8F9
:1009300004CB52F804EB48698B6CC0FB0C45C0FB40
:100940000E67CEF1000EC3FB0E45C3FB0C6752F8D9
:1009500004CB52F804EB88694B6CC0FB0C45C0FB20
:100960000E67CEF1000EC3FB0E45C3FB0C6752F8B9
:1009700004CB52F804EBC8690B6CC0FB0C45C0FB00
:100980000E67CEF1000EC3FB0E45C3FB0C6701F5ED
:10099000807101984FF4FE4E4EF0FF0E4FEA9464C2
:1009A00044EA85144FEAE47CBCEBE43F18BF8CEAD0
:1009B0000E044FEA966646EA87164FEAE67CBCEBE1
:1009C000E63F18BF8CEA0E06DDF800C000EB8C0E87
:1009D0002EF8026B20F8024BBCF1010C7FF44CAFF7
:1009E00002B0BDE8F08F2DE9F05F05460020924689
:1009F0009B4688460646814640241BE028464146E1
:100A00004746224600F077F853465A46C01A9141AD
:100A100010D311461846224600F05EF82D1A67EBF7
:100A200001084F4622460120002100F055F817EB3F
:100A300000094E41201EA4F10104DFDC4846314686
:100A40002A464346BDE8F09F10B5431A934209D2A7
:100A50008318881803E010F8011D03F8011D521EC9
:100A6000F9D210BD40EA01039B0703D009E008C991
:100A7000121F08C0042AFAD203E011F8013B00F863
:100A8000013B521EF9D210BDD2B201E000F8012B99
:100A9000491EFBD270470022F6E710B513460A46FE
:100AA00004461946FFF7F0FF204610BD30B50B464F
:100AB000014600202022012409E021FA02F59D428E
:100AC00005D303FA02F5491B04FA02F52844151E62
:100AD000A2F10102F1DC30BD202A04DB203A00FA49
:100AE00002F1002070479140C2F1200320FA03F385
:100AF000194390407047202A04DB203A21FA02F083
:100B00000021704721FA02F3D040C2F12002914047
:100B10000843194670470000064C074D06E0E068A0
:100B200040F0010394E8070098471034AC42F6D334
:100B3000FFF72EFB08EF030828EF030870B58C18A9
:100B400010F8015B15F0070301D110F8013B2A11E1
:100B500006D110F8012B03E010F8016B01F8016BCE
:100B60005B1EF9D12B0705D40023521E0DD401F8CA
:100B7000013BFAE710F8013BCB1A921C03E013F893
:100B8000015B01F8015B521EF9D5A142D8D30020C8
:100B900070BD00002DE9F84F04460E4637461CE1B3
:100BA000904D4834203CD4F81C80D5F800A02D1D71
:100BB000D4F82090286800902D1D41465046FFF73C
:100BC000FFFA834649460098FFF7FAFAABEB0000BC
:100BD0004000E06149465046FFF7F2FA834641463D
:100BE0000098FFF7EDFA584440002062D4F81880CE
:100BF000D5F800A02D1DD4F82490286800902D1D54
:100C000041465046FFF7DCFA834649460098FFF715
:100C1000D7FAABEB00004000A06149465046FFF711
:100C2000CFFA834641460098FFF7CAFA584440007D
:100C30006062D4F81480D5F800A02D1DD4F8289057
:100C4000286800902D1D41465046FFF7B9FA8346AB
:100C500049460098FFF7B4FAABEB00004000606132
:100C600049465046FFF7ACFA834641460098FFF7E5
:100C7000A7FA58444000A062D4F81080D5F800A02C
:100C80002D1DD4F82C90286800902D1D414650460B
:100C9000FFF796FA834649460098FFF791FAABEBC7
:100CA00000004000206149465046FFF789FA83461C
:100CB00041460098FFF784FA58444000E062D4F8B7
:100CC0000C80D5F800A02D1DD4F830902868009035
:100CD0002D1D41465046FFF773FA8346494600985A
:100CE000FFF76EFAABEB00004000E060494650466B
:100CF000FFF766FA834641460098FFF761FA5844C9
:100D000040002063D4F80880D5F800A02D1DD4F849
:100D10003490286800902D1D41465046FFF750FA48
:100D2000834649460098FFF74BFAABEB00004000C2
:100D3000A06049465046FFF743FA83464146009873
:100D4000FFF73EFA584440006063D4F80480D5F8B9
:100D500000A02D1DD4F83890286800902D1D414624
:100D60005046FFF72DFA834649460098FFF728FAC8
:100D7000ABEB00004000606049465046FFF720FAA8
:100D8000834641460098FFF71BFA58444000A06391
:100D9000D4F80080D5F800A02D1DD4F83C90286828
:100DA00000902D1D41465046FFF70AFA83464946FA
:100DB0000098FFF705FAABEB0000400020604946C1
:100DC0005046FFF7FDF9834641460098FFF7F8F9D2
:100DD00058444000E06320347F1E002F3FF7E0AE10
:100DE000BDE8F88F40D2030800BFFEE7014609B90D
:100DF00020207047002201E0521C490001F0004011
:100E00000028F9D01046F4E7014609B920207047C0
:100E1000002201E0521C490001F000400028F9D0F6
:100E20001046F4E710B502461346002002E0002405
:100E30001C54401C8842FADB10BD70B500254FF4ED
:100E4000803400E0641E24B1802004F05DFB0028A3
:100E5000F8D014B90325284670BD40F2FF5004F0C5
:100E60000FFB2846F8E700002DE9F0410646002771
:100E70004848056801E04748056805F04500002836
:100E8000F9D005F0040030B10327042004F0F8FA8B
:100E90003846BDE8F08105F0010028B101270120A6
:100EA00004F0EEFA3846F4E704F028FBB04202D032
:100EB00010273846EDE740F2FF5004F0E1FA002039
:100EC00004F042FB04463448204008B93846E0E7C5
:100ED00004F0004008B11C20DBE704F0804008B1BA
:100EE0000920D6E704F0005008B10A20D1E704F049
:100EF000805008B10B20CCE704F0006008B10C2052
:100F0000C7E704F0806008B10D20C2E704F08070EC
:100F100008B10E20BDE704F4000008B10F20B8E7C7
:100F200004F4800008B11020B3E704F4001008B105
:100F30001120AEE704F4801008B11220A9E704F4F0
:100F4000002008B11320A4E704F4802008B1142085
:100F50009FE704F4003008B115209AE704F48030CC
:100F600008B1162095E704F4004008B1172090E777
:100F700004F4804008B118208BE704F4005008B155
:100F8000192086E704F0080008B11A2081E73846E6
:100F90007FE70000342C014008E0FFFD70B500251C
:100FA0001048046801E00F48046804F04500002878
:100FB000F9D004F0040028B10325042004F060FAFD
:100FC000284670BD04F0010028B10125012004F07D
:100FD00057FA2846F5E740F2FF5004F051FA284648
:100FE000EFE70000342C014070B500250B48046881
:100FF00001E00A48046804F045000028F9D004F034
:10100000040028B10325042004F03AFA284670BDF4
:1010100040F2FF5004F034FA2846F8E7342C01403F
:101020002DE9F04106460F464FF0000822480568BA
:1010300001E02148056805F045000028F9D005F0D9
:10104000040038B14FF00308042004F019FA4046B8
:10105000BDE8F08105F0010030B14FF0010801203A
:1010600004F00EFA4046F3E704F048FAB04203D029
:101070004FF010084046EBE740F2FF5004F000FA52
:10108000002004F061FA044604F4604018B9200C12
:1010900038804046DCE704F4005008B11320D7E75D
:1010A00004F4804008B11020D2E704F4004008B1F5
:1010B0000F20CDE74046CBE7342C014070B5002629
:1010C0004FF480350F48046802E06D1E0D48046837
:1010D00004F0450008B9002DF7D115B104F0040063
:1010E00028B10326042004F0CBF9304670BD04F08B
:1010F000400028B10026402004F0C2F93046F5E750
:101100003046F3E7342C014010B50749074800F09A
:1011100043F9012806D10449044800F03FF8044887
:101120000068804710BD0000008000185860024031
:10113000F400002010B50749074800F02DF90128F8
:1011400006D10449044800F029F8044800688047A3
:1011500010BD00000088002088600240F0000020E0
:1011600010B504F0F9FE10BD0246094B9A4201D2B7
:10117000084801E00648103801F000531BB1064B47
:101180000B40C36002E0044B0B40836070470000DB
:1011900010640240006002407D0F7D0F0246094B43
:1011A0009A4201D2084801E00648103801F0005385
:1011B0001BB1064B0B40C36002E0044B0B40836045
:1011C0007047000010640240006002407D0F7D0FF8
:1011D00021B1026842F00102026003E0026822F0DD
:1011E0000102026070470000016821F00101016006
:1011F0000021016041608160C16001612121416184
:101200004A49884204D13D21484A103A91608CE015
:1012100046491831884205D14FF47461434A103A67
:10122000916082E041493031884205D14FF4741118
:101230003E4A103A916078E03C494831884205D1F5
:101240004FF07461394A103A91606EE0374960316D
:10125000884204D13649354A103AD16065E03349B5
:101260007831884204D13349304A103AD1605CE089
:101270002E499031884204D12F492C4A103AD1602E
:1012800053E02A49A831884205D14FF03D51274A01
:10129000103AD16049E02949884204D13D21274ACA
:1012A000083A116041E025491831884205D14FF4D0
:1012B0007461224A083A116037E02049303188428F
:1012C00005D14FF474111D4A083A11602DE01B49F5
:1012D0004831884205D14FF07461184A083A1160CC
:1012E00023E016496031884204D11149134A121F84
:1012F00011601AE011497831884204D10D490F4A32
:10130000121F116011E00D499031884204D10A4941
:101310000A4A121F116008E00849A831884204D126
:101320004FF03D51054A121F116070471060024096
:101330003D000020400F002000003D2010640240CE
:1013400021B1026842F48022026003E0026822F4C4
:1013500080220260704722B1036843F400230360D7
:1013600003E0036823F4002303600161704721B1A7
:10137000026842F02002026003E0026822F02002CC
:1013800002607047014600200A6802F001020AB1BB
:10139000012000E00020704770B5024600200024C4
:1013A0000025124EB24201D2114B01E00F4B103B0F
:1013B000104E0E4036B11E2606EAD124166806EA03
:1013C000040502E0566906F0800501F000560EB1F2
:1013D0005C6800E01C68084E344004EA010616B15F
:1013E0000DB1012000E0002070BD0000106402403B
:1013F000006002403C0F3C0F7D0F7D0F10B501F0E7
:1014000080034BB122B1436943F08003436103E0A1
:10141000436923F08003436180290BD02AB103681C
:1014200001F01E042343036004E0036801F01E047E
:10143000A343036010BD000010B500220268134BE7
:101440001A40CC680B6823434C6923438C692343BF
:10145000CC6923430C6A23434C6A23438C6A23439D
:101460004C6B23438C6B23431A430260426922F086
:101470000702D1E90B3423431A4342610B694360ED
:101480004B6883608B68C36010BD00003F801CF018
:101490007047000000B587B00121084603F01EFE2A
:1014A0000121102003F05AFE00208DF81A000120BF
:1014B0008DF81B0002208DF819008DF8180000022D
:1014C000059005A9174800F033FE02208DF818009A
:1014D0004002059005A9134800F02AFE07220A21C0
:1014E000104800F06DFE072209210E4800F068FE4A
:1014F0004FF4E13001900020ADF80800ADF80A008B
:10150000ADF80C00ADF810000C20ADF80E0001A9EC
:10151000054805F007F90121034805F0E9F807B08F
:1015200000BD000000000240001001402DE9FF4F07
:1015300087B005460E46149C002E03DC00200BB03D
:10154000BDE8F08F002B02DA4FF0FF30F7E705938C
:10155000DFF858B309985BF82000DFF854B30BEBC1
:1015600040000190DFF84CB309985BF830C009984F
:101570000BEBC0000079029000221598404200F069
:10158000070129B114F8010BC1F1200B00FA0BF28D
:101590005B1A029898B9002006900BE04FF0000B00
:1015A000069845F820B00698401C45F820B00698EB
:1015B000801C06900698B042F0DB0020BFE702983E
:1015C000012879D10198007800F00F00049001986B
:1015D000801C01904FF0000A65E0102B10DB14F81E
:1015E000010BC1F1180B00FA0BF0024314F8010BC8
:1015F000C1F1100B00FA0BF002431031103B22E056
:10160000C818002802DC4FF0FF3098E7002B06DDF9
:1016100014F8010BC1F1180B00FA0BF00243082B70
:1016200006DD14F8010BC1F1100B00FA0BF00243B8
:1016300019440023481E4FF0004B4BFA00F00240C3
:101640004FF00B0A51442AE00498C0F1200022FA1E
:1016500000F0DDF804B03BF810804FEA183EA1EB33
:101660000E0102FA0EF2C8F30319B9F1000F05D00A
:1016700002F0004040EA09095200491EC8F303275E
:1016800027B102F0004007435200491E514502DADB
:101690004FF0FF3053E745F8049B80C5B61E002E7F
:1016A00001DD0B29D0DA002E97DCA1EB0A00034400
:1016B0000598C01A43E7FFE70298032802D0029872
:1016C000022876D1019800904FF0000AE2E0102B3A
:1016D00010DB14F8010BC1F1180B00FA0BF00243F8
:1016E00014F8010BC1F1100B00FA0BF0024310319A
:1016F000103B22E0C818002802DC4FF0FF301EE744
:10170000002B06DD14F8010BC1F1180B00FA0BF0E9
:101710000243082B06DD14F8010BC1F1100B00FA8F
:101720000BF0024319440023481E4FF0004B4BFAC4
:1017300000F002404FF00B0A5144A6E000980078F8
:1017400000F00F0004900498C0F1200B22FA0BF077
:10175000401CDDF800B03BF810804FEA183EBEF1A7
:10176000000F08D10498091A04988240009800EBF1
:101770004800009089E0A1EB0E0102FA0EF2C8F3D6
:101780000319C8F30327B9F10F0F33D102980328C7
:1017900030D10FB1012000E000200CF1010B5844C2
:1017A000039001EB030B0398834503DA4FF0FF30FE
:1017B000C5E678E008E014F8010BC1F1180B00FA57
:1017C0000BF002430831083B03988142F3DB002B06
:1017D00007DA19440023481E4FF0004B4BFA00F083
:1017E0000240CCF1200022FA00F08144A1EB0C0170
:1017F00002FA0CF2B9F1000F05D002F0004040EA05
:1018000009095200491E0F2F2DD1029803282AD111
:101810000CF10100039001EB030B0398834502DAFE
:101820004FF0FF308BE608E014F8010BC1F1180B04
:1018300000FA0BF002430831083B03988142F3DBC6
:10184000002B07DA19440023481E4FF0004B4BFAD7
:1018500000F00240CCF1200022FA00F00744A1EB96
:101860000C0102FA0CF227B102F0004007435200CB
:10187000491E514502DA4FF0FF3060E645F8049BFF
:1018800080C5B61E0198009000BF002E02DD0B2916
:10189000BFF654AF002E3FF71AAFA1EB0A00034486
:1018A0000598C01A4BE64FF0FF3048E6F0CB03082E
:1018B000CCAA030870CC03082DE9FF4F83B005467E
:1018C000109C002B03DC002007B0BDE8F08FDFF890
:1018D00058E105985EF82000DFF850E17044009070
:1018E000DFF84CE105985EF8200002900022119884
:1018F000404200F0070129B114F8010BC1F1200E9C
:1019000000FA0EF25B1A0027019785E0102B10DB1E
:1019100014F8010BC1F1180E00FA0EF0024314F88E
:10192000010BC1F1100E00FA0EF002431031103B12
:1019300022E0C818002801DC3846C5E7002B06DD88
:1019400014F8010BC1F1180E00FA0EF00243082B37
:1019500006DD14F8010BC1F1100E00FA0EF002437F
:1019600019440023481E4FF0004E4EFA00F002408A
:101970000A2001900198014448E00298C0F120003B
:1019800022FA00F0DDF800E01EF800604FEA161BB6
:10199000A1EB0B0102FA0BF2C6F3C00CBCF1000F75
:1019A00005D002F0004040EA0C0C5200491EC6F37C
:1019B0008008B8F1000F05D002F0004040EA0808A6
:1019C0005200491EC6F34009B9F1000F05D002F0DC
:1019D000004040EA09095200491E06F0010ABAF126
:1019E000000F05D002F0004040EA0A0A5200491EEA
:1019F0000198814201DA384666E745F804CB45F89C
:101A0000048B45F8049B45F804AB3F1D0498C01EA9
:101A1000B84201DD0A29B0DA0498C01EB8423FF787
:101A200075AF384650E70000C0CD030870CD0308FD
:101A3000C8CD030801B504490098086000BF0248FA
:101A400000680028FBD108BD740000202DE9FF4F7D
:101A500087B0834698460020009008F00300604954
:101A600001EB801A08F003005E4951F82000029053
:101A70001F20B0EBA80F02DD4FEAA80000E01F20F6
:101A80000746F81C1F2800DA00E01F200546002D3D
:101A900001DD284600E00020054600200390DAF82A
:101AA000040028410490DAF8080028410590DAF88B
:101AB0000C002841069000BF5BF8040B01900198D0
:101AC00020F00044042C03DA03A850F824606FE0EF
:101AD000102C0BDA5AF82460002F03DA794206FA48
:101AE00001F001E046FA07F0064661E0402C0BDA0F
:101AF000A4F110003C4951F8206030460299FEF7ED
:101B00005FFB0646FD1E45E064040025B4F1006F4E
:101B100001DA24012D1DB4F1005F01DAA400AD1C2F
:101B2000B4F1804F01DA64006D1C3048844201DA60
:101B30002F4800E02F488146D9F800602146304602
:101B4000FEF73EFBD9F80410461821463046FEF752
:101B500037FBD9F80810461821463046FEF730FB0F
:101B6000D9F80C10461821463046FEF729FBD9F863
:101B700010104618204850F825103046FEF720FB7C
:101B8000C60030460299FEF71BFB06461B4850F87C
:101B900025003D1A002D0ADA6D426FF00040284101
:101BA000B04202DA6FF0004602E0AE4000E02E41A3
:101BB0000098304300900198002801DA704200E05C
:101BC0003046089908600898001D08900998401E42
:101BD000099000287FF470AF00980BB0BDE8F08F3B
:101BE000A4A8030894A80308A4A903089A79825A10
:101BF00064AA030878AA0308ACAA03088CAA0308FD
:101C000010B5102000F010F828B10120024908702A
:101C1000102000F003F810BD5800002001490860B2
:101C200070470000143C014001460020034A12683E
:101C30000A400AB1012000E000207047143C014036
:101C400051B18200A2F1C042126842F00103820049
:101C5000A2F1C042136009E08200A2F1C042126802
:101C6000034B1A408300A3F1C0431A607047000081
:101C7000FEFF0F0030B50021002200230468A400FD
:101C8000A4F1C0442168424C2140D0E901452C43D5
:101C9000C5682C4305692C4345692C4385692C4351
:101CA000C5692C43056A2C43456A2C43856A2C433D
:101CB000C56A2C43056B2C4321430468A400A4F19E
:101CC000C04421608468082C0BD10468A400A4F1EE
:101CD000C044246844F040050468A400A4F1C04452
:101CE00025600468641CA400A4F1C044226802F0CA
:101CF0004042446B2468456B6D6844EA0514456BAB
:101D0000AD6844EA0524456BAD8944EA0544456B5A
:101D10002D8A44EA0554456B2D7D44EA0564456BE4
:101D2000AD692C4322430468641CA400A4F1C044A0
:101D30002260C46AB4F5804F20D10468A400A4F1E5
:101D4000C044D4F80431134C2340846B2468856B61
:101D50006D6844EA0514856BAD6844EA0524856B1B
:101D6000AD8944EA0544856BAD692C43234304687F
:101D7000A400A4F1C044C4F8043107E06FF070453A
:101D80000468A400A4F1C044C4F8045130BD0000AC
:101D90008000F7FF0000F0CF2DE9FC4107460D461B
:101DA0000026002400200090019008205B49086074
:101DB00010204860402088600020C8604FF4806098
:101DC0000861084603F0FEFB1020FFF74DF80446BB
:101DD00014B12046BDE8FC815148008800044F49F9
:101DE000086037204860402088600020C8604FF4B9
:101DF00080600861084603F0E5FB3720FFF734F800
:101E000004460CB12046E5E74FF0FF304549086035
:101E100008204860302088600220C86000200861E7
:101E200001204861084603F043FB00203B4908605D
:101E300033204860402088600020C8604FF48060F4
:101E40000861084603F0BEFB3320FFF70DF8044697
:101E50000CB12046BEE709E04FF4001003F054FB3C
:101E600020B103F0A9FB4DF82600761C2E4800682F
:101E700040F22A6108400028EED0082003F044FB1D
:101E800028B1082003F0FCFA04242046A2E702202F
:101E900003F03AFB28B1022003F0F2FA02242046B4
:101EA00098E7202003F030FB28B1202003F0E8FA67
:101EB000062420468EE74FF4007003F025FB30B176
:101EC0004FF4007003F0DCFA0724204682E740F26A
:101ED000FF5003F0D5FA00980006009901F47F4105
:101EE00040EA0120009901F47F0140EA11200099A5
:101EF00040EA1160686001980006019901F47F4191
:101F000040EA0120019901F47F0140EA1120019982
:101F100040EA1160286020465CE70000C80200200B
:101F200060000020DC020020342C01402DE9F04F3D
:101F300089B004460F4692461D46002D5BD10AF03B
:101F40000100002853D08034D4F800B004F5807428
:101F50002068089004F580742068079004F5807468
:101F60002068069004F580742068059004F580745C
:101F70002068049004F580742068039004F5807450
:101F80002068029004F580742068019004F5807444
:101F9000A4F51064CBF10000206004F5807408986B
:101FA0004042206004F5807407984042206004F5A8
:101FB000807406984042206004F580740598404281
:101FC000206004F5807404984042206004F5807419
:101FD00003984042206004F58074029840422060DB
:101FE00004F5807401984042206004F5807400205C
:101FF00009B0BDE8F08F4FF000090AF00100002899
:102000004AD0C84644E02668F017C5F11F0146FAD9
:1020100001F1814206D0C5F11F0201219140491E04
:1020200081EA000606FA05F020602068FEF7CBF88A
:1020300040EA0909803420684642F017C5F11F01C3
:1020400046FA01F1814206D0C5F11F0201219140FB
:10205000491E81EA000606FA05F020602068FEF7B6
:10206000B2F840EA090980343E68F017C5F11F0153
:1020700046FA01F1814206D0C5F11F0201219140CB
:10208000491E81EA000606FA05F001C708F10208B8
:10209000B8F1120FB7DB49E04FF0000843E02668C3
:1020A000F017C5F11F0146FA01F1814206D0C5F1D2
:1020B0001F0201219140491E81EA000606FA05F03F
:1020C00020602068FEF77FF840EA0909803426681E
:1020D000F017C5F11F0146FA01F1814206D0C5F1A2
:1020E0001F0201219140491E81EA000606FA05F00F
:1020F00020602068FEF767F840EA090980343E68EE
:10210000F017C5F11F0146FA01F1814206D0C5F171
:102110001F0201219140491E81EA000606FA05F0DE
:1021200001C708F10208B8F1120FB8DB48465FE7B3
:10213000F0B50A4600210023002400BF3DE0012540
:1021400005FA01F3156805EA03049C4234D10568D9
:102150004F000326BE40B543056015794E00B540DB
:102160000668354305601579012D02D01579022DD9
:1021700016D185684F000326BE40B543856055796A
:102180004E00B540866835438560456801268E401F
:10219000B5434560456896798E40B6B23543456093
:1021A000C5684F000326BE40B543C560D5794E00D3
:1021B000B540C6683543C560491C1029BFD3F0BD82
:1021C000F0B5002300244D07ED0E02FA05F3CE1002
:1021D00000F1200555F826504E07F70E0F26BE4099
:1021E000B543CF1000F1200646F82750CE1000F17D
:1021F000200555F8265045EA0304CE1000F12005CD
:1022000045F82640F0BD418370470183704770B5A3
:102210000C46054600F0FEF8A8682168C1626168B6
:102220000163A1684163490707D5D0E90021C0E9EE
:102230000012D0E90221C0E90212A189818421693A
:10224000002903D001DC4FF00001016270BD2DE9CF
:10225000F0411E4617468846054600F0DBF8AC689C
:102260006822414604F58670FEF7EEFB2846B84723
:102270002846B047286980688047A062BDE8F081A1
:1022800010B5044600F0C6F8A0681149144AC0F819
:10229000AC101049C0F8A8100F49C0F8B0100F4991
:1022A000C0F8B8100021C0F8BC101368C0F8B430F2
:1022B0000C4BC0E932315168C0F8C41030F8261F09
:1022C00021F0030120F82A1B0749416410BD0000DA
:1022D000BD960008BD970008859600080F9300087A
:1022E00084010020DF9300083596000810B50446ED
:1022F00000F090F8A46810481021C4F8E4000F48DA
:10230000C4F8E8000E48C4F8EC000E48C4F8F00029
:102310000D48C4F8A0000D48C4F8A400D4F8C400C7
:10232000C4F8FC00D4F89420204690471020A06305
:102330000748606410BD0000A1820008C58700083E
:102340005523000885240008C99200087F990008D9
:10235000B4ED0308F8B5846815460F4694F82600D6
:1023600080074CD5D4F80031204698470646D4F86B
:1023700004312A46394620469847D4F89830054615
:102380001BB100220121204698472069B04201DD9F
:10239000012000E00020A169B14201DA012100E042
:1023A000002108436169A94201DD012100E000210B
:1023B0000843E169A94201DA012100E00021084354
:1023C0000AD060680022401E00902368D4F8A870EC
:1023D000114620465B1EB847D4F8AC302A46314639
:1023E00020469847D4F8A01020468847D4F8983063
:1023F00005466BB1012200212046984708E0D4F839
:10240000AC3020469847D4F8A010204688470546AF
:102410002846F8BD70B504468068002812D14FF4F4
:10242000BA75284600F088F92A460021A06000F01D
:10243000C7FDA0680221C184012104640162024930
:10244000C0F8081170BD00004D24000810B590B010
:10245000044620220A496846FEF7F6FA0849202277
:10246000203108A8FEF7F0FA606B5DF82010C4F880
:10247000001108A951F82000C4F8040110B010BDE3
:1024800070D703082DE9F84384689846154694F8F8
:1024900026000F46800740D5D4F8003120469847E3
:1024A0000646D4F804312A46394620469847054660
:1024B0002069B04201DD012000E00020A169B142A5
:1024C00001DA012100E0002108436169A94201DD30
:1024D000012100E000210843E169A94201DA01215C
:1024E00000E0002108430AD060680022401E0090EE
:1024F0002368D4F8A870114620465B1EB847D4F86C
:10250000AC302A46314620469847D4F8A42001B082
:1025100041462046BDE8F0431047D4F8AC30F2E71E
:102520002DE9F04FDFF828B191B04FF0FF35DBF81F
:102530000030B3F922100691DE69B3F92490F469F2
:10254000A189814206D8E289824203D3471AD4F88E
:10255000008012E0D4E9018100296FD00A8882420C
:102560006CD84D88854269D3801A82B2486800EBE6
:102570008200B0F90070B0F90250781C5ED0307E55
:10258000A17C10FB01FA217CCDE90701B3F92A6097
:10259000304602F0EDF8C0B20E90DBF8000007FB09
:1025A0000A81A37C826B0127CDE90412CDE9027375
:1025B000C069089AC17E807ECDE90001DDE906038D
:1025C000494601F0E9FD681C18D046F0020002F00F
:1025D000CFF8DBF80000A37C05FB0A81826BCDE914
:1025E0000273CDE90412C069089AC17E807ECDE9EC
:1025F0000001DDE90603494601F0CEFDDBF80000ED
:102600005D46C069417E007E814214D9022E12D0FF
:1026100086F0040002F0ACF82868C069027EC37E30
:1026200012FB0391437E857E089A06984B4412FB69
:10263000050201F013FF0E9802F09AF8DBF8000093
:10264000627C418C1144418411B0BDE8F08F0000E0
:102650003001002004480068C069C06909B1027CEB
:102660000A60407C70470000300100200220088092
:102670007047C06982898A4202D8C2898A4210D2D0
:10268000806880B102888A420DD843888B420AD381
:10269000406800EB8100A0EB8200B0F90000002848
:1026A00001DB0120704700207047002801D005F0B1
:1026B000CFB8704738B50546FFF7F7FF040009D0DB
:1026C00000F092F82A460021009000F079FC68465C
:1026D00000F0A6F8204638BD024A106021F0030041
:1026E00050607047F078012010B5002814D00446DF
:1026F0000A48406B10F8341000290DD002290BD283
:10270000042101EBC4014158486805F059F82046FE
:10271000BDE8104006F0C4BD10BD000030780120B7
:10272000002805D0034AD16B016001B14860D06335
:1027300070470000307801202DE9F041044606F092
:1027400077FC2848E41C24F00305016C2D1DA942E8
:1027500000D90D46C46B13E054F8042CAA420ED1E4
:1027600084B1216809B162684A60616809B1226870
:102770000A60C26BA24231D12168C1632EE0246895
:10278000002CE9D18046816BC0680F1857F8040C03
:102790003E1A306838B1002006F060FE57F8040C8D
:1027A0003E1A3068D0B97068A84217DB3044441B29
:1027B0003046241D06F038FED8F80C10491BC8F826
:1027C0000C10D8F814102944C8F814107068401B75
:1027D00002D0314604F0F4FF44F8045C2046BDE822
:1027E000F0810000307801200549CA69521CCA6195
:1027F000496B01EBC0010A78521C0A7000F028B83E
:10280000307801200549102805D94A68B0EB520FED
:1028100002D3500800E0102088607047F078012053
:102820000A4902684B6B52F8082C03EBC20213787A
:10283000022B03D3CB690BB15B1ECB611178491E10
:1028400011700021016008467047000030780120B7
:10285000002806D00349042202EBC000496B085847
:10286000083070473078012010B5C2B2CBB2D21A0E
:1028700000D5524293B25B43C0F30722C1F3072451
:10288000121B00D55242000C92B2A0EB114002FB89
:10289000023200B2002801DA404200B280B200FBEE
:1028A000002010BD10B50021084600F0FFF843F6E7
:1028B000FF725042BDE8104013460146AFF300805E
:1028C0002DE9FC4107461C4615460E46042001F042
:1028D0004FFF80461148C068C16C006D0F4406442C
:1028E0000D440444ADF80070ADF80450ADF802603A
:1028F000ADF80640684604F043FD07E023462A464B
:102900003146384601F0AAFD04F0FCFC0028F5D160
:10291000404601F02DFFBDE8FC81000024010020AD
:102920002DE9F0411C4616460D460746022B02DBF8
:102930000020BDE8F0811C20FFF7FEFE0028F8D043
:102940000DB105610AE0094A52F8241009B905E001
:1029500011460A68002AFBD10969016184618682F7
:10296000002101604160C0E90217E2E74801002050
:1029700070B51D46FFF7D4FF040009D000F00EF833
:10298000E068006820B90348006800EB85008465B2
:10299000204670BD30010020FFF7C2BE70B590B375
:1029A0008269022A30DA1E4C54F8221019B944F810
:1029B000220032E019464B68002BFBD106E0CB68C1
:1029C000C5681B682D68AB4203DD09680029F6D194
:1029D0001AE0C1B1CB68C6681B683668B3420CD137
:1029E000838A012B05D008E01946DB681B68AB42DF
:1029F00003DB0B68002BF7D129B14B6833B11860AA
:102A00004A68426004E0FFE7012070BD44F82200FC
:102A10004860884200D100210160002070BD0000A4
:102A2000480100200A4A816952F82130834202D1CC
:102A3000036842F82130416809B102680A60016800
:102A400009B142684A60002101604160704700009E
:102A500048010020022801DB00207047054951F899
:102A6000200004E0C16809680029F6D00068002849
:102A7000F8D1704748010020034951F82000C1688F
:102A80008A6A08211047000048010020024951F8D5
:102A9000200000690068704748010020024951F891
:102AA00020000069406870474801002070B50D465D
:102AB00006F03AFA0446284606F03EFA204370BD76
:102AC0002DE9F0411948016821F001010160184821
:102AD000012585601749016000681749884200D0C8
:102AE000FEE700F005FA154E2E20307000F06DF96B
:102AF000134806F065FA08F047FA074601F00AFDA8
:102B000010B101F011FD38B901F014FD044601F0D7
:102B100007FD214601F026FE0021084600F0F0F8EE
:102B200004F06AFA75703846BDE8F081002000E0D4
:102B300000300240C2A507F4CDB5E8B5240100205D
:102B4000FC78012038B5040018D00D480068006EEC
:102B5000A04201D100F0ABF82046FFF745FE0090FF
:102B6000406908B100F00CF900980068FFF714FF05
:102B70006846FFF755FE2046FFF7B6FD38BD00005A
:102B80003001002038B5002460B1FFF72DFE009021
:102B9000006800698068804701F0A6FF0446684627
:102BA000FFF73EFE204638BD38B5002808D0FFF7B5
:102BB0001BFE00F1180400906846FFF731FE204626
:102BC00038BDF8B516460F46050012D0FFF70CFECB
:102BD000009044696846FFF723FE2846FFF7D2FFBE
:102BE0000346082800DD2CB132463946284606F057
:102BF000DBFEF8BD32463946284607F075F8F8BDC9
:102C000010B5002821D009B30AB3B1F90040B2F9D8
:102C100000309C4200DA23460380B1F90240B2F949
:102C200002309C4200DA23464380B1F90440B2F9F5
:102C300004309C4200DD23468380B1F90610B2F9CE
:102C40000620914200DC1146C18010BD11460A6881
:102C500002604968416010BD00280BD003880B4416
:102C60000380838819448180418811444180C18850
:102C70001144C1807047B0F90220B1F906309A4280
:102C800013DCB1F90220B0F906309A420DDCB0F93C
:102C90000020B1F904309A4207DCB1F90010B0F914
:102CA0000400814201DC012070470020704710B50C
:102CB00001F0EEFC01F0A4FDBDE8104004F072B894
:102CC00070B5094D0446022C2868467C09D220467E
:102CD000FFF7C0FE28B128684474FFF7E8FF0348F7
:102CE0000460304670BD00003001002098010020D3
:102CF00001F0EEBC0149886070470000240100200B
:102D0000094A30B41080094A1180094A1268537C7C
:102D1000084A52F82330DA68146A0A46A446014683
:102D200030BC1846604700005401002056010020C6
:102D3000300100204801002002480068002800D02F
:102D4000004770470002002002498A6802B9886083
:102D5000FFF7F2BFF00100202DE9F0411E46069C6E
:102D60001746884605463A46A8687F1C3346D0F881
:102D700004C041462846E047641EF4D1BDE8F08116
:102D800038B50546FFF730FD00908189491E0CB229
:102D900084816846FFF744FD002C02D12846FFF7E6
:102DA000A3FC38BD10B54FF448410548FFF794FC2B
:102DB0008020FFF727FD0348FFF79CFF10BD0000B0
:102DC00030B00020BCE303087047704710B5082AF4
:102DD0000EDC0346012A18D0022A56D0042A76D0E7
:102DE00010F8042B03F8012B491EF9D1012010BD66
:102DF000102A08DC4FEA000230F8043B22F8023BBC
:102E0000491EF9D1F2E7002010BD10F8042BD207BB
:102E1000120E491E34D010F8044B491E04F0010470
:102E200042EA84122CD010F8044B491E04F001042D
:102E300042EA441224D010F8044B491E04F0010465
:102E400042EA04121CD010F8044B491E04F001049D
:102E500042EAC40214D010F8044B491E04F00104E5
:102E600042EA84020CD010F8044B491E04F001041D
:102E700042EA440204D010F8044B04F00104224357
:102E800003F8012B0029C0D1B0E710F8042B9207FA
:102E9000120E491E15D010F8044B491E04F003040D
:102EA00042EA04120DD010F8044B491E04F003044A
:102EB00042EA840205D010F8044B04F003042243D4
:102EC000491E03F8012B0029DFD18FE7FFE710F837
:102ED000042B1207120E491E05D010F8044B04F003
:102EE0000F042243491E03F8012B0029EFD17DE78F
:102EF0000A4810B5816900290ED101218161FFF7CF
:102F000051FF01F08FFC054905481C310860BDE800
:102F10001040084600F04CB810BD0000240100200D
:102F2000ED910008B0F90030B1F90020934200DAC9
:102F30000280B0F90230B1F90220934200DA4280F7
:102F4000B0F90430B1F90420934200DD8280B0F979
:102F50000620B1F906108A4200DDC180704770B5C5
:102F6000B1F90040B2F900309C4200DD23460380F5
:102F7000B1F90250B2F90240A54200DD2C4644806E
:102F8000B1F90460B2F90450AE4200DA35468580EA
:102F9000B1F90610B2F90620914200DB1146C1805A
:102FA0009D4201DBA14201DA002070BD012070BD0D
:102FB00002494A69426048617047000024010020CC
:102FC00010B502E000F8011B521E0AB18307F9D1C7
:102FD000930818D001EB014402F0030204EB04242F
:102FE00006E010C01B1F10C040F8084B40F8044C0E
:102FF000042BF6DA01E010C05B1E002BFBD102E0CF
:1030000000F8011B521E002AFAD110BD10B583072B
:1030100002D520F8021B521E530811D001EB0144C7
:10302000042B09DB10C01B1F10C0042B40F8084BF9
:1030300040F8044CF6DA01E010C05B1E002BFBD117
:10304000D20700D0018010BD00BFFEE72DE9FF4F81
:1030500099B00F469046269D4FF00009002424E0C9
:103060001C98406906901C98806920B16869A0424C
:1030700001DD00200690E86805902869A04201DD86
:1030800000200590A869059908EB8402CDE9001499
:1030900002903946069B199800F04CFF40EA090956
:1030A0001998483019902437641C2868A042D7DC4E
:1030B00017E0E86805902869A04201DD002005902E
:1030C000A86908EB8402CDE900403946059B1998B0
:1030D00000F03AFE40EA090919984830199024375F
:1030E000641C6868A042E4DC049449E0E868059048
:1030F0002869A04201DD0020059007A93846059AFD
:1031000004F0B4FA4FF0000BE007039000262FE024
:10311000700007A951F820004FEA800A4BEA0A0B19
:1031200008EB062040F824A05046FDF74CF840EA92
:1031300009097000401C07A951F820004FEA800AD5
:1031400003988AEAE07004F0010100EB010A4BEAFF
:103150000A0B7000401C08EBC01040F824A0504639
:10316000FDF731F840EA0909002047F82600761CEF
:10317000092ECDDB2437BBF1000F00D00494641C72
:10318000A868A042B2DC0AE0002605E0002008EBB7
:10319000C61141F82400761C122EF7DB641C202C8B
:1031A000F2DB484608B9202208E0002101E0491C72
:1031B000400000F00042002AF9D00A46521EEA619F
:1031C00004981DB0BDE8F08F21B1028842F48062FE
:1031D000028004E002884FF6FF331A4002807047F5
:1031E00070B502460024002500230020958A138B29
:1031F0001B0445EA030626F07F4404EA01068E42DA
:1032000001D1012000E0002070BD21B1028842F010
:103210000102028004E002884FF6FE731A40028029
:10322000704700001CB50121480501F077FF01211E
:10323000022001F053FF0121880301F08FFF0422D7
:1032400006211048FEF7BCFF042207210D48FEF7B7
:10325000B7FF4020009002208DF804008DF8050093
:1032600001208DF8060000208DF80700694605480A
:10327000FEF75EFF8020009069460248FEF758FF87
:103280001CBD00000004024021B1028842F480729B
:10329000028004E002884FF6FF631A400280704704
:1032A00021B1028842F40072028004E002884FF6E5
:1032B000FF531A40028070470CB5024600200023DD
:1032C0000193009300920B0F019321F07F41019B2A
:1032D0001BB1009B1433009303E0090C009B1833CF
:1032E0000093009B1B680B400BB1012000E0002005
:1032F0000CBD00002DE9FF4704460D460026B146EF
:103300000427DFF8CC80A6884FF6C07006406846D8
:1033100001F044FFDDF808802E48B8FBF0F01FFAFA
:1033200080F946EA0906A68020884FF6FE7108401B
:10333000208000262849286888420CD82868400048
:10334000B8FBF0F087B2042F00DA04273E4309F1FE
:103350000100208427E0E8884BF6FF71884206D1FF
:10336000286800EB4000B8FBF0F087B209E028685D
:1033700000EBC00101EB0010B8FBF0F087B247F49E
:103380008047C7F30B0008B947F0010747F4004036
:1033900006434FF4967009FB00F04FF47A7190FBEE
:1033A000F1F0401C2084A683208840F0010020809A
:1033B00026884FF6F5300640A888698908430643F9
:1033C0002680A889298908432081BDE8FF8700005D
:1033D00000127A0040420F00A08601001FB50020B5
:1033E000ADF804004BF6FF70ADF806000A20ADF80A
:1033F00008004FF48060ADF80A000001ADF80C0041
:103400000748009069460748FFF774FF0121054807
:10341000FFF7FBFE01210348FFF7D6FE1FBD0000AA
:10342000801A06000054004012B141F0010101E091
:1034300001F0FE01018270470182704721B1828B49
:1034400042F48062828304E0828B4FF6FF331A409D
:10345000828370471CB50121072001F03FFE022046
:103460008DF804008DF8050000208DF806008DF819
:1034700007001020009069461A48FEF759FE082000
:10348000009069461848FEF753FE102000906946E8
:103490001548FEF74DFE2020009069461248FEF7C1
:1034A00047FE8020009069461048FEF741FE062244
:1034B00004210C48FEF784FE062203210A48FEF789
:1034C0007FFE062204210848FEF77AFE0622052127
:1034D0000548FEF775FE062207210448FEF770FE38
:1034E0001CBD000000000240000402400008024031
:1034F0002DE9F04F0025022300244FF0010900229E
:103500000026002794469046B0F81CA04FF2400BCE
:103510000AEA0B0AA0F81CA04FF0020AA0F820A0AB
:10352000858BD1F808A0BAF1020F01D100BF82E06B
:10353000B1F804A0BAF1000F02D14FF0010901E087
:103540004FF00209DFF834A1DAF800A00AF4000A0B
:10355000BAF1000F09D0DFF824A1DAF800A02AF4AC
:10356000000ADFF818B1CBF800A0DFF810A10AF1CB
:103570007C0ADAF800A0CAF3881CDFF800A10AF17F
:103580007C0ADAF800A0CAF30278DFF8F0A0AAF10A
:10359000040ADAF800A00AF03F07DFF8E0A0AAF179
:1035A000040ADAF800A00AF4800ABAF5800F08D1FC
:1035B000DFF8CCA0BAFBF7FA0AFB0CFABAFBF8F674
:1035C00007E0DFF8C0A0BAFBF7FA0AFB0CFABAFB77
:1035D000F8F6B1F806A0BAF5007F0ED14FEA162A28
:1035E0000AEB8A0A4FEA4A0AD1F808B0BAFBFBFA9A
:1035F0000AF1050A1FFA8AF20FE04FEA491AB6FBF0
:10360000FAFA0AEB8A0A4FEA4A0AD1F808B0BAFB7A
:10361000FBFA0AF1050A1FFA8AF24FF00A0AB2FB16
:10362000FAF202F00104A2EB040ACAF34F034FF6C8
:10363000FF7A0AEA0424022B01DBFF2B01DD0223BF
:103640000024B1F806A04AEA040A4AEA030AA0F8EC
:1036500020A0B1F804A0B1F80CB04AEA0B0AB1F806
:1036600002B04AEA0B0AB1F800B04AEA0B0A4AF47F
:10367000006A4AEA05058583BDE8F08F08380240F4
:10368000001BB7000024F40010B501210148FDF72C
:103690009FFD10BD8860024010B500210448FDF771
:1036A00097FD002102483038FDF792FD10BD000063
:1036B000886002402DE9FF4104460D46164600276A
:1036C000B846002001F0FEFD012001F001FE00BF20
:1036D00008E03B2001F0D6FD8046B8F1010F00D193
:1036E00003E07F1CB7F5FA7FF3D300BF0121C803C5
:1036F00001F014FD0D4802F0ABFE4FF40070ADF880
:103700000000ADF80240ADF80450ADF80600029696
:103710000020ADF80C0069460448FFF7E9FE0121DE
:103720000248FFF78BFEBDE8FF810000003C00402F
:1037300070B590B004460E4615460121480501F0CB
:10374000CDFC2A48FDF750FD00BF2848FDF71AFEC2
:103750000028FAD126492548FDF720FD00200090D9
:103760002448019002944020039004950020059085
:103770004FF4806006904000079080000890401150
:10378000099040020A9000200B900C900D900E9032
:1037900069461648FDF750FE002221461348FDF702
:1037A000DAFD4FF4002231461048FDF7D4FD012127
:1037B0000E48FDF7C5FD012210210C48FDF71EFE45
:1037C000012202210B480C3802F038FE10208DF83F
:1037D0003C0000208DF83D0001208DF83E008DF862
:1037E0003F000FA801F032FC10B070BD88600240AD
:1037F0003DF000A00C3C004010B5044624B101216E
:103800000448FEF702FD03E001210248FEF7FBFC3D
:1038100010BD00000004024001B502E00098401E07
:10382000009000980028F9D108BD00B597B001219B
:10383000084601F063FC0420019003908006079085
:10384000002002900490059006900420089000202B
:10385000099008200A9010200B9000200C900E90E8
:103860000F9010904FF48050119000201290139000
:10387000149001A81590169008A8FEF7FBF90121F5
:103880000420FEF7DDF917B000BD00001CB50121D2
:103890001A2001F023FC00208DF8060001208DF88D
:1038A000070002208DF8040003208DF805004FF476
:1038B0008040009069467F48FEF73AFC0C220E21BA
:1038C0007C48FEF77DFC4FF4004000906946794843
:1038D000FEF72EFC0C220F217648FEF771FC01202A
:1038E000009069467348FEF723FC0C2200217148C2
:1038F000FEF766FC0220009069466E48FEF718FC51
:103900000C2201216B48FEF75BFC80200090694689
:103910006948FEF70DFC0C2207216748FEF750FCB2
:103920004FF48070009069466348FEF701FC0C225A
:1039300008216148FEF744FC4FF40070009069468E
:103940005D48FEF7F5FB0C2209215B48FEF738FCC9
:103950004FF48060009069465748FEF7E9FB0C225F
:103960000A215548FEF72CFC4FF400600090694690
:103970005148FEF7DDFB0C220B214F48FEF720FCDF
:103980004FF48050009069464B48FEF7D1FB0C2263
:1039900011464948FEF714FC4FF400500090694668
:1039A0004548FEF7C5FB0C220D214348FEF708FCF5
:1039B0004FF48040009069463F48FEF7B9FB0C2267
:1039C0000E213D48FEF7FCFB4FF400400090694695
:1039D0003948FEF7ADFB0C220F213748FEF7F0FB0C
:1039E0004FF48070009069463248FEF7A1FB0C222C
:1039F00008213048FEF7E4FB4FF400700090694660
:103A00002C48FEF795FB0C2209212A48FEF7D8FB2B
:103A10004FF48060009069462648FEF789FB0C222F
:103A20000A212448FEF7CCFB10200090694621486B
:103A3000FEF77EFB0C2204211E48FEF7C1FB20206E
:103A4000009069461B48FEF773FB0C2205211948BC
:103A5000FEF7B6FB8020009069461648FEF768FB2B
:103A60000C2207211348FEF7ABFB4FF400600090D7
:103A700069461048FEF75CFB0C220B210D48FEF74F
:103A80009FFB01208DF8040000208DF80600012026
:103A90008DF8070002208DF8050008200090694687
:103AA0000448FEF745FB0120009069460348FEF7F5
:103AB0003FFB1CBD000C024000100240000402400D
:103AC00010B5FFF7E3FEFFF7B0FE0120FFF794FE0D
:103AD00000F01CF900F002F810BD000010B5CF2076
:103AE00000F028F9002000F029F9812000F026F9E3
:103AF000302000F023F9ED2000F01CF9642000F0E4
:103B00001DF9032000F01AF9122000F017F98120A6
:103B100000F014F9E82000F00DF9852000F00EF90E
:103B2000102000F00BF9782000F008F9CB2000F00D
:103B300001F9392000F002F92C2000F0FFF80020F4
:103B400000F0FCF8342000F0F9F8022000F0F6F85C
:103B5000F72000F0EFF8202000F0F0F8EA2000F065
:103B6000E9F8002000F0EAF8002000F0E7F8B120C2
:103B700000F0E0F8002000F0E1F81B2000F0DEF893
:103B8000B62000F0D7F80A2000F0D8F8A22000F004
:103B9000D5F8C02000F0CEF8352000F0CFF8C120D5
:103BA00000F0C8F8112000F0C9F8C52000F0C2F8F4
:103BB000452000F0C3F8452000F0C0F8C72000F011
:103BC000B9F8A22000F0BAF8F22000F0B3F8002013
:103BD00000F0B4F8262000F0ADF8012000F0AEF8B7
:103BE000E02000F0A7F80F2000F0A8F8262000F051
:103BF000A5F8242000F0A2F80B2000F09FF80E207A
:103C000000F09CF8092000F099F8542000F096F894
:103C1000A82000F093F8462000F090F80C2000F067
:103C20008DF8172000F08AF8092000F087F80F209F
:103C300000F084F8072000F081F8002000F07EF802
:103C4000E12000F077F8002000F078F8192000F06B
:103C500075F81B2000F072F8042000F06FF81020B7
:103C600000F06CF8072000F069F82A2000F066F8F0
:103C7000472000F063F8392000F060F8032000F0DE
:103C80005DF8062000F05AF8062000F057F83020C2
:103C900000F054F8382000F051F80F2000F04EF8F2
:103CA000362000F047F8A82000F048F82A2000F05D
:103CB00041F8002000F042F8002000F03FF800201A
:103CC00000F03CF8EF2000F039F82B2000F032F83B
:103CD000002000F033F8002000F030F8012000F060
:103CE0002DF83F2000F02AF83A2000F023F8552064
:103CF00000F024F8112000F01DF80348FFF78CFDB8
:103D0000292000F017F810BDFCBF020010B50821F3
:103D10000648FEF778FA0648FFF77EFD08210348BB
:103D2000FEF773FA0248FFF777FD10BD000C024062
:103D3000FCBF02004FF0C041088070470149088075
:103D400070470000000002602DE9FF4FA5B08046DB
:103D50000D46174600202490339807281BDA339825
:103D6000C0F107002490002412E058F824002499A0
:103D7000084148F82400601C58F8200024990841A4
:103D8000611C48F8210028682499084101C5A41C39
:103D9000122CEADB243D12A9404608F069F818A964
:103DA00008F1040008F064F81EA908F1080008F002
:103DB0005FF869462846289A03F058FCDFF870A19E
:103DC0000026002490E05DF824004FEA8009484670
:103DD000FCF7F9F90643600147F82090E01C5DF814
:103DE00020004FEA80094846FCF7EDF90643E01C45
:103DF000400147F82090E21C12AB53F822105AF809
:103E00002400FCF7DDF9A11D5DF8211000EB81090C
:103E10004846FCF7D8F90643A01D400147F820901A
:103E2000C4F1050212AB53F82210E21C5AF822002A
:103E3000FCF7C6F904F109015DF8211000EB8109D6
:103E40004846FCF7C0F9064304F10900400147F871
:103E50002090C4F1020212AB53F82210A21D5AF8AE
:103E60002200FCF7ADF9834604F1090212AB53F8C6
:103E700022105AF82400FCF7A3F90BEB000104F11F
:103E80000C005DF8200001EB80094846FCF79BF927
:103E9000064304F10C00400147F8209012AA52F8A2
:103EA000241004F109025AF82200FCF789F983462C
:103EB000C4F10B0212AB53F82210E21C5AF8220094
:103EC000FCF77EF90BEB000104F10F005DF8200018
:103ED00001EB80094846FCF776F9064304F10F0030
:103EE000400147F82090641C032CFFF66CAF0624B9
:103EF00005E012A850F82400801001C5641C092CAC
:103F0000F7DB0C2405E012A850F82400801001C54E
:103F1000641C122CF7DB243D29463846249B329A38
:103F2000FEF704F80643304629B0BDE8F08F0000E4
:103F3000D0CF03082DE9FF4FAFB005460E4693469C
:103F400000200746099044353E98072825DA3E9818
:103F5000C0F107002E9008241CE055F804092E99A2
:103F60000841C71B0998381A099055F804092E9979
:103F70000841C71B1CAA04F10901099842F8210055
:103F80001CA840F8247056F824002E99084146F8E1
:103F90002400641E002CE0DA18E000202E90082493
:103FA00012E055F80419CF1B0998381A099055F8F2
:103FB0000419CF1B1CAA04F10901099842F8210039
:103FC0001CA840F82470641E002CEADA25984010E2
:103FD00025901C9840101C901CA807F05BFE25A89B
:103FE00007F058FE0DF1900A614800904FF000096B
:103FF0003C98002855D13298002852D1DFF87481BE
:1040000000244BE00098006803900098001F009087
:10401000DAF8240005905AF80409049005990398E9
:10402000FCF7CEF805900498801004903068404268
:104030000890DDE90410401A0790DDE90401084406
:1040400001C6DDE90710401A069058F8041B0698CF
:10405000FCF7B6F80146079800EB8100029058F88B
:10406000041B0698FCF7ACF80146089800EB8100A9
:104070000190610102984BF82100C4F1110149013E
:1040800001984BF821000298FCF79DF840EA0909D5
:104090000198FCF798F840EA0909641C092CB1DB87
:1040A00059E00AA930463C9A03F0E0FA329800EB56
:1040B000C000314901EB001800244AE00098006874
:1040C00003900098001F0090DAF8240005905AF839
:1040D0000409049005990398FCF772F80590049878
:1040E00080100490DDE90401401A0790DDE9040125
:1040F000084401C658F824100798FCF761F80AA98B
:1041000051F82410084480000290C4F1110058F8BE
:1041100020100798FCF754F8C4F111010AAA52F8CC
:104120002110084480000190610102984BF82100A1
:10413000C4F11101490101984BF821000298FCF7E4
:1041400042F840EA09090198FCF73DF840EA0909FC
:10415000641C092CB2DB243E314658462E9B3D9A06
:10416000FDF7E4FE40EA0909484633B0BDE8F08FA8
:10417000F0CD0308F4CD0308B0CE03080449054A86
:104180000968497C52F8211009690968084700004C
:1041900030010020480100202DE9F04F05468DB088
:1041A0007B48DDF860901A9C00681E4617464FF069
:1041B000000A78B11B9B199ACDF808900593CDE9B8
:1041C0000324DDE91623CDE90023046833463A468B
:1041D000284680E0DDE9160201EB060805EB070C36
:1041E0001043A8F10108ACF1010C012806D0C9F177
:1041F00008000590002002910990C6E06548026819
:10420000B2F90A30581A002806DD361A002E63DD8E
:104210001946199B00FB0344B2F90E00A8EB0000FD
:10422000002802DD361A002E56DDB2F90C00ACEB88
:104230000000002800DD3F1AB2F908300020AB4230
:1042400035DD581B3F1A4B46B9F1080F26D006DC66
:10425000012B0BD0022B11D0042B28D116E0102BF0
:104260001ED0182B1FD0202B21D11CE020F00703DB
:1042700004EBE0041D4400F0070018E020F0030305
:1042800004EBA0041D4400F0030010E020F0010343
:1042900004EB60041D4400F0010008E0044404E065
:1042A00004EB400401E004EB800405440020002FEF
:1042B00012DD1B9BDDF864C0CDE90403CDE9006984
:1042C000CDE902C4527C34483B4650F82200C26813
:1042D00054680A462946A0470DB0BDE8F08F1799EB
:1042E000029808440C902B49401E00900A68B2F9CD
:1042F0000A30834241DCB2F90E10029881423CDB65
:104300004FF0000BD84603950A9434E0BBF1000F40
:1043100005D10A984FF0080B10F801AB0A900599E7
:10432000ABEB090B3AFA01F00AFA09F101F0FF0AC6
:1043300004D118490968097C890716D41549096808
:10434000C96B0A680B921B9A0AB152F820000860E8
:1043500016990398009B4218521E029900F07EF8AD
:104360000C490B980968C96B08600399169808F105
:10437000010808440390B845C8DB0998401C09901F
:104380000C980290199804440998B042A7DBA3E75F
:10439000500100203001002048010020F0B40C46FC
:1043A00012490968B1F90A30A3421CDCB1F90E3098
:1043B000A34218DBB1F90830834200DD1846B1F999
:1043C0000C30934200DA1A4682420CDB4B7C0849DF
:1043D00051F8235013462246E9688E680146284664
:1043E000B446F0BC6047F0BC7047000030010020CC
:1043F000480100200A46174930B40968B1F90A306B
:10440000934225DCB1F90E30934221DBB1F908303B
:1044100083421DDCB1F90C30834219DB0B7C0E4C5E
:10442000DB0709D0497C54F82130D968CC690146B2
:10443000A44630BC18466047CB6B497C1B6854F8D7
:104440002140E1688D6901462046AC4630BC60479A
:1044500030BC7047300100204801002038B5134CB3
:104460002468B4F90850854200DD2846B4F90C50A0
:10447000954200DA2A46824217DBB4F90A508D428F
:1044800000DD2946B4F90E509D4200DA2B468B42DE
:104490000BDB0093647C064B53F82440E3681D69F2
:1044A00013460A4601462046A84738BD3001002081
:1044B00048010020082104F075BC000002480921D1
:1044C0000068407C04F06EBC30010020092104F03B
:1044D00069BC70B500252C462046FEF7BBFA00B13A
:1044E0006D1C641C022CF7DB284670BD0248006876
:1044F000407C00F003B800003001002010B5FEF74A
:10450000A9FA002805D0C168CA6ABDE81040022196
:10451000104710BD0148006870470000600100208E
:10452000012004F0B5BC000001484068704700005D
:1045300060010020022004F0ABBC00F001B80000D4
:104540002DE9F041002809D0876837B10D4E716818
:1045500019B10468B4F5807F02DD0020BDE8F08168
:104560003068844200DD0446002507E057F8250046
:10457000FFF704FE716841F825006D1CA542F5DBCC
:104580007068EBE7100200200449054A0968497C7D
:1045900052F82110096949680847000030010020DD
:1045A0004801002010B500F01F01074A074BC0F377
:1045B0004514C0F3C4201B5D105C515C00EB03206C
:1045C00000EB014010BD0000E0E3030800E4030835
:1045D00010B5FFF775FA4FF47A70FDF72BFA10BD9E
:1045E00010B50A4C606860B920688000FEF7A4F836
:1045F000606040B104F10801054808600846FEF714
:10460000D7FC002010BD012010BD000010020020CA
:104610004D9200082DE9F047FFF75BFF07460024A5
:10462000DFF860802AE02046FEF714FA28B3D8F8B5
:10463000000090F8119044742046FFF73BFF0828D3
:1046400017DC1148114950F824000069884210D045
:104650002046FFF73BFF0646002508E0E8B2FFF7DB
:1046600093FF0246E9B2204600F088F86D1CB5427F
:10467000F4DBD8F8001081F81190641CBC42D2DB46
:10468000BDE8F0873001002048010020F0ED03086C
:1046900010B50D4C0D492068407C51F8200048B100
:1046A000C16811B10968042901D00068F7E708B1B1
:1046B000FEF7B8F920680021016600F108014161A8
:1046C000BDE8104000F02EB8300100204801002065
:1046D00001490968496808470C0200200449096833
:1046E0000A7C520701D5C96B00E0896B08607047EE
:1046F000300100207CB5094C05462068417C084803
:1047000050F82100C1680A6B6946904720686A46E4
:1047100029460830FEF723FC7CBD00003001002054
:10472000480100200448016804484A7C083150F8D8
:104730002200C268126B104730010020480100209F
:1047400001490968096808470C0200200449096802
:104750000A7C520701D5896B00E0C96B086070477D
:1047600030010020014AC2E90001704760010020C9
:1047700001490968896808470C020020F8B5154608
:104780000E460124FEF766F9009058B1C06810216A
:10479000426A68469047030004D02A463146009892
:1047A000984700242046F8BDF8B515460E4601246A
:1047B000FEF750F9009058B1C0680B21426A684674
:1047C0009047030004D02A463146009898470024B9
:1047D0002046F8BDF8B515460E460124FEF73AF915
:1047E000009058B1C0680A21426A684690470300A9
:1047F00004D02A4631460098984700242046F8BD48
:1048000010B5074C2068006BFFF7B8FCFFF79EFF60
:104810002068406BFFF7B2FCBDE81040FFF75EBFB9
:104820003001002010B5A0B014211BA8FCF733F90B
:10483000682101A8FCF72FF900231A4615491648EC
:10484000FEF796F804464FF4A072F0210020FFF71F
:10485000ABFF4FF4A072F0210020FFF7BBFF002058
:104860001C901B9006201D9002201F901BA9204623
:10487000FDF7CDFC0948099009480A9009480C90B9
:1048800009481090094B0A4A01A92046FDF7DFFCB0
:1048900020B010BD24D703083CD70308AD4B000857
:1048A000894B0008954B0008714B0008ED22000869
:1048B000812200082DE9F04106460C461746012CDE
:1048C00004D1FFF785FE0020BDE8F0814FF0FF35F1
:1048D00000BF00BF2846F7E72DE9FF4F8DB0174610
:1048E000674ADDF870901E9E209812681D460024CD
:1048F0008AB11D9B1F98CDE90293CDE90460DDE9E3
:104900001A03CDE9000314682B463A460D98A047D8
:1049100011B0BDE8F08F0D9A01EB050802EB070C12
:10492000DDE91A231A43A8F10108ACF1010C012AB0
:1049300006D0C9F108004FF0000B029105909CE0F1
:10494000504A1268B2F90A40631A002B06DDED1ACC
:10495000002DDDDD21461D9C03FB0466B2F90E30FF
:10496000A8EB0303002B02DDED1A002DD0DDB2F918
:104970000C30ACEB0303002B00DDFF1A0D9B1C1A5F
:10498000B2F90830A3420DDDA3EB040C0CEB0003DD
:10499000181A20F007000444A7EB0C0706EBE30607
:1049A00003F00700002FB3DDDDF874C01F9BCDE9D5
:1049B00002C6CDE90403CDE90059527C32483B469A
:1049C00050F82200C26855680A462146A8479FE76A
:1049D0001B99029808440C902A49401E00900A68CE
:1049E000B2F90A30834242DCB2F90E1002988142D9
:1049F0003DDB4FF0000A0D980A96D046039034E054
:104A0000BAF1000F05D10A984FF0080A10F8014BCF
:104A10000A900599AAEB090A34FA01F004FA09F49C
:104A2000E4B204D117490968097C890717D41549EC
:104A30000968C96B0A680B921F9A0AB152F82000E4
:104A4000086003991A98009B0A18DDE90210521EAB
:104A5000FFF704FD0B490B980968C96B08600399BF
:104A60001A9808F1010808440390B845C8DB0C986F
:104A700002901D980BF1010B0644AB45A8DB47E7FC
:104A8000500100203001002048010020002818D0EB
:104A9000410817D0810817D0C10817D0010917D0D5
:104AA000410917D0010A17D0410A17D0010B15D0C0
:104AB000C10B13D0010C11D0810C11D0000E11D0FC
:104AC0002020704701207047022070470320704764
:104AD0000420704705207047082070471020704759
:104AE000122070471820704700B50022FFF7CEFF54
:104AF000012804D0811E062903D808220BE00122D8
:104B000009E0A0F10901072901D8102203E01138BA
:104B10000F2800D82022104600BD00001CB501213E
:104B2000022000F0DBFA4FF48070009001208DF835
:104B3000040000208DF8060001208DF8070069466A
:104B40000A48FDF7F5FA4FF40070009069460748EF
:104B5000FDF7EEFA4FF480710448FDF756FB4FF471
:104B600000710248FDF751FB1CBD0000000402402B
:104B700003E0044A128820F8022B0A00A1F1010187
:104B8000F7D17047000002600149088070470000BB
:104B90000000026003E030F8022B034B1A800A0089
:104BA000A1F10101F7D17047000002604FF0C04150
:104BB0000880704710B50A4600B910BD002103E017
:104BC000002322F81130491C00F2C47318CB634350
:104BD000D0F8BC4763438B42F2DC00BFEDE72DE920
:104BE000FF4F89B00D461646099C24B96FF00400AA
:104BF0000DB0BDE8F08F204629680AF001F8814623
:104C0000B9F1000F02DA6FF00500F1E728684844B7
:104C10002860204629680AF081F98246BAF1000F1F
:104C200006DA20460C99FFF7C5FF6FF00600DFE7B4
:104C300028685044286009EB0A013068401A306047
:104C4000D4F8B80710B1D4F8B007A8B3D4F8B007B7
:104C500050BB0120C4F8B00732682B68A3EB0903EE
:104C6000A3EB0A01286800F04CF9C4F8B407D4F8A3
:104C7000B407002806DA20460C99FFF79BFF6FF077
:104C80000200B5E704F2B47420684844504406902A
:104C9000D4E904104143E26806984243D00090FBF7
:104CA000F1F06060A4F2B474204608F0A8F8D4F8DB
:104CB000B4170844C4F8CC07169808B33068C4F891
:104CC000CC07D4F8D80718B9D4F8CC07002806DCEC
:104CD00020460C99FFF76EFF6FF0050088E7D4F8C7
:104CE000CC07C4F8DC07286802902868D4F8CC17F1
:104CF000084428603068D4F8CC17401A30605FE070
:104D0000D4F8CC073168884206DD20460C99FFF7BD
:104D100051FF4FF0FF306BE7D4F8D817D4F8DC0719
:104D200088422BDB04F11C00D4F8DC371844D4F89B
:104D3000D837C11A1A4604F11C00FBF785FED4F8D7
:104D4000CC27296804F11C03D4F8D8C70CEB030066
:104D5000FBF77AFE04F2CC742168E0680844206115
:104D6000286821680844286030682168A4F2CC745F
:104D7000401A306004F11C00029021E0D4F8CC27E6
:104D8000296804F11C03D4F8DCC70CEB0300FBF723
:104D90005BFE04F2CC742168206908442061286815
:104DA00021680844286030682168A4F2CC74401A55
:104DB000306020460C99FFF7FDFE6FF0010017E709
:104DC00000200890D4F8DC07C0000790002791E08D
:104DD0004FF0000850E008980590CDE9007808AA47
:104DE0002046079B02990AF005F883460598C0EB18
:104DF000CB0008990844049004F5FC6000EBC70060
:104E000050F828100498081A039002985844029009
:104E100007990498081A0790BBF1000F03DB039968
:104E20000798884206DA20460C99FFF7C3FE6FF018
:104E30000700DDE608980590CDE9007808AA20462D
:104E4000DDE9021307F0E9FF8346BBF1000F06DA44
:104E500020460C99FFF7AEFE6FF00800C8E60298F6
:104E6000584402900598C0EBCB000899014407987C
:104E7000401A079008F10108D4F8BC074045AADCA5
:104E80003946204608F018FA002806DA20460C9920
:104E9000FFF790FE6FF00900AAE64FF000080FE060
:104EA00042463946204609F008FA002806DA20462C
:104EB0000C99FFF77FFE6FF00A0099E608F10108F0
:104EC000D4F8BC074045EBDCD4F8C8077843D4F8E5
:104ED000BC2750430C9A02EB4001204609F004FE27
:104EE000002806DA20460C99FFF764FE6FF00B00ED
:104EF0007EE67F1CD4F8C407B8423FF769AF0020B4
:104F000076E62DE9F04106460D4617464FF00008BB
:104F1000344627E03946204600F025F880464444D0
:104F2000B8F1000F03DA4FF0FF30BDE8F0812078D0
:104F30002978884212D16078697888420ED1A078A9
:104F400000F0FC00A97801F0FC01884206D1A878A5
:104F5000C0F3400000B1641EA01BE6E7E41C08F1AA
:104F600003003F1AD6E702460B4600210BE0505CD7
:104F7000FF2807D1481C105C00F0E000E02801D1B8
:104F800008467047491C581E8842F0DC4FF0FF303D
:104F9000F7E770B50446254605B970BD284609F007
:104FA00063F900BFF9E7000010B50246104618B1DA
:104FB000D0F8D037032B08D000230B604B608B60F8
:104FC000CB600B614B618B611CE000F5F7600368FF
:104FD0000B6043684B6083688B601023CB60037F5A
:104FE00003EB4303084C04EB430483695B1E34F971
:104FF0001330446863430B6183694B61037FA0F501
:10500000F7608B6110BD0000EEA3030810B507F038
:10501000A3FE0446204610BD0748006800F40020A7
:1050200018B100200549087002E00120034908700A
:105030000120034908707047886002400501002084
:105040000401002000BFFEE77047000070B500219A
:1050500000230F22C4781CB3174C246804F4E064C6
:10506000C4F5E064C4F30721C1F10404E3B20A41CA
:1050700044789C40E1B28478144021430C07210E0F
:105080000E4C05786155047804F01F050124AC40EE
:1050900005786D11AD0005F1E025C5F8004109E086
:1050A000047804F01F050124AC40054D0678761104
:1050B00045F8264070BD00000CED00E000E400E083
:1050C00080E100E002490143024A1160704700009C
:1050D0000000FA050CED00E07047000029B1064A17
:1050E00012680243044B1A6004E0034A12688243C8
:1050F000014B1A60704700003038024029B1064A5F
:1051000012680243044B1A6004E0034A12688243A7
:10511000014B1A60704700003838024029B1064A36
:1051200012680243044B1A6004E0034A1268824387
:10513000014B1A60704700004038024029B1064A0E
:1051400012680243044B1A6004E0034A1268824367
:10515000014B1A60704700002038024029B1064A0E
:1051600012680243044B1A6004E0034A1268824347
:10517000014B1A60704700004438024029B1064ACA
:1051800012680243044B1A6004E0034A1268824327
:10519000014B1A607047000024380240F0B500212E
:1051A00000220024022500260223324F3F6807F028
:1051B0000C0121B1042905D0082937D105E02E4F73
:1051C000076036E02D4F076033E02A4F3F1F3F68EE
:1051D000C7F38056274F3F1F3F6807F03F036EB16C
:1051E000264FB7FBF3F7DFF88CC0ACF1040CDCF80A
:1051F00000C0CCF3881C07FB0CF40CE01E4FB7FB7F
:10520000F3F7DFF870C0ACF1040CDCF800C0CCF3AD
:10521000881C07FB0CF4174F3F1F3F68C7F301477B
:105220007F1C7D00B4FBF5F7076002E0124F0760BA
:1052300000BF00BF0F4F3F6807F0F0010909104F92
:105240007A5C0768D74047600A4F3F6807F4E0512F
:10525000890A0B4F7A5C4768D7408760054F3F68E3
:1052600007F46041490B064F7A5C4768D740C76036
:10527000F0BD0000083802400024F400001BB70015
:105280001400002010B501460022002300204A111E
:10529000012A02D10A4C236808E0022A03D1084CF3
:1052A0007034236802E0064C7434236801F01F0256
:1052B000012494401C400CB1012000E0002010BDEE
:1052C0000038024001490860704700005C01474215
:1052D000014988667047000000004742C168042900
:1052E00022DB03685A1C02601A78120642600368C7
:1052F0005A1C02601A78436843EA0242426003681B
:105300005A1C02601A78436843EA0222426003682A
:105310005A1C02601A7843681A4342602022826055
:10532000C268121FC2601CE00022426009E00368EC
:105330005A1C02601A7843681A434260426812029B
:1053400042600A00A1F10101F1D1C368C3F1030376
:10535000DB0042689A404260C268D200826000224C
:10536000C26070477CB50546002400200090019083
:1053700000F0EAF800F0007010B10E2420467CBD69
:105380003D49098888B26946FCF706FD04460CB120
:105390002046F4E7012D36D1019800F48020002842
:1053A0002ED0354800880004344908603720486012
:1053B000402088600020C860A8020861084600F00C
:1053C00001F93720FBF750FD04460CB12046D6E723
:1053D00002202A490860062048604020886000209A
:1053E000C8604FF480600861084600F0EBF80620C2
:1053F000FBF73AFD04460CB12046C0E72046BEE765
:1054000025242046BBE7019800F4803078B31A4881
:1054100000880004194908603720486040208860EF
:105420000020C8604FF480600861084600F0CAF8A8
:105430003720FBF719FD04460CB120469FE70020FA
:105440000E49086006204860402088600020C8603F
:105450004FF480600861084600F0B4F80620FBF7BE
:1054600003FD04460CB1204689E7204687E7FFE7A5
:105470002524204683E7000060000020C8020020A9
:105480000149086070470000382C0140014908605C
:1054900070470000382C0140014908607047000047
:1054A000A080254201490860704700008C85254294
:1054B00000210B4B02681A601B1D42681A601A1DFE
:1054C000116821F0F701D0E902231A4303691A4356
:1054D00043691A431143024A0832116070470000C1
:1054E000242C014010B50121C802FFF747FE00211E
:1054F0004FF40060FFF742FE10BD00000148006855
:10550000C0B27047102C014001460020034A1268C7
:105510000A400AB1012000E000207047342C01400D
:1055200001460020034A12680A400AB1012000E047
:1055300000207047342C01400248006800F003004E
:1055400070470000002C014008B501460020009083
:105550000248084400900098006808BD142C0140DF
:1055600010B500F00DFD10BD29B1064A12680243C6
:10557000044B1A6004E0034A12688243014B1A602C
:10558000704700003C2C014000210A4A116847F690
:10559000FF629143027D83681A4343681A43C368DC
:1055A0001A4303681A4303691A431143014A1160FD
:1055B00070470000042C014001480068704700005B
:1055C000802C01400021094B02681A601A1D1168E5
:1055D0006FF30A01D0E901231A43C3681A43036930
:1055E0001A431143014A121D11607047082C0140F3
:1055F0000149086070470000002C014008B50120F7
:1056000000909DF8000008BD70B5044600252048B4
:105610000068032802D12725284670BD1C48006871
:1056200038B11B480068012803D0194800680228D7
:105630002CD1B4F5805F02D127252846EDE7B4F5DB
:10564000006F13D10120FFF78DFE0546F5B900204C
:10565000104908750860486088604FF40060C860B1
:10566000002008610846FFF78FFF0FE00020FFF7DA
:1056700079FE054655B9002006490875086048605E
:105680008860C86008610846FFF77EFF2846C4E7C7
:105690005C000020B0020020F0B50146002000228E
:1056A000C04B1B7881F85630BF4B1B88A1F8543093
:1056B000BE4B1B681A0E93090B70C2F383034B7029
:1056C00002F003038B70B94B1B68C3F30742CA7027
:1056D000B64B1B88C3F307220A71B44B1A784A7180
:1056E0005B681A0E1301CB80B04B5B68C3F30742B3
:1056F000CB8843EA1213CB8002F00F030B72AB4B43
:105700009B88C3F30722D3094B72C2F380138B72B9
:10571000C2F34013CB72C2F300130B7300234B731D
:10572000A04B1B681BB19F4B1B68012B4FD19307EC
:105730001B0D0B619D4B1A790B6943EA82030B61C8
:105740009A4B9B681A0E0B6943EA92130B61C2F3E2
:10575000C2030B7502F007034B75944B9B68C3F3B0
:10576000074253098B75C2F38203CB7593075B0F16
:105770000B768E4B1B89C3F307220B7E43EAD213B1
:105780000B760B695B1C0024C1E912340B7ED1E956
:1057900012469B1C012505FA03F3DF17A4FB035CEB
:1057A00006FB03C304FB0733C1E912530C7A012340
:1057B000A3400B650027D1E912560B6DA5FB034CE6
:1057C00006FB03C305FB0733C1E9124336E0754B03
:1057D0001B68022B32D1754B1A7993069B0A0B6119
:1057E000724B9B681A0E0B6943EA02230B616F4BE5
:1057F0009B68C3F307420B6913430B616B4B1B8917
:10580000C3F307220B6900245B1C44EB04074FF42D
:1058100000760025A3FB064C07FB06C603FB0566C6
:105820004FF480650027A4FB053C06FB05C504FB7F
:105830000754C1E912344FF400730B65C2F38013AF
:1058400001F8193F93065B0E4B70584B1A7A4B7850
:1058500043EAD2134B7002F07F038B70534BDB682B
:105860001A0ED309CB70C2F341130B71C2F382033A
:105870004B7193071B0F8B714C4BDB68C3F30742D3
:105880008B7943EA92138B71C2F34013CB710023DF
:105890000B7202F001034B72444B9B89C3F3072246
:1058A000D3098B72C2F38013CB72C2F340130B7314
:1058B000C2F300134B73C2F381038B7302F0030333
:1058C000CB733A4B1A7B53080B7401234B74384B40
:1058D0001B681A0ECA741939354B1B68C3F307428B
:1058E0001402CC85324B1B88C3F30722CB8D1343A4
:1058F000CB852F4B1A7814060C635B681A0E0B6B62
:1059000043EA02440C632A4B5B68C3F307420B6B08
:1059100043EA02240C63264B9B88C3F307220B6BDC
:1059200013430B63224B1A7934235A54204B9B6840
:105930001A0E35235A541E4B9B68C3F307421406B4
:105940008C631B4B1B89C3F307228B6B43EA024416
:105950008C63174B1A7A8B6B43EA02248C63144BCB
:10596000DB681A0E8B6B13438B63114BDB68C3F33D
:1059700007423C235B5C43EA12143C235C5413074C
:105980001C0DCC870A4B9B89C3F30722CB8F134393
:10599000CB87074B1A7B540840235C5401244123D6
:1059A0005C54F0BD5C000020600000202802002054
:1059B0003802002008B500200090FFF71FFE0128E4
:1059C00009D1684600F0CAFB08B1FF2008BD009865
:1059D000C0F34320FAE7FF20F8E710B50424FFF7EF
:1059E000E9FF0446042C01D1002010BDFF2C01D199
:1059F0000220FAE70120F8E71CB5002001904FF4DF
:105A0000C060FFF75FFB31208DF8000001208DF8AA
:105A1000010000208DF8020001208DF80300684687
:105A2000FFF714FB3B208DF8000001208DF80100EA
:105A30006846FFF70BFB00F06DF9FFF753FD00F030
:105A4000BBF901909DF8040010B19DF804001CBD45
:105A500000F032F801909DF8040010B19DF80400A8
:105A6000F5E7002012490875086048608860C86042
:105A700008610846FFF788FD0E48FFF70DFE01900C
:105A80009DF8040040B90B48B0F8540002041046D9
:105A9000002100F047FB01909DF8040020B94FF46D
:105AA0000060FFF7B1FD01909DF80400CFE7000012
:105AB000B00200205802002038B5002401200090D8
:105AC000FFF73AFD10B92524204638BD4448006848
:105AD000042828D000204349086002204860C020E4
