:020000040800F2
:1000000088BD01209D010008A59100080D6400082D
:10001000A1910008DD0D000839B8000800000000BB
:10002000000000000000000000000000D5AD000846
:100030007D15000800000000C9940008C5AE000846
:10004000B7010008B7010008B7010008B7010008B0
:10005000B7010008B7010008B7010008B7010008A0
:10006000B7010008B7010008B7010008B701000890
:10007000B7010008B7010008F5110008B701000832
:1000800021120008B7010008B7010008B7010008F5
:10009000B7010008B7010008B7010008B701000860
:1000A000B7010008B7010008B7010008B701000850
:1000B000D5B00008B7010008B7010008B701000873
:1000C000B7010008B7010008B7010008B701000830
:1000D000B7010008B7010008B7010008B701000820
:1000E000B7010008B7010008B7010008B701000810
:1000F000B7010008B7010008B7010008B701000800
:10010000B7010008359E0008B7010008B7010008D4
:10011000B7010008B701000801B10008B7010008E5
:10012000B7010008B7010008B70100084D12000828
:10013000B7010008B7010008B7010008B7010008BF
:10014000B7010008B7010008B7010008B7010008AF
:10015000B7010008B7010008B7010008B70100089F
:10016000B7010008B7010008B7010008B70100088F
:10017000B7010008B7010008B7010008B70100087F
:10018000B7010008B7010008DFF80CD000F0BEFC92
:1001900000480047DD72010888BD012006488047FD
:1001A00006480047FEE7FEE7FEE7FEE7FEE7FEE75C
:1001B000FEE7FEE7FEE7FEE735AF0008890100082D
:1001C00081FB0020704701464FF0000081EAE1709A
:1001D000A0EBE170704700002DE9F04F82B0019074
:1001E0004FF000744FF000784FF000054FF0000919
:1001F00052F804CB52F804EB0868CB6DC0FB0C45F9
:10020000D1F88000CEF1000EC3FB0E45D1F8DC30F2
:10021000C0FB0C89C3FB0E8952F804CB52F804EBE7
:1002200048688B6DC0FB0C45D1F88400CEF1000E00
:10023000C3FB0E45D1F8D830C0FB0C89C3FB0E8937
:1002400052F804CB52F804EB88684B6DC0FB0C45A8
:10025000D1F88800CEF1000EC3FB0E45D1F8D430A2
:10026000C0FB0C89C3FB0E8952F804CB52F804EB97
:10027000C8680B6DC0FB0C45D1F88C00CEF1000EA8
:10028000C3FB0E45D1F8D030C0FB0C89C3FB0E89EF
:1002900052F804CB52F804EB0869CB6CC0FB0C4558
:1002A000D1F89000CEF1000EC3FB0E45D1F8CC3052
:1002B000C0FB0C89C3FB0E8952F804CB52F804EB47
:1002C00048698B6CC0FB0C45D1F89400CEF1000E50
:1002D000C3FB0E45D1F8C830C0FB0C89C3FB0E89A7
:1002E00052F804CB52F804EB88694B6CC0FB0C4508
:1002F000D1F89800CEF1000EC3FB0E45D1F8C43002
:10030000C0FB0C89C3FB0E8952F804CB52F804EBF6
:10031000C8690B6CC0FB0C45D1F89C00CEF1000EF7
:10032000C3FB0E45D1F8C030C0FB0C89C3FB0E895E
:1003300001984FF4FE4E4EF0FF0E4FEA946444EAEB
:1003400085144FEAE47CBCEBE43F18BF8CEA0E0452
:100350004FEA986848EA89184FEAE87CBCEBE83F26
:1003600018BF8CEA0E080480A0F8028002F57072B3
:1003700001F580514FF000744FF000784FF0000508
:100380004FF0000952F804CB0868D1F88030C0FB68
:100390000C45C3FB0C8952F804CB4868D1F8843073
:1003A000C0FB0C45C3FB0C8952F804CB8868D1F81C
:1003B0008830C0FB0C45C3FB0C8952F804CBC868DD
:1003C000D1F88C30C0FB0C45C3FB0C8952F804CB30
:1003D0000869D1F89030C0FB0C45C3FB0C8952F87A
:1003E00004CB4869D1F89430C0FB0C45C3FB0C89A1
:1003F00052F804CB8869D1F89830C0FB0C45C3FB98
:100400000C8952F804CBC869D1F89C30C0FB0C456C
:10041000C3FB0C8901984FF4FE4E4EF0FF0E4FEADD
:10042000946444EA85144FEAE47CBCEBE43F18BFD3
:100430008CEA0E044FEA986848EA89184FEAE87C8B
:10044000BCEBE83F18BF8CEA0E08A0F84040A0F8CB
:100450004280A2F57872A1F570614FF00F0C00F1A7
:100460000400CDF800C001904FF000744FF0007808
:100470004FF000764FF0007A4FF000054FF0000982
:100480004FF000074FF0000B52F804CB52F804EB8A
:100490000868CB6DC0FB0C45C0FB0E67CEF1000EAB
:1004A000C3FB0C67C3FB0E45D1F8DC30D1F88000EC
:1004B000C3FB0E89C3FB0CABCEF1000EC0FB0C8955
:1004C000C0FB0EAB52F804CB52F804EB48688B6DBE
:1004D000C0FB0C45C0FB0E67CEF1000EC3FB0C67E2
:1004E000C3FB0E45D1F8D830D1F88400C3FB0E8988
:1004F000C3FB0CABCEF1000EC0FB0C89C0FB0EABF6
:1005000052F804CB52F804EB88684B6DC0FB0C45E5
:10051000C0FB0E67CEF1000EC3FB0C67C3FB0E459C
:10052000D1F8D430D1F88800C3FB0E89C3FB0CABE3
:10053000CEF1000EC0FB0C89C0FB0EAB52F804CB11
:1005400052F804EBC8680B6DC0FB0C45C0FB0E678E
:10055000CEF1000EC3FB0C67C3FB0E45D1F8D030C3
:10056000D1F88C00C3FB0E89C3FB0CABCEF1000E9F
:10057000C0FB0C89C0FB0EAB52F804CB52F804EB65
:100580000869CB6CC0FB0C45C0FB0E67CEF1000EBA
:10059000C3FB0C67C3FB0E45D1F8CC30D1F89000FB
:1005A000C3FB0E89C3FB0CABCEF1000EC0FB0C8964
:1005B000C0FB0EAB52F804CB52F804EB48698B6CCD
:1005C000C0FB0C45C0FB0E67CEF1000EC3FB0C67F1
:1005D000C3FB0E45D1F8C830D1F89400C3FB0E8997
:1005E000C3FB0CABCEF1000EC0FB0C89C0FB0EAB05
:1005F00052F804CB52F804EB88694B6CC0FB0C45F5
:10060000C0FB0E67CEF1000EC3FB0C67C3FB0E45AB
:10061000D1F8C430D1F89800C3FB0E89C3FB0CABF2
:10062000CEF1000EC0FB0C89C0FB0EAB52F804CB20
:1006300052F804EBC8690B6CC0FB0C45C0FB0E679D
:10064000CEF1000EC3FB0C67C3FB0E45D1F8C030E2
:10065000D1F89C00C3FB0E89C3FB0CABCEF1000E9E
:10066000C0FB0C89C0FB0EAB01F5807101984FF403
:10067000FE4E4EF0FF0E4FEA946444EA85144FEAB2
:10068000E47CBCEBE43F18BF8CEA0E044FEA9868A8
:1006900048EA89184FEAE87CBCEBE83F18BF8CEACF
:1006A0000E084FEA966646EA87164FEAE67CBCEBF0
:1006B000E63F18BF8CEA0E064FEA9A6A4AEA8B1A9E
:1006C0004FEAEA7CBCEBEA3F18BF8CEA0E0ADDF881
:1006D00000C000EBCC0E2EF8026B2EF802AB20F817
:1006E000024B20F8028BBCF1010C7FF4BAAE02B0D1
:1006F000BDE8F08F2DE9F04F82B001904FF000740B
:100700004FF0000552F804CB52F804EB0868CB6DAB
:10071000CEF1000EC0FB0C45C3FB0E4552F804CBD6
:1007200052F804EB48688B6DCEF1000EC0FB0C450F
:10073000C3FB0E4552F804CB52F804EB88684B6DAE
:10074000CEF1000EC0FB0C45C3FB0E4552F804CBA6
:1007500052F804EBC8680B6DCEF1000EC0FB0C45DF
:10076000C3FB0E4552F804CB52F804EB0869CB6C7E
:10077000CEF1000EC0FB0C45C3FB0E4552F804CB76
:1007800052F804EB48698B6CCEF1000EC0FB0C45AF
:10079000C3FB0E4552F804CB52F804EB88694B6C4E
:1007A000CEF1000EC0FB0C45C3FB0E4552F804CB46
:1007B00052F804EBC8690B6CCEF1000EC0FB0C457F
:1007C000C3FB0E4501984FF4FE4E4EF0FF0E4FEA6C
:1007D000946444EA85144FEAE47CBCEBE43F18BF20
:1007E0008CEA0E04048002F5707201F580514FF01E
:1007F00000744FF0000552F804CB0868C0FB0C45AC
:1008000052F804CB4868C0FB0C4552F804CB88680A
:10081000C0FB0C4552F804CBC868C0FB0C4552F82D
:1008200004CB0869C0FB0C4552F804CB4869C0FBF7
:100830000C4552F804CB8869C0FB0C4552F804CB38
:10084000C869C0FB0C4501984FF4FE4E4EF0FF0EF8
:100850004FEA946444EA85144FEAE47CBCEBE43F3D
:1008600018BF8CEA0E040484A2F57872A1F57061B9
:100870004FF00F0C00F10200CDF800C001904FF0D6
:1008800000744FF000764FF000054FF0000752F86B
:1008900004CB52F804EB0868CB6DC0FB0C45C0FBE1
:1008A0000E67CEF1000EC3FB0E45C3FB0C6752F87A
:1008B00004CB52F804EB48688B6DC0FB0C45C0FBC1
:1008C0000E67CEF1000EC3FB0E45C3FB0C6752F85A
:1008D00004CB52F804EB88684B6DC0FB0C45C0FBA1
:1008E0000E67CEF1000EC3FB0E45C3FB0C6752F83A
:1008F00004CB52F804EBC8680B6DC0FB0C45C0FB81
:100900000E67CEF1000EC3FB0E45C3FB0C6752F819
:1009100004CB52F804EB0869CB6CC0FB0C45C0FB60
:100920000E67CEF1000EC3FB0E45C3FB0C6752F8F9
:1009300004CB52F804EB48698B6CC0FB0C45C0FB40
:100940000E67CEF1000EC3FB0E45C3FB0C6752F8D9
:1009500004CB52F804EB88694B6CC0FB0C45C0FB20
:100960000E67CEF1000EC3FB0E45C3FB0C6752F8B9
:1009700004CB52F804EBC8690B6CC0FB0C45C0FB00
:100980000E67CEF1000EC3FB0E45C3FB0C6701F5ED
:10099000807101984FF4FE4E4EF0FF0E4FEA9464C2
:1009A00044EA85144FEAE47CBCEBE43F18BF8CEAD0
:1009B0000E044FEA966646EA87164FEAE67CBCEBE1
:1009C000E63F18BF8CEA0E06DDF800C000EB8C0E87
:1009D0002EF8026B20F8024BBCF1010C7FF44CAFF7
:1009E00002B0BDE8F08F2DE9F05F05460020924689
:1009F0009B4688460646814640241BE028464146E1
:100A00004746224600F072F853465A46C01A9141B2
:100A100010D311461846224600F059F82D1A67EBFC
:100A200001084F4622460120002100F050F817EB44
:100A300000094E41201EA4F10104DFDC4846314686
:100A40002A464346BDE8F09F10B5441A0346944237
:100A500009D28418114403E011F8013D04F8013D66
:100A6000521EF9D210BD40EA0104A40703D009E0E8
:100A700010C9121F10C3042AFAD203E011F8014B67
:100A800003F8014B521EF9D210BDD2B201E000F8BA
:100A9000012B491EFBD270470022F6E710B5134622
:100AA0000A4604461946FFF7F0FF204610BD421CD7
:100AB00010F8011B0029FBD1801A7047034611F87A
:100AC000012B00F8012B002AF9D118467047202A83
:100AD00004DB203A00FA02F1002070479140C2F195
:100AE000200320FA03F3194390407047202A04DBC7
:100AF000203A21FA02F00021704721FA02F3D04097
:100B0000C2F120029140084319467047064C074D38
:100B100006E0E06840F0010394E8070098471034CD
:100B2000AC42F6D3FFF734FB50BA040870BA04089D
:100B300070B58C1810F8015B15F0070301D110F89F
:100B4000013B2A1106D110F8012B03E010F8016BCC
:100B500001F8016B5B1EF9D12B0705D40023521E4F
:100B60000DD401F8013BFAE710F8013BCB1A921CB7
:100B700003E013F8015B01F8015B521EF9D5A142B5
:100B8000D8D3002070BD00002DE9F84F04460E4672
:100B900037461CE1904D4834203CD4F81C80D5F8F1
:100BA00000A02D1DD4F82090286800902D1D4146EE
:100BB0005046FFF705FB834649460098FFF700FBC8
:100BC000ABEB00004000E06149465046FFF7F8FA01
:100BD000834641460098FFF7F3FA584440002062EC
:100BE000D4F81880D5F800A02D1DD4F824902868DA
:100BF00000902D1D41465046FFF7E2FA83464946D4
:100C00000098FFF7DDFAABEB00004000A061494619
:100C10005046FFF7D5FA834641460098FFF7D0FAD1
:100C2000584440006062D4F81480D5F800A02D1D0F
:100C3000D4F82890286800902D1D41465046FFF7B3
:100C4000BFFA834649460098FFF7BAFAABEB0000BB
:100C50004000606149465046FFF7B2FA834641467C
:100C60000098FFF7ADFA58444000A062D4F8108015
:100C7000D5F800A02D1DD4F82C90286800902D1DCB
:100C800041465046FFF79CFA834649460098FFF7D5
:100C900097FAABEB00004000206149465046FFF751
:100CA0008FFA834641460098FFF78AFA584440007D
:100CB000E062D4F80C80D5F800A02D1DD4F8309057
:100CC000286800902D1D41465046FFF779FA83466B
:100CD00049460098FFF774FAABEB00004000E06073
:100CE00049465046FFF76CFA834641460098FFF7A5
:100CF00067FA584440002063D4F80880D5F800A073
:100D00002D1DD4F83490286800902D1D4146504682
:100D1000FFF756FA834649460098FFF751FAABEBC6
:100D200000004000A06049465046FFF749FA83465C
:100D300041460098FFF744FA584440006063D4F8F5
:100D40000480D5F800A02D1DD4F8389028680090B4
:100D50002D1D41465046FFF733FA83464946009819
:100D6000FFF72EFAABEB00004000606049465046AA
:100D7000FFF726FA834641460098FFF721FA5844C8
:100D80004000A063D4F80080D5F800A02D1DD4F851
:100D90003C90286800902D1D41465046FFF710FA00
:100DA000834649460098FFF70BFAABEB0000400082
:100DB000206049465046FFF703FA834641460098B3
:100DC000FFF7FEF958444000E06320347F1E002FF7
:100DD0003FF7E0AEBDE8F88FDC8B040800BFFEE70C
:100DE000014609B920207047002201E0521C490049
:100DF00001F000400028F9D01046F4E7014609B997
:100E000020207047002201E0521C490001F0004000
:100E10000028F9D01046F4E72DE9F04180460C4651
:100E20000CB1207810B90120BDE8F0812046FFF711
:100E30003EFE401CC7B20026002519E0605D7C28FC
:100E40000BD1A81BC2B2A119404600F015F8012829
:100E500000D1E9E7681CC6B208E0605D30B9A81BA4
:100E6000C2B2A119404600F007F8DDE7681CC5B220
:100E7000BD42E3DB0020D7E72DE9F04180460D4677
:100E800016460DB1287810B90120BDE8F081404622
:100E9000FFF70DFEC7B2B74201DC0020F5E734468C
:100EA0000AE0381B18F80000311B695C884201D049
:100EB0000020EAE7601EC4B2002CF2D10120E4E772
:100EC00010B502461346002002E000241C54401CCA
:100ED0008842FADB10BD70B500254FF4803400E085
:100EE000641E24B1802008F079FF0028F8D014B9DE
:100EF0000325284670BD40F2FF5008F02BFF28461E
:100F0000F8E700002DE9F04106460027484805684B
:100F100001E04748056805F045000028F9D005F0D4
:100F2000040030B10327042008F014FF3846BDE860
:100F3000F08105F0010028B10127012008F00AFF27
:100F40003846F4E708F044FFB04202D01027384694
:100F5000EDE740F2FF5008F0FDFE002008F05EFFD4
:100F600004463448204008B93846E0E704F0004021
:100F700008B11C20DBE704F0804008B10920D6E767
:100F800004F0005008B10A20D1E704F0805008B105
:100F90000B20CCE704F0006008B10C20C7E704F098
:100FA000806008B10D20C2E704F0807008B10E2007
:100FB000BDE704F4000008B10F20B8E704F4800096
:100FC00008B11020B3E704F4001008B11120AEE717
:100FD00004F4801008B11220A9E704F4002008B13D
:100FE0001320A4E704F4802008B114209FE704F440
:100FF000003008B115209AE704F4803008B11620BB
:1010000095E704F4004008B1172090E704F480400D
:1010100008B118208BE704F4005008B1192086E7C6
:1010200004F0080008B11A2081E738467FE7000085
:10103000342C014008E0FFFD70B50025104804681D
:1010400001E00F48046804F045000028F9D004F0DE
:10105000040028B10325042008F07CFE284670BD5A
:1010600004F0010028B10125012008F073FE284694
:10107000F5E740F2FF5008F06DFE2846EFE700006C
:10108000342C014070B500250B48046801E00A4883
:10109000046804F045000028F9D004F0040028B1E9
:1010A0000325042008F056FE284670BD40F2FF508C
:1010B00008F050FE2846F8E7342C01402DE9F041B5
:1010C00006460F464FF000082248056801E0214817
:1010D000056805F045000028F9D005F0040038B196
:1010E0004FF00308042008F035FE4046BDE8F081CB
:1010F00005F0010030B14FF00108012008F02AFE90
:101100004046F3E708F064FEB04203D04FF0100809
:101110004046EBE740F2FF5008F01CFE002008F0CC
:101120007DFE044604F4604018B9200C3880404627
:10113000DCE704F4005008B11320D7E704F4804042
:1011400008B11020D2E704F4004008B10F20CDE729
:101150004046CBE7342C014070B500264FF4803573
:101160000F48046802E06D1E0D48046804F0450055
:1011700008B9002DF7D115B104F0040028B10326F9
:10118000042008F0E7FD304670BD04F0400028B1AF
:101190000026402008F0DEFD3046F5E73046F3E754
:1011A000342C01407CB50AF0AFFF054600200090CA
:1011B0002B46044A02210190034802F04FFB0446EB
:1011C00020467CBD3D460108EC9004087CB50AF041
:1011D0009BFF0546002000902B46044A0421019005
:1011E000034802F03BFB044620467CBD454701080E
:1011F0002491040810B50749074800F043F9012875
:1012000006D10449044800F03FF8044800688047CC
:1012100010BD00000080001858600240BC00002093
:1012200010B50749074800F02DF9012806D10449F7
:10123000044800F029F804480068804710BD000009
:101240000088002088600240B800002010B509F036
:10125000EDFA10BD0246094B9A4201D2084801E05E
:101260000648103801F000531BB1064B0B40C36019
:1012700002E0044B0B4083607047000010640240A2
:10128000006002407D0F7D0F0246094B9A4201D259
:10129000084801E00648103801F000531BB1064B26
:1012A0000B40C36002E0044B0B40836070470000BA
:1012B00010640240006002407D0F7D0F21B1026882
:1012C00042F00102026003E0026822F001020260C3
:1012D00070470000016821F00101016000210160F8
:1012E00041608160C1600161212141614A498842B8
:1012F00004D13D21484A103A91608CE046491831AA
:10130000884205D14FF47461434A103A916082E0FB
:1013100041493031884205D14FF474113E4A103AA8
:10132000916078E03C494831884205D14FF07461C2
:10133000394A103A91606EE037496031884204D1F1
:101340003649354A103AD16065E0334978318842F0
:1013500004D13349304A103AD1605CE02E499031D3
:10136000884204D12F492C4A103AD16053E02A49CF
:10137000A831884205D14FF03D51274A103AD1603B
:1013800049E02949884204D13D21274A083A1160A1
:1013900041E025491831884205D14FF47461224A51
:1013A000083A116037E020493031884205D14FF4C6
:1013B00074111D4A083A11602DE01B4948318842DA
:1013C00005D14FF07461184A083A116023E01649BC
:1013D0006031884204D11149134A121F11601AE08A
:1013E00011497831884204D10D490F4A121F11600A
:1013F00011E00D499031884204D10A490A4A121F6E
:10140000116008E00849A831884204D14FF03D51ED
:10141000054A121F11607047106002403D00002015
:10142000400F002000003D201064024021B10268FE
:1014300042F48022026003E0026822F4802202600B
:10144000704722B1036843F40023036003E003689C
:1014500023F4002303600161704721B1026842F068
:101460002002026003E0026822F02002026070475E
:10147000014600200A6802F001020AB1012000E0E2
:101480000020704770B50246002000240025124E4F
:10149000B24201D2114B01E00F4B103B104E0E40F7
:1014A00036B11E2606EAD124166806EA040502E0D3
:1014B000566906F0800501F000560EB15C6800E048
:1014C0001C68084E344004EA010616B10DB1012033
:1014D00000E0002070BD0000106402400060024087
:1014E0003C0F3C0F7D0F7D0F10B501F080034BB119
:1014F00022B1436943F08003436103E0436923F071
:101500008003436180290BD02AB1036801F01E04D7
:101510002343036004E0036801F01E04A343036057
:1015200010BD000010B500220268134B1A40CC68B1
:101530000B6823434C6923438C692343CC692343C1
:101540000C6A23434C6A23438C6A23434C6B23432A
:101550008C6B23431A430260426922F00702D1E9EF
:101560000B3423431A4342610B6943604B68836029
:101570008B68C36010BD00003F801CF07047000006
:1015800000B587B00121084607F0A0FF0121102017
:1015900007F0DCFF00208DF81A0001208DF81B00F9
:1015A00002208DF819008DF818000002059005A999
:1015B000174801F0B9FB02208DF818004002059091
:1015C00005A9134801F0B0FB07220A21104801F0D9
:1015D000F3FB072209210E4801F0EEFB4FF4E13046
:1015E00001900020ADF80800ADF80A00ADF80C003D
:1015F000ADF810000C20ADF80E0001A9054809F067
:1016000067FE0121034809F049FE07B000BD000054
:1016100000000240001001402DE9FF4F87B0054651
:101620000E46149C002E03DC00200BB0BDE8F08FAA
:10163000002B02DA4FF0FF30F7E70593DFF858B3DD
:1016400009985BF82000DFF854B30BEB40000190E1
:10165000DFF84CB309985BF830C009980BEBC00079
:101660000079029000221598404200F0070129B14C
:1016700014F8010BC1F1200B00FA0BF25B1A02986F
:1016800098B9002006900BE04FF0000B069845F843
:1016900020B00698401C45F820B00698801C0690A3
:1016A0000698B042F0DB0020BFE70298012879D10C
:1016B0000198007800F00F0004900198801C0190C0
:1016C0004FF0000A65E0102B10DB14F8010BC1F19C
:1016D000180B00FA0BF0024314F8010BC1F1100BC8
:1016E00000FA0BF002431031103B22E0C81800282A
:1016F00002DC4FF0FF3098E7002B06DD14F8010BF9
:10170000C1F1180B00FA0BF00243082B06DD14F8A8
:10171000010BC1F1100B00FA0BF002431944002336
:10172000481E4FF0004B4BFA00F002404FF00B0AFE
:1017300051442AE00498C0F1200022FA00F0DDF8BC
:1017400004B03BF810804FEA183EA1EB0E0102FAFC
:101750000EF2C8F30319B9F1000F05D002F00040F2
:1017600040EA09095200491EC8F3032727B102F0D5
:10177000004007435200491E514502DA4FF0FF3046
:1017800053E745F8049B80C5B61E002E01DD0B29EA
:10179000D0DA002E97DCA1EB0A0003440598C01AAA
:1017A00043E7FFE70298032802D00298022876D187
:1017B000019800904FF0000AE2E0102B10DB14F8C3
:1017C000010BC1F1180B00FA0BF0024314F8010BE6
:1017D000C1F1100B00FA0BF002431031103B22E074
:1017E000C818002802DC4FF0FF301EE7002B06DD92
:1017F00014F8010BC1F1180B00FA0BF00243082B8F
:1018000006DD14F8010BC1F1100B00FA0BF00243D6
:1018100019440023481E4FF0004B4BFA00F00240E1
:101820004FF00B0A5144A6E00098007800F00F003A
:1018300004900498C0F1200B22FA0BF0401CDDF854
:1018400000B03BF810804FEA183EBEF1000F08D1FF
:101850000498091A04988240009800EB4800009010
:1018600089E0A1EB0E0102FA0EF2C8F30319C8F3E6
:101870000327B9F10F0F33D10298032830D10FB1EC
:10188000012000E000200CF1010B5844039001EB13
:10189000030B0398834503DA4FF0FF30C5E678E089
:1018A00008E014F8010BC1F1180B00FA0BF0024329
:1018B0000831083B03988142F3DB002B07DA194417
:1018C0000023481E4FF0004B4BFA00F00240CCF1D1
:1018D000200022FA00F08144A1EB0C0102FA0CF284
:1018E000B9F1000F05D002F0004040EA09095200AA
:1018F000491E0F2F2DD1029803282AD10CF1010087
:10190000039001EB030B0398834502DA4FF0FF309D
:101910008BE608E014F8010BC1F1180B00FA0BF08C
:1019200002430831083B03988142F3DB002B07DABE
:1019300019440023481E4FF0004B4BFA00F00240C0
:10194000CCF1200022FA00F00744A1EB0C0102FACE
:101950000CF227B102F0004007435200491E5145E6
:1019600002DA4FF0FF3060E645F8049B80C5B61EF2
:101970000198009000BF002E02DD0B29BFF654AF86
:10198000002E3FF71AAFA1EB0A0003440598C01AD6
:101990004BE64FF0FF3048E68C8504086864040885
:1019A0000C8604082DE9FF4F83B00546109C002BE0
:1019B00003DC002007B0BDE8F08FDFF858E10598A0
:1019C0005EF82000DFF850E170440090DFF84CE151
:1019D00005985EF82000029000221198404200F025
:1019E000070129B114F8010BC1F1200E00FA0EF223
:1019F0005B1A0027019785E0102B10DB14F8010B10
:101A0000C1F1180E00FA0EF0024314F8010BC1F1F7
:101A1000100E00FA0EF002431031103B22E0C818FD
:101A2000002801DC3846C5E7002B06DD14F8010B61
:101A3000C1F1180E00FA0EF00243082B06DD14F86F
:101A4000010BC1F1100E00FA0EF0024319440023FD
:101A5000481E4FF0004E4EFA00F002400A2001905E
:101A60000198014448E00298C0F1200022FA00F0F9
:101A7000DDF800E01EF800604FEA161BA1EB0B0139
:101A800002FA0BF2C6F3C00CBCF1000F05D002F055
:101A9000004040EA0C0C5200491EC6F38008B8F121
:101AA000000F05D002F0004040EA08085200491E2D
:101AB000C6F34009B9F1000F05D002F0004040EA3A
:101AC00009095200491E06F0010ABAF1000F05D0BB
:101AD00002F0004040EA0A0A5200491E0198814281
:101AE00001DA384666E745F804CB45F8048B45F83B
:101AF000049B45F804AB3F1D0498C01EB84201DDAD
:101B00000A29B0DA0498C01EB8423FF775AF3846CC
:101B100050E700005C8704080C8704086487040809
:101B200001B504490098086000BF02480068002819
:101B3000FBD108BD3C0000202DE9FF4F87B0834654
:101B400098460020009008F00300604901EB801ADD
:101B500008F003005E4951F8200002901F20B0EB0E
:101B6000A80F02DD4FEAA80000E01F200746F81C7E
:101B70001F2800DA00E01F200546002D01DD284661
:101B800000E00020054600200390DAF80400284118
:101B90000490DAF8080028410590DAF80C00284192
:101BA000069000BF5BF8040B0190019820F0004400
:101BB000042C03DA03A850F824606FE0102C0BDA31
:101BC0005AF82460002F03DA794206FA01F001E0A6
:101BD00046FA07F0064661E0402C0BDAA4F110004B
:101BE0003C4951F8206030460299FEF7E9FA064672
:101BF000FD1E45E064040025B4F1006F01DA240104
:101C00002D1DB4F1005F01DAA400AD1CB4F1804FCA
:101C100001DA64006D1C3048844201DA2F4800E08C
:101C20002F488146D9F8006021463046FEF7C8FAB1
:101C3000D9F80410461821463046FEF7C1FAD9F803
:101C40000810461821463046FEF7BAFAD9F80C10AB
:101C5000461821463046FEF7B3FAD9F81010461858
:101C6000204850F825103046FEF7AAFAC600304644
:101C70000299FEF7A5FA06461B4850F825003D1AC2
:101C8000002D0ADA6D426FF000402841B04202DABE
:101C90006FF0004602E0AE4000E02E410098304375
:101CA00000900198002801DA704200E0304608995F
:101CB00008600898001D08900998401E09900028A7
:101CC0007FF470AF00980BB0BDE8F08F406204085D
:101CD00030620408406304089A79825A0064040858
:101CE0001464040848640408286404082DE9F047D3
:101CF000044640688EB00027804601F0E5FA009067
:101D0000B0F87CA0D0F86890D0F88060D0F8885007
:101D1000C06D00B10768684601F032FB05E06968F4
:101D200020468847002843D12D68002DF7D1206830
:101D3000172853D00CDC0F283DD004DC0B2877D0BB
:101D40000D2825D18BE0112810D0142820D13BE09C
:101D5000262846D004DC1E2851D0202818D18AE03D
:101D60002A2816D0B0F5107F12D128E04046E56849
:101D700001F0AAFA0290697A39B9297A012904D1C5
:101D800030F87C1F41F48071018002A801F0F8FA5C
:101D900075E0404601F098FA0090E16811B1C0F892
:101DA000841002E0D0F88400E060684601F0E8FAB0
:101DB0000EB0BDE8F087D7B34046B8475FE0214694
:101DC000404610F0EBFCF3E705A9404600F03FFB6E
:101DD000E0680699016007994160E9E7C4F80C9052
:101DE000E6E7E0680228E3D1CDF83080E0680D90A6
:101DF00027200A900AA9A0680BF03AFBD8E7E06810
:101E0000012804D00021404600F0ACFAD0E730466B
:101E10000AF0E7FB68B130460AF074FD30460AF07C
:101E2000B9FA98B10121304609F0B3FD0EE026E081
:101E30002FE048460AF0B4FD0646404601F044FA59
:101E40000090C0F88060684601F09AFA012140468F
:101E500000F088FA002EABD10020E060A8E75FEA2E
:101E60000A700CD4E068C06848B1007A38B14046C6
:101E70000AF048FD03E02146404610F018F92146DB
:101E8000404609F0F5FC002892D020460AF02EF8D2
:101E90008EE7404601F018FA0090703001F086F9A4
:101EA000684673E7F0B587B0B0F908400DF10C0C47
:101EB0000C9E876945688CE8F000448A0025CDE9CE
:101EC00000150294B0F90C10B0F91050B0F90E40A2
:101ED000B0F90A00194410442B46224600F002F8DB
:101EE00007B0F0BD2DE9F0478AB00DF14C0CDDE9EB
:101EF00017849CE86006129F45F48055DFF8BCC04B
:101F00006034CDE902C4CDE9007509F041FF040059
:101F10004FD001F0D9F930224946049009F0EAFD8A
:101F20000498282226493430FEF78EFD0498244F69
:101F3000C0F86480A0F87C600026C0F88060C666A7
:101F4000083FC0F888607968C16504A801F018FAF4
:101F500005A9204600F07BFA1A4841F282710396E7
:101F60000094CDE90110BDF91E00BDF91A10BDF9AC
:101F70001C20431ABDF918005B1C121A521C09F0F0
:101F800007FF06467868416820468847204601F0EA
:101F90009BF90490866604A801F0F2F942F204006D
:101FA000054202D120460AF049F85146204600F089
:101FB000DEF90AB02046BDE8F0870000ED1C0008FD
:101FC000AC020020752600082DE9F041044694B0CB
:101FD000006800F0B7F908B1D94D01E0D84D2C35B3
:101FE000606815281ED00CDC0B281FD004DC0028EC
:101FF0007ED005287DD12FE10E287BD01228F9D183
:1020000041E1162806D0172808D0182808D01C2827
:10201000F0D109E0E86914B0BDE8F081286AFAE778
:10202000686AF8E7A86AF6E76869F4E720680B9041
:102030001C200C90206801F047F90390016D0BA85B
:102040008847064603A801F09BF9022E0FDB95E8AE
:1020500007008DE80700D4E904023346A16903F0C4
:10206000FFFB20698719A069A0EB06082CE028680F
:1020700002F0C2FD2169E8690A18521E606901F088
:1020800003FFA269E869111A491C606901F0FCFEAE
:10209000D4E904077F1C394601F01CFF3946A069CA
:1020A00001F018FF686802F0A7FD20693946401C5E
:1020B00001F010FFA0693946401E01F00BFFA06936
:1020C0002769A0F10208BF1C286802F095FD42466E
:1020D0003946606901F0D8FE686802F08DFD6069DC
:1020E00042463946401C01F0CFFE686A022802E0F1
:1020F00015E1B0E000E10BDDA86802F07DFD61694B
:102100006A6A881C8B180146424638465B1E27E0E7
:10211000296AB14226DD6069022E074600F10208F5
:1021200001DB374401E007F10207206901DB30449D
:1021300001E000F1020022693B460A444146A2F157
:10214000010201F06DFF022E02DBA069821B01E09B
:10215000A269921EA069E9693B46401A4146401CAB
:1021600001F05EFF022E02DB6069064401E0666951
:10217000B61CE76928687F1E02F03EFD3A463146EC
:10218000206901F005FF3A463146A06901F000FFE1
:10219000E7696868BF1E02F02FFD20693A463146A4
:1021A000401C01F0F5FEA0693A463146401E01F0A0
:1021B000EFFEE869022802DC286A022823DDA86A0B
:1021C000022802DDE1690F1A01E0E769BF1EA86875
:1021D00002F012FDE969022909DD20693B46421837
:1021E00000F1020C31466046521E01F019FF286AC8
:1021F000022808DDA269E8693B46101A3146401CF6
:10220000921E01F00DFF286802F0F6FCD4E90620CA
:10221000216901F039FE686802F0EEFCD4E906207D
:102220002169401E491C521E01F02EFEA86A022898
:1022300011DDA1692669E469A1F10208271AA41E2B
:10224000B61C7F1CA86802F0D7FC234642463946DC
:10225000304601F0E5FE71E0208A00B2ADF81400CE
:10226000A18A09B2ADF81610228B12B2ADF818206F
:10227000A38B1BB2ADF81A302C69ED68CDE9005480
:1022800001F0CEFD5AE0208A298B0844ADF81400F5
:10229000A08AADF81600208B298B401AADF81800E3
:1022A000A08BADF81A00206801F00EF80390006FC3
:1022B000F0B1022002F0EEFC039890F87C10C1F31C
:1022C000C00100EB8100006C02F096FC0398406BAB
:1022D00002F09CFC0398006F00F0F6FF0399099050
:1022E000B1F95A2005A901F091FC09A801F048F8BC
:1022F00003A801F045F821E0208AADF81400A08A77
:10230000ADF81600208BADF81800A08BADF81A00C0
:10231000A86802F071FC05A801F0A6FE0EE0206896
:1023200000F0D2FF039030F85A1F41F00C010180F9
:1023300003A801F025F820680AF084FB00206AE673
:102340003804002038B5002450B100F0BDFF0090E3
:1023500090F87C00000700D50124684601F010F8D1
:10236000204638BD002801D010F050BF70477CB522
:102370000D46040019D000F0A7FF0090006F0190F7
:10238000684600F0FDFF294601A803F043FD002840
:102390000BD0204600F098FF009001990167684635
:1023A00000F0EEFF20460AF0BEF87CBD2DE9FC47A8
:1023B0000C465FEA000948D000F086FF0090428E8C
:1023C000114614B141F0200501E021F02005AA4298
:1023D00038D04586484600F016F9009EF4691FE0A3
:1023E000204600F071FF0190076AB0F90200B6F9CB
:1023F0000210A0EB010801A800F0C2FFB6F95610C8
:1024000041450CD1B06EA04209D096F8320080064A
:10241000204602D50AF0BAFB01E009F0CBFF3C46AA
:10242000002CDDD1009890F87C00400607D5A80666
:10243000484602D50AF0AAFB01E009F0BBFF484676
:102440000AF071F8684600F09BFFBDE8FC872DE9B3
:10245000F34F85B000270C46B846059800F034FFCE
:102460000090C06D0121856805982A6890478246D2
:102470002A6803210598904704902A68022105984C
:10248000904703902A6800210598904706460098D7
:102490000AF0E2FC834600980AF0E5FC81460098C9
:1024A00090F83210890601D5B0F9588000F036F85E
:1024B00005460098C06E10B109F04AFF0746258016
:1024C0006780A4F804A0049AABEB020006EB0802B4
:1024D000401E2A4420813A44E280039BA9EB030278
:1024E000521E6281A4F80CA020827019E681401E61
:1024F0006082684600F044FFB4F90C000190B4F922
:102500001000029002AA01A9059800F039F801987C
:10251000A0810298208207B0BDE8F08F10B5014677
:10252000002091F83220920607D5B1F95400002816
:1025300003D1486B01F05CFE801C10BD70B58AB001
:102540000C46054600F0C0FE0990C06D866809A8DB
:1025500000F016FF009534B1012C06D0022C0BD0F0
:10256000032C04D10AE0182000E0162001907168C5
:10257000684688470AB070BD1520F7E71720F5E7D1
:102580002DE9FC4117468846044600F09DFE009068
:10259000C16D056868468E6800F0F2FE3268002161
:1025A000204690470646204609F0DBFD27E000BFA5
:1025B00000F08AFE0190B0F900102AB2B0F90430A0
:1025C000891A9A1AB0F90230A3EB2543B34210D10D
:1025D00090F82800000605D53868884209DB491EB6
:1025E000396006E0D8F80000904202DC521CC8F8BE
:1025F000002001A800F0C4FE204609F043FE0400BC
:10260000D6D1BDE8FC8170B586B0064600F05CFE10
:102610000590D0E91A4505A800F0B2FE54EA05007D
:1026200026D069463046FFF712FFACB1BDF906204F
:10263000BDF90410204609F0D6FFBDF90A00BDF926
:102640000610421ABDF90800BDF90410521C411AC7
:102650002046491C0AF02FFA002D09D0BDF90600CA
:10266000BDF90210421ABDF90410284609F0BBFF5B
:1026700006B070BD2DE9F0430446406889B00546B8
:1026800009F007FE814600F01FFE0290D0F8488056
:10269000D0F88070466E02A800F072FE20681728FD
:1026A00053D008DC0E283AD00F2811D014284CD073
:1026B00015283DD149E01E281ED01F282AD02228E7
:1026C00040D0312834D10020E06009B0BDE8F0836B
:1026D0006FF070414046884503D005F027FC01F0BB
:1026E00075F8002EF1D0D4E902122068CDE9040576
:1026F000CDE9061204A81FE0E0680028E5D02FB15C
:10270000AF4203D038460AF0FDF8DEE728460AF06B
:1027100047F9DAE72146484609F0AAF8D5E7E06824
:102720004168002904DD00680928EFD00A2805D097
:102730005EB12046C4F80490B047C6E728460AF0C8
:1027400061F9C2E7C4F80C80BFE7204609F0CEFB70
:10275000BBE7000051B18200A2F1C042126842F012
:1027600001038200A2F1C042136009E08200A2F1DD
:10277000C0421268034B1A408300A3F1C0431A60A1
:1027800070470000FEFF0F0030B50021002200233B
:102790000468A400A4F1C0442168424C2140D0E95F
:1027A00001452C43C5682C4305692C4345692C43DE
:1027B00085692C43C5692C43056A2C43456A2C4323
:1027C000856A2C43C56A2C43056B2C43214304685E
:1027D000A400A4F1C04421608468082C0BD10468D3
:1027E000A400A4F1C044246844F040050468A40097
:1027F000A4F1C04425600468641CA400A4F1C04492
:10280000226802F04042446B2468456B6D6844EADC
:102810000514456BAD6844EA0524456BAD8944EA6F
:102820000544456B2D8A44EA0554456B2D7D44EAE9
:102830000564456BAD692C4322430468641CA40005
:10284000A4F1C0442260C46AB4F5804F20D104686A
:10285000A400A4F1C044D4F80431134C2340846B89
:102860002468856B6D6844EA0514856BAD6844EA9D
:102870000524856BAD8944EA0544856BAD692C431D
:1028800023430468A400A4F1C044C4F8043107E061
:102890006FF070450468A400A4F1C044C4F804516A
:1028A00030BD00008000F7FF0000F0CF2DE9FC41B3
:1028B00007460D46002600240020009001900820C5
:1028C0005B49086010204860402088600020C86094
:1028D0004FF480600861084607F0DEFA1020FEF72A
:1028E00011FB044614B12046BDE8FC815148008824
:1028F00000044F490860372048604020886000206D
:10290000C8604FF480600861084607F0C5FA3720B8
:10291000FEF7F8FA04460CB12046E5E74FF0FF3029
:102920004549086008204860302088600220C8605F
:102930000020086101204861084607F023FA0020C2
:102940003B49086033204860402088600020C86010
:102950004FF480600861084607F09EFA3320FEF7C6
:10296000D1FA04460CB12046BEE709E04FF400104E
:1029700007F034FA20B107F089FA4DF82600761CEA
:102980002E48006840F22A6108400028EED0082056
:1029900007F024FA28B1082007F0DCF904242046C7
:1029A000A2E7022007F01AFA28B1022007F0D2F9B4
:1029B0000224204698E7202007F010FA28B12020B2
:1029C00007F0C8F9062420468EE74FF4007007F0A0
:1029D00005FA30B14FF4007007F0BCF90724204627
:1029E00082E740F2FF5007F0B5F900980006009921
:1029F00001F47F4140EA0120009901F47F0140EA9F
:102A00001120009940EA1160686001980006019960
:102A100001F47F4140EA0120019901F47F0140EA7D
:102A20001120019940EA1160286020465CE700000F
:102A30009006002028000020A4060020342C01402D
:102A40002DE9F04F89B004460F4692461D46002DF1
:102A50005BD10AF00100002853D08034D4F800B0D4
:102A600004F580742068089004F58074206807904D
:102A700004F580742068069004F580742068059041
:102A800004F580742068049004F580742068039035
:102A900004F580742068029004F580742068019029
:102AA00004F58074A4F51064CBF10000206004F5F7
:102AB000807408984042206004F580740798404272
:102AC000206004F5807406984042206004F580740C
:102AD00005984042206004F58074049840422060CC
:102AE00004F5807403984042206004F580740298D5
:102AF0004042206004F5807401984042206004F553
:102B00008074002009B0BDE8F08F4FF000090AF092
:102B1000010000284AD0C84644E02668F017C5F1F5
:102B20001F0146FA01F1814206D0C5F11F020121C1
:102B30009140491E81EA000606FA05F020602068EF
:102B4000FDF741FB40EA0909803420684642F0174E
:102B5000C5F11F0146FA01F1814206D0C5F11F02FD
:102B600001219140491E81EA000606FA05F0206025
:102B70002068FDF728FB40EA090980343E68F01719
:102B8000C5F11F0146FA01F1814206D0C5F11F02CD
:102B900001219140491E81EA000606FA05F001C7AD
:102BA00008F10208B8F1120FB7DB49E04FF0000856
:102BB00043E02668F017C5F11F0146FA01F1814292
:102BC00006D0C5F11F0201219140491E81EA00068D
:102BD00006FA05F020602068FDF7F5FA40EA0909D9
:102BE00080342668F017C5F11F0146FA01F18142D1
:102BF00006D0C5F11F0201219140491E81EA00065D
:102C000006FA05F020602068FDF7DDFA40EA0909C0
:102C100080343E68F017C5F11F0146FA01F1814288
:102C200006D0C5F11F0201219140491E81EA00062C
:102C300006FA05F001C708F10208B8F1120FB8DB77
:102C400048465FE72DE9F0430446C56887B09046E3
:102C50008946002001F0D8FF064625B1287910B139
:102C600046F0020001E026F0020001F0CDFF2069ED
:102C7000012558B1D4E902128DE826000395638836
:102C80002288046841464846A0471EE0124F134B75
:102C9000214638681B68427CE068984730B9E08874
:102CA000012801D0002001E03868806BA288E38809
:102CB000A1680095CDE90410CDE902320195638841
:102CC00022884146484604F063FD07B03046BDE81F
:102CD000F04301F099BF0000200200201002002004
:102CE0000E4810B5006805F021F90D48006805F0A0
:102CF00055F9012001F0BCFF002001F0C1FF0020C8
:102D000001F0C8FF002005F061F90648006801F0F5
:102D10007DFFBDE81040002001F086BF1C020020AE
:102D20001802002014020020F0B50A4600210023FA
:102D3000002400BF3DE0012505FA01F3156805EA0E
:102D400003049C4234D105684F000326BE40B543BE
:102D5000056015794E00B540066835430560157964
:102D6000012D02D01579022D16D185684F0003265A
:102D7000BE40B543856055794E00B5408668354301
:102D80008560456801268E40B54345604568967963
:102D90008E40B6B235434560C5684F000326BE403D
:102DA000B543C560D5794E00B540C6683543C560AA
:102DB000491C1029BFD3F0BDF0B5002300244D07F6
:102DC000ED0E02FA05F3CE1000F1200555F826505D
:102DD0004E07F70E0F26BE40B543CF1000F1200678
:102DE00046F82750CE1000F1200555F8265045EA48
:102DF0000304CE1000F1200545F82640F0BD024640
:102E0000002013690B400BB1012000E00020704747
:102E100041837047018370472DE9F04FDFF828B1F7
:102E200091B04FF0FF35DBF80030B3F92210069176
:102E3000DE69B3F92490F469A189814206D8E28958
:102E4000824203D3471AD4F8008012E0D4E901810A
:102E500000296FD00A8882426CD84D88854269D398
:102E6000801A82B2486800EB8200B0F90070B0F9B5
:102E70000250781C5ED0307EA17C10FB01FA217CD0
:102E8000CDE90701B3F92A60304605F09FF8C0B2DA
:102E90000E90DBF8000007FB0A81A37C826B012700
:102EA000CDE90412CDE90273C069089AC17E807E23
:102EB000CDE90001DDE90603494604F069FC681C20
:102EC00018D046F0020005F081F8DBF80000A37C82
:102ED00005FB0A81826BCDE90273CDE90412C0695A
:102EE000089AC17E807ECDE90001DDE906034946EE
:102EF00004F04EFCDBF800005D46C069417E007EB8
:102F0000814214D9022E12D086F0040005F05EF83A
:102F10002868C069027EC37E12FB0391437E857ED2
:102F2000089A06984B4412FB050204F0BDFD0E986A
:102F300005F04CF8DBF80000627C418C11444184C0
:102F400011B0BDE8F08F00002002002004480068A6
:102F5000C069C06909B1027C0A60407C704700000A
:102F600020020020022008807047C06982898A42BE
:102F700002D8C2898A4210D2806880B102888A420F
:102F80000DD843888B420AD3406800EB8100A0EB48
:102F90008200B0F90000002801DB0120704700200A
:102FA000704700002DE9F043304C034687B020689D
:102FB0001946B0F92A60C069C06900F086F8002897
:102FC00050D041680088181A01EBC0053046AF7830
:102FD00004F0FCFF814620686A680123816BCDE91B
:102FE0000237CDE90421C169CB7E8A7ECDE9002379
:102FF0000B7EB0F924102A78B0F9220004F0C8FB47
:103000002068C069417E027E91421FD9C07E11FBBB
:1030100000F812FB00F7022E18D001F0A6F80646C1
:1030200001F086F801F0E8FD21682A78CB69B1F952
:103030002200DB7E12FB0302B1F9241001EB08032E
:10304000394404F031FD304601F0D6FD484604F025
:10305000BDFF20686A78C369B0F922109B7E12FB1D
:103060000311418407B0BDE8F08300002002002076
:1030700030B50F4C05460B4620682946C069C0692B
:1030800000F023F8002812D04168008824682A1A2A
:103090000120E46900EBC200085CA47E10FB04F090
:1030A000002B04D011F8321011FB04F1196030BD6F
:1030B0002002002001200880704700B5C06900F0A0
:1030C00004F8002800D0012000BD06E002888A42F2
:1030D00002D842888A4202D280680028F6D170471E
:1030E000F8B505460C000CD0084600F019F80600AB
:1030F00010D000F0E9F82246009025B12946064B91
:1031000003E00020F8BD054B00211B689847684686
:1031100000F036F93046F8BDD8030020D403002073
:10312000002801D00AF020BC7047000038B50546E1
:10313000FFF7F6FF04000AD000F0C6F8054B009038
:103140002A461B6800219847684600F019F9204676
:1031500038BD0000D4030020024A106021F00300B3
:103160005060704710A4012010B500280ED004460E
:103170000748042101EBC401406B415848680AF03C
:1031800031FB2046BDE810400FF070BF10BD0000BD
:1031900050A30120002805D0034AD16B016001B182
:1031A0004860D0637047000050A3012010B504466A
:1031B0000068FFF7D9FF0020206010BD2DE9F04125
:1031C00004460EF0B3FD2848E41C24F00305016C0E
:1031D0002D1DA94200D90D46C46B13E054F8042CF0
:1031E000AA420ED184B1216809B162684A6061685F
:1031F00009B122680A60C26BA24231D12168C16361
:103200002EE02468002CE9D18046816BC0680F183D
:1032100057F8040C3E1A306838B100200FF090FFC8
:1032200057F8040C3E1A3068D0B97068A84217DB12
:103230003044441B3046241D0FF03AFFD8F80C10E0
:10324000491BC8F80C10D8F814102944C8F81410F9
:103250007068401B02D031460AF0C4FA44F8045C9E
:103260002046BDE8F081000050A3012010B50024E5
:103270000EF05CFD0C490F2001EBC002526C1AB13C
:1032800001EBC000406C08E0401EF5D508E0416845
:10329000A14200D90C46806810B180680028F6D1A0
:1032A000A4F10C0010BD000050A30120002138B192
:1032B0000449042202EBC000496B085841680C39EC
:1032C0000846704750A301200549CA69521CCA61CB
:1032D000496B01EBC0010A78521C0A7000F068B813
:1032E00050A301207CB506460C460846FFF718FFA0
:1032F00005001ED0EEB13046FFF7D8FF0346A042CE
:1033000000DB23462846FFF7DFFF00903046FFF73B
:10331000DBFF1A46084B019001461B68009898474E
:10332000684600F02DF801A800F02AF83046FFF7B3
:103330001BFF28467CBD0000D803002010B5FFF716
:1033400095FF64220649B0F5800F04D990FBF2F096
:10335000096A484310BD096A4143B1FBF2F010BD50
:1033600050A301200549102805D94A68B0EB520F37
:1033700002D3500800E010208860704710A401209C
:103380000A4902684B6B52F8082C03EBC20213780F
:10339000022B03D3CB690BB15B1ECB611178491EA5
:1033A00011700021016008467047000050A3012001
:1033B0000349042202EBC000496B085808307047EB
:1033C00050A301202DE9FC414FF000060B465FEAB7
:1033D000000834462BD032B111461846FFF780FE64
:1033E000060000D101244046FFF76EFF00900788D9
:1033F00045686846FFF7C4FFCCB9B9002846091DE7
:10340000FFF770FF050015D0FFF75EFF019040F851
:10341000276001A8FFF7B4FF4046FFF755FF009073
:1034200045600188491C01806846FFF7A9FF2046D6
:10343000BDE8FC813046FFF797FE0124F7E708203E
:10344000FFF774BE7CB5050023D0FFF73DFF009069
:103450004068C0B1FFF738FF0024019005E00198F3
:1034600000EB8400FFF7A2FE641C00980088A042D5
:10347000F5DC01A8FFF784FF0098001DFFF796FE1A
:103480000099002008806846FFF77AFF2846FFF77A
:103490006BFE7CBD1CB50C46FFF716FF0090018843
:1034A000A1421CD94068D0B1FFF70EFF019000EB9C
:1034B0008400FFF77BFE00990888401E80B20880D8
:1034C000401E019906E000BF01EB8402526841F8FA
:1034D0002420641C8442F7DD01A8FFF751FF6846F1
:1034E000FFF74EFF1CBD38B5002430B1FFF7ECFEEE
:1034F000009004886846FFF743FF204638BD38B582
:103500000D46002448B1FFF7DFFE2946009000F089
:1035100053F804466846FFF733FF204638BD0000E5
:103520002DE9FF4107460E46154600241046FFF7D9
:10353000FDFD009038B33846FFF7C6FE31460190D6
:1035400000F03AF802900098FFF7BEFE104B03908F
:103550002A461B680299984702A8FFF711FF03A8A3
:10356000FFF70EFFDDE90020314600F02FF818B11B
:103570006846FFF71BFE03E00098FFF7A5FE044630
:1035800001A8FFF7FDFE04B02046BDE8F081000071
:10359000D803002038B50D4601880024A94209D976
:1035A000406838B1FFF790FE009050F8254068461B
:1035B000FFF7E6FE204638BD10B50024FFF7EAFF0E
:1035C00010B1FFF781FE0446204610BD38B50C4609
:1035D000014615460A880120A24210D949680029EF
:1035E0000DD00846FFF770FE00EB840400902046E3
:1035F000FFF7DCFD68462560FFF7C2FE002038BDFE
:1036000070B50C46054600F059FEC1B22346284667
:10361000BDE87040002200F001B80000F0B52D2791
:103620001C68B0F1004F08D0002600280DDA651C98
:103630001D6027704042012408E0651C01261D60C2
:103640006FF000402770491E01E00024091BC9B239
:103650002AB3491EC9B222E00C46491EC9B294429F
:1036600005D1124C27781C68651C1D602770104C12
:1036700054F8215090FBF5F4E4B20A2C11D804FB65
:10368000150011B90EB1641CE4B20A2C02D1012458
:10369000491CC9B21D686F1C30341F602C70002992
:1036A000DAD1196800200870F0BD00000C0200207B
:1036B000A4910408034900EB800001EB800000792D
:1036C000704700008CA401202DE9FC5F0446894668
:1036D000084600F051FD2B4E09EB8907824656F84B
:1036E0002700019028484FF00108016841B9264998
:1036F000C0F80080091D25480860084602F082FBDA
:10370000204A09EB8901BAF1000002EB81051BD0C8
:1037100001F04AFA83464FF07F4001F06BFA00F067
:1037200055F800221146206800F020FB20684288EE
:103730000188504601F074FA46F8274085F8048065
:10374000584601F031FA17E046F8274085F8048022
:103750002869464618B101F083F90020286174B148
:103760000096E868A1684B46421AA8686168411A49
:10377000206801F0B1F9286148460FF0E5FF019893
:10378000BDE8FC9F8CA401207C020020452101089B
:1037900010B5C2B2CBB2D21A00D5524293B25B433B
:1037A000C0F30722C1F30724121B00D55242000CBC
:1037B00092B2A0EB114002FB023200B2002801DA03
:1037C000404200B280B200FB002010BD10B50021C5
:1037D000084600F023FD43F6FF725042BDE810405A
:1037E00013460146AFF300802DE9FC4107461C4615
:1037F00015460E46042004F0E9FB80461148406956
:10380000C16C006D0F4406440D440444ADF80070D3
:10381000ADF80450ADF80260ADF80640684609F016
:1038200029FB07E023462A463146384604F03CF996
:1038300009F0D4FA0028F5D1404604F0C7FBBDE8F2
:10384000FC8100000C020020B0F90630B0F9042021
:10385000B0F90210B0F90000FFF7C6BF2DE9F84338
:103860001C00DDE9089816460F46054602D108F00F
:103870004BFC044600962E6843464A46214628469D
:10388000B047061E35D008F033FC8146698A3046C1
:1038900008F07FF8304609F079F9484609F076F9E2
:1038A0004FF000080CE000BFCDF8008055F81CCFA9
:1038B00000231A4649462846E047E0B109F066F978
:1038C0007F1E002FF0DC1D21484608F08AFF601C97
:1038D0000ED008F059FC30B1FFF76AFD8469B4429C
:1038E00001D02000F8D1B44202D0304609F058F897
:1038F0003046BDE8F883304608F02CFB0020F8E79E
:103900002DE9F0411C4616460D460746022B02DB08
:103910000020BDE8F0811C20FFF750FC0028F8D003
:103920000DB105610AE0094A52F8241009B905E011
:1039300011460A68002AFBD1096901618461868207
:10394000002101604160C0E90217E2E74C0200205B
:1039500070B51D46FFF7D4FF040009D000F00EF843
:10396000E068006820B90348006800EB85008465C2
:10397000204670BD20020020FFF70CBC70B5C0B31C
:103980008269022A36DA2149531C0C789C4200DAFB
:103990000B701F4C54F8221019B944F8220032E081
:1039A00019464B68002BFBD106E0CB68C5681B6845
:1039B0002D68AB4203DD09680029F6D11AE0C1B1D8
:1039C000CB68C6681B683668B3420CD1838A012B6A
:1039D00005D008E01946DB681B68AB4203DB0B68C7
:1039E000002BF7D129B14B6833B118604A684260A7
:1039F00004E0FFE7012070BD44F8220048608842DF
:103A000000D100210160002070BD00007202002082
:103A10004C02002010B50C4B8269002153F8224063
:103A2000844205D1046843F82240026802B1516023
:103A300042680AB10368136002680AB143685360C0
:103A40000160416010BD00004C020020022801DB33
:103A500000207047054951F8200004E0C16809685A
:103A60000029F6D000680028F8D170474C020020E9
:103A70002DE9F8431D461646884604000CD0FFF792
:103A800023FC0090006807686846FFF779FC2B4626
:103A9000324641462046B847BDE8F88338B50400B1
:103AA0004FF000000AD02046FFF70EFC009000689F
:103AB00045686846FFF764FC2046A84738BD38B51E
:103AC00004004FF000000AD02046FFF7FDFB0090F5
:103AD000006885686846FFF753FC2046A84738BD54
:103AE0000022AFF300801FB503ABCDF80CD0FFF779
:103AF00095FD684600F002F81FBD00002DE9FC4767
:103B000006005BD000F042FB3B4C81462068B0F9D8
:103B1000228000F053FB216807468A8CD01B8884E2
:103B200041E000BF47F6FF71304601F0EFFF8246EB
:103B30000146304601F0C0FF2168054691F82C008F
:103B400000F0030001283FD0022839D000204A8C21
:103B5000101A4884ADF800006A1E1044ADF8040045
:103B6000888CADF80200A9F101010844ADF8060007
:103B70006A465146304601F081FC2168BDF80200DA
:103B800088845146304601F0BFF9064430780A284F
:103B90001CD00D281AD0BDF80000216828444884A4
:103BA000307818B1761C30780028BBD12068818C21
:103BB00039448184818D21F003018185BDE8FC8732
:103BC00005EBD5704010C2E72846C0E7206890F8A2
:103BD0002C1001F0030101290BD0022909D0018C1E
:103BE000418431780A29DBD1828C02EB090181847E
:103BF000D6E7A0F82280F4E720020020024B1B68E1
:103C000059849A84FFF77ABF2002002047F6FF7399
:103C1000AFF300802DE9FC411F46904606000D469B
:103C20004FF0000416D065B1084608F063FF0400A9
:103C300007D002462946684601F0DCFF684608F0D6
:103C400059FF3B4642462946304601F06FFC20466C
:103C500008F050FFBDE8FC812DE9FF4F87B090468A
:103C6000894607007AD00C68D9F8045021B228B2EE
:103C7000401A401C029000F089FA064618F00C0F1A
:103C80001ED038460A9A029901F047FA08F00C0152
:103C9000042904D0082902D00C2911D104E02914E8
:103CA00000FB1610401C09E02114C1EB254200FB6B
:103CB0001620401C00EBD07001EB600060F31F4445
:103CC000484608F017FF5FEA000B09D00246494654
:103CD00004A8CDE9044501F08DFF04A808F00AFF0F
:103CE000A6F1010A38460A9A029902F0D7F8039021
:103CF0000AEB244060F31F45CDE90045384603999F
:103D000001F0DAFE18F003010FD0012929D00229B1
:103D10000FD1B9F90420B9F90010521A101A401C39
:103D200000EBD07001EB600001E0B9F80000ADF8E5
:103D300000006A463846039901F0A0FB38460A9A0B
:103D4000029902F0A1F8074406EB244060F31F44F7
:103D500038780028C6D1584608F0CCFE0BB0BDE834
:103D6000F08FB9F80410081A401CE0E77CB506464D
:103D700010480068C36C006D5D1884183188681E97
:103D80000844ADF80400ADF800507188601E084486
:103D9000ADF80600ADF80240684609F06BF806E0A1
:103DA000224629463046FEF74DFF09F017F8002855
:103DB000F6D17CBD200200202DE9F04F0C461649BB
:103DC00087B00D68DDE91098E96C0F18286D8D1823
:103DD0000619C418ADF81070ADF81450ADF81260A3
:103DE000ADF8164004A809F045F8002811D0DFF816
:103DF0002CB04FF0000ACDE90098CDE902BA2B466D
:103E00002246394630460BF0E8FF08F0E7FF00286D
:103E1000F1D107B0BDE8F08F20020020557A0008EC
:103E20002DE9F04F164C87B02568DDE91098EC6C51
:103E30002718286DA5184618C418ADF81070ADF8ED
:103E40001450ADF81260ADF8164004A809F012F84D
:103E5000002811D0DFF82CB04FF0010ACDE900980E
:103E6000CDE902BA23462A46314638460BF0B5FF63
:103E700008F0B4FF0028F1D107B0BDE8F08F0000D2
:103E800020020020957900082DE9FC41104F0446DE
:103E90003B68D86C4518196DADF800500E198418A0
:103EA000ADF80440ADF80260ADF80660684608F071
:103EB000E1FF08E0386822463146406E0368284634
:103EC000984708F08BFF0028F4D1BDE8FC81000082
:103ED000200200207CB50E4D2A68D36C1E18106D90
:103EE000ADF804604418ADF80060ADF80640ADF8D8
:103EF0000240684608F0BEFF07E028682146406E91
:103F000042683046904708F069FF0028F5D17CBD33
:103F1000200200202DE9FC411C4C2468E66C94F83A
:103F200018C03718206DACF1010C4518C418A7EB68
:103F30000C001644ADF8000006EB0C00ADF80400D0
:103F4000A5EB0C00ADF8020004EB0C00ADF8060088
:103F5000684608F08FFF15E032462946384603F0E0
:103F600019FD32462146384603F014FD621E691CD5
:103F7000384603F06FFD621E691C304603F06AFD8F
:103F800008F02CFF0028E7D1BDE8FC8120020020CA
:103F90007CB50E4B1B68DC6C2618186DADF8006004
:103FA00045188418ADF80460ADF80250ADF806402D
:103FB000684608F05FFF06E022462946304603F0D7
:103FC00049FD08F00BFF0028F6D17CBD200200203F
:103FD00010B5002400E0012400F004F80028FAD114
:103FE000204610BD0B4810B50068002410B1804772
:103FF00000B1012408F02EF800B101240648006841
:1040000010B1804700B101240448006800B1804726
:10401000204610BD2C02002058020020540200202F
:104020002DE9FC410F4C2568EC6C2718286DA5186C
:104030004618C418ADF80070ADF80450ADF8026031
:10404000ADF80640684608F015FF07E023462A460B
:104050003146384603F028FD08F0C0FE0028F5D1AF
:10406000BDE8FC8120020020B0F90630B0F9042040
:10407000B0F90210B0F90000FFF7D2BF08B50B4647
:10408000002805D0009281888268C08800F001F87D
:1040900008BD10B50828029C30D008DC04FB01F4F0
:1040A00001280AD0022813D0042804D11CE01028CB
:1040B00028D020282CD0002010BD04EBD30003F022
:1040C0000701105CC1F10701C84000F0010010BDFC
:1040D00004EB93000621105C01EA4301C1F10601E3
:1040E000C84000F0030010BD04EB5300D907105C7A
:1040F00002D000F00F0010BD000910BD04FB01301C
:10410000105C10BD481004FB003032F8100010BDE8
:10411000881004FB003052F8200010BD034951F80C
:104120002000C1688A6A0821104700004C02002064
:1041300010B503F0E9FCBDE8104003F083BD0000BA
:1041400002490968C9694A68002110472002002015
:10415000024A1268D269526810470000200200200B
:10416000002801D007F0B4BF704710B503F0D4FCAD
:10417000BDE8104003F066BD0021022802D20249CA
:1041800051F8201008467047F003002002480068EC
:10419000C069407E704700002002002001F082BC10
:1041A00001F0DEBC10B5044601F0CCFC014620460F
:1041B000BDE8104001F080BC00F0D6BF0A490020E5
:1041C000096891F82C2002F00C02042A07D0082A72
:1041D00001D00C2A02D1C869007E40087047C86926
:1041E000007E401E7047000020020020407E704785
:1041F000017EC07E11FB00F070470000024951F8BB
:1042000020000069006870474C020020024951F804
:1042100020000069406870474C020020024A126882
:104220005084918400207047200200202DE9F04145
:104230001C48016821F0010101601B4801268660CD
:1042400081680029FCD11949016000681849884239
:1042500000D0FEE701F044F8164C2E20207000F04C
:1042600089FF15480DF016FD11F0F6FC074603F026
:1042700099FC10B103F0AAFC38B903F0B0FC054674
:1042800003F099FC294603F09BFE0021084600F04C
:10429000D3FC08F0A3F8A06900B18047A6703846A7
:1042A000BDE8F081002000E000300240C2A507F424
:1042B000CDB5E8B50C0200201CA4012010B5011EEC
:1042C00001DD024600E04A42064B012053F820403F
:1042D000944202D8401C0A28F8DB002900DA401C6E
:1042E00010BD0000A49104081CB520B90C4800685A
:1042F000006E002812D0FEF7E7FF00904469684680
:10430000FFF73EF8002C09D02046FEF7DDFF0190B4
:1043100081688968884701A8FFF732F81CBD000052
:104320002002002001490A4600F002B801F0FFFF18
:104330002DE9F04387B015460C465FEA000842D0ED
:10434000002000F061FC814620480068066E40466F
:10435000FEF7BAFF00900068806900F025FC074670
:1043600040F6FF70C44204D10098B0F90440B0F99F
:1043700006500098611E0289ADF804401144ADF862
:1043800008104189681E0844ADF80650ADF80A00CF
:1043900007F064FC6846FEF7F3FF01A808F06AFD29
:1043A00006E02A462146404600F096FA08F016FD3F
:1043B0000028F6D1384600F0F7FB304600F066F9E9
:1043C000484600F021FC07B0BDE8F0832002002041
:1043D0002DE9FE4F83461A488A461A4900680C9E0A
:1043E0009846407C9146002751F82040E1680968D2
:1043F000042903D02468002CF8D100E01CB9FFF791
:1044000025FB041E19D0E0680121C26A20469047AE
:10441000050011D02469A0688047401C02D10A4CD5
:1044200046F001060096CDE9015443464A465146FE
:10443000584600F0AFF907463846BDE8FE8F000049
:10444000200200204C02002004B1040838B504000A
:1044500018D00D480068006EA04201D100F09AFB10
:104460002046FEF731FF0090406908B100F043FE9E
:1044700000980068FFF780FA6846FEF781FF204643
:10448000FEF772FE38BD0000200200202DE9FF4F2C
:10449000DFF83891074683B0D9F800009A468B467A
:1044A000447C4B4800570128204606DD03F080FB82
:1044B0000546204603F090FB05E003F061FB05464E
:1044C000204603F063FB04461FB302A901A8FFF7CF
:1044D00067FEB7F90000002800DA0020B7F9026093
:1044E0008046002E00DA002601984119B7F9040031
:1044F000491E0DF038FD054602980119B7F906006E
:10450000491E0DF030FDA5EB0802841B521C641CF3
:1045100003E04FF0000846462A46BAF1000F01D1E9
:10452000C4F1000A002A4FDD002C4DDD10980090E8
:10453000534631464046FFF74BFF5FEA000A10D072
:1045400000F06AF80746A04206D0D9F80000806C57
:1045500010B1322108F0AAFF504600F097F800256C
:1045600021E0594605988847012007B0BDE8F08F43
:10457000611BB94202DA504600F072F83DB172197F
:104580004146504600F0A4F85046FFF7ADFE5946AC
:10459000059888470F48016809B1002088475046B0
:1045A000FFF7C0FE3D44A542E2DB5046FFF74EFF59
:1045B000002000F06BF8A74206D0D9F80000806C0C
:1045C00010B1332108F072FF0020CEE72002002056
:1045D000700200201C04002038B5002460B1FEF7F2
:1045E00073FE0090006800698068804703F090FEC9
:1045F00004466846FEF7C4FE204638BD38B500289C
:1046000008D0FEF761FE00F1180400906846FEF73E
:10461000B7FE204638BD000038B5002418B9074859
:104620000068006E38B1FEF74FFE0090B0F90A4006
:104630006846FEF7A5FE204638BD00002002002097
:1046400070B505460024284609F0CCFC641C18B15E
:10465000BDE8704000F068B8052CF4DB70BD0000C8
:1046600038B50C4620B908480068006E00280AD00A
:10467000FEF72AFE0090B0F90A10A14200DD448145
:104680006846FEF77DFE38BD20020020F8B50F4ECB
:1046900005003068046E16D00CB100F07BFA07F00C
:1046A0001BFC2846FEF710FE009031680D6600687E
:1046B000FFF764F96846FEF763FE03F0E3FC03F0DE
:1046C0005FFC2046F8BD00F065FAFAE72002002002
:1046D0007CB515460C4620B912480068006E0028CB
:1046E0001FD0FEF7F1FD2DB20090C58024B284806A
:1046F00003F046FC0098406980B1FEF7E5FD009AA2
:104700000190B2F908108180B2F90A20C28011B17B
:104710000AB10480458001A8FEF732FE6846FEF724
:104720002FFE7CBD2002002001490A4600F002B89D
:1047300001F0FFFF7FB515460C46060028D0FEF7B6
:10474000C3FD40F6FF710190CC4203D1B0F90440A3
:10475000B0F906500289611E1144ADF80840ADF869
:104760000C104189681E0844ADF80E00ADF80A50DF
:1047700001A8FEF705FE02A808F07CFB06E02A4629
:104780002146304600F090F808F028FB0028F6D1CA
:104790007FBD00002DE9FF4FDFF8E8B083B01C4675
:1047A000DBF80010DDE9106092464FF000084B7C0A
:1047B00042461299FFF7A4F8050060D02869806886
:1047C000804703F0A5FD81460AFB09F1C91DCF080A
:1047D000FEF7B4FDF10705D1C11700EB9170801011
:1047E00000EB4000002C09DC1FB11838B0FBF7F0DB
:1047F00000E000206442A04200DC0446F00707D13C
:104800000090DDE903012346524600F0FDFB80469F
:10481000002C03DC2846FFF7AFF830E004FB07F07C
:104820001830F10702D0FEF77BFC01E0FEF77EFCBA
:1048300006001CD0FEF748FD0190056003998180B9
:104840000499C180A0F808A04481C0F81480C0E990
:10485000037901A8FEF794FD1298AE602861DBF899
:104860000000407CA861304607B0BDE8F08F2846C4
:10487000FFF782F8B8F1000001D0FEF775FC0020C8
:10488000F2E7000020020020054B30B41B68054C05
:104890005B7C54F823301B6930BC0FF057B9000023
:1048A000200200204C020020F8B515460E460746AF
:1048B000FEF70AFD009000681621C068426A0020D9
:1048C000904704466846FEF75BFD002C03D02A465D
:1048D00031463846A047F8BDF8B516460F460500E4
:1048E00012D0FEF7F1FC009044696846FEF748FDDF
:1048F0002846FFF771FE0346082800DD2CB132463A
:10490000394628460FF0E2F9F8BD324639462846C6
:104910000FF07CFBF8BD10B5002821D009B30AB315
:10492000B1F90040B2F900309C4200DA234603801E
:10493000B1F90240B2F902309C4200DA23464380CA
:10494000B1F90440B2F904309C4200DD2346838073
:10495000B1F90610B2F90620914200DC1146C1807F
:1049600010BD11460A6802604968416010BD002808
:104970000BD003880B4403808388194481804188CD
:1049800011444180C1881144C180704770B5094C01
:104990000020D4E900218A420AD0D2E9005610460C
:1049A0000DF02AF920603146284607F04FFE01201D
:1049B00070BD0000880200202DE9FC41154DDDE9A5
:1049C00008742D68B5F90860864200DD3046B5F9F7
:1049D0000C60964200DA3246824219DBB5F90A6071
:1049E0008E4200DD3146B5F90E509D4200DA2B466D
:1049F0008B420DDB00E02C46E5682D6825B1042DC7
:104A000002D02568002DF6D1CDE9007403F0A2F99B
:104A1000BDE8FC8120020020B0F90220B1F9063087
:104A20009A4213DCB1F90220B0F906309A420DDC4B
:104A3000B0F90020B1F904309A4207DCB1F9001056
:104A4000B0F90400814201DC01207047002070476A
:104A50000146024870220068FBF7F6BF20020020E2
:104A600038B5040019D00EF075FF20460EF0E8FFAF
:104A70002046FEF729FC00900068FEF78BFB0098AB
:104A8000C068FEF771FB0098C069FEF76DFB6846D1
:104A9000FEF776FC2046FEF767FB38BD38B504000C
:104AA00019D0FEF711FC0090007C800710D420463E
:104AB0000DF009FA6846FEF763FC20460EF05EFE34
:104AC0002046FEF701FC0090018A41F002010182BC
:104AD0006846FEF755FC38BD2DE9F84304460088CA
:104AE000089F91468846D0B36088C0B3E06818B18B
:104AF0008068002834D002E0E08820282FD107F019
:104B0000010200211E48FEF7FBFE050027D0208889
:104B10006188800048432030FEF708FB060021D062
:104B20003046AE60FEF7D0FB009007824461A0F8EB
:104B30000480A0F80690238808EB0301491E018138
:104B400061884944491E418105606846FEF718FCAA
:104B5000E06858B12146304609F05CFB30B10020D6
:104B6000BDE8F8832846FEF707FFF8E7B80705D544
:104B700030460DF0A8F930460EF000FE3046EFE763
:104B800008A70408024970220968FBF75DBF00000E
:104B90002002002010B503F0A9F903F073FABDE874
:104BA000104007F05BB8000070B5094D0446022CB8
:104BB0002868467C09D22046FEF748FF28B12868BD
:104BC0004474FFF7E7FF03480460304670BD0000FF
:104BD000200200206003002070B50C46054607F057
:104BE00035FD002805D121462846BDE8704000F07B
:104BF0006BB870BD03F09AB903F0D0B90149886071
:104C0000704700000C02002003F0E0B90349096876
:104C1000CA6900B1C8611046704700002002002038
:104C200003F0F0B903F01ABA024909688A7E88765F
:104C30001046704720020020094A30B41080094A0B
:104C40001180094A1268537C084A52F82330DA6806
:104C5000146A0A46A446014630BC18466047000064
:104C6000780200207A020020200200204C0200205E
:104C7000024909680A7E0876104670472002002023
:104C800003490968B1F92C20888510467047000057
:104C90002002002003490968B1F92A2048851046FE
:104CA000704700002002002002480068002800D061
:104CB00000477047F803002002498A6802B98860FB
:104CC000FFF7F2BF880200207CB50A4C0546CDE90B
:104CD00000016068019A6E46C0E9005221680CF03C
:104CE0007DFF6060E16809B130468847A560FFF745
:104CF000DBFF7CBD880200202DE9FC410746984679
:104D000016460D461C20FEF711FA04002DD01B4953
:104D1000194808602046FEF7D7FA009015B9FFF74A
:104D20004BFA054600980760C0E90465A0F80C80BE
:104D30006846FEF725FB20460DF0D0F8104DA86818
:104D400040B90120A86005F10C010E480860084632
:104D500001F058F82046FEF7B7FA0190296839B1FA
:104D600081602C6001A8FEF70BFB2046BDE8FC81AA
:104D700000212C608160F5E7A54D00082C02002081
:104D80008C0500202D22010810B5040009D00EF07A
:104D9000A9F920460EF060FE2046BDE81040FEF75F
:104DA000E3B910BD2DE9F041184C88B000256768C3
:104DB00025E000BFFFF700FA06466068FEF784FAB8
:104DC00001904169891B002915DC616802960491F4
:104DD0000169039146686660D0F8008001A8FEF77B
:104DE000CFFA02A84146884766B160680125B842FB
:104DF00005D1002506E001A8FEF7C2FA02E06068CE
:104E00000028D7D108B02846BDE8F0818C050020E5
:104E100038B50C4660B1FEF757FA00908089204201
:104E200001D0012400E000246846FEF7A9FA00E062
:104E30000124204638BD38B5040012D0FEF744FAEC
:104E40000090FFF7B9F90146009882691144416169
:104E50006846FEF795FA20460EF0FEFD20460DF05E
:104E60003DF838BD38B50C46002806D0FEF72CFAC0
:104E7000009084616846FEF783FA38BD38B5054670
:104E8000002028600648046844B12046FEF71CFA5A
:104E90000090006928606846FEF772FA204638BD27
:104EA0008C05002038B504004FF000000D46086066
:104EB00011D02046FEF708FA0090846844B1684695
:104EC000FEF75EFA2046FEF7FFF9009000692860C1
:104ED0006846FEF755FA204638BD00002DE9F0413E
:104EE000084E04460568306801682846884707462A
:104EF0003068416828468847284420603846BDE825
:104F0000F0810000280200202DE9F0410C46064601
:104F10000025064F05E0386841683046884706445A
:104F20000544641EF7D22846BDE8F081280200201F
:104F30002DE9F0411E46069C1746884605463A462E
:104F4000A8687F1C3346D0F804C041462846E04795
:104F5000641EF4D1BDE8F08170B5B0F90040091BC2
:104F6000B0F904408C422CDD00F11404B0F9025079
:104F70000069521B02FB0040CA1800EBE104521EFC
:104F8000D010B0EBE10501F007034FF0FF0102F094
:104F9000070221FA03F0C2F1070201FA02F1CEB2D0
:104FA00021780FD001436D1E04F8011B002D05DD93
:104FB000FF2229462046FBF768FD2C442078304329
:104FC000207070BD30400143217070BD10B5B0F944
:104FD0000030B0F90240C91A00F114030069121B35
:104FE00002FB003000EBE10001F0070302788021B2
:104FF000D9400A43027010BDB0F90610026951434E
:105000001430FBF749BD00002DE9F843804602F15A
:105010000F000011470003FB07F01C4615468946A8
:105020001430FEF783F8060013D0FEF74DF9009018
:10503000A0F80080A0F802908580C48006498160B5
:105040000121818107616846FEF79AF93046BDE883
:10505000F8830020FBE7000090B9040870B5B0F9B0
:105060000660B0F904400B6800F1140596421BDDA0
:105070000069A34202FB005000EBE30214DA641E55
:10508000E010A0EBE30512F8010B03F00704A040C9
:10509000C4B206E045B1083312F8014B23F0070310
:1050A0006D1E002CF6D004E0002070BD6006040EDA
:1050B0005B1C2006FAD5FF2C07D0184602E06406D8
:1050C000240E401C6606FAD400E0D81DC4436407D1
:1050D00005D006E012F8014BFF2C09D108306D1EF7
:1050E000F8D5C01A401C0B6070BD6206140E401C3F
:1050F0002206FAD4F5E738B50546FEF7E5F8009044
:105100008189491E0CB284816846FEF739F9002C6A
:1051100002D12846FEF728F838BD2DE9F0411646A1
:105120000F460546002432463946284600F0ACFEBC
:10513000054408B1641CF6E72046BDE8F081000094
:1051400010B54FF470410548FEF706F88020FEF7D1
:1051500009F90348FFF752FD10BD000050B30020CD
:10516000709904087047000001480068704700000B
:105170000802002070470EB508B102AA00E0002224
:10518000002301A9684600F03FFC0EBD074910B599
:105190000C7818B101200870801E03E00020087010
:1051A0006FF07F4002F0DEFA204610BD0D020020B5
:1051B00010B5082A0EDC0346012A18D0022A56D060
:1051C000042A76D010F8042B03F8012B491EF9D1DC
:1051D000012010BD102A08DC4FEA000230F8043B21
:1051E00022F8023B491EF9D1F2E7002010BD10F869
:1051F000042BD207120E491E34D010F8044B491E5E
:1052000004F0010442EA84122CD010F8044B491E29
:1052100004F0010442EA441224D010F8044B491E61
:1052200004F0010442EA04121CD010F8044B491E99
:1052300004F0010442EAC40214D010F8044B491EE1
:1052400004F0010442EA84020CD010F8044B491E19
:1052500004F0010442EA440204D010F8044B04F0C4
:105260000104224303F8012B0029C0D1B0E710F854
:10527000042B9207120E491E15D010F8044B491E3C
:1052800004F0030442EA04120DD010F8044B491E46
:1052900004F0030442EA840205D010F8044B04F041
:1052A00003042243491E03F8012B0029DFD18FE7B5
:1052B000FFE710F8042B1207120E491E05D010F854
:1052C000044B04F00F042243491E03F8012B00296C
:1052D000EFD17DE738B50024009400F01BF838BD0D
:1052E0000A4810B5416B00290ED101214163FFF737
:1052F00027FF02F0D9FE0549054838310860BDE8AE
:105300001040084600F07EBD10BD00000C020020D9
:105310000D2101082DE9F0410D460699044601B919
:1053200001461F68082A09DC0E46012A1AD0022A03
:105330005BD0042A7DD0082A13D18DE0102A07DC27
:10534000D3F810C00E46BCF1000F04D0022389E050
:105350000020BDE8F08101CCB84726F8020B6D1E95
:10536000F9D189E001CCB847C0074FEA10686D1E3B
:1053700036D001CCB84748EA801000F0FF086D1E17
:105380002ED001CCB84748EA401000F0FF086D1E4F
:1053900026D001CCB84748EA001000F0FF086D1E87
:1053A0001ED001CCB84748EAC00000F0FF086D1ECF
:1053B00016D001CCB84748EA800000F0FF086D1E07
:1053C0000ED001CCB84748EA400000F0FF086D1E3F
:1053D00006D001CCB84740EA080000F0FF086D1E77
:1053E00006F8018B002DBDD146E001CCB8478007FF
:1053F0004FEA10686D1E16D001CCB84748EA00107D
:1054000000F0FF086D1E0ED001CCB84748EA8000BE
:1054100000F0FF086D1E06D001CCB84740EA080036
:1054200000F0FF086D1E06F8018B002DDDD123E092
:10543000FFE701CCB84700074FEA10686D1E06D0A1
:1054400001CCB84740EA080000F0FF086D1E06F8DE
:10545000018B002DEDD10FE0D3F810C0BCF1000F8F
:1054600004D001232A462046E04705E001CCB84796
:1054700006F8010B6D1EF9D101206AE77CB50646DE
:1054800028480D46006868B1002007F0F3FC06E0EC
:105490006A462946304608F075FE07F09FFC002852
:1054A000F6D17CBD106800901F4C506801902268B6
:1054B000BDF8000032F84C1F0844ADF80000BDF8FC
:1054C000020091880844ADF80200BDF8040011887C
:1054D0000844ADF80400BDF8060091880844ADF812
:1054E0000600684607F0C6FC0EE000BF2068BDF865
:1054F00000106A464184BDF8021081842946304676
:1055000008F040FE07F06AFC0028EFD1206830F870
:10551000221F428D891A01804188C28D891A4180DB
:105520007CBD000074020020200200202DE9FF4F06
:1055300085B09A4690460D46FEF728FE4FF00009CA
:10554000DDF814B006464C4625B12868009068681E
:10555000019002E06846FEF703FE18F00C0F02D03F
:105560005546002713E0BDF902402DE029467F1C77
:10557000059800F0CBFA01466D1A0598FFF7C4FCB8
:1055800005990844059005A800F004FB08B9002D12
:10559000ECD108F00C00042804D0082802D00C2814
:1055A00012D105E0BDF9060007FB1604641C0BE0F0
:1055B000BDF90600BDF90210401A07FB1600401C99
:1055C00000EBD07001EB60045546CDF814B043E019
:1055D0002946059800F09AFA07460146ED1B059802
:1055E00000F06AFA18F003010ED0012939D002291F
:1055F0000DD1BDF90410BDF90020891A091A01EB7B
:10560000D17102EB610101E0BDF900108946174A32
:10561000401E484412683946A2F822909484ADF89E
:105620000C00A019401EADF80890ADF80E00ADF8C2
:105630000A4002AA0598FFF721FF39460598FFF7AF
:1056400063FC059908440590FEF7A0FD044405A8F5
:1056500000F0A0FA002801D1002DB9D109B0BDE8B1
:10566000F08FBDF90410091A491CCFE72002002071
:1056700049B1002802DAA0EB610001E000EB610013
:1056800090FBF1F070470020704700002DE9FF4FBC
:105690008DB00020DDF86CA0164600901D46044633
:1056A0000246CAF8000008AB03A902A800F0ACF952
:1056B00018B1002011B0BDE8F08F0898854200DDD8
:1056C0000546624F0B9562493868407C51F82010BE
:1056D000049109690691FEF721FD05903868407C28
:1056E000FEF794FD5B498146884204D05A498945BA
:1056F00001D0012000E000200A9001CE1A998847CD
:105700008346000E079077D0009870BB0D9800EB91
:1057100004084E480068B0F90800404503DDA0EBDE
:105720000807804600E000270299049801EB8401F5
:1057300001EB8701CDE900100B990D9842180992F1
:105740000E9B40461946521EFFF736F90120009085
:10575000059818280ADA0298DDE9052300EB840091
:1057600000EB8700E91B00F0ADF812E00A9880B169
:10577000029800EB840000EB87070998A0EB08086B
:1057800049463868884701C7A8F101005FEA000868
:10579000F6D1324BD86980B3DDE9020700EB840013
:1057A00007EB8402CDE902022C4C361F3046E46937
:1057B0002B460299A047FF203168B0EB116F02D150
:1057C0000299096804E0029A1268B0EB126F01D1E5
:1057D000039A1160029906F10406091D02910399CA
:1057E000091D03916D1EE7D10397DAF8000040F020
:1057F0000100CAF8000022E023E0FFE70798FF2835
:1058000013D0C0F1FF0202981B6850F824102BF04F
:105810007F409847039941F8240000BFDAF8000060
:1058200040F00101CAF8001005E00298039950F811
:10583000240041F82400641C6D1E7FF45EAF0398C1
:1058400038E7039941F824B0E8E70000200200207F
:105850004C0200208F7C00088D7C00085C05002035
:105860002DE9F0479A46164B86B01B68DDE90F8795
:10587000DC6CDDF838902618186D65188418AAF1CC
:105880000100ADF810502044ADF80C60ADF81200E6
:10589000ADF80E4003A807F0EDFA0BE0CDF800904C
:1058A000CDE9018753462246294630460AF056FD87
:1058B00007F094FA0028F1D106B0BDE8F0870000A7
:1058C000200200202DE9F05F0C1E16DD5E68014607
:1058D00000EB8405082A12DC611E012A26D0022A68
:1058E00047D0042A6AD0082A07D1071917F8010DF2
:1058F000B04745F8040D641EF8D1BDE8F09F102AAA
:10590000FBDC5F693FB12246BC46BDE8F04F022395
:105910005DF804EB604701EB440700BF37F8020D68
:10592000B04745F8040D641EF8D1E6E700EBE1004E
:1059300001F0070710F801A98146802020FA07F836
:10594000B5F104050AEA0800C7F10701C840B047ED
:1059500045F804093FB14FEA48604FEA10687F1EDE
:10596000641EEFD1C9E719F801A907274FF0010814
:10597000F6E700EBA10001F0030710F801A981464A
:105980007900C02020FA01F84FF0060BB5F10405AC
:105990000AEA0800ABEB4701C840B04745F80409E4
:1059A0003FB14FEA88604FEA10687F1E641EEFD156
:1059B000A3E7032719F801A9B846F7E700EB610050
:1059C000012710F801A9A7438146B900F02020FA69
:1059D00001F84FF0040B2D1F0AEA0800ABEB87011A
:1059E000C840B04745F804093FB14FEA08704FEA94
:1059F00010687F1E641EEFD17FE719F801A9012707
:105A00004FF00F08F6E700002DE9F047224C06465C
:105A10001F46A06990468946002540B90120A06133
:105A200004F128011D480860084600F0EBF96069A0
:105A300030B91B480068606110B902F0A4F86061D9
:105A400007B138604EB1A06830B960698000FDF7D9
:105A5000B5FBA06000B901253060B9F1000F0AD094
:105A6000E06830B960698000FDF7A8FBE06000B92C
:105A70000125C9F80000B8F1000F0AD0206930B93B
:105A800060698000FDF79AFB206100B90125C8F824
:105A900000002846BDE8F0875C05002005220108CB
:105AA0006802002003480068C069017EC07E11FBC7
:105AB00000F070472002002073B5124A01A9009837
:105AC0001268904700240090C8B10F49002509686A
:105AD000C969496959B10A684AB1019990477CBDC1
