:020000040800F2
:10000000B0DB01209D0100080B220008B515000897
:10001000072200087B0200084527000800000000B6
:10002000000000000000000000000000792400082B
:10003000AD030008000000000D220008692500083B
:10004000B7010008B7010008B7010008B7010008B0
:10005000B7010008B7010008B7010008B7010008A0
:10006000B7010008B701000861040008B7010008E3
:10007000B7010008B701000881020008B7010008B5
:10008000AD020008B7010008B7010008B701000879
:10009000B7010008B7010008B7010008B701000860
:1000A000B7010008B7010008B7010008B701000850
:1000B000B7010008B7010008B7010008B701000840
:1000C000B7010008B7010008B7010008B701000830
:1000D000B7010008B7010008B7010008B701000820
:1000E000B7010008B7010008B7010008B701000810
:1000F000B7010008B7010008B7010008B701000800
:10010000B70100087D230008B7010008B701000807
:10011000B7010008B7010008B7010008B7010008DF
:10012000B7010008B7010008B7010008D9020008AC
:10013000B7010008B7010008B7010008B7010008BF
:10014000B7010008B7010008B7010008B7010008AF
:10015000B7010008B7010008B7010008B70100089F
:10016000B7010008B7010008B7010008B70100088F
:10017000B7010008B7010008B7010008B70100087F
:10018000B7010008B7010008DFF80CD000F038F81C
:100190000048004761410008B0DB01200648804765
:1001A00006480047FEE7FEE7FEE7FEE7FEE7FEE75C
:1001B000FEE7FEE7FEE7FEE7D92500088901000813
:1001C00010B5431A934209D28318881803E010F837
:1001D000011D03F8011D521EF9D210BD40EA0103B2
:1001E0009B0703D009E008C9121F08C0042AFAD2ED
:1001F00003E011F8013B00F8013B521EF9D210BD9B
:10020000064C074D06E0E06840F0010394E8070063
:1002100098471034AC42F6D3FFF7BAFF746C00086D
:10022000946C000870B58C1810F8015B15F007038A
:1002300001D110F8013B2A1106D110F8012B03E07F
:1002400010F8016B01F8016B5B1EF9D12B0705D487
:100250000023521E0DD401F8013BFAE710F8013BD0
:10026000CB1A921C03E013F8015B01F8015B521EEC
:10027000F9D5A142D8D3002070BD00BFFEE7000031
:1002800010B50749074800F05FF8012806D1044976
:10029000044800F03FF804480068804710BD0000A3
:1002A0000080001858600240B800002010B50749CF
:1002B000074800F049F8012806D10449044800F035
:1002C00029F804480068804710BD0000008800201D
:1002D00088600240B400002010B502F063F810BD41
:1002E0000246094B9A4201D2084801E006481038FC
:1002F00001F000531BB1064B0B40C36002E0044BFE
:100300000B408360704700001064024000600240B0
:100310007D0F7D0F0246094B9A4201D2084801E049
:100320000648103801F000531BB1064B0B40C36068
:1003300002E0044B0B4083607047000010640240F1
:10034000006002407D0F7D0F70B502460020002442
:100350000025124EB24201D2114B01E00F4B103B6F
:10036000104E0E4036B11E2606EAD124166806EA63
:10037000040502E0566906F0800501F000560EB152
:100380005C6800E01C68084E344004EA010616B1BF
:100390000DB1012000E0002070BD0000106402409B
:1003A000006002403C0F3C0F7D0F7D0F7047000046
:1003B00000B587B00121084601F02AFF0121102075
:1003C00001F046FF00208DF81A0001208DF81B0077
:1003D00002208DF819008DF818000002059005A97B
:1003E000174800F009F902208DF818004002059026
:1003F00005A9134800F000F907220A21104800F06F
:1004000043F9072209210E4800F03EF94FF4E1308C
:1004100001900020ADF80800ADF80A00ADF80C001E
:10042000ADF810000C20ADF80E0001A9054802F04F
:100430001FF90121034802F00FF907B000BD0000C9
:10044000000002400010014001B504490098086016
:1004500000BF024800680028FBD108BDBC00002096
:1004600010B5102000F010F828B1012002490870E2
:10047000102000F003F810BDF000002001490860D2
:1004800070470000143C014001460020034A1268F6
:100490000A400AB1012000E000207047143C0140EE
:1004A00051B18200A2F1C042126842F00103820001
:1004B000A2F1C042136009E08200A2F1C0421268BA
:1004C000034B1A408300A3F1C0431A607047000039
:1004D000FEFF0F0030B50021002200230468A400B5
:1004E000A4F1C0442168424C2140D0E901452C438D
:1004F000C5682C4305692C4345692C4385692C4309
:10050000C5692C43056A2C43456A2C43856A2C43F4
:10051000C56A2C43056B2C4321430468A400A4F155
:10052000C04421608468082C0BD10468A400A4F1A5
:10053000C044246844F040050468A400A4F1C04409
:1005400025600468641CA400A4F1C044226802F081
:100550004042446B2468456B6D6844EA0514456B62
:10056000AD6844EA0524456BAD8944EA0544456B12
:100570002D8A44EA0554456B2D7D44EA0564456B9C
:10058000AD692C4322430468641CA400A4F1C04458
:100590002260C46AB4F5804F20D10468A400A4F19D
:1005A000C044D4F80431134C2340846B2468856B19
:1005B0006D6844EA0514856BAD6844EA0524856BD3
:1005C000AD8944EA0544856BAD692C432343046837
:1005D000A400A4F1C044C4F8043107E06FF07045F2
:1005E0000468A400A4F1C044C4F8045130BD000064
:1005F0008000F7FF0000F0CFF0B50A46002100238D
:10060000002400BF3DE0012505FA01F3156805EA65
:1006100003049C4234D105684F000326BE40B54315
:10062000056015794E00B5400668354305601579BB
:10063000012D02D01579022D16D185684F000326B1
:10064000BE40B543856055794E00B5408668354358
:100650008560456801268E40B543456045689679BA
:100660008E40B6B235434560C5684F000326BE4094
:10067000B543C560D5794E00B540C6683543C56001
:10068000491C1029BFD3F0BDF0B5002300244D074D
:10069000ED0E02FA05F3CE1000F1200555F82650B4
:1006A0004E07F70E0F26BE40B543CF1000F12006CF
:1006B00046F82750CE1000F1200555F8265045EA9F
:1006C0000304CE1000F1200545F82640F0BD41831B
:1006D000704701837047000070B5044680680028A9
:1006E00012D14FF4BA75284600F0DAF92A460021F3
:1006F000A06000F039FFA0680221C18401210464D8
:1007000001620249C0F8081170BD0000110700081D
:1007100010B590B0044620220A496846FFF750FD04
:1007200008492022203108A8FFF74AFD606B5DF8D8
:100730002010C4F8001108A951F82000C4F80401E1
:1007400010B010BDA04300082DE9F04FDFF828B12C
:1007500091B04FF0FF35DBF80030B3F9221006916D
:10076000DE69B3F92490F469A189814206D8E2894F
:10077000824203D3471AD4F8008012E0D4E9018101
:1007800000296FD00A8882426CD84D88854269D38F
:10079000801A82B2486800EB8200B0F90070B0F9AC
:1007A0000250781C5ED0307EA17C10FB01FA217CC7
:1007B000CDE90701B3F92A60304601F0AFFCC0B2C1
:1007C0000E90DBF8000007FB0A81A37C826B0127F7
:1007D000CDE90412CDE90273C069089AC17E807E1A
:1007E000CDE90001DDE90603494601F09BF9681CEB
:1007F00018D046F0020001F091FCDBF80000A37C69
:1008000005FB0A81826BCDE90273CDE90412C06950
:10081000089AC17E807ECDE90001DDE906034946E4
:1008200001F080F9DBF800005D46C069417E007E82
:10083000814214D9022E12D086F0040001F06EFC21
:100840002868C069027EC37E12FB0391437E857EC9
:10085000089A06984B4412FB050201F0C5FA0E985F
:1008600001F05CFCDBF80000627C418C11444184A7
:1008700011B0BDE8F08F00002C0100200448006892
:10088000C069C06909B1027C0A60407C7047000001
:100890002C010020022008807047C06982898A42AA
:1008A00002D8C2898A4210D2806880B102888A4206
:1008B0000DD843888B420AD3406800EB8100A0EB3F
:1008C0008200B0F90000002801DB01207047002001
:1008D000704700002DE9F043304C034687B0206894
:1008E0001946B0F92A60C069C06900F086F800288E
:1008F00050D041680088181A01EBC0053046AF7827
:1009000001F00CFC814620686A680123816BCDE907
:100910000237CDE90421C169CB7E8A7ECDE900236F
:100920000B7EB0F924102A78B0F9220001F0FAF811
:100930002068C069417E027E91421FD9C07E11FBB2
:1009400000F812FB00F7022E18D000F0E9FA064674
:1009500000F0CEFA00F0F2FB21682A78CB69B1F9F9
:100960002200DB7E12FB0302B1F9241001EB080325
:10097000394401F039FA304600F0E0FB484601F016
:10098000CDFB20686A78C369B0F922109B7E12FB08
:100990000311418407B0BDE8F08300002C01002062
:1009A00030B50F4C05460B4620682946C069C06922
:1009B00000F023F8002812D04168008824682A1A21
:1009C0000120E46900EBC200085CA47E10FB04F087
:1009D000002B04D011F8321011FB04F1196030BD66
:1009E0002C01002001200880704700B5C06900F08C
:1009F00004F8002800D0012000BD06E002888A42E9
:100A000002D842888A4202D280680028F6D1704714
:100A1000002801D002F044BB704738B50546FFF707
:100A2000F7FF040009D000F093F82A460021009057
:100A300000F09AFD684600F0A7F8204638BD000097
:100A4000024A106021F003005060704778D6012000
:100A500010B5002814D004460A48406B10F8341032
:100A600000290DD002290BD2042101EBC401415809
:100A7000486802F0CDFA2046BDE8104003F0FEB809
:100A800010BD0000B8D50120002805D0034AD16B65
:100A9000016001B14860D06370470000B8D5012003
:100AA0002DE9F041044602F0AFFF2848E41C24F091
:100AB0000305016C2D1DA94200D90D46C46B13E03E
:100AC00054F8042CAA420ED184B1216809B162689D
:100AD0004A60616809B122680A60C26BA24231D1E2
:100AE0002168C1632EE02468002CE9D18046816B27
:100AF000C0680F1857F8040C3E1A306838B100204F
:100B000003F026F957F8040C3E1A3068D0B9706823
:100B1000A84217DB3044441B3046241D03F0FEF886
:100B2000D8F80C10491BC8F80C10D8F81410294438
:100B3000C8F814107068401B02D0314602F068FA01
:100B400044F8045C2046BDE8F0810000B8D50120DF
:100B50000549CA69521CCA61496B01EBC0010A7898
:100B6000521C0A7000F028B8B8D501200549102899
:100B700005D94A68B0EB520F02D3500800E01020AC
:100B80008860704778D601200A4902684B6B52F89A
:100B9000082C03EBC2021378022B03D3CB690BB1F1
:100BA0005B1ECB611178491E11700021016008465F
:100BB00070470000B8D50120002806D00349042260
:100BC00002EBC000496B085808307047B8D50120C7
:100BD00010B5C2B2CBB2D21A00D5524293B25B4327
:100BE000C0F30722C1F30724121B00D55242000CA8
:100BF00092B2A0EB114002FB023200B2002801DAEF
:100C0000404200B280B200FB002010BD10B50021B0
:100C1000084600F0ADF943F6FF725042BDE81040BF
:100C200013460146AFF300802DE9FC4107461C4600
:100C300015460E46042001F071FA80461148C0683E
:100C4000C16C006D0F4406440D440444ADF80070BF
:100C5000ADF80450ADF80260ADF80640684602F009
:100C600061F807E023462A463146384601F0BCF8D1
:100C700002F01AF80028F5D1404601F04FFABDE81D
:100C8000FC810000200100202DE9F0411C461646A1
:100C90000D460746022B02DB0020BDE8F0811C2038
:100CA000FFF7FEFE0028F8D00DB105610AE0094A01
:100CB00052F8241009B905E011460A68002AFBD150
:100CC0000969016184618682002101604160C0E997
:100CD0000217E2E74401002070B51D46FFF7D4FF7C
:100CE000040009D000F00EF8E068006820B903485D
:100CF000006800EB85008465204670BD2C01002053
:100D0000FFF7C2BE70B590B38269022A30DA1E4C7A
:100D100054F8221019B944F8220032E019464B6801
:100D2000002BFBD106E0CB68C5681B682D68AB4281
:100D300003DD09680029F6D11AE0C1B1CB68C668A5
:100D40001B683668B3420CD1838A012B05D008E0BA
:100D50001946DB681B68AB4203DB0B68002BF7D13D
:100D600029B14B6833B118604A68426004E0FFE77C
:100D7000012070BD44F822004860884200D1002163
:100D80000160002070BD0000440100200A4A816912
:100D900052F82130834202D1036842F82130416881
:100DA00009B102680A60016809B142684A6000211D
:100DB000016041607047000044010020022801DB0F
:100DC00000207047054951F8200004E0C168096817
:100DD0000029F6D000680028F8D1704744010020AF
:100DE0002DE9FC4706005BD000F0A2F83B4C8146A1
:100DF0002068B0F9228000F0A3F8216807468A8CA9
:100E0000D01B888441E000BF47F6FF71304600F0F8
:100E1000C3FA82460146304600F094FA216805463E
:100E200091F82C0000F0030001283FD0022839D0AF
:100E300000204A8C101A4884ADF800006A1E104445
:100E4000ADF80400888CADF80200A9F10101084456
:100E5000ADF806006A465146304600F01BFA21689C
:100E6000BDF8020088845146304600F0BBF90644C4
:100E700030780A281CD00D281AD0BDF8000021684F
:100E800028444884307818B1761C30780028BBD1CB
:100E90002068818C39448184818D21F00301818512
:100EA000BDE8FC8705EBD5704010C2E72846C0E7D7
:100EB000206890F82C1001F0030101290BD00229C1
:100EC00009D0018C418431780A29DBD1828C02EB74
:100ED00009018184D6E7A0F82280F4E72C010020E4
:100EE000024B1B6859849A84FFF77ABF2C010020BB
:100EF00010B500F0A9FFBDE8104001F01BB80000DC
:100F000002490968C9694A68002110472C0100207C
:100F1000024A1268D2695268104700002C01002072
:100F200010B500F099FFBDE8104001F003B80000D3
:100F300002480068C069407E704700002C01002014
:100F40000A490020096891F82C2002F00C02042ABA
:100F500007D0082A01D00C2A02D1C869007E4008B7
:100F60007047C869007E401E704700002C010020B9
:100F700070B50D4602F0C4FC0446284602F0C8FCD9
:100F8000204370BD2DE9F0411948016821F00101AD
:100F900001601848012585601749016000681749FC
:100FA000884200D0FEE700F05BF9154E2E2030702D
:100FB00000F055F9134802F0EFFC03F08BF80746F8
:100FC00000F07EFF10B100F085FF38B900F088FF17
:100FD000044600F07BFF214601F09AF80021084604
:100FE00000F0BEF801F0DAFC75703846BDE8F0811B
:100FF000002000E000300240C2A507F4CDB5E8B5FE
:101000002001002084D6012038B5040018D00D48F6
:101010000068006EA04201D100F06DF82046FFF795
:1010200097FD0090406908B100F0F0F80098006862
:10103000FFF766FE6846FFF7A7FD2046FFF708FDAD
:1010400038BD00002C01002010B5002821D009B3C4
:101050000AB3B1F90040B2F900309C4200DA2346ED
:101060000380B1F90240B2F902309C4200DA234613
:101070004380B1F90440B2F904309C4200DD2346BC
:101080008380B1F90610B2F90620914200DC1146C6
:10109000C18010BD11460A6802604968416010BDF8
:1010A00000280BD003880B44038083881944818077
:1010B000418811444180C1881144C1807047B0F912
:1010C0000220B1F906309A4213DCB1F90220B0F9DE
:1010D00006309A420DDCB0F90020B1F904309A4292
:1010E00007DCB1F90010B0F90400814201DC0120F5
:1010F00070470020704710B500F0A0FF01F056F8CF
:10110000BDE8104001F020BB70B5094D0446022C2B
:101110002868467C09D22046FFF750FE28B128688F
:101120004474FFF7E8FF03480460304670BD0000D8
:101130002C010020A401002000F0A0BF00F0D6BFC9
:1011400001498860704700002001002003490968B8
:10115000CA6900B1C8611046704700002C01002028
:10116000094A30B41080094A1180094A1268537C38
:10117000084A52F82330DA68146A0A46A44601463F
:1011800030BC184660470000540100205601002082
:101190002C0100204401002002480068002800D0F3
:1011A000004770472802002002498A6802B9886017
:1011B000FFF7F2BF180200202DE9F041084E044667
:1011C00005683068016828468847074630684168E6
:1011D00028468847284420603846BDE8F081000052
:1011E000300100202DE9F0410C4606460025064F4F
:1011F00005E0386841683046884706440544641E67
:10120000F7D22846BDE8F0813001002038B5054608
:10121000FFF79EFC00908189491E0CB284816846CC
:10122000FFF7B2FC002C02D12846FFF711FC38BDB5
:1012300010B54FF44841002003F058F804464FF42D
:1012400048412046FFF7FCFB8020FFF78FFC024857
:10125000FFF776FF10BD0000EC4F000870477047A5
:101260000A4810B5816900290ED101218161FFF77B
:10127000DFFF00F0ADFF054905481C310860BDE8FF
:101280001040084600F068B910BD000020010020A1
:10129000C93B00087CB5064628480D46006868B181
:1012A000002001F03FFD06E06A462946304601F085
:1012B000CBFF01F0F9FC0028F6D17CBD106800904E
:1012C0001F4C506801902268BDF8000032F84C1F96
:1012D0000844ADF80000BDF8020091880844ADF85C
:1012E0000200BDF8040011880844ADF80400BDF800
:1012F000060091880844ADF80600684601F012FD2A
:101300000EE000BF2068BDF800106A464184BDF8B9
:10131000021081842946304601F096FF01F0C4FC9A
:101320000028EFD1206830F8221F428D891A0180F1
:101330004188C28D891A41807CBD00005001002087
:101340002C01002073B5124A01A900981268904739
:1013500000240090C8B10F4900250968C96949698E
:1013600059B10A684AB1019990477CBD6846FFF7B8
:1013700023FF0546FFF7C4FD04440198401E019079
:10138000F4D5284600F024F8044420467CBD000033
:10139000140200202C01002073B50D460098002493
:1013A00090B10A490968C969496959B14A684AB19D
:1013B000294690477CBD6846FFF7FEFE20B10A280B
:1013C00002D0641CAC42F6DB20467CBD2C01002020
:1013D00038B5002469460094FFF79AFD00998142D0
:1013E00000DD0C1A204638BDB0F90030B1F90020FC
:1013F000934200DA0280B0F90230B1F90220934240
:1014000000DA4280B0F90430B1F90420934200DDE3
:101410008280B0F90620B1F906108A4200DDC18051
:10142000704770B5B1F90040B2F900309C4200DD60
:1014300023460380B1F90250B2F90240A54200DD13
:101440002C464480B1F90460B2F90450AE4200DA8F
:1014500035468580B1F90610B2F90620914200DBCD
:101460001146C1809D4201DBA14201DA002070BD1E
:10147000012070BD014602480068407C00F002B8BF
:101480002C0100202DE9F843012689460446022854
:101490005DDA304F7A6802B190472E4D5FEA09005D
:1014A00005F1100532D0012803D0B9F1020F4ED159
:1014B00018E055F8240088B92046FFF77FFC00901B
:1014C00018B3C0680D21426A6846904702003ED0BA
:1014D00049460098904755F824000026401C45F8DE
:1014E000240034E02046FFF769FC009068B1C06832
:1014F0000D21426A68469047040028D0386800B140
:10150000804749460098A047002620E055F824006F
:10151000A846012812D12046FFF750FC009068B180
:10152000C0680D21426A68469047050006D03868B9
:1015300000B1804749460098A847002658F8241073
:1015400009B1012200E00022891A48F8241030462F
:10155000BDE8F883FC01002002494A694260486105
:10156000704700002001002010B502E000F8011BC8
:10157000521E0AB18307F9D1930818D001EB014438
:1015800002F0030204EB042406E010C01B1F10C08D
:1015900040F8084B40F8044C042BF6DA01E010C088
:1015A0005B1E002BFBD102E000F8011B521E002A3B
:1015B000FAD110BD00BFFEE710B5044624B10121E9
:1015C0000448FFF786F803E001210248FFF77FF89F
:1015D00010BD00000004024001B502E00098401E6A
:1015E000009000980028F9D108BD00B597B00121FE
:1015F000084600F01DFE042001900390800607902D
:10160000002002900490059006900420089000208D
:10161000099008200A9010200B9000200C900E904A
:101620000F9010904FF48050119000201290139062
:10163000149001A81590169008A8FEF74BFF012101
:101640000420FEF72DFF17B000BD00001CB50121DE
:101650001A2000F0DDFD00208DF8060001208DF835
:10166000070002208DF8040003208DF805004FF4D8
:101670008040009069467F48FEF7BEFF0C220E2195
:101680007C48FFF701F84FF4004000906946794824
:10169000FEF7B2FF0C220F217648FEF7F5FF01207E
:1016A000009069467348FEF7A7FF0C22002171489D
:1016B000FEF7EAFF0220009069466E48FEF79CFFA5
:1016C0000C2201216B48FEF7DFFF80200090694665
:1016D0006948FEF791FF0C2207216748FEF7D4FF07
:1016E0004FF48070009069466348FEF785FF0C2236
:1016F00008216148FEF7C8FF4FF40070009069466A
:101700005D48FEF779FF0C2209215B48FEF7BCFF1C
:101710004FF48060009069465748FEF76DFF0C2239
:101720000A215548FEF7B0FF4FF40060009069466B
:101730005148FEF761FF0C220B214F48FEF7A4FF32
:101740004FF48050009069464B48FEF755FF0C223D
:1017500011464948FEF798FF4FF400500090694643
:101760004548FEF749FF0C220D214348FEF78CFF48
:101770004FF48040009069463F48FEF73DFF0C2241
:101780000E213D48FEF780FF4FF40040009069466F
:101790003948FEF731FF0C220F213748FEF774FF5E
:1017A0004FF48070009069463248FEF725FF0C2206
:1017B00008213048FEF768FF4FF40070009069463A
:1017C0002C48FEF719FF0C2209212A48FEF75CFF7E
:1017D0004FF48060009069462648FEF70DFF0C220A
:1017E0000A212448FEF750FF102000906946214846
:1017F000FEF702FF0C2204211E48FEF745FF2020C1
:10180000009069461B48FEF7F7FE0C220521194897
:10181000FEF73AFF8020009069461648FEF7ECFE7E
:101820000C2207211348FEF72FFF4FF400600090B1
:1018300069461048FEF7E0FE0C220B210D48FEF72A
:1018400023FF01208DF8040000208DF80600012000
:101850008DF8070002208DF80500082000906946E9
:101860000448FEF7C9FE0120009069460348FEF7D0
:10187000C3FE1CBD000C02400010024000040240E8
:1018800010B5FFF7E3FEFFF7B0FE0120FFF794FE6F
:1018900000F01CF900F002F810BD000010B5CF20D8
:1018A00000F028F9002000F029F9812000F026F945
:1018B000302000F023F9ED2000F01CF9642000F046
:1018C0001DF9032000F01AF9122000F017F9812009
:1018D00000F014F9E82000F00DF9852000F00EF971
:1018E000102000F00BF9782000F008F9CB2000F070
:1018F00001F9392000F002F92C2000F0FFF8002057
:1019000000F0FCF8342000F0F9F8022000F0F6F8BE
:10191000F72000F0EFF8202000F0F0F8EA2000F0C7
:10192000E9F8002000F0EAF8002000F0E7F8B12024
:1019300000F0E0F8002000F0E1F81B2000F0DEF8F5
:10194000B62000F0D7F80A2000F0D8F8A22000F066
:10195000D5F8C02000F0CEF8352000F0CFF8C12037
:1019600000F0C8F8112000F0C9F8C52000F0C2F856
:10197000452000F0C3F8452000F0C0F8C72000F073
:10198000B9F8A22000F0BAF8F22000F0B3F8002075
:1019900000F0B4F8262000F0ADF8012000F0AEF819
:1019A000E02000F0A7F80F2000F0A8F8262000F0B3
:1019B000A5F8242000F0A2F80B2000F09FF80E20DC
:1019C00000F09CF8092000F099F8542000F096F8F7
:1019D000A82000F093F8462000F090F80C2000F0CA
:1019E0008DF8172000F08AF8092000F087F80F2002
:1019F00000F084F8072000F081F8002000F07EF865
:101A0000E12000F077F8002000F078F8192000F0CD
:101A100075F81B2000F072F8042000F06FF8102019
:101A200000F06CF8072000F069F82A2000F066F852
:101A3000472000F063F8392000F060F8032000F040
:101A40005DF8062000F05AF8062000F057F8302024
:101A500000F054F8382000F051F80F2000F04EF854
:101A6000362000F047F8A82000F048F82A2000F0BF
:101A700041F8002000F042F8002000F03FF800207C
:101A800000F03CF8EF2000F039F82B2000F032F89D
:101A9000002000F033F8002000F030F8012000F0C2
:101AA0002DF83F2000F02AF83A2000F023F85520C6
:101AB00000F024F8112000F01DF80348FFF78CFD1A
:101AC000292000F017F810BDFCBF020010B5082156
:101AD0000648FEF7FCFD0648FFF77EFD0821034897
:101AE000FEF7F7FD0248FFF777FD10BD000C02403E
:101AF000FCBF02004FF0C0410880704701490880D8
:101B000070470000000002600449054A0968497CEA
:101B100052F8211009690968084700002C010020CB
:101B2000440100202DE9F04F05468DB07B48DDF8DB
:101B300060901A9C00681E4617464FF0000A78B164
:101B40001B9B199ACDF808900593CDE90324DDE994
:101B50001623CDE90023046833463A46284680E040
:101B6000DDE9160201EB060805EB070C1043A8F1AE
:101B70000108ACF1010C012806D0C9F1080005905C
:101B8000002002910990C6E065480268B2F90A3067
:101B9000581A002806DD361A002E63DD1946199BF7
:101BA00000FB0344B2F90E00A8EB0000002802DDA0
:101BB000361A002E56DDB2F90C00ACEB00000028FE
:101BC00000DD3F1AB2F908300020AB4235DD581B6A
:101BD0003F1A4B46B9F1080F26D006DC012B0BD07B
:101BE000022B11D0042B28D116E0102B1ED0182B5D
:101BF0001FD0202B21D11CE020F0070304EBE004D0
:101C00001D4400F0070018E020F0030304EBA004DB
:101C10001D4400F0030010E020F0010304EB600419
:101C20001D4400F0010008E0044404E004EB40041B
:101C300001E004EB800405440020002F12DD1B9B13
:101C4000DDF864C0CDE90403CDE90069CDE902C443
:101C5000527C34483B4650F82200C26854680A4619
:101C60002946A0470DB0BDE8F08F179902980844A7
:101C70000C902B49401E00900A68B2F90A3083424A
:101C800041DCB2F90E10029881423CDB4FF0000BB0
:101C9000D84603950A9434E0BBF1000F05D10A98A9
:101CA0004FF0080B10F801AB0A900599ABEB090B4C
:101CB0003AFA01F00AFA09F101F0FF0A04D11849D1
:101CC0000968097C890716D415490968C96B0A682F
:101CD0000B921B9A0AB152F82000086016990398DB
:101CE000009B4218521E029900F07EF80C490B9896
:101CF0000968C96B08600399169808F1010808443F
:101D00000390B845C8DB0998401C09900C980290D4
:101D1000199804440998B042A7DBA3E750010020BA
:101D20002C01002044010020F0B40C46124909683F
:101D3000B1F90A30A3421CDCB1F90E30A34218DB22
:101D4000B1F90830834200DD1846B1F90C309342F6
:101D500000DA1A4682420CDB4B7C084951F82350CA
:101D600013462246E9688E6801462846B446F0BC10
:101D70006047F0BC704700002C01002044010020A7
:101D80000A46174930B40968B1F90A30934225DC94
:101D9000B1F90E30934221DBB1F9083083421DDCEA
:101DA000B1F90C30834219DB0B7C0E4CDB0709D0F8
:101DB000497C54F82130D968CC690146A44630BC2E
:101DC00018466047CB6B497C1B6854F82140E1689A
:101DD0008D6901462046AC4630BC604730BC704738
:101DE0002C0100204401002038B5134C2468B4F9BC
:101DF0000850854200DD2846B4F90C50954200DABF
:101E00002A46824217DBB4F90A508D4200DD29468A
:101E1000B4F90E509D4200DA2B468B420BDB009347
:101E2000647C064B53F82440E3681D6913460A4658
:101E300001462046A84738BD2C010020440100205F
:101E4000082101F0C1BC000002480068806B0068F6
:101E5000704700002C01002002480068C06B006839
:101E6000704700002C010020024809210068407CD6
:101E700001F0AABC2C010020092101F0A5BC70B51D
:101E800000252C462046FEF799FF00B16D1C641C0E
:101E9000022CF7DB284670BD02480068407C00F049
:101EA00003B800002C01002010B5FEF787FF0028C2
:101EB00005D0C168CA6ABDE810400221104710BDB4
:101EC000014800687047000060010020012001F017
:101ED000E9BC000001484068704700006001002034
:101EE000022001F0DFBC00F001B800002DE9F04154
:101EF000002809D0876837B10D4E716819B10468A0
:101F0000B4F5807F02DD0020BDE8F08130688442B6
:101F100000DD0446002507E057F82500FFF7F4FD33
:101F2000716841F825006D1CA542F5DB7068EBE790
:101F3000880100200449054A0968497C52F82110AB
:101F400009694968084700002C010020440100206D
:101F500010B500F01F01074A074BC0F34514C0F34A
:101F6000C4201B5D105C515C00EB032000EB0140C2
:101F700010BD0000C8620008E862000810B5FFF755
:101F80007FFC4FF47A70FEF75FFA10BD10B50A4C73
:101F9000606860B920688000FEF782FD606040B133
:101FA00004F10801054808600846FFF7D5FA00204B
:101FB00010BD012010BD000088010020F53B000885
:101FC0002DE9F047FFF75BFF07460024DFF860804C
:101FD0002AE02046FEF7F2FE28B3D8F8000090F879
:101FE000119044742046FFF72BFF082817DC114896
:101FF000114950F824000069884210D02046FFF7AC
:102000003BFF0646002508E0E8B2FFF793FF0246D3
:10201000E9B2204600F088F86D1CB542F4DBD8F830
:10202000001081F81190641CBC42D2DBBDE8F0873F
:102030002C010020440100205C6C000810B50D4C00
:102040000D492068407C51F8200048B1C16811B1A9
:102050000968042901D00068F7E708B1FEF796FE89
:1020600020680021016600F108014161BDE81040CF
:1020700000F02EB82C01002044010020014909681D
:102080004968084784010020044909680A7C52070E
:1020900001D5C96B00E0896B086070472C010020F6
:1020A0007CB5094C05462068417C084850F8210061
:1020B000C1680A6B6946904720686A46294608301D
:1020C000FFF7AFF97CBD00002C0100204401002087
:1020D0000448016804484A7C083150F82200C2686C
:1020E000126B10472C0100204401002001490968AF
:1020F0000968084784010020044909680A7C5207DE
:1021000001D5896B00E0C96B086070472C01002085
:10211000014AC2E9000170476001002001490968D5
:102120008968084784010020F8B515460E46012449
:10213000FEF744FE009058B1C0681021426A68461C
:102140009047030004D02A4631460098984700245F
:102150002046F8BDF8B515460E460124FEF72EFEC2
:10216000009058B1C0680B21426A6846904703004E
:1021700004D02A4631460098984700242046F8BDEE
:10218000F8B515460E460124FEF718FE009058B12A
:10219000C0680A21426A68469047030004D02A4674
:1021A00031460098984700242046F8BD10B5074CEA
:1021B0002068006BFFF7A8FCFFF79EFF2068406BCC
:1021C000FFF7A2FCBDE81040FFF75EBF2C01002026
:1021D00010B500231A4608490848FEF77DFDF02295
:1021E0004FF4A0710020FFF7B5FFF0224FF4A0716B
:1021F0000020FFF7C5FF10BD544300086C430008E2
:1022000003460020704700BFFEE77047704700009C
:1022100029B1064A12680243044B1A6004E0034ADB
:1022200012688243014B1A60704700003038024048
:1022300029B1064A12680243044B1A6004E0034ABB
:1022400012688243014B1A60704700003838024020
:1022500029B1064A12680243044B1A6004E0034A9B
:1022600012688243014B1A607047000044380240F4
:10227000F0B5002100220024022500260223324F5F
:102280003F6807F00C0121B1042905D0082937D196
:1022900005E02E4F076036E02D4F076033E02A4FF0
:1022A0003F1F3F68C7F38056274F3F1F3F6807F027
:1022B0003F036EB1264FB7FBF3F7DFF88CC0ACF1EC
:1022C000040CDCF800C0CCF3881C07FB0CF40CE019
:1022D0001E4FB7FBF3F7DFF870C0ACF1040CDCF86D
:1022E00000C0CCF3881C07FB0CF4174F3F1F3F685E
:1022F000C7F301477F1C7D00B4FBF5F7076002E0E0
:10230000124F076000BF00BF0F4F3F6807F0F0019A
:102310000909104F7A5C0768D74047600A4F3F6849
:1023200007F4E051890A0B4F7A5C4768D740876011
:10233000054F3F6807F46041490B064F7A5C4768D8
:10234000D740C760F0BD0000083802400024F40008
:10235000001BB7001400002001490860704700000E
:10236000382C014001460020034A12680A400AB195
:10237000012000E000207047342C014010B500F02F
:1023800025F810BD29B1064A12680243044B1A60B1
:1023900004E0034A12688243014B1A607047000050
:1023A0003C2C014010B50748006800F0C05040B117
:1023B0000120054908604FF0C25102485830FDF72E
:1023C0008FFF10BD006402403800002010B54FF4AC
:1023D0008070FFF7C7FF50B10020254908704FF407
:1023E0008070FFF7B9FF01202249086037E0022022
:1023F000FFF7B8FF30B10220FFF7AEFF02201C4903
:1024000008702CE00820FFF7ADFF30B10820FFF77F
:10241000A3FF04201649087021E02020FFF7A2FF47
:1024200030B12020FFF798FF06201149087016E010
:102430001020FFF797FF30B11020FFF78DFF052028
:102440000B4908700BE04FF40070FFF78BFF30B1C1
:102450004FF40070FFF780FF072005490870002146
:102460004CF23A30FFF78EFF0148007810BD0000B3
:102470003000002034000020704700000CB5002020
:10248000019000903448006840F480303249086080
:1024900000BF3148006800F4003000900198401CF3
:1024A0000190009818B90198B0F5A04FF1D12A48D1
:1024B000006800F4003010B10120009001E000201D
:1024C00000900098012846D123484030006840F031
:1024D00080502149403108602048006840F4404065
:1024E0001E4908601C48083000681B490831086014
:1024F0000846006840F4004008600846006840F460
:10250000A05008601648091F0860081F006840F0C6
:102510008070091F086000BF0F48006800F000705D
:102520000028F9D040F205700E4908600A480830CA
:10253000006820F003000849083108600846006878
:1025400040F00200086000BF03480830006800F057
:102550000C000828F8D10CBD003802400070004083
:102560000C544007003C024010B500F069F810BD63
:1025700030B515480068154AB0FBF2F1481EB0F1BD
:10258000807F01D301201BE0481E4FF0E022506104
:1025900050170F22002807DA13071D0E0C4B00F00E
:1025A0000F04241F1D5503E013071C0E094B1C5478
:1025B00000BF00204FF0E022906107201061002052
:1025C00008B100BFFEE730BD00000020A08601007A
:1025D00018ED00E000E400E010B51548006840F494
:1025E0007000134908601348006840F00100114969
:1025F000086000200F49083108600E4800680E4945
:1026000008400C4908600D48091D0860081F006853
:1026100020F48020091F0860002006490C31086062
:10262000FFF72CFF4FF0006001498039086010BDB2
:1026300088ED00E000380240FFFFF6FE1030002475
:102640000448006820B103480068401E0149086042
:1026500070470000BC00002021B1828942F4005282
:10266000828104E082894DF6FF731A4082817047AF
:102670002DE9FF4705460E460024A14600BFA046AF
:10268000B08900B100BF2C8A24F44054F088044380
:102690002C82AC8941F20C608443B08831890843B4
:1026A000718908430443AC81AC8A24F44074B08936
:1026B0000443AC826846FFF7DBFD2048854202D028
:1026C0001F48854202D1DDF80C9001E0DDF808904A
:1026D000A88900F4004040B109EBC90000EB0910E3
:1026E00031684900B0FBF1F707E009EBC90000EBE6
:1026F000091031688900B0FBF1F76420B7FBF0F0F6
:1027000004012009642101FB1078A88900F400402D
:1027100040B1322000EBC800B0FBF1F000F0070040
:10272000044308E0322000EB08106421B0FBF1F014
:1027300000F00F0004432C81BDE8FF87001001402A
:102740000014014000BFFEE702490120096881F83A
:10275000540070472C0100202DE9F0418AB004009C
:1027600036D0FEF7F5F90190D0E90012CDE9041258
:10277000876A056A01A8FEF707FA204600F0B4FA56
:10278000060025D0204600F002F98046B80704D59F
:102790002A46414604A800F0F8FB2046FEF7D8F987
:1027A00001904046FEF7D4F906903046FEF7D0F986
:1027B000039005620698019AC1691162C46101A87B
:1027C000FEF7E2F906A8FEF7DFF903A8FEF7DCF949
:1027D0000AB0BDE8F08100002DE9FC5FDFF834A10C
:1027E0000746DDE90C54DAF81800DDF83CB09846ED
:1027F00091460E4604434DB9BAF8020048B3464824
:102800000AF144010068407C51F82050681C0ED049
:10281000FDB12846FEF79CF90190B0F90010B0F91F
:1028200002200F441644B9F1000F02D006E0002543
:102830000FE0B0F90430591A01F10109B8F1000FA5
:1028400004D1B0F90600801A00F1010801A8FEF7D2
:102850009BF90BF12C00FEF7E0F85FEA000B56D075
:10286000BAF80200401CAAF802005846FEF770F9B8
:102870000090078007EB09014680491E818006EB26
:102880000801491EC1800E990161244A816A2240D3
:10289000114381626846FEF777F9DAF810005E4668
:1028A00050B1FEF789F907463046FEF785F9014633
:1028B000786948617E6101E0CAF810B0294658463F
:1028C00000F0A8FAA00602D5584600F03FF9E0074C
:1028D00004D0DAF82410491CCAF82410600602D586
:1028E0005846FFF739FFA0070DD55846FEF730F9D7
:1028F0000090816A41F0020181626846FEF744F966
:10290000584600F0F0F80121584600F079FB58468F
:10291000BDE8FC9F980100202C0100209F3F3F0054
:1029200010B50446C168D4E90020172A0DD004DC94
:102930000E2A0CD0142A07D104E0222A0CD0282A0F
:1029400002D10CE000F08BF90020E06010BD2146C0
:10295000BDE8104000F018B96FF07040F5E7BDE831
:10296000104000F0C0B80000034804490068407CF3
:1029700051F82000704700002C010020DC010020ED
:1029800010B5002802D0FEF717F9C06910BD10B5C8
:10299000002802D0FEF710F9806910BD2DE9FF5F15
:1029A0002C4D6878002853D100272B482F616F6386
:1029B0000068DFF8A8903C464764AF806F804FF016
:1029C000020A4FF0FF3B43F6FF7805F1440620462C
:1029D000FEF7F4F998B1CDE90297CDE900BA0021EC
:1029E000424643460846FFF7F7FE1A4A46F82400D7
:1029F0004C326FF0704142F8241000F074F8641CFF
:102A0000022CE4DB164FDFF85C80DFF85C900024DA
:102A100007EBC40000F0ECF808EBC40000F0E8F8A5
:102A200009EBC40000F0E4F8641C022CF0DB306811
:102A300000F08CF8FFF788FE0120064968703C31F1
:102A40000A48086004B00846BDE8F05FFEF784BDA0
:102A5000BDE8FF9F980100202C0100208540000860
:102A60007CD701208CD701209CD70120093C00088D
:102A700070B586B00D4606002CD0FEF769F80090C0
:102A8000846AA10723D5D0E90010CDE90110E00345
:102A900002D5304600F014FA5DB1286803906868EA
:102AA000049003A9009800F0ABF803A901A8FEF771
:102AB0009BFC314601A800F0ABF840B140F60100A4
:102AC0000440012C08D001A9304600F0F5F9684611
:102AD000FEF75AF806B070BD0098026A816901A835
:102AE00000F053FAF3E70021FFF7C2BFFEB5154629
:102AF0000E4604001CD0FEF72BF80246009090F81A
:102B00002800800711D5314601A8FEF78AFC60B184
:102B10006846FEF739F82A4601A9204600F0C8FFAA
:102B20002046FFF72DFF04460CE06846FEF72CF820
:102B3000FEBD2A4601A92046FFF7D8FF2046FEF732
:102B40003BF8046A002CF4D1FEBD000070B50C4DBA
:102B500004002868866C01D10A490C698464204607
:102B600000F026FAFFF7B4FA2046FEF725F82968A8
:102B7000B0F90020CA64B0F902000865304670BDA3
:102B80002C0100209801002070B50C00054609D0EA
:102B9000FFF7FDFE002805D02146A560BDE8704086
:102BA00000F010BA70BD00000EB50E48006890F835
:102BB000541009B10C4811E0806CFDF7C9FF00907A
:102BC000D0E90010CDE901106846FDF7DDFF0748A8
:102BD000816A11B101A800F01BF801A801F018F9F1
:102BE0000EBD00002C010020FCD601209801002021
:102BF00002490A680260086070470000AC010020CA
:102C00000B46B0F90220B0F900101846FEF748BA9A
:102C100038B50C4605462046FDF79AFF0146009060
:102C200090F82800800703D46846FDF7ADFF12E056
:102C30002846FEF7D9FB0098806920B10446684613
:102C4000FDF7A2FFE7E76846FDF79EFF204600F08C
:102C5000EBFA002801DA002038BD012038BD38B574
:102C60000C4600280AD0002C08D0FDF771FF214641
:102C7000009000F004F86846FDF786FF38BD00229A
:102C80004A800A8082880388D21A8A80C288408853
:102C9000101AC880704710B5FFF779FE002802D0DF
:102CA000FDF78AFFC06910BD0D4810B5006890F8A7
:102CB0005400002806D00B4C6069012803DD401E3B
:102CC0006061002010BD2069401C206100F06EFB97
:102CD00018B1FFF769FF012010BD6069EFE7000040
:102CE0002C010020F4D6012070B50546FFF7D3FF74
:102CF00008E0AC4201D1002406E0FDF75DFF006A68
:102D0000A84201D00400F4D1204670BD10B504469D
:102D1000FDF752FF80690028F9D12046BDE8104038
:102D200000F082BAF0B5384E074687B0306890F8A8
:102D3000541041B1354C6169491C6161012905DDBF
:102D4000012007B0F0BDFFF72FFFF9E7806CFDF71A
:102D5000FFFE2F4D4FF0FF3100902161297821B106
:102D600081680291C068039007E090F828108907F5
:102D70003CD5D0E90010CDE902101FB1394602A8B8
:102D8000FEF732FB3068406C78B3009804903068EE
:102D9000406C0168059140680690A86A30B104A8AB
:102DA000FDF7F2FEA86AFDF7D3FE049005A904988A
:102DB000FFF726FF05A902A8FEF716FB0DF110008C
:102DC000FDF7E2FEA96A19B102A8FFF721FFB0B131
:102DD0003068816C02A8FFF71BFF80B1DDE90201BA
:102DE000C4E90001FFF760FFABE706E06069401E41
:102DF00060616846FDF7C8FE04E06846E0E7606988
:102E0000401E606100209CE72C010020F4D60120C8
:102E100098010020FEB50D00044647D0FDF798FE4E
:102E200000900021856101622846FDF791FE00991E
:102E30000290C56991F8281001F008062DB12846C6
:102E4000FDF786FE019036B115E0C4616846FDF7D6
:102E50009BFE02A828E090F8280000070BD50098F8
:102E600005620298C4616846FDF78EFE02A8FDF770
:102E70008BFE01A818E002A8FDF786FE01A8FDF769
:102E800083FE2846FDF798FE11E004620BE0284619
:102E9000FDF792FE5EB990F82810090707D5019852
:102EA0000462009805626846FDF76EFEFEBD019063
:102EB000056A002DEBD1E8E7202200F0F9BD000003
:102EC00038B5040022D0FDF743FE009090F828109A
:102ED000890718D5406A40B10D49C96AA14204D09A
:102EE000FEF792F80099002048622046FFF748FD5F
:102EF000044606E02046FFF7E3FF2046FDF75CFEB0
:102F0000046A002CF6D16846FDF73EFE38BD00008D
:102F1000980100202DE9FF419846164607460D000E
:102F200031D00846FDF714FE0090846A0246A007DF
:102F300026D5394601A8FEF774FA08B340F6010019
:102F40000440012C07D0424601A9284600F0B0FDFC
:102F50000098C46912E000984346026A816901A89A
:102F6000FFF7D8FFF4E7B4420AD0424601A9204651
:102F7000FFF7BCFD2046FDF71FFE046A002CF2D1CE
:102F80006846FDF701FEBDE8FF812023FFF7C2BFC1
:102F9000B0F90010B0F90420914205DCB0F902103C
:102FA000B0F90600814201DD002070470120704722
:102FB00010B5FFF7ABFE002803DBBDE81040FEF7BD
:102FC000A3B810BD70B50D4C06460D4620681428F8
:102FD0000DDA3046FDF7F0FD01696E6041B1206801
:102FE000401C2060284688472068401E206070BD35
:102FF0002846BDE87040FFF793BC00003402002073
:103000001FB5CDE900106946FFF7DCFF1FBD0000CA
:103010002DE9F041214D0C460646E968A86B0844AD
:10302000A119401E814206D80846096819B94168AD
:103030000E4400F073FEA86BA0420AD254F8040CB0
:10304000271A386828B978680644384600F066FEC2
:103050003C46304600F036FC10281CD205EBC00779
:103060003246002120467B6C00F0E3FF57F8440F06
:10307000083400B144602060002060603C60286833
:103080003044286095F8291029B9E968081AA96818
:10309000814200D2A8603046BDE8F081B8D5012059
:1030A0002DE9F041054600F0AFFC2A48046CAC4223
:1030B00002D8ED1C25F00304804600680C34A042C1
:1030C00002D20020BDE8F08100F0B8FD071EF9D063
:1030D000204600F0F7FB414630E000BF01EBC002A4
:1030E000526C52B3956845B36B68A34206D2AA6886
:1030F0001AB395680DB36B68A342F8D3D8F84000B3
:10310000191B0C301E46814200D23446284600F07E
:1031100005FE0421D8F8340001EBC7010023455017
:1031200022463946284600F084FFA64203DD2919CD
:10313000301BFFF76DFF3846C4E7401C1028CDD385
:10314000204600F005FE0028C2D0384600F096FD6B
:10315000B7E70000B8D5012001207047F0B40F4C4C
:10316000246814B1A446F0BC60470D4DDFF834C0AC
:1031700010C855FA84F63778C4F30726C4F3074419
:103180001CF806602C5D521E04EB461404EBC724A9
:103190000C801944ECD1F0BC7047000058010020AD
:1031A00028630008286400082DE9F0478146FEF7EF
:1031B0005BFE4FF0000807466FF07F444546FEF780
:1031C0006BFE060018D000BF56F82510494502D105
:1031D0002846BDE8F0876D1CBD42F5DB5FF00005B9
:1031E000484656F82510FDF7F3FCA04201D20446EC
:1031F000A8466D1CBD42F3DB4046EAE710B5084A1D
:1032000052FA80F1074BC0F30724C0F307401B5D5F
:10321000105C097800EB431000EBC12010BD0000EA
:1032200028630008286400080146064A002000BF01
:1032300052F820308B4204D0401C0228F8DB4FF0BB
:10324000FF307047DC010020F7B51546184A01A988
:10325000009812689047174C00902068406920B190
:103260002946FDF72CFF002821D00120FEF702F9A6
:103270002068C069406920B18268DDE9000190479B
:1032800012E00D4D0CE06846FDF796FF06462068FB
:10329000C069016830468847296809B130468847C7
:1032A0000198401E0190EED50020FEF7E3F8FEBD28
:1032B000140200202C0100204C0100202DE9F043D5
:1032C00087B089460EA991E8F01181688DE8F01168
:1032D000D1F8E4404946A04707B0BDE8F08338B5CF
:1032E00084680092D4F8E840A04738BD38B58468B7
:1032F00000930B46D4F8E840A04738BD0170012088
:10330000704700002DE9F047234C0427E06AD8B14C
:10331000206907EBD0014518E800FFF7C1FE060061
:1033200037D0616B07EBC600B9460F5820690837E4
:10333000C2003846D4F82C80FCF742FF6763E6628F
:1033400049466A1E20690EE01348C030D0E90110DA
:103350000830B1FBF0F5AD1CDEE7666B431C01EBFA
:10336000C007401CF3519042F7D3636B09EBC000D8
:1033700000221A50206960626168281A0844256199
:103380006060B8F1000001D0FDF762FB0020BDE8ED
:10339000F0870120FBE70000B8D5012038B584682C
:1033A000049D0095D4F8E840A04738BDFEB54F4CC9
:1033B000D4E90201CDE90001206970B3A089401C65
:1033C00000B2ADF800006189ADF80210B4F9041044
:1033D000884207DD2088ADF80000E08910F1010087
:1033E000ADF80200BDF90200B4F90610884274DCA1
:1033F0003F4D2868806CFDF7ABFB0290BDF90000E3
:10340000B4F90010884220D1E088ADF80600A08809
:10341000ADF804002868806C0FE0FFE72088ADF865
:1034200000006088DCE700BFFDF7C6FB0646006AC7
:103430000022694600F0D5F8B0690028F4D102985E
:1034400000226946C06900F0CCF8BDF80000ADF874
:1034500004002868806C0AE0FDF7AEFB0646006AAF
:103460000022694600F046F80028EED1B069002835
:10347000F2D1029800226946C06900F03BF80028AA
:10348000E3D1B4F90400BDF90010ADF8040088429E
:1034900007DADDE90001C4E9020102A8FDF774FBC7
:1034A00098E72868806C08E0FDF786FB0546006A0F
:1034B0000022694600F05CF8A8690028F4D102985F
:1034C00000226946C06900F053F802A8FDF75CFBD2
:1034D000206944F62061884201DD0020FEBDDDE95F
:1034E0000001C4E902010120FEBD0000F4D6012064
:1034F0002C010020FEB517460E460546002433E099
:103500002846FDF725FB0090856A0146A80726D5C9
:1035100027B13A4601A8FDF784FF03E0D1E9000195
:10352000CDE9010101A93046FDF7C9FDB8B1E807B1
:1035300002D00098C56910E0BDF80800401C30803A
:1035400001240CE001AA31462846FFF7D3FF00B161
:1035500001242846FDF730FB056A002DF2D10098C2
:10356000056A6846FDF710FB002DC9D12046FEBD57
:10357000FEB516460D46044630E02046FDF7E8FA53
:103580000090846A0146A00723D526B1324601A8DF
:10359000FDF747FF03E0D1E90001CDE9010101A9F1
:1035A0002846FDF78CFDA0B1E00702D00098C46961
:1035B0000DE0BDF80400401EA8800AE001AA2946DB
:1035C0002046FFF7D5FF2046FDF7F6FA046A002CE7
:1035D000F4D10098046A6846FDF7D6FA002CCCD1E5
:1035E000FEBDFEB516460D4604464AE02046FDF7F0
:1035F000AFFA0090846A0146A0073DD526B1324655
:1036000001A8FDF70EFF03E0D1E90001CDE90101BA
:1036100001A92846FDF753FD10B3E00702D000983A
:10362000C46927E000983EB1B0F90210B6F9020073
:10363000814203DD084601E0B0F90200B5F902104D
:10364000814207DABDF90600B5F90610401E05E013
:10365000E88011E0BDF90A00B5F906108842F7DBF1
:103660000AE001AA29462046FFF7BBFF2046FDF7E6
:10367000A3FA046A002CF4D10098046A6846FDF7A6
:1036800083FA002CB2D1FEBD00787047012070474C
:103690008068012901D000207047406C704700000D
:1036A0000D291CD008DC012914D00A290CD00B29C3
:1036B0000CD00C2906D10BE016291AD0172913D0EB
:1036C000182918D0002070470C4870470C487047E4
:1036D0000C48704700688068D0F8FC0070470068AC
:1036E0008068D0F8F400704700688068D0F8F8006F
:1036F000704705487047054870470000B537000817
:10370000A1370008113700087D3E00086137000826
:1037100070B50546FCF7E0FF4FF4FA70AC68FDF7B2
:10372000BFF9A066A16B2068C91DC9104843FDF709
:10373000B7F9E06600220121A869FEF761FD0546A0
:10374000D4F8081120468847D4F8B010204688479E
:10375000002D01DD012070BD002070BD704700000C
:10376000F8B50D4DDDE906678468286867B1002863
:1037700009D10096D4F8A8602046B04754F8A80FA5
:10378000286006482060F8BD0028FCD0C4F8A800D6
:1037900000202860F8BD0000680100205D370008A7
:1037A00070B515460C460646FCF796FFB068C0E9B2
:1037B000004570BD70B515460C460646FCF78CFFFB
:1037C000B068C0E9024570BD70B500240D460228FE
:1037D00007DAFDF7F3FA20B1C1688A6A29469047F3
:1037E0000446204670BD80680F292CD2DFE801F026
:1037F0002B080A0C0E2B2B2B10121414161D240050
:10380000006870474068704780687047C0687047BC
:10381000806B704700207047012070470028FCD063
:1038200090F8340000F0010070470028FCD090F8B8
:103830003400C0F3400070470028FCD090F83400FA
:10384000C0F3800070474FF0FF30704710B5FEF7AF
:103850000BFBB0F5807F03D0802803D307211AE04B
:10386000082118E0402801D3062114E0202801D3C4
:10387000052110E0102801D304210CE0082801D311
:10388000032108E0042801D3022104E0022801D327
:10389000012100E0002101208840401E10BD4FF6AC
:1038A000FF70704770B50024064601253146284652
:1038B000FFF78AFF844200DA04466D1EF6D52046E3
:1038C00070BD00000146054A0F2000BF02EBC00397
:1038D0001B6C8B4201D9401EF8D57047B8D501202A
:1038E0008368D3F8EC301847806800220A804A8049
:1038F0000288521E8A808088401EC880704700005F
:103900000249096848840020704700002C0100200B
:103910000249096888840020704700002C010020BB
:10392000F0B4124C646814B1A446F0BC6047541E55
:1039300004FB030401EB82000D4DDFF838C0001FCB
:103940002188E41A01F01F06521EAF5DC1F345162F
:1039500005EBD1211CF80660097801EB062101EB8B
:10396000074140F80419EBD1F0BC70475801002022
:10397000C8620008E862000870B50446FEF774FAF1
:103980000546FEF789FAAC4201D3002070BD00283D
:10399000FCD050F8240070BD70B5184D0446E8689E
:1039A000011DC0E90E010064091D6161417C05F142
:1039B000240050F82100C1680A6B04F10801904707
:1039C0000F486066A868E061E8680830606101201F
:1039D0002076FEF7C9FFA064032084F868006FF02A
:1039E0007040206360630020FEF748FB6FF07F406B
:1039F000FEF77CFB0348286170BD00002001002019
:103A00004C4300082865000870B5264C94F828003F
:103A1000002846D1012604F1C00584F828606968B1
:103A20004FF42050814200D90146286800F08CFAFA
:103A3000A86810B968688008A8601C491A4808601E
:103A40000846FDF789FD5A20206200205FF0100132
:103A500001FA00F204EBC003401C1A641028F7D3EB
:103A6000D5E9001288181438C4E90D01022300209A
:103A70000421C4E9032305E0636B421C01EBC0058C
:103A8000401C5A512269521E8242F5D86662206952
:103A9000401E6060A16BE068FFF7BAFAFFF732FCE6
:103AA000266370BDB8D50120953B000818010020A1
:103AB000FEB514460D460646FDF77EF80090836A73
:103AC000980731D52846FFF763FA00282CD040F636
:103AD00001000340012B27D03046FDF739F802469C
:103AE0000090294601A8FDF79CFC01A8FFF750FAB9
:103AF000B8B1009944F22002886A104205D008311A
:103B000001AA0846FDF7A0FA0BE0DDE901232043F6
:103B10008862C1E9022305498888401C8880FDF736
:103B20003BFB6846FDF730F8FEBD00009801002021
:103B30000846704710467047084670471046704761
:103B40000068401A401E70474068801A401E704747
:103B50000068401A401E70474068801A401E704737
:103B600010467047084670474068801A401E7047EC
:103B70000068401A401E704710467047084670475C
:103B80004068801A401E70470068401A401E704707
:103B9000704700000B4910B5002081F8280001464D
:103BA000084880224030FDF7DFFCC0220021054894
:103BB000FDF7DAFC03480C220021BDE81040C030BC
:103BC000FDF7D2BCB8D50120084910B500208861A6
:103BD000014670220648FDF7C7FC04480822002170
:103BE000BDE810402430FDF7BFBC000020010020DC
:103BF00084D6012010B5034C6068FCF745FF002017
:103C0000606010BD880100200B4A10B50021517082
:103C10009163084602F15C0402F15403C2F81410E7
:103C200044F8201043F82010401C0228F8D35162B9
:103C300091629161116210BD9801002010B50E4C87
:103C40006168206B814209D8401E2063FFF75AFB50
:103C5000216B491C216308B1002010BD606804225B
:103C6000401E6060606A616B02EBC0028A5862624B
:103C7000012201F8302010BDB8D50120084910B547
:103C80004A680424521C4A604B6B04EBC0044A6A25
:103C90001A514B6B002203F83020486210BD00001F
:103CA000B8D50120016CD0F8D420896908461047A6
:103CB000016CD0F8D820896908461047F8B55D1A1C
:103CC000DDE90667B41A641C6D1C654384680096C0
:103CD0002046D4F8A860B047206CD4F8DC302A46DF
:103CE000806901B03946BDE8F0401847F8B55D1A63
:103CF000DDE90667B41A641C6D1C65438468009690
:103D00002046D4F8A860B047206CD4F8E0302A46AA
:103D1000806901B03946BDE8F040184710B5044647
:103D20004068FFF7CFFD10280DD2084963680A6884
:103D3000D21A0A6001EBC002D4E90201443200B198
:103D4000416009B1086010BD106010BDB8D50120F8
:103D50002DE9F05FDFF894808346D8F83840D8F832
:103D60000C10601E0F182046D0E90015B9BB66196B
:103D7000BE4236D2D6E9001989B3D8F8343013F8E8
:103D80003130012B2DD1D8F82C20914201D10121C5
:103D900000E000218A46FFF7C1FF3068D8F83410F0
:103DA000042202EBC0004A460C5031462046FCF784
:103DB00007FABAF1000F05D0D8F83410321B891A6F
:103DC000C8F8341004EB09012846FFF721F9BBF1CC
:103DD000000F05D0834503D80020BDE8F09F00E028
:103DE0004D462C44BC42BED30120F6E7B8D5012095
:103DF000064910B509684A6B824206D04863FDF750
:103E000083FEBDE81040FEF73FB910BD2C01002035
:103E10001FB504460F480168486C38B10268029229
:103E2000406803900C48806A18B901E020460EE013
:103E3000886CFCF78DFE02A90090FEF7E1FE684653
:103E4000FCF7A2FE214602A8FDF7CEFA02A8FEF773
:103E500027F91FBD2C01002098010020064910B54C
:103E600009680A6B824206D00863FDF74DFEBDE883
:103E70001040FEF741B910BD2C01002070B514466A
:103E80000D460646FCF728FCB068002810D0262D09
:103E90000FD0272D0CD1826B0021102A1CD0122AA2
:103EA00006D114B11149C0F8E04040F8CC1F416080
:103EB00070BD816B102907D01229F9D10C49C0F8C7
:103EC000D84040F8BC1FF2E70A49C0F8B810C0F863
:103ED000D440C0F8B41070BD14B10749C0F8DC403C
:103EE000C0F8C810C0F8C41070BD0000ED3C000858
:103EF000B13C0008A53C0008BD3C000830B50949AC
:103F00000B681A7C82EA0004640707D59C6BDB6BA4
:103F100025681B6823600B68DB6B1D6009680874EB
:103F2000104630BD2C0100201CB5CDE9001280697F
:103F30006A460321FEF764F91CBD30B48468D4F8E6
:103F4000F040A44630BC6047F0B58E080023FF2245
:103F50000546002406E0E718B7FBF2FC02FB1C77DD
:103F600080C5641CB442F6D3054600240BE004EB84
:103F7000030CBCFBF2FE80CD02FB1ECCBC4501D085
:103F80000320F0BD641CB442F1D35B1C022BDFD3D1
:103F90004E0800230546002407E0E718B7FBF2FCB3
:103FA00002FB1C7725F8027B641CB442F5D305465E
:103FB00000240CE004EB030CBCFBF2FE35F8027BA2
:103FC00002FB1ECCBC4501D00220F0BD641CB442F3
:103FD000F0D35B1C022BDDD300230546002407E051
:103FE000E618B6FBF2F702FB176605F8016B641CD6
:103FF0008C42F5D3054600240CE000BFE718B7FB60
:10400000F2FC15F8016B02FB1C77B74201D00120CE
:10401000F0BD641C8C42F1D35B1C022BDDD300226B
:10402000134602E000F8013B521C8A42FAD30020FA
:10403000F0BD006180E80E00104440F8042C704789
:10404000F8B515460E4604468768FFF749FC009010
:10405000BB6A01B043402A4631462046BDE8F040E5
:10406000FFF76BBF02E008C8121F08C1002AFAD18F
:1040700070477047002001E001C1121F002AFBD1E8
:104080007047000010B5044600680E2802D00F28C3
:1040900017D108E0E0684168012917D10068BDE840
:1040A0001040FDF781B86068FFF7BEF8084951F885
:1040B00020006FF07041884203D0FDF73DF8FCF717
:1040C000A5FD2046BDE81040FEF72ABC10BD00004B
:1040D000E4010020F8B5FDF7FBFFFDF757FF0400F2
:1040E0003BD100252846FCF769FE009048B1C06826
:1040F0000C21426A68469047010007D00098884723
:1041000004436D1C022DEDDB14B126E00120F8BD47
:10411000FDF756FF012543F6FF762846FCF74EFED5
:104120000090C0B12846FCF7EFFF0420FDF7F6FF32
:104130000021324633460846FDF756FE0020FDF7C3
:10414000EDFF00980E21C068426A68469047010062
:1041500001D0009888476D1EDFD52046F8BD0000CD
:10416000FCF726F9FEF704FAFDF708FF002000F03F
:1041700023F801210803FEF74BF8FCF703FF4FF487
:104180007F00FCF7D9FF4FF6FF70FCF7D7FFFCF775
:104190003DFD0548FCF7DAFF0022114603A0FCF7BD
:1041A0009FFE00BFFEE70000A46200084368656E42
:1041B000596946616572000010B504460C4951F812
:1041C00024104A000B4951F82400002100F0A2F805
:1041D000094951F8242007490C3951F824000021DD
:1041E00000F098F8012103480C30015510BD000083
:1041F0002843000808010020404300082DE9F0474B
:1042000004460F460025A9462548005D20B92448EC
:1042100020380168204688471FB94FF0FF30BDE8BD
:10422000F087204850F82400B7FBF0F086B21D4814
:1042300050F82400B7FBF0F100FB117008B1701CBE
:1042400086B2194850F82400451E24E014480C3862
:1042500050F8240030F8150020B909F101001FFAC8
:1042600080F901E04FF00009B14513D14FF000088B
:1042700009E00B480C3850F8240005EB080120F841
:10428000116008F10108B045F3D3064850F8240046
:104290006843C4E76D1E002DD8DA4FF0FF30BEE74B
:1042A00014010020344300082843000810B50146DB
:1042B0000023002207E00B4850F8210030F81200DC
:1042C00000B15B1C521C084850F821009042F2D803
:1042D00064205843044C54F82140B0FBF4F0C0B2C1
:1042E00010BD0000080100202843000870B50446F6
:1042F0000E4631462046FFF781FF0546681C08B987
:10430000002070BD024850F824002844F9E700005E
:10431000FC00002030B5034601E003F8011B140047
:10432000A2F10102F9D130BDC00D0000001900005A
:104330008007000020000000200000002000000096
:1043400000B801000020030000F00000291D000853
:10435000811D0008FD310008511F00089F3800082A
:10436000010000005D310008213900080000000054
:10437000BD320008DF320008ED3200089D3300082E
:10438000E13800083B3F000841400008293F000891
:10439000A1360008E737000891360008E938000820
:1043A000313B0008413B0008393B0008513B000805
:1043B000353B0008493B00083D3B0008593B0008DD
:1043C000613B0008793B0008693B0008813B00081D
:1043D000653B00087D3B0008713B0008893B0008F5
:1043E00000000000000000000000000000000000CD
:1043F0000000183C3C3C1818180018180000000079
:104400000066666624000000000000000000000056
:104410000000006C6CFE6C6C6CFE6C6C00000000AC
:1044200018187CC6C2C07C060686C67C1818000018
:1044300000000000C2C60C183060C68600000000F4
:104440000000386C6C3876DCCCCCCC7600000000F8
:10445000003030306000000000000000000000006C
:1044600000000C18303030303030180C00000000E4
:10447000000030180C0C0C0C0C0C18300000000064
:104480000000000000663CFF3C66000000000000E9
:10449000000000000018187E18180000000000003E
:1044A0000000000000000000001818183000000094
:1044B00000000000000000FE0000000000000000FE
:1044C00000000000000000000000181800000000BC
:1044D0000000000002060C183060C08000000000E0
:1044E0000000386CC6C6C6C6C6C66C3800000000E0
:1044F00000001838781818181818187E00000000E6
:1045000000007CC6060C183060C0C6FE000000002B
:1045100000007CC606063C060606C67C00000000BD
:1045200000000C1C3C6CCCFE0C0C0C1E00000000AF
:104530000000FEC0C0C0FC060606C67C00000000ED
:1045400000003860C0C0FCC6C6C6C67C00000000C3
:104550000000FEC606060C183030303000000000A7
:1045600000007CC6C6C67CC6C6C6C67C000000006D
:1045700000007CC6C6C67E0606060C780000000059
:1045800000000000181800000018180000000000CB
:10459000000000001818000000181830000000008B
:1045A000000000060C18306030180C0600000000F7
:1045B00000000000007E00007E00000000000000FF
:1045C0000000006030180C060C183060000000007D
:1045D00000007CC6C60C181818001818000000004F
:1045E0000000007CC6C6DEDEDEDCC07C0000000011
:1045F000000010386CC6C6FEC6C6C6C60000000065
:104600000000FC6666667C66666666FC000000006C
:1046100000003C66C2C0C0C0C0C2663C00000000D2
:104620000000F86C6666666666666CF8000000005E
:104630000000FE6662687868606266FE0000000046
:104640000000FE6662687868606060F0000000004C
:1046500000003C66C2C0C0DEC6C6663A000000006C
:104660000000C6C6C6C6FEC6C6C6C6C60000000056
:1046700000003C18181818181818183C0000000002
:1046800000001E0C0C0C0C0CCCCCCC7800000000F4
:104690000000E666666C78786C6666E600000000EE
:1046A0000000F06060606060606266FE0000000014
:1046B0000000C6EEFEFED6C6C6C6C6C60000000096
:1046C0000000C6E6F6FEDECEC6C6C6C60000000086
:1046D00000007CC6C6C6C6C6C6C6C67C00000000B2
:1046E0000000FC6666667C60606060F000000000B0
:1046F00000007CC6C6C6C6C6C6D6DE7C0C0E000050
:104700000000FC6666667C6C666666E6000000007B
:1047100000007CC6C660380C06C6C67C00000000DF
:1047200000007E7E5A1818181818183C0000000067
:104730000000C6C6C6C6C6C6C6C6C67C0000000007
:104740000000C6C6C6C6C6C6C66C3810000000004B
:104750000000C6C6C6C6D6D6D6FEEE6C0000000067
:104760000000C6C66C7C38387C6CC6C600000000F1
:104770000000666666663C181818183C00000000C9
:104780000000FEC6860C183060C2C6FE00000000A5
:1047900000003C30303030303030303C0000000021
:1047A00000000080C0E070381C0E0602000000000F
:1047B00000003C0C0C0C0C0C0C0C0C3C0000000021
:1047C00010386CC60000000000000000000000006F
:1047D00000000000000000000000000000FF0000DA
:1047E0000030180C00000000000000000000000075
:1047F0000000000000780C7CCCCCCC7600000000DF
:104800000000E06060786C666666667C0000000010
:1048100000000000007CC6C0C0C0C67C00000000D4
:1048200000001C0C0C3C6CCCCCCCCC760000000006
:1048300000000000007CC6FEC0C0C67C0000000076
:1048400000001C3632307830303030780000000004
:10485000000000000076CCCCCCCCCC7C0CCC78001A
:104860000000E060606C7666666666E60000000048
:1048700000001818003818181818183C000000001C
:1048800000000606000E06060606060666663C00E2
:104890000000E06060666C78786C66E600000000FE
:1048A00000003818181818181818183C00000000D4
:1048B0000000000000ECFED6D6D6D6C600000000F0
:1048C0000000000000DC66666666666600000000A8
:1048D00000000000007CC6C6C6C6C67C0000000002
:1048E0000000000000DC66666666667C6060F000C2
:1048F000000000000076CCCCCCCCCC7C0C0C1E0094
:104900000000000000DC7666606060F000000000DF
:1049100000000000007CC660380CC67C000000006F
:104920000000103030FC30303030361C0000000009
:104930000000000000CCCCCCCCCCCC760000000039
:104940000000000000C6C6C6C6C66C3800000000E5
:104950000000000000C6C6D6D6D6FE6C00000000DF
:104960000000000000C66C3838386CC6000000003B
:104970000000000000C6C6C6C6C6C67E060CF8000B
:104980000000000000FECC183060C6FE00000000F1
:1049900000000E18181870181818180E00000000E3
:1049A0000000181818181818181818180000000017
:1049B0000000701818180E18181818700000000061
:1049C0000076DC0000000000000000000000000095
:1049D00000001C300000000000000000000000008B
:1049E000000070180000000000000000000000003F
:1049F0000010386C00000000000000000000000003
:104A000000C6C6000000000000000000000000001A
:104A10000076DC0000000000000000000000000044
:104A200000000000003818181818183C000000009A
:104A30000000386C6C6C786C6666666C60C0000058
:104A4000102810007CC6C6FEC6C6C6C60000000000
:104A50000030483000780C7CCCCCCC7600000000D4
:104A600000001E7AD8D8D8FED8D8DADE00000000C0
:104A70000000FC666666F6F6666666FC00000000EE
:104A80000000F0607C666666667C60F000000000F6
:104A90000000000000CC323E70B0B26C000000009C
:104AA0000000D060B0187CC6C6C6C67C00000000FE
:104AB0000000E06060786C6C786060F000000000DE
:104AC00000007CC6CECED6D6E6E6C67C000000004E
:104AD00000000000003A44CED6E644B800000000D2
:104AE000000000386CC6C6FEC6C6C6C60000000080
:104AF000000000FE66626878686266FE00000000E2
:104B00000000003C181818181818183C0000000085
:104B10000000007CC6C6C6C6C6C6C67C0000000033
:104B2000000000C6C6C6C6C6C6C6C67C00000000D9
:104B3000000000C6E6F6FEDECEC6C6C600000000D7
:104B400000001818001818183C3C3C180000000021
:104B5000000030300030303060C6C67C00000000FD
:104B60001C300000000000000000000000000000F9
:104B700070180000000000000000000000000000AD
:104B8000386C000000000000000000000000000081
:104B9000C6C6000000000000000000000000000089
:104BA00076DC0000000000000000000000000000B3
:104BB00000000000000000000000000018300000AD
:104BC00000000000000000000000000000000000E5
:104BD00000000010107CD0D0D0D0D67C1010000087
:104BE00000001C30303078303030325C0000000083
:104BF00000000000423C24243C4200000000000071
:104C00000000663C187E18187E1818180000000076
:104C100000001818181800001818181800000000D4
:104C200000003C6460384444380C4C7800000000BC
:104C300000C6C600000000000000000000000000E8
:104C4000000000007E425A5E5A427E0000000000D2
:104C500000007008788888740000000000000000E0
:104C60000000000000366CD86C3600000000000028
:104C700000000000000000FC040400000000000030
:104C8000000000000000007C0000000000000000A8
:104C9000000000007C4454444C547C0000000000A0
:104CA000FE00000000000000000000000000000006
:104CB0000070D888D87000000000000000000000DC
:104CC0000000000010107C1010007C0000000000AC
:104CD000788C0C183060FC00000000000000000020
:104CE000788C0C780C8C780000000000000000002C
:104CF000000E18200000000000000000000000006E
:104D000000000000006666666666667C6060C00043
:104D100000007ED4D4D474141414143E0000000097
:104D200000000000000038383800000000000000DB
:104D300060E060606060F0000000000000000000C3
:104D400000003C6666663C000000000000000000B9
:104D50000000000000D86C366CD800000000000095
:104D6000000040C0444810244C941E040000000081
:104D7000000040C04448102C5284081E000000006F
:104D80000000C0204428D0244C941E0400000000E1
:104D90000000000000663C183C66000000000000B7
:104DA000000000001818007E001818000000000025
:104DB00000000000000818387FFF7F381808000046
:104DC000000000000010181CFEFFFE1C1810000060
:104DD00000000000000010387CFE38383838000031
:104DE00000000000000038383838FE7C3810000021
:104DF0000000000606060616367EFE7C3010000017
:104E0000000000000000030306060CCC7838000008
:104E10009D00FFFF9E00FFFF9F00FFFFA000FFFF20
:104E2000A100FFFFA200FFFFFFFFFFFFFFFFFFFF4B
:104E3000FFFFFFFFFFFFFFFFFFFFFFFFFFFFFFFF82
:104E4000FFFFFFFFFFFFFFFFFFFFFFFFFFFFFFFF72
:104E50007E00FFFF7600FFFF7F00FFFF8000FFFF67
:104E60008100FFFF8200FFFF8300FFFF8400FFFF40
:104E70008500FFFF8600FFFF8700FFFF8800FFFF20
:104E80008900FFFF8A00FFFF8B00FFFF8C00FFFF00
:104E90008D00FFFF8E00FFFF8F00FFFF9000FFFFE0
:104EA0009100FFFF9200FFFF9300FFFF9400FFFFC0
:104EB0007D00FFFF9500FFFF9600FFFF9700FFFFBB
:104EC0009800FFFF9900FFFF9A00FFFF7700FFFFA8
:104ED000700079007000780070007A0070007C002B
:104EE00070007B006600FFFF6800FFFF23007D006D
:104EF000710079007100780071007A0071007B0008
:104F0000720079007200780072007A0072007B00F3
:104F10006900FFFF75007C00730079007300780062
:104F200073007A0073007C0073007B009B00FFFF1E
:104F30006E00FFFF740079007400780074007A003E
:104F400074007B00390078006A00FFFF6500FFFFF6
:104F50004100600041005F004100610041006300CA
:104F6000410062006700FFFF6B00FFFF43007D0010
:104F70004500600045005F0045006100450062009B
:104F80006400600064005F0064006100640062000F
:104F90006C00FFFF4E0063004F0060004F005F0099
:104FA0004F0061004F0063004F0062009C00FFFF54
:104FB0006F00FFFF55005F00550060005500610065
:104FC0005500620059005F006D00FFFF590062004C
:104FD0009000FF00104E0008E0430008E043000886
:104FE000D04F000820007F0008100100490700088A
:104FF0007D080008950800089B08000800000000D4
:105000000000000010200202D84F00080C070A0020
:105010000000000000000000000000000000000090
:1050200000000000000000000000000030303030C0
:1050300030303030303030000030300000000000C0
:105040000000000066666666660000000000000062
:105050000000000000000000000000000000000050
:105060000C600C600CE018C0FFF0FFF018C031803D
:105070003180FFF0FFF031807300630063000000B7
:10508000000000000000000000000000000004001C
:105090001F003F8075C064C0640074003E000F8034
:1050A00005C004C004C064C075C03F801F00040078
:1050B00004000000000000000000000000000000EC
:1050C000000000001C0600360C00630C0063180092
:1050D0006318006330003660001C670000CD80005C
:1050E000D8C00198C00198C00318C0060D800607FB
:1050F00000000000000000000000000000000000B0
:10510000000000000000000007800FC01860186059
:1051100018C00D800F001F00339861D860F06060E8
:1051200070F03FD81F0800000000000000000000E1
:10513000000000006060606060000000000000008F
:10514000000000000000000000000000040818102B
:1051500030306060606060606030301018080400BB
:10516000000000004020301018180C0C0C0C0C0C27
:105170000C18181030204000000000001818FF180C
:105180003C6600000000000000000000000000007D
:105190000000000000000000000000000000060009
:1051A0000600060006007FE07FE00600060006001D
:1051B00006000000000000000000000000000000E9
:1051C00000000000000000000000000000000000DF
:1051D000003030101020000000000000000000002F
:1051E00000000000FCFC00000000000000000000C7
:1051F00000000000000000000000000000000000AF
:105200000030300000000000000000000C0C1818F6
:10521000181830303060606060C0C00000000000CE
:1052200000000000000000001F003FC030C06060B0
:10523000606060606060606060606060606060606E
:1052400030C03FC00F8000000000000000000000E0
:105250000000000000000000030003000F001F001A
:1052600033000300030003000300030003000300F6
:105270000300030003000000000000000000000025
:1052800000000000000000001F803FC070E0606070
:105290000060006000C000C0018007000E00180020
:1052A00030007FE07FE00000000000000000000010
:1052B00000000000000000001F003F8071C060C0BF
:1052C00000C00180070007C000E00060006060606F
:1052D00070C03FC01F000000000000000000000080
:1052E00000000000000000000080018003800780B3
:1052F0000D800D801980318061807FE07FE001802A
:10530000018001800180000000000000000000001A
:1053100000000000000000001FC01FC0300030006F
:10532000300037807FC060E0006000600060606037
:1053300070C03FC01F00000000000000000000001F
:1053400000000000000000000F801FC030E030604F
:10535000600067807FC070E0606060606060606077
:1053600030C01FC00F00000000000000000000005F
:1053700000000000000000007FE07FE000C001802E
:10538000018003000300060006000C000C000C0066
:1053900018001800180000000000000000000000C5
:1053A00000000000000000000F001F8030C030C06F
:1053B00030C030C01F801F8030C06060606060609F
:1053C00070E03FC01F8000000000000000000000EF
:1053D00000000000000000000F003F8030C060604F
:1053E00060606060606030E03FE01E60006060C050
:1053F00070C03F801F00000000000000000000009F
:10540000000000000000000030300000000000003C
:10541000003030000000000000000000000000002C
:10542000303000000000000000303010102000007C
:10543000000000000000000000000000002000E06C
:1054400003C00F003800600038000F0003C000E008
:10545000002000000000000000000000000000002C
:10546000000000000000000000000000000000003C
:105470007FE07FE00000000000007FE07FE00000B0
:10548000000000000000000000000000000000001C
:10549000000000000000000000000000400070005C
:1054A0003C000F0001C0006001C00F003C00700014
:1054B00040000000000000000000000000000000AC
:1054C00000000000000000001F803FC070E060602E
:1054D000006000C001C00380070006000600000055
:1054E00000000600060000000000000000000000B0
:1054F00000000000000000000000000000FE0007A7
:10550000FF800F03C01C00E018736031FB70338E06
:1055100030630630660630660630660470660C60DE
:10552000671CC033FF8039EF301C00600F01C007DB
:10553000FF8001FE000000000000000000000000ED
:10554000070007000D800D800D8018C018C018C01E
:105550003FE03FE0603060306030C018C0180000AD
:10556000000000000000000000000000000000003B
:105570003FC03FE030703030303030703FE03FE0CF
:10558000303030183018301830383FF03FE000002D
:10559000000000000000000000000000000000000B
:1055A00007E01FF01C38301C700C600060006000C9
:1055B00060006000700C30183C381FF007E00000FD
:1055C00000000000000000000000000000000000DB
:1055D0003FC03FF030383018300C300C300C300CFD
:1055E000300C300C300C301830383FF03FC0000029
:1055F00000000000000000000000000000000000AB
:105600003FF83FF830003000300030003FF03FF00E
:10561000300030003000300030003FF83FF800002C
:10562000000000000000000000000000000000007A
:105630003FF03FF030003000300030003FE03FE00E
:10564000300030003000300030003000300000000A
:10565000000000000000000000000000000000004A
:1056600007F00FF81C1C300E30046000600060FE74
:1056700060FE6006300630061C1E0FFC03F00000C2
:10568000000000000000000000000000000000001A
:105690006018601860186018601860187FF87FF84C
:1056A00060186018601860186018601860180000B2
:1056B000000000000000000000000000303030302A
:1056C00030303030303030303030300000000000CA
:1056D00000000000000000000180018001800180C6
:1056E00001800180018001800180018061806180F2
:1056F00073803F001E00000000000000000000005A
:1057000000000000000000003038307030E031C090
:105710003380370037003F003B8031C030E03060DD
:1057200030703038301C0000000000000000000025
:1057300000000000000000003000300030003000A9
:1057400030003000300030003000300030003000D9
:1057500030003FE03FE000000000000000000000DB
:10576000000000000000000000000000700700784A
:105770000F00780F00680B006C1B006C1B0064139B
:1057800000663300663300622300636300636300D6
:1057900061430061C30061C300000000000000001D
:1057A00000000000000000000000000000000000F9
:1057B00060187018781878186C18661866186318CE
:1057C0006198619860D860786078603860180000EF
:1057D00000000000000000000000000000000000C9
:1057E00007E00FF01C38300C700E60066006600693
:1057F00060066006700E300C1C380FF007E00000E9
:105800000000000000000000000000000000000098
:105810003FE03FF0303830183018301830383FF063
:105820003FE0300030003000300030003000000039
:105830000000000000000000000000000000000068
:1058400007E00FF81C3C300C700E60066006600626
:1058500060066006700C30EC1C380FFC07EE00028E
:105860000000000000000000000000000000000038
:105870003FE03FF030383018301830383FF03FE02C
:1058800030C030E03060307030383018301C0000EC
:105890000000000000000000000000000000000008
:1058A00007C01FF038383018300038001F8007E07C
:1058B000007000186018701838381FF00FC0000012
:1058C00000000000000000000000000000000000D8
:1058D000FFF0FFF0060006000600060006000600C6
:1058E000060006000600060006000600060000008E
:1058F00000000000000000000000000000000000A8
:1059000060186018601860186018601860186018D7
:10591000601860186018703838701FE00FC0000001
:105920000000000000000000000000000000000077
:10593000C018E0386030603070703060306038E03F
:1059400018C018C01DC00D800D800F80070000001A
:105950000000000000000000000000000000000047
:1059600000000000C07018C0701860D83060D830D7
:1059700060D83070C870318C60318C60318C601BA5
:1059800006C01B06C01B06C01B06C00E03800E030C
:105990008000000000000000000000000000000087
:1059A00000000000000000007038387018600CC063
:1059B0000CC007800300078007800DC01CE0186042
:1059C00030307038E01C00000000000000000000D3
:1059D0000000000000000000E01C6018303038704B
:1059E0001CE00CC0078007800300030003000300D5
:1059F000030003000300000000000000000000009E
:105A000000000000000000007FF07FF0006000C098
:105A100001800180030006000C001800180030000F
:105A20006000FFF0FFF00000000000000000000038
:105A300000000000787860606060606060606060B6
:105A4000606060606078780000000000C0C0606046
:105A50006060303030181818180C0C00000000007E
:105A60000000000078781818181818181818181856
:105A7000181818181878780000000000183C3C3CF2
:105A8000666666C300000000000000000000000021
:105A90000000000000000000000000000000000006
:105AA00000000000000000000000000000000000F6
:105AB00000000000000000000000FFF0FFF0000008
:105AC0000000000060301000000000000000000036
:105AD00000000000000000000000000000000000C6
