:020000040800F2
:10000000B00400209D010008490C000867050008A5
:10001000450C0008E50100088D0F000800000000F5
:10002000000000000000000000000000AD0D00080E
:1000300015030008000000004B0C00089D0E00088E
:10004000B7010008B7010008B7010008B7010008B0
:10005000B7010008B7010008B7010008B7010008A0
:10006000B7010008B7010008B7010008B701000890
:10007000B7010008B7010008E9010008B70100084E
:1000800015020008B7010008B7010008B701000811
:10009000B7010008B7010008B7010008B701000860
:1000A000B7010008B7010008B7010008B701000850
:1000B000B7010008B7010008B7010008B701000840
:1000C000B7010008B7010008B7010008B701000830
:1000D000B7010008B7010008B7010008B701000820
:1000E000B7010008B7010008B7010008B701000810
:1000F000B7010008B7010008B7010008B701000800
:10010000B7010008B10C0008B7010008B7010008EA
:10011000B7010008B7010008B7010008B7010008DF
:10012000B7010008B7010008B70100084102000844
:10013000B7010008B7010008B7010008B7010008BF
:10014000B7010008B7010008B7010008B7010008AF
:10015000B7010008B7010008B7010008B70100089F
:10016000B7010008B7010008B7010008B70100088F
:10017000B7010008B7010008B7010008B70100087F
:10018000B7010008B7010008DFF80CD000F018F83C
:1001900000480047B10F0008B0040020064880471F
:1001A00006480047FEE7FEE7FEE7FEE7FEE7FEE75C
:1001B000FEE7FEE7FEE7FEE70D0F000889010008F5
:1001C000064C074D06E0E06840F0010394E80700A4
:1001D00098471034AC42F6D3FFF7DAFFCC1500088D
:1001E000EC15000800BFFEE710B50749074800F00E
:1001F0005FF8012806D10449044800F03FF804489C
:100200000068804710BD0000008000185860024060
:10021000A800002010B50749074800F049F8012858
:1002200006D10449044800F029F8044800688047D2
:1002300010BD00000088002088600240A40000205B
:1002400010B500F049FD10BD0246094B9A4201D29B
:10025000084801E00648103801F000531BB1064B76
:100260000B40C36002E0044B0B408360704700000A
:1002700010640240006002407D0F7D0F0246094B72
:100280009A4201D2084801E00648103801F00053B4
:100290001BB1064B0B40C36002E0044B0B40836074
:1002A0007047000010640240006002407D0F7D0F27
:1002B00070B50246002000240025124EB24201D241
:1002C000114B01E00F4B103B104E0E4036B11E2675
:1002D00006EAD124166806EA040502E0566906F02B
:1002E000800501F000560EB15C6800E01C68084E05
:1002F000344004EA010616B10DB1012000E00020EF
:1003000070BD000010640240006002403C0F3C0FD2
:100310007D0F7D0F7047000001B50449009808600B
:1003200000BF024800680028FBD108BDAC000020D7
:1003300051B18200A2F1C042126842F00103820072
:10034000A2F1C042136009E08200A2F1C04212682B
:10035000034B1A408300A3F1C0431A6070470000AA
:10036000FEFF0F0030B50021002200230468A40026
:10037000A4F1C0442168424C2140D0E901452C43FE
:10038000C5682C4305692C4345692C4385692C437A
:10039000C5692C43056A2C43456A2C43856A2C4366
:1003A000C56A2C43056B2C4321430468A400A4F1C7
:1003B000C04421608468082C0BD10468A400A4F117
:1003C000C044246844F040050468A400A4F1C0447B
:1003D00025600468641CA400A4F1C044226802F0F3
:1003E0004042446B2468456B6D6844EA0514456BD4
:1003F000AD6844EA0524456BAD8944EA0544456B84
:100400002D8A44EA0554456B2D7D44EA0564456B0D
:10041000AD692C4322430468641CA400A4F1C044C9
:100420002260C46AB4F5804F20D10468A400A4F10E
:10043000C044D4F80431134C2340846B2468856B8A
:100440006D6844EA0514856BAD6844EA0524856B44
:10045000AD8944EA0544856BAD692C4323430468A8
:10046000A400A4F1C044C4F8043107E06FF0704563
:100470000468A400A4F1C044C4F8045130BD0000D5
:100480008000F7FF0000F0CFF0B50A4600210023FE
:10049000002400BF3DE0012505FA01F3156805EAD7
:1004A00003049C4234D105684F000326BE40B54387
:1004B000056015794E00B54006683543056015792D
:1004C000012D02D01579022D16D185684F00032623
:1004D000BE40B543856055794E00B54086683543CA
:1004E0008560456801268E40B5434560456896792C
:1004F0008E40B6B235434560C5684F000326BE4006
:10050000B543C560D5794E00B540C6683543C56072
:10051000491C1029BFD3F0BDF0B5002300244D07BE
:10052000ED0E02FA05F3CE1000F1200555F8265025
:100530004E07F70E0F26BE40B543CF1000F1200640
:1005400046F82750CE1000F1200555F8265045EA10
:100550000304CE1000F1200545F82640F0BD41838C
:1005600070470183704700BFFEE7000010B50446E6
:1005700024B101210448FFF7F4FF03E00121024800
:10058000FFF7EDFF10BD0000000402402DE9F0412F
:1005900006460F4614461D46DDF818802B462246B7
:1005A0003946304600F0D7F904FB05F0414600F02B
:1005B0009AF8BDE8F08101B502E00098401E009075
:1005C00000980028F9D108BD2DE9F05F81468A46E0
:1005D00015461E46A5F1200000F0FF0B102308224F
:1005E0005146484600F0B7F92C2000F011FB0024DA
:1005F0001AE00F4800EB0B10075D4FF000080EE00B
:1006000007F0010018B10A9800F006FB02E030463E
:1006100000F002FB7F1008F1010000F0FF08B8F1C4
:10062000080FEDDB601CC4B2102CE2DBBDE8F09FCC
:10063000DC0F00082DE9F84305460E4614461F4618
:10064000DDF820801AE028460830B0F5A07F03DDF1
:10065000002506F1100086B230461030F02801DD8A
:1006600000250026CDF8008022783B4631462846FA
:10067000FFF7AAFF641C05F1080085B22078002866
:10068000E1D1BDE8F88300B597B00121084600F03C
:10069000EDFA04200190039080060790002002905C
:1006A00004900590069004200890002009900820EE
:1006B0000A9010200B9000200C900E900F9010903C
:1006C0004FF480501190002012901390149001A8C4
:1006D0001590169008A8FFF745FE01210420FFF7AA
:1006E00027FE17B000BD70B504460D4600262C202D
:1006F00000F08EFA00BF03E0284600F08DFA761C69
:10070000A642F9D370BD00001CB501211A2000F0EB
:100710009DFA00208DF8060001208DF807000220C8
:100720008DF8040003208DF805004FF48040009000
:1007300069467F48FFF7A8FE0C220E217C48FFF790
:10074000EBFE4FF40040009069467948FFF79CFEAD
:100750000C220F217648FFF7DFFE0120009069464A
:100760007348FFF791FE0C2200217148FFF7D4FE79
:100770000220009069466E48FFF786FE0C22012198
:100780006B48FFF7C9FE8020009069466948FFF773
:100790007BFE0C2207216748FFF7BEFE4FF48070F6
:1007A000009069466348FFF76FFE0C2208216148FC
:1007B000FFF7B2FE4FF40070009069465D48FFF706
:1007C00063FE0C2209215B48FFF7A6FE4FF4806010
:1007D000009069465748FFF757FE0C220A215548FA
:1007E000FFF79AFE4FF40060009069465148FFF70A
:1007F0004BFE0C220B214F48FFF78EFE4FF480502A
:10080000009069464B48FFF73FFE0C2211464948CD
:10081000FFF782FE4FF40050009069464548FFF70D
:1008200033FE0C220D214348FFF776FE4FF4804043
:10083000009069463F48FFF727FE0C220E213D48F5
:10084000FFF76AFE4FF40040009069463948FFF711
:100850001BFE0C220F213748FFF75EFE4FF480701D
:10086000009069463248FFF70FFE0C2208213048FD
:10087000FFF752FE4FF40070009069462C48FFF7D6
:1008800003FE0C2209212A48FFF746FE4FF4806040
:10089000009069462648FFF7F7FD0C220A212448FC
:1008A000FFF73AFE1020009069462148FFF7ECFD63
:1008B0000C2204211E48FFF72FFE202000906946DD
:1008C0001B48FFF7E1FD0C2205211948FFF724FE24
:1008D0008020009069461648FFF7D6FD0C220721BC
:1008E0001348FFF719FE4FF4006000906946104866
:1008F000FFF7CAFD0C220B210D48FFF70DFE01206A
:100900008DF8040000208DF8060001208DF8070006
:1009100002208DF805000820009069460448FFF782
:10092000B3FD0120009069460348FFF7ADFD1CBDF3
:10093000000C0240001002400004024010B5FFF716
:10094000E3FEFFF7A0FE0120FFF710FE00F04CF9D8
:1009500000F032F810BD2DE9F04104460D46164670
:100960001F462A2000F054F9201200F055F9E0B299
:1009700000F052F9A119491EC1F30F2000F04CF903
:10098000A119491EC8B200F047F92B2000F040F928
:10099000281200F041F9E8B200F03EF9E919491EC9
:1009A000C1F30F2000F038F9E919491EC8B200F070
:1009B00033F9BDE8F081000010B5CF2000F028F930
:1009C000002000F029F9812000F026F9302000F005
:1009D00023F9ED2000F01CF9642000F01DF903203C
:1009E00000F01AF9122000F017F9812000F014F934
:1009F000E82000F00DF9852000F00EF9102000F03D
:100A00000BF9782000F008F9CB2000F001F939202B
:100A100000F002F92C2000F0FFF8002000F0FCF8B4
:100A2000342000F0F9F8022000F0F6F8F72000F08A
:100A3000EFF8202000F0F0F8EA2000F0E9F80020BC
:100A400000F0EAF8002000F0E7F8B12000F0E0F84C
:100A5000002000F0E1F81B2000F0DEF8B62000F0E6
:100A6000D7F80A2000F0D8F8A22000F0D5F8C0206E
:100A700000F0CEF8352000F0CFF8C12000F0C8F823
:100A8000112000F0C9F8C52000F0C2F8452000F0A0
:100A9000C3F8452000F0C0F8C72000F0B9F8A22044
:100AA00000F0BAF8F22000F0B3F8002000F0B4F83B
:100AB000262000F0ADF8012000F0AEF8E02000F0B4
:100AC000A7F80F2000F0A8F8262000F0A5F82420B1
:100AD00000F0A2F80B2000F09FF80E2000F09CF828
:100AE000092000F099F8542000F096F8A82000F0B2
:100AF00093F8462000F090F80C2000F08DF81720B5
:100B000000F08AF8092000F087F80F2000F084F840
:100B1000072000F081F8002000F07EF8E12000F0CE
:100B200077F8002000F078F8192000F075F81B2005
:100B300000F072F8042000F06FF8102000F06CF85C
:100B4000072000F069F82A2000F066F8472000F03E
:100B500063F8392000F060F8032000F05DF806200B
:100B600000F05AF8062000F057F8302000F054F852
:100B7000382000F051F80F2000F04EF8362000F039
:100B800047F8A82000F048F82A2000F041F800209B
:100B900000F042F8002000F03FF8002000F03CF8A0
:100BA000EF2000F039F82B2000F032F8002000F0A0
:100BB00033F8002000F030F8012000F02DF83F203D
:100BC00000F02AF83A2000F023F8552000F024F82D
:100BD000112000F01DF80348FFF7EDFC292000F07C
:100BE00017F810BDFCBF020010B508210648FFF73A
:100BF000B6FC0648FFF7DFFC08210348FFF7B1FC0D
:100C00000248FFF7D8FC10BD000C0240FCBF0200F8
:100C10004FF0C041088070470149088070470000CC
:100C20000000026008B5FFF789FE4FF47A70FFF705
:100C300073FB0020F0234FF4A07201460090FFF7F1
:100C4000A5FC08BD00BFFEE77047704729B1064A02
:100C500012680243044B1A6004E0034A126882439C
:100C6000014B1A60704700003038024029B1064A33
:100C700012680243044B1A6004E0034A126882437C
:100C8000014B1A6070470000383802400149086083
:100C900070470000382C014001460020034A1268CA
:100CA0000A400AB1012000E000207047342C0140C6
:100CB00010B500F025F810BD29B1064A12680243AC
:100CC000044B1A6004E0034A12688243014B1A6025
:100CD000704700003C2C014010B50748006800F048
:100CE000C05040B10120054908604FF0C251024890
:100CF0005830FFF7A9FA10BD006402402800002018
:100D000010B54FF48070FFF7C7FF50B100202549A0
:100D100008704FF48070FFF7B9FF01202249086086
:100D200037E00220FFF7B8FF30B10220FFF7AEFF37
:100D300002201C4908702CE00820FFF7ADFF30B1FD
:100D40000820FFF7A3FF04201649087021E02020A7
:100D5000FFF7A2FF30B12020FFF798FF06201149CE
:100D6000087016E01020FFF797FF30B11020FFF752
:100D70008DFF05200B4908700BE04FF40070FFF762
:100D80008BFF30B14FF40070FFF780FF072005495B
:100D9000087000214CF23A30FFF78EFF01480078CE
:100DA00010BD00002000002024000020704700003B
:100DB0000CB50020019000903448006840F4803069
:100DC0003249086000BF3148006800F400300090EC
:100DD0000198401C0190009818B90198B0F5A04FF7
:100DE000F1D12A48006800F4003010B101200090D1
:100DF00001E0002000900098012846D123484030AF
:100E0000006840F080502149403108602048006867
:100E100040F440401E4908601C48083000681B49E7
:100E2000083108600846006840F400400860084641
:100E3000006840F4A05008601648091F0860081FA9
:100E4000006840F08070091F086000BF0F4800680C
:100E500000F000700028F9D040F205700E490860DB
:100E60000A480830006820F003000849083108608B
:100E70000846006840F00200086000BF03480830E0
:100E8000006800F00C000828F8D10CBD00380240C2
:100E9000007000400C544007003C024010B500F0C8
:100EA00069F810BD30B515480068154AB0FBF2F17D
:100EB000481EB0F1807F01D301201BE0481E4FF097
:100EC000E022506150170F22002807DA13071D0E89
:100ED0000C4B00F00F04241F1D5503E013071C0EDC
:100EE000094B1C5400BF00204FF0E0229061072006
:100EF0001061002008B100BFFEE730BD00000020F7
:100F0000A086010018ED00E000E400E010B51548EF
:100F1000006840F47000134908601348006840F00E
:100F200001001149086000200F49083108600E488F
:100F300000680E4908400C4908600D48091D08600A
:100F4000081F006820F48020091F0860002006495F
:100F50000C310860FFF72CFF4FF000600149803929
:100F6000086010BD88ED00E000380240FFFFF6FE8B
:100F7000103000240448006820B103480068401E77
:100F80000149086070470000AC00002000BFFEE788
:100F900002E008C8121F08C1002AFAD17047704742
:100FA000002001E001C1121F002AFBD170470000A0
:100FB00008B5FFF777FFFFF735FE4FF478404FF69F
:100FC000FF7304A2002100900846FFF733FB00BF27
:100FD000FEE700006661666100000000000000009E
:100FE00000000000000000000000000000000018E9
:100FF0003C3C3C1818001818000000000000006677
:101000006666000000000000000000000000006CA8
:101010006CFE6C6C6CFE6C6C000000000018183CE0
:1010200066060C183060663C1818000000000E1BA5
:101030005B6E30180C76DAD8700000000000001CDF
:1010400036361C06F66666DC00000000000000185C
:101050001818000000000000000000000000003030
:1010600018180C0C0C0C0C18183000000000000CA8
:101070001818303030303018180C00000000000014
:10108000006C38FE386C000000000000000000001A
:101090000018187E18180000000000000000000072
:1010A0000000000000003838301800000000000088
:1010B0000000007E000000000000000000000000B2
:1010C0000000000000003838000000000000006050
:1010D00060303018180C0C06060000000000007884
:1010E000CCECECCCDCDCCC78000000000000003064
:1010F000383E303030303030000000000000003C1E
:1011000066666030180C067E000000000000003C9F
:10111000666660386066663C000000000000000CF7
:101120000C6C6C6C66FE6060000000000000007ECD
:101130000606063E6060301E000000000000003819
:10114000180C3E666666663C000000000000007EEB
:1011500060303018180C0C0C000000000000003C3F
:1011600066666E3C7666663C000000000000003C4F
:10117000666666667C30181C0000000000000000F7
:10118000003838000000383800000000000000007F
:1011900000383800000038383018000000000060C7
:1011A00030180C060C183060000000000000000031
:1011B00000007E007E00000000000000000000062D
:1011C0000C18306030180C06000000000000003CD5
:1011D0006666301818001818000000000000007E35
:1011E000C3C3F3DBDBF303FE0000000000000018C4
:1011F0003C6666667E666666000000000000003E93
:101200006666663E6666663E000000000000003CC2
:10121000666606060666663C000000000000001ECA
:10122000366666666666361E000000000000007EB8
:101230000606063E0606067E000000000000007E50
:101240000606063E06060606000000000000003CFA
:10125000666606067666667C000000000000006692
:101260006666667E66666666000000000000003CFA
:10127000181818181818183C00000000000000602A
:10128000606060606066663C000000000000006610
:101290006636361E36366666000000000000000620
:1012A000060606060606067E00000000000000C6D0
:1012B000C6EED6D6D6C6C6C600000000000000C6E0
:1012C000C6CEDEF6E6C6C6C6000000000000003C42
:1012D000666666666666663C000000000000003ECA
:1012E0006666663E06060606000000000000003C3A
:1012F000666666666666663C306000000000003E1A
:101300006666663E36666666000000000000003CC9
:1013100066060C183060663C000000000000007E8D
:101320001818181818181818000000000000006697
:10133000666666666666663C000000000000006641
:101340006666666666663C1800000000000000C61F
:10135000C6C6D6D6D66C6C6C0000000000000066D5
:10136000662C1818346666660000000000000066EF
:101370006666663C18181818000000000000007E21
:10138000606030180C06067E000000000000003C83
:101390000C0C0C0C0C0C0C0C0C0C3C000000000693
:1013A000060C0C1818303060600000000000003C93
:1013B000303030303030303030303C0000183C6657
:1013C000000000000000000000000000000000001D
:1013D00000000000000000000000FF00001C1830AA
:1013E00000000000000000000000000000000000FD
:1013F000003C60607C66667C000000000000000627
:10140000063E66666666663E00000000000000005C
:10141000003C66060606663C000000000000006016
:10142000607C66666666667C000000000000000066
:10143000003C66667E06063C000000000000007866
:101440000C0C0C7E0C0C0C0C0000000000000000CA
:10145000007C66666666667C60603E000000000692
:10146000063E6666666666660000000000001818A4
:10147000001E18181818187E0000000000003030F8
:10148000003C30303030303030301E00000000067C
:10149000066666361E366666000000000000001E06
:1014A000181818181818187E000000000000000016
:1014B000007ED6D6D6D6D6C60000000000000000BA
:1014C000003E66666666666600000000000000007A
:1014D000003C66666666663C000000000000000096
:1014E000003E66666666663E060606000000000070
:1014F000007C66666666667C6060600000000000D6
:101500000066760E060606060000000000000000D9
:10151000007C06063C60603E000000000000000CFD
:101520000C7E0C0C0C0C0C7800000000000000007D
:10153000006666666666667C0000000000000000CB
:101540000066666666663C18000000000000000049
:1015500000C6D6D6D6D66C6C000000000000000095
:101560000066663C183C6666000000000000000053
:10157000006666666666663C30180F000000000074
:10158000007E6030180C067E000000000000003075
:101590001818180C060C1818183000000000001855
:1015A0001818181818181818181818000000000C27
:1015B0001818183060301818180C00000000008E41
:1015C000DB7100000000000000000000EC150008C6
:1015D00000000020B0000000900F00089C160008DA
:1015E000B000002000040000A00F0008007A030AE9
:1015F00000000000000000000102030406070809C3
:1016000000000000000000000000000000000000DA
:101610000000000000000000008002000000000048
:101620000000000050000000400100000000000029
:101630000000FF00FF0000000001FF00FF000000AD
:101640002C012C002C002C002C000000320000008B
:1016500000000000000000000000000038000B0047
:101660003200000008000C009300E90000000000B8
:101670000000000003001000100000010001020043
:101680000100010039003900390039000100010072
:0C1690000000000000000000000000004E
:040000050800018965
:00000001FF
