:020000040800F2
:1000000080FA01209D010008376A00086353000848
:10001000356A000817060008A57E000800000000E9
:10002000000000000000000000000000917A0008BD
:10003000790B000800000000B56A0008797B000811
:10004000B7010008B7010008B7010008B7010008B0
:10005000B7010008B7010008B7010008B7010008A0
:10006000B7010008B7010008290C0008B701000813
:10007000B7010008B70100087D080008B7010008B3
:10008000B1080008B7010008B7010008B70100086F
:10009000B7010008B7010008B7010008B701000860
:1000A000B7010008B7010008B7010008B701000850
:1000B000297C0008B7010008B7010008B701000853
:1000C000B7010008B7010008B7010008B701000830
:1000D000B7010008B7010008B7010008B701000820
:1000E000B7010008B7010008B7010008B701000810
:1000F000B7010008B7010008B7010008B701000800
:10010000B7010008996D0008B7010008B7010008A1
:10011000B7010008B7010008B7010008B7010008DF
:10012000B7010008B7010008B7010008E50800089A
:10013000B7010008B7010008B7010008B7010008BF
:10014000B7010008B7010008B7010008B7010008AF
:10015000B7010008B7010008B7010008B70100089F
:10016000B7010008B7010008B7010008B70100088F
:10017000B7010008B7010008B7010008B70100087F
:10018000B7010008B7010008DFF80CD000F006FA4C
:100190000048004731FA000880FA012006488047ED
:1001A00006480047FEE7FEE7FEE7FEE7FEE7FEE75C
:1001B000FEE7FEE7FEE7FEE7CD7B000889010008C9
:1001C0002DE9F05F0546002092469B46884606468C
:1001D000814640241BE0284641464746224600F01F
:1001E0005DF953465A46C01A914110D3114618463C
:1001F000224600F044F92D1A67EB01084F462246CB
:100200000120002100F03BF917EB00094E41201EB0
:10021000A4F10104DFDC484631462A464346BDE8E6
:10022000F09F10B5431A934209D28318881803E04F
:1002300010F8011D03F8011D521EF9D210BD40EA4D
:1002400001039B0703D009E008C9121F08C0042A54
:10025000FAD203E011F8013B00F8013B521EF9D23B
:1002600010BDD2B201E000F8012B491EFBD270474D
:100270000022F6E710B513460A4604461946FFF772
:10028000F0FF204610BD30B504460020034600E0D4
:100290005B1C934203D2E05CCD5C401BF8D030BDC8
:1002A0002DE9FE4F804681EA0300C00F0C46009006
:1002B00021F0004123F00045B8EB0200A94105D22E
:1002C0004046214690461C460B46024623F000401D
:1002D000104347D0270DC7F30A00C3F30A51029019
:1002E000401A019040286BDAC3F3130040F4801BDE
:1002F0000098924620B10023D2EB030A63EB0B0B6C
:1003000001985946C0F14002504600F0B8F8064640
:100310000D4650465946019A00F0D0F810EB0800FF
:100320006141002487EA115284EAE7731A4340D0FE
:10033000009A62B3019A012A4FEA075215DC001BAA
:1003400061EB02014FF0004202EA0752CDE90042A0
:10035000001C41F5801132462B4600F0D0F803B066
:10036000BDE8F08F40462146F9E7001B61EB020132
:10037000001C41F5801300185B412018A2F50017FE
:1003800047EB030140EAD570B6196D4111E06D08E5
:100390004FEA360645EAC0754FEA0752001B61EB8B
:1003A0000201001C41F5801149084FEA3000001994
:1003B000514132462B4603B0BDE8F04F00F090B8F3
:1003C0000098012240000023D0EB020263EBE073AF
:1003D000009821464FEAE074B8EB000061EB04019D
:1003E000E9E783F000435BE781F0004158E770B52F
:1003F000C1F30A5201F000450024C1F3130140F299
:10040000FF3341F480119A4201DA002070BD40F2BE
:1004100033439A42A2F2334203DC524200F03EF8E8
:1004200000E090402C43F1D0404270BD00F000420B
:1004300030F000400AD0C10D01F56071C0F3160024
:1004400042EA0151C20840071143704700200146AB
:10045000704730B50B46014600202022012409E0F8
:1004600021FA02F59D4205D303FA02F5491B04FA6D
:1004700002F52844151EA2F10102F1DC30BD202A4C
:1004800004DB203A00FA02F1002070479140C2F1EB
:10049000200320FA03F3194390407047202A04DB1D
:1004A000203A21FA02F00021704721FA02F3D040ED
:1004B000C2F120029140084319467047202A06DB0A
:1004C000CB17203A41FA02F043EAE07306E041FA22
:1004D00002F3D040C2F12002914008431946704710
:1004E00010B5141E73F1000408DA401C41F100013C
:1004F00092185B411A4301D120F0010010BD2DE993
:10050000F04D92469B4611B1B1FA81F202E0B0FA89
:1005100080F220329046FFF7B2FF04460F4640EAD1
:100520000A0041EA0B0153465A46084313D01146CC
:1005300053EA010019D0C8F140025046FFF7AEFF60
:1005400005460E46504659464246FFF798FF084377
:1005500005D0012004E020463946BDE8F08D00209A
:10056000054346EAE0762C4337430A986305E40ADC
:10057000A0EB08000022FD0A44EA47540A3002D5E5
:1005800000200146E9E7010510196941DDE9084548
:1005900000196941BDE8F04DA2E70000064C074D87
:1005A00006E0E06840F0010394E807009847103443
:1005B000AC42F6D3FFF7ECFD98170108B817010815
:1005C00070B58C1810F8015B15F0070301D110F815
:1005D000013B2A1106D110F8012B03E010F8016B42
:1005E00001F8016B5B1EF9D12B0705D40023521EC5
:1005F0000DD401F8013BFAE710F8013BCB1A921C2D
:1006000003E013F8015B01F8015B521EF9D5A1422A
:10061000D8D3002070BDFEE770B500254FF48034BC
:1006200000E0641E24B1802006F090FB0028F8D082
:100630002CB140F2FF5006F047FB284670BD032066
:1006400070BD000070B5054600243B49086800E015
:10065000086810F0450FFBD0410705D5032404209E
:1006600006F032FB204670BDC00705D001240120F2
:1006700006F02AFB204670BD06F062FBA84201D0BE
:10068000102070BD40F2FF5006F01EFB002006F067
:1006900079FB2A49084201D1204670BD002801DAC1
:1006A0001C2070BD410001D5092070BD810001D51D
:1006B0000A2070BDC10001D50B2070BD010101D51C
:1006C0000C2070BD410101D50D2070BDC10101D5C7
:1006D0000E2070BD010201D50F2070BD410201D571
:1006E000102070BD810201D5112070BDC10201D55D
:1006F000122070BD010301D5132070BD410301D547
:10070000142070BD810301D5152070BDC10301D532
:10071000162070BD010401D5172070BD410401D51C
:10072000182070BD810401D5192070BD000701D5C6
:100730001A2070BD204670BD342C014008E0FFFD3A
:1007400010B500240E4A116800E0116811F0450F41
:10075000FBD0480705D50324042006F0B5FA20464F
:1007600010BDC80705D00124012006F0ADFA2046CF
:1007700010BD40F2FF5006F0A7FA204610BD000061
:10078000342C014010B500240A4A116800E01168B9
:1007900011F0450FFBD0480705D50324042006F0CF
:1007A00093FA204610BD40F2FF5006F08DFA204625
:1007B00010BD0000342C014070B506460C460025E3
:1007C0001C4A106800E0106810F0450FFBD041078C
:1007D00005D50324042006F077FA204670BDC00733
:1007E00005D00124012006F06FFA204670BD06F006
:1007F000A7FAB04201D0102070BD40F2FF5006F0C1
:1008000063FA002006F0BEFA10F4604F03D08104B2
:1008100005D5132070BD000C2080284670BD410412
:1008200001D5102070BD000401D50F2070BD2846F1
:1008300070BD0000342C014010B500204FF4803111
:100840000D4B1A6801E0491E1A6812F0450F01D1DC
:100850000029F8D109B1510705D50324042006F079
:1008600033FA204610BD5106FCD50024402006F086
:100870002BFA204610BD0000342C014070B5094C05
:10088000094D2146284600F009F9012808D12146E2
:10089000284600F03FF805488068BDE870400047F2
:1008A00070BD000000800018586002407C000020ED
:1008B00070B5094C094D2146284600F0EFF8012893
:1008C00008D12146284600F025F805484068BDE8D3
:1008D0007040004770BD0000008800208860024022
:1008E0007C00002006F0C0BE074A904201D20748B3
:1008F00001E005481038064A8B0001EA020101D5E3
:10090000C16070478160704710640240006002401F
:100910007D0F7D0F074A904201D2074801E005484C
:100920001038064A8B0001EA020101D5C160704708
:100930008160704710640240006002407D0F7D0FAF
:10094000002904D0016841F001010160704701688D
:1009500021F00101016070472DE9F043016821F0A9
:10096000010101600021016041608160C16001619D
:10097000212141613E493E4A10394FF03D089042E5
:1009800003D1C1F80880BDE8F083394A4FF474659B
:100990001832904201D18D60F5E7354A4FF4741654
:1009A0003032904201D18E60EDE7314A4FF07467EA
:1009B0004832904201D18F60E5E72D4B2D4A6033DC
:1009C000984201D1CA60DEE7294C2B4B7834A04213
:1009D00001D1CB60D7E7DFF898C0284C0CF1900C20
:1009E000604501D1CC60CEE7DFF884904FF03D5CEC
:1009F00009F1A809484502D1C1F80CC0C3E7204954
:100A0000DFF87C900839484502D1C1F80080BAE788
:100A1000DFF86C8008F11808404501D10D60B2E79D
:100A2000174D3035A84201D10E60ACE7144D483562
:100A3000A84201D10F60A6E7114D11496035091F89
:100A4000A84201D10A609EE70D4A7832904201D156
:100A50000B6098E70A4A9032904201D10C6092E70D
:100A6000074AA83290428ED1C1F800C08BE700003F
:100A7000106002403D000020400F002000003D209B
:100A800010640240002904D0016841F02001016097
:100A90007047016821F020010160704730B50024E3
:100AA0000F4A904201D20F4A01E00D4A103A0E4B14
:100AB000194205D01E2303EAD12503682B4002E02A
:100AC000406900F08003880001D5506800E010689C
:100AD000064A1040084201D003B10124204630BD2F
:100AE00010640240006002403C0F3C0F7D0F7D0F00
:100AF0000B0609D522B1436943F08003436103E04B
:100B0000436923F080034361802905D001F01E0171
:100B10001AB102680A430260704702688A430260A1
:100B20007047000030B50368124A1340CC680A6869
:100B30002243D1E905452C432243CC6922430C6A68
:100B400022434C6A22438C6A22434C6B22438C6BB7
:100B500022431A430260426922F00703D1E90B24C1
:100B600022431A4342610A6942604A688260896886
:100B7000C16030BD3F801CF07047000070B586B08A
:100B80000121084605F098FF0121102005F0BEFF65
:100B900000248DF8164001208DF8170002258DF8ED
:100BA00015508DF8145040020490184E04A9304698
:100BB00000F0F8F98DF814506902049104A9304648
:100BC00000F0F0F907220A21304600F029FA072246
:100BD0000921304600F024FA4FF4E1300090ADF8DE
:100BE0000440ADF80640ADF80840ADF80C400C20CC
:100BF000ADF80A00064C6946204607F0F1F80121DD
:100C0000204607F0D9F806B070BD00000000024091
:100C10000010014001B503480099016001680029F6
:100C2000FCD108BD7800002010B5102000F014F8A9
:100C3000002807D0044901200870BDE810401020AA
:100C400000F004B810BD0000280000200149086031
:100C500070470000143C014001460020024A12681F
:100C60000A4200D001207047143C014030B51B4AB5
:100C700083790168002B2AD013688B431360111D00
:100C80000B680468A3430B60017911440B68046886
:100C900023430B60114C0834216803689943216099
:100CA000231D19680568A94319604179102905D0E9
:100CB00011440A68006802430A6030BD2168026876
:100CC00011432160196800680143196030BD007943
:100CD000104402688A43026030BD0000003C0140BD
:100CE0008000A0F1C040002904D0016841F001015A
:100CF000016070470168024A1140016070470000BE
:100D0000FEFF0F0070B501688900A1F1C0410B68BA
:100D1000344A1340D0E901242243D0E903452C434F
:100D200022434469224384692243C4692243046AFA
:100D30002243446A2243846A2243C46A2243046BE6
:100D400022431A430A608168082907D10168890093
:100D5000A1F1C0410A6842F040020A600168491CE2
:100D60008A00A2F1C042116801F04044416BD1E910
:100D7000003543EA05138D688E892D0245EA064544
:100D80002B430D8A43EA05530D7D896943EA0563C8
:100D90000B4323431360C16AB1F5804F08D000684C
:100DA0006FF070418000A0F1C040C0F8041170BD28
:100DB00001688900A1F1C041D1F804210A4B1A4011
:100DC000806BD0E9003443EA0413846885892402E7
:100DD00044EA05448069234303431343C1F80431C3
:100DE00070BD00008000F7FF0000F0CF2DE9FC4748
:100DF0000E460024002700970197574D4FF0080A30
:100E0000C5F800A0102068604FF04009C5F80890B0
:100E1000EF604FF48068C5F81080284605F0E8FFC1
:100E20001020FFF70FFC002832D14C480089000445
:100E3000286037206860C5F80890EF60C5F810801A
:100E4000284605F0D5FF3720FFF7FCFB00281FD10F
:100E5000411E05F114000160C0F804A0302181603A
:100E60000221C16007610121416105F045FF2F604A
:100E700033206860C5F80890EF60C5F810802846F8
:100E800005F0B6FF3320FFF7DDFB0546280001D053
:100E9000BDE8FC874FF4001A6F46DFF8C48040F2CB
:100EA0002A6908E0504605F051FF20B105F09AFF8D
:100EB00047F82400641CD8F8000010EA090FF1D0AC
:100EC000082005F043FF20B1082005F0FDFE0420B6
:100ED000DEE7022005F03AFF20B1022005F0F4FE23
:100EE0000220D5E7202005F031FF20B1202005F0B9
:100EF000EBFE0620CCE74FF40074204605F026FFF9
:100F000020B1204605F0E0FE0720C1E740F2FF5087
:100F100005F0DAFE00980099000601F47F4140EAEE
:100F20000120009901F47F0140EA1120009940EA74
:100F30001160706001980199000601F47F4140EA58
:100F40000120019901F47F0140EA1120019940EA52
:100F50001160306028469BE7F0030020600000200D
:100F6000342C014010B5002002F040FF6FF07F40AC
:100F700002F03EFF012002F077FF002002F07CFF2C
:100F8000002002F083FF002002F03AFF04480068CE
:100F900002F038FFBDE81040002002F043BF00001F
:100FA000480100202DE9F041002201274FF0030CF9
:100FB00007FA02F50B682B40AB422CD106685300B0
:100FC0000CFA03F4A64306600E79D0F800809E4028
:100FD00046EA080606600E79012E01D0022E12D1D3
:100FE0008668A64386604E79D0F808809E4046EA1F
:100FF000080686604668AE43466045688E7996402E
:10100000B6B235434560C568A543C560CC799C4000
:10101000C3681C43C460521C102AC9D3BDE8F081C8
:1010200010B54B07DB0E9A40C90800EB8100016A3E
:101030000F249C40A1430162016A1143016210BD6B
:101040000246002012690A4200D001207047418305
:10105000704701837047000070B5054680680C46F4
:1010600090B94FF4BA7000F0C1FA4FF4BA7200218F
:10107000A86004F0BBF8A8680221C18401210564BE
:1010800001620F49C0F80811A8682168C16261684F
:101090000163A168416311F0040F07D0D0E900217A
:1010A000C0E90012D0E90221C0E90212A1898184BD
:1010B00021690029B8BF002118BF016270BD00007E
:1010C000E51200082DE9F041044680681E461746E7
:1010D000884690B94FF4BA7000F088FA4FF4BA72AB
:1010E0000021A06004F082F8A0680221C1840121DF
:1010F000046401620949C0F80811A56868224146E4
:1011000005F58670FFF78DF82046B8472046B047B2
:10111000206980688047A862BDE8F081E512000878
:1011200010B5044600F0C2F8A0681049134AC0F890
:10113000AC100F49C0F8A8100E49C0F8B0100E4905
:10114000C0F8B8100021C0F8BC101368C0F8B43063
:101150000B4BC0E932315168C0F8C410C18C21F08A
:101160000301C1840749C0F8941010BDB9E5000817
:1011700045E800087DE500083FDF0008FC0100208D
:1011800047E000080DE5000810B5044600F08EF8B1
:10119000A46810481021C4F8E4000F48C4F8E8001F
:1011A0000E48C4F8EC000E48C4F8F0000D48C4F82E
:1011B000A0000D48C4F8A400D4F8C400C4F8FC0092
:1011C000D4F89420204690471020A063074860641C
:1011D00010BD000091A7000829C80008F1110008FF
:1011E00021130008E1DE000809ED0008641501087C
:1011F000F8B5846815460F4694F8260010F0020FE3
:1012000048D0D4F80031204698470646D4F8043137
:101210002A46394620469847D4F8983005461BB1EF
:1012200000220121204698472069B042CCBF01200E
:101230000020A169B142B4BF0121002108436169C6
:10124000A942CCBF012100210843E169A942B4BFF2
:101250000121002108430AD06068401E00902068E8
:10126000D4F8A8C0431E002211462046E047D4F817
:10127000AC302A46314620469847D4F8A010204684
:101280008847D4F8983005466BB1012200212046EA
:10129000984708E0D4F8AC3020469847D4F8A0101E
:1012A0002046884705462846F8BD000010B504468C
:1012B0008068002818BF10BD4FF4BA7000F096F98E
:1012C0004FF4BA720021A06003F090FFA0680221E1
:1012D000C1840121046401620149C0F8081110BDF4
:1012E000E51200082DE9F0010C4991B0B1E8FC11BC
:1012F0008DE8FC1191E8FE100DF1200888E8FE1041
:10130000416B5DF82120C0F8002108AA52F8211095
:10131000C0F8041111B0BDE8F001704794FD000859
:101320002DE9F84384681F46154694F82600884640
:1013300010F0020F35D0D4F8003120469847064609
:10134000D4F804C12A4641462046E04705462069B4
:10135000B042D4BF00200120A169B142B4BF012135
:10136000002108436169A942CCBF01210021084343
:10137000E169A942B4BF0121002108430AD0606895
:10138000401E00902068D4F8A8C0431E00221146D9
:101390002046E047D4F8AC302A46314620469847EC
:1013A00003E0D4F8AC3020469847D4F8A42001B02C
:1013B00039462046BDE8F043104700002DE9F04FC4
:1013C0004B4989B00968B1F922200692D1F81CC0B6
:1013D000B1F92470DCF81C40A28982429CBFE389E9
:1013E000984205D8A0EB02094FF0FF38266812E0BA
:1013F000D4E90162002A71D0138883429CBF5588CA
:10140000A8426BD8C01A526880B202EB8000B0F9D3
:101410000090B0F90280B9F1FF3F5FD09CF818004E
:10142000A27C10FB02FB94F810A00790B1F92A509F
:10143000284605F099F8C0B208902D4809FB0B62C8
:101440000068A37C4FF00109816BCDE90293CDE9DF
:101450000421C0695246C17E807ECDE90001DDE9EC
:101460000603394604F030FBB8F1FF3F18D045F0D1
:10147000020005F079F81E48A37C08FB0B620068A7
:10148000816BCDE90293CDE90421C0695246C17E4A
:10149000807ECDE90001DDE90603394604F014FB46
:1014A000134E3068C069417E007E814213D9022DFF
:1014B00011D085F0040005F057F83068C069017E4E
:1014C000C27E11FB0271427ED319827E06981AFBFE
:1014D000020204F0A1FC089805F046F80448627C7A
:1014E0000068418C1144418409B0BDE8F08F0000D0
:1014F0004C010020044800290068C069C0691CBF75
:10150000027C0A60407C70474C0100200220088069
:101510007047C06982898A429CBFC289914210D9B2
:10152000806880B102888A429CBF438899420AD869
:10153000406800EB8100A0EB8200B0F900000028B9
:1015400001DB0120704700207047002808BF70476A
:1015500008F0B4BE38B50546FFF7F7FF040009D020
:1015600000F0BEF82A460021009003F03FFE6846D6
:1015700000F012F9204638BD024A106021F0030045
:101580005060704794E80120002808BF704770B58C
:101590000E4C0546606B10F83510002918BF022963
:1015A00028BF70BD042101EBC5068159486808F0C9
:1015B00027FE6068401C6060616B606A8851616BE7
:1015C000002001F83500656270BD0000D4E70120FD
:1015D000002808BF7047044AD16B0160002918BF7A
:1015E0004860D06370470000D4E701202DE9F04146
:1015F00004460CF039F9E01C274E20F00300051DCD
:10160000306CA84288BF0546F46BBCB154F8041C8A
:10161000A94210D19CB1206800281CBF61684160BC
:10162000606800281CBF21680160F16BA14204BF03
:101630002068F0632DE02468002CE7D10024F168D5
:10164000B06B00EB010858F8040CA8EB00073868F1
:1016500040B100200CF09AFD58F8040CA8EB0007EC
:101660003868B0B97868A84213DB3844401B041DC1
:1016700038460CF05DFDF068401BF060706928444E
:1016800070617868401B1CBF394608F0B9FD44F80A
:10169000045C2046BDE8F081D4E7012010B50024A9
:1016A0000CF0E2F80D490F2001EBC002526C8AB138
:1016B00001EBC000406C806848B14168A14288BF1E
:1016C0000C46806800281CBF80680028F5D1A4F172
:1016D0000C0010BD401EE7D5F9E70000D4E701205B
:1016E0000949CA69521CCA614A6B02EBC0021378ED
:1016F0005B1C1370002808BF7047496B042202EB83
:10170000C000085808307047D4E7012010B5002405
:101710000CF0AAF8174B184A0F2000BF02EBC001CB
:10172000496CD9B102EBC000406C8068C0B141681F
:10173000A14288BF0C46806800281CBF8068002832
:10174000F5D1A4F10C00B0F5800F0CD983FB00108B
:101750004111A1EBE070116A484310BD401EDDD578
:10176000A4F10C00F2E7116A4843A3FB0010400902
:1017700010BD00001F85EB51D4E70120054910285A
:1017800098BF102004D94A68B0EB520F28BF500808
:101790008860704794E801200A4902684B6B52F850
:1017A000082C03EBC2021378022B04D3CB69002B65
:1017B0001CBF5B1ECB611178491E117000210160B6
:1017C00008467047D4E70120002808BF7047044945
:1017D000042202EBC000496B085808307047000033
:1017E000D4E701202DE9F0012D24D3F800C0B0F199
:1017F000004F34D000250028A8BF4FF0000C07DAB6
:101800000CF101061E608CF8004040424FF0010CC4
:10181000A1EB0C01C9B2002A1CBF491EC9B20029A4
:101820001CBF234F234E3DD08C46491EC9B2944560
:1018300008D1D3F800C03C780CF10108C3F800804F
:101840008CF8004056F8214090FBF4FC0CF0FF0CA3
:10185000BCF10A0F26D80CFB140081B909E00CF189
:10186000010601251E606FF000408CF80040491E03
:10187000D0E7002D1CBF0CF1010C0CF0FF0CBCF1EB
:101880000A0F03D1491C4FF0010CC9B20CF130040E
:10189000D3F800C000290CF10108C3F800808CF8CF
:1018A0000040C1D1196800200870BDE8F001704700
:1018B00040010020640C010802490968497C00F0DD
:1018C00003B800004C0100202DE9F84F05460E46F4
:1018D000084600F00DFC8346DFF8C080304806EB78
:1018E000860A012758F82A90016831B92E49076005
:1018F0002C480860084603F071FC284906EB860076
:1019000001EB8004BBF1000F21D0584602F056FADB
:1019100000904FF07F4002F069FA00F0C9F8002211
:101920001146286800F08CFA2868428801885846D9
:1019300002F074FA48F82A506771009802F03EFAF3
:10194000304600F0D5FBE0B9607900BB23E048F8F1
:101950002A506771206918B101F0AEFE00202061A5
:10196000CDB10097E068A9683346421AA06869685B
:10197000411A286802F0A6F92061304600F0B8FB51
:1019800018B1012102F04CFA05E0607918B1277115
:10199000206902F06DF94846BDE8F88F10E9012092
:1019A0009001002025DD00089401002070B5064656
:1019B0000D461446104600F09BFB0300154804EB4F
:1019C00084010AD050F8210041688068711A2A1AEF
:1019D000BDE87040184602F01FBA00EB8104A2680F
:1019E000B24214BF01220022E368AB4214BF0123BC
:1019F00000231A4308BF70BD236943B150F821008A
:101A0000816840686A1A311A184601F07DFEC4E9FF
:101A1000026570BD10E9012070B51248012500680B
:101A2000417C114801EB810200EB8204657150F8A2
:101A3000220040B1084600F05BFB48B1BDE87040B1
:101A4000012102F0EDB9BDE870400848FFF73CBF46
:101A50006079002808BF70BD25712069BDE870401D
:101A600002F006B94C01002010E90120A00C010889
:101A7000C2B2CBB2D21A48BF524292B202FB02F3B8
:101A8000C0F30722C1F3072CB2EB0C0248BF52424D
:101A900092B2000CA0EB114002FB023200B200280F
:101AA000BCBF404200B280B200FB00207047000083
:101AB0002DE9F041002182B0084600F075FB43F6A5
:101AC000FF763746042004F04FFD80461148C06879
:101AD000C16C006D8D1B841B0E440744ADF8005093
:101AE000ADF80460ADF80240ADF80670684607F046
:101AF0009BFD48B13B4632462146284604F08CF90E
:101B000007F0E0FB0028F5D1404604F02DFD02B0BF
:101B1000BDE8F08140010020022BA4BF00207047E7
:101B20002DE9F04106461C4615460F461C20FFF7DE
:101B30005DFD002808BFBDE8F081002F18BF0761D8
:101B40000BD10A4A52F8241039B10A681AB1114669
:101B50001268002AFBD10969016184618582002134
:101B600001604160C0E90216BDE8F0816401002017
:101B70002DE9F04100241D46074688461646022BF3
:101B800027DA1C20FFF732FD18B3B8F1000F18BF99
:101B9000C0F810800BD1104A52F8251039B10A68EC
:101BA0001AB111461268002AFBD1096901618561E9
:101BB000868204604460C0E90247040009D000F056
:101BC00011F8E068006820B90448006800EB85005F
:101BD00084652046BDE8F081640100204C010020AE
:101BE000FFF7F6BC00281CBF8269022AA4BF0120AF
:101BF000704710B4244C54F82210002908BF44F850
:101C000022003AD04B682BB119465B68002BFBD100
:101C1000002935D0C3681B68D1F80CC0DCF800C0BF
:101C20009C4503DD09680029F6D129E041B3D1F8CC
:101C30000CC0DCF800C09C4504BFB0F814C0BCF177
:101C4000010F0DD1D1F800C0BCF1000F07D06146E3
:101C5000DCF80CC0DCF800C09C45F3DA00E079B198
:101C60004B68002B1DBF18604A68426044F8220090
:101C70004860884208BF0021016010BC0020704706
:101C800010BC012070470000640100200B4A8169EC
:101C900052F82130834204BF036842F82130416882
:101CA00000291CBF02680A60016800291CBF426845
:101CB0004A6000210160416070470000640100201B
:101CC0000228A4BF00207047064951F820000028D0
:101CD00008BF7047C168096800291CBF0068002858
:101CE000F8D170476401002070B5044602F00CFC86
:101CF00010EB040502F008FC2C1A002CD8BF70BDB4
:101D000000F014F9052CC8BF0524204602F0F0FBB2
:101D1000F0E700B585B00022CDF80CD003ABFFF79B
:101D200061FD684600F002F805B000BD002808BF5C
:101D300070472DE9F04F83B0054600F0EBF93B4CBE
:101D400080462068B0F9227000F006FA82462068CA
:101D5000818CA1EB0A0181842878002818BFA8F1A2
:101D6000010946D047F6FF71284603F0B1F88346D3
:101D70000146284603F072F82168064691F82C00C7
:101D800000F00300012808BF304605D0022812BF2A
:101D9000002006EBD67040104A8C101A4884ADF82B
:101DA0000000721E1044ADF80400888CADF80200EB
:101DB0004844ADF806006A465946284602F066FDDA
:101DC0002168BDF8020088845946284602F05CFA72
:101DD000054428780A2818BF0D2815D0BDF8000042
:101DE000216830444884287818B115F8010F00287C
:101DF000B8D12068818C51448184818D21F0030108
:101E0000818503B0BDE8F08F206890F82C1001F0B8
:101E1000030101291DBF0229018C418447842978CF
:101E20000A29E0D1818C41448184DCE74C01002007
:101E3000024B1B6859849A84FFF778BF4C0100203D
:101E40002DE9F04F374F044689B03868C36C006DF8
:101E50005E1885182088711E0844ADF81860ADF82A
:101E60001C006088691E0844ADF81E00ADF81A50C9
:101E700006A807F0D9FB002819BFDFF8ACB04FF077
:101E8000010A09B0BDE8F08F0020D4F80C9001F0F1
:101E9000B7FF8046B9F1000F1BBF99F80400002876
:101EA00028F0020048F0020001F0AAFF206970B19A
:101EB000D4E902120091CDE9012ACDF80CA0D0F8A6
:101EC00000C06388228829463046E04718E0386819
:101ED000DBF800302146427CE0689847D0B1A28808
:101EE000E388A168CDF800A0CDE90410CDE9023265
:101EF000CDF804A0638822882946304603F0E4FD2B
:101F0000404601F07DFF07F0DDF90028BCD109B0A3
:101F1000BDE8F08FE088012812BF00203868806B90
:101F2000DDE700004C010020440100202DE9F041D4
:101F3000154D00273C46286818B18047002818BF77
:101F4000012406F02BFA002818BF01240F4E306838
:101F500008B1804700B99CB101272868002418B156
:101F60008047002818BF012406F018FA002818BF7F
:101F70000124306810B180470028EDD1002CEBD14E
:101F80003846BDE8F0810000700100206C0100209F
:101F9000002808BF7047B0F806C083888068BCF18D
:101FA000080F02BF02FB0311405C704709DCBCF163
:101FB000010F0ED0BCF1020F17D0BCF1040F21D0DD
:101FC00005E0BCF1100F28D0BCF1200F2BD0002071
:101FD00070475A4302EBD10201F00701805CC1F166
:101FE0000701C84000F0010070475A4302EB91021C
:101FF000805C062202EA4101C1F10601C84000F0FE
:10200000030070475A4302EB510211F0010F805C4C
:1020100014BF00F00F00000970475B0802FB0311BA
:1020200030F8110070479B0802FB031150F82100A3
:102030007047DDF800C0082802BF0CFB0130105CBF
:10204000704708DC0CFB01F101280AD0022813D0EC
:1020500004281DD003E0102824D0202828D00020F8
:10206000704701EBD30003F00701105CC1F10701D9
:10207000C84000F00100704701EB93000621105C9E
:1020800001EA4301C1F10601C84000F003007047B6
:1020900001EB530013F0010F105C14BF00F00F00B0
:1020A0000009704748100CFB003032F810007047F0
:1020B00088100CFB003052F820007047034951F89B
:1020C0002000C1688A6A08211047000064010020CE
:1020D00002490968C9694A68002110474C0100207B
:1020E000024A1268D2695268104700004C01002071
:1020F000002102283CBF024951F8201008467047D1
:102100001402002002480068B0F924007047000063
:102110004C01002002480068C069407E7047000002
:102120004C01002070B514460D4603F0FFFE002858
:1021300008BF70BD00202860206070BD044AB2F95D
:10214000002002600348B0F90000086070470000FA
:102150008C0100208E0100200A490020096891F8B6
:102160002C2002F00C02042A07D0082A1CBF0C2ADB
:102170007047C869007E40087047C869007E401EED
:10218000704700004C010020024951F8200000690E
:102190000068704764010020024951F8200000697E
:1021A0004068704764010020024A12685084002091
:1021B000918470474C0100200249096888840020FE
:1021C000704700004C0100202DE9F04134480168BF
:1021D00021F0010101603348012686603249016027
:1021E00000683249884200D0FEE7314DA86960B9E5
:1021F000AE6102F065F904F03BFA05F11C012D48CF
:10220000086008466969416068612E20287002F004
:1022100081F9E868284C011DC0E90E010064091D20
:102220006161417C254850F82100C1680A6B04F1C6
:102230000801904722486066A868E061E8680830B5
:102240006061267606F054FAA064032084F86800E2
:102250006FF0704020636063002004F033F96FF08A
:102260007F4004F069F9174828610DF037F90446FA
:1022700003F0BEFE10B103F0FFFE38B903F011FF0A
:10228000074603F0CAFE394604F068F90021084603
:1022900001F0D0FD06F080FC6E702046BDE8F081B4
:1022A000002000E000300240C2A507F4CDB5E8B53B
:1022B00040010020F9DC0008A0E8012064010020B2
:1022C00020FD0008F00D010810B582B030B90F48AC
:1022D0000068006E002804BF02B010BDFFF700FACE
:1022E000009044696846FFF757FA002C04BF02B01B
:1022F00010BD2046FFF7F4F901908168896888478E
:1023000001A8FFF749FA02B010BD00004C010020FF
:1023100001490A4600F002B801F0FFFF002808BF9B
:1023200070472DE9F047814686B016460C460020DE
:1023300001F066FD2E4D80462868076E4846FFF77F
:10234000CFF900900068806901F038FD824640F6C0
:10235000FF70C44204D10098B0F90440B0F906609F
:102360000098621E0189ADF808401144ADF80C10C8
:102370004089711E0844ADF80A60ADF80E0005F002
:102380001BFE6846FFF708FA02A807F04DF940B1B6
:1023900032462146484600F043FC06F093FF0028F1
:1023A000F6D1504601F00AFD28683C00006E1BD0B3
:1023B000002818BF01F0F8FC05F0F4FE2046FFF7F6
:1023C0008FF9019029680C660068FFF70BFC01A8E3
:1023D000FFF7E2F904F03AF904F0A0F8404601F002
:1023E0000FFD06B0BDE8F08701F0DEFCF6E7000067
:1023F0004C0100202DE9F04F82461E48894683B0EB
:1024000000680C9E1F46417C1B4890464FF0000B15
:1024100050F82140E0680068042803D02468002CAC
:10242000F8D100E03CB90846FFF74AFC041E04BF9F
:1024300003B0BDE8F08FE0680121C26A20469047F2
:10244000050012D02469A0688047B0F1FF3F04BFA7
:102450000A4C46F001063B460096CDE9015442463F
:102460004946504600F066FA834603B05846BDE838
:10247000F08F00004C01002064010020F4160108D8
:10248000002808BF704738B504460D480068006E44
:10249000A04208BF01F088FC2046FFF721F9009018
:1024A0004069002818BF01F0F9FF00980068FFF7A5
:1024B00097FB6846FFF770F92046FFF765F838BDCF
:1024C0004C0100202DE9FF4F0546504883B01F46C0
:1024D0000068DDF840A08946447C4D48005701283B
:1024E000204606DD03F08AFD8346204603F0CAFD40
:1024F00005E003F031FD8346204603F056FD044617
:102500002DB302A901A8FFF719FEB5F90080B8F1B3
:10251000000FB8BF4FF00008B5F90260002EB8BF39
:102520000026B5F9041001985844401E8142C8BFE6
:102530000146B5F90600029A2244521E9042C8BFD5
:102540001046A1EB08014A1C801B441C03E04FF01D
:10255000000846465A46002F08BF6742002AC8BFF7
:10256000002C49DD3B4631464046CDF800A0FFF740
:1025700041FF5FEA000A43D000F06EF80746A04230
:1025800007D022480068806C00281CBF322107F069
:10259000C1FB504600F048F9DFF878B00025611B18
:1025A000B942BCBF504600F027F93DB1721941460F
:1025B000504600F05DF95046FFF786FE0598C84783
:1025C000DBF8001000291CBF002088475046FFF7A9
:1025D0009FFE3D44A542E2DB5046FFF751FF00203D
:1025E00000F022F9A74207D008480068806C002854
:1025F0001CBF332107F08EFB002007B0BDE8F08F31
:102600000598C84707B00120BDE8F08F4C010020B5
:10261000840100201C03002038B5002460B1FFF7BE
:102620005FF80090006800698068804704F070F9E6
:1026300004466846FFF7B0F8204638BD002808BFBA
:10264000704738B5FFF74CF800F118040090684661
:10265000FFF7A2F8204638BD38B5002418B907485E
:102660000068006E38B1FFF73BF80090B0F90A40FF
:102670006846FFF791F8204638BD00004C01002065
:102680002DE9F04F85B080464FF0000A4046FFF735
:1026900027F80390D0E90095D0F824B003A8FFF7FD
:1026A0007BF828B20FFA89F7C01B441C4FEA294671
:1026B000C6EB2540451C002CCCBF002D0AF1010AB9
:1026C0007EDDBBF1000F16D05846FFF709F80490E5
:1026D000B0F90440B0F9065004A8FFF75DF80FFA0E
:1026E00089F0A04208BFAE425AD032463946584619
:1026F00000F0BEF854E005F0FBFF804511D103F077
:1027000063FC814603F0A4FC4C45D8BF854208DD3C
:102710004C4562DC854262DC2A462146404606F092
:10272000B5FC314901202F4ACDE900010292314622
:1027300038462B46224600F0FDF806464046FEF796
:10274000CFFF03904662BEB3816A41F4803181625B
:1027500003A8FFF721F8304600F066F8074601208D
:1027600001F0E6FE3046FFF769FF04FB05F18A0041
:102770001E49097802F03AFD1D4D1E4C4046C5F831
:102780000080266805F0DAFF2060404607F08AF9ED
:1027900000202660286001F0CBFE384600F044F8A7
:1027A0004046FFF711F8406A0AF1010A40B105B04E
:1027B000BDE8F04F00F08EB803A8FEF7EDFF00E093
:1027C00004E0404607F06EF90AF1010ABAF1050F7C
:1027D000FFF65CAF05B0BDE8F08F4C469AE70546C2
:1027E0009AE70000F41601084C17010820030020A6
:1027F000800200208001002038B50C4628B9094825
:102800000068006E002808BF38BDFEF769FF009021
:10281000B0F90A10A142B8BF0C4644816846FEF7E1
:10282000BBFF38BD4C010020F8B5104E04003068E5
:10283000056E17D0002D18BF01F0B6FA05F0B2FCF6
:102840002046FEF74DFF009031680C660068FFF7E8
:10285000C9F96846FEF7A0FF03F0F8FE03F05EFE3C
:102860002846F8BD01F0A0FAFAE700004C0100206C
:1028700030B583B015460C4630B915480068006E77
:10288000002804BF03B030BDFEF72AFF2DB2009030
:10289000C58024B2848003F041FE0098406988B16D
:1028A000FEF71EFF009A0190B2F908108180B2F97C
:1028B0000A20C28000291EBF002A0480458001A88A
:1028C000FEF76AFF6846FEF767FF03B030BD000001
:1028D0004C01002070B584B0040004BF04B070BD8A
:1028E000FEF7FEFE0290B0F904600189B0F90650CF
:1028F000721E1144ADF80410ADF800604089691EE5
:102900000844ADF80600ADF8025002A8FEF744FFF7
:10291000684606F089FE002804BF04B070BD2A4650
:102920003146204600F062F906F0CCFC0028F6D1D2
:1029300004B070BD2DE9FF4FDFF8FCB083B01C463A
:10294000DBF80000DDE9108C92460027437C3A4614
:1029500060461299FFF7E0F8050068D028698068A2
:10296000804703F0D5FF81460AFB09F0C01DC60869
:10297000FEF7CCFE18F0010F05D1C11700EB9170E6
:10298000801000EB4000002C09DC002E1ABF183824
:10299000B0FBF6F000206442A042D8BF044618F015
:1029A000010F08D100200090DDE9030123465246C3
:1029B00001F0EEFC0746002C06DC2846FFF710F974
:1029C00007B00020BDE8F08F04FB06F0183018F0C7
:1029D000010F02D0FEF7B9FD01E0FEF7BBFD5FEA93
:1029E00000081CD0FEF77CFE0190056003998180F1
:1029F0000499C180A0F808A044814761C0E9036937
:102A000001A8FEF7C9FE1298C5F808802861DBF816
:102A10000000407CA86107B04046BDE8F08F284622
:102A2000FFF7DEF8002F1CBF3846FEF7ADFD002093
:102A300007B0BDE8F08F00004C0100202DE9F74FF2
:102A400096B014460F461698FEF74AFE0D90B0F960
:102A500008100791B0F90A5000680069D0F80480A6
:102A60000DA8FEF799FEDFF878915E4ED9F80000C8
:102A7000407C56F82000C1688A6A082190470A9075
:102A8000182824BF20200A90D9F80000407C56F86E
:102A9000200000690990D0E900615348814214BFC9
:102AA000012000201090002001F035FD00281CBFFF
:102AB00019B0BDE8F08F07983918D9F80000B0F9BF
:102AC0000C20891A491E0029C6BF079A511A079976
:102AD0000691B0F90810B94206DDC91B069A0F44E9
:102AE0000891511A069102E00021089106990029E7
:102AF000DCBF19B0BDE8F08F6119B0F90E20891A5A
:102B0000491E0029D2BF0C95691A0C91B0F90A0030
:102B1000A042DCBF00250C9804DD051B0C982C445A
:102B2000401B0C900028DCBF19B0BDE8F08F00BF3F
:102B30000699DDF820A0169805910DF1480BDDF8F7
:102B40001C90FFF77BFD09FB05F100EB8100CDE94F
:102B5000008B00EB8A0221463846059B01F064FF9A
:102B60005FEA000B04BF19B0BDE8F08F1098E8B120
:102B7000DDE909325846069901F0B4FDB0B909986B
:102B8000DDF81CA0D946D0F810C0BCF1000F05D06C
:102B90005946042352460846E04707E0D9F80000AA
:102BA000B04749F8040BBAF1010AF7D100200A999D
:102BB000CDE90210CDE904B001200190009021463A
:102BC0000346641C3846069A02F07EFF0C9805F115
:102BD0000105401E0C90ABD119B0BDE8F08F00008C
:102BE0004C0100206401002053610008F8B515462F
:102BF0000E460746FEF774FD009000681621C06877
:102C0000436A0020984704466846FEF7C5FD002C3D
:102C100008BFF8BD2A4631463846A047F8BD000037
:102C2000002808BF70472DE9F04FA1B090460E462E
:102C30000746FEF755FD1990D0F8149019A8FEF735
:102C4000ABFD3846FFF7E8FCF84D082803DDB9F185
:102C5000000F00F02782F649CDE91586D1E9000181
:102C6000CDE91C013C463846FEF73AFD1790D0F8F6
:102C70001490C1681291B0F9081007691491B0F965
:102C80000A100B9100680069406811902868407C28
:102C9000FFF714FA1B902868407CFFF77DFA064680
:102CA00017A8FEF779FD082F9CBF01200A9004D9D0
:102CB000102F94BF022004200A90012F0CBF0DF1A9
:102CC00070084FF000081198B04200F03181286878
:102CD000407CFFF759FA1E9014988000FEF735FCEF
:102CE0001890002804BF21B0BDE8F08F2046FFF700
:102CF000A5FC0890B9F1000F00F008814846FEF7E6
:102D0000EFFC1A9000200D900B98002840F3FA80F9
:102D1000002009901A980D9A81684B6909A9984773
:102D20000646149886424FD11898FEF7D9FC089DA4
:102D300004461390082F2ED90296DDF86CB0DDF80A
:102D400044A0DDF87890069435F8020BD047C847C8
:102D500044F8040B761EF7D1BBF1200F04D25A467B
:102D60000299069801F0F8FB139900201B9ACDF800
:102D70001480CDE9030101200090CDE901020D99F5
:102D8000159801230144149A169802F09DFE13A889
:102D9000FEF702FDABE0DDF86CB0DDF844A0DDF835
:102DA00078900396CDF8104015F8010BD047C8472E
:102DB00044F8040B761EF7D1BBF1200F3CBF5A46F6
:102DC000DDE90310D0D2CDE7012F28D0002E4FD05F
:102DD00015990D9808441F901898FEF781FC044639
:102DE0001390DDE908010A9A082F42D901FB020974
:102DF0001B98DDF844B0DDF878A0019035460594C5
:102E000039F8020BD847D04744F8040B6D1EF7D1B0
:102E10000198202849D202463146059843E0002E09
:102E200065D015990D980D18012409980094C117C3
:102E300000EB5173089900F0070201EBE301129BCC
:102E4000CDE90331CDE90582CDE90147169A29463E
:102E500010440123324603F05DFC09980D9A30447A
:102E600009901A9881684B6909A998470600DCD136
:102E70003DE001FB02051B98DDF844B0DDF878A0C9
:102E80000390B146CDF8104015F8010BD847D04754
:102E900044F8040BB9F10109F6D10398202804D2B3
:102EA00002463146049801F057FB139900201B9A03
:102EB000CDF81480CDE9030101200090CDE9010295
:102EC000099A16980123104432461F9902F0FCFD1E
:102ED00013A8FEF761FC09980D9A304409901A98DE
:102EE00081684B6909A9984706007FF475AF089976
:102EF0001298084408900D980B99401C0D90884238
:102F0000FFF606AF1AA8FEF747FC0EE01299CDF8BF
:102F10001480CDE9031001200090CDE90107DDE91F
:102F200015100B9B149A02F0CFFD189800F080BA90
:102F30002046FFF783FB0646B9F1000F75D04846DF
:102F4000FEF7CEFB1A900B9800250028C4BF4FF067
:102F5000000B4FF0010962DD1A98CDF824B02A4623
:102F600081684B6909A9984714990446884229D178
:102F70001A98AA466A1C81684B6909A99847A04219
:102F800008D11A98AA1C6D1C81684B6909A9984739
:102F9000A042F6D0CDF800901298CDF81480CDE97B
:102FA0000306CDE901971598A5EB0A0400EB0A0189
:102FB000631C149A169802F087FD1298611C01FB9D
:102FC000006628E0012F35D0002C1CBF159800EBBF
:102FD000050A1ED0DDE9090100FB0162CDF8009071
:102FE0001299CDF81480CDE90312CDE90197169A14
:102FF000514610440123224602F066FD09982A46F4
:10300000204409901A9881684B6909A998470400DF
:10301000E0D1129806440B986D1C85429CDB1AA8DF
:10302000FEF7BAFB21B0BDE8F08F2DE04C01002087
:10303000EC160108002C1CBF159800EB050AE8D01F
:103040000998129B00F00701CDF80090CDE90581A9
:10305000C21700EB527206EBE202CDE90332CDE972
:103060000197169A514610440123224603F052FB61
:1030700009982A46204409901A9881684B6909A941
:1030800098470400DCD1C4E71298CDF81480CDE94C
:10309000030601200090CDE90107DDE915100B9B27
:1030A000149A3BE0049704460C9647460498FEF7B2
:1030B00017FB1290B0F908100691B0F90A90C16898
:1030C000039100F1180102910068D0F810A012A835
:1030D000FEF762FB2868D849DAF804B0407C51F862
:1030E00020100D692E68FEF7E9FF082898BF4FF001
:1030F000010805D9102894BF4FF002084FF00408CA
:10310000AA450ED100200299CDE9041001200090BB
:10311000CDE901044B463946069A0C9802F0D4FCDE
:1031200080E7202C3ED0102C7FF47CAF069818FB53
:1031300000F0FEF70AFA149000283FF473AFFEF790
:10314000CFFA13900498FEF7CBFA1290296900F198
:103150001804002919BFDAF8141000294FEAC80032
:10316000109000F01C81B0F908008000FEF7EDF926
:103170000E90002808BF089000F05381FEF7B0FAC7
:103180000890002818BF4FEAC80600F04A8100BF27
:10319000B8F1010F76D0B8F1020F74D0B8F1040F76
:1031A00072D0E1E0069818FB00F0FEF7CEF914901B
:1031B00000283FF437AFFEF793FA13900498FEF718
:1031C0008FFA00F1180412902869002808BF4FEA0E
:1031D000C80B43D04FF0000A4FF0010B4FEAC8066E
:1031E000B8F1010F06D0B8F1020F0ED0B8F1040FFC
:1031F00016D01FE0D5F810C0139901232046069A77
:10320000E047069804EB800414E0D5F810C0139949
:1032100002232046069AE047069804EB800409E062
:10322000D5F810C0139904232046069AE047069863
:1032300004EB800413983946CDE903A0CDF800B023
:10324000CDF814A0CDE901B67F1C0123069A0C9895
:1032500002F03AFCB9F10109C2D140E0069DB8F193
:10326000010F08BFDDF84CA00FD0B8F1020F08BF66
:10327000DDF84CA011D0B8F1040F08BFDDF84CA068
:1032800013D019E035E048E05BE054F8040BB04798
:103290000AF8010B6D1EF8D10EE054F8040BB0478C
:1032A0002AF8020B6D1EF8D106E054F8040BB04763
:1032B0004AF8040B6D1EF8D113990020CDE90301E3
:1032C000059001200090CDE9010B394603467F1C93
:1032D000069A0C9802F0F8FBB9F10109BED112A8C8
:1032E000FEF75AFA13A8FEF757FA1498FEF74CF9AE
:1032F00098E6DAF814C0DDF84CB002232046069AAE
:103300000899E047D5F810C001235946069A089855
:10331000E047069804EB400426E0DAF814C0DDF834
:103320004CB002232046069A0899E047D5F810C011
:1033300002235946069A0898E047069804EB400491
:1033400012E0DAF814C0DDF84CB002232046069AE9
:103350000899E047D5F810C004235946069A089802
:10336000E047069804EB400413990020CDE90301DF
:10337000059001200090CDE90106394603467F1CE7
:10338000069A0C9802F0A0FBB9F101097FF400AF96
:1033900008A8FEF701FA0E98FEF7F6F841E0069D40
:1033A000B8F1010F08BFDDF84CA00CD0B8F1020F46
:1033B00008BFDDF84CA00FD0B8F1040F08BFDDF84E
:1033C0004CA012D019E034F8020BD847B0470AF8E5
:1033D000010B6D1EF7D110E034F8020BD847B0474F
:1033E0002AF8020B6D1EF7D107E034F8020BD8471C
:1033F000B0474AF8040B6D1EF7D100201099CDE9B3
:103400000210139ACDE90420012001900090394662
:1034100003467F1C069A0C9802F056FBB9F101098D
:10342000BDD112A8FEF7B8F913A8FEF7B5F91498A4
:10343000FEF7AAF8F6E5000064010020002808BFA6
:10344000704700290CBF1146002A20D0B1F900C0F6
:10345000B2F900309C45B8BF63460380B1F902C0A1
:10346000B2F902309C45B8BF63464380B1F904C04D
:10347000B2F904309C45C8BF63468380B1F9061099
:10348000B2F906209142D8BF1146C18070470A6840
:103490004968026041607047002808BF7047038890
:1034A0000B44038083881944818041881144418002
:1034B000C1881144C1807047134A10B4D2E9001387
:1034C000994212D1114A914219BF51E9032351F88F
:1034D000041CD1E90F23496C0260C0E90131007A74
:1034E000002818BF012010BC7047D1E90034D1F882
:1034F00008C0C0F808C0C0E90034054B99420CBFB1
:1035000002490C311160EAE70802002044E9012079
:1035100080E901200348D0E9001081420CBF01205E
:10352000002070470802002070B5204A204B1E4939
:103530001160D3E900C18C451AD01E4CA1420CBFCA
:1035400004F13C02A1F10C02057A167AB5420FD1C2
:1035500094450DD0A2420CBF04F13C020C3A127A01
:10356000954205D1A14214BF0C3904F13C015960C8
:10357000D0E9002485688D60C1E900240E4A91429B
:103580000CBF0C490C3159608C4505D1944514BFD2
:103590000CF10C01074919609968002918BF884788
:1035A000BDE8704000F07CBC558700087401002025
:1035B0000802002044E9012080E901200A4B002094
:1035C000D3E900218A4208BF7047DFF820C0D2E962
:1035D000000162450CBF064A083210B51A6005F0BA
:1035E000F7FB012010BD0000FC02002018EA0120BA
:1035F000C8E9012070B51D4C82B02468DDE9066C75
:10360000B4F90850854226DCB4F90C50954224DB0D
:103610008242BCBF02B070BDB4F90A508D421EDCBC
:10362000B4F90E509D421DDB8B42BCBF02B070BD91
:10363000DCF80C402468002C18BF042C05D0DCF802
:103640000040002C18BFA446F2D1CDE9006C02F076
:1036500003FE02B070BD2846D6E72A46D8E7B4F983
:103660000A10DDE7B4F90E30DEE700004C0100205F
:10367000B0F90220B1F906309A4213DCB1F9022008
:10368000B0F906309A420DDCB0F90020B1F90430EF
:103690009A4207DCB1F90010B0F904008842A4BFD7
:1036A00001207047002070470146024870220068E0
:1036B000FCF7B7BD4C010020002808BF704738B5A3
:1036C00004460BF083FA2046FEF70AF800900068E3
:1036D000FEF7DCFA6846FEF75FF82046FEF700F8D2
:1036E00000900068FDF774FF0098C068FDF74CFF7C
:1036F0000098C069FDF748FF6846FEF74DF8204680
:10370000FDF742FF38BD0000002808BF70472DE9D3
:10371000F04FB1B0CDE91F21FDF7E2FF0390016842
:103720001091B0F9042020998A420AD1B0F906100C
:103730001F98814205D103A8FEF72EF831B0BDE8ED
:10374000F08F0020FFF770F8299010988069219081
:10375000FE48016821984A7C2492904218BF487420
:103760000398B0F90480B0F906101291B0F908106E
:10377000A1EB0801491C0A91B0F90A201299511ACB
:10378000491C279100210E91017C11F0020F00F0DD
:103790004B82416920300F9020981A91A0EB0806C7
:1037A00012991F98401A1790002E08DD00202390D0
:1037B0000A9F1496781E4FF0010A19900AE00A98A1
:1037C0004FF0FF3A401E2390002014902398574654
:1037D000304419901798002809DD01201890279887
:1037E00000241390401E1C9017981D900CE04FF081
:1037F000FF3018902798441E4FF0FF3013900020A0
:103800001D90179820441C90109DD14A04A9A869C6
:103810004FF000091056012810DDADF81290ADF8F8
:103820001090A86902F0EAFB401EADF81400A869E8
:1038300002F028FC401EADF8160003E0E868026BB9
:10384000284690475146039806F0E4FE269000284B
:1038500000F0EA815146039806F0DCFE2290002831
:1038600000F0DE810398C068002800F0F480FDF7C6
:1038700037FF029425901398844200F0E8801D9948
:1038800002988842A5BF1C998142002001202A90FD
:1038900012990298239C01441798BC42084407904F
:1038A00000F0CC8002990A9848432E90179902980C
:1038B000401A2B900299129808442C904FF000095E
:1038C0002146029A1A98FEF763FB5FEA000B77D055
:1038D0000F9800EB84012E9801EB8000169008EB06
:1038E000040085191498A042DCBF1998844204DCB6
:1038F0002A98002818BF012000D100202D90BDF982
:103900001000A84241DCBDF9121007988142DCBFCB
:10391000BDF91400854238DCBDF9161007988842BD
:1039200033DC0B9010980D9003981190B0F90400BF
:10393000A84237DC1199B1F90820954232DC11997F
:103940000B9AB1F9061091422CDC119AB2F90A30A7
:103950000B9A9A4226DCA5EB00090B98401A0090BE
:1039600011984946009A4069FEF712FBD0B11198B0
:10397000009AB0F90810B0F90400081A411C119817
:1039800001FB0291203050F821902D98C8B1A11B65
:103990005CBF2B9800282ED402461A98FEF7F8FA3E
:1039A00048BB0EE00D980068002808BF4FF00009E2
:1039B000EBD0C1680B9A4B69294698478146E4E7EA
:1039C00038E0BDF9102004EB08002C998242DCBFDE
:1039D000BDF912208A420EDCBDF914208242A4BF38
:1039E000BDF916208A4206DB229A0092169A109B95
:1039F00012680AF08FFCBDF91000A84217DCBDF96F
:103A0000121007988142DCBFBDF9140085420EDC1C
:103A1000BDF916100798884209DC2598109B079974
:103A200050F82B202698009028460AF073FC169830
:103A3000C0F800905444BC427FF440AF18990298FB
:103A4000084401460290139881427FF418AF25A8DC
:103A5000FDF7A2FEE0E01398029484427CD0029924
:103A60001D98814205DB08461C998842D8BF012079
:103A700000DD00202A9012990298239C084417998F
:103A8000BC420844079068D00A99029848432C9099
:103A900002991798081A2B9012980844CDF8B8008C
:103AA0004FF000092146029A1A98FEF771FA4FEA80
:103AB000106B2890BBF1FF0F7DD00F9800EB8401B5
:103AC0002C9801EB8000169008EB040085191498DF
:103AD0008442A4BF1998A04204DB2A98002818BF8A
:103AE000012000D100202D90BDF91000A8421EDC5D
:103AF000BDF9121007988142DCBFBDF91400854260
:103B000015DCBDF916100798884210DC01462846DE
:103B1000039B109A09F029FA0E49219A814620F058
:103B20007F4051F822100969496888470E902D9806
:103B300058B1A11B5CBF2B98002829D402461A98C3
:103B4000FEF726FA000EFF2822D107E04C010020E4
:103B500084010020640100205EE055E0BDF91020E2
:103B600004EB08002E998242DCBFBDF912208A4284
:103B70000EDCBDF914208242A4BFBDF916208A4292
:103B800006DB229A0092169A109B12680AF0C2FB7A
:103B9000BDF91000A84230DCBDF91210079881422F
:103BA000DCBFBDF91400854227DCBDF9161007986B
:103BB000884222DC00E023E02B49219A2898BBF1BF
:103BC000000F51F8221020F07F40096949680BD09E
:103BD0008847CBF1FF020E9901F064FA2249219A3D
:103BE00051F8221009690968884726990091024610
:103BF0002846109B07990AF08DFB1698C0F8009094
:103C00005444BC427FF44CAF18990298084413996D
:103C1000029088427FF423AF229903980AF045FA74
:103C2000269903980AF041FA0398209981801F99F8
:103C3000C1800A9A20991144491E0181279A1F992F
:103C40001144491E418124992198884203D0084695
:103C50000649096848742998FEF7E6FD03A8FDF7B0
:103C60009BFD31B0BDE8F08F640100204C010020C5
:103C7000002808BF704710B582B00446FDF730FD3C
:103C80000090007C10F0020F17D12046FDF728FDB0
:103C900001900068FDF7A6FF01A8FDF77DFD6846CD
:103CA000FDF77AFD20460AF037FE2046FDF718FDA5
:103CB0000090018A41F0020101826846FDF76CFD27
:103CC00002B010BD2DE9F04385B004460088DDF850
:103CD00030901746884600281CBF608800283AD0DC
:103CE000E06830B18068002804BF05B0BDE8F0830B
:103CF00002E0E08820282ED109F0010200212548A9
:103D0000FDF70AFF060026D020886188800048431E
:103D10002030FDF71FFC050021D02846B560FDF7D7
:103D2000DFFC0390A0F810904461A0F80480C780E5
:103D300021884144491E018161883944491E4181DD
:103D4000066003A8FDF728FDE06878B12146284603
:103D500006F0BEFC50B105B00020BDE8F08330464F
:103D6000FDF73EFF05B00020BDE8F08319F0020F1B
:103D70000CD02846FDF7B4FC00900068FDF732FF38
:103D80006846FDF709FD28460AF0C6FD05B028463D
:103D9000BDE8F083BC0D0108024970220968FCF7F8
:103DA00040BA00004C01002010B502F067FB02F0A1
:103DB0004DFCBDE8104004F0FFB8000070B5094D9F
:103DC0000446022C2868467C09D22046FDF778FF7D
:103DD00028B128684474FFF7E7FF034804603046C1
:103DE00070BD00004C0100206002002002F06ABBA0
:103DF00002F0A2BB0149886070470000400100202A
:103E000002F0B2BB034900280968CA6918BFC8613B
:103E1000104670474C01002002F0C2BB02F0D6BB36
:103E200002F000BC024909688A7E88761046704715
:103E30004C010020084A1080084A1180084A126884
:103E4000537C084A52F82330DA68D2F820C00A4678
:103E500001461846604700008C0100208E010020BA
:103E60004C01002064010020024909680A7E08769E
:103E7000104670474C01002003490968B1F92C2015
:103E800088851046704700004C01002003490968EE
:103E9000B1F92A2048851046704700004C010020E7
:103EA00002480068002808BF704700470C03002044
:103EB00003498A68002A08BF8860FFF7F1BF000045
:103EC000FC020020002808BF704770B5294E044648
:103ED00084B03068A04218BF054606D1FDF700FC4B
:103EE000009080683060684610E02846FDF7F8FBD7
:103EF00001908068A04219D1FDF7F2FB0199009072
:103F0000806888606846FDF747FC01A8FDF744FC1F
:103F10004CB32046FDF7E4FB00907568A5420AD13A
:103F2000406870606846FDF737FC1CE0054601A854
:103F3000FDF732FCD9E79DB12846FDF7D1FB019092
:103F40004568A54207D1009801994068486001A8DA
:103F5000FDF722FC04E001A8FDF71EFC002DEBD1CB
:103F60006846FDF719FC04B02046BDE87040FDF737
:103F70000BBB00003403002038B50C46002808BFF6
:103F800001240AD0FDF7ACFB00908089204214BFC9
:103F9000012400246846FDF7FFFB204638BD0000E1
:103FA00038B50446002020600648056845B128461B
:103FB000FDF796FB0090006920606846FDF7ECFB7A
:103FC000284638BD3403002038B504004FF0000007
:103FD0000D46086011D02046FDF782FB00908468F2
:103FE00044B16846FDF7D8FB2046FDF779FB009009
:103FF000006928606846FDF7CFFB204638BD000009
:104000002DE9F0473C4C80462DED028B0F46D8F849
:104010000060E16801208E42BCBFBDEC028BBDE8B0
:10402000F0873D6821698D42A1BF6169B142A169F4
:10403000A9425DDB216800295AD000EE106ADFF842
:10404000BC90B8EEC00AD9ED000A99ED011A60EEF5
:10405000800A00EE105AB8EEC00A41EE000A99ED4F
:10406000020A30EE800A10EE100AFCF7DFF99FED2D
:10407000248B53EC182BFCF713F9FCF7B8F900EE7E
:10408000106AC8F80000D9ED030AB8EEC00A99ED2D
:10409000041A60EE800A00EE105AB8EEC00A41EE33
:1040A000000A99ED050A30EE800A10EE100AFCF7BE
:1040B000BDF953EC182BFCF7F3F8FCF798F93860CE
:1040C000D8F800200020002AB8BFC8F8000005DB9F
:1040D00061689142DCBF491EC8F8001039680029A8
:1040E000B8BF386004DBA2688A42DCBF511E396069
:1040F000BDEC028BBDE8F0871C0200208CE901209A
:10410000000000000000E03F70B5274C86B06078EA
:1041100000B300F09DF8E06000F098F8E0680390CC
:104120002069049000F042F88DF8090004A903A862
:10413000FFF766FF0025B8B1A078002831D060688D
:104140000090A06801908DF80850684600F050F883
:10415000A57026E000F07FF8206100F078F8607824
:10416000401C607006B070BD039A6068111A48BFA9
:104170004942049BA068181A48BF404294F802C004
:10418000BCF1000F02D0084402280ADD62600092F0
:10419000A360012601938DF80860684600F028F8B6
:1041A000A670657006B070BDA00100200148407A7D
:1041B00070470000A4E901200649D1E90023D1F8A5
:1041C00008C0C0F808C0C0E90023087A002818BF5A
:1041D0000120704738E901200148C068704700009D
:1041E000A00100200148006970470000A0010020E4
:1041F00010B584B004460C221249FCF744F800289C
:1042000004BF04B010BD0F48D4E90012A368836056
:10421000C0E900120C480268002A08BF20460DD0F1
:10422000D4E90001A368CDE900010293684601A921
:10423000904700280EBF684604B010BDFFF774F920
:1042400004B010BD38E901209C0100207047704780
:10425000902005F0C7BED02005F0C4BE2DE9F04186
:10426000084E0446056830680168284688470746B6
:104270003068416828468847284420603846BDE8B1
:10428000F0810000500100202DE9F0410024064695
:104290004D1E28BF064F07D338684168304688470F
:1042A000064404446D1EF7D22046BDE8F0810000AC
:1042B000500100202DE9F0411F46069D1446884616
:1042C00006462246B068641C3B46D0F804C041460E
:1042D0003046E0476D1EF4D1BDE8F08170B5B0F90D
:1042E00000C0A1EB0C01B0F904C08C45D8BF70BD73
:1042F00000F1140CB0F902400069121B02FB00C06F
:1043000000EBE104C818421ED010B0EBE1004FF002
:10431000FF0302F00702C2F1070201F0070103FAEE
:1043200002F223FA01F1D5B210D02278461E1143D1
:1043300004F8011B002E05DDFF2231462046FBF765
:1043400090FF344420782843207070BD20782940A5
:104350000843F9E7B0F90030B0F902C0C91A00F11A
:1043600014030069A2EB0C0202FB003000EBE10039
:1043700001F007010278802323FA01F11143017053
:104380007047B0F90610026951431430FBF770BF53
:104390002DE9F843804602F10F000011460003FBAF
:1043A00006F01C4615460F461430FDF7D3F85FEAB9
:1043B000000908BFBDE8F883FDF792F90090A0F866
:1043C000008047808580C48005498160012181810A
:1043D00006616846FDF7E0F94846BDE8F88300004D
:1043E0008017010830B4B0F90650B0F904400B68EA
:1043F00000F1140C954220DD00699C4202FB00C0D4
:1044000000EBE30C19DD601EC010A0EBE3041CF808
:10441000010B03F00702904010F0FF0009D164B1D6
:104420001CF8010B03F10802641E22F007030028A8
:10443000F5D010F0800F09D102E030BC00207047A9
:104440004006000E5B1C10F0800FF9D0FF2816BF4D
:104450001A46DA1D10F0400F05D04006000E521C1F
:1044600010F0400FF9D1072090430ED1641E0CD4F8
:104470001CF8010BFF280DD010F0800F05D040066E
:10448000000E521C10F0800FF9D10B60D01A30BC16
:10449000401C70470832641EEAD5F6E738B5054679
:1044A000FDF71EF900908189491E0CB2848168468F
:1044B000FDF772F9002C04BF2846FDF765F838BDFA
:1044C00010B54FF4C834214600200BF067FB064AB4
:1044D00010602146FDF750F88020FDF74FF9BDE848
:1044E00010400248FFF786BC0C010020E0090108DB
:1044F00003490A6810440A68821A002AFBDC7047E4
:10450000100100207047000001480068704700005B
:1045100010010020704700B583B0002814BF02AA24
:104520000022002301A9684600F046FC03B000BD4C
:10453000084910B50C78002814BF0120002008702D
:1045400014BF4FF0FF306FF07F4001F0A7FA204614
:1045500010BD00008601002030B4082A1FDC03468D
:10456000012A47D0022A7CD0042A7BD00129D8BF57
:104570000121181F5A1E11F0010F03D010F8043F3B
:1045800002F8013F491007D00379537010F8083F33
:1045900002F8023F491EF7D130BC01207047102AB3
:1045A000C2BF002030BC70470129D8BF00211CDDEC
:1045B000A1F1010CBCF1000F15DD021F831E11F0EB
:1045C000010F03D132F8044F23F8024F54685FEA19
:1045D0006C0C08D032F8085F5C80546823F8045FE4
:1045E000BCF1010CF6D1491ED6D430F8212020F8B8
:1045F0001120D1E710F8042BD207120E491E38D033
:1046000010F804CB491E0CF0010C42EA8C1230D099
:1046100010F804CB491E0CF0010C42EA4C1228D0D1
:1046200010F804CB491E0CF0010C42EA0C1220D009
:1046300010F804CB491E0CF0010C42EACC0218D051
:1046400010F804CB491E0CF0010C42EA8C0210D089
:1046500010F804CB491E0CF0010C42EA4C0208D0C1
:1046600001E00BE02CE010F804CB0CF0010C4CEA5C
:10467000020203F8012B0029BCD18DE710F8042BAE
:104680009207120E491E16D010F804CB491E0CF0EA
:10469000030C42EA0C120ED010F804CB491E0CF0A9
:1046A000030C42EA8C0206D010F804CB491E0CF031
:1046B000030C4CEA020203F8012B0029DED16BE760
:1046C00010F8042B1207120E491E06D010F804CB66
:1046D000491E0CF00F0C4CEA020203F8012B0029D2
:1046E000EED159E708B54FF0000CCDF800C000F04E
:1046F00001F808BD2DE9F0410D46069E0446002E46
:1047000008BF06461F68082A08DC012A1ED0022AB4
:1047100067D0042A7ED0082A7DD0B3E0102AC4BF17
:104720000020BDE8F081D3F810C0BCF1000F05D027
:104730000A46022331462046E047A3E054F8040B22
:10474000B84726F8020B6D1EF8D19BE054F8040B15
:10475000B847C0074FEA10686D1E3DD054F8040BEF
:10476000B84748EA801000F0FF086D1E34D054F8B6
:10477000040BB84748EA401000F0FF086D1E2BD02C
:1047800054F8040BB84748EA001000F0FF086D1E0B
:1047900022D054F8040BB84748EAC00000F0FF08E4
:1047A0006D1E19D054F8040BB84748EA800000F099
:1047B000FF086D1E10D054F8040BB84748EA4000BB
:1047C00000F0FF086D1E07D054F8040BB84740EA0C
:1047D000080000F0FF086D1E06F8018B002DB5D112
:1047E00050E054F8040BB84780074FEA10686D1E7C
:1047F0001CD054F8040BB84748EA001000F0FF083A
:104800006D1E13D054F8040BB84748EA800000F03E
:10481000FF0801E00FE023E06D1E07D054F8040B01
:10482000B84740EA080000F0FF086D1E06F8018B4B
:10483000002DD6D126E054F8040BB84700074FEA04
:1048400010686D1E07D054F8040BB84740EA080002
:1048500000F0FF086D1E06F8018B002DEBD111E072
:10486000D3F810C0BCF1000F05D00A460123314631
:104870002046E04706E054F8040BB84706F8010B61
:104880006D1EF8D10120BDE8F08100002DE9F04354
:1048900006466148DFF88481614C0068614D85B04F
:1048A0000F46002843D0002004F0BEFE002804BFBD
:1048B00005B0BDE8F083E94604970296D8F80020D9
:1048C00004A93046904702902068406918B14946D3
:1048D000FEF7CEFE20B3012000F066FB2068C06921
:1048E000406920B1826804990298904715E00498C5
:1048F000401E049011D402A8FFF7B0FC8146206846
:10490000C069016848468847296800291CBF484695
:1049100088470498401E0490EDD5002000F044FB29
:1049200004F0D0FC0028C6D105B0BDE8F083516882
:104930001068CDE900012068BDF80010B0F84C20E7
:104940001144ADF80010BDF80210B0F85020114429
:10495000ADF80210BDF80410B0F84C201144ADF8C9
:104960000410BDF80610B0F850000844ADF8060079
:10497000684604F059FE002840D000BF2068BDF80A
:104980000010E9464184BDF8021081840497029624
:10499000D8F8002004A9304690470290206840696A
:1049A00018B14946FEF764FE20B3012000F0FCFA7E
:1049B0002068C069406920B18268049902989047D4
:1049C00015E00498401E049011D402A8FFF746FC9D
:1049D00081462068C06902684846904729680029D6
:1049E0001CBF484688470498401E0490EDD500201F
:1049F00000F0DAFA04F066FC0028BFD12068418C90
:104A0000B0F84C20891A4184818CB0F85020891A62
:104A1000818405B0BDE8F0838801002004020020F5
:104A20004C010020780100202DE9FF4F93B00020B9
:104A3000DDF884A0934611901D4680460246CAF8D0
:104A400000000FAB03A904A800F0B6F900281EBFB0
:104A5000002017B0BDE8F08F0F98854200F3EE807C
:104A6000774C78492068407C51F8201005910969FD
:104A70000691FDF723FB07902068407CFDF78CFB37
:104A80000646714886421BBF7048864200200120BE
:104A90001090139948190B9020995BF8040B8847E4
:104AA0000A905FEA106975D01198002839D11398DF
:104AB00000EB080762480068B0F90800B842C6BFBA
:104AC000C41B07460024DDE9040100EB880000EB6D
:104AD0008400CDE900010B98149B421E194638460C
:104AE000FEF788FD01201190079818280ADA04982B
:104AF000DDE9063200EB880000EB8400291B00F0A2
:104B0000A9F80EE0109860B1049800EB880000EB63
:104B100084040B98C71B2068B04744F8040B7F1E21
:104B2000F9D14B48C069A0B3DDE9036000EB880010
:104B300006EB8802CDE90320DFF814C1ABF10400D5
:104B40000446DCF81CC02B460499E0474FF07F4038
:104B5000216830EA010207D0049A126830EA0202A2
:104B600004BF039A116003E00499039A0968116075
:104B70000499241D091D04910399091D03916D1EBB
:104B8000E6D10396DAF8000040F00100CAF8000010
:104B900049E000E039E0B9F1FF0F48D004994FF047
:104BA0007F430A9851F82810C9F1FF0233EA010C3B
:104BB0002BD000F0FF0C1CFB02FC00F47F4454439C
:104BC00000F47F00504319FB02F7C2F1FF0201F02D
:104BD000FF0919FB02CC01F47F4909FB024401F4EF
:104BE0007F0909FB0200090E11FB0271CCF30722B9
:104BF0004FF47F4C0CEA142C1C0A04EA102042EA01
:104C00000C0203EA014110430843039941F82800CC
:104C1000DAF8000040F00100CAF800006D1E08F14B
:104C200001087FF439AF039817B0BDE8F08F0498FE
:104C3000039950F8280041F82800EFE705460FE7F0
:104C40004C010020640100205361000851610008FC
:104C5000BC0200200029D8BF70472DE9F05F0C4648
:104C60005F6800EB8406082A15DC611E012A2FD03C
:104C7000022A52D0042A77D0082A0CBF0519BDE8B1
:104C8000F09F00BF15F8010DB84746F8040D641EEB
:104C9000F8D1BDE8F09F102AC8BFBDE8F09FD3F857
:104CA00014C0BCF1000F08BF00EB440507D0BDE8FD
:104CB000F04F0A46022301465DF804EB604735F8E1
:104CC000020DB84746F8040D641EF8D1BDE8F09F08
:104CD00000EBE105A6F1040901F0070615F801A9AA
:104CE000802020FA06F800BF0AEA0801C6F1070092
:104CF00021FA00F0B84749F8040946B14FEA486084
:104D00004FEA1068761E641EEED1BDE8F09F15F8DC
:104D100001A907264FF00108F5E700EBA105A6F170
:104D2000040901F00306700015F801A9C02121FA59
:104D300000F84FF0060B00BF0AEA0800ABEB460193
:104D4000C840B84749F804094EB14FEA88604FEAB5
:104D50001068761E641EEFD1BDE8F09F04E00326C4
:104D600015F801A9B046F5E700EB6105A6F10409C5
:104D7000012020EA0406B00015F801A9F02121FA6B
:104D800000F84FF0040B00BF0AEA0800ABEB860105
:104D9000C840B84749F8040946B14FEA08704FEADD
:104DA0001068761E641EEFD1BDE8F09F15F801A9CA
:104DB00001264FF00F08F5E72DE9F047244C804617
:104DC0009946A06916460F46002540B90120A0610A
:104DD00004F120011F480860084600F0FFF96069EF
:104DE00030B91D480068606110B901F0C4F8606115
:104DF000B9F1000F18BFC9F80000B8F1000F0BD0CF
:104E0000A06838B960698000FCF7F0FBA06000285A
:104E100008BF0125C8F8000057B1E06838B96069DB
:104E20008000FCF7E3FBE060002808BF0125386044
:104E300056B1206938B960698000FCF7D7FB206162
:104E4000002808BF012530602846BDE8F087000033
:104E5000BC02002079DD00087C01002073B51A4AED
:104E600082B003A91268029890470024029000289B
:104E700027D0164900250968C969496900291CBF5E
:104E80000A68002A03D00399904704B070BD0398C4
:104E9000401E03900AD402A8FFF7E0F90546FDF78B
:104EA00017F904440398401E0390F4D500262846C1
:104EB00069460096FDF714F900998142C8BF0E1AA1
:104EC000344404B0204670BD040200204C01002090
:104ED00073B50D4600980024B8B10D490968C96939
:104EE000496900291CBF4A68002A03D02946904717
:104EF00002B070BD002D08DD6846FFF7AFF900284D
:104F00001EBF0A28641CAC42F6DB02B0204670BD0E
:104F10004C010020B0F90030B1F900209342C8BF25
:104F20001A460280B0F90230B1F902209342C8BF9C
:104F30001A464280B0F90430B1F904209342D8BF38
:104F40001A468280B0F90620B1F906108A42C8BF1D
:104F50000A46C280704730B4B1F900C0B2F90030DF
:104F60009C45C8BF63460380B1F90240B2F902C054
:104F70006445C8BFA446A0F802C0B1F90450B2F914
:104F80000440A542B8BF2C468480B1F90610B2F99E
:104F900006209142A8BF1146C1809C42AABF61452C
:104FA0000020012030BC7047014602480068407C68
:104FB00000F002B84C0100202DE9F8430126884694
:104FC0000446022818DA354F7A68002A18BF90473D
:104FD000334DB8F1000F3FD0B8F1010F03D0B8F155
:104FE000020F23D008E055F82400002818BF401C09
:104FF00005D000BF45F824003046BDE8F8832046C0
:10500000FCF75EFE00900028F6D0C0680D21426AD1
:10501000684690470200EFD041460098904755F807
:1050200024000026401C45F82400E5E72046FCF754
:1050300047FE00900028DFD0C0680D21426A684614
:1050400090470400D8D03868002818BF80474146F0
:105050000098A0470026CFE755F82400012814D176
:105060002046FCF72DFE009078B1C0680D21426A01
:10507000684690475FEA000907D03868002818BFE3
:10508000804741460098C847002655F8240000286C
:1050900014BF01210021401AACE70000E402002007
:1050A000F40200204FF07F4333EA010C08BF704741
:1050B00070B400F0FF0C1CFB02FC00F47F4400F411
:1050C0007F0554435543000E10FB02F6C2F1FF006A
:1050D000CAB212FB00C201F47F4C0CFB004C01F47D
:1050E0007F0404FB0054090E11FB00604FF47F4164
:1050F00001EA1C214FF47F0C0CEA142CC2F30722A6
:10510000114370BC03EA004041EA0C0108437047B8
:105110002DE9F84F002300930D9BDDF838A0002BFC
:1051200086BF4FF0FF0E4FF07F45BDE8F88F0C9C17
:1051300050F8049B51F8043BAEEB196C0CFB0AFCD5
:105140000CEBCC1606EBCC3CCCF3C75C35EA030683
:1051500032D009F0FF0616FB0CF609F47F4709F47C
:105160007F0807FB0CF708FB0CF84FEA196919FBDD
:105170000CF9CCF1FF0C03F0FF0B1BFB0C6603F4E6
:105180007F4B0BFB0C7703F47F0B0BFB0C881B0E88
:1051900013FB0C93C6F3072C4FF47F4606EA172641
:1051A0004FF47F0707EA18274CEA060C05EA034389
:1051B0004CEA070C4CEA030929F07F4342F8043B10
:1051C000641EB5D10A9BDDF834C001EB8301009B5E
:1051D0005B1C00936345AAD3BDE8F88F02494A6976
:1051E00042604861704700004001002070B402E056
:1051F00000F8011B521E002A18BF10F0030FF7D150
:10520000930835D001EB014C02F003020CEB0C2C9F
:10521000032B1ADD5C42E51704EB9574A41065427C
:10522000002DC4BF04462E460FDD00BF44F804CB5A
:10523000761E44F804CB44F808CB44F804CCF5D1EE
:105240006C4200EB051003EB8403002B23DD041FED
:1052500013F0010F18BF44F804CF5D1006D000BF53
:10526000C4F804C044F808CF6D1EF9D100EB8300E8
:10527000002A18DD401E12F0010F18BF00F8011FB0
:10528000521004BF70BC7047417000F8021F521EDC
:10529000FAD170BC7047002BEAD000BF40F804CBB5
:1052A0005B1EFBD1E4E7002A04BF70BC704700BF5F
:1052B00000F8011B521EFBD170BC704770B410F097
:1052C000020F02D020F8021B521E53083CD001EB03
:1052D000014C042B25DB40F804CB1B1F40F804CB0A
:1052E000032B40F808CB40F804CC1ADD5C42E517EC
:1052F00004EB9574A4106642002EC4BF04463546E4
:105300000FDD00BF44F804CB6D1E44F804CB44F815
:1053100008CB44F804CCF5D1744200EB061003EB43
:105320008403002B16DD041F13F0010F18BF44F88F
:1053300004CF5D1006D000BFC4F804C044F808CF05
:105340006D1EF9D100EB830012F0010F18BF018030
:1053500070BC7047002BF7D040F804CB5B1EFBD12C
:10536000F2E7FEE7002904D0018841F48061018062
:105370007047018821F48061018070470346002056
:105380009A8A1B8B1B041A4322F07F42914300D15F
:1053900001207047002904D0018841F001010180FB
:1053A0007047018821F00101018070471CB501217F
:1053B000480501F09DFB0121022001F07DFB012148
:1053C000880301F0A3FB114C042206212046FBF7C1
:1053D00027FE042207212046FBF722FE40210091F0
:1053E00002218DF804108DF8051001218DF80610AA
:1053F00000218DF8071069462046FBF7D3FD802178
:10540000009169462046FBF7CDFD1CBD000402401B
:10541000002904D0018841F480710180704701881F
:1054200021F4807101807047002904D0018841F483
:10543000007101807047018821F40071018070477C
:105440000CB50246002000920A0F019221F07F4124
:10545000019A002A03D0009A1432009203E0090C4A
:10546000009A18320092009A12680A4200D0012075
:105470000CBD00007FB504460D46A08820F03F0615
:10548000684601F05FFB02982749B0FBF1F189B251
:105490000E43A680228822F001022280234B2A6834
:1054A0009A4209D85200B0FBF2F080B2042800D230
:1054B0000420491C218423E0EB88A3F53F46FF3EEE
:1054C0000BD002EBC20303EB0212B0FBF2F080B28E
:1054D00040F48040020506D007E002EB4202B0FB38
:1054E000F2F080B2F6E740F0010040F400404FF4E3
:1054F000967251434FF47A72B1FBF2F1491C218448
:10550000A083208840F00100208020884FF6F531EC
:105510000840A9886A89114301432180A889298903
:10552000084320817FBD000040420F00A08601009B
:105530001FB50020ADF804004BF6FF70ADF8060073
:105540000A20ADF808004FF48060ADF80A000001B1
:10555000ADF80C0007480090074C69462046FFF75D
:1055600089FF01212046FFF715FF01212046FFF7A3
:10557000F9FE1FBD801A060000540040002A02D028
:1055800041F0010101E001F0FE010182704701825A
:1055900070470000054A002803D001211046FBF7A0
:1055A00058BD01211046FBF752BD00000004024027
:1055B00001B502E00098401E009000980028F9D143
:1055C00008BD00B59DB00121084601F083FA0F2007
:1055D00007903C20099000200D9008900A900B90B5
:1055E0000C900621009105210291069001900390F4
:1055F000049005900E900F90109010211191129030
:105600001490139015901690090217911890890024
:1056100019911A9007A81B90CDF870D00EA8FBF72F
:1056200071FB01210020FBF75BFB1DB000BD0000FA
:105630002DE9FC5F01211A2001F03EFA00268DF8C9
:10564000066001248DF8074002258DF804500320E0
:105650008DF80500A703009769467948FBF7A2FC7F
:105660000C220E217648FBF7DBFC4FF40048CDF806
:10567000008069467248FBF795FC0C220F217048A8
:10568000FBF7CEFC009469466D48FBF78BFC0C22BF
:1056900000216B48FBF7C4FC009569466848FBF79E
:1056A00081FC0C2201216648FBF7BAFC80200090A7
:1056B00069466448FBF776FC0C2207216148FBF73A
:1056C000AFFC4FF48079CDF8009069465D48FBF758
:1056D00069FC0C2208215B48FBF7A2FC4FF4007A1E
:1056E000CDF800A069465748FBF75CFC0C22092165
:1056F0005448FBF795FC4FF4806BCDF800B0694639
:105700005048FBF74FFC0C220A214E48FBF788FC5F
:10571000E002009069464B48FBF744FC0C220B2149
:105720004848FBF77DFC2003009069464548FBF79D
:1057300039FC0C2211464348FBF772FC60030090D1
:1057400069464048FBF72EFC0C220D213D48FBF733
:1057500067FC009769463B48FBF724FC0C220E21AE
:105760003848FBF75DFCCDF8008069463548FBF70B
:1057700019FC0C220F213348FBF752FCCDF80090A6
:1057800069462F48FBF70EFC0C2208212C48FBF73A
:1057900047FCCDF800A069462948FBF703FC0C2222
:1057A00009212748FBF73CFCCDF800B069462448A6
:1057B000FBF7F8FB0C220A212148FBF731FC1020F3
:1057C000009069461E48FBF7EDFB0C2204211C48A3
:1057D000FBF726FC2020009069461948FBF7E2FB06
:1057E0000C2205211648FBF71BFC8020009069461F
:1057F0001348FBF7D7FB0C2207211148FBF710FCDD
:10580000E002009069460E48FBF7CCFB0C220B210E
:105810000B48FBF705FC8DF804408DF806608DF809
:1058200007408DF805500820009069460448FBF7B2
:10583000B9FB009469460448FBF7B4FBBDE8FC9F44
:10584000000C0240001002400004024010B5FFF7B7
:10585000EFFEFFF7B6FE0120FFF79CFE00F0C0F858
:10586000BDE81040AFF3008010B5CF205A4C208027
:105870000021A01C01808121018030210180ED21C7
:105880002180642101800321018012210180812176
:105890000180E8212180852101801021018078216B
:1058A0000180CB212180392101802C210180002120
:1058B00001803421018002210180F72121802021F3
:1058C0000180EA212180002101800180B121218015
:1058D000002101801B210180B62121800A21018045
:1058E000A2210180C021218035210180C121218098
:1058F00011210180C5212180452101800180C7211E
:105900002180A2210180F221218000210180262115
:10591000218001210180E02121800F2101802621A9
:105920000180242101800B2101800E2101800921A9
:10593000018054210180A8210180462101800C2191
:10594000018017210180092101800F210180072199
:10595000018000210180E1212180002101801921A5
:1059600001801B2101800421018010210180072179
:1059700001802A21018047210180392101800321F2
:1059800001800621018001803021018038210180C1
:105990000F21018036212180A82101802A21218028
:1059A0000021018001800180EF2101802B212180D5
:1059B000002101800180012101803F2101803A21E5
:1059C000218055210180112020800448FFF7F0FD3F
:1059D0002920208010BD0000FEFF0160FCBF0200F6
:1059E00070B5094C08212046FBF731FB074D2846CE
:1059F000FFF7DEFD08212046FBF72BFB2846BDE81C
:105A00007040FFF7D5BD0000000C0240FCBF020053
:105A10007CB50121142001F04FF8012500950020EC
:105A20008DF804008DF807001A4E69463046FBF7E2
:105A3000B9FA0224009469463046FBF7B3FA0095A0
:105A4000154D69462846FBF7ADFA0094694628468D
:105A5000FBF7A8FA0421009169462846FBF7A2FA51
:105A60000821009169462846FBF79CFA1021009115
:105A700069462846FBF796FA202100916946284698
:105A8000FBF790FA4021009169462846FBF78AFA15
:105A90007CBD0000000802400010024002490A6874
:105AA0000860104670470000180300200449054AAA
:105AB0000968497C52F82110096909680847000003
:105AC0004C010020640100202DE9FF4F87B09A4867
:105AD000DDF850A0169E006890B1DDE91723DDF8CF
