:020000040800F2
:1000000068FA01209D010008C94F0008CB3A00089A
:10001000C54F00081706000825680008000000000A
:10002000000000000000000000000000BD620008A9
:10003000310C00080000000059500008ED63000872
:10004000B7010008B7010008B7010008B7010008B0
:10005000B7010008B7010008B7010008B7010008A0
:10006000B7010008B7010008E50C0008B701000857
:10007000B7010008B7010008E9080008B701000847
:1000800015090008B7010008B7010008B70100080A
:10009000B7010008B7010008B7010008B701000860
:1000A000B7010008B7010008B7010008B701000850
:1000B000D5640008B7010008B7010008B7010008BF
:1000C000B7010008B7010008B7010008B701000830
:1000D000B7010008B7010008B7010008B701000820
:1000E000B7010008B7010008B7010008B701000810
:1000F000B7010008B7010008B7010008B701000800
:10010000B7010008E1530008B7010008B701000873
:10011000B7010008B701000801650008B701000831
:10012000B7010008B7010008B7010008410900083D
:10013000B7010008B7010008B7010008B7010008BF
:10014000B7010008B7010008B7010008B7010008AF
:10015000B7010008B7010008B7010008B70100089F
:10016000B7010008B7010008B7010008B70100088F
:10017000B7010008B7010008B7010008B70100087F
:10018000B7010008B7010008DFF80CD000F006FA4C
:1001900000480047C1B6000868FA012006488047B9
:1001A00006480047FEE7FEE7FEE7FEE7FEE7FEE75C
:1001B000FEE7FEE7FEE7FEE76D6400088901000840
:1001C0002DE9F05F0546002092469B46884606468C
:1001D000814640241BE0284641464746224600F01F
:1001E0005DF953465A46C01A914110D3114618463C
:1001F000224600F044F92D1A67EB01084F462246CB
:100200000120002100F03BF917EB00094E41201EB0
:10021000A4F10104DFDC484631462A464346BDE8E6
:10022000F09F10B5431A934209D28318881803E04F
:1002300010F8011D03F8011D521EF9D210BD40EA4D
:1002400001039B0703D009E008C9121F08C0042A54
:10025000FAD203E011F8013B00F8013B521EF9D23B
:1002600010BDD2B201E000F8012B491EFBD270474D
:100270000022F6E710B513460A4604461946FFF772
:10028000F0FF204610BD30B504460020034600E0D4
:100290005B1C934203D2E05CCD5C401BF8D030BDC8
:1002A0002DE9FE4F804681EA0300C00F0C46009006
:1002B00021F0004123F00045B8EB0200A94105D22E
:1002C0004046214690461C460B46024623F000401D
:1002D000104347D0270DC7F30A00C3F30A51029019
:1002E000401A019040286BDAC3F3130040F4801BDE
:1002F0000098924620B10023D2EB030A63EB0B0B6C
:1003000001985946C0F14002504600F0B8F8064640
:100310000D4650465946019A00F0D0F810EB0800FF
:100320006141002487EA115284EAE7731A4340D0FE
:10033000009A62B3019A012A4FEA075215DC001BAA
:1003400061EB02014FF0004202EA0752CDE90042A0
:10035000001C41F5801132462B4600F0D0F803B066
:10036000BDE8F08F40462146F9E7001B61EB020132
:10037000001C41F5801300185B412018A2F50017FE
:1003800047EB030140EAD570B6196D4111E06D08E5
:100390004FEA360645EAC0754FEA0752001B61EB8B
:1003A0000201001C41F5801149084FEA3000001994
:1003B000514132462B4603B0BDE8F04F00F090B8F3
:1003C0000098012240000023D0EB020263EBE073AF
:1003D000009821464FEAE074B8EB000061EB04019D
:1003E000E9E783F000435BE781F0004158E770B52F
:1003F000C1F30A5201F000450024C1F3130140F299
:10040000FF3341F480119A4201DA002070BD40F2BE
:1004100033439A42A2F2334203DC524200F03EF8E8
:1004200000E090402C43F1D0404270BD00F000420B
:1004300030F000400AD0C10D01F56071C0F3160024
:1004400042EA0151C20840071143704700200146AB
:10045000704730B50B46014600202022012409E0F8
:1004600021FA02F59D4205D303FA02F5491B04FA6D
:1004700002F52844151EA2F10102F1DC30BD202A4C
:1004800004DB203A00FA02F1002070479140C2F1EB
:10049000200320FA03F3194390407047202A04DB1D
:1004A000203A21FA02F00021704721FA02F3D040ED
:1004B000C2F120029140084319467047202A06DB0A
:1004C000CB17203A41FA02F043EAE07306E041FA22
:1004D00002F3D040C2F12002914008431946704710
:1004E00010B5141E73F1000408DA401C41F100013C
:1004F00092185B411A4301D120F0010010BD2DE993
:10050000F04D92469B4611B1B1FA81F202E0B0FA89
:1005100080F220329046FFF7B2FF04460F4640EAD1
:100520000A0041EA0B0153465A46084313D01146CC
:1005300053EA010019D0C8F140025046FFF7AEFF60
:1005400005460E46504659464246FFF798FF084377
:1005500005D0012004E020463946BDE8F08D00209A
:10056000054346EAE0762C4337430A986305E40ADC
:10057000A0EB08000022FD0A44EA47540A3002D5E5
:1005800000200146E9E7010510196941DDE9084548
:1005900000196941BDE8F04DA2E70000064C074D87
:1005A00006E0E06840F0010394E807009847103443
:1005B000AC42F6D3FFF7ECFDF0D4000810D50008EC
:1005C00070B58C1810F8015B15F0070301D110F815
:1005D000013B2A1106D110F8012B03E010F8016B42
:1005E00001F8016B5B1EF9D12B0705D40023521EC5
:1005F0000DD401F8013BFAE710F8013BCB1A921C2D
:1006000003E013F8015B01F8015B521EF9D5A1422A
:10061000D8D3002070BD00BFFEE770B500254FF4B1
:10062000803400E0641E24B1802004F0ADFE002878
:10063000F8D014B90325284670BD40F2FF5004F0ED
:100640005FFE2846F8E700002DE9F0410646002746
:100650004848056801E04748056805F0450000285E
:10066000F9D005F0040030B10327042004F048FE5F
:100670003846BDE8F08105F0010028B101270120CE
:1006800004F03EFE3846F4E704F078FEB04202D0B3
:1006900010273846EDE740F2FF5004F031FE00200D
:1006A00004F092FE04463448204008B93846E0E79A
:1006B00004F0004008B11C20DBE704F0804008B1E2
:1006C0000920D6E704F0005008B10A20D1E704F071
:1006D000805008B10B20CCE704F0006008B10C207A
:1006E000C7E704F0806008B10D20C2E704F0807015
:1006F00008B10E20BDE704F4000008B10F20B8E7F0
:1007000004F4800008B11020B3E704F4001008B12D
:100710001120AEE704F4801008B11220A9E704F418
:10072000002008B11320A4E704F4802008B11420AD
:100730009FE704F4003008B115209AE704F48030F4
:1007400008B1162095E704F4004008B1172090E79F
:1007500004F4804008B118208BE704F4005008B17D
:10076000192086E704F0080008B11A2081E738460E
:100770007FE70000342C014008E0FFFD70B5002544
:100780001048046801E00F48046804F045000028A0
:10079000F9D004F0040028B10325042004F0B0FDD2
:1007A000284670BD04F0010028B10125012004F0A5
:1007B000A7FD2846F5E740F2FF5004F0A1FD2846CA
:1007C000EFE70000342C014070B500250B480468A9
:1007D00001E00A48046804F045000028F9D004F05C
:1007E000040028B10325042004F08AFD284670BDCA
:1007F00040F2FF5004F084FD2846F8E7342C014015
:100800002DE9F04106460F464FF0000822480568E2
:1008100001E02148056805F045000028F9D005F001
:10082000040038B14FF00308042004F069FD40468D
:10083000BDE8F08105F0010030B14FF00108012062
:1008400004F05EFD4046F3E704F098FDB04203D0AB
:100850004FF010084046EBE740F2FF5004F050FD27
:10086000002004F0B1FD044604F4604018B9200CE7
:1008700038804046DCE704F4005008B11320D7E785
:1008800004F4804008B11020D2E704F4004008B11D
:100890000F20CDE74046CBE7342C014070B5002651
:1008A0004FF480350F48046802E06D1E0D4804685F
:1008B00004F0450008B9002DF7D115B104F004008B
:1008C00028B10326042004F01BFD304670BD04F05F
:1008D000400028B10026402004F012FD3046F5E724
:1008E0003046F3E7342C014010B50749074800F0C3
:1008F00023F9012806D10449044800F03FF80448D0
:100900000068804710BD0000008000185860024059
:10091000F400002010B50749074800F00DF9012840
:1009200006D10449044800F029F8044800688047CB
:1009300010BD00000088002088600240F000002008
:1009400010B505F049FA10BD0246094B9A4201D292
:10095000084801E00648103801F000531BB1064B6F
:100960000B40C36002E0044B0B4083607047000003
:1009700010640240006002407D0F7D0F0246094B6B
:100980009A4201D2084801E00648103801F00053AD
:100990001BB1064B0B40C36002E0044B0B4083606D
:1009A0007047000010640240006002407D0F7D0F20
:1009B00021B1026842F00102026003E0026822F005
:1009C0000102026070470000016821F0010101602E
:1009D0000021016041608160C160016121214161AC
:1009E0004A49884204D13D21484A103A91608CE03E
:1009F00046491831884205D14FF47461434A103A90
:100A0000916082E041493031884205D14FF4741140
:100A10003E4A103A916078E03C494831884205D11D
:100A20004FF07461394A103A91606EE03749603195
:100A3000884204D13649354A103AD16065E03349DD
:100A40007831884204D13349304A103AD1605CE0B1
:100A50002E499031884204D12F492C4A103AD16056
:100A600053E02A49A831884205D14FF03D51274A29
:100A7000103AD16049E02949884204D13D21274AF2
:100A8000083A116041E025491831884205D14FF4F8
:100A90007461224A083A116037E0204930318842B7
:100AA00005D14FF474111D4A083A11602DE01B491D
:100AB0004831884205D14FF07461184A083A1160F4
:100AC00023E016496031884204D11149134A121FAC
:100AD00011601AE011497831884204D10D490F4A5A
:100AE000121F116011E00D499031884204D10A496A
:100AF0000A4A121F116008E00849A831884204D14F
:100B00004FF03D51054A121F1160704710600240BE
:100B10003D000020400F002000003D2010640240F6
:100B200021B1026842F02002026003E0026822F074
:100B3000200202607047000070B5024600200024C9
:100B40000025124EB24201D2114B01E00F4B103B77
:100B5000104E0E4036B11E2606EAD124166806EA6B
:100B6000040502E0566906F0800501F000560EB15A
:100B70005C6800E01C68084E344004EA010616B1C7
:100B80000DB1012000E0002070BD000010640240A3
:100B9000006002403C0F3C0F7D0F7D0F10B501F04F
:100BA00080034BB122B1436943F08003436103E00A
:100BB000436923F08003436180290BD02AB1036885
:100BC00001F01E042343036004E0036801F01E04E7
:100BD000A343036010BD000010B500220268134B50
:100BE0001A40CC680B6823434C6923438C69234328
:100BF000CC6923430C6A23434C6A23438C6A234306
:100C00004C6B23438C6B23431A430260426922F0EE
:100C10000702D1E90B3423431A4342610B69436055
:100C20004B6883608B68C36010BD00003F801CF080
:100C30007047000000B587B00121084604F00EFAA5
:100C40000121102004F03AFA00208DF81A0001204A
:100C50008DF81B0002208DF819008DF81800000295
:100C6000059005A9174800F01DFA02208DF818001C
:100C70004002059005A9134800F014FA07220A2142
:100C8000104800F057FA072209210E4800F052FAE6
:100C90004FF4E13001900020ADF80800ADF80A00F3
:100CA000ADF80C00ADF810000C20ADF80E0001A955
:100CB000054805F049FD0121034805F02BFD07B06B
:100CC00000BD0000000002400010014001B50449D1
:100CD0000098086000BF024800680028FBD108BDEA
:100CE0007400002010B5102000F010F828B1012089
:100CF00002490870102000F003F810BD58000020D1
:100D00000149086070470000143C01400146002082
:100D1000034A12680A400AB1012000E0002070472F
:100D2000143C0140002123498279002A3AD00A4626
:100D3000126803689A430B461A600A1D126803681A
:100D40009A430B1D1A60027911440A6803681A431A
:100D50000A60184A0832126803689A43154B083330
:100D60001A601A1D126803689A43124B0C331A60FA
:100D70004279102A0ED11A1F126803681A430D4BCC
:100D800008331A601A1D126803681A43094B0C33A2
:100D90001A600DE00749427911440A6803681A4352
:100DA0000A6005E0027911440A6803689A430A6000
:100DB00070470000003C014051B18200A2F1C042E6
:100DC000126842F001038200A2F1C042136009E000
:100DD0008200A2F1C0421268034B1A408300A3F1C3
:100DE000C0431A6070470000FEFF0F0030B50021BD
:100DF000002200230468A400A4F1C0442168424CEE
:100E00002140D0E901452C43C5682C4305692C439A
:100E100045692C4385692C43C5692C43056A2C43DD
:100E2000456A2C43856A2C43C56A2C43056B2C43C9
:100E300021430468A400A4F1C04421608468082C04
:100E40000BD10468A400A4F1C044246844F0400518
:100E50000468A400A4F1C04425600468641CA400D4
:100E6000A4F1C044226802F04042446B2468456B00
:100E70006D6844EA0514456BAD6844EA0524456B8A
:100E8000AD8944EA0544456B2D8A44EA0554456B17
:100E90002D7D44EA0564456BAD692C43224304680B
:100EA000641CA400A4F1C0442260C46AB4F5804F5D
:100EB00020D10468A400A4F1C044D4F80431134C38
:100EC0002340846B2468856B6D6844EA0514856B48
:100ED000AD6844EA0524856BAD8944EA0544856B19
:100EE000AD692C4323430468A400A4F1C044C4F8B2
:100EF000043107E06FF070450468A400A4F1C04419
:100F0000C4F8045130BD00008000F7FF0000F0CFAE
:100F10002DE9FC4107460D460026002400200090E4
:100F2000019008205B4908601020486040208860DC
:100F30000020C8604FF480600861084604F082FA1F
:100F40001020FFF781FB044614B12046BDE8FC8168
:100F50005148008800044F4908603720486040200D
:100F600088600020C8604FF480600861084604F083
:100F700069FA3720FFF768FB04460CB12046E5E725
:100F80004FF0FF30454908600820486030208860F5
:100F90000220C8600020086101204861084604F072
:100FA000C7F900203B490860332048604020886032
:100FB0000020C8604FF480600861084604F042FADF
:100FC0003320FFF741FB04460CB12046BEE709E0A1
:100FD0004FF4001004F0D8F920B104F02DFA4DF8C8
:100FE0002600761C2E48006840F22A61084000283E
:100FF000EED0082004F0C8F928B1082004F080F9E8
:1010000004242046A2E7022004F0BEF928B1022001
:1010100004F076F90224204698E7202004F0B4F981
:1010200028B1202004F06CF9062420468EE74FF406
:10103000007004F0A9F930B14FF4007004F060F9C9
:101040000724204682E740F2FF5004F059F9009847
:101050000006009901F47F4140EA0120009901F463
:101060007F0140EA1120009940EA11606860019810
:101070000006019901F47F4140EA0120019901F441
:101080007F0140EA1120019940EA11602860204662
:101090005CE70000B003002060000020C4030020D3
:1010A000342C0140F0B50A4600210023002400BF83
:1010B0003DE0012505FA01F3156805EA03049C42A9
:1010C00034D105684F000326BE40B543056015794D
:1010D0004E00B5400668354305601579012D02D0F4
:1010E0001579022D16D185684F000326BE40B54301
:1010F000856055794E00B540866835438560456802
:1011000001268E40B5434560456896798E40B6B25B
:1011100035434560C5684F000326BE40B543C560F2
:10112000D5794E00B540C6683543C560491C1029C5
:10113000BFD3F0BDF0B5002300244D07ED0E02FA39
:1011400005F3CE1000F1200555F826504E07F70E96
:101150000F26BE40B543CF1000F1200646F82750B9
:10116000CE1000F1200555F8265045EA0304CE10B4
:1011700000F1200545F82640F0BD02460020136925
:101180000B400BB1012000E0002070474183704705
:101190000183704770B5054680680C4690B94FF4DE
:1011A000BA7000F0C1FA4FF4BA720021A86002F0E0
:1011B000D1FBA8680221C1840121056401620F49A5
:1011C000C0F80811A8682168C16261680163A1685C
:1011D000416311F0040F07D0D0E90021C0E90012EB
:1011E000D0E90221C0E90212A18981842169002984
:1011F000B8BF002118BF016270BD000021140008B3
:101200002DE9F041044680681E461746884690B98D
:101210004FF4BA7000F088FA4FF4BA720021A0605F
:1012200002F098FBA0680221C184012104640162DC
:101230000949C0F80811A5686822414605F586707D
:10124000FEF7EFFF2046B8472046B0472069806888
:101250008047A862BDE8F0812114000810B504465B
:1012600000F0C2F8A0681049134AC0F8AC100F494A
:10127000C0F8A8100E49C0F8B0100E49C0F8B81058
:101280000021C0F8BC101368C0F8B4300B4BC0E9A3
:1012900032315168C0F8C410C18C21F00301C184FF
:1012A0000749C0F8941010BDEDA7000811A9000867
:1012B000B1A700088BA100081C02002093A200081F
:1012C00059A7000810B5044600F08EF8A46810482D
:1012D0001021C4F8E4000F48C4F8E8000E48C4F830
:1012E000EC000E48C4F8F0000D48C4F8A0000D480A
:1012F000C4F8A400D4F8C400C4F8FC00D4F89420C6
:10130000204690471020A0630748606410BD00008D
:10131000ED8400081D9400082D1300085D140008DA
:101320002DA10008E3A9000870D30008F8B584686F
:1013300015460F4694F8260010F0020F48D0D4F856
:101340000031204698470646D4F804312A463946EB
:1013500020469847D4F8983005461BB10022012159
:10136000204698472069B042CCBF01200020A169E7
:10137000B142B4BF0121002108436169A942CCBF39
:10138000012100210843E169A942B4BF01210021E4
:1013900008430AD06068401E00902068D4F8A8C0B6
:1013A000431E002211462046E047D4F8AC302A46BE
:1013B000314620469847D4F8A01020468847D4F8F4
:1013C000983005466BB1012200212046984708E07D
:1013D000D4F8AC3020469847D4F8A010204688476F
:1013E00005462846F8BD000010B504468068002870
:1013F00018BF10BD4FF4BA7000F096F94FF4BA72EE
:101400000021A06002F0A6FAA0680221C184012197
:10141000046401620149C0F8081110BD21140008DC
:101420002DE9F0010C4991B0B1E8FC118DE8FC11F7
:1014300091E8FE100DF1200888E8FE10416B5DF880
:101440002120C0F8002108AA52F82110C0F8041188
:1014500011B0BDE8F001704704BD00082DE9F84364
:1014600084681F46154694F82600884610F0020F3F
:1014700035D0D4F80031204698470646D4F804C148
:101480002A4641462046E04705462069B042D4BF7F
:1014900000200120A169B142B4BF0121002108430D
:1014A0006169A942CCBF012100210843E169A94239
:1014B000B4BF0121002108430AD06068401E00909B
:1014C0002068D4F8A8C0431E002211462046E047F9
:1014D000D4F8AC302A4631462046984703E0D4F889
:1014E000AC3020469847D4F8A42001B039462046B5
:1014F000BDE8F043104700002DE9F04F4B4989B09B
:101500000968B1F922200692D1F81CC0B1F9247003
:10151000DCF81C40A28982429CBFE389984205D82E
:10152000A0EB02094FF0FF38266812E0D4E901620F
:10153000002A71D0138883429CBF5588A8426BD87B
:10154000C01A526880B202EB8000B0F90090B0F986
:101550000280B9F1FF3F5FD09CF81800A27C10FB1D
:1015600002FB94F810A00790B1F92A50284603F026
:10157000CBFAC0B208902D4809FB0B620068A37C2F
:101580004FF00109816BCDE90293CDE90421C069D7
:101590005246C17E807ECDE90001DDE90603394671
:1015A00002F0D8FEB8F1FF3F18D045F0020003F07A
:1015B000ABFA1E48A37C08FB0B620068816BCDE987
:1015C0000293CDE90421C0695246C17E807ECDE9F7
:1015D0000001DDE90603394602F0BCFE134E306817
:1015E000C069417E007E814213D9022D11D085F061
:1015F000040003F089FA3068C069017EC27E11FBE5
:101600000271427ED319827E06981AFB020203F011
:1016100049F8089803F078FA0448627C0068418C25
:101620001144418409B0BDE8F08F0000740100202E
:10163000044800290068C069C0691CBF027C0A60B8
:10164000407C704774010020022008807047C06908
:1016500082898A429CBFC289914210D9806880B138
:1016600002888A429CBF438899420AD8406800EBAE
:101670008100A0EB8200B0F90000002801DB01200E
:10168000704700207047002808BF704706F03ABD39
:1016900038B50546FFF7F7FF040009D000F0BEF8A3
:1016A0002A460021009002F055F9684600F0DAF869
:1016B000204638BD024A106021F003005060704798
:1016C0007CE80120002808BF704770B50E4C054625
:1016D000606B10F83510002918BF022928BF70BDB3
:1016E000042101EBC5068159486806F0ADFC60682D
:1016F000401C6060616B606A8851616B002001F87A
:101700003500656270BD0000BCE70120002808BFFD
:101710007047044AD16B0160002918BF4860D0634C
:1017200070470000BCE701202DE9F041044608F0B5
:10173000BDFAE01C274E20F00300051D306CA842C6
:1017400088BF0546F46BBCB154F8041CA94210D103
:101750009CB1206800281CBF616841606068002857
:101760001CBF21680160F16BA14204BF2068F063D7
:101770002DE02468002CE7D10024F168B06B00EB69
:10178000010858F8040CA8EB0007386840B10020A5
:1017900008F022FE58F8040CA8EB00073868B0B92E
:1017A0007868A84213DB3844401B041D384608F013
:1017B000E5FDF068401BF06070692844706178684E
:1017C000401B1CBF394606F03FFC44F8045C204631
:1017D000BDE8F081BCE7012010B5002408F066FAEE
:1017E0000D490F2001EBC002526C8AB101EBC00021
:1017F000406C806848B14168A14288BF0C4680684F
:1018000000281CBF80680028F5D1A4F10C0010BD91
:10181000401EE7D5F9E70000BCE701200949CA6985
:10182000521CCA614A6B02EBC00213785B1C137036
:10183000002808BF7047496B042202EBC00008581B
:1018400008307047BCE701200549102898BF1020D8
:1018500004D94A68B0EB520F28BF5008886070471F
:101860007CE801200A4902684B6B52F8082C03EB14
:10187000C2021378022B04D3CB69002B1CBF5B1E62
:10188000CB611178491E1170002101600846704734
:10189000BCE70120002808BF70470449042202EB7E
:1018A000C000496B0858083070470000BCE70120B1
:1018B0002DE9F0012D24D3F800C0B0F1004F34D051
:1018C00000250028A8BF4FF0000C07DA0CF1010634
:1018D0001E608CF8004040424FF0010CA1EB0C015F
:1018E000C9B2002A1CBF491EC9B200291CBF234F20
:1018F000234E3DD08C46491EC9B2944508D1D3F839
:1019000000C03C780CF10108C3F800808CF800405E
:1019100056F8214090FBF4FC0CF0FF0CBCF10A0FD0
:1019200026D80CFB140081B909E00CF10106012551
:101930001E606FF000408CF80040491ED0E7002D7B
:101940001CBF0CF1010C0CF0FF0CBCF10A0F03D111
:10195000491C4FF0010CC9B20CF13004D3F800C09F
:1019600000290CF10108C3F800808CF80040C1D1B7
:10197000196800200870BDE8F00170476801002078
:10198000D4CB000870B506460D461446104600F04C
:101990003BFA0300154804EB84010AD050F82100FB
:1019A00041688068711A2A1ABDE87040184601F033
:1019B00027BB00EB8104A268B24214BF01220022BF
:1019C000E368AB4214BF012300231A4308BF70BD74
:1019D000236943B150F82100816840686A1A311ABE
:1019E000184601F02FF8C4E9026570BDF8E801203F
:1019F000C2B2CBB2D21A48BF524292B202FB02F339
:101A0000C0F30722C1F3072CB2EB0C0248BF5242CD
:101A100092B2000CA0EB114002FB023200B200288F
:101A2000BCBF404200B280B200FB00207047000003
:101A30002DE9F041002182B0084600F02BFA43F670
:101A4000FF763746042003F05FF880461148C068EF
:101A5000C16C006D8D1B841B0E440744ADF8005013
:101A6000ADF80460ADF80240ADF80670684605F0C8
:101A700013FF48B13B4632462146284602F012FE8B
:101A800005F058FD0028F5D1404603F03DF802B0BE
:101A9000BDE8F081680100202DE9F04100241D46D9
:101AA000074688461646022B27DA1C20FFF73CFE25
:101AB00018B3B8F1000F18BFC0F810800BD1104A4E
:101AC00052F8251039B10A681AB111461268002A75
:101AD000FBD1096901618561868204604460C0E9C7
:101AE0000247040009D000F011F8E068006820B94E
:101AF0000448006800EB850084652046BDE8F0815D
:101B00008C01002074010020FFF700BE00281CBFDC
:101B10008269022AA4BF0120704710B4244C54F8F3
:101B20002210002908BF44F822003AD04B682BB19C
:101B300019465B68002BFBD1002935D0C3681B68B0
:101B4000D1F80CC0DCF800C09C4503DD0968002911
:101B5000F6D129E041B3D1F80CC0DCF800C09C45B7
:101B600004BFB0F814C0BCF1010F0DD1D1F800C012
:101B7000BCF1000F07D06146DCF80CC0DCF800C0F7
:101B80009C45F3DA00E079B14B68002B1DBF18606B
:101B90004A68426044F822004860884208BF002139
:101BA000016010BC0020704710BC0120704700008D
:101BB0008C0100200B4A816952F82130834204BF16
:101BC000036842F82130416800291CBF02680A609E
:101BD000016800291CBF42684A6000210160416021
:101BE000704700008C0100200228A4BF002070472D
:101BF000064951F82000002808BF7047C1680968ED
:101C000000291CBF00680028F8D170478C01002013
:101C100000B585B00022CDF80CD003ABFFF748FE2D
:101C2000684600F003F805B000BD0000002808BFBA
:101C300070472DE9F04F83B0054600F0EFF83B4CBC
:101C400080462068B0F9227000F0FCF882462068D7
:101C5000818CA1EB0A0181842878002818BFA8F1A3
:101C6000010946D047F6FF71284601F04BFD834637
:101C70000146284601F00CFD2168064691F82C002B
:101C800000F00300012808BF304605D0022812BF2B
:101C9000002006EBD67040104A8C101A4884ADF82C
:101CA0000000721E1044ADF80400888CADF80200EC
:101CB0004844ADF806006A465946284601F01AFC29
:101CC0002168BDF8020088845946284601F0F4FADC
:101CD000054428780A2818BF0D2815D0BDF8000043
:101CE000216830444884287818B115F8010F00287D
:101CF000B8D12068818C51448184818D21F0030109
:101D0000818503B0BDE8F08F206890F82C1001F0B9
:101D1000030101291DBF0229018C418447842978D0
:101D20000A29E0D1818C41448184DCE774010020E0
:101D3000002808BF7047B0F806C083888068BCF1EF
:101D4000080F02BF02FB0311405C704709DCBCF1C5
:101D5000010F0ED0BCF1020F17D0BCF1040F21D03F
:101D600005E0BCF1100F28D0BCF1200F2BD00020D3
:101D700070475A4302EBD10201F00701805CC1F1C8
:101D80000701C84000F0010070475A4302EB91027E
:101D9000805C062202EA4101C1F10601C84000F060
:101DA000030070475A4302EB510211F0010F805CAF
:101DB00014BF00F00F00000970475B0802FB03111D
:101DC00030F8110070479B0802FB031150F8210006
:101DD00070470000034951F82000C1688A6A082151
:101DE000104700008C01002002490968C9694A684F
:101DF0000021104774010020024A1268D26952681B
:101E00001047000074010020002102283CBF024955
:101E100051F8201008467047B802002002480068B8
:101E2000C069407E704700007401002070B5144600
:101E30000D4602F0C1FC002808BF70BD00202860DC
:101E4000206070BD0A490020096891F82C2002F03A
:101E50000C02042A07D0082A1CBF0C2A7047C86944
:101E6000007E40087047C869007E401E7047000031
:101E700074010020024951F8200000690068704791
:101E80008C010020024951F8200000694068704729
:101E90008C010020024A126850840020918470470F
:101EA000740100202DE9F0413448016821F001015E
:101EB000016033480126866032490160006832497A
:101EC000884200D0FEE7314DA86960B9AE6101F0EB
:101ED0002FFA02F089FE05F11C012D480860084622
:101EE0006969416068612E20287001F03CFAE86859
:101EF000284C011DC0E90E010064091D6161417C8F
:101F0000254850F82100C1680A6B04F10801904788
:101F100022486066A868E061E8680830606126765B
:101F200004F030FEA064032084F868006FF0704075
:101F300020636063002002F095FD6FF07F4002F0A7
:101F4000CBFD1748286109F03DF9044602F04AFC30
:101F500010B102F077FC38B902F089FC074602F0B4
:101F600056FC394602F0CAFD0021084601F04AF845
:101F700005F050F86E702046BDE8F081002000E0CA
:101F800000300240C2A507F4CDB5E8B568010020D5
:101F9000C5A0000888E801208C010020B0BC000822
:101FA000FCCB0008002808BF704738B504460D4830
:101FB0000068006EA04208BF00F0F8FF2046FFF75F
:101FC0002DFC00904069002818BF01F09FF900988F
:101FD0000068FFF799FD6846FFF744FC2046FFF7CD
:101FE00071FB38BD7401002038B5002460B1FFF7E3
:101FF00015FC0090006800698068804702F04CFF83
:1020000004466846FFF72EFC204638BD002808BF6E
:10201000704738B5FFF702FC00F1180400906846DD
:10202000FFF720FC204638BDF8B5104E040030689C
:10203000056E17D0002D18BF00F0B8FF04F074FD36
:102040002046FFF7EBFB009031680C660068FFF755
:102050005DFD6846FFF706FC02F0B4FD02F02EFDC0
:102060002846F8BD00F0A2FFFAE700007401002046
:10207000002808BF70472DE9F04FA1B090460E46EA
:102080000746FFF7CBFB1990D0F8149019A8FFF77B
:10209000E9FB3846FFF7A8FFF84D082803DDB9F142
:1020A000000F00F02782F649CDE91586D1E900013D
:1020B000CDE91C013C463846FFF7B0FB1790D0F83D
:1020C0001490C1681291B0F9081007691491B0F921
:1020D0000A100B9100680069406811902868407CE4
:1020E000FFF778FE1B902868407CFFF7CBFE064682
:1020F00017A8FFF7B7FB082F9CBF01200A9004D94F
:10210000102F94BF022004200A90012F0CBF0DF164
:1021100070084FF000081198B04200F03181286833
:10212000407CFFF7A7FE1E9014988000FFF7ABFAE3
:102130001890002804BF21B0BDE8F08F2046FFF7BB
:1021400065FF0890B9F1000F00F008814846FFF7DD
:1021500065FB1A9000200D900B98002840F3FA8040
:10216000002009901A980D9A81684B6909A998472F
:102170000646149886424FD11898FFF74FFB089DEA
:1021800004461390082F2ED90296DDF86CB0DDF8C6
:1021900044A0DDF87890069435F8020BD047C84784
:1021A00044F8040B761EF7D1BBF1200F04D25A4637
:1021B0000299069801F0D8F8139900201B9ACDF8DF
:1021C0001480CDE9030101200090CDE901020D99B1
:1021D000159801230144149A169802F0BBF813A82D
:1021E000FFF740FBABE0DDF86CB0DDF844A0DDF8B4
:1021F00078900396CDF8104015F8010BD047C847EA
:1022000044F8040B761EF7D1BBF1200F3CBF5A46B1
:10221000DDE90310D0D2CDE7012F28D0002E4FD01A
:1022200015990D9808441F901898FFF7F7FA04467F
:102230001390DDE908010A9A082F42D901FB02092F
:102240001B98DDF844B0DDF878A001903546059480
:1022500039F8020BD847D04744F8040B6D1EF7D16C
:102260000198202849D202463146059843E0002EC5
:1022700065D015990D980D18012409980094C1177F
:1022800000EB5173089900F0070201EBE301129B88
:10229000CDE90331CDE90582CDE90147169A2946FA
:1022A00010440123324602F0F9FC09980D9A30449B
:1022B00009901A9881684B6909A998470600DCD1F2
:1022C0003DE001FB02051B98DDF844B0DDF878A085
:1022D0000390B146CDF8104015F8010BD847D04710
:1022E00044F8040BB9F10109F6D10398202804D26F
:1022F00002463146049801F037F8139900201B9AE2
:10230000CDF81480CDE9030101200090CDE9010250
:10231000099A16980123104432461F9902F01AF8C0
:1023200013A8FFF79FFA09980D9A304409901A985C
:1023300081684B6909A9984706007FF475AF089931
:102340001298084408900D980B99401C0D908842F3
:10235000FFF606AF1AA8FFF785FA0EE01299CDF83E
:102360001480CDE9031001200090CDE90107DDE9DB
:1023700015100B9B149A01F0EDFF189800F080BA2D
:102380002046FFF743FE0646B9F1000F75D04846D8
:10239000FFF744FA1A900B9800250028C4BF4FF0AD
:1023A000000B4FF0010962DD1A98CDF824B02A46DF
:1023B00081684B6909A9984714990446884229D134
:1023C0001A98AA466A1C81684B6909A99847A042D5
:1023D00008D11A98AA1C6D1C81684B6909A99847F5
:1023E000A042F6D0CDF800901298CDF81480CDE937
:1023F0000306CDE901971598A5EB0A0400EB0A0145
:10240000631C149A169801F0A5FF1298611C01FB39
:10241000006628E0012F35D0002C1CBF159800EB7A
:10242000050A1ED0DDE9090100FB0162CDF800902C
:102430001299CDF81480CDE90312CDE90197169ACF
:10244000514610440123224601F084FF09982A4690
:10245000204409901A9881684B6909A9984704009B
:10246000E0D1129806440B986D1C85429CDB1AA89B
:10247000FFF7F8F921B0BDE8F08F2DE074010020DE
:10248000A4D30008002C1CBF159800EB050AE8D067
:102490000998129B00F00701CDF80090CDE9058165
:1024A000C21700EB527206EBE202CDE90332CDE92E
:1024B0000197169A514610440123224602F0EEFB82
:1024C00009982A46204409901A9881684B6909A9FD
:1024D00098470400DCD1C4E71298CDF81480CDE908
:1024E000030601200090CDE90107DDE915100B9BE3
:1024F000149A3BE0049704460C9647460498FFF76D
:102500008DF91290B0F908100691B0F90A90C168DF
:10251000039100F1180102910068D0F810A012A8F0
:10252000FFF7A0F92868D849DAF804B0407C51F8E0
:1025300020100D692E68FFF74DFC082898BF4FF05A
:10254000010805D9102894BF4FF002084FF0040885
:10255000AA450ED100200299CDE904100120009077
:10256000CDE901044B463946069A0C9801F0F2FE7B
:1025700080E7202C3ED0102C7FF47CAF069818FB0F
:1025800000F0FFF780F8149000283FF473AFFFF7D6
:1025900045F913900498FFF741F91290296900F169
:1025A0001804002919BFDAF8141000294FEAC800EE
:1025B000109000F01C81B0F908008000FFF763F86C
:1025C0000E90002808BF089000F05381FFF726F90D
:1025D0000890002818BF4FEAC80600F04A8100BFE3
:1025E000B8F1010F76D0B8F1020F74D0B8F1040F32
:1025F00072D0E1E0069818FB00F0FFF744F8149061
:1026000000283FF437AFFFF709F913900498FFF75C
:1026100005F900F1180412902869002808BF4FEA54
:10262000C80B43D04FF0000A4FF0010B4FEAC80629
:10263000B8F1010F06D0B8F1020F0ED0B8F1040FB7
:1026400016D01FE0D5F810C0139901232046069A32
:10265000E047069804EB800414E0D5F810C0139905
:1026600002232046069AE047069804EB800409E01E
:10267000D5F810C0139904232046069AE04706981F
:1026800004EB800413983946CDE903A0CDF800B0DF
:10269000CDF814A0CDE901B67F1C0123069A0C9851
:1026A00001F058FEB9F10109C2D140E0069DB8F130
:1026B000010F08BFDDF84CA00FD0B8F1020F08BF22
:1026C000DDF84CA011D0B8F1040F08BFDDF84CA024
:1026D00013D019E035E048E05BE054F8040BB04754
:1026E0000AF8010B6D1EF8D10EE054F8040BB04748
:1026F0002AF8020B6D1EF8D106E054F8040BB0471F
:102700004AF8040B6D1EF8D113990020CDE903019E
:10271000059001200090CDE9010B394603467F1C4E
:10272000069A0C9801F016FEB9F10109BED112A863
:10273000FFF798F813A8FFF795F81498FEF7C2FF73
:1027400098E6DAF814C0DDF84CB002232046069A69
:102750000899E047D5F810C001235946069A089811
:10276000E047069804EB400426E0DAF814C0DDF8F0
:102770004CB002232046069A0899E047D5F810C0CD
:1027800002235946069A0898E047069804EB40044D
:1027900012E0DAF814C0DDF84CB002232046069AA5
:1027A0000899E047D5F810C004235946069A0898BE
:1027B000E047069804EB400413990020CDE903019B
:1027C000059001200090CDE90106394603467F1CA3
:1027D000069A0C9801F0BEFDB9F101097FF400AF33
:1027E00008A8FFF73FF80E98FEF76CFF41E0069D42
:1027F000B8F1010F08BFDDF84CA00CD0B8F1020F02
:1028000008BFDDF84CA00FD0B8F1040F08BFDDF809
:102810004CA012D019E034F8020BD847B0470AF8A0
:10282000010B6D1EF7D110E034F8020BD847B0470A
:102830002AF8020B6D1EF7D107E034F8020BD847D7
:10284000B0474AF8040B6D1EF7D100201099CDE96E
:102850000210139ACDE9042001200190009039461E
:1028600003467F1C069A0C9801F074FDB9F101092A
:10287000BDD112A8FEF7F6FF13A8FEF7F3FF1498D8
:10288000FEF720FFF6E500008C010020002808BFBD
:10289000704700290CBF1146002A20D0B1F900C0B2
:1028A000B2F900309C45B8BF63460380B1F902C05D
:1028B000B2F902309C45B8BF63464380B1F904C009
:1028C000B2F904309C45C8BF63468380B1F9061055
:1028D000B2F906209142D8BF1146C18070470A68FC
:1028E0004968026041607047002808BF704703884C
:1028F0000B440380838819448180418811444180BE
:10290000C1881144C1807047134A10B4D2E9001342
:10291000994212D1114A914219BF51E9032351F84A
:10292000041CD1E90F23496C0260C0E90131007A2F
:10293000002818BF012010BC7047D1E90034D1F83D
:1029400008C0C0F808C0C0E90034054B99420CBF6C
:1029500002490C311160EAE7A801002020E90120BA
:102960005CE901200348D0E9001081420CBF01203E
:1029700000207047A801002070B5204A204B1E4956
:102980001160D3E900C18C451AD01E4CA1420CBF86
:1029900004F13C02A1F10C02057A167AB5420FD17E
:1029A00094450DD0A2420CBF04F13C020C3A127ABD
:1029B000954205D1A14214BF0C3904F13C01596084
:1029C000D0E9002485688D60C1E900240E4A914257
:1029D0000CBF0C490C3159608C4505D1944514BF8E
:1029E0000CF10C01074919609968002918BF884744
:1029F000BDE8704000F020BBD16B000894010020BE
:102A0000A801002020E901205CE90120B0F90220A2
:102A1000B1F906309A4213DCB1F90220B0F9063060
:102A20009A420DDCB0F90020B1F904309A4207DC7B
:102A3000B1F90010B0F904008842A4BF012070472A
:102A400000207047002808BF70472DE9F04FB1B053
:102A5000CDE91F21FEF7E2FE039001681091B0F965
:102A6000042020998A420AD1B0F906101F988142A9
:102A700005D103A8FEF7F6FE31B0BDE8F08F0020C7
:102A8000FFF7D2FA2990109880692190FE480168DA
:102A900021984A7C2492904218BF48740398B0F958
:102AA0000480B0F906101291B0F90810A1EB0801EA
:102AB000491C0A91B0F90A201299511A491C279110
:102AC00000210E91017C11F0020F00F04B82416950
:102AD00020300F9020981A91A0EB080612991F98A9
:102AE000401A1790002E08DD002023900A9F1496AC
:102AF000781E4FF0010A19900AE00A984FF0FF3A49
:102B0000401E23900020149023985746304419907B
:102B10001798002809DD01201890279800241390A9
:102B2000401E1C9017981D900CE04FF0FF3018903D
:102B30002798441E4FF0FF30139000201D901798E7
:102B400020441C90109DD14A04A9A8694FF00009A7
:102B50001056012810DDADF81290ADF81090A8695C
:102B600001F046FE401EADF81400A86901F070FEA9
:102B7000401EADF8160003E0E868026B2846904757
:102B80005146039805F04CFC2690002800F0EA819D
:102B90005146039805F044FC2290002800F0DE81A5
:102BA0000398C068002800F0F480FEF737FE029416
:102BB00025901398844200F0E8801D99029888427D
:102BC000A5BF1C998142002001202A9012990298E9
:102BD000239C01441798BC420844079000F0CC8025
:102BE00002990A9848432E9017990298401A2B9000
:102BF0000299129808442C904FF000092146029A3D
:102C00001A98FFF795F85FEA000B77D00F9800EB62
:102C100084012E9801EB8000169008EB04008519C2
:102C20001498A042DCBF1998844204DC2A9800283A
:102C300018BF012000D100202D90BDF91000A8423E
:102C400041DCBDF9121007988142DCBFBDF91400C8
:102C5000854238DCBDF916100798884233DC0B90AA
:102C600010980D9003981190B0F90400A84237DC39
:102C70001199B1F90820954232DC11990B9AB1F9FA
:102C8000061091422CDC119AB2F90A300B9A9A4242
:102C900026DCA5EB00090B98401A009011984946D4
:102CA000009A4069FFF744F8D0B11198009AB0F942
:102CB0000810B0F90400081A411C119801FB029198
:102CC000203050F821902D98C8B1A11B5CBF2B98E3
:102CD00000282ED402461A98FFF72AF848BB0EE0C7
:102CE0000D980068002808BF4FF00009EBD0C168BC
:102CF0000B9A4B69294698478146E4E738E0BDF9CD
:102D0000102004EB08002C998242DCBFBDF9122090
:102D10008A420EDCBDF914208242A4BFBDF9162000
:102D20008A4206DB229A0092169A109B126807F0DC
:102D300017FCBDF91000A84217DCBDF91210079866
:102D40008142DCBFBDF9140085420EDCBDF91610CE
:102D50000798884209DC2598109B079950F82B208A
:102D600026980090284607F0FBFB1698C0F80090C4
:102D70005444BC427FF440AF18990298084401467D
:102D80000290139881427FF418AF25A8FEF76AFDE0
:102D9000E0E01398029484427CD002991D9881420D
:102DA00005DB08461C998842D8BF012000DD0020C1
:102DB0002A9012990298239C08441799BC4208440F
:102DC000079068D00A99029848432C900299179866
:102DD000081A2B9012980844CDF8B8004FF000095B
:102DE0002146029A1A98FEF7A3FF4FEA106B28902B
:102DF000BBF1FF0F7DD00F9800EB84012C9801EB05
:102E00008000169008EB0400851914988442A4BF32
:102E10001998A04204DB2A98002818BF012000D18D
:102E200000202D90BDF91000A8421EDCBDF9121043
:102E300007988142DCBFBDF91400854215DCBDF95D
:102E400016100798884210DC01462846039B109A0A
:102E500006F0E3FC0E49219A814620F07F4051F8AC
:102E600022100969496888470E902D9858B1A11B16
:102E70005CBF2B98002829D402461A98FEF758FF09
:102E8000000EFF2822D107E0740100209C010020E1
:102E90008C0100205EE055E0BDF9102004EB080035
:102EA0002E998242DCBFBDF912208A420EDCBDF9A8
:102EB00014208242A4BFBDF916208A4206DB229A62
:102EC0000092169A109B126807F04AFBBDF9100099
:102ED000A84230DCBDF9121007988142DCBFBDF971
:102EE0001400854227DCBDF916100798884222DCC1
:102EF00000E023E02B49219A2898BBF1000F51F8FC
:102F0000221020F07F40096949680BD08847CBF137
:102F1000FF020E9900F0E0FC2249219A51F822109C
:102F20000969096888472699009102462846109B3E
:102F3000079907F015FB1698C0F800905444BC425E
:102F40007FF44CAF18990298084413990290884274
:102F50007FF423AF2299039807F0CDF926990398BF
:102F600007F0C9F90398209981801F99C1800A9AB6
:102F700020991144491E0181279A1F991144491E25
:102F8000418124992198884203D00846064909685E
:102F900048742998FFF748F803A8FEF763FC31B09E
:102FA000BDE8F08F8C0100207401002010B501F005
:102FB00035FD01F007FEBDE8104003F0BFBC000086
:102FC00070B5094D0446022C2868467C09D220467B
:102FD000FEF70AFE28B128684474FFF7E7FF0348AC
:102FE0000460304670BD00007401002030020020F3
:102FF00001F038BD01498860704700006801002079
:1030000001F09EBD084A1080084A1180084A1268E3
:10301000537C084A52F82330DA68D2F820C00A46B6
:103020000146184660470000A4010020A6010020C8
:10303000740100208C01002002480068002808BFAD
:1030400070470047DC02002003498A68002A08BF55
:103050008860FFF7F1BF0000A80200200000000018
:103060002DE9F0473C4C80462DED028B0F46D8F8F9
:103070000060E16801208E42BCBFBDEC028BBDE860
:10308000F0873D6821698D42A1BF6169B142A169A4
:10309000A9425DDB216800295AD000EE106ADFF8F2
:1030A000BC90B8EEC00AD9ED000A99ED011A60EEA5
:1030B000800A00EE105AB8EEC00A41EE000A99EDFF
:1030C000020A30EE800A10EE100AFDF7AFF99FED0C
:1030D000248B53EC182BFDF7E3F8FDF788F900EE8D
:1030E000106AC8F80000D9ED030AB8EEC00A99EDDD
:1030F000041A60EE800A00EE105AB8EEC00A41EEE3
:10310000000A99ED050A30EE800A10EE100AFDF76C
:103110008DF953EC182BFDF7C3F8FDF768F938600B
:10312000D8F800200020002AB8BFC8F8000005DB4E
:1031300061689142DCBF491EC8F800103968002957
:10314000B8BF386004DBA2688A42DCBF511E396018
:10315000BDEC028BBDE8F087C0020020E4E901204D
:10316000000000000000E03F70B5274C86B060789A
:1031700000B300F081F8E06000F07CF8E0680390B4
:103180002069049000F042F88DF8090004A903A812
:10319000FFF766FF0025B8B1A078002831D060683D
:1031A0000090A06801908DF80850684600F034F84F
:1031B000A57026E000F065F8206100F05CF860780A
:1031C000401C607006B070BD039A6068111A48BF59
:1031D0004942049BA068181A48BF404294F802C0B4
:1031E000BCF1000F02D0084402280ADD62600092A0
:1031F000A360012601938DF80860684600F00CF882
:10320000A670657006B070BDB80100200148407A14
:1032100070470000FCE9012010B584B004460C2280
:103220001249FDF730F8002804BF04B010BD0F4864
:10323000D4E90012A3688360C0E900120C48026858
:10324000002A08BF20460DD0D4E90001A368CDE9CB
:1032500000010293684601A9904700280EBF684606
:1032600004B010BDFFF788FB04B010BD68E9012071
:10327000B40100207047704710B5902004F0D0FDD5
:1032800010BD10B5D02004F0CBFD10BD2DE9F041EC
:10329000084E044605683068016828468847074696
:1032A0003068416828468847284420603846BDE891
:1032B000F0810000780100202DE9F041002406464D
:1032C0004D1E28BF064F07D33868416830468847EF
:1032D000064404446D1EF7D22046BDE8F08100008C
:1032E000780100202DE9F0411F46069D14468846CE
:1032F00006462246B068641C3B46D0F804C04146EE
:103300003046E0476D1EF4D1BDE8F08138B5054682
:10331000FEF784FA00908189491E0CB284816846C8
:10332000FEF7A0FA002C04BF2846FEF7CBF938BD03
:1033300010B54FF4C831002008F040FB0749086081
:103340004FF4C83105480068FEF7B4F98020FEF755
:103350007BFA0348FFF74EFE10BD00003401002049
:1033600050C900087047704730B4082A1FDC034674
:10337000012A47D0022A7CD0042A7BD00129D8BF59
:103380000121181F5A1E11F0010F03D010F8043F3D
:1033900002F8013F491007D00379537010F8083F35
:1033A00002F8023F491EF7D130BC01207047102AB5
:1033B000C2BF002030BC70470129D8BF00211CDDEE
:1033C000A1F1010CBCF1000F15DD021F831E11F0ED
:1033D000010F03D132F8044F23F8024F54685FEA1B
:1033E0006C0C08D032F8085F5C80546823F8045FE6
:1033F000BCF1010CF6D1491ED6D430F8212020F8BA
:103400001120D1E710F8042BD207120E491E38D034
:1034100010F804CB491E0CF0010C42EA8C1230D09B
:1034200010F804CB491E0CF0010C42EA4C1228D0D3
:1034300010F804CB491E0CF0010C42EA0C1220D00B
:1034400010F804CB491E0CF0010C42EACC0218D053
:1034500010F804CB491E0CF0010C42EA8C0210D08B
:1034600010F804CB491E0CF0010C42EA4C0208D0C3
:1034700001E00BE02CE010F804CB0CF0010C4CEA5E
:10348000020203F8012B0029BCD18DE710F8042BB0
:103490009207120E491E16D010F804CB491E0CF0EC
:1034A000030C42EA0C120ED010F804CB491E0CF0AB
:1034B000030C42EA8C0206D010F804CB491E0CF033
:1034C000030C4CEA020203F8012B0029DED16BE762
:1034D00010F8042B1207120E491E06D010F804CB68
:1034E000491E0CF00F0C4CEA020203F8012B0029D4
:1034F000EED159E72DE9F04306466148DFF88481B3
:10350000614C0068614D85B00F46002843D0002013
:1035100004F0C2F9002804BF05B0BDE8F083E94615
:1035200004970296D8F8002004A9304690470290EC
:103530002068406918B14946FFF768FA20B30120B6
:1035400000F04CF92068C069406920B18268049994
:103550000298904715E00498401E049011D402A8E8
:10356000FFF794FE81462068C06901684846884795
:10357000296800291CBF484688470498401E0490CB
:10358000EDD5002000F02AF903F0D4FF0028C6D1C1
:1035900005B0BDE8F08351681068CDE900012068EE
:1035A000BDF80010B0F84C201144ADF80010BDF883
:1035B0000210B0F850201144ADF80210BDF804100C
:1035C000B0F84C201144ADF80410BDF80610B0F866
:1035D00050000844ADF80600684604F05DF9002884
:1035E00040D000BF2068BDF80010E9464184BDF816
:1035F0000210818404970296D8F8002004A930466E
:10360000904702902068406918B14946FFF7FEF9DB
:1036100020B3012000F0E2F82068C069406920B1C1
:10362000826804990298904715E00498401E04901F
:1036300011D402A8FFF72AFE81462068C0690268FB
:1036400048469047296800291CBF48468847049887
:10365000401E0490EDD5002000F0C0F803F06AFF92
:103660000028BFD12068418CB0F84C20891A4184D1
:10367000818CB0F85020891A818405B0BDE8F083B0
:10368000A0010020A4020020740100209801002065
:1036900073B51A4A82B003A91268029890470024B1
:1036A0000290002827D0164900250968C969496990
:1036B00000291CBF0A68002A03D00399904704B070
:1036C00070BD0398401E03900AD402A8FFF7DEFDE8
:1036D0000546FEF789FB04440398401E0390F4D589
:1036E0000026284669460096FEF786FB009981422F
:1036F000C8BF0E1A344404B0204670BDA402002096
:103700007401002073B50D4600980024B8B10D492E
:103710000968C969496900291CBF4A68002A03D0A1
:103720002946904702B070BD002D08DD6846FFF7BE
:10373000ADFD00281EBF0A28641CAC42F6DB02B0B7
:10374000204670BD74010020B0F90030B1F90020AE
:103750009342C8BF1A460280B0F90230B1F9022084
:103760009342C8BF1A464280B0F90430B1F9042030
:103770009342D8BF1A468280B0F90620B1F90610EC
:103780008A42C8BF0A46C280704730B4B1F900C04F
:10379000B2F900309C45C8BF63460380B1F90240CE
:1037A000B2F902C06445C8BFA446A0F802C0B1F98E
:1037B0000450B2F90440A542B8BF2C468480B1F948
:1037C0000610B2F906209142A8BF1146C1809C4262
:1037D000AABF61450020012030BC70470146024865
:1037E0000068407C00F002B8740100202DE9F84325
:1037F000012688460446022818DA354F7A68002ADE
:1038000018BF9047334DB8F1000F3FD0B8F1010F0A
:1038100003D0B8F1020F23D008E055F824000028A7
:1038200018BF401C05D000BF45F824003046BDE855
:10383000F8832046FEF7D8F900900028F6D0C0683B
:103840000D21426A684690470200EFD04146009839
:10385000904755F824000026401C45F82400E5E771
:103860002046FEF7C1F900900028DFD0C0680D2186
:10387000426A684690470400D8D03868002818BFCC
:10388000804741460098A0470026CFE755F824001E
:10389000012814D12046FEF7A7F9009078B1C0683E
:1038A0000D21426A684690475FEA000907D03868F0
:1038B000002818BF804741460098C847002655F8A1
:1038C0002400002814BF01210021401AACE70000A9
:1038D0008C0200209C0200204FF07F4333EA010C51
:1038E00008BF704770B400F0FF0C1CFB02FC00F432
:1038F0007F4400F47F0554435543000E10FB02F64D
:10390000C2F1FF00CAB212FB00C201F47F4C0CFBF3
:10391000004C01F47F0404FB0054090E11FB00600D
:103920004FF47F4101EA1C214FF47F0C0CEA142C68
:10393000C2F30722114370BC03EA004041EA0C01C4
:103940000843704702494A69426048617047000075
:103950006801002070B402E000F8011B521E002A2A
:1039600018BF10F0030FF7D1930835D001EB014CCD
:1039700002F003020CEB0C2C032B1ADD5C42E51762
:1039800004EB9574A4106542002DC4BF04462E4676
:103990000FDD00BF44F804CB761E44F804CB44F896
:1039A00008CB44F804CCF5D16C4200EB051003EBD6
:1039B0008403002B23DD041F13F0010F18BF44F80C
:1039C00004CF5D1006D000BFC4F804C044F808CF8F
:1039D0006D1EF9D100EB8300002A18DD401E12F0A5
:1039E000010F18BF00F8011F521004BF70BC7047D0
:1039F000417000F8021F521EFAD170BC7047002BB4
:103A0000EAD000BF40F804CB5B1EFBD1E4E7002AFC
:103A100004BF70BC704700BF00F8011B521EFBD1F1
:103A200070BC704770B410F0020F02D020F8021B77
:103A3000521E53083CD001EB014C042B25DB40F80F
:103A400004CB1B1F40F804CB032B40F808CB40F8F5
:103A500004CC1ADD5C42E51704EB9574A4106642B1
:103A6000002EC4BF044635460FDD00BF44F804CB2A
:103A70006D1E44F804CB44F808CB44F804CCF5D1CF
:103A8000744200EB061003EB8403002B16DD041FC9
:103A900013F0010F18BF44F804CF5D1006D000BF2B
:103AA000C4F804C044F808CF6D1EF9D100EB8300C0
:103AB00012F0010F18BF018070BC7047002BF7D0C7
:103AC00040F804CB5B1EFBD1F2E700BFFEE721B15B
:103AD000028842F48062028004E002884FF6FF33DD
:103AE0001A400280704770B502460024002500236A
:103AF0000020958A138B1B0445EA030626F07F44B9
:103B000004EA01068E4201D1012000E0002070BDD0
:103B100021B1028842F00102028004E002884FF6DF
:103B2000FE731A40028070471CB50121480501F060
:103B3000B5FA0121022001F091FA0121880301F078
:103B4000BDFA042206211048FDF7F4FA04220721E9
:103B50000D48FDF7EFFA4020009002208DF8040098
:103B60008DF8050001208DF8060000208DF8070073
:103B700069460548FDF796FA80200090694602489C
:103B8000FDF790FA1CBD00000004024021B102883C
:103B900042F48072028004E002884FF6FF631A400C
:103BA0000280704721B1028842F40072028004E072
:103BB00002884FF6FF531A40028070470CB5024648
:103BC000002000230193009300920B0F019321F03A
:103BD0007F41019B1BB1009B1433009303E0090C50
:103BE000009B18330093009B1B680B400BB1012016
:103BF00000E000200CBD00002DE9FF4704460D4603
:103C00000026B1460427DFF8CC80A6884FF6C070A6
:103C10000640684601F072FADDF808802E48B8FBCD
:103C2000F0F01FFA80F946EA0906A68020884FF6D0
:103C3000FE710840208000262849286888420CD858
:103C400028684000B8FBF0F087B2042F00DA0427A0
:103C50003E4309F10100208427E0E8884BF6FF711C
:103C6000884206D1286800EB4000B8FBF0F087B22C
:103C700009E0286800EBC00101EB0010B8FBF0F090
:103C800087B247F48047C7F30B0008B947F0010734
:103C900047F4004006434FF4967009FB00F04FF4E0
:103CA0007A7190FBF1F0401C2084A683208840F0BC
:103CB0000100208026884FF6F5300640A8886989E3
:103CC000084306432680A889298908432081BDE846
:103CD000FF87000000127A0040420F00A08601001A
:103CE0001FB50020ADF804004BF6FF70ADF80600DC
:103CF0000A20ADF808004FF48060ADF80A0000011A
:103D0000ADF80C000748009069460748FFF774FFBC
:103D100001210548FFF7FCFE01210348FFF7D7FE0C
:103D20001FBD0000801A06000054004012B141F08F
:103D3000010101E001F0FE0101827047018270473C
:103D400010B5044624B101210448FDF721FA03E02F
:103D500001210248FDF71AFA10BD000000040240DC
:103D600001B502E00098401E009000980028F9D1AB
:103D700008BD00B59DB00121084601F07FF90F2074
:103D800007903C20099000200D9008900A900B901D
:103D90000C900620009005200290002006900190D3
:103DA0000390049005900E900F90109010201190A9
:103DB0000020129014901390159016904FF480509C
:103DC0001790002018904FF48040199000201A900E
:103DD00007A81B90CDF870D00EA8FDF707F80121B9
:103DE0000020FCF7E9FF1DB000BD00001CB501215B
:103DF0001A2001F033F900208DF8060001208DF81B
:103E0000070002208DF8040003208DF805004FF410
:103E10008040009069467F48FDF744F90C220E214E
:103E20007C48FDF787F94FF40040009069467948D7
:103E3000FDF738F90C220F217648FDF77BF90120B8
:103E4000009069467348FDF72DF90C220021714856
:103E5000FDF770F90220009069466E48FDF722F9DF
:103E60000C2201216B48FDF765F98020009069461E
:103E70006948FDF717F90C2207216748FDF75AF941
:103E80004FF48070009069466348FDF70BF90C22EF
:103E900008216148FDF74EF94FF400700090694623
:103EA0005D48FDF7FFF80C2209215B48FDF742F958
:103EB0004FF48060009069465748FDF7F3F80C22F4
:103EC0000A215548FDF736F94FF400600090694625
:103ED0005148FDF7E7F80C220B214F48FDF72AF96E
:103EE0004FF48050009069464B48FDF7DBF80C22F8
:103EF00011464948FDF71EF94FF4005000906946FD
:103F00004548FDF7CFF80C220D214348FDF712F983
:103F10004FF48040009069463F48FDF7C3F80C22FB
:103F20000E213D48FDF706F94FF400400090694628
:103F30003948FDF7B7F80C220F213748FDF7FAF89A
:103F40004FF48070009069463248FDF7ABF80C22C0
:103F500008213048FDF7EEF84FF4007000906946F4
:103F60002C48FDF79FF80C2209212A48FDF7E2F8BA
:103F70004FF48060009069462648FDF793F80C22C4
:103F80000A212448FDF7D6F8102000906946214800
:103F9000FDF788F80C2204211E48FDF7CBF82020FD
:103FA000009069461B48FDF77DF80C220521194851
:103FB000FDF7C0F88020009069461648FDF772F8BA
:103FC0000C2207211348FDF7B5F84FF4006000906C
:103FD00069461048FDF766F80C220B210D48FDF7E5
:103FE000A9F801208DF8040000208DF806000120BA
:103FF0008DF8070002208DF8050008200090694622
:104000000448FDF74FF80120009069460348FDF78A
:1040100049F81CBD000C02400010024000040240A0
:1040200010B5FFF7E3FEFFF7A4FE0120FFF788FEBF
:1040300000F01CF900F002F810BD000010B5CF2010
:1040400000F028F9002000F02BF9812000F028F979
:10405000302000F025F9ED2000F01CF9642000F07C
:104060001FF9032000F01CF9122000F019F981203B
:1040700000F016F9E82000F00DF9852000F010F9A5
:10408000102000F00DF9782000F00AF9CB2000F0A4
:1040900001F9392000F004F92C2000F001F900208A
:1040A00000F0FEF8342000F0FBF8022000F0F8F8F1
:1040B000F72000F0EFF8202000F0F2F8EA2000F0FE
:1040C000E9F8002000F0ECF8002000F0E9F8B12059
:1040D00000F0E0F8002000F0E3F81B2000F0E0F82A
:1040E000B62000F0D7F80A2000F0DAF8A22000F09D
:1040F000D7F8C02000F0CEF8352000F0D1F8C1206C
:1041000000F0C8F8112000F0CBF8C52000F0C2F88C
:10411000452000F0C5F8452000F0C2F8C72000F0A7
:10412000B9F8A22000F0BCF8F22000F0B3F80020AB
:1041300000F0B6F8262000F0ADF8012000F0B0F84D
:10414000E02000F0A7F80F2000F0AAF8262000F0E9
:10415000A7F8242000F0A4F80B2000F0A1F80E200E
:1041600000F09EF8092000F09BF8542000F098F829
:10417000A82000F095F8462000F092F80C2000F0FE
:104180008FF8172000F08CF8092000F089F80F2034
:1041900000F086F8072000F083F8002000F080F897
:1041A000E12000F077F8002000F07AF8192000F004
:1041B00077F81B2000F074F8042000F071F810204C
:1041C00000F06EF8072000F06BF82A2000F068F885
:1041D000472000F065F8392000F062F8032000F075
:1041E0005FF8062000F05CF8062000F059F8302057
:1041F00000F056F8382000F053F80F2000F050F887
:10420000362000F047F8A82000F04AF82A2000F0F5
:1042100041F8002000F044F8002000F041F80020B0
:1042200000F03EF8EF2000F03BF82B2000F032F8D1
:10423000002000F035F8002000F032F8012000F0F6
:104240002FF83F2000F02CF83A2000F023F85520FA
:1042500000F026F8112000F01DF80348FFF780FD5C
:10426000292000F017F810BDFCBF020010B508218E
:104270000648FCF78BFF0648FFF772FD082103484C
:10428000FCF786FF0248FFF76BFD10BD000C0240F3
:10429000FCBF020000BF014908807047FEFF0160BB
:1042A00000BF014908807047000002601CB5012171
:1042B000142000F0D3FE0120009000208DF80400AF
:1042C0008DF8070069461A48FCF7ECFE02200090C2
:1042D00069461748FCF7E6FE01200090694615483C
:1042E000FCF7E0FE0220009069461248FCF7DAFE77
:1042F0000420009069460F48FCF7D4FE0820009087
:1043000069460C48FCF7CEFE10200090694609482B
:10431000FCF7C8FE2020009069460648FCF7C2FE64
:104320004020009069460348FCF7BCFE1CBD00001D
:1043300000080240001002400449054A0968497C0F
:1043400052F821100969096808470000740100202B
:104350008C0100202DE9FF4F87B09A48DDF850A06E
:10436000169E006890B1DDE91723DDF864C0CDF832
:1043700014C00296CDE90323159ACDE900A2D0F826
:1043800000C0DDE90923079800F0D3B80A98099A1C
:104390000844451E07988C4C1044A0F1010C159858
:1043A0004AEA0000012826D0C6F108000290002049
:1043B000009104900A980028DCBF0BB0BDE8F08F94
:1043C000159900980844411E019105902068B0F9A4
:1043D0000A208A4200F3E580B0F90E100098884266
:1043E00000F3DF80189803900998079D4FF00008AC
:1043F000002872DCD5E02268B2F90A30581A002889
:104400000DDD0A99091A0A910029DCBF0BB0BDE83D
:10441000F08F1946DDE9173400FB03401890B2F91C
:104420000E00281A002807DD0A9B181A0A90002897
:10443000DCBF0BB0BDE8F08FB2F90C00ACEB0000B4
:10444000002802DD099B181A0990B2F90830DDF83E
:104450001CC00020634550DDA3EB0C00099B1B1A18
:104460000993082E32D006DC012E0BD0022E15D077
:10447000042E1FD041E0102E30D0182E18BF202E51
:1044800034D03AE0189B20F0070C03EBE0031893BC
:10449000079B00F00700634407932EE0189B20F071
:1044A000030C03EBA0031893079B00F00300634485
:1044B000079322E0189B20F0010C03EB6003189394
:1044C000079B00F001006344079316E0189B034428
:1044D00060440790189300200FE032E0189B03EB34
:1044E0004003604407901893002006E0189B03EBFC
:1044F00080036044079018930020099B002BDCBFC9
:104500000BB0BDE8F08FDDE91734DDF864C0CDF8FD
:1045100014C00293CDE903400A98CDE90006527C0D
:104520002A48099B50F82200C268D2F804C00A4603
:104530000799E0470BB0BDE8F08F00BFB9F1000F5D
:1045400005D103984FF0080910F8017B03900298F9
:10455000A9EB060937FA00F007FA06F1CFB204D149
:104560002168097C11F0020F15D12168199AC96BD5
:10457000002AD1F800B018BF52F82000086005EBFF
:104580000A00DDE90013421E284600F08BF820687F
:10459000C06BC0F800B0099808F101085544804587
:1045A000CCDB0498401C049005980090DDE91701CD
:1045B000084418900A9904988842FFF601AF0BB09E
:1045C000BDE8F08FA0010020740100208C010020C4
:1045D0008C46164930B40968B1F90A306345D9BF31
:1045E000B1F90E309C4530BC7047B1F908309842A3
:1045F00015DB00BFB1F90C30934213DB8242BCBF24
:1046000030BC70474B7C0A4951F823401346624640
:10461000E1688D6801462046AC4630BC6047B1F980
:104620000800E7E7B1F90C20E8E70000740100207A
:104630008C0100200A46194930B40968B1F90A30E2
:104640009342D9BFB1F90E309A4230BC7047B1F9EC
:1046500008308342D9BFB1F90C30984230BC704762
:104660000B7C13F0010FDFF838C009D0497C5CF8EF
:104670002130D968D1F81CC0014630BC18466047CB
:10468000CB6B497C1B685CF821C0DCF80C108C6992
:1046900001466046A44630BC60470000740100201B
:1046A0008C01002038B58C4617490968B1F90840DB
:1046B00084421FDCB1F90C4094421DDB8242B8BF3A
:1046C00038BDB1F90A40644518DC00BFB1F90E40AD
:1046D0009C4216DB6345B8BF38BD00934B7C0B4949
:1046E00051F8234013466246E1680D6901462046B1
:1046F000A84738BD2046DDE72246DFE7B1F90AC00A
:10470000E4E7B1F90E30E5E7740100208C010020E8
:1047100070B508250024022807DAFDF765FA20B1F4
:10472000C1688A6A294690470446204670BD000049
:1047300070B50848092500240068407C022807DA83
:10474000FDF752FA20B1C1688A6A294690470446AB
:10475000204670BD7401002070B509250024022890
:1047600007DAFDF741FA20B1C1688A6A2946904705
:104770000446204670BD70B500252C462046FDF746
:1047800033FA002818BF6D1C641C022CF6DB284687
:1047900070BD0000074810B50068407CFDF724FAA2
:1047A000002808BF10BDC168CA6ABDE810400221D8
:1047B0001047000074010020F8B515460E4601248C
:1047C000FDF712FA009058B1C0680421426A6846A9
:1047D0009047030004D02A463146009898470024A9
:1047E0002046F8BD0148006870470000F80100202D
:1047F00070B501250024022807DAFDF7F5F920B18C
:10480000C1688A6A294690470446204670BD2DE952
:10481000F041012700243D4600262846022D07DAF4
:10482000FDF7E2F920B1C1688A6A39469047064629
:10483000B44204DB6D1EEFD52046BDE8F08134465E
:10484000F8E700000148406870470000F8010020C8
:1048500070B502250024022807DAFDF7C5F920B15A
:10486000C1688A6A294690470446204670BD2DE9F2
:10487000F04102270024012500262846022D07DAF0
:10488000FDF7B2F920B1C1688A6A394690470646F9
:10489000B44204DB6D1EEFD52046BDE8F0813446FE
:1048A000F8E700002DE9F04101004FF000001ABFC9
:1048B0008E68002EBDE8F081104F7A68002A08BF8C
:1048C000BDE8F0810C68B4F5807FC8BFBDE8F08119
:1048D0003868A0420FDB0025002C09DD56F82500C2
:1048E000FFF72AFD796841F825006D1CAC42F5DC24
:1048F0007868BDE8F0810446EDE70000EC02002096
:104900000449054A0968497C52F821100969496837
:1049100008470000740100208C01002000F01F01F6
:10492000074A084BC0F3451CC0F3C42013F80C30F1
:10493000105C515C00EB032000EB0140704700006D
:1049400074C9000894C9000810B5FFF769FB4FF45B
:104950007A70FCF7BBF903F05DFA10BD10B50A4C94
:10496000606870B920688000FCF7DEFE6060002897
:1049700004BF012010BD0548054908600846FEF740
:10498000E1FF002010BD0000EC02002019A100088A
:10499000F40200202DE9F05FFFF7EDFE071E4FF057
:1049A0000005D8BFBDE8F09FDFF864A0DFF864B071
:1049B000DFF864802846FDF717F920B3D8F8000027
:1049C00090F8119045742846FFF7A2FE082816DCDF
:1049D0005AF825000069584511D02846FFF7BCFE5B
:1049E000061E4FF000040ADDE0B2FFF789FF024621
:1049F000E1B2284600F08EF8641CA642F4DCD8F838
:104A0000000080F811906D1CBD42D3DBBDE8F09F23
:104A10008C010020ACD300087401002010B50F4CAD
:104A20000F492068407C51F8200060B1C16811B185
:104A30000968042903D000680028F7D103E00028A2
:104A400018BFFDF7B7F800212068016600F10801E2
:104A50004161BDE8104000F031B800007401002051
:104A60008C0100200149096849680847E8020020D4
:104A7000044909680A7C12F0040F14BFC96B896BE2
:104A8000086070477401002030B50A4C054683B0B9
:104A90002068417C084850F82100C1680A6B6946CB
:104AA000904720686A4629460830FEF76EFE03B03C
:104AB00030BD0000740100208C0100200448016812
:104AC00004484A7C083150F82200C268126B104733
:104AD000740100208C010020014909680968084719
:104AE000E8020020044909680A7C12F0040F14BF90
:104AF000896BC96B0860704774010020014AC2E9E4
:104B000000017047F80100200149096889680847D9
:104B1000E8020020F8B515460E460124FDF764F8BA
:104B2000009058B1C0681021426A6846904703005F
:104B300004D02A4631460098984700242046F8BD04
:104B4000F8B515460E460124FDF74EF8009058B111
:104B5000C0680321426A68469047030004D02A4691
:104B600031460098984700242046F8BDF8B5154610
:104B70000E460124FDF738F8009058B1C0680B21AB
:104B8000426A68469047030004D02A46314600989E
:104B9000984700242046F8BDF8B515460E46012476
:104BA000FDF722F8009058B1C0680A21426A6846B1
:104BB0009047030004D02A463146009898470024C5
:104BC0002046F8BD10B5074C2068006BFFF7B4FB1A
:104BD000FFF788FF2068406BFFF7AEFBBDE8104091
:104BE000FFF746BF7401002010B5A0B014211BA828
:104BF000FBF73EFB682101A8FBF73AFB00231A46AE
:104C000015491648FCF748FF04464FF4A072F021FE
:104C10000020FFF7ABFF4FF4A072F0210020FFF758
:104C2000BBFF00201C901B9006201D9002201F90AF
:104C30001BA92046FCF7AEFA0948099009480A90DA
:104C400009480C9009481090094B0A4A01A92046CE
:104C5000FCF7D6FA20B010BDB8BC0008D0BC0008E4
:104C6000B94F0008954F0008A14F00087D4F00087C
:104C7000C51200085D1200082DE9F04106460C46F9
:104C80001746012C04D1FFF75FFE0020BDE8F0813C
:104C90004FF0FF3500BF00BF2846F7E72DE9FF4F73
:104CA0008DB07A4ADDF868A01C9E20981268A2B1E7
:104CB000DDE91D03DDF87CC0CDF814C00296CDE916
:104CC00003031B98CDE900A0D2F800C0DDE90F2353
:104CD0000D98E04711B0BDE8F08F109A0F9B0A4481
:104CE000551E0D9A6A4C1A44A2F1010C1B9A4AEA0D
:104CF0000202012A24D0C6F1080005900020089085
:104D0000109802910028DCBF11B0BDE8F08F1B990C
:104D1000029808440990401E00902168B1F90A20C9
:104D200082427DDCB1F90E100298884278DC1E9830
:104D30000B900F980D9D4FF00008002863DC94E065
:104D40002268B2F90A40631A002B0DDD1099C91AC6
:104D500010910029DCBF11B0BDE8F08F2146DDE9DC
:104D60001D4703FB04731E93B2F90E30EB1A002BA0
:104D700007DD109CE31A1093002BDCBF11B0BDE8D7
:104D8000F08FB2F90C30ACEB0303002B04DDDDF83F
:104D90003CC0ACEB03030F930D9BA3EB000CB2F9EB
:104DA000083063450FDDA3EB0C040F9D23182C1B6B
:104DB0000F941E9C181A20F0070004EBE3048444AF
:104DC00003F007001E940F9B002BDCBF11B0BDE861
:104DD000F08FDDE91D341F9D05950293CDE9034059
:104DE0001098CDE90006527C2A480F9B50F822000B
:104DF000C26854680A466146A04711B0BDE8F08F0A
:104E0000B9F1000F05D10B984FF0080910F8017B9C
:104E10000B90059837FA00F007FA06F1CFB200E0E0
:104E200023E0A9EB060904D12168097C11F0020FE7
:104E300015D121681F9AC96B002AD1F800B018BF9C
:104E400052F82000086005EB0A00421E2846009B2D
:104E50000299FFF727FC2068C06BC0F800B00F98DC
:104E600008F1010855448045CADB0898401C0890A9
:104E700009980290DDE91D1008441E9008991098C9
:104E80008142FFF644AF11B0BDE8F08FA0010020D1
:104E9000740100208C0100200021002830D030F067
:104EA000010208BF01213AD030F0030208BF0220FE
:104EB00026D030F0070208BF032021D030F00F02C7
:104EC00008BF04201CD030F01F0208BF052017D0F7
:104ED00030F0FF0208BF082012D0420A18BF5FEA74
:104EE00010321ED0C20B18BF5FEA104219D0820CDC
:104EF00008BF122004D010F07F4F18BF20200DD023
:104F0000821E062A98BF082109D9A0F10902072AA2
:104F100098BF102103D911380F2800D82021084646
:104F200070471020ECE700001CB50121022000F0C2
:104F300095F84FF48070009001208DF80400002057
:104F40008DF8060001208DF8070069460A48FCF735
:104F5000A9F84FF40070009069460748FCF7A2F8E2
:104F60004FF480710448FCF713F94FF400710248C4
:104F7000FCF70EF91CBD00000004024003E0044AE7
:104F8000128820F8022B0A1EA1F10101F7D1704707
:104F90000000026000BF0149088070470000026005
:104FA00003E030F8022B034B1A800A1EA1F1010125
:104FB000F7D170470000026000BF014908807047C8
:104FC000FEFF016000BFFEE77047000070B50021E2
:104FD00000230F22C4781CB3174C246804F4E06447
:104FE000C4F5E064C4F30721C1F10404E3B20A414B
:104FF00044789C40E1B28478144021430C07210E90
:105000000E4C05786155047804F01F050124AC406E
:1050100005786D11AD0005F1E025C5F8004109E006
:10502000047804F01F050124AC40054D0678761184
:1050300045F8264070BD00000CED00E000E400E003
:1050400080E100E002490143024A1160704700001C
:105050000000FA050CED00E07047000029B1064A97
:1050600012680243044B1A6004E0034A1268824348
:10507000014B1A60704700003038024029B1064ADF
:1050800012680243044B1A6004E0034A1268824328
:10509000014B1A60704700003838024029B1064AB7
:1050A00012680243044B1A6004E0034A1268824308
:1050B000014B1A60704700004038024029B1064A8F
:1050C00012680243044B1A6004E0034A12688243E8
:1050D000014B1A60704700004438024029B1064A6B
:1050E00012680243044B1A6004E0034A12688243C8
:1050F000014B1A607047000024380240F0B50021CF
:1051000000220024022500260223324F3F6807F0C8
:105110000C0121B1042905D0082937D105E02E4F13
:10512000076036E02D4F076033E02A4F3F1F3F688E
:10513000C7F38056274F3F1F3F6807F03F036EB10C
:10514000264FB7FBF3F7DFF88CC0ACF1040CDCF8AA
:1051500000C0CCF3881C07FB0CF40CE01E4FB7FB1F
:10516000F3F7DFF870C0ACF1040CDCF800C0CCF34E
:10517000881C07FB0CF4174F3F1F3F68C7F301471C
:105180007F1C7D00B4FBF5F7076002E0124F07605B
:1051900000BF00BF0F4F3F6807F0F0010909104F33
:1051A0007A5C0768D74047600A4F3F6807F4E051D0
:1051B000890A0B4F7A5C4768D7408760054F3F6884
:1051C00007F46041490B064F7A5C4768D740C760D7
:1051D000F0BD0000083802400024F400001BB700B6
:1051E000140000207CB505460024002000900190AA
:1051F00000F0EAF800F0007010B10E2420467CBDEB
:105200003D49098888B26946FBF782FE04460CB125
:105210002046F4E7012D36D1019800F480200028C3
:105220002ED0354800880004344908603720486093
:10523000402088600020C860A8020861084600F08D
:1052400001F93720FBF700FA04460CB12046D6E7F7
:1052500002202A490860062048604020886000201B
:10526000C8604FF480600861084600F0EBF8062043
:10527000FBF7EAF904460CB12046C0E72046BEE73A
:1052800025242046BBE7019800F4803078B31A4803
:105290000088000419490860372048604020886071
:1052A0000020C8604FF480600861084600F0CAF82A
:1052B0003720FBF7C9F904460CB120469FE70020D0
:1052C0000E49086006204860402088600020C860C1
:1052D0004FF480600861084600F0B4F80620FBF740
:1052E000B3F904460CB1204689E7204687E7FFE77B
:1052F0002524204683E7000060000020B003002042
:105300000149086070470000382C014001490860DD
:1053100070470000382C01400149086070470000C8
:10532000A080254201490860704700008C85254215
:1053300000210B4B02681A601B1D42681A601A1D7F
:10534000116821F0F701D0E902231A4303691A43D7
:1053500043691A431143024A083211607047000042
:10536000242C014010B50121C802FFF7B7FE00212F
:105370004FF40060FFF7B2FE10BD00000148006866
:10538000C0B27047102C014001460020034A126849
:105390000A400AB1012000E000207047342C01408F
:1053A00001460020034A12680A400AB1012000E0C9
:1053B00000207047342C01400248006800F00300D0
:1053C00070470000002C014008B501460020009005
:1053D0000248084400900098006808BD142C014061
:1053E00010B500F00DFD10BD29B1064A1268024348
:1053F000044B1A6004E0034A12688243014B1A60AE
:10540000704700003C2C014000210A4A116847F611
:10541000FF629143027D83681A4343681A43C3685D
:105420001A4303681A4303691A431143014A11607E
:1054300070470000042C01400148006870470000DC
:10544000802C01400021094B02681A601A1D116866
:105450006FF30A01D0E901231A43C3681A430369B1
:105460001A431143014A121D11607047082C014074
:105470000149086070470000002C014008B5012078
:1054800000909DF8000008BD70B504460025204836
:105490000068032802D12725284670BD1C480068F3
:1054A00038B11B480068012803D019480068022859
:1054B0002CD1B4F5805F02D127252846EDE7B4F55D
:1054C000006F13D10120FFF78DFE0546F5B90020CE
:1054D000104908750860486088604FF40060C86033
:1054E000002008610846FFF78FFF0FE00020FFF75C
:1054F00079FE054655B900200649087508604860E0
:105500008860C86008610846FFF77EFF2846C4E748
:105510005C00002098030020F0B501460020002226
:10552000C04B1B7881F85630BF4B1B88A1F8543014
:10553000BE4B1B681A0E93090B70C2F383034B70AA
:1055400002F003038B70B94B1B68C3F30742CA70A8
:10555000B64B1B88C3F307220A71B44B1A784A7101
:105560005B681A0E1301CB80B04B5B68C3F3074234
:10557000CB8843EA1213CB8002F00F030B72AB4BC4
:105580009B88C3F30722D3094B72C2F380138B723B
:10559000C2F34013CB72C2F300130B7300234B739F
:1055A000A04B1B681BB19F4B1B68012B4FD193076E
:1055B0001B0D0B619D4B1A790B6943EA82030B614A
:1055C0009A4B9B681A0E0B6943EA92130B61C2F364
:1055D000C2030B7502F007034B75944B9B68C3F332
:1055E000074253098B75C2F38203CB7593075B0F98
:1055F0000B768E4B1B89C3F307220B7E43EAD21333
:105600000B760B695B1C0024C1E912340B7ED1E9D7
:1056100012469B1C012505FA03F3DF17A4FB035C6C
:1056200006FB03C304FB0733C1E912530C7A0123C1
:10563000A3400B650027D1E912560B6DA5FB034C67
:1056400006FB03C305FB0733C1E9124336E0754B84
:105650001B68022B32D1754B1A7993069B0A0B619A
:10566000724B9B681A0E0B6943EA02230B616F4B66
:105670009B68C3F307420B6913430B616B4B1B8998
:10568000C3F307220B6900245B1C44EB04074FF4AF
:1056900000760025A3FB064C07FB06C603FB056648
:1056A0004FF480650027A4FB053C06FB05C504FB01
:1056B0000754C1E912344FF400730B65C2F3801331
:1056C00001F8193F93065B0E4B70584B1A7A4B78D2
:1056D00043EAD2134B7002F07F038B70534BDB68AD
:1056E0001A0ED309CB70C2F341130B71C2F38203BC
:1056F0004B7193071B0F8B714C4BDB68C3F3074255
:105700008B7943EA92138B71C2F34013CB71002360
:105710000B7202F001034B72444B9B89C3F30722C7
:10572000D3098B72C2F38013CB72C2F340130B7395
:10573000C2F300134B73C2F381038B7302F00303B4
:10574000CB733A4B1A7B53080B7401234B74384BC1
:105750001B681A0ECA741939354B1B68C3F307420C
:105760001402CC85324B1B88C3F30722CB8D134325
:10577000CB852F4B1A7814060C635B681A0E0B6BE3
:1057800043EA02440C632A4B5B68C3F307420B6B8A
:1057900043EA02240C63264B9B88C3F307220B6B5E
:1057A00013430B63224B1A7934235A54204B9B68C2
:1057B0001A0E35235A541E4B9B68C3F30742140636
:1057C0008C631B4B1B89C3F307228B6B43EA024498
:1057D0008C63174B1A7A8B6B43EA02248C63144B4D
:1057E000DB681A0E8B6B13438B63114BDB68C3F3BF
:1057F00007423C235B5C43EA12143C235C541307CE
:105800001C0DCC870A4B9B89C3F30722CB8F134314
:10581000CB87074B1A7B540840235C540124412357
:105820005C54F0BD5C0000206000002010030020EC
:105830002003002008B500200090FFF71FFE01287C
:1058400009D1684600F0CAFB08B1FF2008BD0098E6
:10585000C0F34320FAE7FF20F8E710B50424FFF770
:10586000E9FF0446042C01D1002010BDFF2C01D11A
:105870000220FAE70120F8E71CB5002001904FF460
:10588000C060FFF7DFFB31208DF8000001208DF8AC
:10589000010000208DF8020001208DF80300684609
:1058A000FFF794FB3B208DF8000001208DF80100EC
:1058B0006846FFF78BFB00F06DF9FFF753FD00F032
:1058C000BBF901909DF8040010B19DF804001CBDC7
:1058D00000F032F801909DF8040010B19DF804002A
:1058E000F5E7002012490875086048608860C860C4
:1058F00008610846FFF788FD0E48FFF70DFE01908E
:105900009DF8040040B90B48B0F85400020410465A
:10591000002100F047FB01909DF8040020B94FF4EE
:105920000060FFF7B1FD01909DF80400CFE7000093
:10593000980300204003002038B500240120009087
:10594000FFF73AFD10B92524204638BD44480068C9
:10595000042828D000204349086002204860C02065
:1059600088600020C8604FF4806008610846FFF737
:1059700069FDFAF703FF04460CB12046E5E7002075
:10598000FFF722FD384908600420FFF71DFD364966
:1059900048600820FFF718FD334988600C20FFF7A6
:1059A00013FD3149C8602E48006858B12C48006882
:1059B000012807D02A480068062803D02848006834
:1059C000022816D1002027490860032048604020A3
:1059D00088600020C8604FF4806008610846FFF7C7
:1059E00031FD69460320FAF70BFF04460CB120464F
:1059F000ABE71B48006804282ED0BDF800001B4907
:105A00000860BDF8000000041649086009204860DD
:105A1000C02088600020C8604FF48060086108469C
:105A2000FFF710FDFAF7AAFE04460CB120468CE7FA
:105A30000020FFF7C9FC0E4908600420FFF7C4FCF2
:105A40000B4948600820FFF7BFFC094988600C201B
:105A5000FFF7BAFC0649C8600024204675E700003D
:105A60005C000020B0030020200300206000002024
:105A70001003002030B58FB004460D464FF0FA51A8
:105A80001E48FAF761FF00211C48FAF791FF1B48F6
:105A9000FAF79AFF4FF000600090194801900294C5
:105AA0000020039001200490002005904FF48060B6
:105AB00006908000079080000890002009904FF425
:105AC00040300A9004200B9003200C904FF400000B
:105AD0000D9080100E9069460848FBF77DF8012272
